{
  "address": "0xab16A69A5a8c12C732e0DEFF4BE56A70bb64c926",
  "abi": [
    {
      "inputs": [
        {
          "internalType": "bytes",
          "name": "x",
          "type": "bytes"
        },
        {
          "internalType": "uint256",
          "name": "n",
          "type": "uint256"
        }
      ],
      "name": "shiftLeft",
      "outputs": [
        {
          "internalType": "bytes",
          "name": "",
          "type": "bytes"
        }
      ],
      "stateMutability": "pure",
      "type": "function"
    }
  ],
  "transactionHash": "0x269131e0183686e22fc99637ca3734cb6fa655e5d8c35578c1a7d4a71a000be5",
  "args": [],
  "numDeployments": 1,
  "solcInputHash": "227bf8b3a5f372c44dda076f32565feb",
  "bytecode": "0x61028a61003a600b82828239805160001a60731461002d57634e487b7160e01b600052600060045260246000fd5b30600052607381538281f3fe73000000000000000000000000000000000000000030146080604052600436106100355760003560e01c8063927ab8781461003a575b600080fd5b61004d6100483660046100da565b610063565b60405161005a919061015d565b60405180910390f35b81811b5b92915050565b600061008061007b84610191565b610175565b90508281526020810184848401111561009857600080fd5b6100a38482856101bc565b509392505050565b600082601f8301126100bb578081fd5b81356100cb84826020860161006d565b949350505050565b8035610067565b600080604083850312156100ec578182fd5b8183013567ffffffffffffffff811115610104578283fd5b610110858286016100ab565b9250506020610121858286016100d3565b9150509250929050565b6000610135825190565b80845260208401935061014c8185602086016101c8565b601f01601f19169290920192915050565b6020808252810161016e818461012b565b9392505050565b600061018060405190565b905061018c82826101f8565b919050565b600067ffffffffffffffff8211156101ab576101ab610225565b601f19601f83011660200192915050565b82818337506000910152565b60005b838110156101e35781810151838201526020016101cb565b838111156101f2576000848401525b50505050565b601f19601f830116810181811067ffffffffffffffff8211171561021e5761021e610225565b6040525050565b7f4e487b7100000000000000000000000000000000000000000000000000000000600052604160045260246000fdfea26469706673582212205ac77c5cb6e843827eba43d91cf16fdf1a8be89e56c5fa74940d36f0abceff6e64736f6c63430008040033",
  "devdoc": {
    "kind": "dev",
    "methods": {},
    "version": 1
  },
  "userdoc": {
    "kind": "user",
    "methods": {},
    "version": 1
  },
  "storageLayout": {
    "storage": [],
    "types": null
  }
}