{
  "address": "0x19cEcCd6942ad38562Ee10bAfd44776ceB67e923",
  "abi": [
    {
      "inputs": [
        {
          "internalType": "string",
          "name": "uri_",
          "type": "string"
        }
      ],
      "stateMutability": "nonpayable",
      "type": "constructor"
    },
    {
      "anonymous": false,
      "inputs": [
        {
          "indexed": true,
          "internalType": "address",
          "name": "account",
          "type": "address"
        },
        {
          "indexed": true,
          "internalType": "address",
          "name": "operator",
          "type": "address"
        },
        {
          "indexed": false,
          "internalType": "bool",
          "name": "approved",
          "type": "bool"
        }
      ],
      "name": "ApprovalForAll",
      "type": "event"
    },
    {
      "anonymous": false,
      "inputs": [
        {
          "indexed": true,
          "internalType": "address",
          "name": "previousOwner",
          "type": "address"
        },
        {
          "indexed": true,
          "internalType": "address",
          "name": "newOwner",
          "type": "address"
        }
      ],
      "name": "OwnershipTransferred",
      "type": "event"
    },
    {
      "anonymous": false,
      "inputs": [
        {
          "indexed": false,
          "internalType": "address",
          "name": "account",
          "type": "address"
        }
      ],
      "name": "Paused",
      "type": "event"
    },
    {
      "anonymous": false,
      "inputs": [
        {
          "indexed": true,
          "internalType": "address",
          "name": "operator",
          "type": "address"
        },
        {
          "indexed": true,
          "internalType": "address",
          "name": "from",
          "type": "address"
        },
        {
          "indexed": true,
          "internalType": "address",
          "name": "to",
          "type": "address"
        },
        {
          "indexed": false,
          "internalType": "uint256[]",
          "name": "ids",
          "type": "uint256[]"
        },
        {
          "indexed": false,
          "internalType": "uint256[]",
          "name": "values",
          "type": "uint256[]"
        }
      ],
      "name": "TransferBatch",
      "type": "event"
    },
    {
      "anonymous": false,
      "inputs": [
        {
          "indexed": true,
          "internalType": "address",
          "name": "operator",
          "type": "address"
        },
        {
          "indexed": true,
          "internalType": "address",
          "name": "from",
          "type": "address"
        },
        {
          "indexed": true,
          "internalType": "address",
          "name": "to",
          "type": "address"
        },
        {
          "indexed": false,
          "internalType": "uint256",
          "name": "id",
          "type": "uint256"
        },
        {
          "indexed": false,
          "internalType": "uint256",
          "name": "value",
          "type": "uint256"
        }
      ],
      "name": "TransferSingle",
      "type": "event"
    },
    {
      "anonymous": false,
      "inputs": [
        {
          "indexed": false,
          "internalType": "string",
          "name": "value",
          "type": "string"
        },
        {
          "indexed": true,
          "internalType": "uint256",
          "name": "id",
          "type": "uint256"
        }
      ],
      "name": "URI",
      "type": "event"
    },
    {
      "anonymous": false,
      "inputs": [
        {
          "indexed": false,
          "internalType": "address",
          "name": "account",
          "type": "address"
        }
      ],
      "name": "Unpaused",
      "type": "event"
    },
    {
      "inputs": [
        {
          "components": [
            {
              "internalType": "uint256",
              "name": "price",
              "type": "uint256"
            },
            {
              "internalType": "string",
              "name": "name",
              "type": "string"
            }
          ],
          "internalType": "struct CandyShop.SKUInput[]",
          "name": "_skus",
          "type": "tuple[]"
        }
      ],
      "name": "addSku",
      "outputs": [],
      "stateMutability": "nonpayable",
      "type": "function"
    },
    {
      "inputs": [
        {
          "internalType": "address",
          "name": "account",
          "type": "address"
        },
        {
          "internalType": "uint256",
          "name": "id",
          "type": "uint256"
        }
      ],
      "name": "balanceOf",
      "outputs": [
        {
          "internalType": "uint256",
          "name": "",
          "type": "uint256"
        }
      ],
      "stateMutability": "view",
      "type": "function"
    },
    {
      "inputs": [
        {
          "internalType": "address[]",
          "name": "accounts",
          "type": "address[]"
        },
        {
          "internalType": "uint256[]",
          "name": "ids",
          "type": "uint256[]"
        }
      ],
      "name": "balanceOfBatch",
      "outputs": [
        {
          "internalType": "uint256[]",
          "name": "",
          "type": "uint256[]"
        }
      ],
      "stateMutability": "view",
      "type": "function"
    },
    {
      "inputs": [
        {
          "internalType": "address",
          "name": "from",
          "type": "address"
        },
        {
          "internalType": "uint256",
          "name": "tokenId",
          "type": "uint256"
        },
        {
          "internalType": "uint256",
          "name": "amount",
          "type": "uint256"
        }
      ],
      "name": "burn",
      "outputs": [],
      "stateMutability": "nonpayable",
      "type": "function"
    },
    {
      "inputs": [
        {
          "internalType": "address",
          "name": "from",
          "type": "address"
        },
        {
          "internalType": "uint256[]",
          "name": "tokenIds",
          "type": "uint256[]"
        },
        {
          "internalType": "uint256[]",
          "name": "amounts",
          "type": "uint256[]"
        }
      ],
      "name": "burnBatch",
      "outputs": [],
      "stateMutability": "nonpayable",
      "type": "function"
    },
    {
      "inputs": [],
      "name": "chainDreamersAddress",
      "outputs": [
        {
          "internalType": "address",
          "name": "",
          "type": "address"
        }
      ],
      "stateMutability": "view",
      "type": "function"
    },
    {
      "inputs": [
        {
          "internalType": "uint256",
          "name": "",
          "type": "uint256"
        }
      ],
      "name": "inventory",
      "outputs": [
        {
          "internalType": "uint256",
          "name": "id",
          "type": "uint256"
        },
        {
          "internalType": "uint256",
          "name": "price",
          "type": "uint256"
        },
        {
          "internalType": "string",
          "name": "name",
          "type": "string"
        }
      ],
      "stateMutability": "view",
      "type": "function"
    },
    {
      "inputs": [
        {
          "internalType": "address",
          "name": "account",
          "type": "address"
        },
        {
          "internalType": "address",
          "name": "operator",
          "type": "address"
        }
      ],
      "name": "isApprovedForAll",
      "outputs": [
        {
          "internalType": "bool",
          "name": "",
          "type": "bool"
        }
      ],
      "stateMutability": "view",
      "type": "function"
    },
    {
      "inputs": [
        {
          "internalType": "uint256",
          "name": "tokenId",
          "type": "uint256"
        },
        {
          "internalType": "uint256",
          "name": "amount",
          "type": "uint256"
        }
      ],
      "name": "mint",
      "outputs": [],
      "stateMutability": "payable",
      "type": "function"
    },
    {
      "inputs": [
        {
          "internalType": "uint256[]",
          "name": "tokenIds",
          "type": "uint256[]"
        },
        {
          "internalType": "uint256[]",
          "name": "amounts",
          "type": "uint256[]"
        }
      ],
      "name": "mintBatch",
      "outputs": [],
      "stateMutability": "payable",
      "type": "function"
    },
    {
      "inputs": [],
      "name": "owner",
      "outputs": [
        {
          "internalType": "address",
          "name": "",
          "type": "address"
        }
      ],
      "stateMutability": "view",
      "type": "function"
    },
    {
      "inputs": [],
      "name": "pause",
      "outputs": [],
      "stateMutability": "nonpayable",
      "type": "function"
    },
    {
      "inputs": [],
      "name": "paused",
      "outputs": [
        {
          "internalType": "bool",
          "name": "",
          "type": "bool"
        }
      ],
      "stateMutability": "view",
      "type": "function"
    },
    {
      "inputs": [],
      "name": "renounceOwnership",
      "outputs": [],
      "stateMutability": "nonpayable",
      "type": "function"
    },
    {
      "inputs": [
        {
          "internalType": "address",
          "name": "from",
          "type": "address"
        },
        {
          "internalType": "address",
          "name": "to",
          "type": "address"
        },
        {
          "internalType": "uint256[]",
          "name": "ids",
          "type": "uint256[]"
        },
        {
          "internalType": "uint256[]",
          "name": "amounts",
          "type": "uint256[]"
        },
        {
          "internalType": "bytes",
          "name": "data",
          "type": "bytes"
        }
      ],
      "name": "safeBatchTransferFrom",
      "outputs": [],
      "stateMutability": "nonpayable",
      "type": "function"
    },
    {
      "inputs": [
        {
          "internalType": "address",
          "name": "from",
          "type": "address"
        },
        {
          "internalType": "address",
          "name": "to",
          "type": "address"
        },
        {
          "internalType": "uint256",
          "name": "id",
          "type": "uint256"
        },
        {
          "internalType": "uint256",
          "name": "amount",
          "type": "uint256"
        },
        {
          "internalType": "bytes",
          "name": "data",
          "type": "bytes"
        }
      ],
      "name": "safeTransferFrom",
      "outputs": [],
      "stateMutability": "nonpayable",
      "type": "function"
    },
    {
      "inputs": [
        {
          "internalType": "address",
          "name": "operator",
          "type": "address"
        },
        {
          "internalType": "bool",
          "name": "approved",
          "type": "bool"
        }
      ],
      "name": "setApprovalForAll",
      "outputs": [],
      "stateMutability": "nonpayable",
      "type": "function"
    },
    {
      "inputs": [
        {
          "internalType": "address",
          "name": "_chainDreamersAddress",
          "type": "address"
        }
      ],
      "name": "setChainDreamersAddress",
      "outputs": [],
      "stateMutability": "nonpayable",
      "type": "function"
    },
    {
      "inputs": [
        {
          "internalType": "string",
          "name": "",
          "type": "string"
        }
      ],
      "name": "skuIds",
      "outputs": [
        {
          "internalType": "uint256",
          "name": "",
          "type": "uint256"
        }
      ],
      "stateMutability": "view",
      "type": "function"
    },
    {
      "inputs": [
        {
          "internalType": "bytes4",
          "name": "interfaceId",
          "type": "bytes4"
        }
      ],
      "name": "supportsInterface",
      "outputs": [
        {
          "internalType": "bool",
          "name": "",
          "type": "bool"
        }
      ],
      "stateMutability": "view",
      "type": "function"
    },
    {
      "inputs": [
        {
          "internalType": "address",
          "name": "newOwner",
          "type": "address"
        }
      ],
      "name": "transferOwnership",
      "outputs": [],
      "stateMutability": "nonpayable",
      "type": "function"
    },
    {
      "inputs": [],
      "name": "unpause",
      "outputs": [],
      "stateMutability": "nonpayable",
      "type": "function"
    },
    {
      "inputs": [
        {
          "internalType": "uint256",
          "name": "",
          "type": "uint256"
        }
      ],
      "name": "uri",
      "outputs": [
        {
          "internalType": "string",
          "name": "",
          "type": "string"
        }
      ],
      "stateMutability": "view",
      "type": "function"
    },
    {
      "inputs": [],
      "name": "withdraw",
      "outputs": [],
      "stateMutability": "nonpayable",
      "type": "function"
    },
    {
      "stateMutability": "payable",
      "type": "receive"
    }
  ],
  "transactionHash": "0x375c0769e26c4e71e46a7fa30042198fc1abd21648396e5cf443afcf1828a248",
  "args": [
    "https://api.chaindreamers.xyz/test/candy/tokens/{id}/metadata"
  ],
  "numDeployments": 1,
  "solcInputHash": "6f841e104422a730b31d7866c8b41a45",
  "bytecode": "0x60806040523480156200001157600080fd5b506040516200375f3803806200375f8339810160408190526200003491620002b8565b80620000408162000062565b506003805460ff1916905562000056336200007b565b5060016004556200033f565b805162000077906002906020840190620000d5565b5050565b600380546001600160a01b03838116610100818102610100600160a81b031985161790945560405193909204169182907f8be0079c531659141344cd1fd0a4f28419497f9722a3daafe3b4186f6b6457e090600090a35050565b828054620000e3906200030e565b90600052602060002090601f01602090048101928262000107576000855562000152565b82601f106200012257805160ff191683800117855562000152565b8280016001018555821562000152579182015b828111156200015257825182559160200191906001019062000135565b506200016092915062000164565b5090565b5b8082111562000160576000815560010162000165565b634e487b7160e01b600052604160045260246000fd5b601f19601f83011681016001600160401b0381118282101715620001b957620001b96200017b565b6040525050565b6000620001cc60405190565b9050620001da828262000191565b919050565b60006001600160401b03821115620001fb57620001fb6200017b565b601f19601f83011660200192915050565b60005b83811015620002295781810151838201526020016200020f565b8381111562000239576000848401525b50505050565b6000620002566200025084620001df565b620001c0565b905082815260208101848484011115620002735762000273600080fd5b620002808482856200020c565b509392505050565b600082601f8301126200029e576200029e600080fd5b8151620002b08482602086016200023f565b949350505050565b600060208284031215620002cf57620002cf600080fd5b81516001600160401b03811115620002ea57620002ea600080fd5b620002b08482850162000288565b634e487b7160e01b600052602260045260246000fd5b6002810460018216806200032357607f821691505b60208210811415620003395762000339620002f8565b50919050565b613410806200034f6000396000f3fe60806040526004361061018e5760003560e01c80636b20c454116100d6578063d351cfdc1161007f578063f2fde38b11610059578063f2fde38b1461048b578063f5298aca146104ab578063fbc7571f146104cb57600080fd5b8063d351cfdc1461040f578063e985e9c514610422578063f242432a1461046b57600080fd5b80638da5cb5b116100b05780638da5cb5b146103ac578063a22cb465146103cf578063a4fd6a04146103ef57600080fd5b80636b20c45414610362578063715018a6146103825780638456cb591461039757600080fd5b80633f4ba83a11610138578063545a149911610112578063545a1499146102e55780635952c55d146103125780635c975abb1461034a57600080fd5b80633f4ba83a146102745780634272ee18146102895780634e1273f4146102b857600080fd5b80631b2ef1ca116101695780631b2ef1ca1461022a5780632eb2c2d61461023f5780633ccfd60b1461025f57600080fd5b8062fdd58e1461019a57806301ffc9a7146101d05780630e89341c146101fd57600080fd5b3661019557005b600080fd5b3480156101a657600080fd5b506101ba6101b5366004611f51565b6104eb565b6040516101c79190611f96565b60405180910390f35b3480156101dc57600080fd5b506101f06101eb366004611fd7565b610545565b6040516101c79190612008565b34801561020957600080fd5b5061021d610218366004612016565b610628565b6040516101c79190612099565b61023d6102383660046120b1565b6106bc565b005b34801561024b57600080fd5b5061023d61025a366004612267565b61077b565b34801561026b57600080fd5b5061023d6107c7565b34801561028057600080fd5b5061023d610862565b34801561029557600080fd5b506102a96102a4366004612016565b61089c565b6040516101c793929190612330565b3480156102c457600080fd5b506102d86102d33660046123d9565b610947565b6040516101c7919061249f565b3480156102f157600080fd5b50600854610305906001600160a01b031681565b6040516101c791906124b9565b34801561031e57600080fd5b506101ba61032d3660046124c7565b805160208183018101805160068252928201919093012091525481565b34801561035657600080fd5b5060035460ff166101f0565b34801561036e57600080fd5b5061023d61037d366004612554565b610a2f565b34801561038e57600080fd5b5061023d610bd6565b3480156103a357600080fd5b5061023d610c10565b3480156103b857600080fd5b5060035461010090046001600160a01b0316610305565b3480156103db57600080fd5b5061023d6103ea3660046125f7565b610c48565b3480156103fb57600080fd5b5061023d61040a366004612720565b610c57565b61023d61041d36600461275b565b610e71565b34801561042e57600080fd5b506101f061043d3660046127d4565b6001600160a01b03918216600090815260016020908152604080832093909416825291909152205460ff1690565b34801561047757600080fd5b5061023d610486366004612807565b611001565b34801561049757600080fd5b5061023d6104a6366004612861565b611046565b3480156104b757600080fd5b5061023d6104c6366004612882565b6110a5565b3480156104d757600080fd5b5061023d6104e6366004612861565b61111a565b60006001600160a01b03831661051c5760405162461bcd60e51b81526004016105139061292c565b60405180910390fd5b506000818152602081815260408083206001600160a01b03861684529091529020545b92915050565b60007fffffffff0000000000000000000000000000000000000000000000000000000082167fd9b67a260000000000000000000000000000000000000000000000000000000014806105d857507fffffffff0000000000000000000000000000000000000000000000000000000082167f0e89341c00000000000000000000000000000000000000000000000000000000145b8061053f57507f01ffc9a7000000000000000000000000000000000000000000000000000000007fffffffff0000000000000000000000000000000000000000000000000000000083161461053f565b60606002805461063790612952565b80601f016020809104026020016040519081016040528092919081815260200182805461066390612952565b80156106b05780601f10610685576101008083540402835291602001916106b0565b820191906000526020600020905b81548152906001019060200180831161069357829003601f168201915b50505050509050919050565b600260045414156106df5760405162461bcd60e51b8152600401610513906129b1565b600260045560075482106107055760405162461bcd60e51b8152600401610513906129f3565b600082815260056020526040902060010154610722908290612a19565b34146107405760405162461bcd60e51b815260040161051390612a90565b61075b33838360405180602001604052806000815250611184565b600854610772906001600160a01b03166001610c48565b50506001600455565b6001600160a01b0385163314806107975750610797853361043d565b6107b35760405162461bcd60e51b815260040161051390612af8565b6107c08585858585611268565b5050505050565b6003546001600160a01b036101009091041633146107f75760405162461bcd60e51b815260040161051390612b38565b604051600090339047908381818185875af1925050503d8060008114610839576040519150601f19603f3d011682016040523d82523d6000602084013e61083e565b606091505b505090508061085f5760405162461bcd60e51b815260040161051390612b7a565b50565b6003546001600160a01b036101009091041633146108925760405162461bcd60e51b815260040161051390612b38565b61089a611412565b565b600560205260009081526040902080546001820154600283018054929391926108c490612952565b80601f01602080910402602001604051908101604052809291908181526020018280546108f090612952565b801561093d5780601f106109125761010080835404028352916020019161093d565b820191906000526020600020905b81548152906001019060200180831161092057829003601f168201915b5050505050905083565b6060815183511461096a5760405162461bcd60e51b815260040161051390612be2565b6000835167ffffffffffffffff811115610986576109866120d3565b6040519080825280602002602001820160405280156109af578160200160208202803683370190505b50905060005b8451811015610a27576109fa8582815181106109d3576109d3612bf2565b60200260200101518583815181106109ed576109ed612bf2565b60200260200101516104eb565b828281518110610a0c57610a0c612bf2565b6020908102919091010152610a2081612c08565b90506109b5565b509392505050565b60026004541415610a525760405162461bcd60e51b8152600401610513906129b1565b600260045560408051808201909152600881527f66726f6d3a2025730000000000000000000000000000000000000000000000006020820152610a959086611478565b610ada6040518060400160405280600c81526020017f6f70657261746f723a2025730000000000000000000000000000000000000000815250610ad53390565b611478565b60408051808201909152601581527f647265616d65727320436f6e74726163743a20257300000000000000000000006020820152600854610b2491906001600160a01b0316611478565b6001600160a01b038516331480610b405750610b40853361043d565b610b5c5760405162461bcd60e51b815260040161051390612af8565b610bca85858580806020026020016040519081016040528093929190818152602001838360200280828437600092019190915250506040805160208089028281018201909352888252909350889250879182918501908490808284376000920191909152506114eb92505050565b50506001600455505050565b6003546001600160a01b03610100909104163314610c065760405162461bcd60e51b815260040161051390612b38565b61089a6000611679565b6003546001600160a01b03610100909104163314610c405760405162461bcd60e51b815260040161051390612b38565b61089a6116ea565b610c53338383611742565b5050565b6003546001600160a01b03610100909104163314610c875760405162461bcd60e51b815260040161051390612b38565b60005b8151811015610c535760075415610d3757818181518110610cad57610cad612bf2565b6020026020010151602001518051906020012060076006848481518110610cd657610cd6612bf2565b602002602001015160200151604051610cef9190612c45565b90815260200160405180910390205481548110610d0e57610d0e612bf2565b90600052602060002001541415610d375760405162461bcd60e51b815260040161051390612c81565b60075482518190600690859085908110610d5357610d53612bf2565b602002602001015160200151604051610d6c9190612c45565b9081526020016040518091039020819055506007838381518110610d9257610d92612bf2565b6020026020010151602001518051906020012090806001815401808255809150506001900390600052602060002001600090919091909150556040518060600160405280828152602001848481518110610dee57610dee612bf2565b6020026020010151600001518152602001848481518110610e1157610e11612bf2565b602090810291909101810151810151909152600083815260058252604090819020835181558383015160018201559083015180519192610e5992600285019290910190611e77565b50905050508080610e6990612c08565b915050610c8a565b60026004541415610e945760405162461bcd60e51b8152600401610513906129b1565b60026004556000805b84811015610f4e57600754868683818110610eba57610eba612bf2565b9050602002013510610ede5760405162461bcd60e51b8152600401610513906129f3565b838382818110610ef057610ef0612bf2565b9050602002013560056000888885818110610f0d57610f0d612bf2565b90506020020135815260200190815260200160002060010154610f309190612a19565b610f3a9083612c91565b915080610f4681612c08565b915050610e9d565b50803414610f6e5760405162461bcd60e51b815260040161051390612a90565b610fea3386868080602002602001604051908101604052809392919081815260200183836020028082843760009201919091525050604080516020808a028281018201909352898252909350899250889182918501908490808284376000920182905250604080516020810190915290815292506117e5915050565b600854610bca906001600160a01b03166001610c48565b6001600160a01b03851633148061101d575061101d853361043d565b6110395760405162461bcd60e51b815260040161051390612d01565b6107c0858585858561193f565b6003546001600160a01b036101009091041633146110765760405162461bcd60e51b815260040161051390612b38565b6001600160a01b03811661109c5760405162461bcd60e51b815260040161051390612d69565b61085f81611679565b600260045414156110c85760405162461bcd60e51b8152600401610513906129b1565b60026004556001600160a01b0383163314806110e957506110e9833361043d565b6111055760405162461bcd60e51b815260040161051390612af8565b611110838383611a68565b5050600160045550565b6003546001600160a01b0361010090910416331461114a5760405162461bcd60e51b815260040161051390612b38565b600880547fffffffffffffffffffffffff0000000000000000000000000000000000000000166001600160a01b0392909216919091179055565b6001600160a01b0384166111aa5760405162461bcd60e51b815260040161051390612dd1565b336111ca816000876111bb88611b6c565b6111c488611b6c565b87611bb7565b6000848152602081815260408083206001600160a01b0389168452909152812080548592906111fa908490612c91565b92505081905550846001600160a01b031660006001600160a01b0316826001600160a01b03167fc3d58168c5ae7397731d063d5bbf3d657854427343f4c083240f7aacaa2d0f628787604051611251929190612de1565b60405180910390a46107c081600087878787611bda565b81518351146112895760405162461bcd60e51b815260040161051390612e54565b6001600160a01b0384166112af5760405162461bcd60e51b815260040161051390612ebc565b336112be818787878787611bb7565b60005b84518110156113a45760008582815181106112de576112de612bf2565b6020026020010151905060008583815181106112fc576112fc612bf2565b602090810291909101810151600084815280835260408082206001600160a01b038e16835290935291909120549091508181101561134c5760405162461bcd60e51b815260040161051390612f24565b6000838152602081815260408083206001600160a01b038e8116855292528083208585039055908b16825281208054849290611389908490612c91565b925050819055505050508061139d90612c08565b90506112c1565b50846001600160a01b0316866001600160a01b0316826001600160a01b03167f4a39dc06d4c0dbc64b70af90fd698a233a518aa5d07e595d983b8c0526c8f7fb87876040516113f4929190612f34565b60405180910390a461140a818787878787611d42565b505050505050565b60035460ff166114345760405162461bcd60e51b815260040161051390612f8b565b6003805460ff191690557f5db9ee0a495bf2e6ff9c91a7834c1ba4fdd244a5e8aa4e537bd38aeae4b073aa335b60405161146e91906124b9565b60405180910390a1565b610c53828260405160240161148e929190612f9b565b60408051601f198184030181529190526020810180517bffffffffffffffffffffffffffffffffffffffffffffffffffffffff167f319af33300000000000000000000000000000000000000000000000000000000179052611e56565b6001600160a01b0383166115115760405162461bcd60e51b815260040161051390613013565b80518251146115325760405162461bcd60e51b815260040161051390612e54565b600033905061155581856000868660405180602001604052806000815250611bb7565b60005b835181101561161a57600084828151811061157557611575612bf2565b60200260200101519050600084838151811061159357611593612bf2565b602090810291909101810151600084815280835260408082206001600160a01b038c1683529093529190912054909150818110156115e35760405162461bcd60e51b81526004016105139061307b565b6000928352602083815260408085206001600160a01b038b168652909152909220910390558061161281612c08565b915050611558565b5060006001600160a01b0316846001600160a01b0316826001600160a01b03167f4a39dc06d4c0dbc64b70af90fd698a233a518aa5d07e595d983b8c0526c8f7fb868660405161166b929190612f34565b60405180910390a450505050565b600380546001600160a01b038381166101008181027fffffffffffffffffffffff0000000000000000000000000000000000000000ff85161790945560405193909204169182907f8be0079c531659141344cd1fd0a4f28419497f9722a3daafe3b4186f6b6457e090600090a35050565b60035460ff161561170d5760405162461bcd60e51b8152600401610513906130bd565b6003805460ff191660011790557f62e78cea01bee320cd4e420270b5ea74000d11b0c9f74754ebdbfc544b05a2586114613390565b816001600160a01b0316836001600160a01b031614156117745760405162461bcd60e51b815260040161051390613125565b6001600160a01b0383811660008181526001602090815260408083209487168084529490915290819020805460ff1916851515179055517f17307eab39ab6107e8899845ad3d59bd9653f200f220920489ca2b5937696c31906117d8908590612008565b60405180910390a3505050565b6001600160a01b03841661180b5760405162461bcd60e51b815260040161051390612dd1565b815183511461182c5760405162461bcd60e51b815260040161051390612e54565b3361183c81600087878787611bb7565b60005b84518110156118d75783818151811061185a5761185a612bf2565b602002602001015160008087848151811061187757611877612bf2565b602002602001015181526020019081526020016000206000886001600160a01b03166001600160a01b0316815260200190815260200160002060008282546118bf9190612c91565b909155508190506118cf81612c08565b91505061183f565b50846001600160a01b031660006001600160a01b0316826001600160a01b03167f4a39dc06d4c0dbc64b70af90fd698a233a518aa5d07e595d983b8c0526c8f7fb8787604051611928929190612f34565b60405180910390a46107c081600087878787611d42565b6001600160a01b0384166119655760405162461bcd60e51b815260040161051390612ebc565b336119758187876111bb88611b6c565b6000848152602081815260408083206001600160a01b038a168452909152902054838110156119b65760405162461bcd60e51b815260040161051390612f24565b6000858152602081815260408083206001600160a01b038b81168552925280832087850390559088168252812080548692906119f3908490612c91565b92505081905550856001600160a01b0316876001600160a01b0316836001600160a01b03167fc3d58168c5ae7397731d063d5bbf3d657854427343f4c083240f7aacaa2d0f628888604051611a49929190612de1565b60405180910390a4611a5f828888888888611bda565b50505050505050565b6001600160a01b038316611a8e5760405162461bcd60e51b815260040161051390613013565b33611abd81856000611a9f87611b6c565b611aa887611b6c565b60405180602001604052806000815250611bb7565b6000838152602081815260408083206001600160a01b038816845290915290205482811015611afe5760405162461bcd60e51b81526004016105139061307b565b6000848152602081815260408083206001600160a01b03808a16808652919093528184208786039055905190918516907fc3d58168c5ae7397731d063d5bbf3d657854427343f4c083240f7aacaa2d0f6290611b5d9089908990612de1565b60405180910390a45050505050565b60408051600180825281830190925260609160009190602080830190803683370190505090508281600081518110611ba657611ba6612bf2565b602090810291909101015292915050565b60035460ff161561140a5760405162461bcd60e51b81526004016105139061318d565b6001600160a01b0384163b1561140a576040517ff23a6e610000000000000000000000000000000000000000000000000000000081526001600160a01b0385169063f23a6e6190611c37908990899088908890889060040161319d565b602060405180830381600087803b158015611c5157600080fd5b505af1925050508015611c81575060408051601f3d908101601f19168201909252611c7e918101906131fa565b60015b611ce157611c8d61321b565b806308c379a01415611cc75750611ca2613237565b80611cad5750611cc9565b8060405162461bcd60e51b81526004016105139190612099565b505b60405162461bcd60e51b81526004016105139061330d565b7fffffffff0000000000000000000000000000000000000000000000000000000081167ff23a6e610000000000000000000000000000000000000000000000000000000014611a5f5760405162461bcd60e51b815260040161051390613375565b6001600160a01b0384163b1561140a576040517fbc197c810000000000000000000000000000000000000000000000000000000081526001600160a01b0385169063bc197c8190611d9f9089908990889088908890600401613385565b602060405180830381600087803b158015611db957600080fd5b505af1925050508015611de9575060408051601f3d908101601f19168201909252611de6918101906131fa565b60015b611df557611c8d61321b565b7fffffffff0000000000000000000000000000000000000000000000000000000081167fbc197c810000000000000000000000000000000000000000000000000000000014611a5f5760405162461bcd60e51b815260040161051390613375565b80516a636f6e736f6c652e6c6f67602083016000808483855afa5050505050565b828054611e8390612952565b90600052602060002090601f016020900481019282611ea55760008555611eeb565b82601f10611ebe57805160ff1916838001178555611eeb565b82800160010185558215611eeb579182015b82811115611eeb578251825591602001919060010190611ed0565b50611ef7929150611efb565b5090565b5b80821115611ef75760008155600101611efc565b60006001600160a01b03821661053f565b611f2a81611f10565b811461085f57600080fd5b803561053f81611f21565b80611f2a565b803561053f81611f40565b60008060408385031215611f6757611f67600080fd5b6000611f738585611f35565b9250506020611f8485828601611f46565b9150509250929050565b805b82525050565b6020810161053f8284611f8e565b7fffffffff000000000000000000000000000000000000000000000000000000008116611f2a565b803561053f81611fa4565b600060208284031215611fec57611fec600080fd5b6000611ff88484611fcc565b949350505050565b801515611f90565b6020810161053f8284612000565b60006020828403121561202b5761202b600080fd5b6000611ff88484611f46565b60005b8381101561205257818101518382015260200161203a565b83811115612061576000848401525b50505050565b6000612071825190565b808452602084019350612088818560208601612037565b601f01601f19169290920192915050565b602080825281016120aa8184612067565b9392505050565b600080604083850312156120c7576120c7600080fd5b6000611f738585611f46565b634e487b7160e01b600052604160045260246000fd5b601f19601f830116810181811067ffffffffffffffff8211171561210f5761210f6120d3565b6040525050565b600061212160405190565b905061212d82826120e9565b919050565b600067ffffffffffffffff82111561214c5761214c6120d3565b5060209081020190565b600061216961216484612132565b612116565b8381529050602080820190840283018581111561218857612188600080fd5b835b818110156121aa5761219c8782611f46565b83526020928301920161218a565b5050509392505050565b600082601f8301126121c8576121c8600080fd5b8135611ff8848260208601612156565b600067ffffffffffffffff8211156121f2576121f26120d3565b601f19601f83011660200192915050565b82818337506000910152565b600061221d612164846121d8565b90508281526020810184848401111561223857612238600080fd5b610a27848285612203565b600082601f83011261225757612257600080fd5b8135611ff884826020860161220f565b600080600080600060a0868803121561228257612282600080fd5b600061228e8888611f35565b955050602061229f88828901611f35565b945050604086013567ffffffffffffffff8111156122bf576122bf600080fd5b6122cb888289016121b4565b935050606086013567ffffffffffffffff8111156122eb576122eb600080fd5b6122f7888289016121b4565b925050608086013567ffffffffffffffff81111561231757612317600080fd5b61232388828901612243565b9150509295509295909350565b6060810161233e8286611f8e565b61234b6020830185611f8e565b818103604083015261235d8184612067565b95945050505050565b600061237461216484612132565b8381529050602080820190840283018581111561239357612393600080fd5b835b818110156121aa576123a78782611f35565b835260209283019201612395565b600082601f8301126123c9576123c9600080fd5b8135611ff8848260208601612366565b600080604083850312156123ef576123ef600080fd5b823567ffffffffffffffff81111561240957612409600080fd5b612415858286016123b5565b925050602083013567ffffffffffffffff81111561243557612435600080fd5b611f84858286016121b4565b61244b8282611f8e565b5060200190565b60200190565b6000612462825190565b808452602093840193830160005b828110156124955781516124848782612441565b965050602082019150600101612470565b5093949350505050565b602080825281016120aa8184612458565b611f9081611f10565b6020810161053f82846124b0565b6000602082840312156124dc576124dc600080fd5b813567ffffffffffffffff8111156124f6576124f6600080fd5b611ff884828501612243565b60008083601f84011261251757612517600080fd5b50813567ffffffffffffffff81111561253257612532600080fd5b60208301915083602082028301111561254d5761254d600080fd5b9250929050565b60008060008060006060868803121561256f5761256f600080fd5b600061257b8888611f35565b955050602086013567ffffffffffffffff81111561259b5761259b600080fd5b6125a788828901612502565b9450945050604086013567ffffffffffffffff8111156125c9576125c9600080fd5b6125d588828901612502565b92509250509295509295909350565b801515611f2a565b803561053f816125e4565b6000806040838503121561260d5761260d600080fd5b60006126198585611f35565b9250506020611f84858286016125ec565b60006040828403121561263f5761263f600080fd5b6126496040612116565b905060006126578484611f46565b90820152602082013567ffffffffffffffff81111561267857612678600080fd5b61268484828501612243565b60208301525092915050565b600061269e61216484612132565b838152905060208082019084028301858111156126bd576126bd600080fd5b835b818110156121aa57803567ffffffffffffffff8111156126e1576126e1600080fd5b85016126ed888261262a565b845250602092830192016126bf565b600082601f83011261271057612710600080fd5b8135611ff8848260208601612690565b60006020828403121561273557612735600080fd5b813567ffffffffffffffff81111561274f5761274f600080fd5b611ff8848285016126fc565b6000806000806040858703121561277457612774600080fd5b843567ffffffffffffffff81111561278e5761278e600080fd5b61279a87828801612502565b9450945050602085013567ffffffffffffffff8111156127bc576127bc600080fd5b6127c887828801612502565b95989497509550505050565b600080604083850312156127ea576127ea600080fd5b60006127f68585611f35565b9250506020611f8485828601611f35565b600080600080600060a0868803121561282257612822600080fd5b600061282e8888611f35565b955050602061283f88828901611f35565b945050604061285088828901611f46565b93505060606122f788828901611f46565b60006020828403121561287657612876600080fd5b6000611ff88484611f35565b60008060006060848603121561289a5761289a600080fd5b60006128a68686611f35565b93505060206128b786828701611f46565b92505060406128c886828701611f46565b9150509250925092565b602b8152602081017f455243313135353a2062616c616e636520717565727920666f7220746865207a81527f65726f2061646472657373000000000000000000000000000000000000000000602082015290505b60400190565b6020808252810161053f816128d2565b634e487b7160e01b600052602260045260246000fd5b60028104600182168061296657607f821691505b602082108114156129795761297961293c565b50919050565b601f8152602081017f5265656e7472616e637947756172643a207265656e7472616e742063616c6c0081529050612452565b6020808252810161053f8161297f565b601d8152602081017f546869732063616e647920646f6573206e6f742065786973742079657400000081529050612452565b6020808252810161053f816129c1565b634e487b7160e01b600052601160045260246000fd5b6000816000190483118215151615612a3357612a33612a03565b500290565b60288152602081017f596f75206861766520746f207061792074686520707269636520746f2065617481527f2063616e6469657300000000000000000000000000000000000000000000000060208201529050612926565b6020808252810161053f81612a38565b60328152602081017f455243313135353a207472616e736665722063616c6c6572206973206e6f742081527f6f776e6572206e6f7220617070726f766564000000000000000000000000000060208201529050612926565b6020808252810161053f81612aa0565b60208082527f4f776e61626c653a2063616c6c6572206973206e6f7420746865206f776e65729101908152612452565b6020808252810161053f81612b08565b60118152602081017f5769746864726177616c206661696c656400000000000000000000000000000081529050612452565b6020808252810161053f81612b48565b60298152602081017f455243313135353a206163636f756e747320616e6420696473206c656e67746881527f206d69736d61746368000000000000000000000000000000000000000000000060208201529050612926565b6020808252810161053f81612b8a565b634e487b7160e01b600052603260045260246000fd5b6000600019821415612c1c57612c1c612a03565b5060010190565b6000612c2d825190565b612c3b818560208601612037565b9290920192915050565b61053f8183612c23565b60128152602081017f536b7520616c726561647920657869737473000000000000000000000000000081529050612452565b6020808252810161053f81612c4f565b60008219821115612ca457612ca4612a03565b500190565b60298152602081017f455243313135353a2063616c6c6572206973206e6f74206f776e6572206e6f7281527f20617070726f766564000000000000000000000000000000000000000000000060208201529050612926565b6020808252810161053f81612ca9565b60268152602081017f4f776e61626c653a206e6577206f776e657220697320746865207a65726f206181527f646472657373000000000000000000000000000000000000000000000000000060208201529050612926565b6020808252810161053f81612d11565b60218152602081017f455243313135353a206d696e7420746f20746865207a65726f2061646472657381527f730000000000000000000000000000000000000000000000000000000000000060208201529050612926565b6020808252810161053f81612d79565b60408101612def8285611f8e565b6120aa6020830184611f8e565b60288152602081017f455243313135353a2069647320616e6420616d6f756e7473206c656e6774682081527f6d69736d6174636800000000000000000000000000000000000000000000000060208201529050612926565b6020808252810161053f81612dfc565b60258152602081017f455243313135353a207472616e7366657220746f20746865207a65726f20616481527f647265737300000000000000000000000000000000000000000000000000000060208201529050612926565b6020808252810161053f81612e64565b602a8152602081017f455243313135353a20696e73756666696369656e742062616c616e636520666f81527f72207472616e736665720000000000000000000000000000000000000000000060208201529050612926565b6020808252810161053f81612ecc565b60408082528101612f458185612458565b90508181036020830152611ff88184612458565b60148152602081017f5061757361626c653a206e6f742070617573656400000000000000000000000081529050612452565b6020808252810161053f81612f59565b60408082528101612fac8185612067565b90506120aa60208301846124b0565b60238152602081017f455243313135353a206275726e2066726f6d20746865207a65726f206164647281527f657373000000000000000000000000000000000000000000000000000000000060208201529050612926565b6020808252810161053f81612fbb565b60248152602081017f455243313135353a206275726e20616d6f756e7420657863656564732062616c81527f616e63650000000000000000000000000000000000000000000000000000000060208201529050612926565b6020808252810161053f81613023565b60108152602081017f5061757361626c653a207061757365640000000000000000000000000000000081529050612452565b6020808252810161053f8161308b565b60298152602081017f455243313135353a2073657474696e6720617070726f76616c2073746174757381527f20666f722073656c66000000000000000000000000000000000000000000000060208201529050612926565b6020808252810161053f816130cd565b602c8152602081017f455243313135355061757361626c653a20746f6b656e207472616e736665722081527f7768696c6520706175736564000000000000000000000000000000000000000060208201529050612926565b6020808252810161053f81613135565b60a081016131ab82886124b0565b6131b860208301876124b0565b6131c56040830186611f8e565b6131d26060830185611f8e565b81810360808301526131e48184612067565b979650505050505050565b805161053f81611fa4565b60006020828403121561320f5761320f600080fd5b6000611ff884846131ef565b600060033d11156132345760046000803e5060005160e01c5b90565b600060443d10156132455790565b60405160043d036004823e80513d602482011167ffffffffffffffff8211171561326e57505090565b808201805167ffffffffffffffff81111561328a575050505090565b80602083010160043d0385018111156132a557505050505090565b50610a27816020018401856120e9565b60348152602081017f455243313135353a207472616e7366657220746f206e6f6e204552433131353581527f526563656976657220696d706c656d656e74657200000000000000000000000060208201529050612926565b6020808252810161053f816132b5565b60288152602081017f455243313135353a204552433131353552656365697665722072656a6563746581527f6420746f6b656e7300000000000000000000000000000000000000000000000060208201529050612926565b6020808252810161053f8161331d565b60a0810161339382886124b0565b6133a060208301876124b0565b81810360408301526133b28186612458565b905081810360608301526133c68185612458565b905081810360808301526131e4818461206756fea2646970667358221220101396112a4baff584a750fc8a9011a55951eb59f8454a25540d636334de4ba164736f6c63430008080033",
  "devdoc": {
    "kind": "dev",
    "methods": {
      "balanceOf(address,uint256)": {
        "details": "See {IERC1155-balanceOf}. Requirements: - `account` cannot be the zero address."
      },
      "balanceOfBatch(address[],uint256[])": {
        "details": "See {IERC1155-balanceOfBatch}. Requirements: - `accounts` and `ids` must have the same length."
      },
      "isApprovedForAll(address,address)": {
        "details": "See {IERC1155-isApprovedForAll}."
      },
      "owner()": {
        "details": "Returns the address of the current owner."
      },
      "paused()": {
        "details": "Returns true if the contract is paused, and false otherwise."
      },
      "renounceOwnership()": {
        "details": "Leaves the contract without owner. It will not be possible to call `onlyOwner` functions anymore. Can only be called by the current owner. NOTE: Renouncing ownership will leave the contract without an owner, thereby removing any functionality that is only available to the owner."
      },
      "safeBatchTransferFrom(address,address,uint256[],uint256[],bytes)": {
        "details": "See {IERC1155-safeBatchTransferFrom}."
      },
      "safeTransferFrom(address,address,uint256,uint256,bytes)": {
        "details": "See {IERC1155-safeTransferFrom}."
      },
      "setApprovalForAll(address,bool)": {
        "details": "See {IERC1155-setApprovalForAll}."
      },
      "supportsInterface(bytes4)": {
        "details": "See {IERC165-supportsInterface}."
      },
      "transferOwnership(address)": {
        "details": "Transfers ownership of the contract to a new account (`newOwner`). Can only be called by the current owner."
      },
      "uri(uint256)": {
        "details": "See {IERC1155MetadataURI-uri}. This implementation returns the same URI for *all* token types. It relies on the token type ID substitution mechanism https://eips.ethereum.org/EIPS/eip-1155#metadata[defined in the EIP]. Clients calling this function must replace the `\\{id\\}` substring with the actual token type ID."
      }
    },
    "version": 1
  },
  "userdoc": {
    "kind": "user",
    "methods": {},
    "version": 1
  },
  "storageLayout": {
    "storage": [
      {
        "astId": 480,
        "contract": "contracts/dreamers/CandyShop.sol:CandyShop",
        "label": "_balances",
        "offset": 0,
        "slot": "0",
        "type": "t_mapping(t_uint256,t_mapping(t_address,t_uint256))"
      },
      {
        "astId": 486,
        "contract": "contracts/dreamers/CandyShop.sol:CandyShop",
        "label": "_operatorApprovals",
        "offset": 0,
        "slot": "1",
        "type": "t_mapping(t_address,t_mapping(t_address,t_bool))"
      },
      {
        "astId": 488,
        "contract": "contracts/dreamers/CandyShop.sol:CandyShop",
        "label": "_uri",
        "offset": 0,
        "slot": "2",
        "type": "t_string_storage"
      },
      {
        "astId": 340,
        "contract": "contracts/dreamers/CandyShop.sol:CandyShop",
        "label": "_paused",
        "offset": 0,
        "slot": "3",
        "type": "t_bool"
      },
      {
        "astId": 225,
        "contract": "contracts/dreamers/CandyShop.sol:CandyShop",
        "label": "_owner",
        "offset": 1,
        "slot": "3",
        "type": "t_address"
      },
      {
        "astId": 425,
        "contract": "contracts/dreamers/CandyShop.sol:CandyShop",
        "label": "_status",
        "offset": 0,
        "slot": "4",
        "type": "t_uint256"
      },
      {
        "astId": 3802,
        "contract": "contracts/dreamers/CandyShop.sol:CandyShop",
        "label": "inventory",
        "offset": 0,
        "slot": "5",
        "type": "t_mapping(t_uint256,t_struct(SKU)3792_storage)"
      },
      {
        "astId": 3806,
        "contract": "contracts/dreamers/CandyShop.sol:CandyShop",
        "label": "skuIds",
        "offset": 0,
        "slot": "6",
        "type": "t_mapping(t_string_memory_ptr,t_uint256)"
      },
      {
        "astId": 3809,
        "contract": "contracts/dreamers/CandyShop.sol:CandyShop",
        "label": "names",
        "offset": 0,
        "slot": "7",
        "type": "t_array(t_bytes32)dyn_storage"
      },
      {
        "astId": 3811,
        "contract": "contracts/dreamers/CandyShop.sol:CandyShop",
        "label": "chainDreamersAddress",
        "offset": 0,
        "slot": "8",
        "type": "t_address"
      }
    ],
    "types": {
      "t_address": {
        "encoding": "inplace",
        "label": "address",
        "numberOfBytes": "20"
      },
      "t_array(t_bytes32)dyn_storage": {
        "base": "t_bytes32",
        "encoding": "dynamic_array",
        "label": "bytes32[]",
        "numberOfBytes": "32"
      },
      "t_bool": {
        "encoding": "inplace",
        "label": "bool",
        "numberOfBytes": "1"
      },
      "t_bytes32": {
        "encoding": "inplace",
        "label": "bytes32",
        "numberOfBytes": "32"
      },
      "t_mapping(t_address,t_bool)": {
        "encoding": "mapping",
        "key": "t_address",
        "label": "mapping(address => bool)",
        "numberOfBytes": "32",
        "value": "t_bool"
      },
      "t_mapping(t_address,t_mapping(t_address,t_bool))": {
        "encoding": "mapping",
        "key": "t_address",
        "label": "mapping(address => mapping(address => bool))",
        "numberOfBytes": "32",
        "value": "t_mapping(t_address,t_bool)"
      },
      "t_mapping(t_address,t_uint256)": {
        "encoding": "mapping",
        "key": "t_address",
        "label": "mapping(address => uint256)",
        "numberOfBytes": "32",
        "value": "t_uint256"
      },
      "t_mapping(t_string_memory_ptr,t_uint256)": {
        "encoding": "mapping",
        "key": "t_string_memory_ptr",
        "label": "mapping(string => uint256)",
        "numberOfBytes": "32",
        "value": "t_uint256"
      },
      "t_mapping(t_uint256,t_mapping(t_address,t_uint256))": {
        "encoding": "mapping",
        "key": "t_uint256",
        "label": "mapping(uint256 => mapping(address => uint256))",
        "numberOfBytes": "32",
        "value": "t_mapping(t_address,t_uint256)"
      },
      "t_mapping(t_uint256,t_struct(SKU)3792_storage)": {
        "encoding": "mapping",
        "key": "t_uint256",
        "label": "mapping(uint256 => struct CandyShop.SKU)",
        "numberOfBytes": "32",
        "value": "t_struct(SKU)3792_storage"
      },
      "t_string_memory_ptr": {
        "encoding": "bytes",
        "label": "string",
        "numberOfBytes": "32"
      },
      "t_string_storage": {
        "encoding": "bytes",
        "label": "string",
        "numberOfBytes": "32"
      },
      "t_struct(SKU)3792_storage": {
        "encoding": "inplace",
        "label": "struct CandyShop.SKU",
        "members": [
          {
            "astId": 3787,
            "contract": "contracts/dreamers/CandyShop.sol:CandyShop",
            "label": "id",
            "offset": 0,
            "slot": "0",
            "type": "t_uint256"
          },
          {
            "astId": 3789,
            "contract": "contracts/dreamers/CandyShop.sol:CandyShop",
            "label": "price",
            "offset": 0,
            "slot": "1",
            "type": "t_uint256"
          },
          {
            "astId": 3791,
            "contract": "contracts/dreamers/CandyShop.sol:CandyShop",
            "label": "name",
            "offset": 0,
            "slot": "2",
            "type": "t_string_storage"
          }
        ],
        "numberOfBytes": "96"
      },
      "t_uint256": {
        "encoding": "inplace",
        "label": "uint256",
        "numberOfBytes": "32"
      }
    }
  }
}