{
  "address": "0x6F6f570F45833E249e27022648a26F4076F48f78",
  "abi": [
    {
      "inputs": [
        {
          "internalType": "string",
          "name": "name_",
          "type": "string"
        },
        {
          "internalType": "string",
          "name": "symbol_",
          "type": "string"
        }
      ],
      "stateMutability": "nonpayable",
      "type": "constructor"
    },
    {
      "anonymous": false,
      "inputs": [
        {
          "indexed": true,
          "internalType": "address",
          "name": "owner",
          "type": "address"
        },
        {
          "indexed": true,
          "internalType": "address",
          "name": "approved",
          "type": "address"
        },
        {
          "indexed": true,
          "internalType": "uint256",
          "name": "tokenId",
          "type": "uint256"
        }
      ],
      "name": "Approval",
      "type": "event"
    },
    {
      "anonymous": false,
      "inputs": [
        {
          "indexed": true,
          "internalType": "address",
          "name": "owner",
          "type": "address"
        },
        {
          "indexed": true,
          "internalType": "address",
          "name": "operator",
          "type": "address"
        },
        {
          "indexed": false,
          "internalType": "bool",
          "name": "approved",
          "type": "bool"
        }
      ],
      "name": "ApprovalForAll",
      "type": "event"
    },
    {
      "anonymous": false,
      "inputs": [
        {
          "indexed": true,
          "internalType": "address",
          "name": "to",
          "type": "address"
        },
        {
          "indexed": true,
          "internalType": "bytes",
          "name": "tokenIds",
          "type": "bytes"
        }
      ],
      "name": "BatchMint",
      "type": "event"
    },
    {
      "anonymous": false,
      "inputs": [
        {
          "indexed": true,
          "internalType": "address",
          "name": "previousOwner",
          "type": "address"
        },
        {
          "indexed": true,
          "internalType": "address",
          "name": "newOwner",
          "type": "address"
        }
      ],
      "name": "OwnershipTransferred",
      "type": "event"
    },
    {
      "anonymous": false,
      "inputs": [
        {
          "indexed": true,
          "internalType": "address",
          "name": "from",
          "type": "address"
        },
        {
          "indexed": true,
          "internalType": "address",
          "name": "to",
          "type": "address"
        },
        {
          "indexed": true,
          "internalType": "uint256",
          "name": "tokenId",
          "type": "uint256"
        }
      ],
      "name": "Transfer",
      "type": "event"
    },
    {
      "inputs": [],
      "name": "MINT_PUBLIC_PRICE",
      "outputs": [
        {
          "internalType": "uint256",
          "name": "",
          "type": "uint256"
        }
      ],
      "stateMutability": "view",
      "type": "function"
    },
    {
      "inputs": [
        {
          "internalType": "address",
          "name": "to",
          "type": "address"
        },
        {
          "internalType": "uint16[]",
          "name": "tokenIds",
          "type": "uint16[]"
        },
        {
          "internalType": "uint8[]",
          "name": "candyIds",
          "type": "uint8[]"
        }
      ],
      "name": "airDropBatch",
      "outputs": [],
      "stateMutability": "nonpayable",
      "type": "function"
    },
    {
      "inputs": [
        {
          "internalType": "address",
          "name": "to",
          "type": "address"
        },
        {
          "internalType": "uint256",
          "name": "tokenId",
          "type": "uint256"
        }
      ],
      "name": "approve",
      "outputs": [],
      "stateMutability": "nonpayable",
      "type": "function"
    },
    {
      "inputs": [
        {
          "internalType": "address",
          "name": "owner",
          "type": "address"
        }
      ],
      "name": "balanceOf",
      "outputs": [
        {
          "internalType": "uint256",
          "name": "",
          "type": "uint256"
        }
      ],
      "stateMutability": "view",
      "type": "function"
    },
    {
      "inputs": [],
      "name": "candyShopAddress",
      "outputs": [
        {
          "internalType": "address",
          "name": "",
          "type": "address"
        }
      ],
      "stateMutability": "view",
      "type": "function"
    },
    {
      "inputs": [],
      "name": "chainRunnersAddress",
      "outputs": [
        {
          "internalType": "address",
          "name": "",
          "type": "address"
        }
      ],
      "stateMutability": "view",
      "type": "function"
    },
    {
      "inputs": [
        {
          "internalType": "uint256",
          "name": "",
          "type": "uint256"
        }
      ],
      "name": "dreamers",
      "outputs": [
        {
          "internalType": "uint8",
          "name": "candy",
          "type": "uint8"
        }
      ],
      "stateMutability": "view",
      "type": "function"
    },
    {
      "inputs": [
        {
          "internalType": "address",
          "name": "proxyAddress",
          "type": "address"
        }
      ],
      "name": "flipProxyState",
      "outputs": [],
      "stateMutability": "nonpayable",
      "type": "function"
    },
    {
      "inputs": [
        {
          "internalType": "uint256",
          "name": "tokenId",
          "type": "uint256"
        }
      ],
      "name": "getApproved",
      "outputs": [
        {
          "internalType": "address",
          "name": "",
          "type": "address"
        }
      ],
      "stateMutability": "view",
      "type": "function"
    },
    {
      "inputs": [
        {
          "internalType": "address",
          "name": "owner",
          "type": "address"
        },
        {
          "internalType": "address",
          "name": "operator",
          "type": "address"
        }
      ],
      "name": "isApprovedForAll",
      "outputs": [
        {
          "internalType": "bool",
          "name": "",
          "type": "bool"
        }
      ],
      "stateMutability": "view",
      "type": "function"
    },
    {
      "inputs": [],
      "name": "isPublicSaleOpen",
      "outputs": [
        {
          "internalType": "bool",
          "name": "",
          "type": "bool"
        }
      ],
      "stateMutability": "view",
      "type": "function"
    },
    {
      "inputs": [],
      "name": "looksrare",
      "outputs": [
        {
          "internalType": "address",
          "name": "",
          "type": "address"
        }
      ],
      "stateMutability": "view",
      "type": "function"
    },
    {
      "inputs": [],
      "name": "marketplacesApproved",
      "outputs": [
        {
          "internalType": "bool",
          "name": "",
          "type": "bool"
        }
      ],
      "stateMutability": "view",
      "type": "function"
    },
    {
      "inputs": [],
      "name": "maxDreamersMintPublicSale",
      "outputs": [
        {
          "internalType": "uint256",
          "name": "",
          "type": "uint256"
        }
      ],
      "stateMutability": "view",
      "type": "function"
    },
    {
      "inputs": [
        {
          "internalType": "bytes",
          "name": "tokenIds",
          "type": "bytes"
        },
        {
          "internalType": "bytes",
          "name": "ownerTokenIndexes",
          "type": "bytes"
        }
      ],
      "name": "mintBatchPublicSale",
      "outputs": [
        {
          "internalType": "bool",
          "name": "",
          "type": "bool"
        }
      ],
      "stateMutability": "payable",
      "type": "function"
    },
    {
      "inputs": [
        {
          "internalType": "bytes",
          "name": "tokenIds",
          "type": "bytes"
        },
        {
          "internalType": "bytes",
          "name": "ownerTokenIndexes",
          "type": "bytes"
        },
        {
          "internalType": "bytes",
          "name": "candyIdsBytes",
          "type": "bytes"
        },
        {
          "internalType": "uint256[]",
          "name": "candyIds",
          "type": "uint256[]"
        },
        {
          "internalType": "uint256[]",
          "name": "candyAmounts",
          "type": "uint256[]"
        }
      ],
      "name": "mintBatchRunnersAccess",
      "outputs": [
        {
          "internalType": "bool",
          "name": "",
          "type": "bool"
        }
      ],
      "stateMutability": "nonpayable",
      "type": "function"
    },
    {
      "inputs": [],
      "name": "name",
      "outputs": [
        {
          "internalType": "string",
          "name": "",
          "type": "string"
        }
      ],
      "stateMutability": "view",
      "type": "function"
    },
    {
      "inputs": [],
      "name": "opensea",
      "outputs": [
        {
          "internalType": "address",
          "name": "",
          "type": "address"
        }
      ],
      "stateMutability": "view",
      "type": "function"
    },
    {
      "inputs": [],
      "name": "owner",
      "outputs": [
        {
          "internalType": "address",
          "name": "",
          "type": "address"
        }
      ],
      "stateMutability": "view",
      "type": "function"
    },
    {
      "inputs": [
        {
          "internalType": "uint256",
          "name": "tokenId",
          "type": "uint256"
        }
      ],
      "name": "ownerOf",
      "outputs": [
        {
          "internalType": "address",
          "name": "",
          "type": "address"
        }
      ],
      "stateMutability": "view",
      "type": "function"
    },
    {
      "inputs": [],
      "name": "publicSaleStartTimestamp",
      "outputs": [
        {
          "internalType": "uint256",
          "name": "",
          "type": "uint256"
        }
      ],
      "stateMutability": "view",
      "type": "function"
    },
    {
      "inputs": [],
      "name": "renderingContractAddress",
      "outputs": [
        {
          "internalType": "address",
          "name": "",
          "type": "address"
        }
      ],
      "stateMutability": "view",
      "type": "function"
    },
    {
      "inputs": [],
      "name": "renounceOwnership",
      "outputs": [],
      "stateMutability": "nonpayable",
      "type": "function"
    },
    {
      "inputs": [
        {
          "internalType": "address",
          "name": "from",
          "type": "address"
        },
        {
          "internalType": "address",
          "name": "to",
          "type": "address"
        },
        {
          "internalType": "uint256",
          "name": "tokenId",
          "type": "uint256"
        }
      ],
      "name": "safeTransferFrom",
      "outputs": [],
      "stateMutability": "nonpayable",
      "type": "function"
    },
    {
      "inputs": [
        {
          "internalType": "address",
          "name": "from",
          "type": "address"
        },
        {
          "internalType": "address",
          "name": "to",
          "type": "address"
        },
        {
          "internalType": "uint256",
          "name": "tokenId",
          "type": "uint256"
        },
        {
          "internalType": "bytes",
          "name": "_data",
          "type": "bytes"
        }
      ],
      "name": "safeTransferFrom",
      "outputs": [],
      "stateMutability": "nonpayable",
      "type": "function"
    },
    {
      "inputs": [
        {
          "internalType": "address",
          "name": "operator",
          "type": "address"
        },
        {
          "internalType": "bool",
          "name": "approved",
          "type": "bool"
        }
      ],
      "name": "setApprovalForAll",
      "outputs": [],
      "stateMutability": "nonpayable",
      "type": "function"
    },
    {
      "inputs": [
        {
          "internalType": "address",
          "name": "_candyShopContractAddress",
          "type": "address"
        }
      ],
      "name": "setCandyShopAddress",
      "outputs": [],
      "stateMutability": "nonpayable",
      "type": "function"
    },
    {
      "inputs": [
        {
          "internalType": "address",
          "name": "_chainRunnersContractAddress",
          "type": "address"
        }
      ],
      "name": "setChainRunnersContractAddress",
      "outputs": [],
      "stateMutability": "nonpayable",
      "type": "function"
    },
    {
      "inputs": [
        {
          "internalType": "address",
          "name": "looksrare_",
          "type": "address"
        }
      ],
      "name": "setLooksrare",
      "outputs": [],
      "stateMutability": "nonpayable",
      "type": "function"
    },
    {
      "inputs": [
        {
          "internalType": "uint256",
          "name": "_maxDreamersMintPublicSale",
          "type": "uint256"
        }
      ],
      "name": "setMaxDreamersMintPublicSale",
      "outputs": [],
      "stateMutability": "nonpayable",
      "type": "function"
    },
    {
      "inputs": [
        {
          "internalType": "address",
          "name": "opensea_",
          "type": "address"
        }
      ],
      "name": "setOpensea",
      "outputs": [],
      "stateMutability": "nonpayable",
      "type": "function"
    },
    {
      "inputs": [
        {
          "internalType": "uint256",
          "name": "timestamp",
          "type": "uint256"
        }
      ],
      "name": "setPublicSaleTimestamp",
      "outputs": [],
      "stateMutability": "nonpayable",
      "type": "function"
    },
    {
      "inputs": [
        {
          "internalType": "address",
          "name": "_renderingContractAddress",
          "type": "address"
        }
      ],
      "name": "setRenderingContractAddress",
      "outputs": [],
      "stateMutability": "nonpayable",
      "type": "function"
    },
    {
      "inputs": [
        {
          "internalType": "bytes4",
          "name": "interfaceId",
          "type": "bytes4"
        }
      ],
      "name": "supportsInterface",
      "outputs": [
        {
          "internalType": "bool",
          "name": "",
          "type": "bool"
        }
      ],
      "stateMutability": "view",
      "type": "function"
    },
    {
      "inputs": [],
      "name": "symbol",
      "outputs": [
        {
          "internalType": "string",
          "name": "",
          "type": "string"
        }
      ],
      "stateMutability": "view",
      "type": "function"
    },
    {
      "inputs": [],
      "name": "toggleMarketplacesApproved",
      "outputs": [],
      "stateMutability": "nonpayable",
      "type": "function"
    },
    {
      "inputs": [
        {
          "internalType": "uint256",
          "name": "index",
          "type": "uint256"
        }
      ],
      "name": "tokenByIndex",
      "outputs": [
        {
          "internalType": "uint256",
          "name": "",
          "type": "uint256"
        }
      ],
      "stateMutability": "view",
      "type": "function"
    },
    {
      "inputs": [
        {
          "internalType": "address",
          "name": "owner",
          "type": "address"
        },
        {
          "internalType": "uint256",
          "name": "index",
          "type": "uint256"
        }
      ],
      "name": "tokenOfOwnerByIndex",
      "outputs": [
        {
          "internalType": "uint256",
          "name": "",
          "type": "uint256"
        }
      ],
      "stateMutability": "view",
      "type": "function"
    },
    {
      "inputs": [
        {
          "internalType": "uint256",
          "name": "_tokenId",
          "type": "uint256"
        }
      ],
      "name": "tokenURI",
      "outputs": [
        {
          "internalType": "string",
          "name": "",
          "type": "string"
        }
      ],
      "stateMutability": "view",
      "type": "function"
    },
    {
      "inputs": [],
      "name": "totalSupply",
      "outputs": [
        {
          "internalType": "uint256",
          "name": "",
          "type": "uint256"
        }
      ],
      "stateMutability": "view",
      "type": "function"
    },
    {
      "inputs": [
        {
          "internalType": "address",
          "name": "from",
          "type": "address"
        },
        {
          "internalType": "address",
          "name": "to",
          "type": "address"
        },
        {
          "internalType": "uint256",
          "name": "tokenId",
          "type": "uint256"
        }
      ],
      "name": "transferFrom",
      "outputs": [],
      "stateMutability": "nonpayable",
      "type": "function"
    },
    {
      "inputs": [
        {
          "internalType": "address",
          "name": "newOwner",
          "type": "address"
        }
      ],
      "name": "transferOwnership",
      "outputs": [],
      "stateMutability": "nonpayable",
      "type": "function"
    },
    {
      "inputs": [],
      "name": "withdraw",
      "outputs": [],
      "stateMutability": "nonpayable",
      "type": "function"
    },
    {
      "stateMutability": "payable",
      "type": "receive"
    }
  ],
  "transactionHash": "0x0c1860a995f0587e857d32c7923ddd547bdb1279f4614bb4d9ea6dbc455242b0",
  "args": [
    "Chain Dreamers",
    "DRE"
  ],
  "numDeployments": 1,
  "solcInputHash": "6f841e104422a730b31d7866c8b41a45",
  "bytecode": "0x60806040526014805460ff60a01b1916600160a01b1790553480156200002457600080fd5b5060405162004f7638038062004f768339810160408190526200004791620002d9565b81518290829062000060906000906020850190620000f6565b50805162000076906001906020840190620000f6565b505050620000936200008d620000a060201b60201c565b620000a4565b50506001600c556200039c565b3390565b600b80546001600160a01b038381166001600160a01b0319831681179093556040519116919082907f8be0079c531659141344cd1fd0a4f28419497f9722a3daafe3b4186f6b6457e090600090a35050565b82805462000104906200036b565b90600052602060002090601f01602090048101928262000128576000855562000173565b82601f106200014357805160ff191683800117855562000173565b8280016001018555821562000173579182015b828111156200017357825182559160200191906001019062000156565b506200018192915062000185565b5090565b5b8082111562000181576000815560010162000186565b634e487b7160e01b600052604160045260246000fd5b601f19601f83011681016001600160401b0381118282101715620001da57620001da6200019c565b6040525050565b6000620001ed60405190565b9050620001fb8282620001b2565b919050565b60006001600160401b038211156200021c576200021c6200019c565b601f19601f83011660200192915050565b60005b838110156200024a57818101518382015260200162000230565b838111156200025a576000848401525b50505050565b600062000277620002718462000200565b620001e1565b905082815260208101848484011115620002945762000294600080fd5b620002a18482856200022d565b509392505050565b600082601f830112620002bf57620002bf600080fd5b8151620002d184826020860162000260565b949350505050565b60008060408385031215620002f157620002f1600080fd5b82516001600160401b038111156200030c576200030c600080fd5b6200031a85828601620002a9565b602085015190935090506001600160401b038111156200033d576200033d600080fd5b6200034b85828601620002a9565b9150509250929050565b634e487b7160e01b600052602260045260246000fd5b6002810460018216806200038057607f821691505b6020821081141562000396576200039662000355565b50919050565b614bca80620003ac6000396000f3fe6080604052600436106102e05760003560e01c80636b318e6e11610184578063b776c8a6116100d6578063d7822c991161008a578063f48b07b611610064578063f48b07b6146107e5578063f73c814b14610805578063fac913231461082557600080fd5b8063d7822c991461078f578063e985e9c5146107a5578063f2fde38b146107c557600080fd5b8063c074f412116100bb578063c074f4121461072f578063c87b56dd1461074f578063d3d6005b1461076f57600080fd5b8063b776c8a6146106ef578063b88d4fde1461070f57600080fd5b806395a97a6311610138578063a22cb46511610112578063a22cb4651461068f578063a8e90b57146106af578063b5fcb339146106cf57600080fd5b806395a97a631461063f57806395d89b411461065f5780639c51792a1461067457600080fd5b8063715018a611610169578063715018a6146105ec5780638392d804146106015780638da5cb5b1461062157600080fd5b80636b318e6e146105b657806370a08231146105cc57600080fd5b80631e8858fb1161023d5780633ccfd60b116101f1578063511a9605116101cb578063511a960514610556578063511ed382146105765780636352211e1461059657600080fd5b80633ccfd60b1461050157806342842e0e146105165780634f6ccce71461053657600080fd5b80632a133e35116102225780632a133e35146104b95780632f745c59146104cc57806333c12e17146104ec57600080fd5b80631e8858fb1461047957806323b872dd1461049957600080fd5b8063095ea7b31161029457806312b40a9f1161027957806312b40a9f1461042257806318160ddd146104425780631a6949e31461046457600080fd5b8063095ea7b3146103e05780630d77c7561461040257600080fd5b806306fdde03116102c557806306fdde031461035457806307c5bde314610376578063081812fc146103b357600080fd5b806301ffc9a7146102ec578063026ae1021461032257600080fd5b366102e757005b600080fd5b3480156102f857600080fd5b5061030c6103073660046130d3565b610845565b60405161031991906130fe565b60405180910390f35b34801561032e57600080fd5b5060145461030c9074010000000000000000000000000000000000000000900460ff1681565b34801561036057600080fd5b506103696108a1565b604051610319919061316a565b34801561038257600080fd5b506103a661039136600461318c565b60066020526000908152604090205460ff1681565b60405161031991906131b6565b3480156103bf57600080fd5b506103d36103ce36600461318c565b610933565b60405161031991906131de565b3480156103ec57600080fd5b506104006103fb366004613200565b610995565b005b34801561040e57600080fd5b5061040061041d36600461318c565b610a1b565b34801561042e57600080fd5b5061040061043d36600461323d565b610a4a565b34801561044e57600080fd5b50610457610aa0565b6040516103199190613264565b34801561047057600080fd5b5061030c610ac1565b34801561048557600080fd5b5061040061049436600461323d565b610ad8565b3480156104a557600080fd5b506104006104b4366004613272565b610b24565b61030c6104c7366004613314565b610b55565b3480156104d857600080fd5b506104576104e7366004613200565b610c39565b3480156104f857600080fd5b50610400610d25565b34801561050d57600080fd5b50610400610d9c565b34801561052257600080fd5b50610400610531366004613272565b610e31565b34801561054257600080fd5b5061045761055136600461318c565b610e50565b34801561056257600080fd5b5061040061057136600461318c565b610e92565b34801561058257600080fd5b506013546103d3906001600160a01b031681565b3480156105a257600080fd5b506103d36105b136600461318c565b610ec1565b3480156105c257600080fd5b5061045760165481565b3480156105d857600080fd5b506104576105e736600461323d565b610efb565b3480156105f857600080fd5b50610400610f43565b34801561060d57600080fd5b50600f546103d3906001600160a01b031681565b34801561062d57600080fd5b50600b546001600160a01b03166103d3565b34801561064b57600080fd5b5061030c61065a3660046133d8565b610f79565b34801561066b57600080fd5b50610369611243565b34801561068057600080fd5b5061045766b1a2bc2ec5000081565b34801561069b57600080fd5b506104006106aa3660046134ff565b611252565b3480156106bb57600080fd5b506014546103d3906001600160a01b031681565b3480156106db57600080fd5b506104006106ea36600461323d565b611261565b3480156106fb57600080fd5b5061040061070a36600461323d565b6112b7565b34801561071b57600080fd5b5061040061072a36600461362d565b611303565b34801561073b57600080fd5b50600d546103d3906001600160a01b031681565b34801561075b57600080fd5b5061036961076a36600461318c565b61133b565b34801561077b57600080fd5b5061040061078a36600461323d565b611454565b34801561079b57600080fd5b5061045760175481565b3480156107b157600080fd5b5061030c6107c03660046136ac565b6114aa565b3480156107d157600080fd5b506104006107e036600461323d565b61161d565b3480156107f157600080fd5b5061040061080036600461381c565b611676565b34801561081157600080fd5b5061040061082036600461323d565b61185f565b34801561083157600080fd5b50600e546103d3906001600160a01b031681565b60007fffffffff0000000000000000000000000000000000000000000000000000000082167f780e9d6300000000000000000000000000000000000000000000000000000000148061089b575061089b826118b2565b92915050565b6060600080546108b0906138ae565b80601f01602080910402602001604051908101604052809291908181526020018280546108dc906138ae565b80156109295780601f106108fe57610100808354040283529160200191610929565b820191906000526020600020905b81548152906001019060200180831161090c57829003601f168201915b5050505050905090565b61ffff81166000908152600260205260408120546001600160a01b03166109755760405162461bcd60e51b815260040161096c90613935565b60405180910390fd5b5061ffff166000908152600460205260409020546001600160a01b031690565b60006109a082610ec1565b9050806001600160a01b0316836001600160a01b031614156109d45760405162461bcd60e51b815260040161096c9061399d565b336001600160a01b03821614806109f057506109f081336114aa565b610a0c5760405162461bcd60e51b815260040161096c90613a05565b610a168383611995565b505050565b600b546001600160a01b03163314610a455760405162461bcd60e51b815260040161096c90613a47565b601655565b600b546001600160a01b03163314610a745760405162461bcd60e51b815260040161096c90613a47565b600d80546001600160a01b039092166001600160a01b0319928316811790915560108054909216179055565b6000600260098054610ab1906138ae565b610abc929150613a83565b905090565b600060175442118015610abc575050601754151590565b600b546001600160a01b03163314610b025760405162461bcd60e51b815260040161096c90613a47565b601480546001600160a01b0319166001600160a01b0392909216919091179055565b610b2e3382611a06565b610b4a5760405162461bcd60e51b815260040161096c90613af3565b610a16838383611aa5565b60006002600c541415610b7a5760405162461bcd60e51b815260040161096c90613b35565b6002600c55610b87610ac1565b610ba35760405162461bcd60e51b815260040161096c90613b77565b3466b1a2bc2ec50000610bb7600287613a83565b610bc19190613b87565b14610bde5760405162461bcd60e51b815260040161096c90613bd8565b601654610bec600286613a83565b610bf533610efb565b610bff9190613be8565b1115610c1d5760405162461bcd60e51b815260040161096c90613c58565b610c2a3386868686611c0e565b50600180600c55949350505050565b6000610c4483610efb565b8210610c625760405162461bcd60e51b815260040161096c90613cc0565b6001600160a01b03831660009081526007602052604090208054610d1a9190610c8a906138ae565b80601f0160208091040260200160405190810160405280929190818152602001828054610cb6906138ae565b8015610d035780601f10610cd857610100808354040283529160200191610d03565b820191906000526020600020905b815481529060010190602001808311610ce657829003601f168201915b5050505050836002610d159190613b87565b611ef5565b61ffff169392505050565b600b546001600160a01b03163314610d4f5760405162461bcd60e51b815260040161096c90613a47565b601480547fffffffffffffffffffffff00ffffffffffffffffffffffffffffffffffffffff8116740100000000000000000000000000000000000000009182900460ff1615909102179055565b600b546001600160a01b03163314610dc65760405162461bcd60e51b815260040161096c90613a47565b604051600090339047908381818185875af1925050503d8060008114610e08576040519150601f19603f3d011682016040523d82523d6000602084013e610e0d565b606091505b5050905080610e2e5760405162461bcd60e51b815260040161096c90613d02565b50565b610a1683838361ffff1660405180602001604052806000815250611303565b6000610e5a610aa0565b8210610e785760405162461bcd60e51b815260040161096c90613d6a565b610e8860098054610c8a906138ae565b61ffff1692915050565b600b546001600160a01b03163314610ebc5760405162461bcd60e51b815260040161096c90613a47565b601755565b61ffff81166000908152600260205260408120546001600160a01b03168061089b5760405162461bcd60e51b815260040161096c90613dd2565b60006001600160a01b038216610f235760405162461bcd60e51b815260040161096c90613e3a565b506001600160a01b031660009081526003602052604090205461ffff1690565b600b546001600160a01b03163314610f6d5760405162461bcd60e51b815260040161096c90613a47565b610f776000611f2b565b565b60006002600c541415610f9e5760405162461bcd60e51b815260040161096c90613b35565b6002600c55858414610fc25760405162461bcd60e51b815260040161096c90613ea2565b610fcd866002613b87565b8a14610feb5760405162461bcd60e51b815260040161096c90613ee4565b60005b8a8110156111b457336001600160a01b0316601260009054906101000a90046001600160a01b03166001600160a01b0316636352211e6110658f8f8080601f016020809104026020016040519081016040528093929190818152602001838380828437600092019190915250889250611ef5915050565b6040518263ffffffff1660e01b81526004016110819190613f10565b60206040518083038186803b15801561109957600080fd5b505afa1580156110ad573d6000803e3d6000fd5b505050506040513d601f19601f820116820180604052508101906110d19190613f29565b6001600160a01b0316146110f75760405162461bcd60e51b815260040161096c90613fa2565b8787611104600284613a83565b81811061111357611113613fb2565b919091013560f81c9050868661112a600285613a83565b81811061113957611139613fb2565b9050602002013560ff16146111605760405162461bcd60e51b815260040161096c90613ffa565b838361116d600284613a83565b81811061117c5761117c613fb2565b905060200201356001146111a25760405162461bcd60e51b815260040161096c9061408a565b6111ad600282613be8565b9050610fee565b506111c4338c8c8c8c8c8c611f7d565b6011546001600160a01b0316636b20c45433878787876040518663ffffffff1660e01b81526004016111fa9594939291906140ec565b600060405180830381600087803b15801561121457600080fd5b505af1158015611228573d6000803e3d6000fd5b50505050600190506001600c559a9950505050505050505050565b6060600180546108b0906138ae565b61125d33838361229f565b5050565b600b546001600160a01b0316331461128b5760405162461bcd60e51b815260040161096c90613a47565b600e80546001600160a01b039092166001600160a01b0319928316811790915560118054909216179055565b600b546001600160a01b031633146112e15760405162461bcd60e51b815260040161096c90613a47565b601380546001600160a01b0319166001600160a01b0392909216919091179055565b61130d3383611a06565b6113295760405162461bcd60e51b815260040161096c90613af3565b61133584848484612342565b50505050565b60606113628261ffff166000908152600260205260409020546001600160a01b0316151590565b61137e5760405162461bcd60e51b815260040161096c90614185565b600d546001600160a01b03166113a257505060408051602081019091526000815290565b60105461ffff83166000908152600660205260409081902090517f48a621a90000000000000000000000000000000000000000000000000000000081526001600160a01b03909216916348a621a991611400918691906004016141b7565b60006040518083038186803b15801561141857600080fd5b505afa15801561142c573d6000803e3d6000fd5b505050506040513d6000823e601f3d908101601f1916820160405261089b919081019061422a565b600b546001600160a01b0316331461147e5760405162461bcd60e51b815260040161096c90613a47565b600f80546001600160a01b039092166001600160a01b0319928316811790915560128054909216179055565b60145460009074010000000000000000000000000000000000000000900460ff166114fe57506001600160a01b0382811660009081526005602090815260408083209385168352929052205460ff1661089b565b6013546040517fc45527910000000000000000000000000000000000000000000000000000000081526001600160a01b039091169063c4552791906115479086906004016131de565b60206040518083038186803b15801561155f57600080fd5b505afa158015611573573d6000803e3d6000fd5b505050506040513d601f19601f820116820180604052508101906115979190613f29565b6001600160a01b0316826001600160a01b031614806115c357506014546001600160a01b038381169116145b806115e657506001600160a01b03821660009081526015602052604090205460ff165b8061161657506001600160a01b0380841660009081526005602090815260408083209386168352929052205460ff165b9392505050565b600b546001600160a01b031633146116475760405162461bcd60e51b815260040161096c90613a47565b6001600160a01b03811661166d5760405162461bcd60e51b815260040161096c906142bd565b610e2e81611f2b565b6002600c5414156116995760405162461bcd60e51b815260040161096c90613b35565b6002600c55600b546001600160a01b031633146116c85760405162461bcd60e51b815260040161096c90613a47565b60008183334244886040516020016116e596959493929190614390565b60405160208183030381529060405280519060200120905060005b835181101561180857846002600086848151811061172057611720613fb2565b602002602001015161ffff1661ffff16815260200190815260200160002060006101000a8154816001600160a01b0302191690836001600160a01b031602179055506040518060200160405280600485848151811061178157611781613fb2565b602002602001015161179391906143e6565b6117a5906103fc600087901a16614401565b60ff16815250600660008684815181106117c1576117c1613fb2565b60209081029190910181015161ffff1682528101919091526040016000209051815460ff191660ff90911617905560019190911c908061180081614422565b915050611700565b5082516001600160a01b0385166000908152600360205260408120805490919061183790849061ffff1661443d565b92506101000a81548161ffff021916908361ffff160217905550506001600c81905550505050565b600b546001600160a01b031633146118895760405162461bcd60e51b815260040161096c90613a47565b6001600160a01b03166000908152601560205260409020805460ff19811660ff90911615179055565b60007fffffffff0000000000000000000000000000000000000000000000000000000082167f80ac58cd00000000000000000000000000000000000000000000000000000000148061194557507fffffffff0000000000000000000000000000000000000000000000000000000082167f5b5e139f00000000000000000000000000000000000000000000000000000000145b8061089b57507f01ffc9a7000000000000000000000000000000000000000000000000000000007fffffffff0000000000000000000000000000000000000000000000000000000083161461089b565b61ffff8116600081815260046020526040902080546001600160a01b0319166001600160a01b0385169081179091556119cd82610ec1565b6001600160a01b03167f8c5be1e5ebec7d5bd14f71427d1e84f3dd0314c0f7b2291e5b200ac8c7c3b92560405160405180910390a45050565b61ffff81166000908152600260205260408120546001600160a01b0316611a3f5760405162461bcd60e51b815260040161096c906144b9565b6000611a4e8361ffff16610ec1565b9050806001600160a01b0316846001600160a01b03161480611a8d5750836001600160a01b0316611a828461ffff16610933565b6001600160a01b0316145b80611a9d5750611a9d81856114aa565b949350505050565b826001600160a01b0316611abc8261ffff16610ec1565b6001600160a01b031614611ae25760405162461bcd60e51b815260040161096c90614521565b6001600160a01b038216611b085760405162461bcd60e51b815260040161096c90614589565b611b13838383612375565b611b1e600082611995565b6001600160a01b0383166000908152600360205260408120805460019290611b4b90849061ffff16614599565b82546101009290920a61ffff8181021990931691831602179091556001600160a01b03841660009081526003602052604081208054600194509092611b929185911661443d565b82546101009290920a61ffff818102199093169183160217909155821660008181526002602052604080822080546001600160a01b0319166001600160a01b0388811691821790925591519394509092908716917fddf252ad1be2c89b69c2b068fc378daa952ba7f163c4a11628f55a4df523b3ef91a4505050565b6001600160a01b038516611c345760405162461bcd60e51b815260040161096c906145ec565b6101008310611c555760405162461bcd60e51b815260040161096c90614654565b60008484848433344244604051602001611c7698979695949392919061466f565b604051602081830303815290604052805190602001209050611c9b8686868686612b26565b60005b611ca9600286613a83565b811015611dda576000611cf987878080601f016020809104026020016040519081016040528093929190818152602001838380828437600092019190915250610d15925086915060029050613b87565b9050611d208161ffff166000908152600260205260409020546001600160a01b0316151590565b15611d3d5760405162461bcd60e51b815260040161096c906146fb565b61ffff8116600081815260026020908152604080832080546001600160a01b0319166001600160a01b038e169081179091558151808401835288851a815285855260069093528184209251835460ff191660ff909116179092555160019690961c959091907fddf252ad1be2c89b69c2b068fc378daa952ba7f163c4a11628f55a4df523b3ef908290a45080611dd281614422565b915050611c9e565b50611de660028561470b565b6001600160a01b03871660009081526003602052604081208054909190611e1290849061ffff1661443d565b92506101000a81548161ffff021916908361ffff1602179055508484604051611e3c929190614719565b604051908190038120906001600160a01b038816907f8af827b1e5b28d31f4e58c98834e77a022ec56ea126a1bc51c28f4d24b88a81990600090a3611ed1600087611ebc88888080601f01602080910402602001604051908101604052809392919081815260200183838082843760009201829052509250611ef5915050565b60405180602001604052806000815250612de1565b611eed5760405162461bcd60e51b815260040161096c9061477c565b505050505050565b6000611f02826002613be8565b83511015611f225760405162461bcd60e51b815260040161096c906147be565b50016002015190565b600b80546001600160a01b038381166001600160a01b0319831681179093556040519116919082907f8be0079c531659141344cd1fd0a4f28419497f9722a3daafe3b4186f6b6457e090600090a35050565b6001600160a01b038716611fa35760405162461bcd60e51b815260040161096c906145ec565b6102008510611fc45760405162461bcd60e51b815260040161096c90614654565b60008282888833344244604051602001611fe598979695949392919061466f565b60405160208183030381529060405280519060200120905061200a8888888888612b26565b60005b612018600288613a83565b81101561219757600061206889898080601f016020809104026020016040519081016040528093929190818152602001838380828437600092019190915250610d15925086915060029050613b87565b905061208f8161ffff166000908152600260205260409020546001600160a01b0316151590565b156120ac5760405162461bcd60e51b815260040161096c906146fb565b61ffff811660009081526002602090815260409182902080546001600160a01b0319166001600160a01b038e1617905581519081019091528060048787868181106120f9576120f9613fb2565b61210a9392013560f81c90506143e6565b61211c906103fc600088901a16614401565b60ff90811690915261ffff83166000818152600660205260408082209451855460ff1916941693909317909355905160019590951c9490916001600160a01b038d16917fddf252ad1be2c89b69c2b068fc378daa952ba7f163c4a11628f55a4df523b3ef908290a4508061218f81614422565b91505061200d565b506121a360028761470b565b6001600160a01b038916600090815260036020526040812080549091906121cf90849061ffff1661443d565b92506101000a81548161ffff021916908361ffff16021790555086866040516121f9929190614719565b604051908190038120906001600160a01b038a16907f8af827b1e5b28d31f4e58c98834e77a022ec56ea126a1bc51c28f4d24b88a81990600090a3612279600089611ebc8a8a8080601f01602080910402602001604051908101604052809392919081815260200183838082843760009201829052509250611ef5915050565b6122955760405162461bcd60e51b815260040161096c9061477c565b5050505050505050565b816001600160a01b0316836001600160a01b031614156122d15760405162461bcd60e51b815260040161096c90614800565b6001600160a01b0383811660008181526005602090815260408083209487168084529490915290819020805460ff1916851515179055517f17307eab39ab6107e8899845ad3d59bd9653f200f220920489ca2b5937696c31906123359085906130fe565b60405180910390a3505050565b61234d848484611aa5565b61235984848484612de1565b6113355760405162461bcd60e51b815260040161096c9061477c565b6001600160a01b0383166124c457600060098054612392906138ae565b61ffff8481166000908152600a6020908152604091829020805461ffff191693851693909317909255519193506123d3925060099160f086901b91016148a6565b604051602081830303815290604052600990805190602001906123f7929190613000565b506001600160a01b0383166000908152600760205260408120805461241b906138ae565b905060f01b90506008816040516020016124369291906148a6565b6040516020818303038152906040526008908051906020019061245a929190613000565b506001600160a01b038416600090815260076020908152604091829020915161248a929160f087901b91016148a6565b60408051601f198184030181529181526001600160a01b0386166000908152600760209081529190208251611eed93919290910190613000565b6001600160a01b0382166128875761ffff8082166000908152600a6020526040902054600980549190921691612587916124fd906138ae565b80601f0160208091040260200160405190810160405280929190818152602001828054612529906138ae565b80156125765780601f1061254b57610100808354040283529160200191612576565b820191906000526020600020905b81548152906001019060200180831161255957829003601f168201915b505050505060008361ffff16612f38565b61265460098054612597906138ae565b80601f01602080910402602001604051908101604052809291908181526020018280546125c3906138ae565b80156126105780601f106125e557610100808354040283529160200191612610565b820191906000526020600020905b8154815290600101906020018083116125f357829003601f168201915b5050505050836002612622919061443d565b61ffff1660028561ffff166009805461263a906138ae565b6126459291506148c5565b61264f91906148c5565b612f38565b6040516020016126659291906148ed565b60405160208183030381529060405260099080519060200190612689929190613000565b5060006127246008805461269c906138ae565b80601f01602080910402602001604051908101604052809291908181526020018280546126c8906138ae565b80156127155780601f106126ea57610100808354040283529160200191612715565b820191906000526020600020905b8154815290600101906020018083116126f857829003601f168201915b50505050508361ffff16611ef5565b6001600160a01b0386166000908152600760205260409020805491925061274e916124fd906138ae565b6001600160a01b0386166000908152600760205260409020805461283c9190612776906138ae565b80601f01602080910402602001604051908101604052809291908181526020018280546127a2906138ae565b80156127ef5780601f106127c4576101008083540402835291602001916127ef565b820191906000526020600020905b8154815290600101906020018083116127d257829003601f168201915b5050505050836002612801919061443d565b61ffff1660028561ffff16600760008c6001600160a01b03166001600160a01b03168152602001908152602001600020805461263a906138ae565b60405160200161284d9291906148ed565b60408051601f198184030181529181526001600160a01b0387166000908152600760209081529190208251611eed93919290910190613000565b816001600160a01b0316836001600160a01b031614610a165761ffff8082166000908152600a60205260408120546008805491909316926128cb9161269c906138ae565b6001600160a01b038616600090815260076020526040902080549192506128f5916124fd906138ae565b6001600160a01b0386166000908152600760205260409020805461291d9190612776906138ae565b60405160200161292e9291906148ed565b60408051601f198184030181529181526001600160a01b038716600090815260076020908152919020825161296893919290910190613000565b506001600160a01b0384166000908152600760205260408120805461298c906138ae565b905060f01b905060076000866001600160a01b03166001600160a01b031681526020019081526020016000208460f01b6040516020016129cd9291906148a6565b60408051601f198184030181529181526001600160a01b0387166000908152600760209081529190208251612a0793919290910190613000565b508060001a60f81b60088461ffff168154612a21906138ae565b8110612a2f57612a2f613fb2565b815460011615612a4e5790600052602060002090602091828204019190065b601f036101000a81548160ff021916907f01000000000000000000000000000000000000000000000000000000000000008404021790555080600160028110612a9957612a99613fb2565b1a60f81b6008612aaa85600161443d565b61ffff168154612ab9906138ae565b8110612ac757612ac7613fb2565b815460011615612ae65790600052602060002090602091828204019190065b601f036101000a81548160ff021916907f010000000000000000000000000000000000000000000000000000000000000084040217905550505050505050565b6000612b6783838080601f01602080910402602001604051908101604052809392919081815260200183838082843760009201829052509250611ef5915050565b9050838214612b885760405162461bcd60e51b815260040161096c9061495b565b612b9381600261496b565b6001600160a01b0387166000908152600760205260409020805461ffff9290921691612bbe906138ae565b905014612bdd5760405162461bcd60e51b815260040161096c90614a11565b60088383604051602001612bf393929190614a21565b60405160208183030381529060405260089080519060200190612c17929190613000565b506001600160a01b0386166000908152600760209081526040918290209151612c4592918891889101614a21565b60408051601f198184030181529181526001600160a01b0388166000908152600760209081529190208251612c7f93919290910190613000565b50600060098054612c8f906138ae565b9050905060005b61ffff8116861115612da657612cad60028261470b565b612cb7908461443d565b61ffff16612cff86868080601f016020809104026020016040519081016040528093929190818152602001838380828437600092019190915250505061ffff85169050611ef5565b61ffff1614612d205760405162461bcd60e51b815260040161096c90614a90565b6000612d6688888080601f016020809104026020016040519081016040528093929190818152602001838380828437600092019190915250505061ffff85169050611ef5565b9050612d72828461443d565b61ffff9182166000908152600a60205260409020805461ffff191691909216179055612d9f60028261443d565b9050612c96565b5060098686604051602001612dbd93929190614a21565b60405160208183030381529060405260099080519060200190612295929190613000565b60006001600160a01b0384163b15612f2d576040517f150b7a020000000000000000000000000000000000000000000000000000000081526001600160a01b0385169063150b7a0290612e3e903390899088908890600401614aa0565b602060405180830381600087803b158015612e5857600080fd5b505af1925050508015612e88575060408051601f3d908101601f19168201909252612e8591810190614aef565b60015b612ee2573d808015612eb6576040519150601f19603f3d011682016040523d82523d6000602084013e612ebb565b606091505b508051612eda5760405162461bcd60e51b815260040161096c9061477c565b805181602001fd5b7fffffffff00000000000000000000000000000000000000000000000000000000167f150b7a0200000000000000000000000000000000000000000000000000000000149050611a9d565b506001949350505050565b606081612f4681601f613be8565b1015612f645760405162461bcd60e51b815260040161096c90614b42565b612f6e8284613be8565b84511015612f8e5760405162461bcd60e51b815260040161096c90614b84565b606082158015612fad5760405191506000825260208201604052612ff7565b6040519150601f8416801560200281840101858101878315602002848b0101015b81831015612fe6578051835260209283019201612fce565b5050858452601f01601f1916604052505b50949350505050565b82805461300c906138ae565b90600052602060002090601f01602090048101928261302e5760008555613074565b82601f1061304757805160ff1916838001178555613074565b82800160010185558215613074579182015b82811115613074578251825591602001919060010190613059565b50613080929150613084565b5090565b5b808211156130805760008155600101613085565b7fffffffff0000000000000000000000000000000000000000000000000000000081165b8114610e2e57600080fd5b803561089b81613099565b6000602082840312156130e8576130e8600080fd5b6000611a9d84846130c8565b8015155b82525050565b6020810161089b82846130f4565b60005b8381101561312757818101518382015260200161310f565b838111156113355750506000910152565b6000613142825190565b80845260208401935061315981856020860161310c565b601f01601f19169290920192915050565b602080825281016116168184613138565b806130bd565b803561089b8161317b565b6000602082840312156131a1576131a1600080fd5b6000611a9d8484613181565b60ff81166130f8565b6020810161089b82846131ad565b60006001600160a01b03821661089b565b6130f8816131c4565b6020810161089b82846131d5565b6130bd816131c4565b803561089b816131ec565b6000806040838503121561321657613216600080fd5b600061322285856131f5565b925050602061323385828601613181565b9150509250929050565b60006020828403121561325257613252600080fd5b6000611a9d84846131f5565b806130f8565b6020810161089b828461325e565b60008060006060848603121561328a5761328a600080fd5b600061329686866131f5565b93505060206132a7868287016131f5565b92505060406132b886828701613181565b9150509250925092565b60008083601f8401126132d7576132d7600080fd5b50813567ffffffffffffffff8111156132f2576132f2600080fd5b60208301915083600182028301111561330d5761330d600080fd5b9250929050565b6000806000806040858703121561332d5761332d600080fd5b843567ffffffffffffffff81111561334757613347600080fd5b613353878288016132c2565b9450945050602085013567ffffffffffffffff81111561337557613375600080fd5b613381878288016132c2565b95989497509550505050565b60008083601f8401126133a2576133a2600080fd5b50813567ffffffffffffffff8111156133bd576133bd600080fd5b60208301915083602082028301111561330d5761330d600080fd5b60008060008060008060008060008060a08b8d0312156133fa576133fa600080fd5b8a3567ffffffffffffffff81111561341457613414600080fd5b6134208d828e016132c2565b9a509a505060208b013567ffffffffffffffff81111561344257613442600080fd5b61344e8d828e016132c2565b985098505060408b013567ffffffffffffffff81111561347057613470600080fd5b61347c8d828e016132c2565b965096505060608b013567ffffffffffffffff81111561349e5761349e600080fd5b6134aa8d828e0161338d565b945094505060808b013567ffffffffffffffff8111156134cc576134cc600080fd5b6134d88d828e0161338d565b92509250509295989b9194979a5092959850565b8015156130bd565b803561089b816134ec565b6000806040838503121561351557613515600080fd5b600061352185856131f5565b9250506020613233858286016134f4565b634e487b7160e01b600052604160045260246000fd5b601f19601f830116810181811067ffffffffffffffff8211171561356e5761356e613532565b6040525050565b600061358060405190565b905061358c8282613548565b919050565b600067ffffffffffffffff8211156135ab576135ab613532565b601f19601f83011660200192915050565b82818337506000910152565b60006135db6135d684613591565b613575565b9050828152602081018484840111156135f6576135f6600080fd5b6136018482856135bc565b509392505050565b600082601f83011261361d5761361d600080fd5b8135611a9d8482602086016135c8565b6000806000806080858703121561364657613646600080fd5b600061365287876131f5565b9450506020613663878288016131f5565b935050604061367487828801613181565b925050606085013567ffffffffffffffff81111561369457613694600080fd5b6136a087828801613609565b91505092959194509250565b600080604083850312156136c2576136c2600080fd5b60006136ce85856131f5565b9250506020613233858286016131f5565b600067ffffffffffffffff8211156136f9576136f9613532565b5060209081020190565b61ffff81166130bd565b803561089b81613703565b60006137266135d6846136df565b8381529050602080820190840283018581111561374557613745600080fd5b835b8181101561376757613759878261370d565b835260209283019201613747565b5050509392505050565b600082601f83011261378557613785600080fd5b8135611a9d848260208601613718565b60ff81166130bd565b803561089b81613795565b60006137b76135d6846136df565b838152905060208082019084028301858111156137d6576137d6600080fd5b835b81811015613767576137ea878261379e565b8352602092830192016137d8565b600082601f83011261380c5761380c600080fd5b8135611a9d8482602086016137a9565b60008060006060848603121561383457613834600080fd5b600061384086866131f5565b935050602084013567ffffffffffffffff81111561386057613860600080fd5b61386c86828701613771565b925050604084013567ffffffffffffffff81111561388c5761388c600080fd5b6132b8868287016137f8565b634e487b7160e01b600052602260045260246000fd5b6002810460018216806138c257607f821691505b602082108114156138d5576138d5613898565b50919050565b602c8152602081017f4552433732313a20617070726f76656420717565727920666f72206e6f6e657881527f697374656e7420746f6b656e0000000000000000000000000000000000000000602082015290505b60400190565b6020808252810161089b816138db565b60218152602081017f4552433732313a20617070726f76616c20746f2063757272656e74206f776e6581527f72000000000000000000000000000000000000000000000000000000000000006020820152905061392f565b6020808252810161089b81613945565b60388152602081017f4552433732313a20617070726f76652063616c6c6572206973206e6f74206f7781527f6e6572206e6f7220617070726f76656420666f7220616c6c00000000000000006020820152905061392f565b6020808252810161089b816139ad565b60208082527f4f776e61626c653a2063616c6c6572206973206e6f7420746865206f776e657291019081525b60200190565b6020808252810161089b81613a15565b634e487b7160e01b600052601260045260246000fd5b634e487b7160e01b600052601160045260246000fd5b815b9150600082613a9657613a96613a57565b500490565b60318152602081017f4552433732313a207472616e736665722063616c6c6572206973206e6f74206f81527f776e6572206e6f7220617070726f7665640000000000000000000000000000006020820152905061392f565b6020808252810161089b81613a9b565b601f8152602081017f5265656e7472616e637947756172643a207265656e7472616e742063616c6c0081529050613a41565b6020808252810161089b81613b03565b60148152602081017f5075626c69632073616c65206e6f74206f70656e00000000000000000000000081529050613a41565b6020808252810161089b81613b45565b6000816000190483118215151615613ba157613ba1613a6d565b500290565b601d8152602081017f596f75206861766520746f2070617920746865206261696c20626f6e6400000081529050613a41565b6020808252810161089b81613ba6565b60008219821115613bfb57613bfb613a6d565b500190565b60318152602081017f596f757220686f6d6520697320746f20736d616c6c20746f2077656c636f6d6581527f20736f206d616e7920647265616d6572730000000000000000000000000000006020820152905061392f565b6020808252810161089b81613c00565b602b8152602081017f455243373231456e756d657261626c653a206f776e657220696e646578206f7581527f74206f6620626f756e64730000000000000000000000000000000000000000006020820152905061392f565b6020808252810161089b81613c68565b60118152602081017f5769746864726177616c206661696c656400000000000000000000000000000081529050613a41565b6020808252810161089b81613cd0565b602c8152602081017f455243373231456e756d657261626c653a20676c6f62616c20696e646578206f81527f7574206f6620626f756e647300000000000000000000000000000000000000006020820152905061392f565b6020808252810161089b81613d12565b60298152602081017f4552433732313a206f776e657220717565727920666f72206e6f6e657869737481527f656e7420746f6b656e00000000000000000000000000000000000000000000006020820152905061392f565b6020808252810161089b81613d7a565b602a8152602081017f4552433732313a2062616c616e636520717565727920666f7220746865207a6581527f726f2061646472657373000000000000000000000000000000000000000000006020820152905061392f565b6020808252810161089b81613de2565b60258152602081017f43616e6479206964732073686f756c642068617665207468652073616d65206c81527f656e6774680000000000000000000000000000000000000000000000000000006020820152905061392f565b6020808252810161089b81613e4a565b601f8152602081017f456163682072756e6e6572206e6565647320697473206f776e2063616e64790081529050613a41565b6020808252810161089b81613eb2565b600061089b613f0461ffff841681565b90565b6130f881613ef4565b6020810161089b8284613f07565b805161089b816131ec565b600060208284031215613f3e57613f3e600080fd5b6000611a9d8484613f1e565b60378152602081017f596f752063616e6e6f7420676976652063616e6469657320746f20612072756e81527f6e6572207468617420796f7520646f206e6f74206f776e0000000000000000006020820152905061392f565b6020808252810161089b81613f4a565b634e487b7160e01b600052603260045260246000fd5b601c8152602081017f43616e6479206964732073686f756c64206265207468652073616d650000000081529050613a41565b6020808252810161089b81613fc8565b604f8152602081017f596f75722072756e6e6572206e65656473206f6e6520616e64206f6e6c79206f81527f6e652063616e64792c2077686f206b6e6f7773207768617420636f756c64206860208201527f617070656e206f74686572776973650000000000000000000000000000000000604082015290505b60600190565b6020808252810161089b8161400a565b81835260208301925060007f07ffffffffffffffffffffffffffffffffffffffffffffffffffffffffffffff8311156140d5576140d5600080fd5b6020830292506140e68385846135bc565b50500190565b606081016140fa82886131d5565b818103602083015261410d81868861409a565b9050818103604083015261412281848661409a565b979650505050505050565b60278152602081017f4552433732313a2055524920717565727920666f72206e6f6e6578697374656e81527f7420746f6b656e000000000000000000000000000000000000000000000000006020820152905061392f565b6020808252810161089b8161412d565b600060ff821661089b565b80546141ab81614195565b9050610a1683826131ad565b604081016141c5828561325e565b61161660208301846141a0565b60006141e06135d684613591565b9050828152602081018484840111156141fb576141fb600080fd5b61360184828561310c565b600082601f83011261421a5761421a600080fd5b8151611a9d8482602086016141d2565b60006020828403121561423f5761423f600080fd5b815167ffffffffffffffff81111561425957614259600080fd5b611a9d84828501614206565b60268152602081017f4f776e61626c653a206e6577206f776e657220697320746865207a65726f206181527f64647265737300000000000000000000000000000000000000000000000000006020820152905061392f565b6020808252810161089b81614265565b6142d782826131ad565b5060200190565b60006142e8825190565b6020830160005b8281101561431457815161430387826142cd565b9650506020820191506001016142ef565b5093949350505050565b61ffff81166130f8565b6142d7828261431e565b600061433c825190565b6020830160005b828110156143145781516143578782614328565b965050602082019150600101614343565b600061089b8260601b90565b600061089b82614368565b6130f861438b826131c4565b614374565b61439a81886142de565b90506143a68187614332565b90506143b2818661437f565b6014016143bf818561325e565b6020016143cc818461325e565b6020016143d9818361437f565b6014019695505050505050565b60ff91821691166000826143fc576143fc613a57565b500690565b60ff8116905060ff8216915060008260ff03821115613bfb57613bfb613a6d565b600060001982141561443657614436613a6d565b5060010190565b61ffff8116905061ffff8216915060008261ffff03821115613bfb57613bfb613a6d565b602c8152602081017f4552433732313a206f70657261746f7220717565727920666f72206e6f6e657881527f697374656e7420746f6b656e00000000000000000000000000000000000000006020820152905061392f565b6020808252810161089b81614461565b60298152602081017f4552433732313a207472616e73666572206f6620746f6b656e2074686174206981527f73206e6f74206f776e00000000000000000000000000000000000000000000006020820152905061392f565b6020808252810161089b816144c9565b60248152602081017f4552433732313a207472616e7366657220746f20746865207a65726f2061646481527f72657373000000000000000000000000000000000000000000000000000000006020820152905061392f565b6020808252810161089b81614531565b61ffff9081169082165b91506000828210156145b7576145b7613a6d565b500390565b60208082527f4552433732313a206d696e7420746f20746865207a65726f20616464726573739101908152613a41565b6020808252810161089b816145bc565b60328152602081017f596f752063616e206d696e74206279206261746368657320757020746f20323581527f3620746f6b656e7320617420612074696d6500000000000000000000000000006020820152905061392f565b6020808252810161089b816145fc565b613bfb8284836135bc565b61467a81898b614664565b9050614687818789614664565b9050614693818661437f565b6014016146a0818561325e565b6020016146ad818461325e565b6020016146ba818361325e565b60200198975050505050505050565b601c8152602081017f4552433732313a20746f6b656e20616c7265616479206d696e7465640000000081529050613a41565b6020808252810161089b816146c9565b61ffff908116908216613a85565b611616818385614664565b60328152602081017f4552433732313a207472616e7366657220746f206e6f6e20455243373231526581527f63656976657220696d706c656d656e74657200000000000000000000000000006020820152905061392f565b6020808252810161089b81614724565b60148152602081017f746f55696e7431365f6f75744f66426f756e647300000000000000000000000081529050613a41565b6020808252810161089b8161478c565b60198152602081017f4552433732313a20617070726f766520746f2063616c6c65720000000000000081529050613a41565b6020808252810161089b816147ce565b6000815461481d816138ae565b600182168015614834576001811461484557614875565b60ff19831686528186019350614875565b60008581526020902060005b8381101561486d57815488820152600190910190602001614851565b505081860193505b50505092915050565b7fffff00000000000000000000000000000000000000000000000000000000000081166130f8565b6148b08184614810565b90506148bc818361487e565b60020192915050565b816145a3565b60006148d5825190565b6148e381856020860161310c565b9290920192915050565b6148f781846148cb565b905061161681836148cb565b60328152602081017f6f776e6572496e6465786573206d7573742068617665207468652073616d652081527f6c656e67746820617320746f6b656e49647300000000000000000000000000006020820152905061392f565b6020808252810161089b81614903565b61ffff8116905061ffff8216915060008161ffff0483118215151615613ba157613ba1613a6d565b60458152602081017f54686520676976656e206f776e6572546f6b656e496e646578657320646f206e81527f6f742073746172742066726f6d207468652063757272656e74206f776e65722060208201527f636f756e7400000000000000000000000000000000000000000000000000000060408201529050614084565b6020808252810161089b81614993565b614a2b8185614810565b9050611a9d818385614664565b60248152602081017f6f776e6572546f6b656e496e6465786573206d7573742062652061207365717581527f656e6365000000000000000000000000000000000000000000000000000000006020820152905061392f565b6020808252810161089b81614a38565b60808101614aae82876131d5565b614abb60208301866131d5565b614ac86040830185613f07565b8181036060830152614ada8184613138565b9695505050505050565b805161089b81613099565b600060208284031215614b0457614b04600080fd5b6000611a9d8484614ae4565b600e8152602081017f736c6963655f6f766572666c6f7700000000000000000000000000000000000081529050613a41565b6020808252810161089b81614b10565b60118152602081017f736c6963655f6f75744f66426f756e647300000000000000000000000000000081529050613a41565b6020808252810161089b81614b5256fea26469706673582212206fdd824525463ba97cf3cd233054f007c7bc2fce39e74dafe185439e20d04cd664736f6c63430008080033",
  "devdoc": {
    "kind": "dev",
    "methods": {
      "approve(address,uint256)": {
        "details": "See {IERC721-approve}."
      },
      "balanceOf(address)": {
        "details": "See {IERC721-balanceOf}."
      },
      "getApproved(uint256)": {
        "details": "See {IERC721-getApproved}."
      },
      "isApprovedForAll(address,address)": {
        "details": "Modified for opensea and looksrare pre-approve so users can make truly gas less sales."
      },
      "mintBatchRunnersAccess(bytes,bytes,bytes,uint256[],uint256[])": {
        "params": {
          "candyAmounts": "should be an array of 1",
          "candyIds": "the same indexes as above but as a uint8 array",
          "candyIdsBytes": "a bytes interpreted as an array of uint8",
          "ownerTokenIndexes": "a bytes interpreted as an array of uint16. Given here to avoid indexes computation and save gas",
          "tokenIds": "a bytes interpreted as an array of uint16"
        }
      },
      "name()": {
        "details": "See {IERC721Metadata-name}."
      },
      "owner()": {
        "details": "Returns the address of the current owner."
      },
      "ownerOf(uint256)": {
        "details": "See {IERC721-ownerOf}."
      },
      "renounceOwnership()": {
        "details": "Leaves the contract without owner. It will not be possible to call `onlyOwner` functions anymore. Can only be called by the current owner. NOTE: Renouncing ownership will leave the contract without an owner, thereby removing any functionality that is only available to the owner."
      },
      "safeTransferFrom(address,address,uint256)": {
        "details": "See {IERC721-safeTransferFrom}."
      },
      "safeTransferFrom(address,address,uint256,bytes)": {
        "details": "See {IERC721-safeTransferFrom}."
      },
      "setApprovalForAll(address,bool)": {
        "details": "See {IERC721-setApprovalForAll}."
      },
      "supportsInterface(bytes4)": {
        "details": "See {IERC165-supportsInterface}."
      },
      "symbol()": {
        "details": "See {IERC721Metadata-symbol}."
      },
      "tokenByIndex(uint256)": {
        "details": "See {IERC721Enumerable-tokenByIndex}."
      },
      "tokenOfOwnerByIndex(address,uint256)": {
        "details": "See {IERC721Enumerable-tokenOfOwnerByIndex}."
      },
      "totalSupply()": {
        "details": "See {IERC721Enumerable-totalSupply}."
      },
      "transferFrom(address,address,uint256)": {
        "details": "See {IERC721-transferFrom}."
      },
      "transferOwnership(address)": {
        "details": "Transfers ownership of the contract to a new account (`newOwner`). Can only be called by the current owner."
      }
    },
    "stateVariables": {
      "opensea": {
        "details": "Copied from ApeRunner's contract"
      }
    },
    "version": 1
  },
  "userdoc": {
    "kind": "user",
    "methods": {
      "airDropBatch(address,uint16[],uint8[])": {
        "notice": "Use this to AirDrop the tokens to the owner instead of minting them for lower gas costs."
      },
      "flipProxyState(address)": {
        "notice": "Approve the communication and interaction with cross-collection interactions."
      },
      "looksrare()": {
        "notice": "LooksRare marketplace transfer manager."
      },
      "marketplacesApproved()": {
        "notice": "Check if marketplaces pre-approve is enabled."
      },
      "opensea()": {
        "notice": "OpenSea proxy registry."
      },
      "setLooksrare(address)": {
        "notice": "Set looksrare to `looksrare_`."
      },
      "setOpensea(address)": {
        "notice": "Set opensea to `opensea_`."
      },
      "toggleMarketplacesApproved()": {
        "notice": "Toggle pre-approve feature state for sender."
      }
    },
    "version": 1
  },
  "storageLayout": {
    "storage": [
      {
        "astId": 13278,
        "contract": "contracts/dreamers/ChainDreamers.sol:ChainDreamers",
        "label": "_name",
        "offset": 0,
        "slot": "0",
        "type": "t_string_storage"
      },
      {
        "astId": 13280,
        "contract": "contracts/dreamers/ChainDreamers.sol:ChainDreamers",
        "label": "_symbol",
        "offset": 0,
        "slot": "1",
        "type": "t_string_storage"
      },
      {
        "astId": 13284,
        "contract": "contracts/dreamers/ChainDreamers.sol:ChainDreamers",
        "label": "_owners",
        "offset": 0,
        "slot": "2",
        "type": "t_mapping(t_uint16,t_address)"
      },
      {
        "astId": 13288,
        "contract": "contracts/dreamers/ChainDreamers.sol:ChainDreamers",
        "label": "_balances",
        "offset": 0,
        "slot": "3",
        "type": "t_mapping(t_address,t_uint16)"
      },
      {
        "astId": 13292,
        "contract": "contracts/dreamers/ChainDreamers.sol:ChainDreamers",
        "label": "_tokenApprovals",
        "offset": 0,
        "slot": "4",
        "type": "t_mapping(t_uint16,t_address)"
      },
      {
        "astId": 13298,
        "contract": "contracts/dreamers/ChainDreamers.sol:ChainDreamers",
        "label": "_operatorApprovals",
        "offset": 0,
        "slot": "5",
        "type": "t_mapping(t_address,t_mapping(t_address,t_bool))"
      },
      {
        "astId": 13303,
        "contract": "contracts/dreamers/ChainDreamers.sol:ChainDreamers",
        "label": "dreamers",
        "offset": 0,
        "slot": "6",
        "type": "t_mapping(t_uint256,t_struct(ChainDreamer)4801_storage)"
      },
      {
        "astId": 14418,
        "contract": "contracts/dreamers/ChainDreamers.sol:ChainDreamers",
        "label": "_ownedTokens",
        "offset": 0,
        "slot": "7",
        "type": "t_mapping(t_address,t_bytes_storage)"
      },
      {
        "astId": 14420,
        "contract": "contracts/dreamers/ChainDreamers.sol:ChainDreamers",
        "label": "_ownedTokensIndex",
        "offset": 0,
        "slot": "8",
        "type": "t_bytes_storage"
      },
      {
        "astId": 14422,
        "contract": "contracts/dreamers/ChainDreamers.sol:ChainDreamers",
        "label": "_allTokens",
        "offset": 0,
        "slot": "9",
        "type": "t_bytes_storage"
      },
      {
        "astId": 14426,
        "contract": "contracts/dreamers/ChainDreamers.sol:ChainDreamers",
        "label": "_allTokensIndex",
        "offset": 0,
        "slot": "10",
        "type": "t_mapping(t_uint16,t_uint16)"
      },
      {
        "astId": 225,
        "contract": "contracts/dreamers/ChainDreamers.sol:ChainDreamers",
        "label": "_owner",
        "offset": 0,
        "slot": "11",
        "type": "t_address"
      },
      {
        "astId": 425,
        "contract": "contracts/dreamers/ChainDreamers.sol:ChainDreamers",
        "label": "_status",
        "offset": 0,
        "slot": "12",
        "type": "t_uint256"
      },
      {
        "astId": 4202,
        "contract": "contracts/dreamers/ChainDreamers.sol:ChainDreamers",
        "label": "renderingContractAddress",
        "offset": 0,
        "slot": "13",
        "type": "t_address"
      },
      {
        "astId": 4204,
        "contract": "contracts/dreamers/ChainDreamers.sol:ChainDreamers",
        "label": "candyShopAddress",
        "offset": 0,
        "slot": "14",
        "type": "t_address"
      },
      {
        "astId": 4206,
        "contract": "contracts/dreamers/ChainDreamers.sol:ChainDreamers",
        "label": "chainRunnersAddress",
        "offset": 0,
        "slot": "15",
        "type": "t_address"
      },
      {
        "astId": 4209,
        "contract": "contracts/dreamers/ChainDreamers.sol:ChainDreamers",
        "label": "renderer",
        "offset": 0,
        "slot": "16",
        "type": "t_contract(IDreamersRenderer)8065"
      },
      {
        "astId": 4212,
        "contract": "contracts/dreamers/ChainDreamers.sol:ChainDreamers",
        "label": "candyShop",
        "offset": 0,
        "slot": "17",
        "type": "t_contract(ICandyShop)8013"
      },
      {
        "astId": 4215,
        "contract": "contracts/dreamers/ChainDreamers.sol:ChainDreamers",
        "label": "chainRunners",
        "offset": 0,
        "slot": "18",
        "type": "t_contract(IChainRunners)8030"
      },
      {
        "astId": 4218,
        "contract": "contracts/dreamers/ChainDreamers.sol:ChainDreamers",
        "label": "opensea",
        "offset": 0,
        "slot": "19",
        "type": "t_address"
      },
      {
        "astId": 4221,
        "contract": "contracts/dreamers/ChainDreamers.sol:ChainDreamers",
        "label": "looksrare",
        "offset": 0,
        "slot": "20",
        "type": "t_address"
      },
      {
        "astId": 4225,
        "contract": "contracts/dreamers/ChainDreamers.sol:ChainDreamers",
        "label": "marketplacesApproved",
        "offset": 20,
        "slot": "20",
        "type": "t_bool"
      },
      {
        "astId": 4229,
        "contract": "contracts/dreamers/ChainDreamers.sol:ChainDreamers",
        "label": "proxyToApproved",
        "offset": 0,
        "slot": "21",
        "type": "t_mapping(t_address,t_bool)"
      },
      {
        "astId": 4331,
        "contract": "contracts/dreamers/ChainDreamers.sol:ChainDreamers",
        "label": "maxDreamersMintPublicSale",
        "offset": 0,
        "slot": "22",
        "type": "t_uint256"
      },
      {
        "astId": 4336,
        "contract": "contracts/dreamers/ChainDreamers.sol:ChainDreamers",
        "label": "publicSaleStartTimestamp",
        "offset": 0,
        "slot": "23",
        "type": "t_uint256"
      }
    ],
    "types": {
      "t_address": {
        "encoding": "inplace",
        "label": "address",
        "numberOfBytes": "20"
      },
      "t_bool": {
        "encoding": "inplace",
        "label": "bool",
        "numberOfBytes": "1"
      },
      "t_bytes_storage": {
        "encoding": "bytes",
        "label": "bytes",
        "numberOfBytes": "32"
      },
      "t_contract(ICandyShop)8013": {
        "encoding": "inplace",
        "label": "contract ICandyShop",
        "numberOfBytes": "20"
      },
      "t_contract(IChainRunners)8030": {
        "encoding": "inplace",
        "label": "contract IChainRunners",
        "numberOfBytes": "20"
      },
      "t_contract(IDreamersRenderer)8065": {
        "encoding": "inplace",
        "label": "contract IDreamersRenderer",
        "numberOfBytes": "20"
      },
      "t_mapping(t_address,t_bool)": {
        "encoding": "mapping",
        "key": "t_address",
        "label": "mapping(address => bool)",
        "numberOfBytes": "32",
        "value": "t_bool"
      },
      "t_mapping(t_address,t_bytes_storage)": {
        "encoding": "mapping",
        "key": "t_address",
        "label": "mapping(address => bytes)",
        "numberOfBytes": "32",
        "value": "t_bytes_storage"
      },
      "t_mapping(t_address,t_mapping(t_address,t_bool))": {
        "encoding": "mapping",
        "key": "t_address",
        "label": "mapping(address => mapping(address => bool))",
        "numberOfBytes": "32",
        "value": "t_mapping(t_address,t_bool)"
      },
      "t_mapping(t_address,t_uint16)": {
        "encoding": "mapping",
        "key": "t_address",
        "label": "mapping(address => uint16)",
        "numberOfBytes": "32",
        "value": "t_uint16"
      },
      "t_mapping(t_uint16,t_address)": {
        "encoding": "mapping",
        "key": "t_uint16",
        "label": "mapping(uint16 => address)",
        "numberOfBytes": "32",
        "value": "t_address"
      },
      "t_mapping(t_uint16,t_uint16)": {
        "encoding": "mapping",
        "key": "t_uint16",
        "label": "mapping(uint16 => uint16)",
        "numberOfBytes": "32",
        "value": "t_uint16"
      },
      "t_mapping(t_uint256,t_struct(ChainDreamer)4801_storage)": {
        "encoding": "mapping",
        "key": "t_uint256",
        "label": "mapping(uint256 => struct ChainDreamersTypes.ChainDreamer)",
        "numberOfBytes": "32",
        "value": "t_struct(ChainDreamer)4801_storage"
      },
      "t_string_storage": {
        "encoding": "bytes",
        "label": "string",
        "numberOfBytes": "32"
      },
      "t_struct(ChainDreamer)4801_storage": {
        "encoding": "inplace",
        "label": "struct ChainDreamersTypes.ChainDreamer",
        "members": [
          {
            "astId": 4800,
            "contract": "contracts/dreamers/ChainDreamers.sol:ChainDreamers",
            "label": "candy",
            "offset": 0,
            "slot": "0",
            "type": "t_uint8"
          }
        ],
        "numberOfBytes": "32"
      },
      "t_uint16": {
        "encoding": "inplace",
        "label": "uint16",
        "numberOfBytes": "2"
      },
      "t_uint256": {
        "encoding": "inplace",
        "label": "uint256",
        "numberOfBytes": "32"
      },
      "t_uint8": {
        "encoding": "inplace",
        "label": "uint8",
        "numberOfBytes": "1"
      }
    }
  }
}