{
  "address": "0xCA8c8688914e0F7096c920146cd0Ad85cD7Ae8b9",
  "abi": [
    {
      "anonymous": false,
      "inputs": [
        {
          "indexed": true,
          "internalType": "address",
          "name": "previousOwner",
          "type": "address"
        },
        {
          "indexed": true,
          "internalType": "address",
          "name": "newOwner",
          "type": "address"
        }
      ],
      "name": "OwnershipTransferred",
      "type": "event"
    },
    {
      "inputs": [],
      "name": "NUM_COLORS",
      "outputs": [
        {
          "internalType": "uint256",
          "name": "",
          "type": "uint256"
        }
      ],
      "stateMutability": "view",
      "type": "function"
    },
    {
      "inputs": [],
      "name": "NUM_LAYERS",
      "outputs": [
        {
          "internalType": "uint256",
          "name": "",
          "type": "uint256"
        }
      ],
      "stateMutability": "view",
      "type": "function"
    },
    {
      "inputs": [
        {
          "internalType": "bytes1",
          "name": "b",
          "type": "bytes1"
        }
      ],
      "name": "byteToHexString",
      "outputs": [
        {
          "internalType": "string",
          "name": "",
          "type": "string"
        }
      ],
      "stateMutability": "pure",
      "type": "function"
    },
    {
      "inputs": [
        {
          "internalType": "bytes1",
          "name": "b",
          "type": "bytes1"
        }
      ],
      "name": "byteToUint",
      "outputs": [
        {
          "internalType": "uint256",
          "name": "",
          "type": "uint256"
        }
      ],
      "stateMutability": "pure",
      "type": "function"
    },
    {
      "inputs": [
        {
          "internalType": "uint8",
          "name": "layerIndex",
          "type": "uint8"
        },
        {
          "internalType": "uint8",
          "name": "itemIndex",
          "type": "uint8"
        }
      ],
      "name": "getLayer",
      "outputs": [
        {
          "components": [
            {
              "internalType": "string",
              "name": "name",
              "type": "string"
            },
            {
              "internalType": "bytes",
              "name": "hexString",
              "type": "bytes"
            }
          ],
          "internalType": "struct ChainRunnersBaseRenderer.Layer",
          "name": "",
          "type": "tuple"
        }
      ],
      "stateMutability": "view",
      "type": "function"
    },
    {
      "inputs": [
        {
          "internalType": "uint16",
          "name": "_dna",
          "type": "uint16"
        },
        {
          "internalType": "uint8",
          "name": "_index",
          "type": "uint8"
        },
        {
          "internalType": "uint16",
          "name": "_raceIndex",
          "type": "uint16"
        }
      ],
      "name": "getLayerIndex",
      "outputs": [
        {
          "internalType": "uint8",
          "name": "",
          "type": "uint8"
        }
      ],
      "stateMutability": "view",
      "type": "function"
    },
    {
      "inputs": [
        {
          "internalType": "uint16",
          "name": "_dna",
          "type": "uint16"
        }
      ],
      "name": "getRaceIndex",
      "outputs": [
        {
          "internalType": "uint8",
          "name": "",
          "type": "uint8"
        }
      ],
      "stateMutability": "view",
      "type": "function"
    },
    {
      "inputs": [
        {
          "internalType": "uint256",
          "name": "_dna",
          "type": "uint256"
        }
      ],
      "name": "getTokenData",
      "outputs": [
        {
          "components": [
            {
              "internalType": "string",
              "name": "name",
              "type": "string"
            },
            {
              "internalType": "bytes",
              "name": "hexString",
              "type": "bytes"
            }
          ],
          "internalType": "struct ChainRunnersBaseRenderer.Layer[13]",
          "name": "tokenLayers",
          "type": "tuple[13]"
        },
        {
          "components": [
            {
              "internalType": "string",
              "name": "hexString",
              "type": "string"
            },
            {
              "internalType": "uint256",
              "name": "alpha",
              "type": "uint256"
            },
            {
              "internalType": "uint256",
              "name": "red",
              "type": "uint256"
            },
            {
              "internalType": "uint256",
              "name": "green",
              "type": "uint256"
            },
            {
              "internalType": "uint256",
              "name": "blue",
              "type": "uint256"
            }
          ],
          "internalType": "struct ChainRunnersBaseRenderer.Color[8][13]",
          "name": "tokenPalettes",
          "type": "tuple[8][13]"
        },
        {
          "internalType": "uint8",
          "name": "numTokenLayers",
          "type": "uint8"
        },
        {
          "internalType": "string[13]",
          "name": "traitTypes",
          "type": "string[13]"
        }
      ],
      "stateMutability": "view",
      "type": "function"
    },
    {
      "inputs": [],
      "name": "owner",
      "outputs": [
        {
          "internalType": "address",
          "name": "",
          "type": "address"
        }
      ],
      "stateMutability": "view",
      "type": "function"
    },
    {
      "inputs": [],
      "name": "renounceOwnership",
      "outputs": [],
      "stateMutability": "nonpayable",
      "type": "function"
    },
    {
      "inputs": [
        {
          "components": [
            {
              "internalType": "string",
              "name": "name",
              "type": "string"
            },
            {
              "internalType": "bytes",
              "name": "hexString",
              "type": "bytes"
            },
            {
              "internalType": "uint8",
              "name": "layerIndex",
              "type": "uint8"
            },
            {
              "internalType": "uint8",
              "name": "itemIndex",
              "type": "uint8"
            }
          ],
          "internalType": "struct ChainRunnersBaseRenderer.LayerInput[]",
          "name": "toSet",
          "type": "tuple[]"
        }
      ],
      "name": "setLayers",
      "outputs": [],
      "stateMutability": "nonpayable",
      "type": "function"
    },
    {
      "inputs": [
        {
          "internalType": "uint256",
          "name": "_dna",
          "type": "uint256"
        }
      ],
      "name": "tokenSVG",
      "outputs": [
        {
          "internalType": "string",
          "name": "",
          "type": "string"
        }
      ],
      "stateMutability": "view",
      "type": "function"
    },
    {
      "inputs": [
        {
          "components": [
            {
              "internalType": "string",
              "name": "name",
              "type": "string"
            },
            {
              "internalType": "bytes",
              "name": "hexString",
              "type": "bytes"
            }
          ],
          "internalType": "struct ChainRunnersBaseRenderer.Layer[13]",
          "name": "tokenLayers",
          "type": "tuple[13]"
        },
        {
          "components": [
            {
              "internalType": "string",
              "name": "hexString",
              "type": "string"
            },
            {
              "internalType": "uint256",
              "name": "alpha",
              "type": "uint256"
            },
            {
              "internalType": "uint256",
              "name": "red",
              "type": "uint256"
            },
            {
              "internalType": "uint256",
              "name": "green",
              "type": "uint256"
            },
            {
              "internalType": "uint256",
              "name": "blue",
              "type": "uint256"
            }
          ],
          "internalType": "struct ChainRunnersBaseRenderer.Color[8][13]",
          "name": "tokenPalettes",
          "type": "tuple[8][13]"
        },
        {
          "internalType": "uint8",
          "name": "numTokenLayers",
          "type": "uint8"
        }
      ],
      "name": "tokenSVGBuffer",
      "outputs": [
        {
          "internalType": "string[4]",
          "name": "",
          "type": "string[4]"
        }
      ],
      "stateMutability": "pure",
      "type": "function"
    },
    {
      "inputs": [
        {
          "internalType": "uint256",
          "name": "tokenId",
          "type": "uint256"
        },
        {
          "components": [
            {
              "internalType": "uint256",
              "name": "dna",
              "type": "uint256"
            }
          ],
          "internalType": "struct ChainRunnersTypes.ChainRunner",
          "name": "runnerData",
          "type": "tuple"
        }
      ],
      "name": "tokenURI",
      "outputs": [
        {
          "internalType": "string",
          "name": "",
          "type": "string"
        }
      ],
      "stateMutability": "view",
      "type": "function"
    },
    {
      "inputs": [
        {
          "internalType": "uint8",
          "name": "layerIndex",
          "type": "uint8"
        },
        {
          "internalType": "uint8",
          "name": "itemIndex",
          "type": "uint8"
        }
      ],
      "name": "traitSVG",
      "outputs": [
        {
          "internalType": "string",
          "name": "",
          "type": "string"
        }
      ],
      "stateMutability": "view",
      "type": "function"
    },
    {
      "inputs": [
        {
          "internalType": "address",
          "name": "newOwner",
          "type": "address"
        }
      ],
      "name": "transferOwnership",
      "outputs": [],
      "stateMutability": "nonpayable",
      "type": "function"
    },
    {
      "inputs": [
        {
          "internalType": "uint8",
          "name": "d",
          "type": "uint8"
        }
      ],
      "name": "uintToHexDigit",
      "outputs": [
        {
          "internalType": "bytes1",
          "name": "",
          "type": "bytes1"
        }
      ],
      "stateMutability": "pure",
      "type": "function"
    },
    {
      "inputs": [
        {
          "internalType": "uint256",
          "name": "a",
          "type": "uint256"
        }
      ],
      "name": "uintToHexString2",
      "outputs": [
        {
          "internalType": "string",
          "name": "",
          "type": "string"
        }
      ],
      "stateMutability": "pure",
      "type": "function"
    },
    {
      "inputs": [
        {
          "internalType": "uint256",
          "name": "a",
          "type": "uint256"
        }
      ],
      "name": "uintToHexString6",
      "outputs": [
        {
          "internalType": "string",
          "name": "",
          "type": "string"
        }
      ],
      "stateMutability": "pure",
      "type": "function"
    }
  ],
  "transactionHash": "0x973df9f0a636ff3c558967f753458a530e1e41470cc918a6ae95d4ebc2dbdd6b",
  "args": [],
  "numDeployments": 1,
  "solcInputHash": "3ebd0f676f0cc544ed44158549654fd8",
  "bytecode": "0x60806040523480156200001157600080fd5b506200001d3362002413565b600180556040805161058081018252602480825260e1602083018190529282018390526060820183905261016860808301819052608760a0840152601b60c0840181905260e0840182905261013b610100850181905261012085018190526101408501819052610160850152610180840185905260b46101a085018190526101c085018690526101e0850181905261020085018390526102208501819052602d6102408601819052610260860184905261028086018490526102a086018490526102c08601929092526102e0850193909352610300840182905261032084018190526103408401839052610360840182905261038084018590526103a084018290526103c084018590526103e084018590526104008401829052610420840183905261044084015261046083015260126104808301526104a082018390526104c082018390526104e0820183905261050082018390526105208201526105408101919091526101696105608201526200019b90600f90602c62002463565b50604080516101e08101825261036b81526104f5602082015261030b918101829052606081018290526080810182905260a0810182905260c0810182905260e08101829052610100810182905261012081018290526101408101829052610160810191909152601161018082015260086101a082015260296101c08201526200022990601090600f62002463565b50604080516104208101825261012f8082526020820181905291810182905260608101829052609760808201819052601e60a08301819052600060c0840181905260e0840152610100830182905261012083018290526101408301829052610160830182905261018083018190526101a083018490526101c083018290526101e08301819052610200830184905261022083018490526102408301849052610260830184905261028083018490526102a083018490526102c08301526102e0820152610300810182905261032081018290526103408101829052610360810182905261038081018290526103a081018290526103c081018290526103e0810191909152610bfa6104008201526200034590601190602162002463565b50604080516101c0810182526102858082526000602083015261050a92820192909252610142606082018190526080820183905260a0820183905260c082018390526103c760e08301819052610100830191909152610120820181905261014082019290925261016081018290526101808101919091526103cd6101a0820152620003d590601290600e62002463565b506040805161016081018252600080825260208201819052918101919091526104e2606082018190526080820181905260a0820181905260c0820181905260e08201819052610100820181905261012082018190526101408201526200044090601390600b62002463565b506040805161094081018252607980825260208201819052918101829052606081018290526080810182905260a0810182905260f360c08201819052600060e08301819052610100830181905261012083018190526101408301819052610160830184905261018083018490526101a083018290526101c083018490526101e08301849052610200830182905261022083018490526102408301849052610260830184905261028083018490526102a083018490526102c083018290526102e08301849052610300830184905261032083018490526103408301849052610360830182905261038083018490526103a083018490526103c083018490526103e08301849052610400830182905261042083018490526104408301849052610460830184905261048083018290526104a083018490526104c083018490526104e08301849052610500830184905261052083018290526105408301849052610560830184905261058083018490526105a083018490526105c083018290526105e08301849052610600830184905261062083018490526106408301849052610660830182905261068083018490526106a083018490526106c083018490526106e08301849052610700830182905261072083018490526107408301849052610760830184905261078083018490526107a083018290526107c083018490526107e0830184905261080083018290526108208301819052610840830181905261086083015261088082018390526108a082018390526108c08201526108e08101829052610900810191909152610132610920820152620006a390601490604a62002463565b50604080516101608101825261039d80825261022b6020830181905260b993830184905260608301526080820181905260a082015260c081019190915261051060e0820181905261010082018190526101208201526107416101408201526200071190601590600b62002463565b50604080516101008101825260588082526020820181905291810182905260608101829052608081019190915261010960a08201526101ba60c082015261229560e08201526200076690601690600862002463565b50604080516101008101825260bd8082526020820152602f918101919091526012606082015260096080820152601c60a0820152602560c082015261250b60e0820152620007b990601790600862002463565b50604080516104a08101825261015480825260208201819052918101829052606081018290526080810182905260a08101829052602260c0820181905260e0820183905261010082018390526101208201839052610140820183905260aa610160830181905261018083018190526101a0830181905260666101c084015260ee6101e08401819052610200840181905261022084018190526101106102408501819052610260850186905261028085018690526102a085018690526102c08501526102e08401819052610300840181905261032084018190526103408401526103608301526103808201526103a081018290526103c0810182905260886103e0820152610400810182905261042081018290526104408101829052610460810191909152610158610480820152620008f690601890602562002463565b506040805161042081018252609f80825260d460208301819052606a938301849052603560608401819052601a608085015260a0840183905260c0840181905261010960e08501819052610100850182905261012085018390526101408501849052610160850181905261018085018290526101a085018190526101c085018190526101e085018390526102008501829052610220850184905260ef6102408601526102608501829052610280850186905260056102a08601526102c085018690526102e08501919091526103008401829052610320840182905261034084019490945261036083019190915261038082018190526103a082018390526103c08201526103e08101919091526113ca61040082015262000a1b90601990602162002463565b506040805161062081018252608b8082526101166020830181905292820183905260fa60608301819052608083015260c260a0830181905260de60c0840181905260e08401859052610100840185905261012084018290526101408401819052605361016085018190526101808501919091526101a084018590526101c084018390526101e08401839052601b610200850181905261022085018690526102408501869052610260850186905261028085018690526102a085018190526102c085018690526102e08501849052610300850186905261032085018690526103408501869052610360850186905261038085018690526103a085018690526103c085018690526103e08501869052610400850186905261042085018690526104408501869052610460850181905261048085018490526104a085018490526104c085018490526104e085019390935260006105008501526105208401859052610540840191909152610560830181905261058083018190526105a08301939093526105c08201929092526105e081019190915261013261060082015262000bc690601a90603162002463565b5060408051610120810182526103d5808252610b81602083015261028e92820183905260106060830152608082015261014760a082015260c081019190915260a360e0820152610ccf61010082015262000c2590601b90600962002463565b506040805161058081018252602480825260e1602083018190529282018390526060820183905261016860808301819052608760a0840152601b60c0840181905260e0840182905261013b610100850181905261012085018190526101408501819052610160850152610180840185905260b46101a085018190526101c085018690526101e0850181905261020085018390526102208501819052602d6102408601819052610260860184905261028086018490526102a086018490526102c08601929092526102e0850193909352610300840182905261032084018190526103408401839052610360840182905261038084018590526103a084018290526103c084018590526103e084018590526104008401829052610420840183905261044084015261046083015260126104808301526104a082018390526104c082018390526104e08201839052610500820183905261052082015261054081019190915261016961056082015262000da090601c90602c62002463565b50604080516101e08101825261036b81526104f5602082015261030b918101829052606081018290526080810182905260a0810182905260c0810182905260e08101829052610100810182905261012081018290526101408101829052610160810191909152601161018082015260086101a082015260296101c082015262000e2e90601d90600f62002463565b506040805161042081018252600080825260208201819052918101829052606081018290526080810182905260a0810182905260c0810182905260e08101829052610100810182905261012081018290526101408101829052610160810182905261018081018290526101a081018290526101c081018290526101e08101829052610200810182905261022081018290526102408101829052610260810182905261028081018290526102a081018290526102c081018290526102e08101829052610300810182905261032081018290526103408101829052610360810182905261038081018290526103a081018290526103c081018290526103e081019190915261271061040082015262000f4990601e90602162002463565b50604080516101c081018252600080825260208201819052918101829052606081018290526080810182905260a0810182905260c0810182905260e08101829052610100810182905261012081018290526101408101829052610160810182905261018081018290526101a081019190915262000fcb90601f90600e62002513565b50604080516101608101825260008082526020808301829052928201819052606082018190526080820181905260a0820181905260c0820181905260e0820181905261010082018190526101208201819052610140820152620010319190600b62002513565b506040805161094081018252600080825260208201819052918101829052606081018290526080810182905260a0810182905260c0810182905260e0810182905261010081018290526101208101829052610140810182905261016081018290526101808082018390526101a082018390526101c082018390526101e08201839052610200820183905261022082018390526102408201839052610260820183905261028082018390526102a082018390526102c082018390526102e08201839052610300820183905261032082018390526103408201839052610360820183905261038082018390526103a082018390526103c082018390526103e08201839052610400820183905261042082018390526104408201839052610460820183905261048082018390526104a082018390526104c082018390526104e08201839052610500820183905261052082018390526105408201839052610560820183905261058082018390526105a082018390526105c082018390526105e08201839052610600820183905261062082018390526106408201839052610660820183905261068082018390526106a082018390526106c082018390526106e08201839052610700820183905261072082018390526107408201839052610760820183905261078082018390526107a082018390526107c082018390526107e082018390526108008201839052610820820152611e0c61084082015261078361086082015261088081018290526108a081018290526108c081018290526108e0810182905261090081019190915260016109208201526200129490602190604a62002463565b506040805161016081018252600080825260208201819052918101829052606081018290526080810182905260a0810182905260c0810182905260e081018290526101008101829052610120810191909152612710610140820152620012ff90602290600b62002463565b506040805161010081018252600080825260208201819052918101829052606081018290526080810182905261038d60a082015260c081019190915261238360e08201526200135390602390600862002463565b506040805161010081018252600080825260208201819052918101829052606081018290526080810182905260a0810182905260c081019190915261271060e0820152620013a690602490600862002463565b50604080516104a08101825261020e808252602082018190529181018290526000606082018190526080820181905260a0820181905260c0820181905260e08201819052610100820183905261012082018190526101408201819052610160820181905261018082018390526101a082018190526101c082018390526101e08201819052610200820181905261022082018190526102408201839052610260820183905261028082018390526102a082018390526102c082018390526102e08201839052610300820183905261032082018390526103408201839052610360820183905261038082018390526103a082018190526103c082018190526103e0820192909252610400810182905261042081018290526104408101829052610460810191909152610214610480820152620014e4906025908162002463565b50604080516104208101825260508082526000602083018190526101909383019390935260f0606083018190526080830182905260a0830184905260c083015260e08201839052610100820183905261012082018190526101408201819052610160820181905261018082018390526101a082018390526101c082018390526101e08201839052610200820181905261022082018190526102408201839052610260820183905261028082018190526102a082018190526102c082018390526102e0820181905261030082018190526103208201819052610340820181905261036082015261038081018290526103a081018290526103c081018290526103e0810191909152611f406104008201526200160390602690602162002463565b506040805161062081018252610121808252600060208301819052928201839052606082018390526080820183905261019460a08301526101ce60c0830181905261024260e0840181905261010084018190526101208401859052610140840182905260ad6101608501526101808401919091526101a083018190526101c083018490526101e083018490526039610200840181905261022084018590526102408401819052610260840185905261028084018190526102a084018190526102c084018290526102e08401839052610300840182905261032084018190526103408401859052610360840181905261038084018190526103a084018190526103c084018290526103e08401829052610400840185905261042084018590526104408401859052610460840185905261048084018590526104a084018590526104c084018190526104e084019290925261050083015261052082018390526105408201839052610560820183905260e76105808301526105a08201526105c081018290526105e08101919091526106d1610600820152620017a890602790603162002463565b5060408051610120810182526102ca80825260208201819052918101829052600060608201819052608082019290925260a0810182905260c0810182905260e0810191909152611be86101008201526200180790602890600962002463565b506040805161058081018252602480825260e1602083018190529282018390526060820183905261016860808301819052608760a0840152601b60c0840181905260e0840182905261013b610100850181905261012085018190526101408501819052610160850152610180840185905260b46101a085018190526101c085018690526101e0850181905261020085018390526102208501819052602d6102408601819052610260860184905261028086018490526102a086018490526102c08601929092526102e0850193909352610300840182905261032084018190526103408401839052610360840182905261038084018590526103a084018290526103c084018590526103e084018590526104008401829052610420840183905261044084015261046083015260126104808301526104a082018390526104c082018390526104e0820183905261050082018390526105208201526105408101919091526101696105608201526200198290602990602c62002463565b50604080516101e08101825261036b81526104f5602082015261030b918101829052606081018290526080810182905260a0810182905260c0810182905260e08101829052610100810182905261012081018290526101408101829052610160810191909152601161018082015260086101a082015260296101c082015262001a1090602a90600f62002463565b50604080516104208101825261012f8082526020820181905291810182905260608101829052609760808201819052601e60a08301819052600060c0840181905260e0840152610100830182905261012083018290526101408301829052610160830182905261018083018190526101a083018490526101c083018290526101e08301819052610200830184905261022083018490526102408301849052610260830184905261028083018490526102a083018490526102c08301526102e0820152610300810182905261032081018290526103408101829052610360810182905261038081018290526103a081018290526103c081018290526103e0810191909152610bfa61040082015262001b2c90602b90602162002463565b50604080516101c0810182526102858082526000602083015261050a92820192909252610142606082018190526080820183905260a0820183905260c082018390526103c760e08301819052610100830191909152610120820181905261014082019290925261016081018290526101808101919091526103cd6101a082015262001bbc90602c90600e62002463565b5060408051610160810182526109c4808252602082018190529181018290526000606082018190526080820181905260a0820181905260c0820181905260e08201819052610100820181905261012082019290925261014081019190915262001c2a90602d90600b62002463565b506040805161094081018252600080825260208201819052918101829052606081018290526080810182905260a0810182905261024c60c0820181905260e08201819052610100820181905261012082018190526101408201819052610160820183905261018082018390526101a082018190526101c082018390526101e08201839052610200820181905261022082018390526102408201839052610260820183905261028082018390526102a082018390526102c082018190526102e08201839052610300820183905261032082018390526103408201839052610360820181905261038082018390526103a082018390526103c082018390526103e08201819052610400820181905261042082018390526104408201839052610460820183905261048082018190526104a082018390526104c082018390526104e08201839052610500820183905261052082018190526105408201839052610560820183905261058082018390526105a082018390526105c082018390526105e08201839052610600820183905261062082018390526106408201839052610660820181905261068082018390526106a082018390526106c082018390526106e08201839052610700820181905261072082018390526107408201839052610760820183905261078082018390526107a082018190526107c082018390526107e08201839052610800820183905261082082018390526108408201839052610860820183905261088082018390526108a082018390526108c08201526108e08101829052610900810191909152600461092082015262001e8d90602e90604a62002463565b50604080516101608101825261039d80825261022b6020830181905260b993830184905260608301526080820181905260a082015260c081019190915261051060e08201819052610100820181905261012082015261074161014082015262001efb90602f90600b62002463565b50604080516101008101825260588082526020820181905291810182905260608101829052608081019190915261010960a08201526101ba60c082015261229560e082015262001f5090603090600862002463565b50604080516101008101825260b7815261011260208201819052918101919091526012606082018190526080820152601b60a0820152602460c08201526123d260e082015262001fa590603190600862002463565b50604080516104a08101825261015480825260208201819052918101829052606081018290526080810182905260a08101829052602260c0820181905260e0820183905261010082018390526101208201839052610140820183905260aa610160830181905261018083018190526101a0830181905260666101c084015260ee6101e08401819052610200840181905261022084018190526101106102408501819052610260850186905261028085018690526102a085018690526102c08501526102e08401819052610300840181905261032084018190526103408401526103608301526103808201526103a081018290526103c0810182905260886103e0820152610400810182905261042081018290526104408101829052610460810191909152610158610480820152620020e290603290602562002463565b50604080516104208101825260d980825261016a6020830181905292820181905260906060830181905260486080840181905261012160a0850181905260c0850183905260e08501869052610100850182905261012085018190526101408501849052610160850186905261018085018290526101a085018690526101c085018690526101e08501819052600061020086018190526102208601859052610240860152610260850182905261028085019290925260076102a08501526102c084018390526102e084015261030083018290526103208301829052610340830181905261036083018290526103808301526103a082018390526103c08201526103e0810191909152610cc56104008201526200220290603390602162002463565b506040805161062081018252608b8082526101166020830181905292820183905260fa60608301819052608083015260c260a0830181905260de60c0840181905260e08401859052610100840185905261012084018290526101408401819052605361016085018190526101808501919091526101a084018590526101c084018390526101e08401839052601b610200850181905261022085018690526102408501869052610260850186905261028085018690526102a085018190526102c085018690526102e08501849052610300850186905261032085018690526103408501869052610360850186905261038085018690526103a085018690526103c085018690526103e08501869052610400850186905261042085018690526104408501869052610460850181905261048085018490526104a085018490526104c085018490526104e085019390935260006105008501526105208401859052610540840191909152610560830181905261058083018190526105a08301939093526105c08201929092526105e0810191909152610132610600820152620023ad90603490603162002463565b5060408051610120810182526103d5808252610b81602083015261028e92820183905260106060830152608082015261014760a082015260c081019190915260a360e0820152610ccf6101008201526200240c90603590600962002463565b5062002595565b600080546001600160a01b038381166001600160a01b0319831681178455604051919092169283917f8be0079c531659141344cd1fd0a4f28419497f9722a3daafe3b4186f6b6457e09190a35050565b82805482825590600052602060002090600f01601090048101928215620025015791602002820160005b83821115620024cf57835183826101000a81548161ffff021916908361ffff16021790555092602001926002016020816001010492830192600103026200248d565b8015620024ff5782816101000a81549061ffff0219169055600201602081600101049283019260010302620024cf565b505b506200250f9291506200257e565b5090565b82805482825590600052602060002090600f01601090048101928215620025015791602002820160005b83821115620024cf57835183826101000a81548161ffff021916908360ff16021790555092602001926002016020816001010492830192600103026200253d565b5b808211156200250f57600081556001016200257f565b61491480620025a56000396000f3fe608060405234801561001057600080fd5b50600436106101515760003560e01c80639bac5f7a116100cd578063da8343c911610081578063f2fde38b11610066578063f2fde38b146102e2578063fca228ce146102f5578063ffbcaa511461030857600080fd5b8063da8343c9146102bb578063e9703701146102ce57600080fd5b8063b09afec1116100b2578063b09afec114610265578063d129beee14610288578063d68cf31f146102a857600080fd5b80639bac5f7a1461023f578063a62f8deb1461025257600080fd5b8063715018a6116101245780637e8e0657116101095780637e8e0657146101f15780637f436b5c146101f95780638da5cb5b1461021957600080fd5b8063715018a6146101d25780637249db4d146101dc57600080fd5b8063027c00a0146101565780633ef21a5e1461017f5780634489fb2a146101925780637148ede1146101b2575b600080fd5b610169610164366004613090565b61031b565b604051610176919061312f565b60405180910390f35b61016961018d366004613173565b6103a5565b6101a56101a0366004613090565b6103b4565b60405161017691906131ce565b6101c56101c03660046135c2565b61052a565b60405161017691906136a2565b6101da6111f9565b005b6101e4600881565b60405161017691906136bb565b6101e4600d81565b61020c6102073660046136de565b611245565b6040516101769190613708565b60005473ffffffffffffffffffffffffffffffffffffffff16604051610176919061373d565b61016961024d36600461374b565b611320565b610169610260366004613799565b611384565b61027861027336600461374b565b61150c565b604051610176949392919061394e565b61029b610296366004613994565b611bf1565b60405161017691906139dd565b6101696102b636600461374b565b611c46565b6101da6102c9366004613a3d565b611cd8565b6101e46102dc366004613173565b60f81c90565b6101da6102f0366004613a99565b611ee9565b61020c610303366004613aba565b611f5f565b61016961031636600461374b565b61209c565b6060610325612ea0565b61032d612eda565b600061033986866103b4565b80845290506103538360005b60200201516020015161220f565b825260006103638484600161052a565b805160208083015160408085015160608601519151959650610389959293909201613c20565b6040516020818303038152906040529450505050505b92915050565b606061039f6103168360f81c90565b604080518082019091526060808252602082015260028360ff16600d81106103de576103de613b00565b0160008360ff16815260200190815260200160002060405180604001604052908160008201805461040e90613ce9565b80601f016020809104026020016040519081016040528092919081815260200182805461043a90613ce9565b80156104875780601f1061045c57610100808354040283529160200191610487565b820191906000526020600020905b81548152906001019060200180831161046a57829003601f168201915b505050505081526020016001820180546104a090613ce9565b80601f01602080910402602001604051908101604052809291908181526020018280546104cc90613ce9565b80156105195780601f106104ee57610100808354040283529160200191610519565b820191906000526020600020905b8154815290600101906020018083116104fc57829003601f168201915b505050505081525050905092915050565b610532612f08565b6040805161044081018252600461040082018181527f4d444177000000000000000000000000000000000000000000000000000000006104208401528252825180840184528181527f4d4445770000000000000000000000000000000000000000000000000000000060208281019190915280840191909152835180850185528281527f4d444977000000000000000000000000000000000000000000000000000000008183015283850152835180850185528281527f4d444d770000000000000000000000000000000000000000000000000000000081830152606080850191909152845180860186528381527f4d4451770000000000000000000000000000000000000000000000000000000081840152608080860191909152855180870187528481527f4d445577000000000000000000000000000000000000000000000000000000008185015260a080870191909152865180880188528581527f4d445977000000000000000000000000000000000000000000000000000000008186015260c080880191909152875180890189528681527f4d446377000000000000000000000000000000000000000000000000000000008187015260e0880152875180890189528681527f4d4467770000000000000000000000000000000000000000000000000000000081870152610100880152875180890189528681527f4d446b770000000000000000000000000000000000000000000000000000000081870152610120880152875180890189528681527f4d5441770000000000000000000000000000000000000000000000000000000081870152610140880152875180890189528681527f4d5445770000000000000000000000000000000000000000000000000000000081870152610160880152875180890189528681527f4d5449770000000000000000000000000000000000000000000000000000000081870152610180880152875180890189528681527f4d544d7700000000000000000000000000000000000000000000000000000000818701526101a0880152875180890189528681527f4d54517700000000000000000000000000000000000000000000000000000000818701526101c0880152875180890189528681527f4d54557700000000000000000000000000000000000000000000000000000000818701526101e0880152875180890189528681527f4d5459770000000000000000000000000000000000000000000000000000000081870152610200880152875180890189528681527f4d5463770000000000000000000000000000000000000000000000000000000081870152610220880152875180890189528681527f4d5467770000000000000000000000000000000000000000000000000000000081870152610240880152875180890189528681527f4d546b770000000000000000000000000000000000000000000000000000000081870152610260880152875180890189528681527f4d6a41770000000000000000000000000000000000000000000000000000000081870152610280880152875180890189528681527f4d6a457700000000000000000000000000000000000000000000000000000000818701526102a0880152875180890189528681527f4d6a497700000000000000000000000000000000000000000000000000000000818701526102c0880152875180890189528681527f4d6a4d7700000000000000000000000000000000000000000000000000000000818701526102e0880152875180890189528681527f4d6a51770000000000000000000000000000000000000000000000000000000081870152610300880152875180890189528681527f4d6a55770000000000000000000000000000000000000000000000000000000081870152610320880152875180890189528681527f4d6a59770000000000000000000000000000000000000000000000000000000081870152610340880152875180890189528681527f4d6a63770000000000000000000000000000000000000000000000000000000081870152610360880152875180890189528681527f4d6a67770000000000000000000000000000000000000000000000000000000081870152610380880152875180890189528681527f4d6a6b7700000000000000000000000000000000000000000000000000000000818701526103a0880152875180890189528681527f4d7a417700000000000000000000000000000000000000000000000000000000818701526103c0880152875180890189529586527f4d7a457700000000000000000000000000000000000000000000000000000000868601526103e08701959095528651948501875260008086529385019390935294830181905282810181905293820184905281019290925290610c6160405180610100016040528060608152602001606081526020016060815260200160608152602001606081526020016060815260200160608152602001606081525090565b610c69612f2f565b610c71612f08565b60008060205b6101a08110156111e757610c928c8260008e8e60ff1661240b565b6040880152610ca88c8260018e60ff8f1661240b565b6060880152610cbe8c8260028e60ff8f1661240b565b6080880152610cd48c8260038e60ff8f1661240b565b60a0880152610ce388886125f1565b865286516004908890610cf7908390613d26565b60ff908116909152610d1491508d9083906004908f908f1661240b565b6040880152610d2a8c8260058e60ff8f1661240b565b6060880152610d408c8260068e60ff8f1661240b565b6080880152610d568c8260078e60ff8f1661240b565b60a0880152610d6588886125f1565b602087015286516004908890610d7c908390613d26565b60ff16905250610d8d600382613d4c565b9050610da08c8260008e8e60ff1661240b565b6040880152610db68c8260018e60ff8f1661240b565b6060880152610dcc8c8260028e60ff8f1661240b565b6080880152610de28c8260038e60ff8f1661240b565b60a0880152610df188886125f1565b604087015286516004908890610e08908390613d26565b60ff908116909152610e2591508d9083906004908f908f1661240b565b6040880152610e3b8c8260058e60ff8f1661240b565b6060880152610e518c8260068e60ff8f1661240b565b6080880152610e678c8260078e60ff8f1661240b565b60a0880152610e7688886125f1565b606087015286516004908890610e8d908390613d26565b60ff16905250610e9e600382613d4c565b9050610eb18c8260008e8e60ff1661240b565b6040880152610ec78c8260018e60ff8f1661240b565b6060880152610edd8c8260028e60ff8f1661240b565b6080880152610ef38c8260038e60ff8f1661240b565b60a0880152610f0288886125f1565b608087015286516004908890610f19908390613d26565b60ff908116909152610f3691508d9083906004908f908f1661240b565b6040880152610f4c8c8260058e60ff8f1661240b565b6060880152610f628c8260068e60ff8f1661240b565b6080880152610f788c8260078e60ff8f1661240b565b60a0880152610f8788886125f1565b60a087015286516004908890610f9e908390613d26565b60ff16905250610faf600382613d4c565b9050610fc28c8260008e8e60ff1661240b565b6040880152610fd88c8260018e60ff8f1661240b565b6060880152610fee8c8260028e60ff8f1661240b565b60808801526110048c8260038e60ff8f1661240b565b60a088015261101388886125f1565b60c08701528651600490889061102a908390613d26565b60ff90811690915261104791508d9083906004908f908f1661240b565b604088015261105d8c8260058e60ff8f1661240b565b60608801526110738c8260068e60ff8f1661240b565b60808801526110898c8260078e60ff8f1661240b565b60a088015261109888886125f1565b60e0870152865160049088906110af908390613d26565b60ff169052506110c0600382613d4c565b9050856000015186602001518760400151886060015189608001518a60a001518b60c001518c60e00151604051602001611101989796959493929190613d5f565b60405160208183030381529060405285848061111c90613dca565b955060ff166008811061113157611131613b00565b60209081029190910191909152600088528701805160019190611155908390613d26565b60ff90811690915260089085161090506111e257845160208087015160408089015160608a015160808b015160a08c015160c08d015160e08e015195516111a89998959694959394929391929101613d5f565b6040516020818303038152906040528483806111c390613dca565b945060ff16600481106111d8576111d8613b00565b6020020152600092505b610c77565b509196505050505050505b9392505050565b60005473ffffffffffffffffffffffffffffffffffffffff1633146112395760405162461bcd60e51b815260040161123090613e1a565b60405180910390fd5b6112436000612744565b565b6000806000805b60105460ff8216101561131a576010805460ff831690811061127057611270613b00565b90600052602060002090601091828204019190066002029054906101000a900461ffff1691508261ffff168561ffff16101580156112be57506112b38284613e2a565b61ffff168561ffff16105b156112fc578060ff16600114156112da57506002949350505050565b600b8160ff1611156112f157506001949350505050565b506000949350505050565b6113068284613e2a565b92508061131281613dca565b91505061124c565b50600080fd5b606060008060006113308561150c565b50925092509250600061134484848461052a565b80516020808301516040808501516060860151915195965061136a959293909201613f84565b604051602081830303815290604052945050505050919050565b6060600080600080611399866000015161150c565b9350935093509350606060005b8360ff168160ff16101561149f578182516000146113f9576040518060400160405280600481526020017f4c43423700000000000000000000000000000000000000000000000000000000815250611430565b6040518060400160405280600481526020017f65794167000000000000000000000000000000000000000000000000000000008152505b848360ff16600d811061144557611445613b00565b6020020151888460ff16600d811061145f5761145f613b00565b60200201516000015160405160200161147b949392919061401c565b6040516020818303038152906040529150808061149790613dca565b9150506113a6565b5060006114ad86868661052a565b80516020820151604083015160608401519394509192909190856114da6114d58f60066127b9565b6129c5565b6040516020016114ef96959493929190614086565b604051602081830303815290604052965050505050505092915050565b611514612ea0565b61151c612eda565b6000611526612f4a565b600061153186612b80565b905060006115458260016020020151611245565b60ff1690506000600f826003811061155f5761155f613b00565b600d020160070160078154811061157857611578613b00565b90600052602060002090601091828204019190066002029054906101000a900461ffff166127106115a99190614311565b61ffff16836007602002015161ffff161090506000600f8361ffff16600381106115d5576115d5613b00565b600d02016008016007815481106115ee576115ee613b00565b90600052602060002090601091828204019190066002029054906101000a900461ffff1661271061161f9190614311565b61ffff16846008602002015161ffff161090506000600f8461ffff166003811061164b5761164b613b00565b600d020160090160248154811061166457611664613b00565b90600052602060002090601091828204019190066002029054906101000a900461ffff166127106116959190614311565b61ffff16856009602002015161ffff161090506000600f8561ffff16600381106116c1576116c1613b00565b600d0201600b016030815481106116da576116da613b00565b90600052602060002090601091828204019190066002029054906101000a900461ffff1661271061170b9190614311565b61ffff1686600b602002015161ffff16109050600080600288826020020151611734919061434a565b61ffff1611905060005b600d8160ff161015611be2576000611774826101a08b8560ff16600d811061176857611768613b00565b6020020151858c611f5f565b60208101515190915015611bce578160ff166002148061179757508160ff16600c145b80156117a1575085155b80156117ab575086155b806117c257508160ff1660071480156117c2575085155b806117d957508160ff16600a1480156117d9575085155b8061182c575060028260ff161080611802575060028260ff16118015611802575060078260ff16105b8061181057508160ff166008145b8061181e57508160ff166009145b8061182c57508160ff16600b145b15611bce5784801561183b5750835b801561185257508160ff1660091480156118525750825b8061186957508160ff16600b148015611869575082155b156118745750611bd0565b808d8c60ff16600d811061188a5761188a613b00565b60200201526118a78d60ff8d16600d811061034557610345613b00565b8c8c60ff16600d81106118bc576118bc613b00565b60209081029190910191909152604080516101e08101825260106101a082018181527f516d466a61326479623356755a434167000000000000000000000000000000006101c084015282528251808401845260088082527f556d466a5a5341670000000000000000000000000000000000000000000000008287015283860191909152835180850185528181527f526d466a5a5341670000000000000000000000000000000000000000000000008187015283850152835180850185528181527f5457393164476767000000000000000000000000000000000000000000000000818701526060840152835180850185528181527f546d397a5a534167000000000000000000000000000000000000000000000000818701526080840152835180850185528181527f52586c6c637941670000000000000000000000000000000000000000000000008187015260a08401528351808501855260148082527f525746794945466a5932567a63323979655341670000000000000000000000008288015260c0850191909152845180860186528181527f526d466a5a53424259324e6c63334e76636e6b670000000000000000000000008188015260e0850152845180860186529182527f5457467a6179416700000000000000000000000000000000000000000000000082870152610100840191909152835180850185528281527f534756685a4342435a577876647941670000000000000000000000000000000081870152610120840152835180850185528181527f52586c6c4945466a5932567a633239796553416700000000000000000000000081870152610140840152835180850185529182527f534756685a434242596d39325a5341670000000000000000000000000000000082860152610160830191909152825180840190935282527f545739316447676751574e6a5a584e7a62334a350000000000000000000000009282019290925261018082015260ff8316600d8110611ba157611ba1613b00565b60200201518a8c60ff16600d8110611bbb57611bbb613b00565b60200201528a611bca81613dca565b9b50505b505b80611bda81613dca565b91505061173e565b50505050505050509193509193565b600060098260ff1611611c1257611c09826030613d26565b60f81b92915050565b8160ff16600a11158015611c2a5750600f8260ff1611155b1561015157600a611c3c836061613d26565b611c09919061436a565b60606000611c538361209c565b9050805160021415611c875780604051602001611c70919061439f565b604051602081830303815290604052915050919050565b805160031415611ca25780604051602001611c7091906143b4565b805160041415611cbd5780604051602001611c7091906143e0565b80516005141561039f5780604051602001611c70919061440c565b60005473ffffffffffffffffffffffffffffffffffffffff163314611d0f5760405162461bcd60e51b815260040161123090613e1a565b60005b61ffff8116821115611ee457604051806040016040528084848461ffff16818110611d3f57611d3f613b00565b9050602002810190611d519190614438565b611d5b908061447a565b8080601f016020809104026020016040519081016040528093929190818152602001838380828437600092019190915250505090825250602001848461ffff8516818110611dab57611dab613b00565b9050602002810190611dbd9190614438565b611dcb90602081019061447a565b8080601f01602080910402602001604051908101604052809392919081815260200183838082843760009201919091525050509152506002848461ffff8516818110611e1957611e19613b00565b9050602002810190611e2b9190614438565b611e3c906060810190604001613994565b60ff16600d8110611e4f57611e4f613b00565b01600085858561ffff16818110611e6857611e68613b00565b9050602002810190611e7a9190614438565b611e8b906080810190606001613994565b60ff168152602080820192909252604001600020825180519192611eb492849290910190612f65565b506020828101518051611ecd9260018501920190612f65565b509050508080611edc906144ed565b915050611d12565b505050565b60005473ffffffffffffffffffffffffffffffffffffffff163314611f205760405162461bcd60e51b815260040161123090613e1a565b73ffffffffffffffffffffffffffffffffffffffff8116611f535760405162461bcd60e51b815260040161123090614560565b611f5c81612744565b50565b6000806000805b600f8561ffff1660038110611f7d57611f7d613b00565b600d02018660ff16600d8110611f9557611f95613b00565b015460ff8216101561206057600f8561ffff1660038110611fb857611fb8613b00565b600d02018660ff16600d8110611fd057611fd0613b00565b018160ff1681548110611fe557611fe5613b00565b90600052602060002090601091828204019190066002029054906101000a900461ffff1691508261ffff168761ffff161015801561203357506120288284613e2a565b61ffff168761ffff16105b156120425792506111f2915050565b61204c8284613e2a565b92508061205881613dca565b915050611f66565b50600f8461ffff166003811061207857612078613b00565b600d02018560ff16600d811061209057612090613b00565b01549695505050505050565b60606000825b80156120c857816120b281614570565b92506120c19050601082614584565b90506120a2565b60008267ffffffffffffffff8111156120e3576120e36131df565b6040519080825280601f01601f19166020018201604052801561210d576020820181803683370190505b50905060005b838110156121a457612126601087614598565b925061213183611bf1565b82600161213e848861459e565b612148919061459e565b8151811061215857612158613b00565b60200101907effffffffffffffffffffffffffffffffffffffffffffffffffffffffffffff1916908160001a905350612192601087614584565b955061219d81614570565b9050612113565b50805181906121eb57505060408051808201909152600281527f30300000000000000000000000000000000000000000000000000000000000006020820152949350505050565b805160011415612206578060405160200161136a919061440c565b95945050505050565b612217612fe9565b61221f612fe9565b60005b60088161ffff161015612404576122db612281856122418460046145a4565b61ffff168151811061225557612255613b00565b01602001517fff00000000000000000000000000000000000000000000000000000000000000166103a5565b61229b866122908560046145a4565b612241906001613e2a565b6122b5876122aa8660046145a4565b612241906002613e2a565b6040516020016122c7939291906145d1565b6040516020818303038152906040526129c5565b828261ffff16600881106122f1576122f1613b00565b602002015152612325846123068360046145a4565b61ffff168151811061231a5761231a613b00565b016020015160f81c90565b828261ffff166008811061233b5761233b613b00565b60200201516040015261235e846123538360046145a4565b612306906001613e2a565b828261ffff166008811061237457612374613b00565b6020020151606001526123978461238c8360046145a4565b612306906002613e2a565b828261ffff16600881106123ad576123ad613b00565b6020020151608001526123d0846123c58360046145a4565b612306906003613e2a565b828261ffff16600881106123e6576123e6613b00565b602090810291909101510152806123fc816144ed565b915050612222565b5092915050565b606060005b828110156125a8576000848261242760018761459e565b612431919061459e565b600d811061244157612441613b00565b6020020151612480898461245660018961459e565b612460919061459e565b600d811061247057612470613b00565b6020020151602001518989612bdf565b60ff166008811061249357612493613b00565b602002015190508060200151600014156124ad5750612596565b806020015160ff14156124c4575191506122069050565b6000826124d260028761459e565b6124dc919061459e565b1061258c576000826124ef60028761459e565b6124f9919061459e565b90505b60008682600d811061251057612510613b00565b602002015161253a8b84600d811061252a5761252a613b00565b6020020151602001518b8b612bdf565b60ff166008811061254d5761254d613b00565b602002015190506000816020015111156125795761256e6114d58483612db3565b945050505050612206565b5080612584816145f3565b9150506124fc565b5191506122069050565b806125a081614570565b915050612410565b506125e76040518060400160405280600681526020017f66666666666600000000000000000000000000000000000000000000000000008152506129c5565b9695505050505050565b6060816040015183836000015160ff166020811061261157612611613b00565b602002015184846020015160ff166020811061262f5761262f613b00565b6020020151606085015185518790612648906001613d26565b60ff166020811061265b5761265b613b00565b602002015187876020015160ff166020811061267957612679613b00565b6020020151608088015188518a90612692906002613d26565b60ff16602081106126a5576126a5613b00565b60200201518a8a6020015160ff16602081106126c3576126c3613b00565b602002015160a08b01518b518d906126dc906003613d26565b60ff16602081106126ef576126ef613b00565b60200201518d8d6020015160ff166020811061270d5761270d613b00565b602002015160405160200161272d9c9b9a999897969594939291906146ac565b604051602081830303815290604052905092915050565b6000805473ffffffffffffffffffffffffffffffffffffffff8381167fffffffffffffffffffffffff0000000000000000000000000000000000000000831681178455604051919092169283917f8be0079c531659141344cd1fd0a4f28419497f9722a3daafe3b4186f6b6457e09190a35050565b60608260005b81156127e557806127cf81614570565b91506127de9050600a83614584565b91506127bf565b60008467ffffffffffffffff811115612800576128006131df565b6040519080825280601f01601f19166020018201604052801561282a576020820181803683370190505b5085935090508561289d577f30000000000000000000000000000000000000000000000000000000000000008160008151811061286957612869613b00565b60200101907effffffffffffffffffffffffffffffffffffffffffffffffffffffffffffff1916908160001a905350600191505b81831115612919576128b060018461459e565b92507f20000000000000000000000000000000000000000000000000000000000000008184815181106128e5576128e5613b00565b60200101907effffffffffffffffffffffffffffffffffffffffffffffffffffffffffffff1916908160001a90535061289d565b815b86156129bb5761292c60018261459e565b9050600061293b600a89614584565b61294690600a61482b565b612950908961459e565b61295b906030613d26565b905060008160f81b90508084848151811061297857612978613b00565b60200101907effffffffffffffffffffffffffffffffffffffffffffffffffffffffffffff1916908160001a9053506129b2600a8a614584565b9850505061291b565b5095945050505050565b8051606090806129e5575050604080516020810190915260008152919050565b600060036129f4836002613d4c565b6129fe9190614584565b612a0990600461482b565b90506000612a18826020613d4c565b67ffffffffffffffff811115612a3057612a306131df565b6040519080825280601f01601f191660200182016040528015612a5a576020820181803683370190505b509050600060405180606001604052806040815260200161489f604091399050600181016020830160005b86811015612ae6576003818a01810151603f601282901c8116860151600c83901c8216870151600684901c831688015192909316870151600891821b60ff94851601821b92841692909201901b91160160e01b835260049092019101612a85565b506003860660018114612b005760028114612b4a57612b72565b7f3d3d0000000000000000000000000000000000000000000000000000000000007ffffffffffffffffffffffffffffffffffffffffffffffffffffffffffffffffe830152612b72565b7f3d000000000000000000000000000000000000000000000000000000000000006000198301525b505050918152949350505050565b612b88613041565b60005b600d811015612bd957612ba061271084614598565b8282600d8110612bb257612bb2613b00565b61ffff9092166020929092020152600e9290921c9180612bd181614570565b915050612b8b565b50919050565b600081612c0b576005848481518110612bfa57612bfa613b00565b016020015160f81c901c90506111f2565b8160011415612c485760086002858581518110612c2a57612c2a613b00565b0160200151612c41929160f89190911c901c614845565b90506111f2565b8160021415612cbd57600784612c5f856001613d4c565b81518110612c6f57612c6f613b00565b602001015160f81c60f81b60f81c60ff16901c6004858581518110612c9657612c96613b00565b0160200151612ca8919060f81c614845565b612cb3906002614852565b612c419190613d26565b8160031415612ce6576008600485612cd6866001613d4c565b81518110612c2a57612c2a613b00565b8160041415612cfe576008600185612cd68683613d4c565b8160051415612d6a57600684612d15856002613d4c565b81518110612d2557612d25613b00565b016020015160f81c901c600285612d3d866001613d4c565b81518110612d4d57612d4d613b00565b0160200151612d5f919060f81c614845565b612cb3906004614852565b8160061415612d83576008600385612cd6866002613d4c565b600884612d91856002613d4c565b81518110612da157612da1613b00565b0160200151612c41919060f81c614845565b6060600083602001516001612dc89190613d4c565b61ffff16905060008460200151610100612de2919061459e565b61ffff16905061220660106008866040015184612dff919061482b565b6040890151612e0e908761482b565b612e189190613d4c565b901c62ffffff16901b600880876060015185612e34919061482b565b60608a0151612e43908861482b565b612e4d9190613d4c565b901c62ffffff16901b6008876080015185612e68919061482b565b60808a0151612e77908861482b565b612e819190613d4c565b612e8c92911c614877565b612e969190614877565b62ffffff16611c46565b604051806101a00160405280600d905b6040805180820190915260608082526020820152815260200190600190039081612eb05790505090565b604051806101a00160405280600d905b612ef2612fe9565b815260200190600190039081612eea5790505090565b60405180608001604052806004905b6060815260200190600190039081612f175790505090565b60408051610100810190915260608152600760208201612f17565b604080516101a0810190915260608152600c60208201612f17565b828054612f7190613ce9565b90600052602060002090601f016020900481019282612f935760008555612fd9565b82601f10612fac57805160ff1916838001178555612fd9565b82800160010185558215612fd9579182015b82811115612fd9578251825591602001919060010190612fbe565b50612fe5929150613060565b5090565b6040518061010001604052806008905b61302b6040518060a0016040528060608152602001600081526020016000815260200160008152602001600081525090565b815260200190600190039081612ff95790505090565b604051806101a00160405280600d906020820280368337509192915050565b5b80821115612fe55760008155600101613061565b60ff81165b8114611f5c57600080fd5b803561039f81613075565b600080604083850312156130a6576130a6600080fd5b60006130b28585613085565b92505060206130c385828601613085565b9150509250929050565b60005b838110156130e85781810151838201526020016130d0565b838111156130f7576000848401525b50505050565b6000613107825190565b80845260208401935061311e8185602086016130cd565b601f01601f19169290920192915050565b602080825281016111f281846130fd565b7fff00000000000000000000000000000000000000000000000000000000000000811661307a565b803561039f81613140565b60006020828403121561318857613188600080fd5b60006131948484613168565b949350505050565b80516040808452600091908401906131b482826130fd565b9150506020830151848203602086015261220682826130fd565b602080825281016111f2818461319c565b634e487b7160e01b600052604160045260246000fd5b601f19601f830116810181811067ffffffffffffffff8211171561321b5761321b6131df565b6040525050565b600061322d60405190565b905061323982826131f5565b919050565b600067ffffffffffffffff821115613258576132586131df565b5060200290565b600067ffffffffffffffff821115613279576132796131df565b601f19601f83011660200192915050565b82818337506000910152565b60006132a96132a48461325f565b613222565b9050828152602081018484840111156132c4576132c4600080fd5b6132cf84828561328a565b509392505050565b600082601f8301126132eb576132eb600080fd5b8135613194848260208601613296565b60006040828403121561331057613310600080fd5b61331a6040613222565b9050813567ffffffffffffffff81111561333657613336600080fd5b613342848285016132d7565b825250602082013567ffffffffffffffff81111561336257613362600080fd5b61336e848285016132d7565b60208301525092915050565b60006133886132a48461323e565b905080602084028301858111156133a1576133a1600080fd5b835b818110156133e057803567ffffffffffffffff8111156133c5576133c5600080fd5b85016133d188826132fb565b845250602092830192016133a3565b5050509392505050565b600082601f8301126133fe576133fe600080fd5b600d61319484828561337a565b8061307a565b803561039f8161340b565b600060a0828403121561343157613431600080fd5b61343b60a0613222565b9050813567ffffffffffffffff81111561345757613457600080fd5b613463848285016132d7565b825250602061347484848301613411565b90820152604061348684848301613411565b90820152606061349884848301613411565b9082015260806134aa84848301613411565b9082015292915050565b60006134c26132a48461323e565b905080602084028301858111156134db576134db600080fd5b835b818110156133e057803567ffffffffffffffff8111156134ff576134ff600080fd5b850161350b888261341c565b845250602092830192016134dd565b600082601f83011261352e5761352e600080fd5b60086131948482856134b4565b60006135496132a48461323e565b9050806020840283018581111561356257613562600080fd5b835b818110156133e057803567ffffffffffffffff81111561358657613586600080fd5b8501613592888261351a565b84525060209283019201613564565b600082601f8301126135b5576135b5600080fd5b600d61319484828561353b565b6000806000606084860312156135da576135da600080fd5b833567ffffffffffffffff8111156135f4576135f4600080fd5b613600868287016133ea565b935050602084013567ffffffffffffffff81111561362057613620600080fd5b61362c868287016135a1565b925050604061363d86828701613085565b9150509250925092565b60006111f283836130fd565b60200190565b60006004836080810184845b84811015613696578383038852815161367e8482613647565b93505060208201602098909801979150600101613665565b50909695505050505050565b602080825281016111f28184613659565b805b82525050565b6020810161039f82846136b3565b61ffff811661307a565b803561039f816136c9565b6000602082840312156136f3576136f3600080fd5b600061319484846136d3565b60ff81166136b5565b6020810161039f82846136ff565b600073ffffffffffffffffffffffffffffffffffffffff821661039f565b6136b581613716565b6020810161039f8284613734565b60006020828403121561376057613760600080fd5b60006131948484613411565b60006020828403121561378157613781600080fd5b61378b6020613222565b905060006134aa8484613411565b600080604083850312156137af576137af600080fd5b60006137bb8585613411565b92505060206130c38582860161376c565b60006111f2838361319c565b6000600d836101a0810184845b8481101561369657838303885281516137fe84826137cc565b935050602082016020989098019791506001016137e5565b805160a08084526000919084019061382e82826130fd565b915050602083015161384360208601826136b3565b50604083015161385660408601826136b3565b50606083015161386960608601826136b3565b5060808301516132cf60808601826136b3565b60006111f28383613816565b6000600883610100810184845b8481101561369657838303885281516138ae848261387c565b93505060208201602098909801979150600101613895565b60006111f28383613888565b6000600d836101a0810184845b8481101561369657838303885281516138f884826138c6565b935050602082016020989098019791506001016138df565b6000600d836101a0810184845b8481101561369657838303885281516139368482613647565b9350506020820160209890980197915060010161391d565b6080808252810161395f81876137d8565b9050818103602083015261397381866138d2565b905061398260408301856136ff565b81810360608301526125e78184613910565b6000602082840312156139a9576139a9600080fd5b60006131948484613085565b7fff0000000000000000000000000000000000000000000000000000000000000081166136b5565b6020810161039f82846139b5565b60008083601f840112613a0057613a00600080fd5b50813567ffffffffffffffff811115613a1b57613a1b600080fd5b602083019150836020820283011115613a3657613a36600080fd5b9250929050565b60008060208385031215613a5357613a53600080fd5b823567ffffffffffffffff811115613a6d57613a6d600080fd5b613a79858286016139eb565b92509250509250929050565b61307a81613716565b803561039f81613a85565b600060208284031215613aae57613aae600080fd5b60006131948484613a8e565b600080600060608486031215613ad257613ad2600080fd5b6000613ade86866136d3565b9350506020613aef86828701613085565b925050604061363d868287016136d3565b634e487b7160e01b600052603260045260246000fd5b7f50484e325a7942325a584a7a61573975505363784c6a456e49485a705a58644381527f623367394a7a41674d43417a4d6a41674d7a49774a79423462577875637a306e60208201527f6148523063446f764c336433647935334d793576636d63764d6a41774d43397a60408201527f646d636e49484e6f5958426c4c584a6c626d526c636d6c755a7a306e59334a7060608201527f633342465a47646c63796367614756705a326830505363784d44416c4a79423360808201527f615752306144306e4d5441774a53632b0000000000000000000000000000000060a08201525b60b00190565b6000613c08825190565b613c168185602086016130cd565b9290920192915050565b613c2981613b16565b9050613c358186613bfe565b9050613c418185613bfe565b9050613c4d8184613bfe565b9050613c598183613bfe565b7f50484e306557786c506e4a6c5933523764326c6b644767364d5442776544746f81527f5a576c6e614851364d544277654474395043397a64486c735a5434384c334e3260208201527f5a7a343d000000000000000000000000000000000000000000000000000000006040820152905060448101612206565b634e487b7160e01b600052602260045260246000fd5b600281046001821680613cfd57607f821691505b60208210811415612bd957612bd9613cd3565b634e487b7160e01b600052601160045260246000fd5b60ff8116905060ff8216915060008260ff03821115613d4757613d47613d10565b500190565b60008219821115613d4757613d47613d10565b613d69818a613bfe565b9050613d758189613bfe565b9050613d818188613bfe565b9050613d8d8187613bfe565b9050613d998186613bfe565b9050613da58185613bfe565b9050613db18184613bfe565b9050613dbd8183613bfe565b9998505050505050505050565b60ff81169050600060ff821415613de357613de3613d10565b5060010190565b60208082527f4f776e61626c653a2063616c6c6572206973206e6f7420746865206f776e65729101908152613653565b6020808252810161039f81613dea565b61ffff8116905061ffff8216915060008261ffff03821115613d4757613d47613d10565b7f50484e325a7942325a584a7a61573975505363784c6a456e49485a705a58644381527f623367394a7a41674d43417a4d69417a4d69636765473173626e4d394a32683060208201527f644841364c79393364336375647a4d7562334a6e4c7a49774d44417663335a6e60408201527f4a79427a614746775a5331795a57356b5a584a70626d63394a324e7961584e7760608201527f5257526e5a584d6e4947686c6157646f6444306e4d5441774a53636764326c6b60808201527f644767394a7a45774d43556e4943412b0000000000000000000000000000000060a0820152613bf8565b7f50484e306557786c506e4a6c5933523764326c6b644767364d5842344f32686c81527f6157646f64446f786348673766547776633352356247552b5043397a646d632b60208201525b60400190565b613f8d81613e4e565b9050613f998186613bfe565b9050613fa58185613bfe565b9050613fb18184613bfe565b9050613fbd8183613bfe565b905061220681613f34565b7f496e527959576c3058335235634755694f69416900000000000000000000000081525b60140190565b7f496942390000000000000000000000000000000000000000000000000000000081525b60040190565b6140268186613bfe565b90506140328185613bfe565b905061403d81613fc8565b90506140498184613bfe565b7f49697769646d4673645755694f694169000000000000000000000000000000008152601001905061407b8183613bfe565b905061220681613ff2565b7f646174613a6170706c69636174696f6e2f6a736f6e3b6261736536342c65794181527f67496d6c745957646c58325268644745694f69416950484e325a7942325a584a60208201527f7a61573975505363784c6a456e49485a705a586443623367394a7a41674d434160408201527f7a4d6a41674d7a49774a79423462577875637a306e6148523063446f764c336460608201527f33647935334d793576636d63764d6a41774d43397a646d636e49484e6f59584260808201527f6c4c584a6c626d526c636d6c755a7a306e59334a70633342465a47646c63796360a08201527f2b0000000000000000000000000000000000000000000000000000000000000060c082015260c10161419a8188613bfe565b90506141a68187613bfe565b90506141b28186613bfe565b90506141be8185613bfe565b7f50484e306557786c506e4a6c5933523764326c6b644767364d5442776544746f81527f5a576c6e614851364d544277654474395043397a64486c735a5434384c334e3260208201527f5a7a346749697767496d463064484a70596e56305a584d694f694262000000006040820152605c01905061423c8184613bfe565b7f5853776749434169626d46745a534936496c4a31626d356c6369416a000000008152601c01905061426e8183613bfe565b7f49697767496d526c63324e796158423061573975496a6f67496b4e6f59576c7581527f49464a31626d356c636e4d6759584a6c4945316c5a32456751326c306553427960208201527f5a57356c5a32466b5a584d674d5441774a53426e5a57356c636d46305a57516760408201527f623234675932686861573475496e3067000000000000000000000000000000006060820152607001979650505050505050565b61ffff9081169082165b915060008282101561432f5761432f613d10565b500390565b634e487b7160e01b600052601260045260246000fd5b61ffff9081169082165b915060008261436557614365614334565b500690565b60ff90811690821661431b565b7f30303030000000000000000000000000000000000000000000000000000000008152614016565b6143a881614377565b905061039f8183613bfe565b7f30303000000000000000000000000000000000000000000000000000000000008152600381016143a8565b7f30300000000000000000000000000000000000000000000000000000000000008152600281016143a8565b7f30000000000000000000000000000000000000000000000000000000000000008152600181016143a8565b600082357fffffffffffffffffffffffffffffffffffffffffffffffffffffffffffffff813684900301811261447057614470600080fd5b9190910192915050565b60008083357fffffffffffffffffffffffffffffffffffffffffffffffffffffffffffffffe1368590030181126144b3576144b3600080fd5b8301915050803567ffffffffffffffff8111156144d2576144d2600080fd5b602082019150600181023603821315613a3657613a36600080fd5b61ffff81169050600061ffff821415613de357613de3613d10565b60268152602081017f4f776e61626c653a206e6577206f776e657220697320746865207a65726f206181527f646472657373000000000000000000000000000000000000000000000000000060208201529050613f7e565b6020808252810161039f81614508565b6000600019821415613de357613de3613d10565b60008261459357614593614334565b500490565b81614354565b8161431b565b61ffff8116905061ffff8216915060008161ffff04831182151516156145cc576145cc613d10565b500290565b6145db8185613bfe565b90506145e78184613bfe565b90506131948183613bfe565b60008161460257614602613d10565b506000190190565b7f50484a6c593351674943426d615778735053636a0000000000000000000000008152613fec565b7f4a7941676544306e00000000000000000000000000000000000000000000000081525b60080190565b7f4a7941676554306e0000000000000000000000000000000000000000000000008152614656565b7f4a7941674943382b0000000000000000000000000000000000000000000000008152614656565b6146b58161460a565b90506146c1818e613bfe565b90506146cc81614632565b90506146d8818d613bfe565b90506146e38161465c565b90506146ef818c613bfe565b7f4a794176506a78795a574e304943426d615778735053636a000000000000000081526018019050614721818b613bfe565b905061472c81614632565b9050614738818a613bfe565b90506147438161465c565b905061474f8189613bfe565b7f4a794176506a78795a574e304943426d615778735053636a0000000000000000815260180190506147818188613bfe565b905061478c81614632565b90506147988187613bfe565b90506147a38161465c565b90506147af8186613bfe565b7f4a794176506a78795a574e304943426d615778735053636a0000000000000000815260180190506147e18185613bfe565b90506147ec81614632565b90506147f88184613bfe565b90506148038161465c565b905061480f8183613bfe565b905061481a81614684565b9d9c50505050505050505050505050565b60008160001904831182151516156145cc576145cc613d10565b60ff908116908216614354565b60ff8116905060ff8216915060008160ff04831182151516156145cc576145cc613d10565b62ffffff8116905062ffffff8216915060008262ffffff03821115613d4757613d47613d1056fe4142434445464748494a4b4c4d4e4f505152535455565758595a6162636465666768696a6b6c6d6e6f707172737475767778797a303132333435363738392b2fa2646970667358221220b4f9ed225dc97a5a030e0c9beb62b434a77af8e9ce19c929b87d227b71e2d48164736f6c63430008080033",
  "devdoc": {
    "kind": "dev",
    "methods": {
      "owner()": {
        "details": "Returns the address of the current owner."
      },
      "renounceOwnership()": {
        "details": "Leaves the contract without owner. It will not be possible to call `onlyOwner` functions anymore. Can only be called by the current owner. NOTE: Renouncing ownership will leave the contract without an owner, thereby removing any functionality that is only available to the owner."
      },
      "transferOwnership(address)": {
        "details": "Transfers ownership of the contract to a new account (`newOwner`). Can only be called by the current owner."
      }
    },
    "version": 1
  },
  "userdoc": {
    "kind": "user",
    "methods": {},
    "version": 1
  },
  "storageLayout": {
    "storage": [
      {
        "astId": 225,
        "contract": "contracts/runners/ChainRunnersLayerRenderer.sol:ChainRunnersLayerRenderer",
        "label": "_owner",
        "offset": 0,
        "slot": "0",
        "type": "t_address"
      },
      {
        "astId": 425,
        "contract": "contracts/runners/ChainRunnersLayerRenderer.sol:ChainRunnersLayerRenderer",
        "label": "_status",
        "offset": 0,
        "slot": "1",
        "type": "t_uint256"
      },
      {
        "astId": 9350,
        "contract": "contracts/runners/ChainRunnersLayerRenderer.sol:ChainRunnersLayerRenderer",
        "label": "layers",
        "offset": 0,
        "slot": "2",
        "type": "t_array(t_mapping(t_uint256,t_struct(Layer)9328_storage))13_storage"
      },
      {
        "astId": 9357,
        "contract": "contracts/runners/ChainRunnersLayerRenderer.sol:ChainRunnersLayerRenderer",
        "label": "WEIGHTS",
        "offset": 0,
        "slot": "15",
        "type": "t_array(t_array(t_array(t_uint16)dyn_storage)13_storage)3_storage"
      }
    ],
    "types": {
      "t_address": {
        "encoding": "inplace",
        "label": "address",
        "numberOfBytes": "20"
      },
      "t_array(t_array(t_array(t_uint16)dyn_storage)13_storage)3_storage": {
        "base": "t_array(t_array(t_uint16)dyn_storage)13_storage",
        "encoding": "inplace",
        "label": "uint16[][13][3]",
        "numberOfBytes": "1248"
      },
      "t_array(t_array(t_uint16)dyn_storage)13_storage": {
        "base": "t_array(t_uint16)dyn_storage",
        "encoding": "inplace",
        "label": "uint16[][13]",
        "numberOfBytes": "416"
      },
      "t_array(t_mapping(t_uint256,t_struct(Layer)9328_storage))13_storage": {
        "base": "t_mapping(t_uint256,t_struct(Layer)9328_storage)",
        "encoding": "inplace",
        "label": "mapping(uint256 => struct ChainRunnersBaseRenderer.Layer)[13]",
        "numberOfBytes": "416"
      },
      "t_array(t_uint16)dyn_storage": {
        "base": "t_uint16",
        "encoding": "dynamic_array",
        "label": "uint16[]",
        "numberOfBytes": "32"
      },
      "t_bytes_storage": {
        "encoding": "bytes",
        "label": "bytes",
        "numberOfBytes": "32"
      },
      "t_mapping(t_uint256,t_struct(Layer)9328_storage)": {
        "encoding": "mapping",
        "key": "t_uint256",
        "label": "mapping(uint256 => struct ChainRunnersBaseRenderer.Layer)",
        "numberOfBytes": "32",
        "value": "t_struct(Layer)9328_storage"
      },
      "t_string_storage": {
        "encoding": "bytes",
        "label": "string",
        "numberOfBytes": "32"
      },
      "t_struct(Layer)9328_storage": {
        "encoding": "inplace",
        "label": "struct ChainRunnersBaseRenderer.Layer",
        "members": [
          {
            "astId": 9325,
            "contract": "contracts/runners/ChainRunnersLayerRenderer.sol:ChainRunnersLayerRenderer",
            "label": "name",
            "offset": 0,
            "slot": "0",
            "type": "t_string_storage"
          },
          {
            "astId": 9327,
            "contract": "contracts/runners/ChainRunnersLayerRenderer.sol:ChainRunnersLayerRenderer",
            "label": "hexString",
            "offset": 0,
            "slot": "1",
            "type": "t_bytes_storage"
          }
        ],
        "numberOfBytes": "64"
      },
      "t_uint16": {
        "encoding": "inplace",
        "label": "uint16",
        "numberOfBytes": "2"
      },
      "t_uint256": {
        "encoding": "inplace",
        "label": "uint256",
        "numberOfBytes": "32"
      }
    }
  }
}