{
  "address": "0x8A93d247134d91e0de6f96547cB0204e5BE8e5D8",
  "abi": [
    {
      "inputs": [],
      "stateMutability": "nonpayable",
      "type": "constructor"
    },
    {
      "anonymous": false,
      "inputs": [
        {
          "indexed": true,
          "internalType": "address",
          "name": "owner",
          "type": "address"
        },
        {
          "indexed": true,
          "internalType": "address",
          "name": "approved",
          "type": "address"
        },
        {
          "indexed": true,
          "internalType": "uint256",
          "name": "tokenId",
          "type": "uint256"
        }
      ],
      "name": "Approval",
      "type": "event"
    },
    {
      "anonymous": false,
      "inputs": [
        {
          "indexed": true,
          "internalType": "address",
          "name": "owner",
          "type": "address"
        },
        {
          "indexed": true,
          "internalType": "address",
          "name": "operator",
          "type": "address"
        },
        {
          "indexed": false,
          "internalType": "bool",
          "name": "approved",
          "type": "bool"
        }
      ],
      "name": "ApprovalForAll",
      "type": "event"
    },
    {
      "anonymous": false,
      "inputs": [
        {
          "indexed": true,
          "internalType": "uint256",
          "name": "tokenId",
          "type": "uint256"
        },
        {
          "indexed": false,
          "internalType": "uint256",
          "name": "dna",
          "type": "uint256"
        }
      ],
      "name": "GenerateRunner",
      "type": "event"
    },
    {
      "anonymous": false,
      "inputs": [
        {
          "indexed": true,
          "internalType": "address",
          "name": "previousOwner",
          "type": "address"
        },
        {
          "indexed": true,
          "internalType": "address",
          "name": "newOwner",
          "type": "address"
        }
      ],
      "name": "OwnershipTransferred",
      "type": "event"
    },
    {
      "anonymous": false,
      "inputs": [
        {
          "indexed": true,
          "internalType": "address",
          "name": "from",
          "type": "address"
        },
        {
          "indexed": true,
          "internalType": "address",
          "name": "to",
          "type": "address"
        },
        {
          "indexed": true,
          "internalType": "uint256",
          "name": "tokenId",
          "type": "uint256"
        }
      ],
      "name": "Transfer",
      "type": "event"
    },
    {
      "inputs": [
        {
          "internalType": "address[]",
          "name": "toEarlyAccessList",
          "type": "address[]"
        }
      ],
      "name": "addToEarlyAccessList",
      "outputs": [],
      "stateMutability": "nonpayable",
      "type": "function"
    },
    {
      "inputs": [
        {
          "internalType": "address",
          "name": "_addr",
          "type": "address"
        },
        {
          "internalType": "uint256",
          "name": "_count",
          "type": "uint256"
        }
      ],
      "name": "allocateFounderMint",
      "outputs": [],
      "stateMutability": "nonpayable",
      "type": "function"
    },
    {
      "inputs": [
        {
          "internalType": "address",
          "name": "to",
          "type": "address"
        },
        {
          "internalType": "uint256",
          "name": "tokenId",
          "type": "uint256"
        }
      ],
      "name": "approve",
      "outputs": [],
      "stateMutability": "nonpayable",
      "type": "function"
    },
    {
      "inputs": [
        {
          "internalType": "address",
          "name": "owner",
          "type": "address"
        }
      ],
      "name": "balanceOf",
      "outputs": [
        {
          "internalType": "uint256",
          "name": "",
          "type": "uint256"
        }
      ],
      "stateMutability": "view",
      "type": "function"
    },
    {
      "inputs": [
        {
          "internalType": "string",
          "name": "seed",
          "type": "string"
        }
      ],
      "name": "checkHash",
      "outputs": [
        {
          "internalType": "uint256",
          "name": "",
          "type": "uint256"
        }
      ],
      "stateMutability": "pure",
      "type": "function"
    },
    {
      "inputs": [
        {
          "internalType": "uint256",
          "name": "_runnerZeroHash",
          "type": "uint256"
        },
        {
          "internalType": "uint256",
          "name": "_runnerZeroDNA",
          "type": "uint256"
        }
      ],
      "name": "configureRunnerZero",
      "outputs": [],
      "stateMutability": "nonpayable",
      "type": "function"
    },
    {
      "inputs": [
        {
          "internalType": "address",
          "name": "",
          "type": "address"
        }
      ],
      "name": "earlyAccessMintedCounts",
      "outputs": [
        {
          "internalType": "uint256",
          "name": "",
          "type": "uint256"
        }
      ],
      "stateMutability": "view",
      "type": "function"
    },
    {
      "inputs": [],
      "name": "earlyAccessStartTimestamp",
      "outputs": [
        {
          "internalType": "uint256",
          "name": "",
          "type": "uint256"
        }
      ],
      "stateMutability": "view",
      "type": "function"
    },
    {
      "inputs": [
        {
          "internalType": "uint256",
          "name": "_count",
          "type": "uint256"
        }
      ],
      "name": "founderMint",
      "outputs": [
        {
          "internalType": "uint256",
          "name": "",
          "type": "uint256"
        },
        {
          "internalType": "uint256",
          "name": "",
          "type": "uint256"
        }
      ],
      "stateMutability": "nonpayable",
      "type": "function"
    },
    {
      "inputs": [
        {
          "internalType": "uint256",
          "name": "tokenId",
          "type": "uint256"
        }
      ],
      "name": "getApproved",
      "outputs": [
        {
          "internalType": "address",
          "name": "",
          "type": "address"
        }
      ],
      "stateMutability": "view",
      "type": "function"
    },
    {
      "inputs": [
        {
          "internalType": "uint256",
          "name": "_tokenId",
          "type": "uint256"
        }
      ],
      "name": "getDna",
      "outputs": [
        {
          "internalType": "uint256",
          "name": "",
          "type": "uint256"
        }
      ],
      "stateMutability": "view",
      "type": "function"
    },
    {
      "inputs": [
        {
          "internalType": "address",
          "name": "_addr",
          "type": "address"
        }
      ],
      "name": "getRemainingEarlyAccessMints",
      "outputs": [
        {
          "internalType": "uint256",
          "name": "",
          "type": "uint256"
        }
      ],
      "stateMutability": "view",
      "type": "function"
    },
    {
      "inputs": [
        {
          "internalType": "address",
          "name": "_addr",
          "type": "address"
        }
      ],
      "name": "getRemainingFounderMints",
      "outputs": [
        {
          "internalType": "uint256",
          "name": "",
          "type": "uint256"
        }
      ],
      "stateMutability": "view",
      "type": "function"
    },
    {
      "inputs": [
        {
          "internalType": "address",
          "name": "owner",
          "type": "address"
        },
        {
          "internalType": "address",
          "name": "operator",
          "type": "address"
        }
      ],
      "name": "isApprovedForAll",
      "outputs": [
        {
          "internalType": "bool",
          "name": "",
          "type": "bool"
        }
      ],
      "stateMutability": "view",
      "type": "function"
    },
    {
      "inputs": [],
      "name": "isEarlyAccessOpen",
      "outputs": [
        {
          "internalType": "bool",
          "name": "",
          "type": "bool"
        }
      ],
      "stateMutability": "view",
      "type": "function"
    },
    {
      "inputs": [
        {
          "internalType": "address",
          "name": "",
          "type": "address"
        }
      ],
      "name": "isOnEarlyAccessList",
      "outputs": [
        {
          "internalType": "bool",
          "name": "",
          "type": "bool"
        }
      ],
      "stateMutability": "view",
      "type": "function"
    },
    {
      "inputs": [],
      "name": "isPublicSaleOpen",
      "outputs": [
        {
          "internalType": "bool",
          "name": "",
          "type": "bool"
        }
      ],
      "stateMutability": "view",
      "type": "function"
    },
    {
      "inputs": [
        {
          "internalType": "uint256",
          "name": "tokenId",
          "type": "uint256"
        }
      ],
      "name": "mint",
      "outputs": [],
      "stateMutability": "nonpayable",
      "type": "function"
    },
    {
      "inputs": [
        {
          "internalType": "uint256",
          "name": "_count",
          "type": "uint256"
        }
      ],
      "name": "mintEarlyAccess",
      "outputs": [
        {
          "internalType": "uint256",
          "name": "",
          "type": "uint256"
        },
        {
          "internalType": "uint256",
          "name": "",
          "type": "uint256"
        }
      ],
      "stateMutability": "payable",
      "type": "function"
    },
    {
      "inputs": [
        {
          "internalType": "uint256",
          "name": "_count",
          "type": "uint256"
        }
      ],
      "name": "mintPublicSale",
      "outputs": [
        {
          "internalType": "uint256",
          "name": "",
          "type": "uint256"
        },
        {
          "internalType": "uint256",
          "name": "",
          "type": "uint256"
        }
      ],
      "stateMutability": "payable",
      "type": "function"
    },
    {
      "inputs": [
        {
          "internalType": "string",
          "name": "seed",
          "type": "string"
        }
      ],
      "name": "mintRunnerZero",
      "outputs": [],
      "stateMutability": "nonpayable",
      "type": "function"
    },
    {
      "inputs": [],
      "name": "name",
      "outputs": [
        {
          "internalType": "string",
          "name": "",
          "type": "string"
        }
      ],
      "stateMutability": "view",
      "type": "function"
    },
    {
      "inputs": [],
      "name": "owner",
      "outputs": [
        {
          "internalType": "address",
          "name": "",
          "type": "address"
        }
      ],
      "stateMutability": "view",
      "type": "function"
    },
    {
      "inputs": [
        {
          "internalType": "uint256",
          "name": "tokenId",
          "type": "uint256"
        }
      ],
      "name": "ownerOf",
      "outputs": [
        {
          "internalType": "address",
          "name": "",
          "type": "address"
        }
      ],
      "stateMutability": "view",
      "type": "function"
    },
    {
      "inputs": [],
      "name": "publicSaleStartTimestamp",
      "outputs": [
        {
          "internalType": "uint256",
          "name": "",
          "type": "uint256"
        }
      ],
      "stateMutability": "view",
      "type": "function"
    },
    {
      "inputs": [
        {
          "internalType": "address[]",
          "name": "toRemove",
          "type": "address[]"
        }
      ],
      "name": "removeFromEarlyAccessList",
      "outputs": [],
      "stateMutability": "nonpayable",
      "type": "function"
    },
    {
      "inputs": [],
      "name": "renderingContractAddress",
      "outputs": [
        {
          "internalType": "address",
          "name": "",
          "type": "address"
        }
      ],
      "stateMutability": "view",
      "type": "function"
    },
    {
      "inputs": [],
      "name": "renounceOwnership",
      "outputs": [],
      "stateMutability": "nonpayable",
      "type": "function"
    },
    {
      "inputs": [
        {
          "internalType": "address",
          "name": "from",
          "type": "address"
        },
        {
          "internalType": "address",
          "name": "to",
          "type": "address"
        },
        {
          "internalType": "uint256",
          "name": "tokenId",
          "type": "uint256"
        }
      ],
      "name": "safeTransferFrom",
      "outputs": [],
      "stateMutability": "nonpayable",
      "type": "function"
    },
    {
      "inputs": [
        {
          "internalType": "address",
          "name": "from",
          "type": "address"
        },
        {
          "internalType": "address",
          "name": "to",
          "type": "address"
        },
        {
          "internalType": "uint256",
          "name": "tokenId",
          "type": "uint256"
        },
        {
          "internalType": "bytes",
          "name": "_data",
          "type": "bytes"
        }
      ],
      "name": "safeTransferFrom",
      "outputs": [],
      "stateMutability": "nonpayable",
      "type": "function"
    },
    {
      "inputs": [
        {
          "internalType": "address",
          "name": "operator",
          "type": "address"
        },
        {
          "internalType": "bool",
          "name": "approved",
          "type": "bool"
        }
      ],
      "name": "setApprovalForAll",
      "outputs": [],
      "stateMutability": "nonpayable",
      "type": "function"
    },
    {
      "inputs": [
        {
          "internalType": "uint256",
          "name": "timestamp",
          "type": "uint256"
        }
      ],
      "name": "setEarlyAccessTimestamp",
      "outputs": [],
      "stateMutability": "nonpayable",
      "type": "function"
    },
    {
      "inputs": [
        {
          "internalType": "uint256",
          "name": "timestamp",
          "type": "uint256"
        }
      ],
      "name": "setPublicSaleTimestamp",
      "outputs": [],
      "stateMutability": "nonpayable",
      "type": "function"
    },
    {
      "inputs": [
        {
          "internalType": "address",
          "name": "_renderingContractAddress",
          "type": "address"
        }
      ],
      "name": "setRenderingContractAddress",
      "outputs": [],
      "stateMutability": "nonpayable",
      "type": "function"
    },
    {
      "inputs": [
        {
          "internalType": "bytes4",
          "name": "interfaceId",
          "type": "bytes4"
        }
      ],
      "name": "supportsInterface",
      "outputs": [
        {
          "internalType": "bool",
          "name": "",
          "type": "bool"
        }
      ],
      "stateMutability": "view",
      "type": "function"
    },
    {
      "inputs": [],
      "name": "symbol",
      "outputs": [
        {
          "internalType": "string",
          "name": "",
          "type": "string"
        }
      ],
      "stateMutability": "view",
      "type": "function"
    },
    {
      "inputs": [
        {
          "internalType": "uint256",
          "name": "index",
          "type": "uint256"
        }
      ],
      "name": "tokenByIndex",
      "outputs": [
        {
          "internalType": "uint256",
          "name": "",
          "type": "uint256"
        }
      ],
      "stateMutability": "view",
      "type": "function"
    },
    {
      "inputs": [
        {
          "internalType": "address",
          "name": "owner",
          "type": "address"
        },
        {
          "internalType": "uint256",
          "name": "index",
          "type": "uint256"
        }
      ],
      "name": "tokenOfOwnerByIndex",
      "outputs": [
        {
          "internalType": "uint256",
          "name": "",
          "type": "uint256"
        }
      ],
      "stateMutability": "view",
      "type": "function"
    },
    {
      "inputs": [
        {
          "internalType": "uint256",
          "name": "_tokenId",
          "type": "uint256"
        }
      ],
      "name": "tokenURI",
      "outputs": [
        {
          "internalType": "string",
          "name": "",
          "type": "string"
        }
      ],
      "stateMutability": "view",
      "type": "function"
    },
    {
      "inputs": [
        {
          "internalType": "uint256",
          "name": "_tokenId",
          "type": "uint256"
        },
        {
          "internalType": "uint256",
          "name": "seed",
          "type": "uint256"
        }
      ],
      "name": "tokenURIForSeed",
      "outputs": [
        {
          "internalType": "string",
          "name": "",
          "type": "string"
        }
      ],
      "stateMutability": "view",
      "type": "function"
    },
    {
      "inputs": [],
      "name": "totalSupply",
      "outputs": [
        {
          "internalType": "uint256",
          "name": "",
          "type": "uint256"
        }
      ],
      "stateMutability": "view",
      "type": "function"
    },
    {
      "inputs": [
        {
          "internalType": "address",
          "name": "from",
          "type": "address"
        },
        {
          "internalType": "address",
          "name": "to",
          "type": "address"
        },
        {
          "internalType": "uint256",
          "name": "tokenId",
          "type": "uint256"
        }
      ],
      "name": "transferFrom",
      "outputs": [],
      "stateMutability": "nonpayable",
      "type": "function"
    },
    {
      "inputs": [
        {
          "internalType": "address",
          "name": "newOwner",
          "type": "address"
        }
      ],
      "name": "transferOwnership",
      "outputs": [],
      "stateMutability": "nonpayable",
      "type": "function"
    },
    {
      "inputs": [],
      "name": "withdraw",
      "outputs": [],
      "stateMutability": "nonpayable",
      "type": "function"
    },
    {
      "stateMutability": "payable",
      "type": "receive"
    }
  ],
  "transactionHash": "0x266ffb4bbc99c412240f995e6e176265ed330886dc1f0a0766c364990004ebae",
  "args": [],
  "numDeployments": 1,
  "solcInputHash": "0464b55ace3cba2f67d8122017481bf4",
  "bytecode": "0x60806040523480156200001157600080fd5b50604080518082018252600d81526c436861696e2052756e6e65727360981b602080830191825283518085019094526003845262292aa760e91b9084015281519192916200006291600091620000f6565b50805162000078906001906020840190620000f6565b505050620000956200008f620000a060201b60201c565b620000a4565b6001600b55620001e3565b3390565b600a80546001600160a01b038381166001600160a01b0319831681179093556040519116919082907f8be0079c531659141344cd1fd0a4f28419497f9722a3daafe3b4186f6b6457e090600090a35050565b82805462000104906200019c565b90600052602060002090601f01602090048101928262000128576000855562000173565b82601f106200014357805160ff191683800117855562000173565b8280016001018555821562000173579182015b828111156200017357825182559160200191906001019062000156565b506200018192915062000185565b5090565b5b8082111562000181576000815560010162000186565b600281046001821680620001b157607f821691505b60208210811415620001c757620001c7620001cd565b50919050565b634e487b7160e01b600052602260045260246000fd5b6135a480620001f36000396000f3fe6080604052600436106102eb5760003560e01c80637de46b6911610184578063b88d4fde116100d6578063e670f7cd1161008a578063f252460111610064578063f252460114610836578063f2fde38b1461086c578063f42202e81461088c57600080fd5b8063e670f7cd146107ad578063e69c8a91146107cd578063e985e9c5146107ed57600080fd5b8063c074f412116100bb578063c074f41214610757578063c87b56dd14610777578063d7822c991461079757600080fd5b8063b88d4fde14610717578063bb49ec7e1461073757600080fd5b8063a08cdf6611610138578063a22cb46511610112578063a22cb465146106a7578063ac5fcdee146106c7578063b1acb346146106f757600080fd5b8063a08cdf6614610647578063a13c038314610674578063a1e5995b1461069457600080fd5b806395d89b411161016957806395d89b41146105fc5780639676763014610611578063a0712d681461062757600080fd5b80637de46b69146105be5780638da5cb5b146105de57600080fd5b8063422627c31161023d5780636352211e116101f157806370a08231116101cb57806370a0823114610569578063715018a6146105895780637dd0dbb51461059e57600080fd5b80636352211e146105095780636dcec528146105295780636e642aba1461054957600080fd5b80634f6ccce7116102225780634f6ccce7146104a8578063511a9605146104c85780635a5e5d58146104e857600080fd5b8063422627c31461045b57806342842e0e1461048857600080fd5b806312b40a9f1161029f57806323b872dd1161027957806323b872dd146104065780632f745c59146104265780633ccfd60b1461044657600080fd5b806312b40a9f146103b357806318160ddd146103d35780631a6949e3146103f157600080fd5b8063081812fc116102d0578063081812fc1461034f578063095ea7b31461037c5780630d0090ef1461039e57600080fd5b806301ffc9a7146102f757806306fdde031461032d57600080fd5b366102f257005b600080fd5b34801561030357600080fd5b50610317610312366004612543565b6108ac565b60405161032491906130c8565b60405180910390f35b34801561033957600080fd5b50610342610908565b60405161032491906130d6565b34801561035b57600080fd5b5061036f61036a3660046125e7565b61099a565b6040516103249190613076565b34801561038857600080fd5b5061039c6103973660046124e0565b6109f3565b005b3480156103aa57600080fd5b50610317610a79565b3480156103bf57600080fd5b5061039c6103ce36600461239c565b610aa4565b3480156103df57600080fd5b506008545b60405161032491906132f7565b3480156103fd57600080fd5b50610317610afd565b34801561041257600080fd5b5061039c6104213660046123f1565b610b15565b34801561043257600080fd5b506103e46104413660046124e0565b610b46565b34801561045257600080fd5b5061039c610b98565b34801561046757600080fd5b506103e46104763660046125e7565b6000908152600c602052604090205490565b34801561049457600080fd5b5061039c6104a33660046123f1565b610c2d565b3480156104b457600080fd5b506103e46104c33660046125e7565b610c48565b3480156104d457600080fd5b5061039c6104e33660046125e7565b610ca4565b6104fb6104f63660046125e7565b610cd3565b60405161032492919061333b565b34801561051557600080fd5b5061036f6105243660046125e7565b610e18565b34801561053557600080fd5b5061039c61054436600461250e565b610e4d565b34801561055557600080fd5b506103e461056436600461239c565b610ef1565b34801561057557600080fd5b506103e461058436600461239c565b610f3d565b34801561059557600080fd5b5061039c610f81565b3480156105aa57600080fd5b5061039c6105b93660046124e0565b610fb7565b3480156105ca57600080fd5b5061039c6105d93660046125e7565b611025565b3480156105ea57600080fd5b50600a546001600160a01b031661036f565b34801561060857600080fd5b50610342611054565b34801561061d57600080fd5b506103e460125481565b34801561063357600080fd5b5061039c6106423660046125e7565b611063565b34801561065357600080fd5b506103e461066236600461239c565b60156020526000908152604090205481565b34801561068057600080fd5b5061039c61068f366004612604565b6110c2565b6104fb6106a23660046125e7565b611117565b3480156106b357600080fd5b5061039c6106c23660046124b2565b6112cc565b3480156106d357600080fd5b506103176106e236600461239c565b60146020526000908152604090205460ff1681565b34801561070357600080fd5b5061039c61071236600461250e565b6112d7565b34801561072357600080fd5b5061039c61073236600461243c565b611377565b34801561074357600080fd5b5061039c61075236600461257d565b6113af565b34801561076357600080fd5b50600d5461036f906001600160a01b031681565b34801561078357600080fd5b506103426107923660046125e7565b611492565b3480156107a357600080fd5b506103e460135481565b3480156107b957600080fd5b506103e46107c836600461257d565b6115a2565b3480156107d957600080fd5b506103426107e8366004612604565b6115d3565b3480156107f957600080fd5b506103176108083660046123b9565b6001600160a01b03918216600090815260056020908152604080832093909416825291909152205460ff1690565b34801561084257600080fd5b506103e461085136600461239c565b6001600160a01b031660009081526016602052604090205490565b34801561087857600080fd5b5061039c61088736600461239c565b6116e5565b34801561089857600080fd5b506104fb6108a73660046125e7565b61173e565b60007fffffffff0000000000000000000000000000000000000000000000000000000082167f780e9d630000000000000000000000000000000000000000000000000000000014806109025750610902826118a5565b92915050565b60606000805461091790613453565b80601f016020809104026020016040519081016040528092919081815260200182805461094390613453565b80156109905780601f1061096557610100808354040283529160200191610990565b820191906000526020600020905b81548152906001019060200180831161097357829003601f168201915b5050505050905090565b6000818152600260205260408120546001600160a01b03166109d75760405162461bcd60e51b81526004016109ce90613207565b60405180910390fd5b506000908152600460205260409020546001600160a01b031690565b60006109fe82610e18565b9050806001600160a01b0316836001600160a01b03161415610a325760405162461bcd60e51b81526004016109ce90613267565b336001600160a01b0382161480610a4e5750610a4e8133610808565b610a6a5760405162461bcd60e51b81526004016109ce906131a7565b610a748383611988565b505050565b6000610a83610afd565b158015610a9257506012544210155b8015610a9f575060125415155b905090565b600a546001600160a01b03163314610ace5760405162461bcd60e51b81526004016109ce90613227565b600d805473ffffffffffffffffffffffffffffffffffffffff19166001600160a01b0392909216919091179055565b60006013544210158015610a9f575050601354151590565b610b1f3382611a03565b610b3b5760405162461bcd60e51b81526004016109ce90613287565b610a74838383611ab5565b6000610b5183610f3d565b8210610b6f5760405162461bcd60e51b81526004016109ce90613107565b506001600160a01b03919091166000908152600660209081526040808320938352929052205490565b600a546001600160a01b03163314610bc25760405162461bcd60e51b81526004016109ce90613227565b604051600090339047908381818185875af1925050503d8060008114610c04576040519150601f19603f3d011682016040523d82523d6000602084013e610c09565b606091505b5050905080610c2a5760405162461bcd60e51b81526004016109ce906132c7565b50565b610a7483838360405180602001604052806000815250611377565b6000610c5360085490565b8210610c715760405162461bcd60e51b81526004016109ce90613297565b60088281548110610c9257634e487b7160e01b600052603260045260246000fd5b90600052602060002001549050919050565b600a546001600160a01b03163314610cce5760405162461bcd60e51b81526004016109ce90613227565b601355565b6000806002600b541415610cf95760405162461bcd60e51b81526004016109ce906132b7565b6002600b55610d06610afd565b610d225760405162461bcd60e51b81526004016109ce906132a7565b600083118015610d335750600a8311155b610d4f5760405162461bcd60e51b81526004016109ce90613197565b610d5c60556127106133f3565b83610d66600e5490565b610d7091906133bc565b1115610d8e5760405162461bcd60e51b81526004016109ce906130f7565b34610da066b1a2bc2ec50000856133d4565b14610dbd5760405162461bcd60e51b81526004016109ce90613147565b6000610dc8600e5490565b610dd39060016133bc565b905060005b84811015610e0c57610dee600e80546001019055565b610dfa610642600e5490565b80610e04816134b5565b915050610dd8565b506001600b5593915050565b6000818152600260205260408120546001600160a01b0316806109025760405162461bcd60e51b81526004016109ce906131d7565b600a546001600160a01b03163314610e775760405162461bcd60e51b81526004016109ce90613227565b60005b8151811015610eed57600160146000848481518110610ea957634e487b7160e01b600052603260045260246000fd5b6020908102919091018101516001600160a01b03168252810191909152604001600020805460ff191691151591909117905580610ee5816134b5565b915050610e7a565b5050565b6001600160a01b03811660009081526014602052604081205460ff16610f1957506000919050565b6001600160a01b0382166000908152601560205260409020546109029060056133f3565b60006001600160a01b038216610f655760405162461bcd60e51b81526004016109ce906131c7565b506001600160a01b031660009081526003602052604090205490565b600a546001600160a01b03163314610fab5760405162461bcd60e51b81526004016109ce90613227565b610fb56000611bef565b565b600a546001600160a01b03163314610fe15760405162461bcd60e51b81526004016109ce90613227565b6002600b5414156110045760405162461bcd60e51b81526004016109ce906132b7565b6001600160a01b039091166000908152601660205260409020556001600b55565b600a546001600160a01b0316331461104f5760405162461bcd60e51b81526004016109ce90613227565b601255565b60606001805461091790613453565b60408051602081019091526000815281334442604051602001611089949392919061303a565b60408051601f19818403018152919052805160209091012081526110ad3383611c4e565b6000918252600c602052604090912090519055565b600a546001600160a01b031633146110ec5760405162461bcd60e51b81526004016109ce90613227565b6010541561110c5760405162461bcd60e51b81526004016109ce906132e7565b601091909155601155565b6000806002600b54141561113d5760405162461bcd60e51b81526004016109ce906132b7565b6002600b5561114a610a79565b6111665760405162461bcd60e51b81526004016109ce90613277565b826111835760405162461bcd60e51b81526004016109ce90613197565b3360009081526014602052604090205460ff166111b25760405162461bcd60e51b81526004016109ce90613257565b6111bf60556127106133f3565b836111c9600e5490565b6111d391906133bc565b11156111f15760405162461bcd60e51b81526004016109ce906130f7565b3461120366b1a2bc2ec50000856133d4565b146112205760405162461bcd60e51b81526004016109ce90613147565b3360009081526015602052604081205461123b9085906133bc565b9050600581111561125e5760405162461bcd60e51b81526004016109ce906130e7565b6000611269600e5490565b6112749060016133bc565b905060005b858110156112ad5761128f600e80546001019055565b61129b610642600e5490565b806112a5816134b5565b915050611279565b50336000908152601560205260409020919091556001600b5593915050565b610eed338383611c68565b600a546001600160a01b031633146113015760405162461bcd60e51b81526004016109ce90613227565b60005b8151811015610eed5760006014600084848151811061133357634e487b7160e01b600052603260045260246000fd5b6020908102919091018101516001600160a01b03168252810191909152604001600020805460ff19169115159190911790558061136f816134b5565b915050611304565b6113813383611a03565b61139d5760405162461bcd60e51b81526004016109ce90613287565b6113a984848484611d0b565b50505050565b6010546113ce5760405162461bcd60e51b81526004016109ce90613177565b6000805260026020527fac33ff75c19e70fe83507db0d683fd3465c996598dc972688b7ace676c89077b546001600160a01b03161561141f5760405162461bcd60e51b81526004016109ce906132d7565b60105461142b826115a2565b146114485760405162461bcd60e51b81526004016109ce906131e7565b60408051602081019091526011548152611463336000611c4e565b60008052600c602052517f13649b2456f1b42fef0f0040b3aaeabcd21a76a0f3f5defd4f583839455116e85550565b6000818152600260205260409020546060906001600160a01b03166114c95760405162461bcd60e51b81526004016109ce90613247565b600d546001600160a01b03166114ed57505060408051602081019091526000815290565b600d546000838152600c60205260409081902090517fa62f8deb0000000000000000000000000000000000000000000000000000000081526001600160a01b0390921691829163a62f8deb91611547918791600401613320565b60006040518083038186803b15801561155f57600080fd5b505afa158015611573573d6000803e3d6000fd5b505050506040513d6000823e601f3d908101601f1916820160405261159b91908101906125b2565b9392505050565b6000816040516020016115b5919061302b565b60408051601f19818403018152919052805160209091012092915050565b6000828152600260205260409020546060906001600160a01b031661160a5760405162461bcd60e51b81526004016109ce90613247565b600d546001600160a01b031661162f5750604080516020810190915260008152610902565b60408051602081018252838152600d5491517fa62f8deb00000000000000000000000000000000000000000000000000000000815290916001600160a01b031690819063a62f8deb906116889088908690600401613305565b60006040518083038186803b1580156116a057600080fd5b505afa1580156116b4573d6000803e3d6000fd5b505050506040513d6000823e601f3d908101601f191682016040526116dc91908101906125b2565b95945050505050565b600a546001600160a01b0316331461170f5760405162461bcd60e51b81526004016109ce90613227565b6001600160a01b0381166117355760405162461bcd60e51b81526004016109ce90613127565b610c2a81611bef565b6000806002600b5414156117645760405162461bcd60e51b81526004016109ce906132b7565b6002600b5582158015906117795750600a8311155b6117955760405162461bcd60e51b81526004016109ce90613197565b6055836117a1600f5490565b6117ab91906133bc565b11156117c95760405162461bcd60e51b81526004016109ce90613217565b336000908152601660205260409020548311156117f85760405162461bcd60e51b81526004016109ce906131b7565b6000611803600e5490565b61181060556127106133f3565b61181a91906133bc565b6118259060016133bc565b905060005b8481101561187557611840600f80546001019055565b61186361184c600f5490565b61185960556127106133f3565b61064291906133bc565b8061186d816134b5565b91505061182a565b5033600090815260166020526040812080548692906118959084906133f3565b90915550506001600b5593915050565b60007fffffffff0000000000000000000000000000000000000000000000000000000082167f80ac58cd00000000000000000000000000000000000000000000000000000000148061193857507fffffffff0000000000000000000000000000000000000000000000000000000082167f5b5e139f00000000000000000000000000000000000000000000000000000000145b8061090257507f01ffc9a7000000000000000000000000000000000000000000000000000000007fffffffff00000000000000000000000000000000000000000000000000000000831614610902565b6000818152600460205260409020805473ffffffffffffffffffffffffffffffffffffffff19166001600160a01b03841690811790915581906119ca82610e18565b6001600160a01b03167f8c5be1e5ebec7d5bd14f71427d1e84f3dd0314c0f7b2291e5b200ac8c7c3b92560405160405180910390a45050565b6000818152600260205260408120546001600160a01b0316611a375760405162461bcd60e51b81526004016109ce90613187565b6000611a4283610e18565b9050806001600160a01b0316846001600160a01b03161480611a7d5750836001600160a01b0316611a728461099a565b6001600160a01b0316145b80611aad57506001600160a01b0380821660009081526005602090815260408083209388168352929052205460ff165b949350505050565b826001600160a01b0316611ac882610e18565b6001600160a01b031614611aee5760405162461bcd60e51b81526004016109ce90613237565b6001600160a01b038216611b145760405162461bcd60e51b81526004016109ce90613157565b611b1f838383611d3e565b611b2a600082611988565b6001600160a01b0383166000908152600360205260408120805460019290611b539084906133f3565b90915550506001600160a01b0382166000908152600360205260408120805460019290611b819084906133bc565b9091555050600081815260026020526040808220805473ffffffffffffffffffffffffffffffffffffffff19166001600160a01b0386811691821790925591518493918716917fddf252ad1be2c89b69c2b068fc378daa952ba7f163c4a11628f55a4df523b3ef91a4505050565b600a80546001600160a01b0383811673ffffffffffffffffffffffffffffffffffffffff19831681179093556040519116919082907f8be0079c531659141344cd1fd0a4f28419497f9722a3daafe3b4186f6b6457e090600090a35050565b610eed828260405180602001604052806000815250611df6565b816001600160a01b0316836001600160a01b03161415611c9a5760405162461bcd60e51b81526004016109ce90613167565b6001600160a01b0383811660008181526005602090815260408083209487168084529490915290819020805460ff1916851515179055517f17307eab39ab6107e8899845ad3d59bd9653f200f220920489ca2b5937696c3190611cfe9085906130c8565b60405180910390a3505050565b611d16848484611ab5565b611d2284848484611e29565b6113a95760405162461bcd60e51b81526004016109ce90613117565b6001600160a01b038316611d9957611d9481600880546000838152600960205260408120829055600182018355919091527ff3f7a9fe364faab93b216da50a3214154f22a0a2b415b23a84c8169e8b636ee30155565b611dbc565b816001600160a01b0316836001600160a01b031614611dbc57611dbc8382611f80565b6001600160a01b038216611dd357610a748161201d565b826001600160a01b0316826001600160a01b031614610a7457610a7482826120f6565b611e00838361213a565b611e0d6000848484611e29565b610a745760405162461bcd60e51b81526004016109ce90613117565b60006001600160a01b0384163b15611f75576040517f150b7a020000000000000000000000000000000000000000000000000000000081526001600160a01b0385169063150b7a0290611e86903390899088908890600401613084565b602060405180830381600087803b158015611ea057600080fd5b505af1925050508015611ed0575060408051601f3d908101601f19168201909252611ecd91810190612560565b60015b611f2a573d808015611efe576040519150601f19603f3d011682016040523d82523d6000602084013e611f03565b606091505b508051611f225760405162461bcd60e51b81526004016109ce90613117565b805181602001fd5b7fffffffff00000000000000000000000000000000000000000000000000000000167f150b7a0200000000000000000000000000000000000000000000000000000000149050611aad565b506001949350505050565b60006001611f8d84610f3d565b611f9791906133f3565b600083815260076020526040902054909150808214611fea576001600160a01b03841660009081526006602090815260408083208584528252808320548484528184208190558352600790915290208190555b5060009182526007602090815260408084208490556001600160a01b039094168352600681528383209183525290812055565b60085460009061202f906001906133f3565b6000838152600960205260408120546008805493945090928490811061206557634e487b7160e01b600052603260045260246000fd5b90600052602060002001549050806008838154811061209457634e487b7160e01b600052603260045260246000fd5b60009182526020808320909101929092558281526009909152604080822084905585825281205560088054806120da57634e487b7160e01b600052603160045260246000fd5b6001900381819060005260206000200160009055905550505050565b600061210183610f3d565b6001600160a01b039093166000908152600660209081526040808320868452825280832085905593825260079052919091209190915550565b6001600160a01b0382166121605760405162461bcd60e51b81526004016109ce906131f7565b6000818152600260205260409020546001600160a01b0316156121955760405162461bcd60e51b81526004016109ce90613137565b6121a160008383611d3e565b6001600160a01b03821660009081526003602052604081208054600192906121ca9084906133bc565b9091555050600081815260026020526040808220805473ffffffffffffffffffffffffffffffffffffffff19166001600160a01b03861690811790915590518392907fddf252ad1be2c89b69c2b068fc378daa952ba7f163c4a11628f55a4df523b3ef908290a45050565b60006122486122438461336d565b613356565b9050808382526020820190508285602086028501111561226757600080fd5b60005b858110156122915761227c8783612305565b8352602092830192919091019060010161226a565b5050509392505050565b60006122a961224384613391565b9050828152602081018484840111156122c157600080fd5b6122cc84828561341b565b509392505050565b60006122e261224384613391565b9050828152602081018484840111156122fa57600080fd5b6122cc848285613427565b803561090281613524565b600082601f830112612320578081fd5b8135611aad848260208601612235565b803561090281613538565b803561090281613540565b805161090281613540565b600082601f830112612361578081fd5b8135611aad84826020860161229b565b600082601f830112612381578081fd5b8151611aad8482602086016122d4565b803561090281613568565b6000602082840312156123ad578081fd5b61159b83828401612305565b600080604083850312156123cb578081fd5b6123d784828501612305565b915060206123e785828601612305565b9150509250929050565b600080600060608486031215612405578081fd5b61241185828601612305565b9250602061242186828701612305565b925050604061243286828701612391565b9150509250925092565b60008060008060808587031215612451578081fd5b61245d86828701612305565b9350602061246d87828801612305565b935050604061247e87828801612391565b925050606085013567ffffffffffffffff81111561249a578182fd5b6124a687828801612351565b91505092959194509250565b600080604083850312156124c4578182fd5b6124d084838501612305565b915060206123e785828601612330565b600080604083850312156124f2578182fd5b6124fe84838501612305565b915060206123e785828601612391565b60006020828403121561251f578081fd5b8082013567ffffffffffffffff811115612537578182fd5b611aad84828501612310565b600060208284031215612554578081fd5b61159b8382840161233b565b600060208284031215612571578081fd5b61159b83828401612346565b60006020828403121561258e578081fd5b8082013567ffffffffffffffff8111156125a6578182fd5b611aad84828501612351565b6000602082840312156125c3578081fd5b8082015167ffffffffffffffff8111156125db578182fd5b611aad84828501612371565b6000602082840312156125f8578081fd5b61159b83828401612391565b60008060408385031215612616578182fd5b6124fe84838501612391565b61262b8161340a565b82525050565b61262b61263d8261340a565b6134d0565b80151561262b565b6000612654825190565b80845260208401935061266b818560208601613427565b601f01601f19169290920192915050565b6000612686825190565b612694818560208601613427565b9290920192915050565b602b8152602081017f4d6178204561726c792041636365737320636f756e742070657220616464726581527f7373206578636565646564000000000000000000000000000000000000000000602082015290505b60400190565b601c8152602081017f416c6c2052756e6e6572732068617665206265656e206d696e74656400000000815290505b60200190565b602b8152602081017f455243373231456e756d657261626c653a206f776e657220696e646578206f7581527f74206f6620626f756e6473000000000000000000000000000000000000000000602082015290506126f2565b60328152602081017f4552433732313a207472616e7366657220746f206e6f6e20455243373231526581527f63656976657220696d706c656d656e7465720000000000000000000000000000602082015290506126f2565b60268152602081017f4f776e61626c653a206e6577206f776e657220697320746865207a65726f206181527f6464726573730000000000000000000000000000000000000000000000000000602082015290506126f2565b601c8152602081017f4552433732313a20746f6b656e20616c7265616479206d696e7465640000000081529050612726565b601e8152602081017f496e636f727265637420616d6f756e74206f662065746865722073656e74000081529050612726565b60248152602081017f4552433732313a207472616e7366657220746f20746865207a65726f2061646481527f7265737300000000000000000000000000000000000000000000000000000000602082015290506126f2565b60198152602081017f4552433732313a20617070726f766520746f2063616c6c65720000000000000081529050612726565b60238152602081017f52756e6e6572205a65726f20686173206e6f74206265656e20636f6e6669677581527f7265640000000000000000000000000000000000000000000000000000000000602082015290506126f2565b602c8152602081017f4552433732313a206f70657261746f7220717565727920666f72206e6f6e657881527f697374656e7420746f6b656e0000000000000000000000000000000000000000602082015290506126f2565b60148152602081017f496e76616c69642052756e6e657220636f756e7400000000000000000000000081529050612726565b60388152602081017f4552433732313a20617070726f76652063616c6c6572206973206e6f74206f7781527f6e6572206e6f7220617070726f76656420666f7220616c6c0000000000000000602082015290506126f2565b602a8152602081017f596f752063616e6e6f74206d696e742074686973206d616e792072657365727681527f65642052756e6e65727300000000000000000000000000000000000000000000602082015290506126f2565b602a8152602081017f4552433732313a2062616c616e636520717565727920666f7220746865207a6581527f726f206164647265737300000000000000000000000000000000000000000000602082015290506126f2565b60298152602081017f4552433732313a206f776e657220717565727920666f72206e6f6e657869737481527f656e7420746f6b656e0000000000000000000000000000000000000000000000602082015290506126f2565b600e8152602081017f496e636f7272656374207365656400000000000000000000000000000000000081529050612726565b60208082527f4552433732313a206d696e7420746f20746865207a65726f20616464726573739101908152612726565b602c8152602081017f4552433732313a20617070726f76656420717565727920666f72206e6f6e657881527f697374656e7420746f6b656e0000000000000000000000000000000000000000602082015290506126f2565b60258152602081017f416c6c2072657365727665642052756e6e6572732068617665206265656e206d81527f696e746564000000000000000000000000000000000000000000000000000000602082015290506126f2565b60208082527f4f776e61626c653a2063616c6c6572206973206e6f7420746865206f776e65729101908152612726565b60298152602081017f4552433732313a207472616e73666572206f6620746f6b656e2074686174206981527f73206e6f74206f776e0000000000000000000000000000000000000000000000602082015290506126f2565b602f8152602081017f4552433732314d657461646174613a2055524920717565727920666f72206e6f81527f6e6578697374656e7420746f6b656e0000000000000000000000000000000000602082015290506126f2565b60208082527f41646472657373206e6f74206f6e204561726c7920416363657373206c6973749101908152612726565b60218152602081017f4552433732313a20617070726f76616c20746f2063757272656e74206f776e6581527f7200000000000000000000000000000000000000000000000000000000000000602082015290506126f2565b60158152602081017f4561726c7920616363657373206e6f74206f70656e000000000000000000000081529050612726565b60318152602081017f4552433732313a207472616e736665722063616c6c6572206973206e6f74206f81527f776e6572206e6f7220617070726f766564000000000000000000000000000000602082015290506126f2565b602c8152602081017f455243373231456e756d657261626c653a20676c6f62616c20696e646578206f81527f7574206f6620626f756e64730000000000000000000000000000000000000000602082015290506126f2565b60148152602081017f5075626c69632073616c65206e6f74206f70656e00000000000000000000000081529050612726565b601f8152602081017f5265656e7472616e637947756172643a207265656e7472616e742063616c6c0081529050612726565b60118152602081017f5769746864726177616c206661696c656400000000000000000000000000000081529050612726565b60238152602081017f52756e6e6572205a65726f2068617320616c7265616479206265656e206d696e81527f7465640000000000000000000000000000000000000000000000000000000000602082015290506126f2565b60278152602081017f52756e6e6572205a65726f2068617320616c7265616479206265656e20636f6e81527f6669677572656400000000000000000000000000000000000000000000000000602082015290506126f2565b8051610a748382613025565b805461301d81613480565b9050610a7483825b8061262b565b610902818361267c565b919050565b6130448186613025565b6020016130518185612631565b60140161305e8184613025565b60200161306b8183613025565b602001949350505050565b602081016109028284612622565b608081016130928287612622565b61309f6020830186612622565b6130ac6040830185613025565b81810360608301526130be818461264a565b9695505050505050565b602081016109028284612642565b6020808252810161159b818461264a565b602080825281016109028161269e565b60208082528101610902816126f8565b602080825281016109028161272c565b6020808252810161090281612784565b60208082528101610902816127dc565b6020808252810161090281612834565b6020808252810161090281612866565b6020808252810161090281612898565b60208082528101610902816128f0565b6020808252810161090281612922565b602080825281016109028161297a565b60208082528101610902816129d2565b6020808252810161090281612a04565b6020808252810161090281612a5c565b6020808252810161090281612ab4565b6020808252810161090281612b0c565b6020808252810161090281612b64565b6020808252810161090281612b96565b6020808252810161090281612bc6565b6020808252810161090281612c1e565b6020808252810161090281612c76565b6020808252810161090281612ca6565b6020808252810161090281612cfe565b6020808252810161090281612d56565b6020808252810161090281612d86565b6020808252810161090281612dde565b6020808252810161090281612e10565b6020808252810161090281612e68565b6020808252810161090281612ec0565b6020808252810161090281612ef2565b6020808252810161090281612f24565b6020808252810161090281612f56565b6020808252810161090281612fae565b602081016109028284613025565b604081016133138285613025565b61159b6020830184613006565b6040810161332e8285613025565b61159b6020830184613012565b604081016133498285613025565b61159b6020830184613025565b600061336160405190565b90506130358282613488565b600067ffffffffffffffff8211156133875761338761350e565b5060209081020190565b600067ffffffffffffffff8211156133ab576133ab61350e565b601f19601f83011660200192915050565b600082198211156133cf576133cf6134e2565b500190565b60008160001904831182151516156133ee576133ee6134e2565b500290565b600082821015613405576134056134e2565b500390565b60006001600160a01b038216610902565b82818337506000910152565b60005b8381101561344257818101518382015260200161342a565b838111156113a95750506000910152565b60028104600182168061346757607f821691505b6020821081141561347a5761347a6134f8565b50919050565b600081610902565b601f19601f830116810181811067ffffffffffffffff821117156134ae576134ae61350e565b6040525050565b60006000198214156134c9576134c96134e2565b5060010190565b60006109028260006109028260601b90565b634e487b7160e01b600052601160045260246000fd5b634e487b7160e01b600052602260045260246000fd5b634e487b7160e01b600052604160045260246000fd5b61352d8161340a565b8114610c2a57600080fd5b80151561352d565b7fffffffff00000000000000000000000000000000000000000000000000000000811661352d565b8061352d56fea2646970667358221220dc8c7f6fab5e487883073d05799bfcbde5d8ef67aef37c87d70e469eafb856cb64736f6c63430008040033",
  "devdoc": {
    "kind": "dev",
    "methods": {
      "approve(address,uint256)": {
        "details": "See {IERC721-approve}."
      },
      "balanceOf(address)": {
        "details": "See {IERC721-balanceOf}."
      },
      "getApproved(uint256)": {
        "details": "See {IERC721-getApproved}."
      },
      "isApprovedForAll(address,address)": {
        "details": "See {IERC721-isApprovedForAll}."
      },
      "name()": {
        "details": "See {IERC721Metadata-name}."
      },
      "owner()": {
        "details": "Returns the address of the current owner."
      },
      "ownerOf(uint256)": {
        "details": "See {IERC721-ownerOf}."
      },
      "renounceOwnership()": {
        "details": "Leaves the contract without owner. It will not be possible to call `onlyOwner` functions anymore. Can only be called by the current owner. NOTE: Renouncing ownership will leave the contract without an owner, thereby removing any functionality that is only available to the owner."
      },
      "safeTransferFrom(address,address,uint256)": {
        "details": "See {IERC721-safeTransferFrom}."
      },
      "safeTransferFrom(address,address,uint256,bytes)": {
        "details": "See {IERC721-safeTransferFrom}."
      },
      "setApprovalForAll(address,bool)": {
        "details": "See {IERC721-setApprovalForAll}."
      },
      "supportsInterface(bytes4)": {
        "details": "See {IERC165-supportsInterface}."
      },
      "symbol()": {
        "details": "See {IERC721Metadata-symbol}."
      },
      "tokenByIndex(uint256)": {
        "details": "See {IERC721Enumerable-tokenByIndex}."
      },
      "tokenOfOwnerByIndex(address,uint256)": {
        "details": "See {IERC721Enumerable-tokenOfOwnerByIndex}."
      },
      "totalSupply()": {
        "details": "See {IERC721Enumerable-totalSupply}."
      },
      "transferFrom(address,address,uint256)": {
        "details": "See {IERC721-transferFrom}."
      },
      "transferOwnership(address)": {
        "details": "Transfers ownership of the contract to a new account (`newOwner`). Can only be called by the current owner."
      }
    },
    "version": 1
  },
  "userdoc": {
    "kind": "user",
    "methods": {},
    "version": 1
  },
  "storageLayout": {
    "storage": [
      {
        "astId": 1802,
        "contract": "contracts/runners/ChainRunners.sol:ChainRunners",
        "label": "_name",
        "offset": 0,
        "slot": "0",
        "type": "t_string_storage"
      },
      {
        "astId": 1804,
        "contract": "contracts/runners/ChainRunners.sol:ChainRunners",
        "label": "_symbol",
        "offset": 0,
        "slot": "1",
        "type": "t_string_storage"
      },
      {
        "astId": 1808,
        "contract": "contracts/runners/ChainRunners.sol:ChainRunners",
        "label": "_owners",
        "offset": 0,
        "slot": "2",
        "type": "t_mapping(t_uint256,t_address)"
      },
      {
        "astId": 1812,
        "contract": "contracts/runners/ChainRunners.sol:ChainRunners",
        "label": "_balances",
        "offset": 0,
        "slot": "3",
        "type": "t_mapping(t_address,t_uint256)"
      },
      {
        "astId": 1816,
        "contract": "contracts/runners/ChainRunners.sol:ChainRunners",
        "label": "_tokenApprovals",
        "offset": 0,
        "slot": "4",
        "type": "t_mapping(t_uint256,t_address)"
      },
      {
        "astId": 1822,
        "contract": "contracts/runners/ChainRunners.sol:ChainRunners",
        "label": "_operatorApprovals",
        "offset": 0,
        "slot": "5",
        "type": "t_mapping(t_address,t_mapping(t_address,t_bool))"
      },
      {
        "astId": 2756,
        "contract": "contracts/runners/ChainRunners.sol:ChainRunners",
        "label": "_ownedTokens",
        "offset": 0,
        "slot": "6",
        "type": "t_mapping(t_address,t_mapping(t_uint256,t_uint256))"
      },
      {
        "astId": 2760,
        "contract": "contracts/runners/ChainRunners.sol:ChainRunners",
        "label": "_ownedTokensIndex",
        "offset": 0,
        "slot": "7",
        "type": "t_mapping(t_uint256,t_uint256)"
      },
      {
        "astId": 2763,
        "contract": "contracts/runners/ChainRunners.sol:ChainRunners",
        "label": "_allTokens",
        "offset": 0,
        "slot": "8",
        "type": "t_array(t_uint256)dyn_storage"
      },
      {
        "astId": 2767,
        "contract": "contracts/runners/ChainRunners.sol:ChainRunners",
        "label": "_allTokensIndex",
        "offset": 0,
        "slot": "9",
        "type": "t_mapping(t_uint256,t_uint256)"
      },
      {
        "astId": 225,
        "contract": "contracts/runners/ChainRunners.sol:ChainRunners",
        "label": "_owner",
        "offset": 0,
        "slot": "10",
        "type": "t_address"
      },
      {
        "astId": 425,
        "contract": "contracts/runners/ChainRunners.sol:ChainRunners",
        "label": "_status",
        "offset": 0,
        "slot": "11",
        "type": "t_uint256"
      },
      {
        "astId": 8115,
        "contract": "contracts/runners/ChainRunners.sol:ChainRunners",
        "label": "runners",
        "offset": 0,
        "slot": "12",
        "type": "t_mapping(t_uint256,t_struct(ChainRunner)12983_storage)"
      },
      {
        "astId": 8117,
        "contract": "contracts/runners/ChainRunners.sol:ChainRunners",
        "label": "renderingContractAddress",
        "offset": 0,
        "slot": "13",
        "type": "t_address"
      },
      {
        "astId": 8130,
        "contract": "contracts/runners/ChainRunners.sol:ChainRunners",
        "label": "_tokenIds",
        "offset": 0,
        "slot": "14",
        "type": "t_struct(Counter)3462_storage"
      },
      {
        "astId": 8133,
        "contract": "contracts/runners/ChainRunners.sol:ChainRunners",
        "label": "_reservedTokenIds",
        "offset": 0,
        "slot": "15",
        "type": "t_struct(Counter)3462_storage"
      },
      {
        "astId": 8155,
        "contract": "contracts/runners/ChainRunners.sol:ChainRunners",
        "label": "runnerZeroHash",
        "offset": 0,
        "slot": "16",
        "type": "t_uint256"
      },
      {
        "astId": 8157,
        "contract": "contracts/runners/ChainRunners.sol:ChainRunners",
        "label": "runnerZeroDNA",
        "offset": 0,
        "slot": "17",
        "type": "t_uint256"
      },
      {
        "astId": 8159,
        "contract": "contracts/runners/ChainRunners.sol:ChainRunners",
        "label": "earlyAccessStartTimestamp",
        "offset": 0,
        "slot": "18",
        "type": "t_uint256"
      },
      {
        "astId": 8161,
        "contract": "contracts/runners/ChainRunners.sol:ChainRunners",
        "label": "publicSaleStartTimestamp",
        "offset": 0,
        "slot": "19",
        "type": "t_uint256"
      },
      {
        "astId": 8165,
        "contract": "contracts/runners/ChainRunners.sol:ChainRunners",
        "label": "isOnEarlyAccessList",
        "offset": 0,
        "slot": "20",
        "type": "t_mapping(t_address,t_bool)"
      },
      {
        "astId": 8169,
        "contract": "contracts/runners/ChainRunners.sol:ChainRunners",
        "label": "earlyAccessMintedCounts",
        "offset": 0,
        "slot": "21",
        "type": "t_mapping(t_address,t_uint256)"
      },
      {
        "astId": 8173,
        "contract": "contracts/runners/ChainRunners.sol:ChainRunners",
        "label": "founderMintCountsRemaining",
        "offset": 0,
        "slot": "22",
        "type": "t_mapping(t_address,t_uint256)"
      }
    ],
    "types": {
      "t_address": {
        "encoding": "inplace",
        "label": "address",
        "numberOfBytes": "20"
      },
      "t_array(t_uint256)dyn_storage": {
        "base": "t_uint256",
        "encoding": "dynamic_array",
        "label": "uint256[]",
        "numberOfBytes": "32"
      },
      "t_bool": {
        "encoding": "inplace",
        "label": "bool",
        "numberOfBytes": "1"
      },
      "t_mapping(t_address,t_bool)": {
        "encoding": "mapping",
        "key": "t_address",
        "label": "mapping(address => bool)",
        "numberOfBytes": "32",
        "value": "t_bool"
      },
      "t_mapping(t_address,t_mapping(t_address,t_bool))": {
        "encoding": "mapping",
        "key": "t_address",
        "label": "mapping(address => mapping(address => bool))",
        "numberOfBytes": "32",
        "value": "t_mapping(t_address,t_bool)"
      },
      "t_mapping(t_address,t_mapping(t_uint256,t_uint256))": {
        "encoding": "mapping",
        "key": "t_address",
        "label": "mapping(address => mapping(uint256 => uint256))",
        "numberOfBytes": "32",
        "value": "t_mapping(t_uint256,t_uint256)"
      },
      "t_mapping(t_address,t_uint256)": {
        "encoding": "mapping",
        "key": "t_address",
        "label": "mapping(address => uint256)",
        "numberOfBytes": "32",
        "value": "t_uint256"
      },
      "t_mapping(t_uint256,t_address)": {
        "encoding": "mapping",
        "key": "t_uint256",
        "label": "mapping(uint256 => address)",
        "numberOfBytes": "32",
        "value": "t_address"
      },
      "t_mapping(t_uint256,t_struct(ChainRunner)12983_storage)": {
        "encoding": "mapping",
        "key": "t_uint256",
        "label": "mapping(uint256 => struct ChainRunnersTypes.ChainRunner)",
        "numberOfBytes": "32",
        "value": "t_struct(ChainRunner)12983_storage"
      },
      "t_mapping(t_uint256,t_uint256)": {
        "encoding": "mapping",
        "key": "t_uint256",
        "label": "mapping(uint256 => uint256)",
        "numberOfBytes": "32",
        "value": "t_uint256"
      },
      "t_string_storage": {
        "encoding": "bytes",
        "label": "string",
        "numberOfBytes": "32"
      },
      "t_struct(ChainRunner)12983_storage": {
        "encoding": "inplace",
        "label": "struct ChainRunnersTypes.ChainRunner",
        "members": [
          {
            "astId": 12982,
            "contract": "contracts/runners/ChainRunners.sol:ChainRunners",
            "label": "dna",
            "offset": 0,
            "slot": "0",
            "type": "t_uint256"
          }
        ],
        "numberOfBytes": "32"
      },
      "t_struct(Counter)3462_storage": {
        "encoding": "inplace",
        "label": "struct Counters.Counter",
        "members": [
          {
            "astId": 3461,
            "contract": "contracts/runners/ChainRunners.sol:ChainRunners",
            "label": "_value",
            "offset": 0,
            "slot": "0",
            "type": "t_uint256"
          }
        ],
        "numberOfBytes": "32"
      },
      "t_uint256": {
        "encoding": "inplace",
        "label": "uint256",
        "numberOfBytes": "32"
      }
    }
  }
}