{
  "address": "0xF32D39ff9f6Aa7a7A64d7a4F00a54826Ef791a55",
  "abi": [
    {
      "inputs": [
        {
          "internalType": "string",
          "name": "name_",
          "type": "string"
        },
        {
          "internalType": "string",
          "name": "symbol_",
          "type": "string"
        }
      ],
      "stateMutability": "nonpayable",
      "type": "constructor"
    },
    {
      "anonymous": false,
      "inputs": [
        {
          "indexed": true,
          "internalType": "address",
          "name": "owner",
          "type": "address"
        },
        {
          "indexed": true,
          "internalType": "address",
          "name": "approved",
          "type": "address"
        },
        {
          "indexed": true,
          "internalType": "uint256",
          "name": "tokenId",
          "type": "uint256"
        }
      ],
      "name": "Approval",
      "type": "event"
    },
    {
      "anonymous": false,
      "inputs": [
        {
          "indexed": true,
          "internalType": "address",
          "name": "owner",
          "type": "address"
        },
        {
          "indexed": true,
          "internalType": "address",
          "name": "operator",
          "type": "address"
        },
        {
          "indexed": false,
          "internalType": "bool",
          "name": "approved",
          "type": "bool"
        }
      ],
      "name": "ApprovalForAll",
      "type": "event"
    },
    {
      "anonymous": false,
      "inputs": [
        {
          "indexed": true,
          "internalType": "address",
          "name": "previousOwner",
          "type": "address"
        },
        {
          "indexed": true,
          "internalType": "address",
          "name": "newOwner",
          "type": "address"
        }
      ],
      "name": "OwnershipTransferred",
      "type": "event"
    },
    {
      "anonymous": false,
      "inputs": [
        {
          "indexed": true,
          "internalType": "address",
          "name": "from",
          "type": "address"
        },
        {
          "indexed": true,
          "internalType": "address",
          "name": "to",
          "type": "address"
        },
        {
          "indexed": true,
          "internalType": "uint256",
          "name": "tokenId",
          "type": "uint256"
        }
      ],
      "name": "Transfer",
      "type": "event"
    },
    {
      "inputs": [],
      "name": "MINT_PUBLIC_PRICE",
      "outputs": [
        {
          "internalType": "uint256",
          "name": "",
          "type": "uint256"
        }
      ],
      "stateMutability": "view",
      "type": "function"
    },
    {
      "inputs": [
        {
          "internalType": "address",
          "name": "to",
          "type": "address"
        },
        {
          "internalType": "uint256",
          "name": "tokenId",
          "type": "uint256"
        }
      ],
      "name": "approve",
      "outputs": [],
      "stateMutability": "nonpayable",
      "type": "function"
    },
    {
      "inputs": [
        {
          "internalType": "address",
          "name": "owner",
          "type": "address"
        }
      ],
      "name": "balanceOf",
      "outputs": [
        {
          "internalType": "uint256",
          "name": "",
          "type": "uint256"
        }
      ],
      "stateMutability": "view",
      "type": "function"
    },
    {
      "inputs": [],
      "name": "candyShopAddress",
      "outputs": [
        {
          "internalType": "address",
          "name": "",
          "type": "address"
        }
      ],
      "stateMutability": "view",
      "type": "function"
    },
    {
      "inputs": [],
      "name": "chainRunnersAddress",
      "outputs": [
        {
          "internalType": "address",
          "name": "",
          "type": "address"
        }
      ],
      "stateMutability": "view",
      "type": "function"
    },
    {
      "inputs": [
        {
          "internalType": "uint256",
          "name": "",
          "type": "uint256"
        }
      ],
      "name": "dreamers",
      "outputs": [
        {
          "internalType": "uint8",
          "name": "candy",
          "type": "uint8"
        }
      ],
      "stateMutability": "view",
      "type": "function"
    },
    {
      "inputs": [
        {
          "internalType": "uint256",
          "name": "tokenId",
          "type": "uint256"
        }
      ],
      "name": "getApproved",
      "outputs": [
        {
          "internalType": "address",
          "name": "",
          "type": "address"
        }
      ],
      "stateMutability": "view",
      "type": "function"
    },
    {
      "inputs": [
        {
          "internalType": "address",
          "name": "owner",
          "type": "address"
        },
        {
          "internalType": "address",
          "name": "operator",
          "type": "address"
        }
      ],
      "name": "isApprovedForAll",
      "outputs": [
        {
          "internalType": "bool",
          "name": "",
          "type": "bool"
        }
      ],
      "stateMutability": "view",
      "type": "function"
    },
    {
      "inputs": [],
      "name": "isPublicSaleOpen",
      "outputs": [
        {
          "internalType": "bool",
          "name": "",
          "type": "bool"
        }
      ],
      "stateMutability": "view",
      "type": "function"
    },
    {
      "inputs": [],
      "name": "maxDreamersMintPublicSale",
      "outputs": [
        {
          "internalType": "uint256",
          "name": "",
          "type": "uint256"
        }
      ],
      "stateMutability": "view",
      "type": "function"
    },
    {
      "inputs": [
        {
          "internalType": "bytes",
          "name": "tokenIds",
          "type": "bytes"
        },
        {
          "internalType": "bytes",
          "name": "ownerTokenIndexes",
          "type": "bytes"
        }
      ],
      "name": "mintBatchPublicSale",
      "outputs": [
        {
          "internalType": "bool",
          "name": "",
          "type": "bool"
        }
      ],
      "stateMutability": "payable",
      "type": "function"
    },
    {
      "inputs": [
        {
          "internalType": "bytes",
          "name": "tokenIds",
          "type": "bytes"
        },
        {
          "internalType": "bytes",
          "name": "ownerTokenIndexes",
          "type": "bytes"
        },
        {
          "internalType": "bytes",
          "name": "candyIdsBytes",
          "type": "bytes"
        },
        {
          "internalType": "uint256[]",
          "name": "candyIds",
          "type": "uint256[]"
        },
        {
          "internalType": "uint256[]",
          "name": "candyAmounts",
          "type": "uint256[]"
        }
      ],
      "name": "mintBatchRunnersAccess",
      "outputs": [
        {
          "internalType": "bool",
          "name": "",
          "type": "bool"
        }
      ],
      "stateMutability": "nonpayable",
      "type": "function"
    },
    {
      "inputs": [],
      "name": "name",
      "outputs": [
        {
          "internalType": "string",
          "name": "",
          "type": "string"
        }
      ],
      "stateMutability": "view",
      "type": "function"
    },
    {
      "inputs": [],
      "name": "owner",
      "outputs": [
        {
          "internalType": "address",
          "name": "",
          "type": "address"
        }
      ],
      "stateMutability": "view",
      "type": "function"
    },
    {
      "inputs": [
        {
          "internalType": "uint256",
          "name": "tokenId",
          "type": "uint256"
        }
      ],
      "name": "ownerOf",
      "outputs": [
        {
          "internalType": "address",
          "name": "",
          "type": "address"
        }
      ],
      "stateMutability": "view",
      "type": "function"
    },
    {
      "inputs": [],
      "name": "publicSaleStartTimestamp",
      "outputs": [
        {
          "internalType": "uint256",
          "name": "",
          "type": "uint256"
        }
      ],
      "stateMutability": "view",
      "type": "function"
    },
    {
      "inputs": [],
      "name": "renderingContractAddress",
      "outputs": [
        {
          "internalType": "address",
          "name": "",
          "type": "address"
        }
      ],
      "stateMutability": "view",
      "type": "function"
    },
    {
      "inputs": [],
      "name": "renounceOwnership",
      "outputs": [],
      "stateMutability": "nonpayable",
      "type": "function"
    },
    {
      "inputs": [
        {
          "internalType": "address",
          "name": "from",
          "type": "address"
        },
        {
          "internalType": "address",
          "name": "to",
          "type": "address"
        },
        {
          "internalType": "uint256",
          "name": "tokenId",
          "type": "uint256"
        }
      ],
      "name": "safeTransferFrom",
      "outputs": [],
      "stateMutability": "nonpayable",
      "type": "function"
    },
    {
      "inputs": [
        {
          "internalType": "address",
          "name": "from",
          "type": "address"
        },
        {
          "internalType": "address",
          "name": "to",
          "type": "address"
        },
        {
          "internalType": "uint256",
          "name": "tokenId",
          "type": "uint256"
        },
        {
          "internalType": "bytes",
          "name": "_data",
          "type": "bytes"
        }
      ],
      "name": "safeTransferFrom",
      "outputs": [],
      "stateMutability": "nonpayable",
      "type": "function"
    },
    {
      "inputs": [
        {
          "internalType": "address",
          "name": "operator",
          "type": "address"
        },
        {
          "internalType": "bool",
          "name": "approved",
          "type": "bool"
        }
      ],
      "name": "setApprovalForAll",
      "outputs": [],
      "stateMutability": "nonpayable",
      "type": "function"
    },
    {
      "inputs": [
        {
          "internalType": "address",
          "name": "_candyShopContractAddress",
          "type": "address"
        }
      ],
      "name": "setCandyShopAddress",
      "outputs": [],
      "stateMutability": "nonpayable",
      "type": "function"
    },
    {
      "inputs": [
        {
          "internalType": "address",
          "name": "_chainRunnersContractAddress",
          "type": "address"
        }
      ],
      "name": "setChainRunnersContractAddress",
      "outputs": [],
      "stateMutability": "nonpayable",
      "type": "function"
    },
    {
      "inputs": [
        {
          "internalType": "uint256",
          "name": "_maxDreamersMintPublicSale",
          "type": "uint256"
        }
      ],
      "name": "setMaxDreamersMintPublicSale",
      "outputs": [],
      "stateMutability": "nonpayable",
      "type": "function"
    },
    {
      "inputs": [
        {
          "internalType": "uint256",
          "name": "timestamp",
          "type": "uint256"
        }
      ],
      "name": "setPublicSaleTimestamp",
      "outputs": [],
      "stateMutability": "nonpayable",
      "type": "function"
    },
    {
      "inputs": [
        {
          "internalType": "address",
          "name": "_renderingContractAddress",
          "type": "address"
        }
      ],
      "name": "setRenderingContractAddress",
      "outputs": [],
      "stateMutability": "nonpayable",
      "type": "function"
    },
    {
      "inputs": [
        {
          "internalType": "bytes4",
          "name": "interfaceId",
          "type": "bytes4"
        }
      ],
      "name": "supportsInterface",
      "outputs": [
        {
          "internalType": "bool",
          "name": "",
          "type": "bool"
        }
      ],
      "stateMutability": "view",
      "type": "function"
    },
    {
      "inputs": [],
      "name": "symbol",
      "outputs": [
        {
          "internalType": "string",
          "name": "",
          "type": "string"
        }
      ],
      "stateMutability": "view",
      "type": "function"
    },
    {
      "inputs": [
        {
          "internalType": "uint256",
          "name": "index",
          "type": "uint256"
        }
      ],
      "name": "tokenByIndex",
      "outputs": [
        {
          "internalType": "uint256",
          "name": "",
          "type": "uint256"
        }
      ],
      "stateMutability": "view",
      "type": "function"
    },
    {
      "inputs": [
        {
          "internalType": "address",
          "name": "owner",
          "type": "address"
        },
        {
          "internalType": "uint256",
          "name": "index",
          "type": "uint256"
        }
      ],
      "name": "tokenOfOwnerByIndex",
      "outputs": [
        {
          "internalType": "uint256",
          "name": "",
          "type": "uint256"
        }
      ],
      "stateMutability": "view",
      "type": "function"
    },
    {
      "inputs": [
        {
          "internalType": "uint256",
          "name": "_tokenId",
          "type": "uint256"
        }
      ],
      "name": "tokenURI",
      "outputs": [
        {
          "internalType": "string",
          "name": "",
          "type": "string"
        }
      ],
      "stateMutability": "view",
      "type": "function"
    },
    {
      "inputs": [],
      "name": "totalSupply",
      "outputs": [
        {
          "internalType": "uint256",
          "name": "",
          "type": "uint256"
        }
      ],
      "stateMutability": "view",
      "type": "function"
    },
    {
      "inputs": [
        {
          "internalType": "address",
          "name": "from",
          "type": "address"
        },
        {
          "internalType": "address",
          "name": "to",
          "type": "address"
        },
        {
          "internalType": "uint256",
          "name": "tokenId",
          "type": "uint256"
        }
      ],
      "name": "transferFrom",
      "outputs": [],
      "stateMutability": "nonpayable",
      "type": "function"
    },
    {
      "inputs": [
        {
          "internalType": "address",
          "name": "newOwner",
          "type": "address"
        }
      ],
      "name": "transferOwnership",
      "outputs": [],
      "stateMutability": "nonpayable",
      "type": "function"
    },
    {
      "inputs": [],
      "name": "withdraw",
      "outputs": [],
      "stateMutability": "nonpayable",
      "type": "function"
    },
    {
      "stateMutability": "payable",
      "type": "receive"
    }
  ],
  "transactionHash": "0xdbdd70ef4ec2659f975d526855e446a1360e286e11508f5d5cc2f89bab007c2b",
  "args": [
    "Chain Dreamers",
    "DRE"
  ],
  "numDeployments": 1,
  "solcInputHash": "0464b55ace3cba2f67d8122017481bf4",
  "bytecode": "0x60806040523480156200001157600080fd5b5060405162004607380380620046078339810160408190526200003491620001f9565b8151829082906200004d906000906020850190620000e3565b50805162000063906001906020840190620000e3565b505050620000806200007a6200008d60201b60201c565b62000091565b50506001600c5562000373565b3390565b600b80546001600160a01b038381166001600160a01b0319831681179093556040519116919082907f8be0079c531659141344cd1fd0a4f28419497f9722a3daafe3b4186f6b6457e090600090a35050565b828054620000f190620002e7565b90600052602060002090601f01602090048101928262000115576000855562000160565b82601f106200013057805160ff191683800117855562000160565b8280016001018555821562000160579182015b828111156200016057825182559160200191906001019062000143565b506200016e92915062000172565b5090565b5b808211156200016e576000815560010162000173565b6000620001a06200019a8462000287565b62000268565b905082815260208101848484011115620001b957600080fd5b620001c6848285620002b4565b509392505050565b600082601f830112620001df578081fd5b8151620001f184826020860162000189565b949350505050565b600080604083850312156200020c578182fd5b828201516001600160401b0381111562000224578283fd5b6200023285828601620001ce565b602085015190935090506001600160401b0381111562000250578182fd5b6200025e85828601620001ce565b9150509250929050565b60006200027460405190565b905062000282828262000318565b919050565b60006001600160401b03821115620002a357620002a36200035d565b601f19601f83011660200192915050565b60005b83811015620002d1578181015183820152602001620002b7565b83811115620002e1576000848401525b50505050565b600281046001821680620002fc57607f821691505b6020821081141562000312576200031262000347565b50919050565b601f19601f83011681016001600160401b03811182821017156200034057620003406200035d565b6040525050565b634e487b7160e01b600052602260045260246000fd5b634e487b7160e01b600052604160045260246000fd5b61428480620003836000396000f3fe6080604052600436106102385760003560e01c80636b318e6e11610138578063b5fcb339116100b0578063d3d6005b1161007f578063e985e9c511610064578063e985e9c514610636578063f2fde38b1461067f578063fac913231461069f57600080fd5b8063d3d6005b14610600578063d7822c991461062057600080fd5b8063b5fcb33914610580578063b88d4fde146105a0578063c074f412146105c0578063c87b56dd146105e057600080fd5b80638da5cb5b1161010757806395d89b41116100ec57806395d89b41146105305780639c51792a14610545578063a22cb4651461056057600080fd5b80638da5cb5b146104f257806395a97a631461051057600080fd5b80636b318e6e1461048757806370a082311461049d578063715018a6146104bd5780638392d804146104d257600080fd5b80631a6949e3116101cb5780633ccfd60b1161019a5780634f6ccce71161017f5780634f6ccce714610427578063511a9605146104475780636352211e1461046757600080fd5b80633ccfd60b146103f257806342842e0e1461040757600080fd5b80631a6949e31461038a57806323b872dd1461039f5780632a133e35146103bf5780632f745c59146103d257600080fd5b8063095ea7b311610207578063095ea7b3146103065780630d77c7561461032857806312b40a9f1461034857806318160ddd1461036857600080fd5b806301ffc9a71461024457806306fdde031461027a57806307c5bde31461029c578063081812fc146102d957600080fd5b3661023f57005b600080fd5b34801561025057600080fd5b5061026461025f366004612da8565b6106bf565b6040516102719190613ce6565b60405180910390f35b34801561028657600080fd5b5061028f61071b565b6040516102719190613cf4565b3480156102a857600080fd5b506102cc6102b7366004612f84565b60066020526000908152604090205460ff1681565b6040516102719190613f6c565b3480156102e557600080fd5b506102f96102f4366004612f84565b6107ad565b6040516102719190613c53565b34801561031257600080fd5b50610326610321366004612d7a565b61080f565b005b34801561033457600080fd5b50610326610343366004612f84565b610895565b34801561035457600080fd5b50610326610363366004612c19565b6108c4565b34801561037457600080fd5b5061037d610927565b6040516102719190613f43565b34801561039657600080fd5b50610264610948565b3480156103ab57600080fd5b506103266103ba366004612c8b565b610960565b6102646103cd366004612de2565b610991565b3480156103de57600080fd5b5061037d6103ed366004612d7a565b610a75565b3480156103fe57600080fd5b50610326610b61565b34801561041357600080fd5b50610326610422366004612c8b565b610bf6565b34801561043357600080fd5b5061037d610442366004612f84565b610c15565b34801561045357600080fd5b50610326610462366004612f84565b610c57565b34801561047357600080fd5b506102f9610482366004612f84565b610c86565b34801561049357600080fd5b5061037d60135481565b3480156104a957600080fd5b5061037d6104b8366004612c19565b610cc0565b3480156104c957600080fd5b50610326610d08565b3480156104de57600080fd5b50600f546102f9906001600160a01b031681565b3480156104fe57600080fd5b50600b546001600160a01b03166102f9565b34801561051c57600080fd5b5061026461052b366004612e51565b610d3e565b34801561053c57600080fd5b5061028f611032565b34801561055157600080fd5b5061037d66b1a2bc2ec5000081565b34801561056c57600080fd5b5061032661057b366004612d4c565b611041565b34801561058c57600080fd5b5061032661059b366004612c19565b611050565b3480156105ac57600080fd5b506103266105bb366004612cd6565b6110b3565b3480156105cc57600080fd5b50600d546102f9906001600160a01b031681565b3480156105ec57600080fd5b5061028f6105fb366004612f84565b6110eb565b34801561060c57600080fd5b5061032661061b366004612c19565b611204565b34801561062c57600080fd5b5061037d60145481565b34801561064257600080fd5b50610264610651366004612c53565b6001600160a01b03918216600090815260056020908152604080832093909416825291909152205460ff1690565b34801561068b57600080fd5b5061032661069a366004612c19565b611267565b3480156106ab57600080fd5b50600e546102f9906001600160a01b031681565b60007fffffffff0000000000000000000000000000000000000000000000000000000082167f780e9d630000000000000000000000000000000000000000000000000000000014806107155750610715826112c0565b92915050565b60606000805461072a906140ff565b80601f0160208091040260200160405190810160405280929190818152602001828054610756906140ff565b80156107a35780601f10610778576101008083540402835291602001916107a3565b820191906000526020600020905b81548152906001019060200180831161078657829003601f168201915b5050505050905090565b61ffff81166000908152600260205260408120546001600160a01b03166107ef5760405162461bcd60e51b81526004016107e690613e55565b60405180910390fd5b5061ffff166000908152600460205260409020546001600160a01b031690565b600061081a82610c86565b9050806001600160a01b0316836001600160a01b0316141561084e5760405162461bcd60e51b81526004016107e690613e95565b336001600160a01b038216148061086a575061086a8133610651565b6108865760405162461bcd60e51b81526004016107e690613df5565b61089083836113a3565b505050565b600b546001600160a01b031633146108bf5760405162461bcd60e51b81526004016107e690613e65565b601355565b600b546001600160a01b031633146108ee5760405162461bcd60e51b81526004016107e690613e65565b600d80546001600160a01b0390921673ffffffffffffffffffffffffffffffffffffffff19928316811790915560108054909216179055565b6000600260098054610938906140ff565b610943929150614034565b905090565b60006014544210158015610943575050601454151590565b61096a3382611421565b6109865760405162461bcd60e51b81526004016107e690613ec5565b6108908383836114e0565b60006002600c5414156109b65760405162461bcd60e51b81526004016107e690613f05565b6002600c556109c3610948565b6109df5760405162461bcd60e51b81526004016107e690613ef5565b3466b1a2bc2ec500006109f3600287614034565b6109fd9190614067565b14610a1a5760405162461bcd60e51b81526004016107e690613e15565b601354610a28600286614034565b610a3133610cc0565b610a3b9190613fe0565b1115610a595760405162461bcd60e51b81526004016107e690613de5565b610a663386868686611656565b50600180600c55949350505050565b6000610a8083610cc0565b8210610a9e5760405162461bcd60e51b81526004016107e690613d25565b6001600160a01b03831660009081526007602052604090208054610b569190610ac6906140ff565b80601f0160208091040260200160405190810160405280929190818152602001828054610af2906140ff565b8015610b3f5780601f10610b1457610100808354040283529160200191610b3f565b820191906000526020600020905b815481529060010190602001808311610b2257829003601f168201915b5050505050836002610b519190614067565b6118f4565b61ffff169392505050565b600b546001600160a01b03163314610b8b5760405162461bcd60e51b81526004016107e690613e65565b604051600090339047908381818185875af1925050503d8060008114610bcd576040519150601f19603f3d011682016040523d82523d6000602084013e610bd2565b606091505b5050905080610bf35760405162461bcd60e51b81526004016107e690613f15565b50565b61089083838361ffff16604051806020016040528060008152506110b3565b6000610c1f610927565b8210610c3d5760405162461bcd60e51b81526004016107e690613ee5565b610c4d60098054610ac6906140ff565b61ffff1692915050565b600b546001600160a01b03163314610c815760405162461bcd60e51b81526004016107e690613e65565b601455565b61ffff81166000908152600260205260408120546001600160a01b0316806107155760405162461bcd60e51b81526004016107e690613e25565b60006001600160a01b038216610ce85760405162461bcd60e51b81526004016107e690613e05565b506001600160a01b031660009081526003602052604090205461ffff1690565b600b546001600160a01b03163314610d325760405162461bcd60e51b81526004016107e690613e65565b610d3c600061192a565b565b60006002600c541415610d635760405162461bcd60e51b81526004016107e690613f05565b6002600c55858414610d875760405162461bcd60e51b81526004016107e690613d15565b610d92866002614067565b8a14610db05760405162461bcd60e51b81526004016107e690613d05565b60005b8a811015610fa357336001600160a01b0316601260009054906101000a90046001600160a01b03166001600160a01b0316636352211e610e2a8f8f8080601f0160208091040260200160405190810160405280939291908181526020018383808284376000920191909152508892506118f4915050565b6040518263ffffffff1660e01b8152600401610e469190613f35565b60206040518083038186803b158015610e5e57600080fd5b505afa158015610e72573d6000803e3d6000fd5b505050506040513d601f19601f82011682018060405250810190610e969190612c36565b6001600160a01b031614610ebc5760405162461bcd60e51b81526004016107e690613f25565b8787610ec9600284614034565b818110610ee657634e487b7160e01b600052603260045260246000fd5b919091013560f81c90508686610efd600285614034565b818110610f1a57634e487b7160e01b600052603260045260246000fd5b9050602002013560ff1614610f415760405162461bcd60e51b81526004016107e690613d55565b8383610f4e600284614034565b818110610f6b57634e487b7160e01b600052603260045260246000fd5b90506020020135600114610f915760405162461bcd60e51b81526004016107e690613eb5565b610f9c600282613fe0565b9050610db3565b50610fb3338c8c8c8c8c8c611989565b6011546001600160a01b0316636b20c45433878787876040518663ffffffff1660e01b8152600401610fe9959493929190613ca5565b600060405180830381600087803b15801561100357600080fd5b505af1158015611017573d6000803e3d6000fd5b50505050600190506001600c559a9950505050505050505050565b60606001805461072a906140ff565b61104c338383611c7b565b5050565b600b546001600160a01b0316331461107a5760405162461bcd60e51b81526004016107e690613e65565b600e80546001600160a01b0390921673ffffffffffffffffffffffffffffffffffffffff19928316811790915560118054909216179055565b6110bd3383611421565b6110d95760405162461bcd60e51b81526004016107e690613ec5565b6110e584848484611d1e565b50505050565b60606111128261ffff166000908152600260205260409020546001600160a01b0316151590565b61112e5760405162461bcd60e51b81526004016107e690613e85565b600d546001600160a01b031661115257505060408051602081019091526000815290565b60105461ffff83166000908152600660205260409081902090517f48a621a90000000000000000000000000000000000000000000000000000000081526001600160a01b03909216916348a621a9916111b091869190600401613f51565b60006040518083038186803b1580156111c857600080fd5b505afa1580156111dc573d6000803e3d6000fd5b505050506040513d6000823e601f3d908101601f191682016040526107159190810190612f4f565b600b546001600160a01b0316331461122e5760405162461bcd60e51b81526004016107e690613e65565b600f80546001600160a01b0390921673ffffffffffffffffffffffffffffffffffffffff19928316811790915560128054909216179055565b600b546001600160a01b031633146112915760405162461bcd60e51b81526004016107e690613e65565b6001600160a01b0381166112b75760405162461bcd60e51b81526004016107e690613d65565b610bf38161192a565b60007fffffffff0000000000000000000000000000000000000000000000000000000082167f80ac58cd00000000000000000000000000000000000000000000000000000000148061135357507fffffffff0000000000000000000000000000000000000000000000000000000082167f5b5e139f00000000000000000000000000000000000000000000000000000000145b8061071557507f01ffc9a7000000000000000000000000000000000000000000000000000000007fffffffff00000000000000000000000000000000000000000000000000000000831614610715565b61ffff81166000818152600460205260409020805473ffffffffffffffffffffffffffffffffffffffff19166001600160a01b0385169081179091556113e882610c86565b6001600160a01b03167f8c5be1e5ebec7d5bd14f71427d1e84f3dd0314c0f7b2291e5b200ac8c7c3b92560405160405180910390a45050565b61ffff81166000908152600260205260408120546001600160a01b031661145a5760405162461bcd60e51b81526004016107e690613dc5565b60006114698361ffff16610c86565b9050806001600160a01b0316846001600160a01b031614806114a85750836001600160a01b031661149d8461ffff166107ad565b6001600160a01b0316145b806114d857506001600160a01b0380821660009081526005602090815260408083209388168352929052205460ff165b949350505050565b826001600160a01b03166114f78261ffff16610c86565b6001600160a01b03161461151d5760405162461bcd60e51b81526004016107e690613e75565b6001600160a01b0382166115435760405162461bcd60e51b81526004016107e690613da5565b61154e838383611d51565b6115596000826113a3565b6001600160a01b038316600090815260036020526040812080546001929061158690849061ffff16614081565b82546101009290920a61ffff8181021990931691831602179091556001600160a01b038416600090815260036020526040812080546001945090926115cd91859116613fbc565b82546101009290920a61ffff8181021990931691831602179091558216600081815260026020526040808220805473ffffffffffffffffffffffffffffffffffffffff19166001600160a01b0388811691821790925591519394509092908716917fddf252ad1be2c89b69c2b068fc378daa952ba7f163c4a11628f55a4df523b3ef91a4505050565b6001600160a01b03851661167c5760405162461bcd60e51b81526004016107e690613e45565b610100831061169d5760405162461bcd60e51b81526004016107e690613e35565b600084848484333442446040516020016116be989796959493929190613ba8565b6040516020818303038152906040528051906020012090506116e3868686868661252c565b60005b6116f1600286614034565b81101561182f57600061174187878080601f016020809104026020016040519081016040528093929190818152602001838380828437600092019190915250610b51925086915060029050614067565b90506117688161ffff166000908152600260205260409020546001600160a01b0316151590565b156117855760405162461bcd60e51b81526004016107e690613d75565b61ffff81166000818152600260209081526040808320805473ffffffffffffffffffffffffffffffffffffffff19166001600160a01b038e169081179091558151808401835288851a815285855260069093528184209251835460ff191660ff909116179092555160019690961c959091907fddf252ad1be2c89b69c2b068fc378daa952ba7f163c4a11628f55a4df523b3ef908290a4508061182781614164565b9150506116e6565b506001600160a01b0386166000908152600360205260408120805486929061185c90849061ffff16613fbc565b92506101000a81548161ffff021916908361ffff1602179055506118d06000876118bb88888080601f016020809104026020016040519081016040528093929190818152602001838380828437600092018290525092506118f4915050565b604051806020016040528060008152506127e7565b6118ec5760405162461bcd60e51b81526004016107e690613d35565b505050505050565b6000611901826002613fe0565b835110156119215760405162461bcd60e51b81526004016107e690613d95565b50016002015190565b600b80546001600160a01b0383811673ffffffffffffffffffffffffffffffffffffffff19831681179093556040519116919082907f8be0079c531659141344cd1fd0a4f28419497f9722a3daafe3b4186f6b6457e090600090a35050565b6001600160a01b0387166119af5760405162461bcd60e51b81526004016107e690613e45565b61020085106119d05760405162461bcd60e51b81526004016107e690613e35565b600082828888333442446040516020016119f1989796959493929190613ba8565b604051602081830303815290604052805190602001209050611a16888888888861252c565b60005b611a24600288614034565b811015611bbe576000611a7489898080601f016020809104026020016040519081016040528093929190818152602001838380828437600092019190915250610b51925086915060029050614067565b9050611a9b8161ffff166000908152600260205260409020546001600160a01b0316151590565b15611ab85760405162461bcd60e51b81526004016107e690613d75565b61ffff8116600090815260026020908152604091829020805473ffffffffffffffffffffffffffffffffffffffff19166001600160a01b038e161790558151908101909152806004878786818110611b2057634e487b7160e01b600052603260045260246000fd5b611b319392013560f81c9050614191565b611b43906103fc600088901a16613ff3565b60ff90811690915261ffff83166000818152600660205260408082209451855460ff1916941693909317909355905160019590951c9490916001600160a01b038d16917fddf252ad1be2c89b69c2b068fc378daa952ba7f163c4a11628f55a4df523b3ef908290a45080611bb681614164565b915050611a19565b50611bca600287614014565b6001600160a01b03891660009081526003602052604081208054909190611bf690849061ffff16613fbc565b92506101000a81548161ffff021916908361ffff160217905550611c556000896118bb8a8a8080601f016020809104026020016040519081016040528093929190818152602001838380828437600092018290525092506118f4915050565b611c715760405162461bcd60e51b81526004016107e690613d35565b5050505050505050565b816001600160a01b0316836001600160a01b03161415611cad5760405162461bcd60e51b81526004016107e690613db5565b6001600160a01b0383811660008181526005602090815260408083209487168084529490915290819020805460ff1916851515179055517f17307eab39ab6107e8899845ad3d59bd9653f200f220920489ca2b5937696c3190611d11908590613ce6565b60405180910390a3505050565b611d298484846114e0565b611d35848484846127e7565b6110e55760405162461bcd60e51b81526004016107e690613d35565b6001600160a01b038316611ea057600060098054611d6e906140ff565b61ffff8481166000908152600a6020908152604091829020805461ffff19169385169390931790925551919350611daf925060099160f086901b9101613c18565b60405160208183030381529060405260099080519060200190611dd3929190612a08565b506001600160a01b03831660009081526007602052604081208054611df7906140ff565b905060f01b9050600881604051602001611e12929190613c18565b60405160208183030381529060405260089080519060200190611e36929190612a08565b506001600160a01b0384166000908152600760209081526040918290209151611e66929160f087901b9101613c18565b60408051601f198184030181529181526001600160a01b03861660009081526007602090815291902082516118ec93919290910190612a08565b6001600160a01b0382166122635761ffff8082166000908152600a6020526040902054600980549190921691611f6391611ed9906140ff565b80601f0160208091040260200160405190810160405280929190818152602001828054611f05906140ff565b8015611f525780601f10611f2757610100808354040283529160200191611f52565b820191906000526020600020905b815481529060010190602001808311611f3557829003601f168201915b505050505060008361ffff1661293e565b61203060098054611f73906140ff565b80601f0160208091040260200160405190810160405280929190818152602001828054611f9f906140ff565b8015611fec5780601f10611fc157610100808354040283529160200191611fec565b820191906000526020600020905b815481529060010190602001808311611fcf57829003601f168201915b5050505050836002611ffe9190613fbc565b61ffff1660028561ffff1660098054612016906140ff565b6120219291506140a4565b61202b91906140a4565b61293e565b604051602001612041929190613c02565b60405160208183030381529060405260099080519060200190612065929190612a08565b50600061210060088054612078906140ff565b80601f01602080910402602001604051908101604052809291908181526020018280546120a4906140ff565b80156120f15780601f106120c6576101008083540402835291602001916120f1565b820191906000526020600020905b8154815290600101906020018083116120d457829003601f168201915b50505050508361ffff166118f4565b6001600160a01b0386166000908152600760205260409020805491925061212a91611ed9906140ff565b6001600160a01b038616600090815260076020526040902080546122189190612152906140ff565b80601f016020809104026020016040519081016040528092919081815260200182805461217e906140ff565b80156121cb5780601f106121a0576101008083540402835291602001916121cb565b820191906000526020600020905b8154815290600101906020018083116121ae57829003601f168201915b50505050508360026121dd9190613fbc565b61ffff1660028561ffff16600760008c6001600160a01b03166001600160a01b031681526020019081526020016000208054612016906140ff565b604051602001612229929190613c02565b60408051601f198184030181529181526001600160a01b03871660009081526007602090815291902082516118ec93919290910190612a08565b816001600160a01b0316836001600160a01b0316146108905761ffff8082166000908152600a60205260408120546008805491909316926122a791612078906140ff565b6001600160a01b038616600090815260076020526040902080549192506122d191611ed9906140ff565b6001600160a01b038616600090815260076020526040902080546122f99190612152906140ff565b60405160200161230a929190613c02565b60408051601f198184030181529181526001600160a01b038716600090815260076020908152919020825161234493919290910190612a08565b506001600160a01b03841660009081526007602052604081208054612368906140ff565b905060f01b905060076000866001600160a01b03166001600160a01b031681526020019081526020016000208460f01b6040516020016123a9929190613c18565b60408051601f198184030181529181526001600160a01b03871660009081526007602090815291902082516123e393919290910190612a08565b508060001a60f81b60088461ffff1681546123fd906140ff565b811061241957634e487b7160e01b600052603260045260246000fd5b8154600116156124385790600052602060002090602091828204019190065b601f036101000a81548160ff021916907f0100000000000000000000000000000000000000000000000000000000000000840402179055508060016002811061249157634e487b7160e01b600052603260045260246000fd5b1a60f81b60086124a2856001613fbc565b61ffff1681546124b1906140ff565b81106124cd57634e487b7160e01b600052603260045260246000fd5b8154600116156124ec5790600052602060002090602091828204019190065b601f036101000a81548160ff021916907f010000000000000000000000000000000000000000000000000000000000000084040217905550505050505050565b600061256d83838080601f016020809104026020016040519081016040528093929190818152602001838380828437600092018290525092506118f4915050565b905083821461258e5760405162461bcd60e51b81526004016107e690613ea5565b61259981600261403a565b6001600160a01b0387166000908152600760205260409020805461ffff92909216916125c4906140ff565b9050146125e35760405162461bcd60e51b81526004016107e690613d85565b600883836040516020016125f993929190613c37565b6040516020818303038152906040526008908051906020019061261d929190612a08565b506001600160a01b038616600090815260076020908152604091829020915161264b92918891889101613c37565b60408051601f198184030181529181526001600160a01b038816600090815260076020908152919020825161268593919290910190612a08565b50600060098054612695906140ff565b9050905060005b61ffff81168611156127ac576126b3600282614014565b6126bd9084613fbc565b61ffff1661270586868080601f016020809104026020016040519081016040528093929190818152602001838380828437600092019190915250505061ffff851690506118f4565b61ffff16146127265760405162461bcd60e51b81526004016107e690613d45565b600061276c88888080601f016020809104026020016040519081016040528093929190818152602001838380828437600092019190915250505061ffff851690506118f4565b90506127788284613fbc565b61ffff9182166000908152600a60205260409020805461ffff1916919092161790556127a5600282613fbc565b905061269c565b50600986866040516020016127c393929190613c37565b60405160208183030381529060405260099080519060200190611c71929190612a08565b60006001600160a01b0384163b15612933576040517f150b7a020000000000000000000000000000000000000000000000000000000081526001600160a01b0385169063150b7a0290612844903390899088908890600401613c61565b602060405180830381600087803b15801561285e57600080fd5b505af192505050801561288e575060408051601f3d908101601f1916820190925261288b91810190612dc5565b60015b6128e8573d8080156128bc576040519150601f19603f3d011682016040523d82523d6000602084013e6128c1565b606091505b5080516128e05760405162461bcd60e51b81526004016107e690613d35565b805181602001fd5b7fffffffff00000000000000000000000000000000000000000000000000000000167f150b7a02000000000000000000000000000000000000000000000000000000001490506114d8565b506001949350505050565b60608161294c81601f613fe0565b101561296a5760405162461bcd60e51b81526004016107e690613dd5565b6129748284613fe0565b845110156129945760405162461bcd60e51b81526004016107e690613ed5565b6060821580156129b357604051915060008252602082016040526129fd565b6040519150601f8416801560200281840101858101878315602002848b0101015b818310156129ec5780518352602092830192016129d4565b5050858452601f01601f1916604052505b5090505b9392505050565b828054612a14906140ff565b90600052602060002090601f016020900481019282612a365760008555612a7c565b82601f10612a4f57805160ff1916838001178555612a7c565b82800160010185558215612a7c579182015b82811115612a7c578251825591602001919060010190612a61565b50612a88929150612a8c565b5090565b5b80821115612a885760008155600101612a8d565b6000612ab4612aaf84613f91565b613f7a565b905082815260208101848484011115612acc57600080fd5b612ad78482856140c7565b509392505050565b6000612aed612aaf84613f91565b905082815260208101848484011115612b0557600080fd5b612ad78482856140d3565b803561071581614204565b805161071581614204565b60008083601f840112612b37578182fd5b50813567ffffffffffffffff811115612b4e578182fd5b602083019150836020820283011115612b6657600080fd5b9250929050565b803561071581614218565b803561071581614220565b805161071581614220565b60008083601f840112612b9f578182fd5b50813567ffffffffffffffff811115612bb6578182fd5b602083019150836001820283011115612b6657600080fd5b600082601f830112612bde578081fd5b81356114d8848260208601612aa1565b600082601f830112612bfe578081fd5b81516114d8848260208601612adf565b803561071581614248565b600060208284031215612c2a578081fd5b612a0183828401612b10565b600060208284031215612c47578081fd5b612a0183828401612b1b565b60008060408385031215612c65578081fd5b612c7184828501612b10565b91506020612c8185828601612b10565b9150509250929050565b600080600060608486031215612c9f578081fd5b612cab85828601612b10565b92506020612cbb86828701612b10565b9250506040612ccc86828701612c0e565b9150509250925092565b60008060008060808587031215612ceb578081fd5b612cf786828701612b10565b93506020612d0787828801612b10565b9350506040612d1887828801612c0e565b925050606085013567ffffffffffffffff811115612d34578182fd5b612d4087828801612bce565b91505092959194509250565b60008060408385031215612d5e578182fd5b612d6a84838501612b10565b91506020612c8185828601612b6d565b60008060408385031215612d8c578182fd5b612d9884838501612b10565b91506020612c8185828601612c0e565b600060208284031215612db9578081fd5b612a0183828401612b78565b600060208284031215612dd6578081fd5b612a0183828401612b83565b60008060008060408587031215612df7578384fd5b8385013567ffffffffffffffff811115612e0f578485fd5b612e1b87828801612b8e565b9450945050602085013567ffffffffffffffff811115612e39578283fd5b612e4587828801612b8e565b95989497509550505050565b60008060008060008060008060008060a08b8d031215612e6f578586fd5b858b013567ffffffffffffffff811115612e87578687fd5b612e938d828e01612b8e565b9a509a505060208b013567ffffffffffffffff811115612eb1578687fd5b612ebd8d828e01612b8e565b985098505060408b013567ffffffffffffffff811115612edb578687fd5b612ee78d828e01612b8e565b965096505060608b013567ffffffffffffffff811115612f05578485fd5b612f118d828e01612b26565b945094505060808b013567ffffffffffffffff811115612f2f578283fd5b612f3b8d828e01612b26565b92509250509295989b9194979a5092959850565b600060208284031215612f60578081fd5b8082015167ffffffffffffffff811115612f78578182fd5b6114d884828501612bee565b600060208284031215612f95578081fd5b612a0183828401612c0e565b612faa816140aa565b82525050565b612faa612fbc826140aa565b61417f565b81835260208301925060007f07ffffffffffffffffffffffffffffffffffffffffffffffffffffffffffffff831115612ff8578081fd5b6020830292506130098385846140c7565b50500190565b801515612faa565b7fffff0000000000000000000000000000000000000000000000000000000000008116612faa565b61304a8284836140c7565b500190565b6000613059825190565b8084526020840193506130708185602086016140d3565b601f01601f19169290920192915050565b600061308b825190565b6130998185602086016140d3565b9290920192915050565b600081546130b0816140ff565b6001821680156130c757600181146130d857613108565b60ff19831686528186019350613108565b60008581526020902060005b83811015613100578154888201526001909101906020016130e4565b505081860193505b50505092915050565b601f8152602081017f456163682072756e6e6572206e6565647320697473206f776e2063616e647900815290505b60200190565b60258152602081017f43616e6479206964732073686f756c642068617665207468652073616d65206c81527f656e677468000000000000000000000000000000000000000000000000000000602082015290505b60400190565b602b8152602081017f455243373231456e756d657261626c653a206f776e657220696e646578206f7581527f74206f6620626f756e647300000000000000000000000000000000000000000060208201529050613199565b60328152602081017f4552433732313a207472616e7366657220746f206e6f6e20455243373231526581527f63656976657220696d706c656d656e746572000000000000000000000000000060208201529050613199565b60248152602081017f6f776e6572546f6b656e496e6465786573206d7573742062652061207365717581527f656e63650000000000000000000000000000000000000000000000000000000060208201529050613199565b601c8152602081017f43616e6479206964732073686f756c64206265207468652073616d65000000008152905061313f565b60268152602081017f4f776e61626c653a206e6577206f776e657220697320746865207a65726f206181527f646472657373000000000000000000000000000000000000000000000000000060208201529050613199565b601c8152602081017f4552433732313a20746f6b656e20616c7265616479206d696e746564000000008152905061313f565b60458152602081017f54686520676976656e206f776e6572546f6b656e496e646578657320646f206e81527f6f742073746172742066726f6d207468652063757272656e74206f776e65722060208201527f636f756e74000000000000000000000000000000000000000000000000000000604082015290505b60600190565b60148152602081017f746f55696e7431365f6f75744f66426f756e64730000000000000000000000008152905061313f565b60248152602081017f4552433732313a207472616e7366657220746f20746865207a65726f2061646481527f726573730000000000000000000000000000000000000000000000000000000060208201529050613199565b60198152602081017f4552433732313a20617070726f766520746f2063616c6c6572000000000000008152905061313f565b602c8152602081017f4552433732313a206f70657261746f7220717565727920666f72206e6f6e657881527f697374656e7420746f6b656e000000000000000000000000000000000000000060208201529050613199565b600e8152602081017f736c6963655f6f766572666c6f770000000000000000000000000000000000008152905061313f565b60318152602081017f596f757220686f6d6520697320746f20736d616c6c20746f2077656c636f6d6581527f20736f206d616e7920647265616d65727300000000000000000000000000000060208201529050613199565b60388152602081017f4552433732313a20617070726f76652063616c6c6572206973206e6f74206f7781527f6e6572206e6f7220617070726f76656420666f7220616c6c000000000000000060208201529050613199565b602a8152602081017f4552433732313a2062616c616e636520717565727920666f7220746865207a6581527f726f20616464726573730000000000000000000000000000000000000000000060208201529050613199565b601d8152602081017f596f75206861766520746f2070617920746865206261696c20626f6e640000008152905061313f565b60298152602081017f4552433732313a206f776e657220717565727920666f72206e6f6e657869737481527f656e7420746f6b656e000000000000000000000000000000000000000000000060208201529050613199565b60328152602081017f596f752063616e206d696e74206279206261746368657320757020746f20323581527f3620746f6b656e7320617420612074696d65000000000000000000000000000060208201529050613199565b60208082527f4552433732313a206d696e7420746f20746865207a65726f2061646472657373910190815261313f565b602c8152602081017f4552433732313a20617070726f76656420717565727920666f72206e6f6e657881527f697374656e7420746f6b656e000000000000000000000000000000000000000060208201529050613199565b60208082527f4f776e61626c653a2063616c6c6572206973206e6f7420746865206f776e6572910190815261313f565b60298152602081017f4552433732313a207472616e73666572206f6620746f6b656e2074686174206981527f73206e6f74206f776e000000000000000000000000000000000000000000000060208201529050613199565b602f8152602081017f4552433732314d657461646174613a2055524920717565727920666f72206e6f81527f6e6578697374656e7420746f6b656e000000000000000000000000000000000060208201529050613199565b60218152602081017f4552433732313a20617070726f76616c20746f2063757272656e74206f776e6581527f720000000000000000000000000000000000000000000000000000000000000060208201529050613199565b60328152602081017f6f776e6572496e6465786573206d7573742068617665207468652073616d652081527f6c656e67746820617320746f6b656e496473000000000000000000000000000060208201529050613199565b604f8152602081017f596f75722072756e6e6572206e65656473206f6e6520616e64206f6e6c79206f81527f6e652063616e64792c2077686f206b6e6f7773207768617420636f756c64206860208201527f617070656e206f74686572776973650000000000000000000000000000000000604082015290506133dd565b60318152602081017f4552433732313a207472616e736665722063616c6c6572206973206e6f74206f81527f776e6572206e6f7220617070726f76656400000000000000000000000000000060208201529050613199565b60118152602081017f736c6963655f6f75744f66426f756e64730000000000000000000000000000008152905061313f565b602c8152602081017f455243373231456e756d657261626c653a20676c6f62616c20696e646578206f81527f7574206f6620626f756e6473000000000000000000000000000000000000000060208201529050613199565b60148152602081017f5075626c69632073616c65206e6f74206f70656e0000000000000000000000008152905061313f565b601f8152602081017f5265656e7472616e637947756172643a207265656e7472616e742063616c6c008152905061313f565b60118152602081017f5769746864726177616c206661696c65640000000000000000000000000000008152905061313f565b60378152602081017f596f752063616e6e6f7420676976652063616e6469657320746f20612072756e81527f6e6572207468617420796f7520646f206e6f74206f776e00000000000000000060208201529050613199565b8054613b848161412c565b90506108908382613b9f565b612faa816140bb565b80612faa565b60ff8116612faa565b613bb381898b61303f565b9050613bc081878961303f565b9050613bcc8186612fb0565b601401613bd98185613b99565b602001613be68184613b99565b602001613bf38183613b99565b60200198975050505050505050565b613c0c8184613081565b9050612a018183613081565b613c2281846130a3565b9050613c2e8183613017565b60020192915050565b613c4181856130a3565b90506114d881838561303f565b919050565b602081016107158284612fa1565b60808101613c6f8287612fa1565b613c7c6020830186612fa1565b613c896040830185613b90565b8181036060830152613c9b818461304f565b9695505050505050565b60608101613cb38288612fa1565b8181036020830152613cc6818688612fc1565b90508181036040830152613cdb818486612fc1565b979650505050505050565b60208101610715828461300f565b60208082528101612a01818461304f565b6020808252810161071581613111565b6020808252810161071581613145565b602080825281016107158161319f565b60208082528101610715816131f7565b602080825281016107158161324f565b60208082528101610715816132a7565b60208082528101610715816132d9565b6020808252810161071581613331565b6020808252810161071581613363565b60208082528101610715816133e3565b6020808252810161071581613415565b602080825281016107158161346d565b602080825281016107158161349f565b60208082528101610715816134f7565b6020808252810161071581613529565b6020808252810161071581613581565b60208082528101610715816135d9565b6020808252810161071581613631565b6020808252810161071581613663565b60208082528101610715816136bb565b6020808252810161071581613713565b6020808252810161071581613743565b602080825281016107158161379b565b60208082528101610715816137cb565b6020808252810161071581613823565b602080825281016107158161387b565b60208082528101610715816138d3565b602080825281016107158161392b565b60208082528101610715816139a9565b6020808252810161071581613a01565b6020808252810161071581613a33565b6020808252810161071581613a8b565b6020808252810161071581613abd565b6020808252810161071581613aef565b6020808252810161071581613b21565b602081016107158284613b90565b602081016107158284613b99565b60408101613f5f8285613b99565b612a016020830184613b79565b602081016107158284613b9f565b6000613f8560405190565b9050613c4e8282614137565b600067ffffffffffffffff821115613fab57613fab6141ee565b601f19601f83011660200192915050565b61ffff8116905061ffff8216915060008261ffff0382111561304a5761304a6141ac565b6000821982111561304a5761304a6141ac565b60ff8116905060ff8216915060008260ff0382111561304a5761304a6141ac565b61ffff9081169082165b915060008261402f5761402f6141c2565b500490565b8161401e565b61ffff8116905061ffff8216915060008161ffff0483118215151615614062576140626141ac565b500290565b6000816000190483118215151615614062576140626141ac565b61ffff9081169082165b915060008282101561409f5761409f6141ac565b500390565b8161408b565b60006001600160a01b038216610715565b600061ffff8216610715565b82818337506000910152565b60005b838110156140ee5781810151838201526020016140d6565b838111156110e55750506000910152565b60028104600182168061411357607f821691505b60208210811415614126576141266141d8565b50919050565b600060ff8216610715565b601f19601f830116810181811067ffffffffffffffff8211171561415d5761415d6141ee565b6040525050565b6000600019821415614178576141786141ac565b5060010190565b60006107158260006107158260601b90565b60ff91821691166000826141a7576141a76141c2565b500690565b634e487b7160e01b600052601160045260246000fd5b634e487b7160e01b600052601260045260246000fd5b634e487b7160e01b600052602260045260246000fd5b634e487b7160e01b600052604160045260246000fd5b61420d816140aa565b8114610bf357600080fd5b80151561420d565b7fffffffff00000000000000000000000000000000000000000000000000000000811661420d565b8061420d56fea26469706673582212208b47064164a4f8cc26fdbfbb1ee60ac4a5724e5b78b7b6cede56579d2d3c78fc64736f6c63430008040033",
  "devdoc": {
    "kind": "dev",
    "methods": {
      "approve(address,uint256)": {
        "details": "See {IERC721-approve}."
      },
      "balanceOf(address)": {
        "details": "See {IERC721-balanceOf}."
      },
      "getApproved(uint256)": {
        "details": "See {IERC721-getApproved}."
      },
      "isApprovedForAll(address,address)": {
        "details": "See {IERC721-isApprovedForAll}."
      },
      "name()": {
        "details": "See {IERC721Metadata-name}."
      },
      "owner()": {
        "details": "Returns the address of the current owner."
      },
      "ownerOf(uint256)": {
        "details": "See {IERC721-ownerOf}."
      },
      "renounceOwnership()": {
        "details": "Leaves the contract without owner. It will not be possible to call `onlyOwner` functions anymore. Can only be called by the current owner. NOTE: Renouncing ownership will leave the contract without an owner, thereby removing any functionality that is only available to the owner."
      },
      "safeTransferFrom(address,address,uint256)": {
        "details": "See {IERC721-safeTransferFrom}."
      },
      "safeTransferFrom(address,address,uint256,bytes)": {
        "details": "See {IERC721-safeTransferFrom}."
      },
      "setApprovalForAll(address,bool)": {
        "details": "See {IERC721-setApprovalForAll}."
      },
      "supportsInterface(bytes4)": {
        "details": "See {IERC165-supportsInterface}."
      },
      "symbol()": {
        "details": "See {IERC721Metadata-symbol}."
      },
      "tokenByIndex(uint256)": {
        "details": "See {IERC721Enumerable-tokenByIndex}."
      },
      "tokenOfOwnerByIndex(address,uint256)": {
        "details": "See {IERC721Enumerable-tokenOfOwnerByIndex}."
      },
      "totalSupply()": {
        "details": "See {IERC721Enumerable-totalSupply}."
      },
      "transferFrom(address,address,uint256)": {
        "details": "See {IERC721-transferFrom}."
      },
      "transferOwnership(address)": {
        "details": "Transfers ownership of the contract to a new account (`newOwner`). Can only be called by the current owner."
      }
    },
    "version": 1
  },
  "userdoc": {
    "kind": "user",
    "methods": {},
    "version": 1
  },
  "storageLayout": {
    "storage": [
      {
        "astId": 13026,
        "contract": "contracts/dreamers/ChainDreamers.sol:ChainDreamers",
        "label": "_name",
        "offset": 0,
        "slot": "0",
        "type": "t_string_storage"
      },
      {
        "astId": 13028,
        "contract": "contracts/dreamers/ChainDreamers.sol:ChainDreamers",
        "label": "_symbol",
        "offset": 0,
        "slot": "1",
        "type": "t_string_storage"
      },
      {
        "astId": 13032,
        "contract": "contracts/dreamers/ChainDreamers.sol:ChainDreamers",
        "label": "_owners",
        "offset": 0,
        "slot": "2",
        "type": "t_mapping(t_uint16,t_address)"
      },
      {
        "astId": 13036,
        "contract": "contracts/dreamers/ChainDreamers.sol:ChainDreamers",
        "label": "_balances",
        "offset": 0,
        "slot": "3",
        "type": "t_mapping(t_address,t_uint16)"
      },
      {
        "astId": 13040,
        "contract": "contracts/dreamers/ChainDreamers.sol:ChainDreamers",
        "label": "_tokenApprovals",
        "offset": 0,
        "slot": "4",
        "type": "t_mapping(t_uint16,t_address)"
      },
      {
        "astId": 13046,
        "contract": "contracts/dreamers/ChainDreamers.sol:ChainDreamers",
        "label": "_operatorApprovals",
        "offset": 0,
        "slot": "5",
        "type": "t_mapping(t_address,t_mapping(t_address,t_bool))"
      },
      {
        "astId": 13051,
        "contract": "contracts/dreamers/ChainDreamers.sol:ChainDreamers",
        "label": "dreamers",
        "offset": 0,
        "slot": "6",
        "type": "t_mapping(t_uint256,t_struct(ChainDreamer)4557_storage)"
      },
      {
        "astId": 14148,
        "contract": "contracts/dreamers/ChainDreamers.sol:ChainDreamers",
        "label": "_ownedTokens",
        "offset": 0,
        "slot": "7",
        "type": "t_mapping(t_address,t_bytes_storage)"
      },
      {
        "astId": 14150,
        "contract": "contracts/dreamers/ChainDreamers.sol:ChainDreamers",
        "label": "_ownedTokensIndex",
        "offset": 0,
        "slot": "8",
        "type": "t_bytes_storage"
      },
      {
        "astId": 14152,
        "contract": "contracts/dreamers/ChainDreamers.sol:ChainDreamers",
        "label": "_allTokens",
        "offset": 0,
        "slot": "9",
        "type": "t_bytes_storage"
      },
      {
        "astId": 14156,
        "contract": "contracts/dreamers/ChainDreamers.sol:ChainDreamers",
        "label": "_allTokensIndex",
        "offset": 0,
        "slot": "10",
        "type": "t_mapping(t_uint16,t_uint16)"
      },
      {
        "astId": 225,
        "contract": "contracts/dreamers/ChainDreamers.sol:ChainDreamers",
        "label": "_owner",
        "offset": 0,
        "slot": "11",
        "type": "t_address"
      },
      {
        "astId": 425,
        "contract": "contracts/dreamers/ChainDreamers.sol:ChainDreamers",
        "label": "_status",
        "offset": 0,
        "slot": "12",
        "type": "t_uint256"
      },
      {
        "astId": 4174,
        "contract": "contracts/dreamers/ChainDreamers.sol:ChainDreamers",
        "label": "renderingContractAddress",
        "offset": 0,
        "slot": "13",
        "type": "t_address"
      },
      {
        "astId": 4176,
        "contract": "contracts/dreamers/ChainDreamers.sol:ChainDreamers",
        "label": "candyShopAddress",
        "offset": 0,
        "slot": "14",
        "type": "t_address"
      },
      {
        "astId": 4178,
        "contract": "contracts/dreamers/ChainDreamers.sol:ChainDreamers",
        "label": "chainRunnersAddress",
        "offset": 0,
        "slot": "15",
        "type": "t_address"
      },
      {
        "astId": 4181,
        "contract": "contracts/dreamers/ChainDreamers.sol:ChainDreamers",
        "label": "renderer",
        "offset": 0,
        "slot": "16",
        "type": "t_contract(IDreamersRenderer)7813"
      },
      {
        "astId": 4184,
        "contract": "contracts/dreamers/ChainDreamers.sol:ChainDreamers",
        "label": "candyShop",
        "offset": 0,
        "slot": "17",
        "type": "t_contract(ICandyShop)7761"
      },
      {
        "astId": 4187,
        "contract": "contracts/dreamers/ChainDreamers.sol:ChainDreamers",
        "label": "chainRunners",
        "offset": 0,
        "slot": "18",
        "type": "t_contract(IChainRunners)7778"
      },
      {
        "astId": 4189,
        "contract": "contracts/dreamers/ChainDreamers.sol:ChainDreamers",
        "label": "maxDreamersMintPublicSale",
        "offset": 0,
        "slot": "19",
        "type": "t_uint256"
      },
      {
        "astId": 4194,
        "contract": "contracts/dreamers/ChainDreamers.sol:ChainDreamers",
        "label": "publicSaleStartTimestamp",
        "offset": 0,
        "slot": "20",
        "type": "t_uint256"
      }
    ],
    "types": {
      "t_address": {
        "encoding": "inplace",
        "label": "address",
        "numberOfBytes": "20"
      },
      "t_bool": {
        "encoding": "inplace",
        "label": "bool",
        "numberOfBytes": "1"
      },
      "t_bytes_storage": {
        "encoding": "bytes",
        "label": "bytes",
        "numberOfBytes": "32"
      },
      "t_contract(ICandyShop)7761": {
        "encoding": "inplace",
        "label": "contract ICandyShop",
        "numberOfBytes": "20"
      },
      "t_contract(IChainRunners)7778": {
        "encoding": "inplace",
        "label": "contract IChainRunners",
        "numberOfBytes": "20"
      },
      "t_contract(IDreamersRenderer)7813": {
        "encoding": "inplace",
        "label": "contract IDreamersRenderer",
        "numberOfBytes": "20"
      },
      "t_mapping(t_address,t_bool)": {
        "encoding": "mapping",
        "key": "t_address",
        "label": "mapping(address => bool)",
        "numberOfBytes": "32",
        "value": "t_bool"
      },
      "t_mapping(t_address,t_bytes_storage)": {
        "encoding": "mapping",
        "key": "t_address",
        "label": "mapping(address => bytes)",
        "numberOfBytes": "32",
        "value": "t_bytes_storage"
      },
      "t_mapping(t_address,t_mapping(t_address,t_bool))": {
        "encoding": "mapping",
        "key": "t_address",
        "label": "mapping(address => mapping(address => bool))",
        "numberOfBytes": "32",
        "value": "t_mapping(t_address,t_bool)"
      },
      "t_mapping(t_address,t_uint16)": {
        "encoding": "mapping",
        "key": "t_address",
        "label": "mapping(address => uint16)",
        "numberOfBytes": "32",
        "value": "t_uint16"
      },
      "t_mapping(t_uint16,t_address)": {
        "encoding": "mapping",
        "key": "t_uint16",
        "label": "mapping(uint16 => address)",
        "numberOfBytes": "32",
        "value": "t_address"
      },
      "t_mapping(t_uint16,t_uint16)": {
        "encoding": "mapping",
        "key": "t_uint16",
        "label": "mapping(uint16 => uint16)",
        "numberOfBytes": "32",
        "value": "t_uint16"
      },
      "t_mapping(t_uint256,t_struct(ChainDreamer)4557_storage)": {
        "encoding": "mapping",
        "key": "t_uint256",
        "label": "mapping(uint256 => struct ChainDreamersTypes.ChainDreamer)",
        "numberOfBytes": "32",
        "value": "t_struct(ChainDreamer)4557_storage"
      },
      "t_string_storage": {
        "encoding": "bytes",
        "label": "string",
        "numberOfBytes": "32"
      },
      "t_struct(ChainDreamer)4557_storage": {
        "encoding": "inplace",
        "label": "struct ChainDreamersTypes.ChainDreamer",
        "members": [
          {
            "astId": 4556,
            "contract": "contracts/dreamers/ChainDreamers.sol:ChainDreamers",
            "label": "candy",
            "offset": 0,
            "slot": "0",
            "type": "t_uint8"
          }
        ],
        "numberOfBytes": "32"
      },
      "t_uint16": {
        "encoding": "inplace",
        "label": "uint16",
        "numberOfBytes": "2"
      },
      "t_uint256": {
        "encoding": "inplace",
        "label": "uint256",
        "numberOfBytes": "32"
      },
      "t_uint8": {
        "encoding": "inplace",
        "label": "uint8",
        "numberOfBytes": "1"
      }
    }
  }
}