{
  "address": "0x6F6f570F45833E249e27022648a26F4076F48f78",
  "abi": [
    {
      "inputs": [
        {
          "internalType": "address",
          "name": "_rendererAddress",
          "type": "address"
        },
        {
          "internalType": "address",
          "name": "_runnersTokenAddress",
          "type": "address"
        }
      ],
      "stateMutability": "nonpayable",
      "type": "constructor"
    },
    {
      "inputs": [
        {
          "internalType": "uint256",
          "name": "_size",
          "type": "uint256"
        },
        {
          "internalType": "uint256",
          "name": "_start",
          "type": "uint256"
        },
        {
          "internalType": "uint256",
          "name": "_end",
          "type": "uint256"
        }
      ],
      "name": "InvalidCodeAtRange",
      "type": "error"
    },
    {
      "inputs": [],
      "name": "WriteError",
      "type": "error"
    },
    {
      "anonymous": false,
      "inputs": [
        {
          "indexed": true,
          "internalType": "address",
          "name": "previousOwner",
          "type": "address"
        },
        {
          "indexed": true,
          "internalType": "address",
          "name": "newOwner",
          "type": "address"
        }
      ],
      "name": "OwnershipTransferred",
      "type": "event"
    },
    {
      "inputs": [],
      "name": "BITS_PER_D_ATTRIBUTE",
      "outputs": [
        {
          "internalType": "uint8",
          "name": "",
          "type": "uint8"
        }
      ],
      "stateMutability": "view",
      "type": "function"
    },
    {
      "inputs": [],
      "name": "BITS_PER_D_INDEX",
      "outputs": [
        {
          "internalType": "uint8",
          "name": "",
          "type": "uint8"
        }
      ],
      "stateMutability": "view",
      "type": "function"
    },
    {
      "inputs": [],
      "name": "BITS_PER_FILL_INDEX",
      "outputs": [
        {
          "internalType": "uint8",
          "name": "",
          "type": "uint8"
        }
      ],
      "stateMutability": "view",
      "type": "function"
    },
    {
      "inputs": [],
      "name": "D_ATTRIBUTE_PALETTE",
      "outputs": [
        {
          "internalType": "bytes8",
          "name": "",
          "type": "bytes8"
        }
      ],
      "stateMutability": "view",
      "type": "function"
    },
    {
      "inputs": [],
      "name": "D_ATTRIBUTE_PARAMETERS_COUNT",
      "outputs": [
        {
          "internalType": "bytes8",
          "name": "",
          "type": "bytes8"
        }
      ],
      "stateMutability": "view",
      "type": "function"
    },
    {
      "inputs": [],
      "name": "FILL_TAG",
      "outputs": [
        {
          "internalType": "bytes",
          "name": "",
          "type": "bytes"
        }
      ],
      "stateMutability": "view",
      "type": "function"
    },
    {
      "inputs": [],
      "name": "HASHTAG",
      "outputs": [
        {
          "internalType": "bytes",
          "name": "",
          "type": "bytes"
        }
      ],
      "stateMutability": "view",
      "type": "function"
    },
    {
      "inputs": [],
      "name": "NONE_COLOR",
      "outputs": [
        {
          "internalType": "bytes3",
          "name": "",
          "type": "bytes3"
        }
      ],
      "stateMutability": "view",
      "type": "function"
    },
    {
      "inputs": [],
      "name": "NUM_LAYERS",
      "outputs": [
        {
          "internalType": "uint8",
          "name": "",
          "type": "uint8"
        }
      ],
      "stateMutability": "view",
      "type": "function"
    },
    {
      "inputs": [],
      "name": "NUM_RUNNERS",
      "outputs": [
        {
          "internalType": "uint16",
          "name": "",
          "type": "uint16"
        }
      ],
      "stateMutability": "view",
      "type": "function"
    },
    {
      "inputs": [],
      "name": "PATH_TAG_END",
      "outputs": [
        {
          "internalType": "bytes",
          "name": "",
          "type": "bytes"
        }
      ],
      "stateMutability": "view",
      "type": "function"
    },
    {
      "inputs": [],
      "name": "PATH_TAG_START",
      "outputs": [
        {
          "internalType": "bytes",
          "name": "",
          "type": "bytes"
        }
      ],
      "stateMutability": "view",
      "type": "function"
    },
    {
      "inputs": [],
      "name": "SPACE",
      "outputs": [
        {
          "internalType": "bytes",
          "name": "",
          "type": "bytes"
        }
      ],
      "stateMutability": "view",
      "type": "function"
    },
    {
      "inputs": [],
      "name": "STROKE_TAG",
      "outputs": [
        {
          "internalType": "bytes",
          "name": "",
          "type": "bytes"
        }
      ],
      "stateMutability": "view",
      "type": "function"
    },
    {
      "inputs": [],
      "name": "SVG_TAG_END",
      "outputs": [
        {
          "internalType": "bytes",
          "name": "",
          "type": "bytes"
        }
      ],
      "stateMutability": "view",
      "type": "function"
    },
    {
      "inputs": [],
      "name": "SVG_TAG_START",
      "outputs": [
        {
          "internalType": "bytes",
          "name": "",
          "type": "bytes"
        }
      ],
      "stateMutability": "view",
      "type": "function"
    },
    {
      "inputs": [
        {
          "internalType": "uint256",
          "name": "",
          "type": "uint256"
        },
        {
          "internalType": "uint256",
          "name": "",
          "type": "uint256"
        },
        {
          "internalType": "uint256",
          "name": "",
          "type": "uint256"
        }
      ],
      "name": "WEIGHTS",
      "outputs": [
        {
          "internalType": "uint16",
          "name": "",
          "type": "uint16"
        }
      ],
      "stateMutability": "view",
      "type": "function"
    },
    {
      "inputs": [
        {
          "internalType": "uint256",
          "name": "",
          "type": "uint256"
        }
      ],
      "name": "dPalette",
      "outputs": [
        {
          "internalType": "address",
          "name": "",
          "type": "address"
        }
      ],
      "stateMutability": "view",
      "type": "function"
    },
    {
      "inputs": [],
      "name": "dPaletteIndexes",
      "outputs": [
        {
          "internalType": "address",
          "name": "",
          "type": "address"
        }
      ],
      "stateMutability": "view",
      "type": "function"
    },
    {
      "inputs": [],
      "name": "fillPalette",
      "outputs": [
        {
          "internalType": "address",
          "name": "",
          "type": "address"
        }
      ],
      "stateMutability": "view",
      "type": "function"
    },
    {
      "inputs": [
        {
          "internalType": "bytes",
          "name": "dEncodedBytes",
          "type": "bytes"
        }
      ],
      "name": "getD",
      "outputs": [
        {
          "internalType": "string",
          "name": "",
          "type": "string"
        }
      ],
      "stateMutability": "pure",
      "type": "function"
    },
    {
      "inputs": [
        {
          "internalType": "uint16",
          "name": "_index",
          "type": "uint16"
        }
      ],
      "name": "getDBytes",
      "outputs": [
        {
          "internalType": "bytes",
          "name": "",
          "type": "bytes"
        }
      ],
      "stateMutability": "view",
      "type": "function"
    },
    {
      "inputs": [
        {
          "internalType": "uint16",
          "name": "_index",
          "type": "uint16"
        }
      ],
      "name": "getDIndex",
      "outputs": [
        {
          "internalType": "uint32",
          "name": "",
          "type": "uint32"
        },
        {
          "internalType": "uint32",
          "name": "",
          "type": "uint32"
        }
      ],
      "stateMutability": "view",
      "type": "function"
    },
    {
      "inputs": [
        {
          "internalType": "uint16",
          "name": "_index",
          "type": "uint16"
        }
      ],
      "name": "getFill",
      "outputs": [
        {
          "internalType": "string",
          "name": "",
          "type": "string"
        }
      ],
      "stateMutability": "view",
      "type": "function"
    },
    {
      "inputs": [
        {
          "components": [
            {
              "internalType": "uint16",
              "name": "dIndex",
              "type": "uint16"
            },
            {
              "internalType": "uint16",
              "name": "fillIndex",
              "type": "uint16"
            },
            {
              "internalType": "bool",
              "name": "stroke",
              "type": "bool"
            }
          ],
          "internalType": "struct DreamersRenderer.Trait[]",
          "name": "traits",
          "type": "tuple[]"
        }
      ],
      "name": "getSvg",
      "outputs": [
        {
          "internalType": "string",
          "name": "",
          "type": "string"
        }
      ],
      "stateMutability": "view",
      "type": "function"
    },
    {
      "inputs": [
        {
          "internalType": "uint256",
          "name": "runnerDna",
          "type": "uint256"
        },
        {
          "internalType": "uint8",
          "name": "candy",
          "type": "uint8"
        }
      ],
      "name": "getTokenData",
      "outputs": [
        {
          "internalType": "uint16[13]",
          "name": "traitIndexes",
          "type": "uint16[13]"
        }
      ],
      "stateMutability": "view",
      "type": "function"
    },
    {
      "inputs": [
        {
          "internalType": "uint16",
          "name": "_index",
          "type": "uint16"
        }
      ],
      "name": "getTrait",
      "outputs": [
        {
          "components": [
            {
              "internalType": "uint16",
              "name": "dIndex",
              "type": "uint16"
            },
            {
              "internalType": "uint16",
              "name": "fillIndex",
              "type": "uint16"
            },
            {
              "internalType": "bool",
              "name": "stroke",
              "type": "bool"
            }
          ],
          "internalType": "struct DreamersRenderer.Trait[]",
          "name": "",
          "type": "tuple[]"
        }
      ],
      "stateMutability": "view",
      "type": "function"
    },
    {
      "inputs": [
        {
          "internalType": "uint16",
          "name": "_layerIndex",
          "type": "uint16"
        },
        {
          "internalType": "uint16",
          "name": "_itemIndex",
          "type": "uint16"
        }
      ],
      "name": "getTraitIndex",
      "outputs": [
        {
          "internalType": "uint16",
          "name": "",
          "type": "uint16"
        }
      ],
      "stateMutability": "view",
      "type": "function"
    },
    {
      "inputs": [
        {
          "internalType": "uint16[13]",
          "name": "_index",
          "type": "uint16[13]"
        }
      ],
      "name": "getTraits",
      "outputs": [
        {
          "components": [
            {
              "internalType": "uint16",
              "name": "dIndex",
              "type": "uint16"
            },
            {
              "internalType": "uint16",
              "name": "fillIndex",
              "type": "uint16"
            },
            {
              "internalType": "bool",
              "name": "stroke",
              "type": "bool"
            }
          ],
          "internalType": "struct DreamersRenderer.Trait[]",
          "name": "",
          "type": "tuple[]"
        }
      ],
      "stateMutability": "view",
      "type": "function"
    },
    {
      "inputs": [
        {
          "internalType": "uint256",
          "name": "tokenId",
          "type": "uint256"
        },
        {
          "internalType": "uint8",
          "name": "candy",
          "type": "uint8"
        }
      ],
      "name": "imageURI",
      "outputs": [
        {
          "internalType": "string",
          "name": "",
          "type": "string"
        }
      ],
      "stateMutability": "view",
      "type": "function"
    },
    {
      "inputs": [],
      "name": "owner",
      "outputs": [
        {
          "internalType": "address",
          "name": "",
          "type": "address"
        }
      ],
      "stateMutability": "view",
      "type": "function"
    },
    {
      "inputs": [],
      "name": "renounceOwnership",
      "outputs": [],
      "stateMutability": "nonpayable",
      "type": "function"
    },
    {
      "inputs": [
        {
          "internalType": "bytes[]",
          "name": "_pathPalette",
          "type": "bytes[]"
        }
      ],
      "name": "setDPalette",
      "outputs": [],
      "stateMutability": "nonpayable",
      "type": "function"
    },
    {
      "inputs": [
        {
          "internalType": "bytes",
          "name": "_pathPaletteIndex",
          "type": "bytes"
        }
      ],
      "name": "setDPaletteIndex",
      "outputs": [],
      "stateMutability": "nonpayable",
      "type": "function"
    },
    {
      "inputs": [
        {
          "internalType": "bytes",
          "name": "_fillPalette",
          "type": "bytes"
        }
      ],
      "name": "setFillPalette",
      "outputs": [],
      "stateMutability": "nonpayable",
      "type": "function"
    },
    {
      "inputs": [
        {
          "internalType": "bytes",
          "name": "_layerIndexes",
          "type": "bytes"
        }
      ],
      "name": "setLayerIndexes",
      "outputs": [],
      "stateMutability": "nonpayable",
      "type": "function"
    },
    {
      "inputs": [
        {
          "internalType": "bytes",
          "name": "_traitPalette",
          "type": "bytes"
        }
      ],
      "name": "setTraitPalette",
      "outputs": [],
      "stateMutability": "nonpayable",
      "type": "function"
    },
    {
      "inputs": [
        {
          "internalType": "bytes",
          "name": "_traitPaletteIndex",
          "type": "bytes"
        }
      ],
      "name": "setTraitPaletteIndex",
      "outputs": [],
      "stateMutability": "nonpayable",
      "type": "function"
    },
    {
      "inputs": [
        {
          "internalType": "uint256",
          "name": "_number",
          "type": "uint256"
        }
      ],
      "name": "splitNumber",
      "outputs": [
        {
          "internalType": "uint16[13]",
          "name": "numbers",
          "type": "uint16[13]"
        }
      ],
      "stateMutability": "pure",
      "type": "function"
    },
    {
      "inputs": [
        {
          "internalType": "uint256",
          "name": "tokenId",
          "type": "uint256"
        },
        {
          "components": [
            {
              "internalType": "uint8",
              "name": "candy",
              "type": "uint8"
            }
          ],
          "internalType": "struct ChainDreamersTypes.ChainDreamer",
          "name": "",
          "type": "tuple"
        }
      ],
      "name": "tokenURI",
      "outputs": [
        {
          "internalType": "string",
          "name": "",
          "type": "string"
        }
      ],
      "stateMutability": "pure",
      "type": "function"
    },
    {
      "inputs": [],
      "name": "traitPalette",
      "outputs": [
        {
          "internalType": "address",
          "name": "",
          "type": "address"
        }
      ],
      "stateMutability": "view",
      "type": "function"
    },
    {
      "inputs": [],
      "name": "traitPaletteIndexes",
      "outputs": [
        {
          "internalType": "address",
          "name": "",
          "type": "address"
        }
      ],
      "stateMutability": "view",
      "type": "function"
    },
    {
      "inputs": [
        {
          "internalType": "address",
          "name": "newOwner",
          "type": "address"
        }
      ],
      "name": "transferOwnership",
      "outputs": [],
      "stateMutability": "nonpayable",
      "type": "function"
    }
  ],
  "transactionHash": "0x0d4bb25417182de26e73d837a86dab4095dfff118be9778b68f644a976a2f87a",
  "args": [
    "0xfDac77881ff861fF76a83cc43a1be3C317c6A1cC",
    "0x97597002980134beA46250Aa0510C9B90d87A587"
  ],
  "numDeployments": 1,
  "solcInputHash": "0464b55ace3cba2f67d8122017481bf4",
  "bytecode": "0x60806040523480156200001157600080fd5b50604051620066863803806200668683398101604081905262000034916200260a565b81620000403362002475565b60018055602980546001600160a01b0319166001600160a01b0383161790556040805161058081018252602480825260e1602083018190529282018390526060820183905261016860808301819052608760a0840152601b60c0840181905260e0840182905261013b610100850181905261012085018190526101408501819052610160850152610180840185905260b46101a085018190526101c085018690526101e0850181905261020085018390526102208501819052602d6102408601819052610260860184905261028086018490526102a086018490526102c08601929092526102e0850193909352610300840182905261032084018190526103408401839052610360840182905261038084018590526103a084018290526103c084018590526103e084018590526104008401829052610420840183905261044084015261046083015260126104808301526104a082018390526104c082018390526104e082018390526105008201839052610520820152610540810191909152610169610560820152620001d990600290602c620024c5565b50604080516101e08101825261036b81526104f5602082015261030b918101829052606081018290526080810182905260a0810182905260c0810182905260e08101829052610100810182905261012081018290526101408101829052610160810191909152601161018082015260086101a082015260296101c08201526200026790600390600f620024c5565b50604080516104208101825261012f8082526020820181905291810182905260608101829052609760808201819052601e60a08301819052600060c0840181905260e0840152610100830182905261012083018290526101408301829052610160830182905261018083018190526101a083018490526101c083018290526101e08301819052610200830184905261022083018490526102408301849052610260830184905261028083018490526102a083018490526102c08301526102e0820152610300810182905261032081018290526103408101829052610360810182905261038081018290526103a081018290526103c081018290526103e0810191909152610bfa61040082015262000383906004906021620024c5565b50604080516101c0810182526102858082526000602083015261050a92820192909252610142606082018190526080820183905260a0820183905260c082018390526103c760e08301819052610100830191909152610120820181905261014082019290925261016081018290526101808101919091526103cd6101a08201526200041390600590600e620024c5565b506040805161016081018252600080825260208201819052918101919091526104e2606082018190526080820181905260a0820181905260c0820181905260e08201819052610100820181905261012082018190526101408201526200047e90600690600b620024c5565b506040805161094081018252607980825260208201819052918101829052606081018290526080810182905260a0810182905260f360c08201819052600060e08301819052610100830181905261012083018190526101408301819052610160830184905261018083018490526101a083018290526101c083018490526101e08301849052610200830182905261022083018490526102408301849052610260830184905261028083018490526102a083018490526102c083018290526102e08301849052610300830184905261032083018490526103408301849052610360830182905261038083018490526103a083018490526103c083018490526103e08301849052610400830182905261042083018490526104408301849052610460830184905261048083018290526104a083018490526104c083018490526104e08301849052610500830184905261052083018290526105408301849052610560830184905261058083018490526105a083018490526105c083018290526105e08301849052610600830184905261062083018490526106408301849052610660830182905261068083018490526106a083018490526106c083018490526106e08301849052610700830182905261072083018490526107408301849052610760830184905261078083018490526107a083018290526107c083018490526107e0830184905261080083018290526108208301819052610840830181905261086083015261088082018390526108a082018390526108c08201526108e08101829052610900810191909152610132610920820152620006e190600790604a620024c5565b50604080516101608101825261039d80825261022b6020830181905260b993830184905260608301526080820181905260a082015260c081019190915261051060e0820181905261010082018190526101208201526107416101408201526200074f90600890600b620024c5565b50604080516101008101825260588082526020820181905291810182905260608101829052608081019190915261010960a08201526101ba60c082015261229560e0820152620007a4906009906008620024c5565b50604080516101008101825260bd8082526020820152602f918101919091526012606082015260096080820152601c60a0820152602560c082015261250b60e0820152620007f790600a906008620024c5565b50604080516104a08101825261015480825260208201819052918101829052606081018290526080810182905260a08101829052602260c0820181905260e0820183905261010082018390526101208201839052610140820183905260aa610160830181905261018083018190526101a0830181905260666101c084015260ee6101e08401819052610200840181905261022084018190526101106102408501819052610260850186905261028085018690526102a085018690526102c08501526102e08401819052610300840181905261032084018190526103408401526103608301526103808201526103a081018290526103c0810182905260886103e08201526104008101829052610420810182905261044081018290526104608101919091526101586104808201526200093490600b906025620024c5565b506040805161042081018252609f80825260d460208301819052606a938301849052603560608401819052601a608085015260a0840183905260c0840181905261010960e08501819052610100850182905261012085018390526101408501849052610160850181905261018085018290526101a085018190526101c085018190526101e085018390526102008501829052610220850184905260ef6102408601526102608501829052610280850186905260056102a08601526102c085018690526102e08501919091526103008401829052610320840182905261034084019490945261036083019190915261038082018190526103a082018390526103c08201526103e08101919091526113ca61040082015262000a5990600c906021620024c5565b506040805161062081018252608b8082526101166020830181905292820183905260fa60608301819052608083015260c260a0830181905260de60c0840181905260e08401859052610100840185905261012084018290526101408401819052605361016085018190526101808501919091526101a084018590526101c084018390526101e08401839052601b610200850181905261022085018690526102408501869052610260850186905261028085018690526102a085018190526102c085018690526102e08501849052610300850186905261032085018690526103408501869052610360850186905261038085018690526103a085018690526103c085018690526103e08501869052610400850186905261042085018690526104408501869052610460850181905261048085018490526104a085018490526104c085018490526104e085019390935260006105008501526105208401859052610540840191909152610560830181905261058083018190526105a08301939093526105c08201929092526105e081019190915261013261060082015262000c0490600d906031620024c5565b5060408051610120810182526103d5808252610b81602083015261028e92820183905260106060830152608082015261014760a082015260c081019190915260a360e0820152610ccf61010082015262000c6390600e906009620024c5565b506040805161058081018252602480825260e1602083018190529282018390526060820183905261016860808301819052608760a0840152601b60c0840181905260e0840182905261013b610100850181905261012085018190526101408501819052610160850152610180840185905260b46101a085018190526101c085018690526101e0850181905261020085018390526102208501819052602d6102408601819052610260860184905261028086018490526102a086018490526102c08601929092526102e0850193909352610300840182905261032084018190526103408401839052610360840182905261038084018590526103a084018290526103c084018590526103e084018590526104008401829052610420840183905261044084015261046083015260126104808301526104a082018390526104c082018390526104e08201839052610500820183905261052082015261054081019190915261016961056082015262000dde90600f90602c620024c5565b50604080516101e08101825261036b81526104f5602082015261030b918101829052606081018290526080810182905260a0810182905260c0810182905260e08101829052610100810182905261012081018290526101408101829052610160810191909152601161018082015260086101a082015260296101c082015262000e6c90601090600f620024c5565b506040805161042081018252600080825260208201819052918101829052606081018290526080810182905260a0810182905260c0810182905260e08101829052610100810182905261012081018290526101408101829052610160810182905261018081018290526101a081018290526101c081018290526101e08101829052610200810182905261022081018290526102408101829052610260810182905261028081018290526102a081018290526102c081018290526102e08101829052610300810182905261032081018290526103408101829052610360810182905261038081018290526103a081018290526103c081018290526103e081019190915261271061040082015262000f87906011906021620024c5565b50604080516101c081018252600080825260208201819052918101829052606081018290526080810182905260a0810182905260c0810182905260e08101829052610100810182905261012081018290526101408101829052610160810182905261018081018290526101a08101919091526200100990601290600e62002575565b506040805161016081018252600080825260208201819052918101829052606081018290526080810182905260a0810182905260c0810182905260e08101829052610100810182905261012081018290526101408101919091526200107390601390600b62002575565b506040805161094081018252600080825260208201819052918101829052606081018290526080810182905260a0810182905260c0810182905260e0810182905261010081018290526101208101829052610140810182905261016081018290526101808082018390526101a082018390526101c082018390526101e08201839052610200820183905261022082018390526102408201839052610260820183905261028082018390526102a082018390526102c082018390526102e08201839052610300820183905261032082018390526103408201839052610360820183905261038082018390526103a082018390526103c082018390526103e08201839052610400820183905261042082018390526104408201839052610460820183905261048082018390526104a082018390526104c082018390526104e08201839052610500820183905261052082018390526105408201839052610560820183905261058082018390526105a082018390526105c082018390526105e08201839052610600820183905261062082018390526106408201839052610660820183905261068082018390526106a082018390526106c082018390526106e08201839052610700820183905261072082018390526107408201839052610760820183905261078082018390526107a082018390526107c082018390526107e082018390526108008201839052610820820152611e0c61084082015261078361086082015261088081018290526108a081018290526108c081018290526108e081018290526109008101919091526001610920820152620012d690601490604a620024c5565b506040805161016081018252600080825260208201819052918101829052606081018290526080810182905260a0810182905260c0810182905260e0810182905261010081018290526101208101919091526127106101408201526200134190601590600b620024c5565b506040805161010081018252600080825260208201819052918101829052606081018290526080810182905261038d60a082015260c081019190915261238360e082015262001395906016906008620024c5565b506040805161010081018252600080825260208201819052918101829052606081018290526080810182905260a0810182905260c081019190915261271060e0820152620013e8906017906008620024c5565b50604080516104a08101825261020e808252602082018190529181018290526000606082018190526080820181905260a0820181905260c0820181905260e08201819052610100820183905261012082018190526101408201819052610160820181905261018082018390526101a082018190526101c082018390526101e08201819052610200820181905261022082018190526102408201839052610260820183905261028082018390526102a082018390526102c082018390526102e08201839052610300820183905261032082018390526103408201839052610360820183905261038082018390526103a082018190526103c082018190526103e082019290925261040081018290526104208101829052610440810182905261046081019190915261021461048082015262001527906018906025620024c5565b50604080516104208101825260508082526000602083018190526101909383019390935260f0606083018190526080830182905260a0830184905260c083015260e08201839052610100820183905261012082018190526101408201819052610160820181905261018082018390526101a082018390526101c082018390526101e08201839052610200820181905261022082018190526102408201839052610260820183905261028082018190526102a082018190526102c082018390526102e0820181905261030082018190526103208201819052610340820181905261036082015261038081018290526103a081018290526103c081018290526103e0810191909152611f4061040082015262001646906019906021620024c5565b506040805161062081018252610121808252600060208301819052928201839052606082018390526080820183905261019460a08301526101ce60c0830181905261024260e0840181905261010084018190526101208401859052610140840182905260ad6101608501526101808401919091526101a083018190526101c083018490526101e083018490526039610200840181905261022084018590526102408401819052610260840185905261028084018190526102a084018190526102c084018290526102e08401839052610300840182905261032084018190526103408401859052610360840181905261038084018190526103a084018190526103c084018290526103e08401829052610400840185905261042084018590526104408401859052610460840185905261048084018590526104a084018590526104c084018190526104e084019290925261050083015261052082018390526105408201839052610560820183905260e76105808301526105a08201526105c081018290526105e08101919091526106d1610600820152620017eb90601a906031620024c5565b5060408051610120810182526102ca80825260208201819052918101829052600060608201819052608082019290925260a0810182905260c0810182905260e0810191909152611be86101008201526200184a90601b906009620024c5565b506040805161058081018252602480825260e1602083018190529282018390526060820183905261016860808301819052608760a0840152601b60c0840181905260e0840182905261013b610100850181905261012085018190526101408501819052610160850152610180840185905260b46101a085018190526101c085018690526101e0850181905261020085018390526102208501819052602d6102408601819052610260860184905261028086018490526102a086018490526102c08601929092526102e0850193909352610300840182905261032084018190526103408401839052610360840182905261038084018590526103a084018290526103c084018590526103e084018590526104008401829052610420840183905261044084015261046083015260126104808301526104a082018390526104c082018390526104e082018390526105008201839052610520820152610540810191909152610169610560820152620019c590601c90602c620024c5565b50604080516101e08101825261036b81526104f5602082015261030b918101829052606081018290526080810182905260a0810182905260c0810182905260e08101829052610100810182905261012081018290526101408101829052610160810191909152601161018082015260086101a082015260296101c082015262001a5390601d90600f620024c5565b50604080516104208101825261012f8082526020820181905291810182905260608101829052609760808201819052601e60a08301819052600060c0840181905260e0840152610100830182905261012083018290526101408301829052610160830182905261018083018190526101a083018490526101c083018290526101e08301819052610200830184905261022083018490526102408301849052610260830184905261028083018490526102a083018490526102c083018190526102e0830191909152610300820183905261032082018390526103408201839052610360820183905261038082018390526103a082018390526103c082018390526103e0820192909252610bfa61040082015262001b7291906021620024c5565b50604080516101c0810182526102858082526000602083015261050a92820192909252610142606082018190526080820183905260a0820183905260c082018390526103c760e08301819052610100830191909152610120820181905261014082019290925261016081018290526101808101919091526103cd6101a082015262001c0290601f90600e620024c5565b5060408051610160810182526109c480825260208083018290529282018190526000606083018190526080830181905260a0830181905260c0830181905260e08301819052610100830181905261012083019190915261014082015262001c6c9190600b620024c5565b506040805161094081018252600080825260208201819052918101829052606081018290526080810182905260a0810182905261024c60c0820181905260e08201819052610100820181905261012082018190526101408201819052610160820183905261018082018390526101a082018190526101c082018390526101e08201839052610200820181905261022082018390526102408201839052610260820183905261028082018390526102a082018390526102c082018190526102e08201839052610300820183905261032082018390526103408201839052610360820181905261038082018390526103a082018390526103c082018390526103e08201819052610400820181905261042082018390526104408201839052610460820183905261048082018190526104a082018390526104c082018390526104e08201839052610500820183905261052082018190526105408201839052610560820183905261058082018390526105a082018390526105c082018390526105e08201839052610600820183905261062082018390526106408201839052610660820181905261068082018390526106a082018390526106c082018390526106e08201839052610700820181905261072082018390526107408201839052610760820183905261078082018390526107a082018190526107c082018390526107e08201839052610800820183905261082082018390526108408201839052610860820183905261088082018390526108a082018390526108c08201526108e08101829052610900810191909152600461092082015262001ecf90602190604a620024c5565b50604080516101608101825261039d80825261022b6020830181905260b993830184905260608301526080820181905260a082015260c081019190915261051060e08201819052610100820181905261012082015261074161014082015262001f3d90602290600b620024c5565b50604080516101008101825260588082526020820181905291810182905260608101829052608081019190915261010960a08201526101ba60c082015261229560e082015262001f92906023906008620024c5565b50604080516101008101825260b7815261011260208201819052918101919091526012606082018190526080820152601b60a0820152602460c082018190526123d260e083015262001fe6916008620024c5565b50604080516104a08101825261015480825260208201819052918101829052606081018290526080810182905260a08101829052602260c0820181905260e0820183905261010082018390526101208201839052610140820183905260aa610160830181905261018083018190526101a0830181905260666101c084015260ee6101e08401819052610200840181905261022084018190526101106102408501819052610260850186905261028085018690526102a085018690526102c08501526102e08401819052610300840181905261032084018190526103408401526103608301526103808201526103a081018290526103c0810182905260886103e0820152610400810182905261042081018290526104408101829052610460810191909152610158610480820152620021229060259081620024c5565b50604080516104208101825260d980825261016a6020830181905292820181905260906060830181905260486080840181905261012160a0850181905260c0850183905260e08501869052610100850182905261012085018190526101408501849052610160850186905261018085018290526101a085018690526101c085018690526101e08501819052600061020086018190526102208601859052610240860152610260850182905261028085019290925260076102a08501526102c084018390526102e084015261030083018290526103208301829052610340830181905261036083018290526103808301526103a082018390526103c08201526103e0810191909152610cc561040082015262002242906026906021620024c5565b506040805161062081018252608b8082526101166020830181905292820183905260fa60608301819052608083015260c260a0830181905260de60c0840181905260e08401859052610100840185905261012084018290526101408401819052605361016085018190526101808501919091526101a084018590526101c084018390526101e08401839052601b610200850181905261022085018690526102408501869052610260850186905261028085018690526102a085018190526102c085018690526102e08501849052610300850186905261032085018690526103408501869052610360850186905261038085018690526103a085018690526103c085018690526103e08501869052610400850186905261042085018690526104408501869052610460850181905261048085018490526104a085018490526104c085018490526104e085019390935260006105008501526105208401859052610540840191909152610560830181905261058083018190526105a08301939093526105c08201929092526105e0810191909152610132610600820152620023ed906027906031620024c5565b5060408051610120810182526103d5808252610b81602083015261028e92820183905260106060830152608082015261014760a082015260c081019190915260a360e0820152610ccf6101008201526200244c906028906009620024c5565b5050603080546001600160a01b0319166001600160a01b03929092169190911790555062002673565b600080546001600160a01b038381166001600160a01b0319831681178455604051919092169283917f8be0079c531659141344cd1fd0a4f28419497f9722a3daafe3b4186f6b6457e09190a35050565b82805482825590600052602060002090600f01601090048101928215620025635791602002820160005b838211156200253157835183826101000a81548161ffff021916908361ffff1602179055509260200192600201602081600101049283019260010302620024ef565b8015620025615782816101000a81549061ffff021916905560020160208160010104928301926001030262002531565b505b5062002571929150620025e0565b5090565b82805482825590600052602060002090600f01601090048101928215620025635791602002820160005b838211156200253157835183826101000a81548161ffff021916908360ff16021790555092602001926002016020816001010492830192600103026200259f565b5b80821115620025715760008155600101620025e1565b8051620026048162002659565b92915050565b600080604083850312156200261d578182fd5b6200262b84838501620025f7565b915060206200263d85828601620025f7565b9150509250929050565b60006001600160a01b03821662002604565b620026648162002647565b81146200267057600080fd5b50565b61400380620026836000396000f3fe608060405234801561001057600080fd5b50600436106102e95760003560e01c80638da5cb5b11610191578063d337c2c3116100e3578063f2a90a7611610097578063fd88767711610071578063fd88767714610728578063fdd5e4e81461073b578063fe31cecf1461075c57600080fd5b8063f2a90a76146106ef578063f2fde38b14610702578063f6a5d7021461071557600080fd5b8063e0c9ae69116100c8578063e0c9ae6914610664578063e87ab5e0146106a0578063e8f255f0146106b357600080fd5b8063d337c2c3146105ec578063d6bf65011461062857600080fd5b8063b674b76111610145578063bfa933261161011f578063bfa933261461057e578063c1dfb56714610591578063cd369849146105c557600080fd5b8063b674b7611461051c578063b9f8e72a14610558578063bc4617fb1461056b57600080fd5b8063aacb2fa611610176578063aacb2fa614610501578063b3215d4914610501578063b4de62161461050957600080fd5b80638da5cb5b146104b4578063a4cd9a11146104c557600080fd5b806348a621a91161024a5780636f5c723b116101fe5780637c213e7b116101d85780637c213e7b146104865780637e8e0657146104995780638aaad546146104a157600080fd5b80636f5c723b14610463578063715018a61461046b578063761d9db81461047357600080fd5b80634c63ba131161022f5780634c63ba131461040b5780636432609f1461043d578063677bfad31461045057600080fd5b806348a621a9146103e55780634b65e32f146103f857600080fd5b8063397bcf61116102a15780633e1ed132116102865780633e1ed1321461039d57806340eb8e22146103b0578063480bc3c8146103d057600080fd5b8063397bcf611461037557806339bfa8731461038a57600080fd5b80631a5d193d116102d25780631a5d193d1461032a578063220b028d1461034a5780632c3e0c5c1461035f57600080fd5b80630e275391146102ee5780631866112c14610317575b600080fd5b602c54610301906001600160a01b031681565b60405161030e919061390e565b60405180910390f35b602d54610301906001600160a01b031681565b61033d61033836600461330a565b61076f565b60405161030e919061392d565b610352600381565b60405161030e9190613ae1565b61036861271081565b60405161030e9190613a32565b6103886103833660046131e7565b6107dc565b005b61033d6103983660046133bd565b61087f565b6103886103ab3660046131e7565b610f28565b6103c36103be3660046131c9565b610fc2565b60405161030e919061391c565b6103d861139f565b60405161030e9190613980565b6103d86103f3366004613344565b6113bb565b6103d8610406366004613287565b6113e5565b6104307d01000000000000000000000000000000000000000000000000000000000081565b60405161030e9190613964565b602e54610301906001600160a01b031681565b61030161045e36600461330a565b611811565b6103d861183b565b610388611857565b6103d8610481366004613287565b61188d565b6103686104943660046132a4565b611a9a565b610352600d81565b6103d86104af366004613194565b611c1b565b6000546001600160a01b0316610301565b6103d86040518060400160405280600581526020017f272f25336500000000000000000000000000000000000000000000000000000081525081565b610352600c81565b6103c3610517366004613287565b611e76565b6103d86040518060400160405280600a81526020017f2725323066696c6c3d270000000000000000000000000000000000000000000081525081565b6103d861056636600461321d565b611ee7565b610388610579366004613152565b61252f565b61038861058c3660046131e7565b612631565b6105b87f4d4c51434148565a00000000000000000000000000000000000000000000000081565b60405161030e9190613972565b6105b87f020204060701010000000000000000000000000000000000000000000000000081565b6103d86040518060400160405280600381526020017f253233000000000000000000000000000000000000000000000000000000000081525081565b6103d86040518060400160405280600d81526020017f25336370617468253230643d270000000000000000000000000000000000000081525081565b6103d86040518060400160405280600381526020017f253230000000000000000000000000000000000000000000000000000000000081525081565b6103d86106ae3660046133bd565b6126cb565b6103d86040518060400160405280601281526020017f272532307374726f6b653d27253233303030000000000000000000000000000081525081565b602a54610301906001600160a01b031681565b610388610710366004613135565b6127ba565b6103886107233660046131e7565b612816565b610368610736366004613372565b6128b0565b61074e610749366004613287565b61290d565b60405161030e929190613ac6565b61038861076a3660046131e7565b612a5a565b610777612d5e565b60005b600d8110156107d65761078f61271084613e78565b8282600d81106107af57634e487b7160e01b600052603260045260246000fd5b61ffff9092166020929092020152600e9290921c91806107ce81613e13565b91505061077a565b50919050565b6000546001600160a01b0316331461080f5760405162461bcd60e51b815260040161080690613a12565b60405180910390fd5b61084e82828080601f016020809104026020016040519081016040528093929190818152602001838380828437600092019190915250612a9092505050565b602d805473ffffffffffffffffffffffffffffffffffffffff19166001600160a01b03929092169190911790555050565b610887612d5e565b60006108928461076f565b905060006108ca84836040516020016108ac9291906138ed565b6040516020818303038152906040528051906020012060001c61076f565b60295460208401516040517f7f436b5c0000000000000000000000000000000000000000000000000000000081529293506000926001600160a01b0390921691637f436b5c9161091c91600401613a32565b60206040518083038186803b15801561093457600080fd5b505afa158015610948573d6000803e3d6000fd5b505050506040513d601f19601f8201168201806040525081019061096c91906133eb565b60ff16905061097c600486613e8e565b60ff166109df57815161ffff908116845260c08084015182169085015260e0808401518216908501526101008084015182169085015261014080840151821690850152610160808401518216908501526101808084015190911690840152610a47565b6109ea600486613e8e565b60ff1660011415610a475760208083015161ffff9081169185019190915260408084015182169085015260608084015182169085015260808084015182169085015260a08084015182169085015261012080840151909116908401525b600060028261ffff1660038110610a6e57634e487b7160e01b600052603260045260246000fd5b600d0201600701600781548110610a9557634e487b7160e01b600052603260045260246000fd5b90600052602060002090601091828204019190066002029054906101000a900461ffff16612710610ac69190613cff565b61ffff16846007602002015161ffff16109050600060028361ffff1660038110610b0057634e487b7160e01b600052603260045260246000fd5b600d0201600801600781548110610b2757634e487b7160e01b600052603260045260246000fd5b90600052602060002090601091828204019190066002029054906101000a900461ffff16612710610b589190613cff565b61ffff16856008602002015161ffff16109050600060028461ffff1660038110610b9257634e487b7160e01b600052603260045260246000fd5b600d0201600901602481548110610bb957634e487b7160e01b600052603260045260246000fd5b90600052602060002090601091828204019190066002029054906101000a900461ffff16612710610bea9190613cff565b61ffff16866009602002015161ffff16109050600060028561ffff1660038110610c2457634e487b7160e01b600052603260045260246000fd5b600d0201600b01603081548110610c4b57634e487b7160e01b600052603260045260246000fd5b90600052602060002090601091828204019190066002029054906101000a900461ffff16612710610c7c9190613cff565b61ffff1687600b602002015161ffff16109050600080600289826020020151610ca59190613e58565b61ffff1611905060005b600d60ff82161015610f18576029546000906001600160a01b031663fca228ce8b60ff8516600d8110610cf257634e487b7160e01b600052603260045260246000fd5b6020020151848b6040518463ffffffff1660e01b8152600401610d1793929190613a40565b60206040518083038186803b158015610d2f57600080fd5b505afa158015610d43573d6000803e3d6000fd5b505050506040513d601f19601f82011682018060405250810190610d6791906133eb565b905060ff8216158015610d875750610d8060048d613e8e565b60ff166002145b15610da6578851610d9a90600a90613e58565b61ffff16610da65750602c5b6000610db88360ff168360ff16611a9a565b905060008360ff1660021480610dd157508360ff16600c145b8015610ddb575087155b8015610de5575088155b80610dfc57508360ff166007148015610dfc575087155b80610e1357508360ff16600a148015610e13575087155b80610e66575060028460ff161080610e3c575060028460ff16118015610e3c575060078460ff16105b80610e4a57508360ff166008145b80610e5857508360ff166009145b80610e6657508360ff16600b145b90506000878015610e745750865b8015610e8b57508460ff166009148015610e8b5750855b80610ea257508460ff16600b148015610ea2575085155b905061ffff83811610801580610eb6575082155b80610ebe5750815b15610ec95761ffff93505b838f8760ff16600d8110610eed57634e487b7160e01b600052603260045260246000fd5b602002019061ffff16908161ffff168152505050505050508080610f1090613e27565b915050610caf565b5050505050505050505b92915050565b6000546001600160a01b03163314610f525760405162461bcd60e51b815260040161080690613a12565b610f9182828080601f016020809104026020016040519081016040528093929190818152602001838380828437600092019190915250612a9092505050565b602e805473ffffffffffffffffffffffffffffffffffffffff19166001600160a01b03929092169190911790555050565b602e54606090600090610fdd906001600160a01b0316612b08565b602d54909150600090610ff8906001600160a01b0316612b08565b9050606060008060005b600d61ffff821610156111225761ffff88828216600d811061103457634e487b7160e01b600052603260045260246000fd5b602002015161ffff16141561104857611110565b61108986898361ffff16600d811061107057634e487b7160e01b600052603260045260246000fd5b6020020151611080906002613c93565b61ffff16612b18565b92506110ce86898361ffff16600d81106110b357634e487b7160e01b600052603260045260246000fd5b60200201516110c3906002613c93565b611080906002613be4565b9150836110ed8661ffff86166110e48787613cff565b61ffff16612b4e565b6040516020016110fe929190613783565b60405160208183030381529060405293505b8061111a81613df1565b915050611002565b50600080600385516111349190613c6b565b67ffffffffffffffff81111561115a57634e487b7160e01b600052604160045260246000fd5b6040519080825280602002602001820160405280156111a557816020015b60408051606081018252600080825260208083018290529282015282526000199092019101816111785790505b50905060005b855181101561139257600080732a810409872AfC346F9B5b26571Fd6eC42EA4849635dfb512c8985815181106111f157634e487b7160e01b600052603260045260246000fd5b01602001516001600160f81b0319168a61120c876001613c0d565b8151811061122a57634e487b7160e01b600052603260045260246000fd5b01602001516001600160f81b0319168b611245886002613c0d565b8151811061126357634e487b7160e01b600052603260045260246000fd5b01602001516040517fffffffff0000000000000000000000000000000000000000000000000000000060e086901b1681526112ad9392916001600160f81b0319169060040161393c565b604080518083038186803b1580156112c457600080fd5b505af41580156112d8573d6000803e3d6000fd5b505050506040513d601f19601f820116820180604052508101906112fc91906132dc565b9092509050600061130e600283613e58565b61ffff1611945060018161ffff16901c905060405180606001604052808361ffff1681526020018261ffff168152602001861515815250846003856113539190613c6b565b8151811061137157634e487b7160e01b600052603260045260246000fd5b6020026020010181905250505060038161138b9190613c0d565b90506111ab565b5098975050505050505050565b6040518060a00160405280606d8152602001613f61606d913981565b6060826040516020016113ce919061388b565b604051602081830303815290604052905092915050565b602a54606090600090611400906001600160a01b0316612b08565b9050600081611410856003613c93565b61ffff168151811061143257634e487b7160e01b600052603260045260246000fd5b01602001516001600160f81b0319161480156114955750600081611457856003613c93565b611462906001613be4565b61ffff168151811061148457634e487b7160e01b600052603260045260246000fd5b01602001516001600160f81b031916145b801561150757507f0100000000000000000000000000000000000000000000000000000000000000816114c9856003613c93565b6114d4906002613be4565b61ffff16815181106114f657634e487b7160e01b600052603260045260246000fd5b01602001516001600160f81b031916145b1561154757505060408051808201909152600481527f6e6f6e65000000000000000000000000000000000000000000000000000000006020820152919050565b6040518060400160405280600381526020017f25323300000000000000000000000000000000000000000000000000000000008152508184600361158b9190613c93565b61ffff16815181106115ad57634e487b7160e01b600052603260045260246000fd5b016020015160405163c1338a6960e01b8152732a810409872AfC346F9B5b26571Fd6eC42EA48499163c1338a69916115f19160f81c90601090600290600401613a76565b60006040518083038186803b15801561160957600080fd5b505af415801561161d573d6000803e3d6000fd5b505050506040513d6000823e601f3d908101601f191682016040526116459190810190613252565b82611651866003613c93565b61165c906001613be4565b61ffff168151811061167e57634e487b7160e01b600052603260045260246000fd5b016020015160405163c1338a6960e01b8152732a810409872AfC346F9B5b26571Fd6eC42EA48499163c1338a69916116c29160f81c90601090600290600401613a76565b60006040518083038186803b1580156116da57600080fd5b505af41580156116ee573d6000803e3d6000fd5b505050506040513d6000823e601f3d908101601f191682016040526117169190810190613252565b83611722876003613c93565b61172d906002613be4565b61ffff168151811061174f57634e487b7160e01b600052603260045260246000fd5b016020015160405163c1338a6960e01b8152732a810409872AfC346F9B5b26571Fd6eC42EA48499163c1338a69916117939160f81c90601090600290600401613a76565b60006040518083038186803b1580156117ab57600080fd5b505af41580156117bf573d6000803e3d6000fd5b505050506040513d6000823e601f3d908101601f191682016040526117e79190810190613252565b6040516020016117fa94939291906137bb565b604051602081830303815290604052915050919050565b602b818154811061182157600080fd5b6000918252602090912001546001600160a01b0316905081565b604051806060016040528060388152602001613f296038913981565b6000546001600160a01b031633146118815760405162461bcd60e51b815260040161080690613a12565b61188b6000612c16565b565b606060008061189b8461290d565b915091506000806118e0602b83815481106118c657634e487b7160e01b600052603260045260246000fd5b6000918252602090912001546001600160a01b0316612b08565b805190915063ffffffff85165b818663ffffffff161061194f5782516119069082613d22565b90508361191281613e13565b945050611939602b85815481106118c657634e487b7160e01b600052603260045260246000fd5b92508251826119489190613c0d565b91506118ed565b600061195b8787613d28565b63ffffffff1667ffffffffffffffff81111561198757634e487b7160e01b600052604160045260246000fd5b6040519080825280601f01601f1916602001820160405280156119b1576020820181803683370190505b50905060005b81518110156113925784518310611a0057856119d281613e13565b9650506119f9602b87815481106118c657634e487b7160e01b600052603260045260246000fd5b9450600092505b848381518110611a2057634e487b7160e01b600052603260045260246000fd5b602001015160f81c60f81b828281518110611a4b57634e487b7160e01b600052603260045260246000fd5b60200101907effffffffffffffffffffffffffffffffffffffffffffffffffffffffffffff1916908160001a90535082611a8481613e13565b9350508080611a9290613e13565b9150506119b7565b600080611b38602f8054611aad90613d9d565b80601f0160208091040260200160405190810160405280929190818152602001828054611ad990613d9d565b8015611b265780601f10611afb57610100808354040283529160200191611b26565b820191906000526020600020905b815481529060010190602001808311611b0957829003601f168201915b50505050508560026110809190613c93565b90506000611be2602f8054611b4c90613d9d565b80601f0160208091040260200160405190810160405280929190818152602001828054611b7890613d9d565b8015611bc55780601f10611b9a57610100808354040283529160200191611bc5565b820191906000526020600020905b815481529060010190602001808311611ba857829003601f168201915b5050505050866001611bd79190613be4565b611080906002613c93565b905061ffff8116611bf38584613be4565b61ffff1610611c085761ffff92505050610f22565b611c128483613be4565b95945050505050565b606060006040518060a00160405280606d8152602001613f61606d9139905060005b83518161ffff161015611e4a57816040518060400160405280600d81526020017f25336370617468253230643d2700000000000000000000000000000000000000815250611cbc610566878561ffff1681518110611cab57634e487b7160e01b600052603260045260246000fd5b60200260200101516000015161188d565b6040518060400160405280600a81526020017f2725323066696c6c3d2700000000000000000000000000000000000000000000815250611d2a888661ffff1681518110611d1957634e487b7160e01b600052603260045260246000fd5b6020026020010151602001516113e5565b604051602001611d3e9594939291906137e9565b6040516020818303038152906040529150838161ffff1681518110611d7357634e487b7160e01b600052603260045260246000fd5b60200260200101516040015115611dde57816040518060400160405280601281526020017f272532307374726f6b653d272532333030300000000000000000000000000000815250604051602001611dcc929190613783565b60405160208183030381529060405291505b816040518060400160405280600581526020017f272f253365000000000000000000000000000000000000000000000000000000815250604051602001611e26929190613783565b60405160208183030381529060405291508080611e4290613df1565b915050611c3d565b5080604051806060016040528060388152602001613f29603891396040516020016117fa929190613783565b6060611e80612d5e565b61ffff8316815260015b600d811015611ed65761ffff8282600d8110611eb657634e487b7160e01b600052603260045260246000fd5b61ffff909216602092909202015280611ece81613e13565b915050611e8a565b50611ee081610fc2565b9392505050565b6060806060600080600080805b611f0060036008613c4a565b60ff1689516008611f119190613cc0565b611f1b9190613d22565b8563ffffffff161161252257611f32600886613c83565b9350611f3f600886613e7e565b9250611f4d60036008613d38565b60ff16611f5b846008613d38565b60ff168a611f6a876001613be4565b61ffff1681518110611f8c57634e487b7160e01b600052603260045260246000fd5b602001015160f81c60f81b7effffffffffffffffffffffffffffffffffffffffffffffffffffffffffffff1916901c8460ff168b8761ffff1681518110611fe357634e487b7160e01b600052603260045260246000fd5b01602001516001600160f81b031916901b1760f81c901c91507f020204060701010000000000000000000000000000000000000000000000000060ff83166008811061203f57634e487b7160e01b600052603260045260246000fd5b1a905061204d600386613c20565b945061205a600886613c83565b9350612067600886613e7e565b92508060ff1667ffffffffffffffff81111561209357634e487b7160e01b600052604160045260246000fd5b6040519080825280601f01601f1916602001820160405280156120bd576020820181803683370190505b50955060005b8160ff168160ff16101561227d578360ff168a8260ff16876120e59190613be4565b61ffff168151811061210757634e487b7160e01b600052603260045260246000fd5b602001015160f81c60f81b7effffffffffffffffffffffffffffffffffffffffffffffffffffffffffffff1916901b878260ff168151811061215957634e487b7160e01b600052603260045260246000fd5b60200101907effffffffffffffffffffffffffffffffffffffffffffffffffffffffffffff1916908160001a905350895161219760ff831687613be4565b6121a2906001613be4565b61ffff16101561226b576121b7846008613d38565b60ff168a8260ff16876121ca9190613be4565b6121d5906001613be4565b61ffff16815181106121f757634e487b7160e01b600052603260045260246000fd5b602001015160f81c60f81b7effffffffffffffffffffffffffffffffffffffffffffffffffffffffffffff1916901c878260ff168151811061224957634e487b7160e01b600052603260045260246000fd5b0160200180516001600160f81b031992831692169190911790600082901a9053505b8061227581613e27565b9150506120c3565b50867f4d4c51434148565a0000000000000000000000000000000000000000000000008360ff16600881106122c257634e487b7160e01b600052603260045260246000fd5b1a60f81b876000815181106122e757634e487b7160e01b600052603260045260246000fd5b01602001516040517f6900a3ae000000000000000000000000000000000000000000000000000000008152732a810409872AfC346F9B5b26571Fd6eC42EA484991636900a3ae9161233e9160f81c90600401613a68565b60006040518083038186803b15801561235657600080fd5b505af415801561236a573d6000803e3d6000fd5b505050506040513d6000823e601f3d908101601f191682016040526123929190810190613252565b6040516020016123a493929190613760565b60408051601f19818403018152919052965060015b8160ff168160ff16101561250257876040518060400160405280600381526020017f2532300000000000000000000000000000000000000000000000000000000000815250888360ff168151811061242157634e487b7160e01b600052603260045260246000fd5b01602001516040517f6900a3ae000000000000000000000000000000000000000000000000000000008152732a810409872AfC346F9B5b26571Fd6eC42EA484991636900a3ae916124789160f81c90600401613a68565b60006040518083038186803b15801561249057600080fd5b505af41580156124a4573d6000803e3d6000fd5b505050506040513d6000823e601f3d908101601f191682016040526124cc9190810190613252565b6040516020016124de93929190613799565b604051602081830303815290604052975080806124fa90613e27565b9150506123b9565b5061250e816008613cda565b61251b9060ff1686613c20565b9450611ef4565b5094979650505050505050565b6000546001600160a01b031633146125595760405162461bcd60e51b815260040161080690613a12565b60005b60ff811682111561262c57602b6125db84848460ff1681811061258f57634e487b7160e01b600052603260045260246000fd5b90506020028101906125a19190613aef565b8080601f016020809104026020016040519081016040528093929190818152602001838380828437600092019190915250612a9092505050565b815460018101835560009283526020909220909101805473ffffffffffffffffffffffffffffffffffffffff19166001600160a01b039092169190911790558061262481613e27565b91505061255c565b505050565b6000546001600160a01b0316331461265b5760405162461bcd60e51b815260040161080690613a12565b61269a82828080601f016020809104026020016040519081016040528093929190818152602001838380828437600092019190915250612a9092505050565b602a805473ffffffffffffffffffffffffffffffffffffffff19166001600160a01b03929092169190911790555050565b6030546040517f422627c30000000000000000000000000000000000000000000000000000000081526060916000916001600160a01b039091169063422627c39061271a908790600401613a68565b60206040518083038186803b15801561273257600080fd5b505afa158015612746573d6000803e3d6000fd5b505050506040513d601f19601f8201168201806040525081019061276a9190613327565b90506000612778828561087f565b9050600061278582610fc2565b905061279081611c1b565b6040516020016127a0919061384e565b604051602081830303815290604052935050505092915050565b6000546001600160a01b031633146127e45760405162461bcd60e51b815260040161080690613a12565b6001600160a01b03811661280a5760405162461bcd60e51b815260040161080690613991565b61281381612c16565b50565b6000546001600160a01b031633146128405760405162461bcd60e51b815260040161080690613a12565b61287f82828080601f016020809104026020016040519081016040528093929190818152602001838380828437600092019190915250612a9092505050565b602c805473ffffffffffffffffffffffffffffffffffffffff19166001600160a01b03929092169190911790555050565b600283600381106128c057600080fd5b600d020182600d81106128d257600080fd5b0181815481106128e157600080fd5b906000526020600020906010918282040191900660020292509250509054906101000a900461ffff1681565b602c5460009081908190612929906001600160a01b0316612b08565b9050600061293c82611080876002613c93565b61ffff1690506000612953836110c3886002613c93565b61ffff1690506103e88661ffff1663ffffffff1611801561297b5750614e208263ffffffff16105b1561299b578161298e61ffff6001613c20565b6129989190613c20565b91505b6107d061ffff87161180156129b75750619c408263ffffffff16105b156129d757816129ca61ffff6001613c20565b6129d49190613c20565b91505b6103e861ffff87161180156129f35750614e208163ffffffff16105b15612a135780612a0661ffff6001613c20565b612a109190613c20565b90505b6107d061ffff8716118015612a2f5750619c408163ffffffff16105b15612a4f5780612a4261ffff6001613c20565b612a4c9190613c20565b90505b909590945092505050565b6000546001600160a01b03163314612a845760405162461bcd60e51b815260040161080690613a12565b61262c602f8383612d7d565b600080612abb83604051602001612aa79190613882565b604051602081830303815290604052612c73565b90508051602082016000f091506001600160a01b0382166107d6576040517f08d4abb600000000000000000000000000000000000000000000000000000000815260040160405180910390fd5b6060610f22826001600019612c9f565b6000612b25826002613c0d565b83511015612b455760405162461bcd60e51b8152600401610806906139f2565b50016002015190565b606081612b5c81601f613c0d565b1015612b7a5760405162461bcd60e51b815260040161080690613a02565b612b848284613c0d565b84511015612ba45760405162461bcd60e51b815260040161080690613a22565b606082158015612bc35760405191506000825260208201604052612c0d565b6040519150601f8416801560200281840101858101878315602002848b0101015b81831015612bfc578051835260209283019201612be4565b5050858452601f01601f1916604052505b50949350505050565b600080546001600160a01b0383811673ffffffffffffffffffffffffffffffffffffffff19831681178455604051919092169283917f8be0079c531659141344cd1fd0a4f28419497f9722a3daafe3b4186f6b6457e09190a35050565b6060815182604051602001612c8992919061382d565b6040516020818303038152906040529050919050565b6060833b80612cbe575050604080516020810190915260008152611ee0565b80841115612cdc575050604080516020810190915260008152611ee0565b83831015612d1c578084846040517f2c4a89fa00000000000000000000000000000000000000000000000000000000815260040161080693929190613a9e565b8383038482036000828210612d315782612d33565b815b60408051603f8301601f19168101909152818152955090508087602087018a3c505050509392505050565b604051806101a00160405280600d906020820280368337509192915050565b828054612d8990613d9d565b90600052602060002090601f016020900481019282612dab5760008555612e0f565b82601f10612de2578280017fffffffffffffffffffffffffffffffffffffffffffffffffffffffffffffff00823516178555612e0f565b82800160010185558215612e0f579182015b82811115612e0f578235825591602001919060010190612df4565b50612e1b929150612e1f565b5090565b5b80821115612e1b5760008155600101612e20565b6000612e47612e4284613b74565b613b58565b83815290506020810182606085028101861015612e6357600080fd5b60005b85811015612e8f57612e7887836130a6565b835260209092019160609190910190600101612e66565b5050509392505050565b6000612ea7612e4284613b98565b90508082856020860285011115612ebd57600080fd5b60005b85811015612e8f57612ed287836130f3565b83526020928301929190910190600101612ec0565b6000612ef5612e4284613bb9565b905082815260208101848484011115612f0d57600080fd5b612f18848285613d61565b509392505050565b6000612f2e612e4284613bb9565b905082815260208101848484011115612f4657600080fd5b612f18848285613d6d565b8035610f2281613ef3565b60008083601f840112612f6d578182fd5b50813567ffffffffffffffff811115612f84578182fd5b602083019150836020820283011115612f9c57600080fd5b9250929050565b600082601f830112612fb3578081fd5b8135612fc3848260208601612e34565b949350505050565b600082601f830112612fdb578081fd5b600d612fc3848285612e99565b8035610f2281613f07565b60008083601f840112613004578182fd5b50813567ffffffffffffffff81111561301b578182fd5b602083019150836001820283011115612f9c57600080fd5b600082601f830112613043578081fd5b8135612fc3848260208601612ee7565b600082601f830112613063578081fd5b8151612fc3848260208601612f20565b600060208284031215613084578081fd5b61308e6020613b58565b9050600061309c848461311f565b9082015292915050565b6000606082840312156130b7578081fd5b6130c16060613b58565b905060006130cf84846130f3565b9082015260206130e1848483016130f3565b90820152604061309c84848301612fe8565b8035610f2281613f0f565b8051610f2281613f0f565b8035610f2281613f19565b8051610f2281613f19565b8035610f2281613f1f565b8051610f2281613f1f565b600060208284031215613146578081fd5b611ee083828401612f51565b60008060208385031215613164578081fd5b8083013567ffffffffffffffff81111561317c578182fd5b61318885828601612f5c565b92509250509250929050565b6000602082840312156131a5578081fd5b8082013567ffffffffffffffff8111156131bd578182fd5b612fc384828501612fa3565b60006101a082840312156131db578081fd5b611ee083828401612fcb565b600080602083850312156131f9578182fd5b8183013567ffffffffffffffff811115613211578283fd5b61318885828601612ff3565b60006020828403121561322e578081fd5b8082013567ffffffffffffffff811115613246578182fd5b612fc384828501613033565b600060208284031215613263578081fd5b8082015167ffffffffffffffff81111561327b578182fd5b612fc384828501613053565b600060208284031215613298578081fd5b611ee0838284016130f3565b600080604083850312156132b6578182fd5b6132c2848385016130f3565b915060206132d2858286016130f3565b9150509250929050565b600080604083850312156132ee578182fd5b6132fa848385016130fe565b915060206132d2858286016130fe565b60006020828403121561331b578081fd5b611ee083828401613109565b600060208284031215613338578081fd5b611ee083828401613114565b60008060408385031215613356578182fd5b61336284838501613109565b915060206132d285828601613073565b600080600060608486031215613386578081fd5b61339285828601613109565b925060206133a286828701613109565b92505060406133b386828701613109565b9150509250925092565b600080604083850312156133cf578182fd5b6133db84838501613109565b915060206132d28582860161311f565b6000602082840312156133fc578081fd5b611ee08382840161312a565b61341282826136ee565b5060600190565b6134238282613720565b5060200190565b61343381613d45565b82525050565b6000613443825190565b8084526020938401938301825b828110156134755781516134648782613408565b965050602082019150600101613450565b5093949350505050565b600d8160005b828110156134aa5781516134998682613419565b955050602082019150600101613485565b5050505050565b600d8160005b828110156134aa5781516134cb8682613419565b9550506020820191506001016134b7565b801515613433565b6001600160f81b03198116613433565b7fffffff00000000000000000000000000000000000000000000000000000000008116613433565b7fffffffffffffffff0000000000000000000000000000000000000000000000008116613433565b600061354e825190565b808452602084019350613565818560208601613d6d565b601f01601f19169290920192915050565b6000613580825190565b61358e818560208601613d6d565b9290920192915050565b61343381613d56565b7f630000000000000000000000000000000000000000000000000000000000000081525b60010190565b7f2f6d65746164617461000000000000000000000000000000000000000000000081525b60090190565b60148152602081017f746f55696e7431365f6f75744f66426f756e6473000000000000000000000000815290505b60200190565b600e8152602081017f736c6963655f6f766572666c6f7700000000000000000000000000000000000081529050613623565b60208082527f4f776e61626c653a2063616c6c6572206973206e6f7420746865206f776e65729101908152613623565b600081526135c5565b60118152602081017f736c6963655f6f75744f66426f756e647300000000000000000000000000000081529050613623565b7f80600e6000396000f3000000000000000000000000000000000000000000000081526135ef565b80516136fa8382613720565b50602081015161370d6020840182613720565b50604081015161262c60408401826134dc565b61ffff8116613433565b80613433565b63ffffffff8116613433565b61343363ffffffff8216613e40565b60ff8116613433565b61343360ff8216613e4c565b61376a8185613576565b905061377681846134e4565b600101612fc38183613576565b61378d8184613576565b9050611ee08183613576565b6137a38185613576565b90506137af8184613576565b9050612fc38183613576565b6137c58186613576565b90506137d18185613576565b90506137dd8184613576565b9050611c128183613576565b6137f38187613576565b90506137ff8186613576565b905061380b8185613576565b90506138178184613576565b90506138238183613576565b9695505050505050565b613836816135a1565b9050613842818461373c565b60040161378d816136c6565b7f646174613a696d6167652f7376672b786d6c2c000000000000000000000000008152601381015b9050610f228183613576565b6138768161368b565b7f68747470733a2f2f6170692e636861696e647265616d6572732e78797a2f746581527f73742f746f6b656e732f000000000000000000000000000000000000000000006020820152602a016138e1818361372a565b602001610f22816135cb565b6138f78184613754565b60010161390481836134b1565b6101a00192915050565b60208101610f22828461342a565b60208082528101611ee08184613439565b6101a08101610f22828461347f565b6060810161394a82866134e4565b61395760208301856134e4565b612fc360408301846134e4565b60208101610f2282846134f4565b60208101610f22828461351c565b60208082528101611ee08184613544565b60208082528101610f2281602681527f4f776e61626c653a206e6577206f776e657220697320746865207a65726f206160208201527f6464726573730000000000000000000000000000000000000000000000000000604082015260600190565b60208082528101610f22816135f5565b60208082528101610f2281613629565b60208082528101610f228161365b565b60208082528101610f2281613694565b60208101610f228284613720565b60608101613a4e8286613720565b613a5b602083018561374b565b612fc36040830184613720565b60208101610f22828461372a565b60608101613a84828661372a565b613a916020830185613598565b612fc36040830184613598565b60608101613aac828661372a565b613ab9602083018561372a565b612fc3604083018461372a565b60408101613ad48285613730565b611ee06020830184613730565b60208101610f22828461374b565b60008083357fffffffffffffffffffffffffffffffffffffffffffffffffffffffffffffffe136859003018112613b24578283fd5b8301915050803567ffffffffffffffff811115613b4057600080fd5b602082019150600181023603821315612f9c57600080fd5b6000613b6360405190565b9050613b6f8282613dc4565b919050565b600067ffffffffffffffff821115613b8e57613b8e613edd565b5060209081020190565b600067ffffffffffffffff821115613bb257613bb2613edd565b5060200290565b600067ffffffffffffffff821115613bd357613bd3613edd565b601f19601f83011660200192915050565b61ffff8116905061ffff8216915060008261ffff03821115613c0857613c08613e9b565b500190565b60008219821115613c0857613c08613e9b565b63ffffffff8116905063ffffffff8216915060008263ffffffff03821115613c0857613c08613e9b565b60ff8116905060ff8216915060008260ff03821115613c0857613c08613e9b565b815b9150600082613c7e57613c7e613eb1565b500490565b63ffffffff908116908216613c6d565b61ffff8116905061ffff8216915060008161ffff0483118215151615613cbb57613cbb613e9b565b500290565b6000816000190483118215151615613cbb57613cbb613e9b565b60ff8116905060ff8216915060008160ff0483118215151615613cbb57613cbb613e9b565b61ffff9081169082165b9150600082821015613d1d57613d1d613e9b565b500390565b81613d09565b63ffffffff908116908216613d09565b60ff908116908216613d09565b60006001600160a01b038216610f22565b600060ff8216610f22565b82818337506000910152565b60005b83811015613d88578181015183820152602001613d70565b83811115613d97576000848401525b50505050565b600281046001821680613db157607f821691505b602082108114156107d6576107d6613ec7565b601f19601f830116810181811067ffffffffffffffff82111715613dea57613dea613edd565b6040525050565b61ffff81169050600061ffff821415613e0c57613e0c613e9b565b5060010190565b6000600019821415613e0c57613e0c613e9b565b60ff81169050600060ff821415613e0c57613e0c613e9b565b6000610f228260e01b90565b6000610f228260f81b90565b61ffff9081169082165b9150600082613e7357613e73613eb1565b500690565b81613e62565b63ffffffff908116908216613e62565b60ff908116908216613e62565b634e487b7160e01b600052601160045260246000fd5b634e487b7160e01b600052601260045260246000fd5b634e487b7160e01b600052602260045260246000fd5b634e487b7160e01b600052604160045260246000fd5b613efc81613d45565b811461281357600080fd5b801515613efc565b61ffff8116613efc565b80613efc565b60ff8116613efc56fe2533637374796c65253365706174687b7374726f6b652d77696474683a302e37317d2533632f7374796c652533652533632f737667253365253363737667253230786d6c6e733d27687474703a2f2f7777772e77332e6f72672f323030302f7376672725323076696577426f783d2730253230302532303235352532303235352725323077696474683d273530307078272532306865696768743d27353030707827253365a2646970667358221220514ad8512fc1755227880ad5b57153b1d82c0c68c3ff34e6e5b857ca909563a164736f6c63430008040033",
  "deployedBytecode": "0x608060405234801561001057600080fd5b50600436106102e95760003560e01c80638da5cb5b11610191578063d337c2c3116100e3578063f2a90a7611610097578063fd88767711610071578063fd88767714610728578063fdd5e4e81461073b578063fe31cecf1461075c57600080fd5b8063f2a90a76146106ef578063f2fde38b14610702578063f6a5d7021461071557600080fd5b8063e0c9ae69116100c8578063e0c9ae6914610664578063e87ab5e0146106a0578063e8f255f0146106b357600080fd5b8063d337c2c3146105ec578063d6bf65011461062857600080fd5b8063b674b76111610145578063bfa933261161011f578063bfa933261461057e578063c1dfb56714610591578063cd369849146105c557600080fd5b8063b674b7611461051c578063b9f8e72a14610558578063bc4617fb1461056b57600080fd5b8063aacb2fa611610176578063aacb2fa614610501578063b3215d4914610501578063b4de62161461050957600080fd5b80638da5cb5b146104b4578063a4cd9a11146104c557600080fd5b806348a621a91161024a5780636f5c723b116101fe5780637c213e7b116101d85780637c213e7b146104865780637e8e0657146104995780638aaad546146104a157600080fd5b80636f5c723b14610463578063715018a61461046b578063761d9db81461047357600080fd5b80634c63ba131161022f5780634c63ba131461040b5780636432609f1461043d578063677bfad31461045057600080fd5b806348a621a9146103e55780634b65e32f146103f857600080fd5b8063397bcf61116102a15780633e1ed132116102865780633e1ed1321461039d57806340eb8e22146103b0578063480bc3c8146103d057600080fd5b8063397bcf611461037557806339bfa8731461038a57600080fd5b80631a5d193d116102d25780631a5d193d1461032a578063220b028d1461034a5780632c3e0c5c1461035f57600080fd5b80630e275391146102ee5780631866112c14610317575b600080fd5b602c54610301906001600160a01b031681565b60405161030e919061390e565b60405180910390f35b602d54610301906001600160a01b031681565b61033d61033836600461330a565b61076f565b60405161030e919061392d565b610352600381565b60405161030e9190613ae1565b61036861271081565b60405161030e9190613a32565b6103886103833660046131e7565b6107dc565b005b61033d6103983660046133bd565b61087f565b6103886103ab3660046131e7565b610f28565b6103c36103be3660046131c9565b610fc2565b60405161030e919061391c565b6103d861139f565b60405161030e9190613980565b6103d86103f3366004613344565b6113bb565b6103d8610406366004613287565b6113e5565b6104307d01000000000000000000000000000000000000000000000000000000000081565b60405161030e9190613964565b602e54610301906001600160a01b031681565b61030161045e36600461330a565b611811565b6103d861183b565b610388611857565b6103d8610481366004613287565b61188d565b6103686104943660046132a4565b611a9a565b610352600d81565b6103d86104af366004613194565b611c1b565b6000546001600160a01b0316610301565b6103d86040518060400160405280600581526020017f272f25336500000000000000000000000000000000000000000000000000000081525081565b610352600c81565b6103c3610517366004613287565b611e76565b6103d86040518060400160405280600a81526020017f2725323066696c6c3d270000000000000000000000000000000000000000000081525081565b6103d861056636600461321d565b611ee7565b610388610579366004613152565b61252f565b61038861058c3660046131e7565b612631565b6105b87f4d4c51434148565a00000000000000000000000000000000000000000000000081565b60405161030e9190613972565b6105b87f020204060701010000000000000000000000000000000000000000000000000081565b6103d86040518060400160405280600381526020017f253233000000000000000000000000000000000000000000000000000000000081525081565b6103d86040518060400160405280600d81526020017f25336370617468253230643d270000000000000000000000000000000000000081525081565b6103d86040518060400160405280600381526020017f253230000000000000000000000000000000000000000000000000000000000081525081565b6103d86106ae3660046133bd565b6126cb565b6103d86040518060400160405280601281526020017f272532307374726f6b653d27253233303030000000000000000000000000000081525081565b602a54610301906001600160a01b031681565b610388610710366004613135565b6127ba565b6103886107233660046131e7565b612816565b610368610736366004613372565b6128b0565b61074e610749366004613287565b61290d565b60405161030e929190613ac6565b61038861076a3660046131e7565b612a5a565b610777612d5e565b60005b600d8110156107d65761078f61271084613e78565b8282600d81106107af57634e487b7160e01b600052603260045260246000fd5b61ffff9092166020929092020152600e9290921c91806107ce81613e13565b91505061077a565b50919050565b6000546001600160a01b0316331461080f5760405162461bcd60e51b815260040161080690613a12565b60405180910390fd5b61084e82828080601f016020809104026020016040519081016040528093929190818152602001838380828437600092019190915250612a9092505050565b602d805473ffffffffffffffffffffffffffffffffffffffff19166001600160a01b03929092169190911790555050565b610887612d5e565b60006108928461076f565b905060006108ca84836040516020016108ac9291906138ed565b6040516020818303038152906040528051906020012060001c61076f565b60295460208401516040517f7f436b5c0000000000000000000000000000000000000000000000000000000081529293506000926001600160a01b0390921691637f436b5c9161091c91600401613a32565b60206040518083038186803b15801561093457600080fd5b505afa158015610948573d6000803e3d6000fd5b505050506040513d601f19601f8201168201806040525081019061096c91906133eb565b60ff16905061097c600486613e8e565b60ff166109df57815161ffff908116845260c08084015182169085015260e0808401518216908501526101008084015182169085015261014080840151821690850152610160808401518216908501526101808084015190911690840152610a47565b6109ea600486613e8e565b60ff1660011415610a475760208083015161ffff9081169185019190915260408084015182169085015260608084015182169085015260808084015182169085015260a08084015182169085015261012080840151909116908401525b600060028261ffff1660038110610a6e57634e487b7160e01b600052603260045260246000fd5b600d0201600701600781548110610a9557634e487b7160e01b600052603260045260246000fd5b90600052602060002090601091828204019190066002029054906101000a900461ffff16612710610ac69190613cff565b61ffff16846007602002015161ffff16109050600060028361ffff1660038110610b0057634e487b7160e01b600052603260045260246000fd5b600d0201600801600781548110610b2757634e487b7160e01b600052603260045260246000fd5b90600052602060002090601091828204019190066002029054906101000a900461ffff16612710610b589190613cff565b61ffff16856008602002015161ffff16109050600060028461ffff1660038110610b9257634e487b7160e01b600052603260045260246000fd5b600d0201600901602481548110610bb957634e487b7160e01b600052603260045260246000fd5b90600052602060002090601091828204019190066002029054906101000a900461ffff16612710610bea9190613cff565b61ffff16866009602002015161ffff16109050600060028561ffff1660038110610c2457634e487b7160e01b600052603260045260246000fd5b600d0201600b01603081548110610c4b57634e487b7160e01b600052603260045260246000fd5b90600052602060002090601091828204019190066002029054906101000a900461ffff16612710610c7c9190613cff565b61ffff1687600b602002015161ffff16109050600080600289826020020151610ca59190613e58565b61ffff1611905060005b600d60ff82161015610f18576029546000906001600160a01b031663fca228ce8b60ff8516600d8110610cf257634e487b7160e01b600052603260045260246000fd5b6020020151848b6040518463ffffffff1660e01b8152600401610d1793929190613a40565b60206040518083038186803b158015610d2f57600080fd5b505afa158015610d43573d6000803e3d6000fd5b505050506040513d601f19601f82011682018060405250810190610d6791906133eb565b905060ff8216158015610d875750610d8060048d613e8e565b60ff166002145b15610da6578851610d9a90600a90613e58565b61ffff16610da65750602c5b6000610db88360ff168360ff16611a9a565b905060008360ff1660021480610dd157508360ff16600c145b8015610ddb575087155b8015610de5575088155b80610dfc57508360ff166007148015610dfc575087155b80610e1357508360ff16600a148015610e13575087155b80610e66575060028460ff161080610e3c575060028460ff16118015610e3c575060078460ff16105b80610e4a57508360ff166008145b80610e5857508360ff166009145b80610e6657508360ff16600b145b90506000878015610e745750865b8015610e8b57508460ff166009148015610e8b5750855b80610ea257508460ff16600b148015610ea2575085155b905061ffff83811610801580610eb6575082155b80610ebe5750815b15610ec95761ffff93505b838f8760ff16600d8110610eed57634e487b7160e01b600052603260045260246000fd5b602002019061ffff16908161ffff168152505050505050508080610f1090613e27565b915050610caf565b5050505050505050505b92915050565b6000546001600160a01b03163314610f525760405162461bcd60e51b815260040161080690613a12565b610f9182828080601f016020809104026020016040519081016040528093929190818152602001838380828437600092019190915250612a9092505050565b602e805473ffffffffffffffffffffffffffffffffffffffff19166001600160a01b03929092169190911790555050565b602e54606090600090610fdd906001600160a01b0316612b08565b602d54909150600090610ff8906001600160a01b0316612b08565b9050606060008060005b600d61ffff821610156111225761ffff88828216600d811061103457634e487b7160e01b600052603260045260246000fd5b602002015161ffff16141561104857611110565b61108986898361ffff16600d811061107057634e487b7160e01b600052603260045260246000fd5b6020020151611080906002613c93565b61ffff16612b18565b92506110ce86898361ffff16600d81106110b357634e487b7160e01b600052603260045260246000fd5b60200201516110c3906002613c93565b611080906002613be4565b9150836110ed8661ffff86166110e48787613cff565b61ffff16612b4e565b6040516020016110fe929190613783565b60405160208183030381529060405293505b8061111a81613df1565b915050611002565b50600080600385516111349190613c6b565b67ffffffffffffffff81111561115a57634e487b7160e01b600052604160045260246000fd5b6040519080825280602002602001820160405280156111a557816020015b60408051606081018252600080825260208083018290529282015282526000199092019101816111785790505b50905060005b85518110156113925760008073__$6cc8f8b41053aebd660af83ec8df928129$__635dfb512c8985815181106111f157634e487b7160e01b600052603260045260246000fd5b01602001516001600160f81b0319168a61120c876001613c0d565b8151811061122a57634e487b7160e01b600052603260045260246000fd5b01602001516001600160f81b0319168b611245886002613c0d565b8151811061126357634e487b7160e01b600052603260045260246000fd5b01602001516040517fffffffff0000000000000000000000000000000000000000000000000000000060e086901b1681526112ad9392916001600160f81b0319169060040161393c565b604080518083038186803b1580156112c457600080fd5b505af41580156112d8573d6000803e3d6000fd5b505050506040513d601f19601f820116820180604052508101906112fc91906132dc565b9092509050600061130e600283613e58565b61ffff1611945060018161ffff16901c905060405180606001604052808361ffff1681526020018261ffff168152602001861515815250846003856113539190613c6b565b8151811061137157634e487b7160e01b600052603260045260246000fd5b6020026020010181905250505060038161138b9190613c0d565b90506111ab565b5098975050505050505050565b6040518060a00160405280606d8152602001613f61606d913981565b6060826040516020016113ce919061388b565b604051602081830303815290604052905092915050565b602a54606090600090611400906001600160a01b0316612b08565b9050600081611410856003613c93565b61ffff168151811061143257634e487b7160e01b600052603260045260246000fd5b01602001516001600160f81b0319161480156114955750600081611457856003613c93565b611462906001613be4565b61ffff168151811061148457634e487b7160e01b600052603260045260246000fd5b01602001516001600160f81b031916145b801561150757507f0100000000000000000000000000000000000000000000000000000000000000816114c9856003613c93565b6114d4906002613be4565b61ffff16815181106114f657634e487b7160e01b600052603260045260246000fd5b01602001516001600160f81b031916145b1561154757505060408051808201909152600481527f6e6f6e65000000000000000000000000000000000000000000000000000000006020820152919050565b6040518060400160405280600381526020017f25323300000000000000000000000000000000000000000000000000000000008152508184600361158b9190613c93565b61ffff16815181106115ad57634e487b7160e01b600052603260045260246000fd5b016020015160405163c1338a6960e01b815273__$6cc8f8b41053aebd660af83ec8df928129$__9163c1338a69916115f19160f81c90601090600290600401613a76565b60006040518083038186803b15801561160957600080fd5b505af415801561161d573d6000803e3d6000fd5b505050506040513d6000823e601f3d908101601f191682016040526116459190810190613252565b82611651866003613c93565b61165c906001613be4565b61ffff168151811061167e57634e487b7160e01b600052603260045260246000fd5b016020015160405163c1338a6960e01b815273__$6cc8f8b41053aebd660af83ec8df928129$__9163c1338a69916116c29160f81c90601090600290600401613a76565b60006040518083038186803b1580156116da57600080fd5b505af41580156116ee573d6000803e3d6000fd5b505050506040513d6000823e601f3d908101601f191682016040526117169190810190613252565b83611722876003613c93565b61172d906002613be4565b61ffff168151811061174f57634e487b7160e01b600052603260045260246000fd5b016020015160405163c1338a6960e01b815273__$6cc8f8b41053aebd660af83ec8df928129$__9163c1338a69916117939160f81c90601090600290600401613a76565b60006040518083038186803b1580156117ab57600080fd5b505af41580156117bf573d6000803e3d6000fd5b505050506040513d6000823e601f3d908101601f191682016040526117e79190810190613252565b6040516020016117fa94939291906137bb565b604051602081830303815290604052915050919050565b602b818154811061182157600080fd5b6000918252602090912001546001600160a01b0316905081565b604051806060016040528060388152602001613f296038913981565b6000546001600160a01b031633146118815760405162461bcd60e51b815260040161080690613a12565b61188b6000612c16565b565b606060008061189b8461290d565b915091506000806118e0602b83815481106118c657634e487b7160e01b600052603260045260246000fd5b6000918252602090912001546001600160a01b0316612b08565b805190915063ffffffff85165b818663ffffffff161061194f5782516119069082613d22565b90508361191281613e13565b945050611939602b85815481106118c657634e487b7160e01b600052603260045260246000fd5b92508251826119489190613c0d565b91506118ed565b600061195b8787613d28565b63ffffffff1667ffffffffffffffff81111561198757634e487b7160e01b600052604160045260246000fd5b6040519080825280601f01601f1916602001820160405280156119b1576020820181803683370190505b50905060005b81518110156113925784518310611a0057856119d281613e13565b9650506119f9602b87815481106118c657634e487b7160e01b600052603260045260246000fd5b9450600092505b848381518110611a2057634e487b7160e01b600052603260045260246000fd5b602001015160f81c60f81b828281518110611a4b57634e487b7160e01b600052603260045260246000fd5b60200101907effffffffffffffffffffffffffffffffffffffffffffffffffffffffffffff1916908160001a90535082611a8481613e13565b9350508080611a9290613e13565b9150506119b7565b600080611b38602f8054611aad90613d9d565b80601f0160208091040260200160405190810160405280929190818152602001828054611ad990613d9d565b8015611b265780601f10611afb57610100808354040283529160200191611b26565b820191906000526020600020905b815481529060010190602001808311611b0957829003601f168201915b50505050508560026110809190613c93565b90506000611be2602f8054611b4c90613d9d565b80601f0160208091040260200160405190810160405280929190818152602001828054611b7890613d9d565b8015611bc55780601f10611b9a57610100808354040283529160200191611bc5565b820191906000526020600020905b815481529060010190602001808311611ba857829003601f168201915b5050505050866001611bd79190613be4565b611080906002613c93565b905061ffff8116611bf38584613be4565b61ffff1610611c085761ffff92505050610f22565b611c128483613be4565b95945050505050565b606060006040518060a00160405280606d8152602001613f61606d9139905060005b83518161ffff161015611e4a57816040518060400160405280600d81526020017f25336370617468253230643d2700000000000000000000000000000000000000815250611cbc610566878561ffff1681518110611cab57634e487b7160e01b600052603260045260246000fd5b60200260200101516000015161188d565b6040518060400160405280600a81526020017f2725323066696c6c3d2700000000000000000000000000000000000000000000815250611d2a888661ffff1681518110611d1957634e487b7160e01b600052603260045260246000fd5b6020026020010151602001516113e5565b604051602001611d3e9594939291906137e9565b6040516020818303038152906040529150838161ffff1681518110611d7357634e487b7160e01b600052603260045260246000fd5b60200260200101516040015115611dde57816040518060400160405280601281526020017f272532307374726f6b653d272532333030300000000000000000000000000000815250604051602001611dcc929190613783565b60405160208183030381529060405291505b816040518060400160405280600581526020017f272f253365000000000000000000000000000000000000000000000000000000815250604051602001611e26929190613783565b60405160208183030381529060405291508080611e4290613df1565b915050611c3d565b5080604051806060016040528060388152602001613f29603891396040516020016117fa929190613783565b6060611e80612d5e565b61ffff8316815260015b600d811015611ed65761ffff8282600d8110611eb657634e487b7160e01b600052603260045260246000fd5b61ffff909216602092909202015280611ece81613e13565b915050611e8a565b50611ee081610fc2565b9392505050565b6060806060600080600080805b611f0060036008613c4a565b60ff1689516008611f119190613cc0565b611f1b9190613d22565b8563ffffffff161161252257611f32600886613c83565b9350611f3f600886613e7e565b9250611f4d60036008613d38565b60ff16611f5b846008613d38565b60ff168a611f6a876001613be4565b61ffff1681518110611f8c57634e487b7160e01b600052603260045260246000fd5b602001015160f81c60f81b7effffffffffffffffffffffffffffffffffffffffffffffffffffffffffffff1916901c8460ff168b8761ffff1681518110611fe357634e487b7160e01b600052603260045260246000fd5b01602001516001600160f81b031916901b1760f81c901c91507f020204060701010000000000000000000000000000000000000000000000000060ff83166008811061203f57634e487b7160e01b600052603260045260246000fd5b1a905061204d600386613c20565b945061205a600886613c83565b9350612067600886613e7e565b92508060ff1667ffffffffffffffff81111561209357634e487b7160e01b600052604160045260246000fd5b6040519080825280601f01601f1916602001820160405280156120bd576020820181803683370190505b50955060005b8160ff168160ff16101561227d578360ff168a8260ff16876120e59190613be4565b61ffff168151811061210757634e487b7160e01b600052603260045260246000fd5b602001015160f81c60f81b7effffffffffffffffffffffffffffffffffffffffffffffffffffffffffffff1916901b878260ff168151811061215957634e487b7160e01b600052603260045260246000fd5b60200101907effffffffffffffffffffffffffffffffffffffffffffffffffffffffffffff1916908160001a905350895161219760ff831687613be4565b6121a2906001613be4565b61ffff16101561226b576121b7846008613d38565b60ff168a8260ff16876121ca9190613be4565b6121d5906001613be4565b61ffff16815181106121f757634e487b7160e01b600052603260045260246000fd5b602001015160f81c60f81b7effffffffffffffffffffffffffffffffffffffffffffffffffffffffffffff1916901c878260ff168151811061224957634e487b7160e01b600052603260045260246000fd5b0160200180516001600160f81b031992831692169190911790600082901a9053505b8061227581613e27565b9150506120c3565b50867f4d4c51434148565a0000000000000000000000000000000000000000000000008360ff16600881106122c257634e487b7160e01b600052603260045260246000fd5b1a60f81b876000815181106122e757634e487b7160e01b600052603260045260246000fd5b01602001516040517f6900a3ae00000000000000000000000000000000000000000000000000000000815273__$6cc8f8b41053aebd660af83ec8df928129$__91636900a3ae9161233e9160f81c90600401613a68565b60006040518083038186803b15801561235657600080fd5b505af415801561236a573d6000803e3d6000fd5b505050506040513d6000823e601f3d908101601f191682016040526123929190810190613252565b6040516020016123a493929190613760565b60408051601f19818403018152919052965060015b8160ff168160ff16101561250257876040518060400160405280600381526020017f2532300000000000000000000000000000000000000000000000000000000000815250888360ff168151811061242157634e487b7160e01b600052603260045260246000fd5b01602001516040517f6900a3ae00000000000000000000000000000000000000000000000000000000815273__$6cc8f8b41053aebd660af83ec8df928129$__91636900a3ae916124789160f81c90600401613a68565b60006040518083038186803b15801561249057600080fd5b505af41580156124a4573d6000803e3d6000fd5b505050506040513d6000823e601f3d908101601f191682016040526124cc9190810190613252565b6040516020016124de93929190613799565b604051602081830303815290604052975080806124fa90613e27565b9150506123b9565b5061250e816008613cda565b61251b9060ff1686613c20565b9450611ef4565b5094979650505050505050565b6000546001600160a01b031633146125595760405162461bcd60e51b815260040161080690613a12565b60005b60ff811682111561262c57602b6125db84848460ff1681811061258f57634e487b7160e01b600052603260045260246000fd5b90506020028101906125a19190613aef565b8080601f016020809104026020016040519081016040528093929190818152602001838380828437600092019190915250612a9092505050565b815460018101835560009283526020909220909101805473ffffffffffffffffffffffffffffffffffffffff19166001600160a01b039092169190911790558061262481613e27565b91505061255c565b505050565b6000546001600160a01b0316331461265b5760405162461bcd60e51b815260040161080690613a12565b61269a82828080601f016020809104026020016040519081016040528093929190818152602001838380828437600092019190915250612a9092505050565b602a805473ffffffffffffffffffffffffffffffffffffffff19166001600160a01b03929092169190911790555050565b6030546040517f422627c30000000000000000000000000000000000000000000000000000000081526060916000916001600160a01b039091169063422627c39061271a908790600401613a68565b60206040518083038186803b15801561273257600080fd5b505afa158015612746573d6000803e3d6000fd5b505050506040513d601f19601f8201168201806040525081019061276a9190613327565b90506000612778828561087f565b9050600061278582610fc2565b905061279081611c1b565b6040516020016127a0919061384e565b604051602081830303815290604052935050505092915050565b6000546001600160a01b031633146127e45760405162461bcd60e51b815260040161080690613a12565b6001600160a01b03811661280a5760405162461bcd60e51b815260040161080690613991565b61281381612c16565b50565b6000546001600160a01b031633146128405760405162461bcd60e51b815260040161080690613a12565b61287f82828080601f016020809104026020016040519081016040528093929190818152602001838380828437600092019190915250612a9092505050565b602c805473ffffffffffffffffffffffffffffffffffffffff19166001600160a01b03929092169190911790555050565b600283600381106128c057600080fd5b600d020182600d81106128d257600080fd5b0181815481106128e157600080fd5b906000526020600020906010918282040191900660020292509250509054906101000a900461ffff1681565b602c5460009081908190612929906001600160a01b0316612b08565b9050600061293c82611080876002613c93565b61ffff1690506000612953836110c3886002613c93565b61ffff1690506103e88661ffff1663ffffffff1611801561297b5750614e208263ffffffff16105b1561299b578161298e61ffff6001613c20565b6129989190613c20565b91505b6107d061ffff87161180156129b75750619c408263ffffffff16105b156129d757816129ca61ffff6001613c20565b6129d49190613c20565b91505b6103e861ffff87161180156129f35750614e208163ffffffff16105b15612a135780612a0661ffff6001613c20565b612a109190613c20565b90505b6107d061ffff8716118015612a2f5750619c408163ffffffff16105b15612a4f5780612a4261ffff6001613c20565b612a4c9190613c20565b90505b909590945092505050565b6000546001600160a01b03163314612a845760405162461bcd60e51b815260040161080690613a12565b61262c602f8383612d7d565b600080612abb83604051602001612aa79190613882565b604051602081830303815290604052612c73565b90508051602082016000f091506001600160a01b0382166107d6576040517f08d4abb600000000000000000000000000000000000000000000000000000000815260040160405180910390fd5b6060610f22826001600019612c9f565b6000612b25826002613c0d565b83511015612b455760405162461bcd60e51b8152600401610806906139f2565b50016002015190565b606081612b5c81601f613c0d565b1015612b7a5760405162461bcd60e51b815260040161080690613a02565b612b848284613c0d565b84511015612ba45760405162461bcd60e51b815260040161080690613a22565b606082158015612bc35760405191506000825260208201604052612c0d565b6040519150601f8416801560200281840101858101878315602002848b0101015b81831015612bfc578051835260209283019201612be4565b5050858452601f01601f1916604052505b50949350505050565b600080546001600160a01b0383811673ffffffffffffffffffffffffffffffffffffffff19831681178455604051919092169283917f8be0079c531659141344cd1fd0a4f28419497f9722a3daafe3b4186f6b6457e09190a35050565b6060815182604051602001612c8992919061382d565b6040516020818303038152906040529050919050565b6060833b80612cbe575050604080516020810190915260008152611ee0565b80841115612cdc575050604080516020810190915260008152611ee0565b83831015612d1c578084846040517f2c4a89fa00000000000000000000000000000000000000000000000000000000815260040161080693929190613a9e565b8383038482036000828210612d315782612d33565b815b60408051603f8301601f19168101909152818152955090508087602087018a3c505050509392505050565b604051806101a00160405280600d906020820280368337509192915050565b828054612d8990613d9d565b90600052602060002090601f016020900481019282612dab5760008555612e0f565b82601f10612de2578280017fffffffffffffffffffffffffffffffffffffffffffffffffffffffffffffff00823516178555612e0f565b82800160010185558215612e0f579182015b82811115612e0f578235825591602001919060010190612df4565b50612e1b929150612e1f565b5090565b5b80821115612e1b5760008155600101612e20565b6000612e47612e4284613b74565b613b58565b83815290506020810182606085028101861015612e6357600080fd5b60005b85811015612e8f57612e7887836130a6565b835260209092019160609190910190600101612e66565b5050509392505050565b6000612ea7612e4284613b98565b90508082856020860285011115612ebd57600080fd5b60005b85811015612e8f57612ed287836130f3565b83526020928301929190910190600101612ec0565b6000612ef5612e4284613bb9565b905082815260208101848484011115612f0d57600080fd5b612f18848285613d61565b509392505050565b6000612f2e612e4284613bb9565b905082815260208101848484011115612f4657600080fd5b612f18848285613d6d565b8035610f2281613ef3565b60008083601f840112612f6d578182fd5b50813567ffffffffffffffff811115612f84578182fd5b602083019150836020820283011115612f9c57600080fd5b9250929050565b600082601f830112612fb3578081fd5b8135612fc3848260208601612e34565b949350505050565b600082601f830112612fdb578081fd5b600d612fc3848285612e99565b8035610f2281613f07565b60008083601f840112613004578182fd5b50813567ffffffffffffffff81111561301b578182fd5b602083019150836001820283011115612f9c57600080fd5b600082601f830112613043578081fd5b8135612fc3848260208601612ee7565b600082601f830112613063578081fd5b8151612fc3848260208601612f20565b600060208284031215613084578081fd5b61308e6020613b58565b9050600061309c848461311f565b9082015292915050565b6000606082840312156130b7578081fd5b6130c16060613b58565b905060006130cf84846130f3565b9082015260206130e1848483016130f3565b90820152604061309c84848301612fe8565b8035610f2281613f0f565b8051610f2281613f0f565b8035610f2281613f19565b8051610f2281613f19565b8035610f2281613f1f565b8051610f2281613f1f565b600060208284031215613146578081fd5b611ee083828401612f51565b60008060208385031215613164578081fd5b8083013567ffffffffffffffff81111561317c578182fd5b61318885828601612f5c565b92509250509250929050565b6000602082840312156131a5578081fd5b8082013567ffffffffffffffff8111156131bd578182fd5b612fc384828501612fa3565b60006101a082840312156131db578081fd5b611ee083828401612fcb565b600080602083850312156131f9578182fd5b8183013567ffffffffffffffff811115613211578283fd5b61318885828601612ff3565b60006020828403121561322e578081fd5b8082013567ffffffffffffffff811115613246578182fd5b612fc384828501613033565b600060208284031215613263578081fd5b8082015167ffffffffffffffff81111561327b578182fd5b612fc384828501613053565b600060208284031215613298578081fd5b611ee0838284016130f3565b600080604083850312156132b6578182fd5b6132c2848385016130f3565b915060206132d2858286016130f3565b9150509250929050565b600080604083850312156132ee578182fd5b6132fa848385016130fe565b915060206132d2858286016130fe565b60006020828403121561331b578081fd5b611ee083828401613109565b600060208284031215613338578081fd5b611ee083828401613114565b60008060408385031215613356578182fd5b61336284838501613109565b915060206132d285828601613073565b600080600060608486031215613386578081fd5b61339285828601613109565b925060206133a286828701613109565b92505060406133b386828701613109565b9150509250925092565b600080604083850312156133cf578182fd5b6133db84838501613109565b915060206132d28582860161311f565b6000602082840312156133fc578081fd5b611ee08382840161312a565b61341282826136ee565b5060600190565b6134238282613720565b5060200190565b61343381613d45565b82525050565b6000613443825190565b8084526020938401938301825b828110156134755781516134648782613408565b965050602082019150600101613450565b5093949350505050565b600d8160005b828110156134aa5781516134998682613419565b955050602082019150600101613485565b5050505050565b600d8160005b828110156134aa5781516134cb8682613419565b9550506020820191506001016134b7565b801515613433565b6001600160f81b03198116613433565b7fffffff00000000000000000000000000000000000000000000000000000000008116613433565b7fffffffffffffffff0000000000000000000000000000000000000000000000008116613433565b600061354e825190565b808452602084019350613565818560208601613d6d565b601f01601f19169290920192915050565b6000613580825190565b61358e818560208601613d6d565b9290920192915050565b61343381613d56565b7f630000000000000000000000000000000000000000000000000000000000000081525b60010190565b7f2f6d65746164617461000000000000000000000000000000000000000000000081525b60090190565b60148152602081017f746f55696e7431365f6f75744f66426f756e6473000000000000000000000000815290505b60200190565b600e8152602081017f736c6963655f6f766572666c6f7700000000000000000000000000000000000081529050613623565b60208082527f4f776e61626c653a2063616c6c6572206973206e6f7420746865206f776e65729101908152613623565b600081526135c5565b60118152602081017f736c6963655f6f75744f66426f756e647300000000000000000000000000000081529050613623565b7f80600e6000396000f3000000000000000000000000000000000000000000000081526135ef565b80516136fa8382613720565b50602081015161370d6020840182613720565b50604081015161262c60408401826134dc565b61ffff8116613433565b80613433565b63ffffffff8116613433565b61343363ffffffff8216613e40565b60ff8116613433565b61343360ff8216613e4c565b61376a8185613576565b905061377681846134e4565b600101612fc38183613576565b61378d8184613576565b9050611ee08183613576565b6137a38185613576565b90506137af8184613576565b9050612fc38183613576565b6137c58186613576565b90506137d18185613576565b90506137dd8184613576565b9050611c128183613576565b6137f38187613576565b90506137ff8186613576565b905061380b8185613576565b90506138178184613576565b90506138238183613576565b9695505050505050565b613836816135a1565b9050613842818461373c565b60040161378d816136c6565b7f646174613a696d6167652f7376672b786d6c2c000000000000000000000000008152601381015b9050610f228183613576565b6138768161368b565b7f68747470733a2f2f6170692e636861696e647265616d6572732e78797a2f746581527f73742f746f6b656e732f000000000000000000000000000000000000000000006020820152602a016138e1818361372a565b602001610f22816135cb565b6138f78184613754565b60010161390481836134b1565b6101a00192915050565b60208101610f22828461342a565b60208082528101611ee08184613439565b6101a08101610f22828461347f565b6060810161394a82866134e4565b61395760208301856134e4565b612fc360408301846134e4565b60208101610f2282846134f4565b60208101610f22828461351c565b60208082528101611ee08184613544565b60208082528101610f2281602681527f4f776e61626c653a206e6577206f776e657220697320746865207a65726f206160208201527f6464726573730000000000000000000000000000000000000000000000000000604082015260600190565b60208082528101610f22816135f5565b60208082528101610f2281613629565b60208082528101610f228161365b565b60208082528101610f2281613694565b60208101610f228284613720565b60608101613a4e8286613720565b613a5b602083018561374b565b612fc36040830184613720565b60208101610f22828461372a565b60608101613a84828661372a565b613a916020830185613598565b612fc36040830184613598565b60608101613aac828661372a565b613ab9602083018561372a565b612fc3604083018461372a565b60408101613ad48285613730565b611ee06020830184613730565b60208101610f22828461374b565b60008083357fffffffffffffffffffffffffffffffffffffffffffffffffffffffffffffffe136859003018112613b24578283fd5b8301915050803567ffffffffffffffff811115613b4057600080fd5b602082019150600181023603821315612f9c57600080fd5b6000613b6360405190565b9050613b6f8282613dc4565b919050565b600067ffffffffffffffff821115613b8e57613b8e613edd565b5060209081020190565b600067ffffffffffffffff821115613bb257613bb2613edd565b5060200290565b600067ffffffffffffffff821115613bd357613bd3613edd565b601f19601f83011660200192915050565b61ffff8116905061ffff8216915060008261ffff03821115613c0857613c08613e9b565b500190565b60008219821115613c0857613c08613e9b565b63ffffffff8116905063ffffffff8216915060008263ffffffff03821115613c0857613c08613e9b565b60ff8116905060ff8216915060008260ff03821115613c0857613c08613e9b565b815b9150600082613c7e57613c7e613eb1565b500490565b63ffffffff908116908216613c6d565b61ffff8116905061ffff8216915060008161ffff0483118215151615613cbb57613cbb613e9b565b500290565b6000816000190483118215151615613cbb57613cbb613e9b565b60ff8116905060ff8216915060008160ff0483118215151615613cbb57613cbb613e9b565b61ffff9081169082165b9150600082821015613d1d57613d1d613e9b565b500390565b81613d09565b63ffffffff908116908216613d09565b60ff908116908216613d09565b60006001600160a01b038216610f22565b600060ff8216610f22565b82818337506000910152565b60005b83811015613d88578181015183820152602001613d70565b83811115613d97576000848401525b50505050565b600281046001821680613db157607f821691505b602082108114156107d6576107d6613ec7565b601f19601f830116810181811067ffffffffffffffff82111715613dea57613dea613edd565b6040525050565b61ffff81169050600061ffff821415613e0c57613e0c613e9b565b5060010190565b6000600019821415613e0c57613e0c613e9b565b60ff81169050600060ff821415613e0c57613e0c613e9b565b6000610f228260e01b90565b6000610f228260f81b90565b61ffff9081169082165b9150600082613e7357613e73613eb1565b500690565b81613e62565b63ffffffff908116908216613e62565b60ff908116908216613e62565b634e487b7160e01b600052601160045260246000fd5b634e487b7160e01b600052601260045260246000fd5b634e487b7160e01b600052602260045260246000fd5b634e487b7160e01b600052604160045260246000fd5b613efc81613d45565b811461281357600080fd5b801515613efc565b61ffff8116613efc565b80613efc565b60ff8116613efc56fe2533637374796c65253365706174687b7374726f6b652d77696474683a302e37317d2533632f7374796c652533652533632f737667253365253363737667253230786d6c6e733d27687474703a2f2f7777772e77332e6f72672f323030302f7376672725323076696577426f783d2730253230302532303235352532303235352725323077696474683d273530307078272532306865696768743d27353030707827253365a2646970667358221220514ad8512fc1755227880ad5b57153b1d82c0c68c3ff34e6e5b857ca909563a164736f6c63430008040033",
  "libraries": {
    "Integers": "0x2a810409872AfC346F9B5b26571Fd6eC42EA4849"
  },
  "devdoc": {
    "kind": "dev",
    "methods": {
      "getD(bytes)": {
        "details": "Decodes the path and returns it as a plain string to be used in the svg path attribute."
      },
      "getDBytes(uint16)": {
        "details": "Retrieve the bytes for the given d from the dPalette storage. The bytes may be split into several SSTORE2      slots."
      },
      "getDIndex(uint16)": {
        "details": "Get the start and end indexes of the bytes concerning the given d in the dPalette storage."
      },
      "getFill(uint16)": {
        "details": "3 bytes per color because svg does not handle alpha."
      },
      "getSvg((uint16,uint16,bool)[])": {
        "details": "Each trait is the bytes representation of the final svg string concatenating several <path> elements."
      },
      "getTokenData(uint256,uint8)": {
        "details": "Somehow copied from the original code but returns an array of trait indexes instead of Layer structs.      Flags for no layer is also updated from empty `Layer` to index = type(uint16).max."
      },
      "getTraitIndex(uint16,uint16)": {
        "details": "This function will be the pendant of the ChainRunnersBaseRenderer.getLayer ones."
      },
      "getTraits(uint16[13])": {
        "details": "Used to concat all the traits of a given dreamers given the array of trait indexes."
      },
      "owner()": {
        "details": "Returns the address of the current owner."
      },
      "renounceOwnership()": {
        "details": "Leaves the contract without owner. It will not be possible to call `onlyOwner` functions anymore. Can only be called by the current owner. NOTE: Renouncing ownership will leave the contract without an owner, thereby removing any functionality that is only available to the owner."
      },
      "setDPalette(bytes[])": {
        "details": "Only the d parameter is encoded for each path. All the paths are concatenated together to save gas.      The dPaletteIndexes is used to retrieve the path from the dPalette."
      },
      "setDPaletteIndex(bytes)": {
        "details": "Since each SSTORE2 slots can contain up to 24kb, indexes need to be uint16, ie. two bytes per index."
      },
      "setFillPalette(bytes)": {
        "details": "Colors are concatenated and stored in a single 'bytes' with SSTORE2 to save gas."
      },
      "setLayerIndexes(bytes)": {
        "details": "The trait indexes allow to map from the Chain Runners 2D indexation (trait index, layer index) to the      current 1D indexation (trait index)."
      },
      "setTraitPalette(bytes)": {
        "details": "The traits are stored as a list of tuples (d index, fill index). For our case, 12 bits per index is      enough as 2^12 = 4096 is greater than total number of d and total number of fill to date.      This could be changed if needed.      Hence a trait is a sequence of several 3 bytes long (d index, fill index)."
      },
      "setTraitPaletteIndex(bytes)": {
        "details": "Since each SSTORE2 slots can contain up to 24kb, indexes need to be uint16, ie. two bytes per index.      A trait can then be retrieved with traitPalette[traitPaletteIndexes[i]: traitPaletteIndexes[i+1]]"
      },
      "transferOwnership(address)": {
        "details": "Transfers ownership of the contract to a new account (`newOwner`). Can only be called by the current owner."
      }
    },
    "version": 1
  },
  "userdoc": {
    "kind": "user",
    "methods": {
      "getTokenData(uint256,uint8)": {
        "notice": "The Dreamer's full DNA is an alteration of its corresponding Runner's DNA with it's consumed candy.      The candy ids are hardcoded while it should be better to retrieve their effects from the CandyShop      contract."
      },
      "getTrait(uint16)": {
        "notice": "Useful for returning a single Traits in the Runner's meaning"
      },
      "imageURI(uint256,uint8)": {
        "notice": "On-chain rendering of any runner with a given candy         For on-chain rendering of a given token, retrieve first its candy with `dreamers(tokenId)`         and give it here. The output can be directly copied/pasted into the browser bar for displaying the image."
      },
      "tokenURI(uint256,(uint8))": {
        "notice": "Off-chain rendering because of Twitter, MetaMask, etc."
      }
    },
    "version": 1
  },
  "storageLayout": {
    "storage": [
      {
        "astId": 225,
        "contract": "contracts/dreamers/DreamersRenderer.sol:DreamersRenderer",
        "label": "_owner",
        "offset": 0,
        "slot": "0",
        "type": "t_address"
      },
      {
        "astId": 425,
        "contract": "contracts/dreamers/DreamersRenderer.sol:DreamersRenderer",
        "label": "_status",
        "offset": 0,
        "slot": "1",
        "type": "t_uint256"
      },
      {
        "astId": 4568,
        "contract": "contracts/dreamers/DreamersRenderer.sol:DreamersRenderer",
        "label": "WEIGHTS",
        "offset": 0,
        "slot": "2",
        "type": "t_array(t_array(t_array(t_uint16)dyn_storage)13_storage)3_storage"
      },
      {
        "astId": 4577,
        "contract": "contracts/dreamers/DreamersRenderer.sol:DreamersRenderer",
        "label": "chainRunnersBaseRenderer",
        "offset": 0,
        "slot": "41",
        "type": "t_contract(IChainRunnersBaseRenderer)7799"
      },
      {
        "astId": 6082,
        "contract": "contracts/dreamers/DreamersRenderer.sol:DreamersRenderer",
        "label": "fillPalette",
        "offset": 0,
        "slot": "42",
        "type": "t_address"
      },
      {
        "astId": 6085,
        "contract": "contracts/dreamers/DreamersRenderer.sol:DreamersRenderer",
        "label": "dPalette",
        "offset": 0,
        "slot": "43",
        "type": "t_array(t_address)dyn_storage"
      },
      {
        "astId": 6087,
        "contract": "contracts/dreamers/DreamersRenderer.sol:DreamersRenderer",
        "label": "dPaletteIndexes",
        "offset": 0,
        "slot": "44",
        "type": "t_address"
      },
      {
        "astId": 6089,
        "contract": "contracts/dreamers/DreamersRenderer.sol:DreamersRenderer",
        "label": "traitPalette",
        "offset": 0,
        "slot": "45",
        "type": "t_address"
      },
      {
        "astId": 6091,
        "contract": "contracts/dreamers/DreamersRenderer.sol:DreamersRenderer",
        "label": "traitPaletteIndexes",
        "offset": 0,
        "slot": "46",
        "type": "t_address"
      },
      {
        "astId": 6093,
        "contract": "contracts/dreamers/DreamersRenderer.sol:DreamersRenderer",
        "label": "layerIndexes",
        "offset": 0,
        "slot": "47",
        "type": "t_bytes_storage"
      },
      {
        "astId": 6096,
        "contract": "contracts/dreamers/DreamersRenderer.sol:DreamersRenderer",
        "label": "runnersToken",
        "offset": 0,
        "slot": "48",
        "type": "t_contract(IChainRunners)7778"
      }
    ],
    "types": {
      "t_address": {
        "encoding": "inplace",
        "label": "address",
        "numberOfBytes": "20"
      },
      "t_array(t_address)dyn_storage": {
        "base": "t_address",
        "encoding": "dynamic_array",
        "label": "address[]",
        "numberOfBytes": "32"
      },
      "t_array(t_array(t_array(t_uint16)dyn_storage)13_storage)3_storage": {
        "base": "t_array(t_array(t_uint16)dyn_storage)13_storage",
        "encoding": "inplace",
        "label": "uint16[][13][3]",
        "numberOfBytes": "1248"
      },
      "t_array(t_array(t_uint16)dyn_storage)13_storage": {
        "base": "t_array(t_uint16)dyn_storage",
        "encoding": "inplace",
        "label": "uint16[][13]",
        "numberOfBytes": "416"
      },
      "t_array(t_uint16)dyn_storage": {
        "base": "t_uint16",
        "encoding": "dynamic_array",
        "label": "uint16[]",
        "numberOfBytes": "32"
      },
      "t_bytes_storage": {
        "encoding": "bytes",
        "label": "bytes",
        "numberOfBytes": "32"
      },
      "t_contract(IChainRunners)7778": {
        "encoding": "inplace",
        "label": "contract IChainRunners",
        "numberOfBytes": "20"
      },
      "t_contract(IChainRunnersBaseRenderer)7799": {
        "encoding": "inplace",
        "label": "contract IChainRunnersBaseRenderer",
        "numberOfBytes": "20"
      },
      "t_uint16": {
        "encoding": "inplace",
        "label": "uint16",
        "numberOfBytes": "2"
      },
      "t_uint256": {
        "encoding": "inplace",
        "label": "uint256",
        "numberOfBytes": "32"
      }
    }
  }
}