{
  "address": "0x4C57375508D5Ccd4ba7329Db4389991413930Ea6",
  "abi": [
    {
      "inputs": [
        {
          "internalType": "address",
          "name": "_rendererAddress",
          "type": "address"
        },
        {
          "internalType": "address",
          "name": "_runnersTokenAddress",
          "type": "address"
        },
        {
          "internalType": "string",
          "name": "baseURI",
          "type": "string"
        }
      ],
      "stateMutability": "nonpayable",
      "type": "constructor"
    },
    {
      "inputs": [
        {
          "internalType": "uint256",
          "name": "_size",
          "type": "uint256"
        },
        {
          "internalType": "uint256",
          "name": "_start",
          "type": "uint256"
        },
        {
          "internalType": "uint256",
          "name": "_end",
          "type": "uint256"
        }
      ],
      "name": "InvalidCodeAtRange",
      "type": "error"
    },
    {
      "inputs": [],
      "name": "WriteError",
      "type": "error"
    },
    {
      "anonymous": false,
      "inputs": [
        {
          "indexed": true,
          "internalType": "address",
          "name": "previousOwner",
          "type": "address"
        },
        {
          "indexed": true,
          "internalType": "address",
          "name": "newOwner",
          "type": "address"
        }
      ],
      "name": "OwnershipTransferred",
      "type": "event"
    },
    {
      "inputs": [],
      "name": "BITS_PER_D_ATTRIBUTE",
      "outputs": [
        {
          "internalType": "uint8",
          "name": "",
          "type": "uint8"
        }
      ],
      "stateMutability": "view",
      "type": "function"
    },
    {
      "inputs": [],
      "name": "BITS_PER_D_INDEX",
      "outputs": [
        {
          "internalType": "uint8",
          "name": "",
          "type": "uint8"
        }
      ],
      "stateMutability": "view",
      "type": "function"
    },
    {
      "inputs": [],
      "name": "BITS_PER_FILL_INDEX",
      "outputs": [
        {
          "internalType": "uint8",
          "name": "",
          "type": "uint8"
        }
      ],
      "stateMutability": "view",
      "type": "function"
    },
    {
      "inputs": [],
      "name": "D_ATTRIBUTE_PALETTE",
      "outputs": [
        {
          "internalType": "bytes8",
          "name": "",
          "type": "bytes8"
        }
      ],
      "stateMutability": "view",
      "type": "function"
    },
    {
      "inputs": [],
      "name": "D_ATTRIBUTE_PARAMETERS_COUNT",
      "outputs": [
        {
          "internalType": "bytes8",
          "name": "",
          "type": "bytes8"
        }
      ],
      "stateMutability": "view",
      "type": "function"
    },
    {
      "inputs": [],
      "name": "FILL_TAG",
      "outputs": [
        {
          "internalType": "bytes",
          "name": "",
          "type": "bytes"
        }
      ],
      "stateMutability": "view",
      "type": "function"
    },
    {
      "inputs": [],
      "name": "HASHTAG",
      "outputs": [
        {
          "internalType": "bytes",
          "name": "",
          "type": "bytes"
        }
      ],
      "stateMutability": "view",
      "type": "function"
    },
    {
      "inputs": [],
      "name": "NONE_COLOR",
      "outputs": [
        {
          "internalType": "bytes3",
          "name": "",
          "type": "bytes3"
        }
      ],
      "stateMutability": "view",
      "type": "function"
    },
    {
      "inputs": [],
      "name": "NUM_LAYERS",
      "outputs": [
        {
          "internalType": "uint8",
          "name": "",
          "type": "uint8"
        }
      ],
      "stateMutability": "view",
      "type": "function"
    },
    {
      "inputs": [],
      "name": "NUM_RUNNERS",
      "outputs": [
        {
          "internalType": "uint16",
          "name": "",
          "type": "uint16"
        }
      ],
      "stateMutability": "view",
      "type": "function"
    },
    {
      "inputs": [],
      "name": "PATH_TAG_END",
      "outputs": [
        {
          "internalType": "bytes",
          "name": "",
          "type": "bytes"
        }
      ],
      "stateMutability": "view",
      "type": "function"
    },
    {
      "inputs": [],
      "name": "PATH_TAG_START",
      "outputs": [
        {
          "internalType": "bytes",
          "name": "",
          "type": "bytes"
        }
      ],
      "stateMutability": "view",
      "type": "function"
    },
    {
      "inputs": [],
      "name": "SPACE",
      "outputs": [
        {
          "internalType": "bytes",
          "name": "",
          "type": "bytes"
        }
      ],
      "stateMutability": "view",
      "type": "function"
    },
    {
      "inputs": [],
      "name": "STROKE_TAG",
      "outputs": [
        {
          "internalType": "bytes",
          "name": "",
          "type": "bytes"
        }
      ],
      "stateMutability": "view",
      "type": "function"
    },
    {
      "inputs": [],
      "name": "SVG_TAG_END",
      "outputs": [
        {
          "internalType": "bytes",
          "name": "",
          "type": "bytes"
        }
      ],
      "stateMutability": "view",
      "type": "function"
    },
    {
      "inputs": [],
      "name": "SVG_TAG_START",
      "outputs": [
        {
          "internalType": "bytes",
          "name": "",
          "type": "bytes"
        }
      ],
      "stateMutability": "view",
      "type": "function"
    },
    {
      "inputs": [
        {
          "internalType": "uint256",
          "name": "",
          "type": "uint256"
        },
        {
          "internalType": "uint256",
          "name": "",
          "type": "uint256"
        },
        {
          "internalType": "uint256",
          "name": "",
          "type": "uint256"
        }
      ],
      "name": "WEIGHTS",
      "outputs": [
        {
          "internalType": "uint16",
          "name": "",
          "type": "uint16"
        }
      ],
      "stateMutability": "view",
      "type": "function"
    },
    {
      "inputs": [],
      "name": "_baseURI",
      "outputs": [
        {
          "internalType": "string",
          "name": "",
          "type": "string"
        }
      ],
      "stateMutability": "view",
      "type": "function"
    },
    {
      "inputs": [
        {
          "internalType": "uint256",
          "name": "",
          "type": "uint256"
        }
      ],
      "name": "dPalette",
      "outputs": [
        {
          "internalType": "address",
          "name": "",
          "type": "address"
        }
      ],
      "stateMutability": "view",
      "type": "function"
    },
    {
      "inputs": [],
      "name": "dPaletteIndexes",
      "outputs": [
        {
          "internalType": "address",
          "name": "",
          "type": "address"
        }
      ],
      "stateMutability": "view",
      "type": "function"
    },
    {
      "inputs": [],
      "name": "fillPalette",
      "outputs": [
        {
          "internalType": "address",
          "name": "",
          "type": "address"
        }
      ],
      "stateMutability": "view",
      "type": "function"
    },
    {
      "inputs": [
        {
          "internalType": "bytes",
          "name": "dEncodedBytes",
          "type": "bytes"
        }
      ],
      "name": "getD",
      "outputs": [
        {
          "internalType": "string",
          "name": "",
          "type": "string"
        }
      ],
      "stateMutability": "pure",
      "type": "function"
    },
    {
      "inputs": [
        {
          "internalType": "uint16",
          "name": "_index",
          "type": "uint16"
        }
      ],
      "name": "getDBytes",
      "outputs": [
        {
          "internalType": "bytes",
          "name": "",
          "type": "bytes"
        }
      ],
      "stateMutability": "view",
      "type": "function"
    },
    {
      "inputs": [
        {
          "internalType": "uint16",
          "name": "_index",
          "type": "uint16"
        }
      ],
      "name": "getDIndex",
      "outputs": [
        {
          "internalType": "uint32",
          "name": "",
          "type": "uint32"
        },
        {
          "internalType": "uint32",
          "name": "",
          "type": "uint32"
        }
      ],
      "stateMutability": "view",
      "type": "function"
    },
    {
      "inputs": [
        {
          "internalType": "uint16",
          "name": "_index",
          "type": "uint16"
        }
      ],
      "name": "getFill",
      "outputs": [
        {
          "internalType": "string",
          "name": "",
          "type": "string"
        }
      ],
      "stateMutability": "view",
      "type": "function"
    },
    {
      "inputs": [
        {
          "components": [
            {
              "internalType": "uint16",
              "name": "dIndex",
              "type": "uint16"
            },
            {
              "internalType": "uint16",
              "name": "fillIndex",
              "type": "uint16"
            },
            {
              "internalType": "bool",
              "name": "stroke",
              "type": "bool"
            }
          ],
          "internalType": "struct DreamersRenderer.Trait[]",
          "name": "traits",
          "type": "tuple[]"
        }
      ],
      "name": "getSvg",
      "outputs": [
        {
          "internalType": "string",
          "name": "",
          "type": "string"
        }
      ],
      "stateMutability": "view",
      "type": "function"
    },
    {
      "inputs": [
        {
          "internalType": "uint256",
          "name": "runnerDna",
          "type": "uint256"
        },
        {
          "internalType": "uint8",
          "name": "candy",
          "type": "uint8"
        }
      ],
      "name": "getTokenData",
      "outputs": [
        {
          "internalType": "uint16[13]",
          "name": "traitIndexes",
          "type": "uint16[13]"
        }
      ],
      "stateMutability": "view",
      "type": "function"
    },
    {
      "inputs": [
        {
          "internalType": "uint16",
          "name": "_index",
          "type": "uint16"
        }
      ],
      "name": "getTrait",
      "outputs": [
        {
          "components": [
            {
              "internalType": "uint16",
              "name": "dIndex",
              "type": "uint16"
            },
            {
              "internalType": "uint16",
              "name": "fillIndex",
              "type": "uint16"
            },
            {
              "internalType": "bool",
              "name": "stroke",
              "type": "bool"
            }
          ],
          "internalType": "struct DreamersRenderer.Trait[]",
          "name": "",
          "type": "tuple[]"
        }
      ],
      "stateMutability": "view",
      "type": "function"
    },
    {
      "inputs": [
        {
          "internalType": "uint16",
          "name": "_layerIndex",
          "type": "uint16"
        },
        {
          "internalType": "uint16",
          "name": "_itemIndex",
          "type": "uint16"
        }
      ],
      "name": "getTraitIndex",
      "outputs": [
        {
          "internalType": "uint16",
          "name": "",
          "type": "uint16"
        }
      ],
      "stateMutability": "view",
      "type": "function"
    },
    {
      "inputs": [
        {
          "internalType": "uint16[13]",
          "name": "_index",
          "type": "uint16[13]"
        }
      ],
      "name": "getTraits",
      "outputs": [
        {
          "components": [
            {
              "internalType": "uint16",
              "name": "dIndex",
              "type": "uint16"
            },
            {
              "internalType": "uint16",
              "name": "fillIndex",
              "type": "uint16"
            },
            {
              "internalType": "bool",
              "name": "stroke",
              "type": "bool"
            }
          ],
          "internalType": "struct DreamersRenderer.Trait[]",
          "name": "",
          "type": "tuple[]"
        }
      ],
      "stateMutability": "view",
      "type": "function"
    },
    {
      "inputs": [
        {
          "internalType": "uint256",
          "name": "tokenId",
          "type": "uint256"
        },
        {
          "internalType": "uint8",
          "name": "candy",
          "type": "uint8"
        }
      ],
      "name": "imageURI",
      "outputs": [
        {
          "internalType": "string",
          "name": "",
          "type": "string"
        }
      ],
      "stateMutability": "view",
      "type": "function"
    },
    {
      "inputs": [],
      "name": "owner",
      "outputs": [
        {
          "internalType": "address",
          "name": "",
          "type": "address"
        }
      ],
      "stateMutability": "view",
      "type": "function"
    },
    {
      "inputs": [],
      "name": "renounceOwnership",
      "outputs": [],
      "stateMutability": "nonpayable",
      "type": "function"
    },
    {
      "inputs": [
        {
          "internalType": "bytes[]",
          "name": "_pathPalette",
          "type": "bytes[]"
        }
      ],
      "name": "setDPalette",
      "outputs": [],
      "stateMutability": "nonpayable",
      "type": "function"
    },
    {
      "inputs": [
        {
          "internalType": "bytes",
          "name": "_pathPaletteIndex",
          "type": "bytes"
        }
      ],
      "name": "setDPaletteIndex",
      "outputs": [],
      "stateMutability": "nonpayable",
      "type": "function"
    },
    {
      "inputs": [
        {
          "internalType": "bytes",
          "name": "_fillPalette",
          "type": "bytes"
        }
      ],
      "name": "setFillPalette",
      "outputs": [],
      "stateMutability": "nonpayable",
      "type": "function"
    },
    {
      "inputs": [
        {
          "internalType": "bytes",
          "name": "_layerIndexes",
          "type": "bytes"
        }
      ],
      "name": "setLayerIndexes",
      "outputs": [],
      "stateMutability": "nonpayable",
      "type": "function"
    },
    {
      "inputs": [
        {
          "internalType": "bytes",
          "name": "_traitPalette",
          "type": "bytes"
        }
      ],
      "name": "setTraitPalette",
      "outputs": [],
      "stateMutability": "nonpayable",
      "type": "function"
    },
    {
      "inputs": [
        {
          "internalType": "bytes",
          "name": "_traitPaletteIndex",
          "type": "bytes"
        }
      ],
      "name": "setTraitPaletteIndex",
      "outputs": [],
      "stateMutability": "nonpayable",
      "type": "function"
    },
    {
      "inputs": [
        {
          "internalType": "uint256",
          "name": "_number",
          "type": "uint256"
        }
      ],
      "name": "splitNumber",
      "outputs": [
        {
          "internalType": "uint16[13]",
          "name": "numbers",
          "type": "uint16[13]"
        }
      ],
      "stateMutability": "pure",
      "type": "function"
    },
    {
      "inputs": [
        {
          "internalType": "uint256",
          "name": "tokenId",
          "type": "uint256"
        },
        {
          "internalType": "uint8",
          "name": "",
          "type": "uint8"
        }
      ],
      "name": "tokenURI",
      "outputs": [
        {
          "internalType": "string",
          "name": "",
          "type": "string"
        }
      ],
      "stateMutability": "view",
      "type": "function"
    },
    {
      "inputs": [],
      "name": "traitPalette",
      "outputs": [
        {
          "internalType": "address",
          "name": "",
          "type": "address"
        }
      ],
      "stateMutability": "view",
      "type": "function"
    },
    {
      "inputs": [],
      "name": "traitPaletteIndexes",
      "outputs": [
        {
          "internalType": "address",
          "name": "",
          "type": "address"
        }
      ],
      "stateMutability": "view",
      "type": "function"
    },
    {
      "inputs": [
        {
          "internalType": "address",
          "name": "newOwner",
          "type": "address"
        }
      ],
      "name": "transferOwnership",
      "outputs": [],
      "stateMutability": "nonpayable",
      "type": "function"
    }
  ],
  "transactionHash": "0x5bd4c2acf6abf5ab74ec09982195e151163af7149d3cc05c8d10932cdf96b7d7",
  "args": [
    "0xfDac77881ff861fF76a83cc43a1be3C317c6A1cC",
    "0x97597002980134beA46250Aa0510C9B90d87A587",
    "https://api.chaindreamers.xyz/tokens/"
  ],
  "numDeployments": 1,
  "solcInputHash": "3ebd0f676f0cc544ed44158549654fd8",
  "bytecode": "0x60a06040819052600060808190526200001b91602a91620024f0565b503480156200002957600080fd5b506040516200681b3803806200681b8339810160408190526200004c9162002823565b826200005833620024a0565b60018055602980546001600160a01b0319166001600160a01b0383161790556040805161058081018252602480825260e1602083018190529282018390526060820183905261016860808301819052608760a0840152601b60c0840181905260e0840182905261013b610100850181905261012085018190526101408501819052610160850152610180840185905260b46101a085018190526101c085018690526101e0850181905261020085018390526102208501819052602d6102408601819052610260860184905261028086018490526102a086018490526102c08601929092526102e0850193909352610300840182905261032084018190526103408401839052610360840182905261038084018590526103a084018290526103c084018590526103e084018590526104008401829052610420840183905261044084015261046083015260126104808301526104a082018390526104c082018390526104e082018390526105008201839052610520820152610540810191909152610169610560820152620001f190600290602c6200257f565b50604080516101e08101825261036b81526104f5602082015261030b918101829052606081018290526080810182905260a0810182905260c0810182905260e08101829052610100810182905261012081018290526101408101829052610160810191909152601161018082015260086101a082015260296101c08201526200027f90600390600f6200257f565b50604080516104208101825261012f8082526020820181905291810182905260608101829052609760808201819052601e60a08301819052600060c0840181905260e0840152610100830182905261012083018290526101408301829052610160830182905261018083018190526101a083018490526101c083018290526101e08301819052610200830184905261022083018490526102408301849052610260830184905261028083018490526102a083018490526102c08301526102e0820152610300810182905261032081018290526103408101829052610360810182905261038081018290526103a081018290526103c081018290526103e0810191909152610bfa6104008201526200039b9060049060216200257f565b50604080516101c0810182526102858082526000602083015261050a92820192909252610142606082018190526080820183905260a0820183905260c082018390526103c760e08301819052610100830191909152610120820181905261014082019290925261016081018290526101808101919091526103cd6101a08201526200042b90600590600e6200257f565b506040805161016081018252600080825260208201819052918101919091526104e2606082018190526080820181905260a0820181905260c0820181905260e08201819052610100820181905261012082018190526101408201526200049690600690600b6200257f565b506040805161094081018252607980825260208201819052918101829052606081018290526080810182905260a0810182905260f360c08201819052600060e08301819052610100830181905261012083018190526101408301819052610160830184905261018083018490526101a083018290526101c083018490526101e08301849052610200830182905261022083018490526102408301849052610260830184905261028083018490526102a083018490526102c083018290526102e08301849052610300830184905261032083018490526103408301849052610360830182905261038083018490526103a083018490526103c083018490526103e08301849052610400830182905261042083018490526104408301849052610460830184905261048083018290526104a083018490526104c083018490526104e08301849052610500830184905261052083018290526105408301849052610560830184905261058083018490526105a083018490526105c083018290526105e08301849052610600830184905261062083018490526106408301849052610660830182905261068083018490526106a083018490526106c083018490526106e08301849052610700830182905261072083018490526107408301849052610760830184905261078083018490526107a083018290526107c083018490526107e0830184905261080083018290526108208301819052610840830181905261086083015261088082018390526108a082018390526108c08201526108e08101829052610900810191909152610132610920820152620006f990600790604a6200257f565b50604080516101608101825261039d80825261022b6020830181905260b993830184905260608301526080820181905260a082015260c081019190915261051060e0820181905261010082018190526101208201526107416101408201526200076790600890600b6200257f565b50604080516101008101825260588082526020820181905291810182905260608101829052608081019190915261010960a08201526101ba60c082015261229560e0820152620007bc9060099060086200257f565b50604080516101008101825260bd8082526020820152602f918101919091526012606082015260096080820152601c60a0820152602560c082015261250b60e08201526200080f90600a9060086200257f565b50604080516104a08101825261015480825260208201819052918101829052606081018290526080810182905260a08101829052602260c0820181905260e0820183905261010082018390526101208201839052610140820183905260aa610160830181905261018083018190526101a0830181905260666101c084015260ee6101e08401819052610200840181905261022084018190526101106102408501819052610260850186905261028085018690526102a085018690526102c08501526102e08401819052610300840181905261032084018190526103408401526103608301526103808201526103a081018290526103c0810182905260886103e08201526104008101829052610420810182905261044081018290526104608101919091526101586104808201526200094c90600b9060256200257f565b506040805161042081018252609f80825260d460208301819052606a938301849052603560608401819052601a608085015260a0840183905260c0840181905261010960e08501819052610100850182905261012085018390526101408501849052610160850181905261018085018290526101a085018190526101c085018190526101e085018390526102008501829052610220850184905260ef6102408601526102608501829052610280850186905260056102a08601526102c085018690526102e08501919091526103008401829052610320840182905261034084019490945261036083019190915261038082018190526103a082018390526103c08201526103e08101919091526113ca61040082015262000a7190600c9060216200257f565b506040805161062081018252608b8082526101166020830181905292820183905260fa60608301819052608083015260c260a0830181905260de60c0840181905260e08401859052610100840185905261012084018290526101408401819052605361016085018190526101808501919091526101a084018590526101c084018390526101e08401839052601b610200850181905261022085018690526102408501869052610260850186905261028085018690526102a085018190526102c085018690526102e08501849052610300850186905261032085018690526103408501869052610360850186905261038085018690526103a085018690526103c085018690526103e08501869052610400850186905261042085018690526104408501869052610460850181905261048085018490526104a085018490526104c085018490526104e085019390935260006105008501526105208401859052610540840191909152610560830181905261058083018190526105a08301939093526105c08201929092526105e081019190915261013261060082015262000c1c90600d9060316200257f565b5060408051610120810182526103d5808252610b81602083015261028e92820183905260106060830152608082015261014760a082015260c081019190915260a360e0820152610ccf61010082015262000c7b90600e9060096200257f565b506040805161058081018252602480825260e1602083018190529282018390526060820183905261016860808301819052608760a0840152601b60c0840181905260e0840182905261013b610100850181905261012085018190526101408501819052610160850152610180840185905260b46101a085018190526101c085018690526101e0850181905261020085018390526102208501819052602d6102408601819052610260860184905261028086018490526102a086018490526102c08601929092526102e0850193909352610300840182905261032084018190526103408401839052610360840182905261038084018590526103a084018290526103c084018590526103e084018590526104008401829052610420840183905261044084015261046083015260126104808301526104a082018390526104c082018390526104e08201839052610500820183905261052082015261054081019190915261016961056082015262000df690600f90602c6200257f565b50604080516101e08101825261036b81526104f5602082015261030b918101829052606081018290526080810182905260a0810182905260c0810182905260e08101829052610100810182905261012081018290526101408101829052610160810191909152601161018082015260086101a082015260296101c082015262000e8490601090600f6200257f565b506040805161042081018252600080825260208201819052918101829052606081018290526080810182905260a0810182905260c0810182905260e08101829052610100810182905261012081018290526101408101829052610160810182905261018081018290526101a081018290526101c081018290526101e08101829052610200810182905261022081018290526102408101829052610260810182905261028081018290526102a081018290526102c081018290526102e08101829052610300810182905261032081018290526103408101829052610360810182905261038081018290526103a081018290526103c081018290526103e081019190915261271061040082015262000f9f9060119060216200257f565b50604080516101c081018252600080825260208201819052918101829052606081018290526080810182905260a0810182905260c0810182905260e08101829052610100810182905261012081018290526101408101829052610160810182905261018081018290526101a08101919091526200102190601290600e6200262a565b506040805161016081018252600080825260208201819052918101829052606081018290526080810182905260a0810182905260c0810182905260e08101829052610100810182905261012081018290526101408101919091526200108b90601390600b6200262a565b506040805161094081018252600080825260208201819052918101829052606081018290526080810182905260a0810182905260c0810182905260e0810182905261010081018290526101208101829052610140810182905261016081018290526101808082018390526101a082018390526101c082018390526101e08201839052610200820183905261022082018390526102408201839052610260820183905261028082018390526102a082018390526102c082018390526102e08201839052610300820183905261032082018390526103408201839052610360820183905261038082018390526103a082018390526103c082018390526103e08201839052610400820183905261042082018390526104408201839052610460820183905261048082018390526104a082018390526104c082018390526104e08201839052610500820183905261052082018390526105408201839052610560820183905261058082018390526105a082018390526105c082018390526105e08201839052610600820183905261062082018390526106408201839052610660820183905261068082018390526106a082018390526106c082018390526106e08201839052610700820183905261072082018390526107408201839052610760820183905261078082018390526107a082018390526107c082018390526107e082018390526108008201839052610820820152611e0c61084082015261078361086082015261088081018290526108a081018290526108c081018290526108e081018290526109008101919091526001610920820152620012ee90601490604a6200257f565b506040805161016081018252600080825260208201819052918101829052606081018290526080810182905260a0810182905260c0810182905260e0810182905261010081018290526101208101919091526127106101408201526200135990601590600b6200257f565b506040805161010081018252600080825260208201819052918101829052606081018290526080810182905261038d60a082015260c081019190915261238360e0820152620013ad9060169060086200257f565b506040805161010081018252600080825260208201819052918101829052606081018290526080810182905260a0810182905260c081019190915261271060e0820152620014009060179060086200257f565b50604080516104a08101825261020e808252602082018190529181018290526000606082018190526080820181905260a0820181905260c0820181905260e08201819052610100820183905261012082018190526101408201819052610160820181905261018082018390526101a082018190526101c082018390526101e08201819052610200820181905261022082018190526102408201839052610260820183905261028082018390526102a082018390526102c082018390526102e08201839052610300820183905261032082018390526103408201839052610360820183905261038082018390526103a082018190526103c082018190526103e08201929092526104008101829052610420810182905261044081018290526104608101919091526102146104808201526200153f9060189060256200257f565b50604080516104208101825260508082526000602083018190526101909383019390935260f0606083018190526080830182905260a0830184905260c083015260e08201839052610100820183905261012082018190526101408201819052610160820181905261018082018390526101a082018390526101c082018390526101e08201839052610200820181905261022082018190526102408201839052610260820183905261028082018190526102a082018190526102c082018390526102e0820181905261030082018190526103208201819052610340820181905261036082015261038081018290526103a081018290526103c081018290526103e0810191909152611f406104008201526200165e9060199060216200257f565b506040805161062081018252610121808252600060208301819052928201839052606082018390526080820183905261019460a08301526101ce60c0830181905261024260e0840181905261010084018190526101208401859052610140840182905260ad6101608501526101808401919091526101a083018190526101c083018490526101e083018490526039610200840181905261022084018590526102408401819052610260840185905261028084018190526102a084018190526102c084018290526102e08401839052610300840182905261032084018190526103408401859052610360840181905261038084018190526103a084018190526103c084018290526103e08401829052610400840185905261042084018590526104408401859052610460840185905261048084018590526104a084018590526104c084018190526104e084019290925261050083015261052082018390526105408201839052610560820183905260e76105808301526105a08201526105c081018290526105e08101919091526106d16106008201526200180390601a9060316200257f565b5060408051610120810182526102ca80825260208201819052918101829052600060608201819052608082019290925260a0810182905260c0810182905260e0810191909152611be86101008201526200186290601b9060096200257f565b506040805161058081018252602480825260e1602083018190529282018390526060820183905261016860808301819052608760a0840152601b60c0840181905260e0840182905261013b610100850181905261012085018190526101408501819052610160850152610180840185905260b46101a085018190526101c085018690526101e0850181905261020085018390526102208501819052602d6102408601819052610260860184905261028086018490526102a086018490526102c08601929092526102e0850193909352610300840182905261032084018190526103408401839052610360840182905261038084018590526103a084018290526103c084018590526103e084018590526104008401829052610420840183905261044084015261046083015260126104808301526104a082018390526104c082018390526104e082018390526105008201839052610520820152610540810191909152610169610560820152620019dd90601c90602c6200257f565b50604080516101e08101825261036b81526104f5602082015261030b918101829052606081018290526080810182905260a0810182905260c0810182905260e08101829052610100810182905261012081018290526101408101829052610160810191909152601161018082015260086101a082015260296101c082015262001a6b90601d90600f6200257f565b50604080516104208101825261012f8082526020820181905291810182905260608101829052609760808201819052601e60a08301819052600060c0840181905260e0840152610100830182905261012083018290526101408301829052610160830182905261018083018190526101a083018490526101c083018290526101e08301819052610200830184905261022083018490526102408301849052610260830184905261028083018490526102a083018490526102c083018190526102e0830191909152610300820183905261032082018390526103408201839052610360820183905261038082018390526103a082018390526103c082018390526103e0820192909252610bfa61040082015262001b8a919060216200257f565b50604080516101c0810182526102858082526000602083015261050a92820192909252610142606082018190526080820183905260a0820183905260c082018390526103c760e08301819052610100830191909152610120820181905261014082019290925261016081018290526101808101919091526103cd6101a082015262001c1a90601f90600e6200257f565b5060408051610160810182526109c480825260208083018290529282018190526000606083018190526080830181905260a0830181905260c0830181905260e08301819052610100830181905261012083019190915261014082015262001c849190600b6200257f565b506040805161094081018252600080825260208201819052918101829052606081018290526080810182905260a0810182905261024c60c0820181905260e08201819052610100820181905261012082018190526101408201819052610160820183905261018082018390526101a082018190526101c082018390526101e08201839052610200820181905261022082018390526102408201839052610260820183905261028082018390526102a082018390526102c082018190526102e08201839052610300820183905261032082018390526103408201839052610360820181905261038082018390526103a082018390526103c082018390526103e08201819052610400820181905261042082018390526104408201839052610460820183905261048082018190526104a082018390526104c082018390526104e08201839052610500820183905261052082018190526105408201839052610560820183905261058082018390526105a082018390526105c082018390526105e08201839052610600820183905261062082018390526106408201839052610660820181905261068082018390526106a082018390526106c082018390526106e08201839052610700820181905261072082018390526107408201839052610760820183905261078082018390526107a082018190526107c082018390526107e08201839052610800820183905261082082018390526108408201839052610860820183905261088082018390526108a082018390526108c08201526108e08101829052610900810191909152600461092082015262001ee790602190604a6200257f565b50604080516101608101825261039d80825261022b6020830181905260b993830184905260608301526080820181905260a082015260c081019190915261051060e08201819052610100820181905261012082015261074161014082015262001f5590602290600b6200257f565b50604080516101008101825260588082526020820181905291810182905260608101829052608081019190915261010960a08201526101ba60c082015261229560e082015262001faa9060239060086200257f565b50604080516101008101825260b7815261011260208201819052918101919091526012606082018190526080820152601b60a0820152602460c082018190526123d260e083015262001ffe9160086200257f565b50604080516104a08101825261015480825260208201819052918101829052606081018290526080810182905260a08101829052602260c0820181905260e0820183905261010082018390526101208201839052610140820183905260aa610160830181905261018083018190526101a0830181905260666101c084015260ee6101e08401819052610200840181905261022084018190526101106102408501819052610260850186905261028085018690526102a085018690526102c08501526102e08401819052610300840181905261032084018190526103408401526103608301526103808201526103a081018290526103c0810182905260886103e08201526104008101829052610420810182905261044081018290526104608101919091526101586104808201526200213a90602590816200257f565b50604080516104208101825260d980825261016a6020830181905292820181905260906060830181905260486080840181905261012160a0850181905260c0850183905260e08501869052610100850182905261012085018190526101408501849052610160850186905261018085018290526101a085018690526101c085018690526101e08501819052600061020086018190526102208601859052610240860152610260850182905261028085019290925260076102a08501526102c084018390526102e084015261030083018290526103208301829052610340830181905261036083018290526103808301526103a082018390526103c08201526103e0810191909152610cc56104008201526200225a9060269060216200257f565b506040805161062081018252608b8082526101166020830181905292820183905260fa60608301819052608083015260c260a0830181905260de60c0840181905260e08401859052610100840185905261012084018290526101408401819052605361016085018190526101808501919091526101a084018590526101c084018390526101e08401839052601b610200850181905261022085018690526102408501869052610260850186905261028085018690526102a085018190526102c085018690526102e08501849052610300850186905261032085018690526103408501869052610360850186905261038085018690526103a085018690526103c085018690526103e08501869052610400850186905261042085018690526104408501869052610460850181905261048085018490526104a085018490526104c085018490526104e085019390935260006105008501526105208401859052610540840191909152610560830181905261058083018190526105a08301939093526105c08201929092526105e0810191909152610132610600820152620024059060279060316200257f565b5060408051610120810182526103d5808252610b81602083015261028e92820183905260106060830152608082015261014760a082015260c081019190915260a360e0820152610ccf610100820152620024649060289060096200257f565b5050603180546001600160a01b0319166001600160a01b03841617905580516200249690602a906020840190620024f0565b50505050620028e0565b600080546001600160a01b038381166001600160a01b0319831681178455604051919092169283917f8be0079c531659141344cd1fd0a4f28419497f9722a3daafe3b4186f6b6457e09190a35050565b828054620024fe90620028af565b90600052602060002090601f0160209004810192826200252257600085556200256d565b82601f106200253d57805160ff19168380011785556200256d565b828001600101855582156200256d579182015b828111156200256d57825182559160200191906001019062002550565b506200257b92915062002695565b5090565b82805482825590600052602060002090600f016010900481019282156200256d5791602002820160005b83821115620025eb57835183826101000a81548161ffff021916908361ffff1602179055509260200192600201602081600101049283019260010302620025a9565b80156200261b5782816101000a81549061ffff0219169055600201602081600101049283019260010302620025eb565b50506200257b92915062002695565b82805482825590600052602060002090600f016010900481019282156200256d5791602002820160005b83821115620025eb57835183826101000a81548161ffff021916908360ff160217905550926020019260020160208160010104928301926001030262002654565b5b808211156200257b576000815560010162002696565b60006001600160a01b0382165b92915050565b620026ca81620026ac565b8114620026d657600080fd5b50565b8051620026b981620026bf565b634e487b7160e01b600052604160045260246000fd5b601f19601f83011681016001600160401b0381118282101715620027245762002724620026e6565b6040525050565b60006200273760405190565b9050620027458282620026fc565b919050565b60006001600160401b03821115620027665762002766620026e6565b601f19601f83011660200192915050565b60005b83811015620027945781810151838201526020016200277a565b83811115620027a4576000848401525b50505050565b6000620027c1620027bb846200274a565b6200272b565b905082815260208101848484011115620027de57620027de600080fd5b620027eb84828562002777565b509392505050565b600082601f830112620028095762002809600080fd5b81516200281b848260208601620027aa565b949350505050565b6000806000606084860312156200283d576200283d600080fd5b60006200284b8686620026d9565b93505060206200285e86828701620026d9565b604086015190935090506001600160401b03811115620028815762002881600080fd5b6200288f86828701620027f3565b9150509250925092565b634e487b7160e01b600052602260045260246000fd5b600281046001821680620028c457607f821691505b60208210811415620028da57620028da62002899565b50919050565b613f2b80620028f06000396000f3fe608060405234801561001057600080fd5b50600436106102f45760003560e01c80638da5cb5b11610191578063d337c2c3116100e3578063f2a90a7611610097578063fd88767711610071578063fd8876771461073b578063fdd5e4e81461074e578063fe31cecf1461076f57600080fd5b8063f2a90a7614610702578063f2fde38b14610715578063f6a5d7021461072857600080fd5b8063e0c9ae69116100c8578063e0c9ae6914610677578063e87ab5e0146106b3578063e8f255f0146106c657600080fd5b8063d337c2c3146105ff578063d6bf65011461063b57600080fd5b8063b674b76111610145578063bfa933261161011f578063bfa9332614610591578063c1dfb567146105a4578063cd369849146105d857600080fd5b8063b674b7611461052f578063b9f8e72a1461056b578063bc4617fb1461057e57600080fd5b8063aacb2fa611610176578063aacb2fa614610514578063b3215d4914610514578063b4de62161461051c57600080fd5b80638da5cb5b146104c7578063a4cd9a11146104d857600080fd5b80634c63ba131161024a578063715018a6116101fe5780637c213e7b116101d85780637c213e7b146104995780637e8e0657146104ac5780638aaad546146104b457600080fd5b8063715018a614610476578063743976a01461047e578063761d9db81461048657600080fd5b80636432609f1161022f5780636432609f14610448578063677bfad31461045b5780636f5c723b1461046e57600080fd5b80634c63ba13146104035780635cc518ba1461043557600080fd5b8063397bcf61116102ac57806340eb8e221161028657806340eb8e22146103bb578063480bc3c8146103db5780634b65e32f146103f057600080fd5b8063397bcf611461038057806339bfa873146103955780633e1ed132146103a857600080fd5b80631a5d193d116102dd5780631a5d193d14610335578063220b028d146103555780632c3e0c5c1461036a57600080fd5b80630e275391146102f95780631866112c14610322575b600080fd5b602d5461030c906001600160a01b031681565b6040516103199190612d1d565b60405180910390f35b602e5461030c906001600160a01b031681565b610348610343366004612d43565b610782565b6040516103199190612db7565b61035d600381565b6040516103199190612dcf565b61037361271081565b6040516103199190612ddd565b61039361038e366004612e3d565b6107e1565b005b6103486103a3366004612e99565b610884565b6103936103b6366004612e3d565b610ea1565b6103ce6103c9366004612fe4565b610f3b565b6040516103199190613098565b6103e36112a8565b604051610319919061310b565b6103e36103fe36600461311c565b6112c4565b6104287d01000000000000000000000000000000000000000000000000000000000081565b6040516103199190613165565b6103e3610443366004612e99565b61169c565b602f5461030c906001600160a01b031681565b61030c610469366004612d43565b6116d1565b6103e36116fb565b610393611717565b6103e361174d565b6103e361049436600461311c565b6117db565b6103736104a7366004613173565b611994565b61035d600d81565b6103e36104c23660046132ad565b611b20565b6000546001600160a01b031661030c565b6103e36040518060400160405280600581526020017f272f25336500000000000000000000000000000000000000000000000000000081525081565b61035d600c81565b6103ce61052a36600461311c565b611d51565b6103e36040518060400160405280600a81526020017f2725323066696c6c3d270000000000000000000000000000000000000000000081525081565b6103e361057936600461337f565b611db4565b61039361058c366004613405565b612302565b61039361059f366004612e3d565b6123f6565b6105cb7f4d4c51434148565a00000000000000000000000000000000000000000000000081565b6040516103199190613469565b6105cb7f020204060701010000000000000000000000000000000000000000000000000081565b6103e36040518060400160405280600381526020017f253233000000000000000000000000000000000000000000000000000000000081525081565b6103e36040518060400160405280600d81526020017f25336370617468253230643d270000000000000000000000000000000000000081525081565b6103e36040518060400160405280600381526020017f253230000000000000000000000000000000000000000000000000000000000081525081565b6103e36106c1366004612e99565b612490565b6103e36040518060400160405280601281526020017f272532307374726f6b653d27253233303030000000000000000000000000000081525081565b602b5461030c906001600160a01b031681565b61039361072336600461348b565b61257f565b610393610736366004612e3d565b6125db565b6103736107493660046134ac565b612675565b61076161075c36600461311c565b6126d2565b604051610319929190613508565b61039361077d366004612e3d565b61281f565b61078a612c45565b60005b600d8110156107db576107a261271084613539565b8282600d81106107b4576107b4613551565b61ffff9092166020929092020152600e9290921c91806107d38161357d565b91505061078d565b50919050565b6000546001600160a01b031633146108145760405162461bcd60e51b815260040161080b906135c8565b60405180910390fd5b61085382828080601f01602080910402602001604051908101604052809392919081815260200183838082843760009201919091525061285592505050565b602e805473ffffffffffffffffffffffffffffffffffffffff19166001600160a01b03929092169190911790555050565b61088c612c45565b600061089784610782565b905060006108cf84836040516020016108b192919061361b565b6040516020818303038152906040528051906020012060001c610782565b60295460208401516040517f7f436b5c0000000000000000000000000000000000000000000000000000000081529293506000926001600160a01b0390921691637f436b5c9161092191600401612ddd565b60206040518083038186803b15801561093957600080fd5b505afa15801561094d573d6000803e3d6000fd5b505050506040513d601f19601f820116820180604052508101906109719190613647565b60ff169050610981600486613668565b60ff166109e457815161ffff908116845260c08084015182169085015260e0808401518216908501526101008084015182169085015261014080840151821690850152610160808401518216908501526101808084015190911690840152610a4c565b6109ef600486613668565b60ff1660011415610a4c5760208083015161ffff9081169185019190915260408084015182169085015260608084015182169085015260808084015182169085015260a08084015182169085015261012080840151909116908401525b600060028261ffff1660038110610a6557610a65613551565b600d0201600701600781548110610a7e57610a7e613551565b90600052602060002090601091828204019190066002029054906101000a900461ffff16612710610aaf9190613675565b61ffff16846007602002015161ffff16109050600060028361ffff1660038110610adb57610adb613551565b600d0201600801600781548110610af457610af4613551565b90600052602060002090601091828204019190066002029054906101000a900461ffff16612710610b259190613675565b61ffff16856008602002015161ffff16109050600060028461ffff1660038110610b5157610b51613551565b600d0201600901602481548110610b6a57610b6a613551565b90600052602060002090601091828204019190066002029054906101000a900461ffff16612710610b9b9190613675565b61ffff16866009602002015161ffff16109050600060028561ffff1660038110610bc757610bc7613551565b600d0201600b01603081548110610be057610be0613551565b90600052602060002090601091828204019190066002029054906101000a900461ffff16612710610c119190613675565b61ffff1687600b602002015161ffff16109050600080600289826020020151610c3a9190613698565b61ffff1611905060005b600d60ff82161015610e91576029546000906001600160a01b031663fca228ce8b60ff8516600d8110610c7957610c79613551565b6020020151848b6040518463ffffffff1660e01b8152600401610c9e939291906136a6565b60206040518083038186803b158015610cb657600080fd5b505afa158015610cca573d6000803e3d6000fd5b505050506040513d601f19601f82011682018060405250810190610cee9190613647565b905060ff8216158015610d0e5750610d0760048d613668565b60ff166002145b15610d2d578851610d2190600a90613698565b61ffff16610d2d5750602c5b6000610d3f8360ff168360ff16611994565b905060008360ff1660021480610d5857508360ff16600c145b8015610d62575087155b8015610d6c575088155b80610d8357508360ff166007148015610d83575087155b80610d9a57508360ff16600a148015610d9a575087155b80610ded575060028460ff161080610dc3575060028460ff16118015610dc3575060078460ff16105b80610dd157508360ff166008145b80610ddf57508360ff166009145b80610ded57508360ff16600b145b90506000878015610dfb5750865b8015610e1257508460ff166009148015610e125750855b80610e2957508460ff16600b148015610e29575085155b905061ffff83811610801580610e3d575082155b80610e455750815b15610e505761ffff93505b838f8760ff16600d8110610e6657610e66613551565b602002019061ffff16908161ffff168152505050505050508080610e89906136ce565b915050610c44565b5050505050505050505b92915050565b6000546001600160a01b03163314610ecb5760405162461bcd60e51b815260040161080b906135c8565b610f0a82828080601f01602080910402602001604051908101604052809392919081815260200183838082843760009201919091525061285592505050565b602f805473ffffffffffffffffffffffffffffffffffffffff19166001600160a01b03929092169190911790555050565b602f54606090600090610f56906001600160a01b03166128cd565b602e54909150600090610f71906001600160a01b03166128cd565b9050606060008060005b600d61ffff821610156110715761ffff88828216600d8110610f9f57610f9f613551565b602002015161ffff161415610fb35761105f565b610fe686898361ffff16600d8110610fcd57610fcd613551565b6020020151610fdd9060026136e7565b61ffff166128dd565b925061101d86898361ffff16600d811061100257611002613551565b60200201516110129060026136e7565b610fdd906002613714565b91508361103c8661ffff86166110338787613675565b61ffff16612913565b60405160200161104d92919061375f565b60405160208183030381529060405293505b8061106981613775565b915050610f7b565b50600080600385516110839190613790565b67ffffffffffffffff81111561109b5761109b612ed6565b6040519080825280602002602001820160405280156110e657816020015b60408051606081018252600080825260208083018290529282015282526000199092019101816110b95790505b50905060005b855181101561129b5760008073e5d03576716d2D66Becf01a3F3BC7B80eb05952E635dfb512c89858151811061112457611124613551565b01602001516001600160f81b0319168a61113f8760016137a8565b8151811061114f5761114f613551565b01602001516001600160f81b0319168b61116a8860026137a8565b8151811061117a5761117a613551565b01602001516040517fffffffff0000000000000000000000000000000000000000000000000000000060e086901b1681526111c49392916001600160f81b031916906004016137cb565b604080518083038186803b1580156111db57600080fd5b505af41580156111ef573d6000803e3d6000fd5b505050506040513d601f19601f8201168201806040525081019061121391906137fe565b90925090506000611225600283613698565b61ffff1611945060018161ffff16901c905060405180606001604052808361ffff1681526020018261ffff1681526020018615158152508460038561126a9190613790565b8151811061127a5761127a613551565b6020026020010181905250505060038161129491906137a8565b90506110ec565b5098975050505050505050565b6040518060a00160405280606d8152602001613e89606d913981565b602b546060906000906112df906001600160a01b03166128cd565b90506000816112ef8560036136e7565b61ffff168151811061130357611303613551565b01602001516001600160f81b03191614801561135857506000816113288560036136e7565b611333906001613714565b61ffff168151811061134757611347613551565b01602001516001600160f81b031916145b80156113bc57507f01000000000000000000000000000000000000000000000000000000000000008161138c8560036136e7565b611397906002613714565b61ffff16815181106113ab576113ab613551565b01602001516001600160f81b031916145b156113fc57505060408051808201909152600481527f6e6f6e65000000000000000000000000000000000000000000000000000000006020820152919050565b6040518060400160405280600381526020017f25323300000000000000000000000000000000000000000000000000000000008152508184600361144091906136e7565b61ffff168151811061145457611454613551565b016020015160405163c1338a6960e01b815273e5d03576716d2D66Becf01a3F3BC7B80eb05952E9163c1338a69916114989160f81c9060109060029060040161384b565b60006040518083038186803b1580156114b057600080fd5b505af41580156114c4573d6000803e3d6000fd5b505050506040513d6000823e601f3d908101601f191682016040526114ec91908101906138cb565b826114f88660036136e7565b611503906001613714565b61ffff168151811061151757611517613551565b016020015160405163c1338a6960e01b815273e5d03576716d2D66Becf01a3F3BC7B80eb05952E9163c1338a699161155b9160f81c9060109060029060040161384b565b60006040518083038186803b15801561157357600080fd5b505af4158015611587573d6000803e3d6000fd5b505050506040513d6000823e601f3d908101601f191682016040526115af91908101906138cb565b836115bb8760036136e7565b6115c6906002613714565b61ffff16815181106115da576115da613551565b016020015160405163c1338a6960e01b815273e5d03576716d2D66Becf01a3F3BC7B80eb05952E9163c1338a699161161e9160f81c9060109060029060040161384b565b60006040518083038186803b15801561163657600080fd5b505af415801561164a573d6000803e3d6000fd5b505050506040513d6000823e601f3d908101601f1916820160405261167291908101906138cb565b6040516020016116859493929190613906565b604051602081830303815290604052915050919050565b6060602a6116a9846129db565b6040516020016116ba929190613a09565b604051602081830303815290604052905092915050565b602c81815481106116e157600080fd5b6000918252602090912001546001600160a01b0316905081565b604051806060016040528060388152602001613e516038913981565b6000546001600160a01b031633146117415760405162461bcd60e51b815260040161080b906135c8565b61174b6000612afd565b565b602a805461175a9061394a565b80601f01602080910402602001604051908101604052809291908181526020018280546117869061394a565b80156117d35780601f106117a8576101008083540402835291602001916117d3565b820191906000526020600020905b8154815290600101906020018083116117b657829003601f168201915b505050505081565b60606000806117e9846126d2565b91509150600080611820602c838154811061180657611806613551565b6000918252602090912001546001600160a01b03166128cd565b805190915063ffffffff85165b611838600183613a2a565b8663ffffffff16111561188c5782516118519082613a2a565b90508361185d8161357d565b945050611876602c858154811061180657611806613551565b925082518261188591906137a8565b915061182d565b60006118988787613a30565b63ffffffff1667ffffffffffffffff8111156118b6576118b6612ed6565b6040519080825280601f01601f1916602001820160405280156118e0576020820181803683370190505b50905060005b815181101561129b57600185516118fd9190613a2a565b83111561192e578561190e8161357d565b965050611927602c878154811061180657611806613551565b9450600092505b84838151811061194057611940613551565b602001015160f81c60f81b82828151811061195d5761195d613551565b60200101906001600160f81b031916908160001a9053508261197e8161357d565b935050808061198c9061357d565b9150506118e6565b600080611a32603080546119a79061394a565b80601f01602080910402602001604051908101604052809291908181526020018280546119d39061394a565b8015611a205780601f106119f557610100808354040283529160200191611a20565b820191906000526020600020905b815481529060010190602001808311611a0357829003601f168201915b5050505050856002610fdd91906136e7565b90506000611adc60308054611a469061394a565b80601f0160208091040260200160405190810160405280929190818152602001828054611a729061394a565b8015611abf5780601f10611a9457610100808354040283529160200191611abf565b820191906000526020600020905b815481529060010190602001808311611aa257829003601f168201915b5050505050866001611ad19190613714565b610fdd9060026136e7565b9050611ae9600182613675565b61ffff16611af78584613714565b61ffff161115611b0d5761ffff92505050610e9b565b611b178483613714565b95945050505050565b606060006040518060a00160405280606d8152602001613e89606d9139905060005b83518161ffff161015611d2557816040518060400160405280600d81526020017f25336370617468253230643d2700000000000000000000000000000000000000815250611bb3610579878561ffff1681518110611ba257611ba2613551565b6020026020010151600001516117db565b6040518060400160405280600a81526020017f2725323066696c6c3d2700000000000000000000000000000000000000000000815250611c13888661ffff1681518110611c0257611c02613551565b6020026020010151602001516112c4565b604051602001611c27959493929190613a40565b6040516020818303038152906040529150838161ffff1681518110611c4e57611c4e613551565b60200260200101516040015115611cb957816040518060400160405280601281526020017f272532307374726f6b653d272532333030300000000000000000000000000000815250604051602001611ca792919061375f565b60405160208183030381529060405291505b816040518060400160405280600581526020017f272f253365000000000000000000000000000000000000000000000000000000815250604051602001611d0192919061375f565b60405160208183030381529060405291508080611d1d90613775565b915050611b42565b5080604051806060016040528060388152602001613e516038913960405160200161168592919061375f565b6060611d5b612c45565b61ffff8316815260015b600d811015611da35761ffff8282600d8110611d8357611d83613551565b61ffff909216602092909202015280611d9b8161357d565b915050611d65565b50611dad81610f3b565b9392505050565b6060806060600080600080805b611dcd60036008613a84565b60ff1689516008611dde9190613aa5565b611de89190613a2a565b8563ffffffff16116122f557611dff600886613abf565b9350611e0c600886613acf565b9250611e1a60036008613adf565b60ff16611e28846008613adf565b60ff168a611e37876001613714565b61ffff1681518110611e4b57611e4b613551565b602001015160f81c60f81b6001600160f81b031916901c8460ff168b8761ffff1681518110611e7c57611e7c613551565b01602001516001600160f81b031916901b1760f81c901c91507f020204060701010000000000000000000000000000000000000000000000000060ff831660088110611eca57611eca613551565b1a9050611ed8600386613aec565b9450611ee5600886613abf565b9350611ef2600886613acf565b92508060ff1667ffffffffffffffff811115611f1057611f10612ed6565b6040519080825280601f01601f191660200182016040528015611f3a576020820181803683370190505b50955060005b8160ff168160ff16101561207a578360ff168a8260ff1687611f629190613714565b61ffff1681518110611f7657611f76613551565b602001015160f81c60f81b6001600160f81b031916901b878260ff1681518110611fa257611fa2613551565b60200101906001600160f81b031916908160001a9053508951611fc860ff831687613714565b611fd3906001613714565b61ffff16101561206857611fe8846008613adf565b60ff168a8260ff1687611ffb9190613714565b612006906001613714565b61ffff168151811061201a5761201a613551565b602001015160f81c60f81b6001600160f81b031916901c878260ff168151811061204657612046613551565b0160200180516001600160f81b031992831692169190911790600082901a9053505b80612072816136ce565b915050611f40565b50867f4d4c51434148565a0000000000000000000000000000000000000000000000008360ff16600881106120b1576120b1613551565b1a60f81b876000815181106120c8576120c8613551565b01602001516040517f6900a3ae00000000000000000000000000000000000000000000000000000000815273e5d03576716d2D66Becf01a3F3BC7B80eb05952E91636900a3ae9161211f9160f81c90600401613b16565b60006040518083038186803b15801561213757600080fd5b505af415801561214b573d6000803e3d6000fd5b505050506040513d6000823e601f3d908101601f1916820160405261217391908101906138cb565b60405160200161218593929190613b24565b60408051601f19818403018152919052965060015b8160ff168160ff1610156122d557876040518060400160405280600381526020017f2532300000000000000000000000000000000000000000000000000000000000815250888360ff16815181106121f4576121f4613551565b01602001516040517f6900a3ae00000000000000000000000000000000000000000000000000000000815273e5d03576716d2D66Becf01a3F3BC7B80eb05952E91636900a3ae9161224b9160f81c90600401613b16565b60006040518083038186803b15801561226357600080fd5b505af4158015612277573d6000803e3d6000fd5b505050506040513d6000823e601f3d908101601f1916820160405261229f91908101906138cb565b6040516020016122b193929190613b47565b604051602081830303815290604052975080806122cd906136ce565b91505061219a565b506122e1816008613b69565b6122ee9060ff1686613aec565b9450611dc1565b5094979650505050505050565b6000546001600160a01b0316331461232c5760405162461bcd60e51b815260040161080b906135c8565b60005b60ff81168211156123f157602c6123a084848460ff1681811061235457612354613551565b90506020028101906123669190613b8e565b8080601f01602080910402602001604051908101604052809392919081815260200183838082843760009201919091525061285592505050565b815460018101835560009283526020909220909101805473ffffffffffffffffffffffffffffffffffffffff19166001600160a01b03909216919091179055806123e9816136ce565b91505061232f565b505050565b6000546001600160a01b031633146124205760405162461bcd60e51b815260040161080b906135c8565b61245f82828080601f01602080910402602001604051908101604052809392919081815260200183838082843760009201919091525061285592505050565b602b805473ffffffffffffffffffffffffffffffffffffffff19166001600160a01b03929092169190911790555050565b6031546040517f422627c30000000000000000000000000000000000000000000000000000000081526060916000916001600160a01b039091169063422627c3906124df908790600401613b16565b60206040518083038186803b1580156124f757600080fd5b505afa15801561250b573d6000803e3d6000fd5b505050506040513d601f19601f8201168201806040525081019061252f9190613c0c565b9050600061253d8285610884565b9050600061254a82610f3b565b905061255581611b20565b6040516020016125659190613c2d565b604051602081830303815290604052935050505092915050565b6000546001600160a01b031633146125a95760405162461bcd60e51b815260040161080b906135c8565b6001600160a01b0381166125cf5760405162461bcd60e51b815260040161080b90613c61565b6125d881612afd565b50565b6000546001600160a01b031633146126055760405162461bcd60e51b815260040161080b906135c8565b61264482828080601f01602080910402602001604051908101604052809392919081815260200183838082843760009201919091525061285592505050565b602d805473ffffffffffffffffffffffffffffffffffffffff19166001600160a01b03929092169190911790555050565b6002836003811061268557600080fd5b600d020182600d811061269757600080fd5b0181815481106126a657600080fd5b906000526020600020906010918282040191900660020292509250509054906101000a900461ffff1681565b602d54600090819081906126ee906001600160a01b03166128cd565b9050600061270182610fdd8760026136e7565b61ffff1690506000612718836110128860026136e7565b61ffff1690506103e88661ffff1663ffffffff161180156127405750614e208263ffffffff16105b15612760578161275361ffff6001613aec565b61275d9190613aec565b91505b6107d061ffff871611801561277c5750619c408263ffffffff16105b1561279c578161278f61ffff6001613aec565b6127999190613aec565b91505b6103e861ffff87161180156127b85750614e208163ffffffff16105b156127d857806127cb61ffff6001613aec565b6127d59190613aec565b90505b6107d061ffff87161180156127f45750619c408163ffffffff16105b15612814578061280761ffff6001613aec565b6128119190613aec565b90505b909590945092505050565b6000546001600160a01b031633146128495760405162461bcd60e51b815260040161080b906135c8565b6123f160308383612c64565b6000806128808360405160200161286c9190613ccd565b604051602081830303815290604052612b5a565b90508051602082016000f091506001600160a01b0382166107db576040517f08d4abb600000000000000000000000000000000000000000000000000000000815260040160405180910390fd5b6060610e9b826001600019612b86565b60006128ea8260026137a8565b8351101561290a5760405162461bcd60e51b815260040161080b90613d08565b50016002015190565b60608161292181601f6137a8565b101561293f5760405162461bcd60e51b815260040161080b90613d4a565b61294982846137a8565b845110156129695760405162461bcd60e51b815260040161080b90613d8c565b60608215801561298857604051915060008252602082016040526129d2565b6040519150601f8416801560200281840101858101878315602002848b0101015b818310156129c15780518352602092830192016129a9565b5050858452601f01601f1916604052505b50949350505050565b606081612a1b57505060408051808201909152600181527f3000000000000000000000000000000000000000000000000000000000000000602082015290565b8160005b8115612a455780612a2f8161357d565b9150612a3e9050600a83613790565b9150612a1f565b60008167ffffffffffffffff811115612a6057612a60612ed6565b6040519080825280601f01601f191660200182016040528015612a8a576020820181803683370190505b5090505b8415612af557612a9f600183613a2a565b9150612aac600a86613539565b612ab79060306137a8565b60f81b818381518110612acc57612acc613551565b60200101906001600160f81b031916908160001a905350612aee600a86613790565b9450612a8e565b949350505050565b600080546001600160a01b0383811673ffffffffffffffffffffffffffffffffffffffff19831681178455604051919092169283917f8be0079c531659141344cd1fd0a4f28419497f9722a3daafe3b4186f6b6457e09190a35050565b6060815182604051602001612b70929190613e07565b6040516020818303038152906040529050919050565b6060833b80612ba5575050604080516020810190915260008152611dad565b80841115612bc3575050604080516020810190915260008152611dad565b83831015612c03578084846040517f2c4a89fa00000000000000000000000000000000000000000000000000000000815260040161080b93929190613e28565b8383038482036000828210612c185782612c1a565b815b60408051603f8301601f19168101909152818152955090508087602087018a3c505050509392505050565b604051806101a00160405280600d906020820280368337509192915050565b828054612c709061394a565b90600052602060002090601f016020900481019282612c925760008555612cd8565b82601f10612cab5782800160ff19823516178555612cd8565b82800160010185558215612cd8579182015b82811115612cd8578235825591602001919060010190612cbd565b50612ce4929150612ce8565b5090565b5b80821115612ce45760008155600101612ce9565b60006001600160a01b038216610e9b565b612d1781612cfd565b82525050565b60208101610e9b8284612d0e565b805b81146125d857600080fd5b8035610e9b81612d2b565b600060208284031215612d5857612d58600080fd5b6000612af58484612d38565b61ffff8116612d17565b612d788282612d64565b5060200190565b60200190565b600d8160005b82811015612db0578151612d9f8682612d6e565b955050602082019150600101612d8b565b5050505050565b6101a08101610e9b8284612d85565b60ff8116612d17565b60208101610e9b8284612dc6565b60208101610e9b8284612d64565b60008083601f840112612e0057612e00600080fd5b50813567ffffffffffffffff811115612e1b57612e1b600080fd5b602083019150836001820283011115612e3657612e36600080fd5b9250929050565b60008060208385031215612e5357612e53600080fd5b823567ffffffffffffffff811115612e6d57612e6d600080fd5b612e7985828601612deb565b92509250509250929050565b60ff8116612d2d565b8035610e9b81612e85565b60008060408385031215612eaf57612eaf600080fd5b6000612ebb8585612d38565b9250506020612ecc85828601612e8e565b9150509250929050565b634e487b7160e01b600052604160045260246000fd5b601f19601f830116810181811067ffffffffffffffff82111715612f1257612f12612ed6565b6040525050565b6000612f2460405190565b9050612f308282612eec565b919050565b600067ffffffffffffffff821115612f4f57612f4f612ed6565b5060200290565b61ffff8116612d2d565b8035610e9b81612f56565b6000612f7e612f7984612f35565b612f19565b90508060208402830185811115612f9757612f97600080fd5b835b81811015612fb957612fab8782612f60565b835260209283019201612f99565b5050509392505050565b600082601f830112612fd757612fd7600080fd5b600d612af5848285612f6b565b60006101a08284031215612ffa57612ffa600080fd5b6000612af58484612fc3565b801515612d17565b805161301a8382612d64565b50602081015161302d6020840182612d64565b5060408101516123f16040840182613006565b61304a828261300e565b5060600190565b600061305b825190565b808452602093840193830160005b8281101561308e57815161307d8782613040565b965050602082019150600101613069565b5093949350505050565b60208082528101611dad8184613051565b60005b838110156130c45781810151838201526020016130ac565b838111156130d3576000848401525b50505050565b60006130e3825190565b8084526020840193506130fa8185602086016130a9565b601f01601f19169290920192915050565b60208082528101611dad81846130d9565b60006020828403121561313157613131600080fd5b6000612af58484612f60565b7fffffff00000000000000000000000000000000000000000000000000000000008116612d17565b60208101610e9b828461313d565b6000806040838503121561318957613189600080fd5b60006131958585612f60565b9250506020612ecc85828601612f60565b600067ffffffffffffffff8211156131c0576131c0612ed6565b5060209081020190565b801515612d2d565b8035610e9b816131ca565b6000606082840312156131f2576131f2600080fd5b6131fc6060612f19565b9050600061320a8484612f60565b90820152602061321c84848301612f60565b90820152604061322e848483016131d2565b9082015292915050565b6000613246612f79846131a6565b8381529050602081016060840283018581111561326557613265600080fd5b835b81811015612fb95761327987826131dd565b8352602090920191606001613267565b600082601f83011261329d5761329d600080fd5b8135612af5848260208601613238565b6000602082840312156132c2576132c2600080fd5b813567ffffffffffffffff8111156132dc576132dc600080fd5b612af584828501613289565b600067ffffffffffffffff82111561330257613302612ed6565b601f19601f83011660200192915050565b82818337506000910152565b600061332d612f79846132e8565b90508281526020810184848401111561334857613348600080fd5b613353848285613313565b509392505050565b600082601f83011261336f5761336f600080fd5b8135612af584826020860161331f565b60006020828403121561339457613394600080fd5b813567ffffffffffffffff8111156133ae576133ae600080fd5b612af58482850161335b565b60008083601f8401126133cf576133cf600080fd5b50813567ffffffffffffffff8111156133ea576133ea600080fd5b602083019150836020820283011115612e3657612e36600080fd5b6000806020838503121561341b5761341b600080fd5b823567ffffffffffffffff81111561343557613435600080fd5b612e79858286016133ba565b7fffffffffffffffff0000000000000000000000000000000000000000000000008116612d17565b60208101610e9b8284613441565b612d2d81612cfd565b8035610e9b81613477565b6000602082840312156134a0576134a0600080fd5b6000612af58484613480565b6000806000606084860312156134c4576134c4600080fd5b60006134d08686612d38565b93505060206134e186828701612d38565b92505060406134f286828701612d38565b9150509250925092565b63ffffffff8116612d17565b6040810161351682856134fc565b611dad60208301846134fc565b634e487b7160e01b600052601260045260246000fd5b815b915060008261354c5761354c613523565b500690565b634e487b7160e01b600052603260045260246000fd5b634e487b7160e01b600052601160045260246000fd5b600060001982141561359157613591613567565b5060010190565b60208082527f4f776e61626c653a2063616c6c6572206973206e6f7420746865206f776e65729101908152612d7f565b60208082528101610e9b81613598565b6000610e9b8260f81b90565b612d1760ff82166135d8565b600d8160005b82811015612db057815161360a8682612d6e565b9550506020820191506001016135f6565b61362581846135e4565b60010161363281836135f0565b6101a00192915050565b8051610e9b81612e85565b60006020828403121561365c5761365c600080fd5b6000612af5848461363c565b60ff90811690821661353b565b61ffff9081169082165b915060008282101561369357613693613567565b500390565b61ffff90811690821661353b565b606081016136b48286612d64565b6136c16020830185612dc6565b612af56040830184612d64565b60ff81169050600060ff82141561359157613591613567565b61ffff8116905061ffff8216915060008161ffff048311821515161561370f5761370f613567565b500290565b61ffff8116905061ffff8216915060008261ffff0382111561373857613738613567565b500190565b6000613747825190565b6137558185602086016130a9565b9290920192915050565b613769818461373d565b9050611dad818361373d565b61ffff81169050600061ffff82141561359157613591613567565b815b91506000826137a3576137a3613523565b500490565b6000821982111561373857613738613567565b6001600160f81b03198116612d17565b606081016137d982866137bb565b6137e660208301856137bb565b612af560408301846137bb565b8051610e9b81612f56565b6000806040838503121561381457613814600080fd5b600061382085856137f3565b9250506020612ecc858286016137f3565b80612d17565b600060ff8216610e9b565b612d1781613837565b606081016138598286613831565b6138666020830185613842565b612af56040830184613842565b6000613881612f79846132e8565b90508281526020810184848401111561389c5761389c600080fd5b6133538482856130a9565b600082601f8301126138bb576138bb600080fd5b8151612af5848260208601613873565b6000602082840312156138e0576138e0600080fd5b815167ffffffffffffffff8111156138fa576138fa600080fd5b612af5848285016138a7565b613910818661373d565b905061391c818561373d565b9050613928818461373d565b9050611b17818361373d565b634e487b7160e01b600052602260045260246000fd5b60028104600182168061395e57607f821691505b602082108114156107db576107db613934565b6000815461397e8161394a565b60018216801561399557600181146139a6576139d6565b60ff198316865281860193506139d6565b60008581526020902060005b838110156139ce578154888201526001909101906020016139b2565b505081860193505b50505092915050565b7f2f6d65746164617461000000000000000000000000000000000000000000000081525b60090190565b613a138184613971565b9050613a1f818361373d565b9050611dad816139df565b8161367f565b63ffffffff90811690821661367f565b613a4a818761373d565b9050613a56818661373d565b9050613a62818561373d565b9050613a6e818461373d565b9050613a7a818361373d565b9695505050505050565b60ff8116905060ff8216915060008260ff0382111561373857613738613567565b600081600019048311821515161561370f5761370f613567565b63ffffffff908116908216613792565b63ffffffff90811690821661353b565b60ff90811690821661367f565b63ffffffff8116905063ffffffff8216915060008263ffffffff0382111561373857613738613567565b60208101610e9b8284613831565b613b2e818561373d565b9050613b3a81846137bb565b600101612af5818361373d565b613b51818561373d565b9050613b5d818461373d565b9050612af5818361373d565b60ff8116905060ff8216915060008160ff048311821515161561370f5761370f613567565b60008083357fffffffffffffffffffffffffffffffffffffffffffffffffffffffffffffffe136859003018112613bc757613bc7600080fd5b8301915050803567ffffffffffffffff811115613be657613be6600080fd5b602082019150600181023603821315612e3657612e36600080fd5b8051610e9b81612d2b565b600060208284031215613c2157613c21600080fd5b6000612af58484613c01565b7f646174613a696d6167652f7376672b786d6c2c000000000000000000000000008152601381015b9050610e9b818361373d565b60208082528101610e9b81602681527f4f776e61626c653a206e6577206f776e657220697320746865207a65726f206160208201527f6464726573730000000000000000000000000000000000000000000000000000604082015260600190565b600081525b60010190565b613c5581613cc2565b60148152602081017f746f55696e7431365f6f75744f66426f756e647300000000000000000000000081529050612d7f565b60208082528101610e9b81613cd6565b600e8152602081017f736c6963655f6f766572666c6f7700000000000000000000000000000000000081529050612d7f565b60208082528101610e9b81613d18565b60118152602081017f736c6963655f6f75744f66426f756e647300000000000000000000000000000081529050612d7f565b60208082528101610e9b81613d5a565b7f63000000000000000000000000000000000000000000000000000000000000008152613cc7565b6000610e9b8260e01b90565b612d1763ffffffff8216613dc4565b7f80600e6000396000f300000000000000000000000000000000000000000000008152613a03565b613e1081613d9c565b9050613e1c8184613dd0565b60040161376981613ddf565b60608101613e368286613831565b613e436020830185613831565b612af5604083018461383156fe2533637374796c65253365706174687b7374726f6b652d77696474683a302e37317d2533632f7374796c652533652533632f737667253365253363737667253230786d6c6e733d27687474703a2f2f7777772e77332e6f72672f323030302f7376672725323076696577426f783d2730253230302532303235352532303235352725323077696474683d273530307078272532306865696768743d27353030707827253365a2646970667358221220b85ee4e7806c66a47587ff3ff56d28aa71307d0dade4bdfdb8157a2338ef745c64736f6c63430008080033",
  "deployedBytecode": "0x608060405234801561001057600080fd5b50600436106102f45760003560e01c80638da5cb5b11610191578063d337c2c3116100e3578063f2a90a7611610097578063fd88767711610071578063fd8876771461073b578063fdd5e4e81461074e578063fe31cecf1461076f57600080fd5b8063f2a90a7614610702578063f2fde38b14610715578063f6a5d7021461072857600080fd5b8063e0c9ae69116100c8578063e0c9ae6914610677578063e87ab5e0146106b3578063e8f255f0146106c657600080fd5b8063d337c2c3146105ff578063d6bf65011461063b57600080fd5b8063b674b76111610145578063bfa933261161011f578063bfa9332614610591578063c1dfb567146105a4578063cd369849146105d857600080fd5b8063b674b7611461052f578063b9f8e72a1461056b578063bc4617fb1461057e57600080fd5b8063aacb2fa611610176578063aacb2fa614610514578063b3215d4914610514578063b4de62161461051c57600080fd5b80638da5cb5b146104c7578063a4cd9a11146104d857600080fd5b80634c63ba131161024a578063715018a6116101fe5780637c213e7b116101d85780637c213e7b146104995780637e8e0657146104ac5780638aaad546146104b457600080fd5b8063715018a614610476578063743976a01461047e578063761d9db81461048657600080fd5b80636432609f1161022f5780636432609f14610448578063677bfad31461045b5780636f5c723b1461046e57600080fd5b80634c63ba13146104035780635cc518ba1461043557600080fd5b8063397bcf61116102ac57806340eb8e221161028657806340eb8e22146103bb578063480bc3c8146103db5780634b65e32f146103f057600080fd5b8063397bcf611461038057806339bfa873146103955780633e1ed132146103a857600080fd5b80631a5d193d116102dd5780631a5d193d14610335578063220b028d146103555780632c3e0c5c1461036a57600080fd5b80630e275391146102f95780631866112c14610322575b600080fd5b602d5461030c906001600160a01b031681565b6040516103199190612d1d565b60405180910390f35b602e5461030c906001600160a01b031681565b610348610343366004612d43565b610782565b6040516103199190612db7565b61035d600381565b6040516103199190612dcf565b61037361271081565b6040516103199190612ddd565b61039361038e366004612e3d565b6107e1565b005b6103486103a3366004612e99565b610884565b6103936103b6366004612e3d565b610ea1565b6103ce6103c9366004612fe4565b610f3b565b6040516103199190613098565b6103e36112a8565b604051610319919061310b565b6103e36103fe36600461311c565b6112c4565b6104287d01000000000000000000000000000000000000000000000000000000000081565b6040516103199190613165565b6103e3610443366004612e99565b61169c565b602f5461030c906001600160a01b031681565b61030c610469366004612d43565b6116d1565b6103e36116fb565b610393611717565b6103e361174d565b6103e361049436600461311c565b6117db565b6103736104a7366004613173565b611994565b61035d600d81565b6103e36104c23660046132ad565b611b20565b6000546001600160a01b031661030c565b6103e36040518060400160405280600581526020017f272f25336500000000000000000000000000000000000000000000000000000081525081565b61035d600c81565b6103ce61052a36600461311c565b611d51565b6103e36040518060400160405280600a81526020017f2725323066696c6c3d270000000000000000000000000000000000000000000081525081565b6103e361057936600461337f565b611db4565b61039361058c366004613405565b612302565b61039361059f366004612e3d565b6123f6565b6105cb7f4d4c51434148565a00000000000000000000000000000000000000000000000081565b6040516103199190613469565b6105cb7f020204060701010000000000000000000000000000000000000000000000000081565b6103e36040518060400160405280600381526020017f253233000000000000000000000000000000000000000000000000000000000081525081565b6103e36040518060400160405280600d81526020017f25336370617468253230643d270000000000000000000000000000000000000081525081565b6103e36040518060400160405280600381526020017f253230000000000000000000000000000000000000000000000000000000000081525081565b6103e36106c1366004612e99565b612490565b6103e36040518060400160405280601281526020017f272532307374726f6b653d27253233303030000000000000000000000000000081525081565b602b5461030c906001600160a01b031681565b61039361072336600461348b565b61257f565b610393610736366004612e3d565b6125db565b6103736107493660046134ac565b612675565b61076161075c36600461311c565b6126d2565b604051610319929190613508565b61039361077d366004612e3d565b61281f565b61078a612c45565b60005b600d8110156107db576107a261271084613539565b8282600d81106107b4576107b4613551565b61ffff9092166020929092020152600e9290921c91806107d38161357d565b91505061078d565b50919050565b6000546001600160a01b031633146108145760405162461bcd60e51b815260040161080b906135c8565b60405180910390fd5b61085382828080601f01602080910402602001604051908101604052809392919081815260200183838082843760009201919091525061285592505050565b602e805473ffffffffffffffffffffffffffffffffffffffff19166001600160a01b03929092169190911790555050565b61088c612c45565b600061089784610782565b905060006108cf84836040516020016108b192919061361b565b6040516020818303038152906040528051906020012060001c610782565b60295460208401516040517f7f436b5c0000000000000000000000000000000000000000000000000000000081529293506000926001600160a01b0390921691637f436b5c9161092191600401612ddd565b60206040518083038186803b15801561093957600080fd5b505afa15801561094d573d6000803e3d6000fd5b505050506040513d601f19601f820116820180604052508101906109719190613647565b60ff169050610981600486613668565b60ff166109e457815161ffff908116845260c08084015182169085015260e0808401518216908501526101008084015182169085015261014080840151821690850152610160808401518216908501526101808084015190911690840152610a4c565b6109ef600486613668565b60ff1660011415610a4c5760208083015161ffff9081169185019190915260408084015182169085015260608084015182169085015260808084015182169085015260a08084015182169085015261012080840151909116908401525b600060028261ffff1660038110610a6557610a65613551565b600d0201600701600781548110610a7e57610a7e613551565b90600052602060002090601091828204019190066002029054906101000a900461ffff16612710610aaf9190613675565b61ffff16846007602002015161ffff16109050600060028361ffff1660038110610adb57610adb613551565b600d0201600801600781548110610af457610af4613551565b90600052602060002090601091828204019190066002029054906101000a900461ffff16612710610b259190613675565b61ffff16856008602002015161ffff16109050600060028461ffff1660038110610b5157610b51613551565b600d0201600901602481548110610b6a57610b6a613551565b90600052602060002090601091828204019190066002029054906101000a900461ffff16612710610b9b9190613675565b61ffff16866009602002015161ffff16109050600060028561ffff1660038110610bc757610bc7613551565b600d0201600b01603081548110610be057610be0613551565b90600052602060002090601091828204019190066002029054906101000a900461ffff16612710610c119190613675565b61ffff1687600b602002015161ffff16109050600080600289826020020151610c3a9190613698565b61ffff1611905060005b600d60ff82161015610e91576029546000906001600160a01b031663fca228ce8b60ff8516600d8110610c7957610c79613551565b6020020151848b6040518463ffffffff1660e01b8152600401610c9e939291906136a6565b60206040518083038186803b158015610cb657600080fd5b505afa158015610cca573d6000803e3d6000fd5b505050506040513d601f19601f82011682018060405250810190610cee9190613647565b905060ff8216158015610d0e5750610d0760048d613668565b60ff166002145b15610d2d578851610d2190600a90613698565b61ffff16610d2d5750602c5b6000610d3f8360ff168360ff16611994565b905060008360ff1660021480610d5857508360ff16600c145b8015610d62575087155b8015610d6c575088155b80610d8357508360ff166007148015610d83575087155b80610d9a57508360ff16600a148015610d9a575087155b80610ded575060028460ff161080610dc3575060028460ff16118015610dc3575060078460ff16105b80610dd157508360ff166008145b80610ddf57508360ff166009145b80610ded57508360ff16600b145b90506000878015610dfb5750865b8015610e1257508460ff166009148015610e125750855b80610e2957508460ff16600b148015610e29575085155b905061ffff83811610801580610e3d575082155b80610e455750815b15610e505761ffff93505b838f8760ff16600d8110610e6657610e66613551565b602002019061ffff16908161ffff168152505050505050508080610e89906136ce565b915050610c44565b5050505050505050505b92915050565b6000546001600160a01b03163314610ecb5760405162461bcd60e51b815260040161080b906135c8565b610f0a82828080601f01602080910402602001604051908101604052809392919081815260200183838082843760009201919091525061285592505050565b602f805473ffffffffffffffffffffffffffffffffffffffff19166001600160a01b03929092169190911790555050565b602f54606090600090610f56906001600160a01b03166128cd565b602e54909150600090610f71906001600160a01b03166128cd565b9050606060008060005b600d61ffff821610156110715761ffff88828216600d8110610f9f57610f9f613551565b602002015161ffff161415610fb35761105f565b610fe686898361ffff16600d8110610fcd57610fcd613551565b6020020151610fdd9060026136e7565b61ffff166128dd565b925061101d86898361ffff16600d811061100257611002613551565b60200201516110129060026136e7565b610fdd906002613714565b91508361103c8661ffff86166110338787613675565b61ffff16612913565b60405160200161104d92919061375f565b60405160208183030381529060405293505b8061106981613775565b915050610f7b565b50600080600385516110839190613790565b67ffffffffffffffff81111561109b5761109b612ed6565b6040519080825280602002602001820160405280156110e657816020015b60408051606081018252600080825260208083018290529282015282526000199092019101816110b95790505b50905060005b855181101561129b5760008073__$6cc8f8b41053aebd660af83ec8df928129$__635dfb512c89858151811061112457611124613551565b01602001516001600160f81b0319168a61113f8760016137a8565b8151811061114f5761114f613551565b01602001516001600160f81b0319168b61116a8860026137a8565b8151811061117a5761117a613551565b01602001516040517fffffffff0000000000000000000000000000000000000000000000000000000060e086901b1681526111c49392916001600160f81b031916906004016137cb565b604080518083038186803b1580156111db57600080fd5b505af41580156111ef573d6000803e3d6000fd5b505050506040513d601f19601f8201168201806040525081019061121391906137fe565b90925090506000611225600283613698565b61ffff1611945060018161ffff16901c905060405180606001604052808361ffff1681526020018261ffff1681526020018615158152508460038561126a9190613790565b8151811061127a5761127a613551565b6020026020010181905250505060038161129491906137a8565b90506110ec565b5098975050505050505050565b6040518060a00160405280606d8152602001613e89606d913981565b602b546060906000906112df906001600160a01b03166128cd565b90506000816112ef8560036136e7565b61ffff168151811061130357611303613551565b01602001516001600160f81b03191614801561135857506000816113288560036136e7565b611333906001613714565b61ffff168151811061134757611347613551565b01602001516001600160f81b031916145b80156113bc57507f01000000000000000000000000000000000000000000000000000000000000008161138c8560036136e7565b611397906002613714565b61ffff16815181106113ab576113ab613551565b01602001516001600160f81b031916145b156113fc57505060408051808201909152600481527f6e6f6e65000000000000000000000000000000000000000000000000000000006020820152919050565b6040518060400160405280600381526020017f25323300000000000000000000000000000000000000000000000000000000008152508184600361144091906136e7565b61ffff168151811061145457611454613551565b016020015160405163c1338a6960e01b815273__$6cc8f8b41053aebd660af83ec8df928129$__9163c1338a69916114989160f81c9060109060029060040161384b565b60006040518083038186803b1580156114b057600080fd5b505af41580156114c4573d6000803e3d6000fd5b505050506040513d6000823e601f3d908101601f191682016040526114ec91908101906138cb565b826114f88660036136e7565b611503906001613714565b61ffff168151811061151757611517613551565b016020015160405163c1338a6960e01b815273__$6cc8f8b41053aebd660af83ec8df928129$__9163c1338a699161155b9160f81c9060109060029060040161384b565b60006040518083038186803b15801561157357600080fd5b505af4158015611587573d6000803e3d6000fd5b505050506040513d6000823e601f3d908101601f191682016040526115af91908101906138cb565b836115bb8760036136e7565b6115c6906002613714565b61ffff16815181106115da576115da613551565b016020015160405163c1338a6960e01b815273__$6cc8f8b41053aebd660af83ec8df928129$__9163c1338a699161161e9160f81c9060109060029060040161384b565b60006040518083038186803b15801561163657600080fd5b505af415801561164a573d6000803e3d6000fd5b505050506040513d6000823e601f3d908101601f1916820160405261167291908101906138cb565b6040516020016116859493929190613906565b604051602081830303815290604052915050919050565b6060602a6116a9846129db565b6040516020016116ba929190613a09565b604051602081830303815290604052905092915050565b602c81815481106116e157600080fd5b6000918252602090912001546001600160a01b0316905081565b604051806060016040528060388152602001613e516038913981565b6000546001600160a01b031633146117415760405162461bcd60e51b815260040161080b906135c8565b61174b6000612afd565b565b602a805461175a9061394a565b80601f01602080910402602001604051908101604052809291908181526020018280546117869061394a565b80156117d35780601f106117a8576101008083540402835291602001916117d3565b820191906000526020600020905b8154815290600101906020018083116117b657829003601f168201915b505050505081565b60606000806117e9846126d2565b91509150600080611820602c838154811061180657611806613551565b6000918252602090912001546001600160a01b03166128cd565b805190915063ffffffff85165b611838600183613a2a565b8663ffffffff16111561188c5782516118519082613a2a565b90508361185d8161357d565b945050611876602c858154811061180657611806613551565b925082518261188591906137a8565b915061182d565b60006118988787613a30565b63ffffffff1667ffffffffffffffff8111156118b6576118b6612ed6565b6040519080825280601f01601f1916602001820160405280156118e0576020820181803683370190505b50905060005b815181101561129b57600185516118fd9190613a2a565b83111561192e578561190e8161357d565b965050611927602c878154811061180657611806613551565b9450600092505b84838151811061194057611940613551565b602001015160f81c60f81b82828151811061195d5761195d613551565b60200101906001600160f81b031916908160001a9053508261197e8161357d565b935050808061198c9061357d565b9150506118e6565b600080611a32603080546119a79061394a565b80601f01602080910402602001604051908101604052809291908181526020018280546119d39061394a565b8015611a205780601f106119f557610100808354040283529160200191611a20565b820191906000526020600020905b815481529060010190602001808311611a0357829003601f168201915b5050505050856002610fdd91906136e7565b90506000611adc60308054611a469061394a565b80601f0160208091040260200160405190810160405280929190818152602001828054611a729061394a565b8015611abf5780601f10611a9457610100808354040283529160200191611abf565b820191906000526020600020905b815481529060010190602001808311611aa257829003601f168201915b5050505050866001611ad19190613714565b610fdd9060026136e7565b9050611ae9600182613675565b61ffff16611af78584613714565b61ffff161115611b0d5761ffff92505050610e9b565b611b178483613714565b95945050505050565b606060006040518060a00160405280606d8152602001613e89606d9139905060005b83518161ffff161015611d2557816040518060400160405280600d81526020017f25336370617468253230643d2700000000000000000000000000000000000000815250611bb3610579878561ffff1681518110611ba257611ba2613551565b6020026020010151600001516117db565b6040518060400160405280600a81526020017f2725323066696c6c3d2700000000000000000000000000000000000000000000815250611c13888661ffff1681518110611c0257611c02613551565b6020026020010151602001516112c4565b604051602001611c27959493929190613a40565b6040516020818303038152906040529150838161ffff1681518110611c4e57611c4e613551565b60200260200101516040015115611cb957816040518060400160405280601281526020017f272532307374726f6b653d272532333030300000000000000000000000000000815250604051602001611ca792919061375f565b60405160208183030381529060405291505b816040518060400160405280600581526020017f272f253365000000000000000000000000000000000000000000000000000000815250604051602001611d0192919061375f565b60405160208183030381529060405291508080611d1d90613775565b915050611b42565b5080604051806060016040528060388152602001613e516038913960405160200161168592919061375f565b6060611d5b612c45565b61ffff8316815260015b600d811015611da35761ffff8282600d8110611d8357611d83613551565b61ffff909216602092909202015280611d9b8161357d565b915050611d65565b50611dad81610f3b565b9392505050565b6060806060600080600080805b611dcd60036008613a84565b60ff1689516008611dde9190613aa5565b611de89190613a2a565b8563ffffffff16116122f557611dff600886613abf565b9350611e0c600886613acf565b9250611e1a60036008613adf565b60ff16611e28846008613adf565b60ff168a611e37876001613714565b61ffff1681518110611e4b57611e4b613551565b602001015160f81c60f81b6001600160f81b031916901c8460ff168b8761ffff1681518110611e7c57611e7c613551565b01602001516001600160f81b031916901b1760f81c901c91507f020204060701010000000000000000000000000000000000000000000000000060ff831660088110611eca57611eca613551565b1a9050611ed8600386613aec565b9450611ee5600886613abf565b9350611ef2600886613acf565b92508060ff1667ffffffffffffffff811115611f1057611f10612ed6565b6040519080825280601f01601f191660200182016040528015611f3a576020820181803683370190505b50955060005b8160ff168160ff16101561207a578360ff168a8260ff1687611f629190613714565b61ffff1681518110611f7657611f76613551565b602001015160f81c60f81b6001600160f81b031916901b878260ff1681518110611fa257611fa2613551565b60200101906001600160f81b031916908160001a9053508951611fc860ff831687613714565b611fd3906001613714565b61ffff16101561206857611fe8846008613adf565b60ff168a8260ff1687611ffb9190613714565b612006906001613714565b61ffff168151811061201a5761201a613551565b602001015160f81c60f81b6001600160f81b031916901c878260ff168151811061204657612046613551565b0160200180516001600160f81b031992831692169190911790600082901a9053505b80612072816136ce565b915050611f40565b50867f4d4c51434148565a0000000000000000000000000000000000000000000000008360ff16600881106120b1576120b1613551565b1a60f81b876000815181106120c8576120c8613551565b01602001516040517f6900a3ae00000000000000000000000000000000000000000000000000000000815273__$6cc8f8b41053aebd660af83ec8df928129$__91636900a3ae9161211f9160f81c90600401613b16565b60006040518083038186803b15801561213757600080fd5b505af415801561214b573d6000803e3d6000fd5b505050506040513d6000823e601f3d908101601f1916820160405261217391908101906138cb565b60405160200161218593929190613b24565b60408051601f19818403018152919052965060015b8160ff168160ff1610156122d557876040518060400160405280600381526020017f2532300000000000000000000000000000000000000000000000000000000000815250888360ff16815181106121f4576121f4613551565b01602001516040517f6900a3ae00000000000000000000000000000000000000000000000000000000815273__$6cc8f8b41053aebd660af83ec8df928129$__91636900a3ae9161224b9160f81c90600401613b16565b60006040518083038186803b15801561226357600080fd5b505af4158015612277573d6000803e3d6000fd5b505050506040513d6000823e601f3d908101601f1916820160405261229f91908101906138cb565b6040516020016122b193929190613b47565b604051602081830303815290604052975080806122cd906136ce565b91505061219a565b506122e1816008613b69565b6122ee9060ff1686613aec565b9450611dc1565b5094979650505050505050565b6000546001600160a01b0316331461232c5760405162461bcd60e51b815260040161080b906135c8565b60005b60ff81168211156123f157602c6123a084848460ff1681811061235457612354613551565b90506020028101906123669190613b8e565b8080601f01602080910402602001604051908101604052809392919081815260200183838082843760009201919091525061285592505050565b815460018101835560009283526020909220909101805473ffffffffffffffffffffffffffffffffffffffff19166001600160a01b03909216919091179055806123e9816136ce565b91505061232f565b505050565b6000546001600160a01b031633146124205760405162461bcd60e51b815260040161080b906135c8565b61245f82828080601f01602080910402602001604051908101604052809392919081815260200183838082843760009201919091525061285592505050565b602b805473ffffffffffffffffffffffffffffffffffffffff19166001600160a01b03929092169190911790555050565b6031546040517f422627c30000000000000000000000000000000000000000000000000000000081526060916000916001600160a01b039091169063422627c3906124df908790600401613b16565b60206040518083038186803b1580156124f757600080fd5b505afa15801561250b573d6000803e3d6000fd5b505050506040513d601f19601f8201168201806040525081019061252f9190613c0c565b9050600061253d8285610884565b9050600061254a82610f3b565b905061255581611b20565b6040516020016125659190613c2d565b604051602081830303815290604052935050505092915050565b6000546001600160a01b031633146125a95760405162461bcd60e51b815260040161080b906135c8565b6001600160a01b0381166125cf5760405162461bcd60e51b815260040161080b90613c61565b6125d881612afd565b50565b6000546001600160a01b031633146126055760405162461bcd60e51b815260040161080b906135c8565b61264482828080601f01602080910402602001604051908101604052809392919081815260200183838082843760009201919091525061285592505050565b602d805473ffffffffffffffffffffffffffffffffffffffff19166001600160a01b03929092169190911790555050565b6002836003811061268557600080fd5b600d020182600d811061269757600080fd5b0181815481106126a657600080fd5b906000526020600020906010918282040191900660020292509250509054906101000a900461ffff1681565b602d54600090819081906126ee906001600160a01b03166128cd565b9050600061270182610fdd8760026136e7565b61ffff1690506000612718836110128860026136e7565b61ffff1690506103e88661ffff1663ffffffff161180156127405750614e208263ffffffff16105b15612760578161275361ffff6001613aec565b61275d9190613aec565b91505b6107d061ffff871611801561277c5750619c408263ffffffff16105b1561279c578161278f61ffff6001613aec565b6127999190613aec565b91505b6103e861ffff87161180156127b85750614e208163ffffffff16105b156127d857806127cb61ffff6001613aec565b6127d59190613aec565b90505b6107d061ffff87161180156127f45750619c408163ffffffff16105b15612814578061280761ffff6001613aec565b6128119190613aec565b90505b909590945092505050565b6000546001600160a01b031633146128495760405162461bcd60e51b815260040161080b906135c8565b6123f160308383612c64565b6000806128808360405160200161286c9190613ccd565b604051602081830303815290604052612b5a565b90508051602082016000f091506001600160a01b0382166107db576040517f08d4abb600000000000000000000000000000000000000000000000000000000815260040160405180910390fd5b6060610e9b826001600019612b86565b60006128ea8260026137a8565b8351101561290a5760405162461bcd60e51b815260040161080b90613d08565b50016002015190565b60608161292181601f6137a8565b101561293f5760405162461bcd60e51b815260040161080b90613d4a565b61294982846137a8565b845110156129695760405162461bcd60e51b815260040161080b90613d8c565b60608215801561298857604051915060008252602082016040526129d2565b6040519150601f8416801560200281840101858101878315602002848b0101015b818310156129c15780518352602092830192016129a9565b5050858452601f01601f1916604052505b50949350505050565b606081612a1b57505060408051808201909152600181527f3000000000000000000000000000000000000000000000000000000000000000602082015290565b8160005b8115612a455780612a2f8161357d565b9150612a3e9050600a83613790565b9150612a1f565b60008167ffffffffffffffff811115612a6057612a60612ed6565b6040519080825280601f01601f191660200182016040528015612a8a576020820181803683370190505b5090505b8415612af557612a9f600183613a2a565b9150612aac600a86613539565b612ab79060306137a8565b60f81b818381518110612acc57612acc613551565b60200101906001600160f81b031916908160001a905350612aee600a86613790565b9450612a8e565b949350505050565b600080546001600160a01b0383811673ffffffffffffffffffffffffffffffffffffffff19831681178455604051919092169283917f8be0079c531659141344cd1fd0a4f28419497f9722a3daafe3b4186f6b6457e09190a35050565b6060815182604051602001612b70929190613e07565b6040516020818303038152906040529050919050565b6060833b80612ba5575050604080516020810190915260008152611dad565b80841115612bc3575050604080516020810190915260008152611dad565b83831015612c03578084846040517f2c4a89fa00000000000000000000000000000000000000000000000000000000815260040161080b93929190613e28565b8383038482036000828210612c185782612c1a565b815b60408051603f8301601f19168101909152818152955090508087602087018a3c505050509392505050565b604051806101a00160405280600d906020820280368337509192915050565b828054612c709061394a565b90600052602060002090601f016020900481019282612c925760008555612cd8565b82601f10612cab5782800160ff19823516178555612cd8565b82800160010185558215612cd8579182015b82811115612cd8578235825591602001919060010190612cbd565b50612ce4929150612ce8565b5090565b5b80821115612ce45760008155600101612ce9565b60006001600160a01b038216610e9b565b612d1781612cfd565b82525050565b60208101610e9b8284612d0e565b805b81146125d857600080fd5b8035610e9b81612d2b565b600060208284031215612d5857612d58600080fd5b6000612af58484612d38565b61ffff8116612d17565b612d788282612d64565b5060200190565b60200190565b600d8160005b82811015612db0578151612d9f8682612d6e565b955050602082019150600101612d8b565b5050505050565b6101a08101610e9b8284612d85565b60ff8116612d17565b60208101610e9b8284612dc6565b60208101610e9b8284612d64565b60008083601f840112612e0057612e00600080fd5b50813567ffffffffffffffff811115612e1b57612e1b600080fd5b602083019150836001820283011115612e3657612e36600080fd5b9250929050565b60008060208385031215612e5357612e53600080fd5b823567ffffffffffffffff811115612e6d57612e6d600080fd5b612e7985828601612deb565b92509250509250929050565b60ff8116612d2d565b8035610e9b81612e85565b60008060408385031215612eaf57612eaf600080fd5b6000612ebb8585612d38565b9250506020612ecc85828601612e8e565b9150509250929050565b634e487b7160e01b600052604160045260246000fd5b601f19601f830116810181811067ffffffffffffffff82111715612f1257612f12612ed6565b6040525050565b6000612f2460405190565b9050612f308282612eec565b919050565b600067ffffffffffffffff821115612f4f57612f4f612ed6565b5060200290565b61ffff8116612d2d565b8035610e9b81612f56565b6000612f7e612f7984612f35565b612f19565b90508060208402830185811115612f9757612f97600080fd5b835b81811015612fb957612fab8782612f60565b835260209283019201612f99565b5050509392505050565b600082601f830112612fd757612fd7600080fd5b600d612af5848285612f6b565b60006101a08284031215612ffa57612ffa600080fd5b6000612af58484612fc3565b801515612d17565b805161301a8382612d64565b50602081015161302d6020840182612d64565b5060408101516123f16040840182613006565b61304a828261300e565b5060600190565b600061305b825190565b808452602093840193830160005b8281101561308e57815161307d8782613040565b965050602082019150600101613069565b5093949350505050565b60208082528101611dad8184613051565b60005b838110156130c45781810151838201526020016130ac565b838111156130d3576000848401525b50505050565b60006130e3825190565b8084526020840193506130fa8185602086016130a9565b601f01601f19169290920192915050565b60208082528101611dad81846130d9565b60006020828403121561313157613131600080fd5b6000612af58484612f60565b7fffffff00000000000000000000000000000000000000000000000000000000008116612d17565b60208101610e9b828461313d565b6000806040838503121561318957613189600080fd5b60006131958585612f60565b9250506020612ecc85828601612f60565b600067ffffffffffffffff8211156131c0576131c0612ed6565b5060209081020190565b801515612d2d565b8035610e9b816131ca565b6000606082840312156131f2576131f2600080fd5b6131fc6060612f19565b9050600061320a8484612f60565b90820152602061321c84848301612f60565b90820152604061322e848483016131d2565b9082015292915050565b6000613246612f79846131a6565b8381529050602081016060840283018581111561326557613265600080fd5b835b81811015612fb95761327987826131dd565b8352602090920191606001613267565b600082601f83011261329d5761329d600080fd5b8135612af5848260208601613238565b6000602082840312156132c2576132c2600080fd5b813567ffffffffffffffff8111156132dc576132dc600080fd5b612af584828501613289565b600067ffffffffffffffff82111561330257613302612ed6565b601f19601f83011660200192915050565b82818337506000910152565b600061332d612f79846132e8565b90508281526020810184848401111561334857613348600080fd5b613353848285613313565b509392505050565b600082601f83011261336f5761336f600080fd5b8135612af584826020860161331f565b60006020828403121561339457613394600080fd5b813567ffffffffffffffff8111156133ae576133ae600080fd5b612af58482850161335b565b60008083601f8401126133cf576133cf600080fd5b50813567ffffffffffffffff8111156133ea576133ea600080fd5b602083019150836020820283011115612e3657612e36600080fd5b6000806020838503121561341b5761341b600080fd5b823567ffffffffffffffff81111561343557613435600080fd5b612e79858286016133ba565b7fffffffffffffffff0000000000000000000000000000000000000000000000008116612d17565b60208101610e9b8284613441565b612d2d81612cfd565b8035610e9b81613477565b6000602082840312156134a0576134a0600080fd5b6000612af58484613480565b6000806000606084860312156134c4576134c4600080fd5b60006134d08686612d38565b93505060206134e186828701612d38565b92505060406134f286828701612d38565b9150509250925092565b63ffffffff8116612d17565b6040810161351682856134fc565b611dad60208301846134fc565b634e487b7160e01b600052601260045260246000fd5b815b915060008261354c5761354c613523565b500690565b634e487b7160e01b600052603260045260246000fd5b634e487b7160e01b600052601160045260246000fd5b600060001982141561359157613591613567565b5060010190565b60208082527f4f776e61626c653a2063616c6c6572206973206e6f7420746865206f776e65729101908152612d7f565b60208082528101610e9b81613598565b6000610e9b8260f81b90565b612d1760ff82166135d8565b600d8160005b82811015612db057815161360a8682612d6e565b9550506020820191506001016135f6565b61362581846135e4565b60010161363281836135f0565b6101a00192915050565b8051610e9b81612e85565b60006020828403121561365c5761365c600080fd5b6000612af5848461363c565b60ff90811690821661353b565b61ffff9081169082165b915060008282101561369357613693613567565b500390565b61ffff90811690821661353b565b606081016136b48286612d64565b6136c16020830185612dc6565b612af56040830184612d64565b60ff81169050600060ff82141561359157613591613567565b61ffff8116905061ffff8216915060008161ffff048311821515161561370f5761370f613567565b500290565b61ffff8116905061ffff8216915060008261ffff0382111561373857613738613567565b500190565b6000613747825190565b6137558185602086016130a9565b9290920192915050565b613769818461373d565b9050611dad818361373d565b61ffff81169050600061ffff82141561359157613591613567565b815b91506000826137a3576137a3613523565b500490565b6000821982111561373857613738613567565b6001600160f81b03198116612d17565b606081016137d982866137bb565b6137e660208301856137bb565b612af560408301846137bb565b8051610e9b81612f56565b6000806040838503121561381457613814600080fd5b600061382085856137f3565b9250506020612ecc858286016137f3565b80612d17565b600060ff8216610e9b565b612d1781613837565b606081016138598286613831565b6138666020830185613842565b612af56040830184613842565b6000613881612f79846132e8565b90508281526020810184848401111561389c5761389c600080fd5b6133538482856130a9565b600082601f8301126138bb576138bb600080fd5b8151612af5848260208601613873565b6000602082840312156138e0576138e0600080fd5b815167ffffffffffffffff8111156138fa576138fa600080fd5b612af5848285016138a7565b613910818661373d565b905061391c818561373d565b9050613928818461373d565b9050611b17818361373d565b634e487b7160e01b600052602260045260246000fd5b60028104600182168061395e57607f821691505b602082108114156107db576107db613934565b6000815461397e8161394a565b60018216801561399557600181146139a6576139d6565b60ff198316865281860193506139d6565b60008581526020902060005b838110156139ce578154888201526001909101906020016139b2565b505081860193505b50505092915050565b7f2f6d65746164617461000000000000000000000000000000000000000000000081525b60090190565b613a138184613971565b9050613a1f818361373d565b9050611dad816139df565b8161367f565b63ffffffff90811690821661367f565b613a4a818761373d565b9050613a56818661373d565b9050613a62818561373d565b9050613a6e818461373d565b9050613a7a818361373d565b9695505050505050565b60ff8116905060ff8216915060008260ff0382111561373857613738613567565b600081600019048311821515161561370f5761370f613567565b63ffffffff908116908216613792565b63ffffffff90811690821661353b565b60ff90811690821661367f565b63ffffffff8116905063ffffffff8216915060008263ffffffff0382111561373857613738613567565b60208101610e9b8284613831565b613b2e818561373d565b9050613b3a81846137bb565b600101612af5818361373d565b613b51818561373d565b9050613b5d818461373d565b9050612af5818361373d565b60ff8116905060ff8216915060008160ff048311821515161561370f5761370f613567565b60008083357fffffffffffffffffffffffffffffffffffffffffffffffffffffffffffffffe136859003018112613bc757613bc7600080fd5b8301915050803567ffffffffffffffff811115613be657613be6600080fd5b602082019150600181023603821315612e3657612e36600080fd5b8051610e9b81612d2b565b600060208284031215613c2157613c21600080fd5b6000612af58484613c01565b7f646174613a696d6167652f7376672b786d6c2c000000000000000000000000008152601381015b9050610e9b818361373d565b60208082528101610e9b81602681527f4f776e61626c653a206e6577206f776e657220697320746865207a65726f206160208201527f6464726573730000000000000000000000000000000000000000000000000000604082015260600190565b600081525b60010190565b613c5581613cc2565b60148152602081017f746f55696e7431365f6f75744f66426f756e647300000000000000000000000081529050612d7f565b60208082528101610e9b81613cd6565b600e8152602081017f736c6963655f6f766572666c6f7700000000000000000000000000000000000081529050612d7f565b60208082528101610e9b81613d18565b60118152602081017f736c6963655f6f75744f66426f756e647300000000000000000000000000000081529050612d7f565b60208082528101610e9b81613d5a565b7f63000000000000000000000000000000000000000000000000000000000000008152613cc7565b6000610e9b8260e01b90565b612d1763ffffffff8216613dc4565b7f80600e6000396000f300000000000000000000000000000000000000000000008152613a03565b613e1081613d9c565b9050613e1c8184613dd0565b60040161376981613ddf565b60608101613e368286613831565b613e436020830185613831565b612af5604083018461383156fe2533637374796c65253365706174687b7374726f6b652d77696474683a302e37317d2533632f7374796c652533652533632f737667253365253363737667253230786d6c6e733d27687474703a2f2f7777772e77332e6f72672f323030302f7376672725323076696577426f783d2730253230302532303235352532303235352725323077696474683d273530307078272532306865696768743d27353030707827253365a2646970667358221220b85ee4e7806c66a47587ff3ff56d28aa71307d0dade4bdfdb8157a2338ef745c64736f6c63430008080033",
  "libraries": {
    "Integers": "0xe5d03576716d2D66Becf01a3F3BC7B80eb05952E"
  },
  "devdoc": {
    "kind": "dev",
    "methods": {
      "getD(bytes)": {
        "details": "Decodes the path and returns it as a plain string to be used in the svg path attribute."
      },
      "getDBytes(uint16)": {
        "details": "Retrieve the bytes for the given d from the dPalette storage. The bytes may be split into several SSTORE2      slots."
      },
      "getDIndex(uint16)": {
        "details": "Get the start and end indexes of the bytes concerning the given d in the dPalette storage."
      },
      "getFill(uint16)": {
        "details": "3 bytes per color because svg does not handle alpha."
      },
      "getSvg((uint16,uint16,bool)[])": {
        "details": "Each trait is the bytes representation of the final svg string concatenating several <path> elements."
      },
      "getTokenData(uint256,uint8)": {
        "details": "Somehow copied from the original code but returns an array of trait indexes instead of Layer structs.      Flags for no layer is also updated from empty `Layer` to index = type(uint16).max."
      },
      "getTraitIndex(uint16,uint16)": {
        "details": "This function will be the pendant of the ChainRunnersBaseRenderer.getLayer ones."
      },
      "getTraits(uint16[13])": {
        "details": "Used to concat all the traits of a given dreamers given the array of trait indexes."
      },
      "owner()": {
        "details": "Returns the address of the current owner."
      },
      "renounceOwnership()": {
        "details": "Leaves the contract without owner. It will not be possible to call `onlyOwner` functions anymore. Can only be called by the current owner. NOTE: Renouncing ownership will leave the contract without an owner, thereby removing any functionality that is only available to the owner."
      },
      "setDPalette(bytes[])": {
        "details": "Only the d parameter is encoded for each path. All the paths are concatenated together to save gas.      The dPaletteIndexes is used to retrieve the path from the dPalette."
      },
      "setDPaletteIndex(bytes)": {
        "details": "Since each SSTORE2 slots can contain up to 24kb, indexes need to be uint16, ie. two bytes per index."
      },
      "setFillPalette(bytes)": {
        "details": "Colors are concatenated and stored in a single 'bytes' with SSTORE2 to save gas."
      },
      "setLayerIndexes(bytes)": {
        "details": "The trait indexes allow to map from the Chain Runners 2D indexation (trait index, layer index) to the      current 1D indexation (trait index)."
      },
      "setTraitPalette(bytes)": {
        "details": "The traits are stored as a list of tuples (d index, fill index). For our case, 12 bits per index is      enough as 2^12 = 4096 is greater than total number of d and total number of fill to date.      This could be changed if needed.      Hence a trait is a sequence of several 3 bytes long (d index, fill index)."
      },
      "setTraitPaletteIndex(bytes)": {
        "details": "Since each SSTORE2 slots can contain up to 24kb, indexes need to be uint16, ie. two bytes per index.      A trait can then be retrieved with traitPalette[traitPaletteIndexes[i]: traitPaletteIndexes[i+1]]"
      },
      "transferOwnership(address)": {
        "details": "Transfers ownership of the contract to a new account (`newOwner`). Can only be called by the current owner."
      }
    },
    "version": 1
  },
  "userdoc": {
    "kind": "user",
    "methods": {
      "getTokenData(uint256,uint8)": {
        "notice": "The Dreamer's full DNA is an alteration of its corresponding Runner's DNA with it's consumed candy.      The candy ids are hardcoded while it should be better to retrieve their effects from the CandyShop      contract."
      },
      "getTrait(uint16)": {
        "notice": "Useful for returning a single Traits in the Runner's meaning"
      },
      "imageURI(uint256,uint8)": {
        "notice": "On-chain rendering of any runner with a given candy         For on-chain rendering of a given token, retrieve first its candy with `dreamers(tokenId)`         and give it here. The output can be directly copied/pasted into the browser bar for displaying the image."
      },
      "tokenURI(uint256,uint8)": {
        "notice": "Off-chain rendering because of Twitter, MetaMask, etc."
      }
    },
    "version": 1
  },
  "storageLayout": {
    "storage": [
      {
        "astId": 225,
        "contract": "contracts/dreamers/DreamersRenderer.sol:DreamersRenderer",
        "label": "_owner",
        "offset": 0,
        "slot": "0",
        "type": "t_address"
      },
      {
        "astId": 425,
        "contract": "contracts/dreamers/DreamersRenderer.sol:DreamersRenderer",
        "label": "_status",
        "offset": 0,
        "slot": "1",
        "type": "t_uint256"
      },
      {
        "astId": 4886,
        "contract": "contracts/dreamers/DreamersRenderer.sol:DreamersRenderer",
        "label": "WEIGHTS",
        "offset": 0,
        "slot": "2",
        "type": "t_array(t_array(t_array(t_uint16)dyn_storage)13_storage)3_storage"
      },
      {
        "astId": 4895,
        "contract": "contracts/dreamers/DreamersRenderer.sol:DreamersRenderer",
        "label": "chainRunnersBaseRenderer",
        "offset": 0,
        "slot": "41",
        "type": "t_contract(IChainRunnersBaseRenderer)8135"
      },
      {
        "astId": 6393,
        "contract": "contracts/dreamers/DreamersRenderer.sol:DreamersRenderer",
        "label": "_baseURI",
        "offset": 0,
        "slot": "42",
        "type": "t_string_storage"
      },
      {
        "astId": 6402,
        "contract": "contracts/dreamers/DreamersRenderer.sol:DreamersRenderer",
        "label": "fillPalette",
        "offset": 0,
        "slot": "43",
        "type": "t_address"
      },
      {
        "astId": 6405,
        "contract": "contracts/dreamers/DreamersRenderer.sol:DreamersRenderer",
        "label": "dPalette",
        "offset": 0,
        "slot": "44",
        "type": "t_array(t_address)dyn_storage"
      },
      {
        "astId": 6407,
        "contract": "contracts/dreamers/DreamersRenderer.sol:DreamersRenderer",
        "label": "dPaletteIndexes",
        "offset": 0,
        "slot": "45",
        "type": "t_address"
      },
      {
        "astId": 6409,
        "contract": "contracts/dreamers/DreamersRenderer.sol:DreamersRenderer",
        "label": "traitPalette",
        "offset": 0,
        "slot": "46",
        "type": "t_address"
      },
      {
        "astId": 6411,
        "contract": "contracts/dreamers/DreamersRenderer.sol:DreamersRenderer",
        "label": "traitPaletteIndexes",
        "offset": 0,
        "slot": "47",
        "type": "t_address"
      },
      {
        "astId": 6413,
        "contract": "contracts/dreamers/DreamersRenderer.sol:DreamersRenderer",
        "label": "layerIndexes",
        "offset": 0,
        "slot": "48",
        "type": "t_bytes_storage"
      },
      {
        "astId": 6416,
        "contract": "contracts/dreamers/DreamersRenderer.sol:DreamersRenderer",
        "label": "runnersToken",
        "offset": 0,
        "slot": "49",
        "type": "t_contract(IChainRunners)8114"
      }
    ],
    "types": {
      "t_address": {
        "encoding": "inplace",
        "label": "address",
        "numberOfBytes": "20"
      },
      "t_array(t_address)dyn_storage": {
        "base": "t_address",
        "encoding": "dynamic_array",
        "label": "address[]",
        "numberOfBytes": "32"
      },
      "t_array(t_array(t_array(t_uint16)dyn_storage)13_storage)3_storage": {
        "base": "t_array(t_array(t_uint16)dyn_storage)13_storage",
        "encoding": "inplace",
        "label": "uint16[][13][3]",
        "numberOfBytes": "1248"
      },
      "t_array(t_array(t_uint16)dyn_storage)13_storage": {
        "base": "t_array(t_uint16)dyn_storage",
        "encoding": "inplace",
        "label": "uint16[][13]",
        "numberOfBytes": "416"
      },
      "t_array(t_uint16)dyn_storage": {
        "base": "t_uint16",
        "encoding": "dynamic_array",
        "label": "uint16[]",
        "numberOfBytes": "32"
      },
      "t_bytes_storage": {
        "encoding": "bytes",
        "label": "bytes",
        "numberOfBytes": "32"
      },
      "t_contract(IChainRunners)8114": {
        "encoding": "inplace",
        "label": "contract IChainRunners",
        "numberOfBytes": "20"
      },
      "t_contract(IChainRunnersBaseRenderer)8135": {
        "encoding": "inplace",
        "label": "contract IChainRunnersBaseRenderer",
        "numberOfBytes": "20"
      },
      "t_string_storage": {
        "encoding": "bytes",
        "label": "string",
        "numberOfBytes": "32"
      },
      "t_uint16": {
        "encoding": "inplace",
        "label": "uint16",
        "numberOfBytes": "2"
      },
      "t_uint256": {
        "encoding": "inplace",
        "label": "uint256",
        "numberOfBytes": "32"
      }
    }
  }
}