{
  "address": "0x671175ef467FfeB59b2B3e96f41f7974106bDb11",
  "abi": [
    {
      "inputs": [
        {
          "internalType": "string",
          "name": "name_",
          "type": "string"
        },
        {
          "internalType": "string",
          "name": "symbol_",
          "type": "string"
        }
      ],
      "stateMutability": "nonpayable",
      "type": "constructor"
    },
    {
      "anonymous": false,
      "inputs": [
        {
          "indexed": true,
          "internalType": "address",
          "name": "owner",
          "type": "address"
        },
        {
          "indexed": true,
          "internalType": "address",
          "name": "approved",
          "type": "address"
        },
        {
          "indexed": true,
          "internalType": "uint256",
          "name": "tokenId",
          "type": "uint256"
        }
      ],
      "name": "Approval",
      "type": "event"
    },
    {
      "anonymous": false,
      "inputs": [
        {
          "indexed": true,
          "internalType": "address",
          "name": "owner",
          "type": "address"
        },
        {
          "indexed": true,
          "internalType": "address",
          "name": "operator",
          "type": "address"
        },
        {
          "indexed": false,
          "internalType": "bool",
          "name": "approved",
          "type": "bool"
        }
      ],
      "name": "ApprovalForAll",
      "type": "event"
    },
    {
      "anonymous": false,
      "inputs": [
        {
          "indexed": true,
          "internalType": "address",
          "name": "to",
          "type": "address"
        },
        {
          "indexed": true,
          "internalType": "bytes",
          "name": "tokenIds",
          "type": "bytes"
        }
      ],
      "name": "BatchMint",
      "type": "event"
    },
    {
      "anonymous": false,
      "inputs": [
        {
          "indexed": true,
          "internalType": "address",
          "name": "previousOwner",
          "type": "address"
        },
        {
          "indexed": true,
          "internalType": "address",
          "name": "newOwner",
          "type": "address"
        }
      ],
      "name": "OwnershipTransferred",
      "type": "event"
    },
    {
      "anonymous": false,
      "inputs": [
        {
          "indexed": true,
          "internalType": "address",
          "name": "from",
          "type": "address"
        },
        {
          "indexed": true,
          "internalType": "address",
          "name": "to",
          "type": "address"
        },
        {
          "indexed": true,
          "internalType": "uint256",
          "name": "tokenId",
          "type": "uint256"
        }
      ],
      "name": "Transfer",
      "type": "event"
    },
    {
      "inputs": [],
      "name": "MINT_PUBLIC_PRICE",
      "outputs": [
        {
          "internalType": "uint256",
          "name": "",
          "type": "uint256"
        }
      ],
      "stateMutability": "view",
      "type": "function"
    },
    {
      "inputs": [
        {
          "internalType": "address",
          "name": "to",
          "type": "address"
        },
        {
          "internalType": "uint16[]",
          "name": "tokenIds",
          "type": "uint16[]"
        },
        {
          "internalType": "uint256[]",
          "name": "candyIds",
          "type": "uint256[]"
        },
        {
          "internalType": "uint256[]",
          "name": "candyAmounts",
          "type": "uint256[]"
        }
      ],
      "name": "airDropBatch",
      "outputs": [],
      "stateMutability": "nonpayable",
      "type": "function"
    },
    {
      "inputs": [
        {
          "internalType": "address",
          "name": "to",
          "type": "address"
        },
        {
          "internalType": "uint256",
          "name": "tokenId",
          "type": "uint256"
        }
      ],
      "name": "approve",
      "outputs": [],
      "stateMutability": "nonpayable",
      "type": "function"
    },
    {
      "inputs": [
        {
          "internalType": "address",
          "name": "owner",
          "type": "address"
        }
      ],
      "name": "balanceOf",
      "outputs": [
        {
          "internalType": "uint256",
          "name": "",
          "type": "uint256"
        }
      ],
      "stateMutability": "view",
      "type": "function"
    },
    {
      "inputs": [],
      "name": "candyShopAddress",
      "outputs": [
        {
          "internalType": "address",
          "name": "",
          "type": "address"
        }
      ],
      "stateMutability": "view",
      "type": "function"
    },
    {
      "inputs": [],
      "name": "chainRunnersAddress",
      "outputs": [
        {
          "internalType": "address",
          "name": "",
          "type": "address"
        }
      ],
      "stateMutability": "view",
      "type": "function"
    },
    {
      "inputs": [
        {
          "internalType": "uint256",
          "name": "",
          "type": "uint256"
        }
      ],
      "name": "dreamers",
      "outputs": [
        {
          "internalType": "uint8",
          "name": "candy",
          "type": "uint8"
        }
      ],
      "stateMutability": "view",
      "type": "function"
    },
    {
      "inputs": [
        {
          "internalType": "address",
          "name": "proxyAddress",
          "type": "address"
        }
      ],
      "name": "flipProxyState",
      "outputs": [],
      "stateMutability": "nonpayable",
      "type": "function"
    },
    {
      "inputs": [
        {
          "internalType": "uint256",
          "name": "tokenId",
          "type": "uint256"
        }
      ],
      "name": "getApproved",
      "outputs": [
        {
          "internalType": "address",
          "name": "",
          "type": "address"
        }
      ],
      "stateMutability": "view",
      "type": "function"
    },
    {
      "inputs": [
        {
          "internalType": "address",
          "name": "owner",
          "type": "address"
        },
        {
          "internalType": "address",
          "name": "operator",
          "type": "address"
        }
      ],
      "name": "isApprovedForAll",
      "outputs": [
        {
          "internalType": "bool",
          "name": "",
          "type": "bool"
        }
      ],
      "stateMutability": "view",
      "type": "function"
    },
    {
      "inputs": [],
      "name": "isPublicSaleOpen",
      "outputs": [
        {
          "internalType": "bool",
          "name": "",
          "type": "bool"
        }
      ],
      "stateMutability": "view",
      "type": "function"
    },
    {
      "inputs": [],
      "name": "looksrare",
      "outputs": [
        {
          "internalType": "address",
          "name": "",
          "type": "address"
        }
      ],
      "stateMutability": "view",
      "type": "function"
    },
    {
      "inputs": [],
      "name": "marketplacesApproved",
      "outputs": [
        {
          "internalType": "bool",
          "name": "",
          "type": "bool"
        }
      ],
      "stateMutability": "view",
      "type": "function"
    },
    {
      "inputs": [],
      "name": "maxDreamersMintPublicSale",
      "outputs": [
        {
          "internalType": "uint256",
          "name": "",
          "type": "uint256"
        }
      ],
      "stateMutability": "view",
      "type": "function"
    },
    {
      "inputs": [
        {
          "internalType": "bytes",
          "name": "tokenIds",
          "type": "bytes"
        },
        {
          "internalType": "bytes",
          "name": "ownerTokenIndexes",
          "type": "bytes"
        }
      ],
      "name": "mintBatchPublicSale",
      "outputs": [
        {
          "internalType": "bool",
          "name": "",
          "type": "bool"
        }
      ],
      "stateMutability": "payable",
      "type": "function"
    },
    {
      "inputs": [
        {
          "internalType": "bytes",
          "name": "tokenIds",
          "type": "bytes"
        },
        {
          "internalType": "bytes",
          "name": "ownerTokenIndexes",
          "type": "bytes"
        },
        {
          "internalType": "bytes",
          "name": "candyIdsBytes",
          "type": "bytes"
        },
        {
          "internalType": "uint256[]",
          "name": "candyIds",
          "type": "uint256[]"
        },
        {
          "internalType": "uint256[]",
          "name": "candyAmounts",
          "type": "uint256[]"
        }
      ],
      "name": "mintBatchRunnersAccess",
      "outputs": [
        {
          "internalType": "bool",
          "name": "",
          "type": "bool"
        }
      ],
      "stateMutability": "nonpayable",
      "type": "function"
    },
    {
      "inputs": [],
      "name": "name",
      "outputs": [
        {
          "internalType": "string",
          "name": "",
          "type": "string"
        }
      ],
      "stateMutability": "view",
      "type": "function"
    },
    {
      "inputs": [],
      "name": "opensea",
      "outputs": [
        {
          "internalType": "address",
          "name": "",
          "type": "address"
        }
      ],
      "stateMutability": "view",
      "type": "function"
    },
    {
      "inputs": [],
      "name": "owner",
      "outputs": [
        {
          "internalType": "address",
          "name": "",
          "type": "address"
        }
      ],
      "stateMutability": "view",
      "type": "function"
    },
    {
      "inputs": [
        {
          "internalType": "uint256",
          "name": "tokenId",
          "type": "uint256"
        }
      ],
      "name": "ownerOf",
      "outputs": [
        {
          "internalType": "address",
          "name": "",
          "type": "address"
        }
      ],
      "stateMutability": "view",
      "type": "function"
    },
    {
      "inputs": [],
      "name": "publicSaleStartTimestamp",
      "outputs": [
        {
          "internalType": "uint256",
          "name": "",
          "type": "uint256"
        }
      ],
      "stateMutability": "view",
      "type": "function"
    },
    {
      "inputs": [],
      "name": "renderingContractAddress",
      "outputs": [
        {
          "internalType": "address",
          "name": "",
          "type": "address"
        }
      ],
      "stateMutability": "view",
      "type": "function"
    },
    {
      "inputs": [],
      "name": "renounceOwnership",
      "outputs": [],
      "stateMutability": "nonpayable",
      "type": "function"
    },
    {
      "inputs": [
        {
          "internalType": "address",
          "name": "from",
          "type": "address"
        },
        {
          "internalType": "address",
          "name": "to",
          "type": "address"
        },
        {
          "internalType": "uint256",
          "name": "tokenId",
          "type": "uint256"
        }
      ],
      "name": "safeTransferFrom",
      "outputs": [],
      "stateMutability": "nonpayable",
      "type": "function"
    },
    {
      "inputs": [
        {
          "internalType": "address",
          "name": "from",
          "type": "address"
        },
        {
          "internalType": "address",
          "name": "to",
          "type": "address"
        },
        {
          "internalType": "uint256",
          "name": "tokenId",
          "type": "uint256"
        },
        {
          "internalType": "bytes",
          "name": "_data",
          "type": "bytes"
        }
      ],
      "name": "safeTransferFrom",
      "outputs": [],
      "stateMutability": "nonpayable",
      "type": "function"
    },
    {
      "inputs": [
        {
          "internalType": "address",
          "name": "operator",
          "type": "address"
        },
        {
          "internalType": "bool",
          "name": "approved",
          "type": "bool"
        }
      ],
      "name": "setApprovalForAll",
      "outputs": [],
      "stateMutability": "nonpayable",
      "type": "function"
    },
    {
      "inputs": [
        {
          "internalType": "address",
          "name": "_candyShopContractAddress",
          "type": "address"
        }
      ],
      "name": "setCandyShopAddress",
      "outputs": [],
      "stateMutability": "nonpayable",
      "type": "function"
    },
    {
      "inputs": [
        {
          "internalType": "address",
          "name": "_chainRunnersContractAddress",
          "type": "address"
        }
      ],
      "name": "setChainRunnersContractAddress",
      "outputs": [],
      "stateMutability": "nonpayable",
      "type": "function"
    },
    {
      "inputs": [
        {
          "internalType": "address",
          "name": "looksrare_",
          "type": "address"
        }
      ],
      "name": "setLooksrare",
      "outputs": [],
      "stateMutability": "nonpayable",
      "type": "function"
    },
    {
      "inputs": [
        {
          "internalType": "uint256",
          "name": "_maxDreamersMintPublicSale",
          "type": "uint256"
        }
      ],
      "name": "setMaxDreamersMintPublicSale",
      "outputs": [],
      "stateMutability": "nonpayable",
      "type": "function"
    },
    {
      "inputs": [
        {
          "internalType": "address",
          "name": "opensea_",
          "type": "address"
        }
      ],
      "name": "setOpensea",
      "outputs": [],
      "stateMutability": "nonpayable",
      "type": "function"
    },
    {
      "inputs": [
        {
          "internalType": "uint256",
          "name": "timestamp",
          "type": "uint256"
        }
      ],
      "name": "setPublicSaleTimestamp",
      "outputs": [],
      "stateMutability": "nonpayable",
      "type": "function"
    },
    {
      "inputs": [
        {
          "internalType": "address",
          "name": "_renderingContractAddress",
          "type": "address"
        }
      ],
      "name": "setRenderingContractAddress",
      "outputs": [],
      "stateMutability": "nonpayable",
      "type": "function"
    },
    {
      "inputs": [
        {
          "internalType": "bytes4",
          "name": "interfaceId",
          "type": "bytes4"
        }
      ],
      "name": "supportsInterface",
      "outputs": [
        {
          "internalType": "bool",
          "name": "",
          "type": "bool"
        }
      ],
      "stateMutability": "view",
      "type": "function"
    },
    {
      "inputs": [],
      "name": "symbol",
      "outputs": [
        {
          "internalType": "string",
          "name": "",
          "type": "string"
        }
      ],
      "stateMutability": "view",
      "type": "function"
    },
    {
      "inputs": [],
      "name": "toggleMarketplacesApproved",
      "outputs": [],
      "stateMutability": "nonpayable",
      "type": "function"
    },
    {
      "inputs": [
        {
          "internalType": "uint256",
          "name": "index",
          "type": "uint256"
        }
      ],
      "name": "tokenByIndex",
      "outputs": [
        {
          "internalType": "uint256",
          "name": "",
          "type": "uint256"
        }
      ],
      "stateMutability": "view",
      "type": "function"
    },
    {
      "inputs": [
        {
          "internalType": "address",
          "name": "owner",
          "type": "address"
        },
        {
          "internalType": "uint256",
          "name": "index",
          "type": "uint256"
        }
      ],
      "name": "tokenOfOwnerByIndex",
      "outputs": [
        {
          "internalType": "uint256",
          "name": "",
          "type": "uint256"
        }
      ],
      "stateMutability": "view",
      "type": "function"
    },
    {
      "inputs": [
        {
          "internalType": "uint256",
          "name": "_tokenId",
          "type": "uint256"
        }
      ],
      "name": "tokenURI",
      "outputs": [
        {
          "internalType": "string",
          "name": "",
          "type": "string"
        }
      ],
      "stateMutability": "view",
      "type": "function"
    },
    {
      "inputs": [],
      "name": "totalSupply",
      "outputs": [
        {
          "internalType": "uint256",
          "name": "",
          "type": "uint256"
        }
      ],
      "stateMutability": "view",
      "type": "function"
    },
    {
      "inputs": [
        {
          "internalType": "address",
          "name": "from",
          "type": "address"
        },
        {
          "internalType": "address",
          "name": "to",
          "type": "address"
        },
        {
          "internalType": "uint256",
          "name": "tokenId",
          "type": "uint256"
        }
      ],
      "name": "transferFrom",
      "outputs": [],
      "stateMutability": "nonpayable",
      "type": "function"
    },
    {
      "inputs": [
        {
          "internalType": "address",
          "name": "newOwner",
          "type": "address"
        }
      ],
      "name": "transferOwnership",
      "outputs": [],
      "stateMutability": "nonpayable",
      "type": "function"
    },
    {
      "inputs": [],
      "name": "withdraw",
      "outputs": [],
      "stateMutability": "nonpayable",
      "type": "function"
    },
    {
      "stateMutability": "payable",
      "type": "receive"
    }
  ],
  "transactionHash": "0xadc2061dd5a96d6b58a69c964f48f2dafaf476a63bd691a07253b89fa16ada5e",
  "args": [
    "Chain Dreamers",
    "DRE"
  ],
  "numDeployments": 3,
  "solcInputHash": "63519b101941059542759d2182eb6c68",
  "bytecode": "0x60806040526014805460ff60a01b1916600160a01b1790553480156200002457600080fd5b5060405162005132380380620051328339810160408190526200004791620002d9565b81518290829062000060906000906020850190620000f6565b50805162000076906001906020840190620000f6565b505050620000936200008d620000a060201b60201c565b620000a4565b50506001600c556200039c565b3390565b600b80546001600160a01b038381166001600160a01b0319831681179093556040519116919082907f8be0079c531659141344cd1fd0a4f28419497f9722a3daafe3b4186f6b6457e090600090a35050565b82805462000104906200036b565b90600052602060002090601f01602090048101928262000128576000855562000173565b82601f106200014357805160ff191683800117855562000173565b8280016001018555821562000173579182015b828111156200017357825182559160200191906001019062000156565b506200018192915062000185565b5090565b5b8082111562000181576000815560010162000186565b634e487b7160e01b600052604160045260246000fd5b601f19601f83011681016001600160401b0381118282101715620001da57620001da6200019c565b6040525050565b6000620001ed60405190565b9050620001fb8282620001b2565b919050565b60006001600160401b038211156200021c576200021c6200019c565b601f19601f83011660200192915050565b60005b838110156200024a57818101518382015260200162000230565b838111156200025a576000848401525b50505050565b600062000277620002718462000200565b620001e1565b905082815260208101848484011115620002945762000294600080fd5b620002a18482856200022d565b509392505050565b600082601f830112620002bf57620002bf600080fd5b8151620002d184826020860162000260565b949350505050565b60008060408385031215620002f157620002f1600080fd5b82516001600160401b038111156200030c576200030c600080fd5b6200031a85828601620002a9565b602085015190935090506001600160401b038111156200033d576200033d600080fd5b6200034b85828601620002a9565b9150509250929050565b634e487b7160e01b600052602260045260246000fd5b6002810460018216806200038057607f821691505b6020821081141562000396576200039662000355565b50919050565b614d8680620003ac6000396000f3fe6080604052600436106102e05760003560e01c80636b318e6e11610184578063b5fcb339116100d6578063d3d6005b1161008a578063f2fde38b11610064578063f2fde38b146107e5578063f73c814b14610805578063fac913231461082557600080fd5b8063d3d6005b1461078f578063d7822c99146107af578063e985e9c5146107c557600080fd5b8063b88d4fde116100bb578063b88d4fde1461072f578063c074f4121461074f578063c87b56dd1461076f57600080fd5b8063b5fcb339146106ef578063b776c8a61461070f57600080fd5b80638da5cb5b116101385780639c51792a116101125780639c51792a14610694578063a22cb465146106af578063a8e90b57146106cf57600080fd5b80638da5cb5b1461064157806395a97a631461065f57806395d89b411461067f57600080fd5b8063715018a611610169578063715018a6146105ec57806382503c91146106015780638392d8041461062157600080fd5b80636b318e6e146105b657806370a08231146105cc57600080fd5b80631e8858fb1161023d5780633ccfd60b116101f1578063511a9605116101cb578063511a960514610556578063511ed382146105765780636352211e1461059657600080fd5b80633ccfd60b1461050157806342842e0e146105165780634f6ccce71461053657600080fd5b80632a133e35116102225780632a133e35146104b95780632f745c59146104cc57806333c12e17146104ec57600080fd5b80631e8858fb1461047957806323b872dd1461049957600080fd5b8063095ea7b31161029457806312b40a9f1161027957806312b40a9f1461042257806318160ddd146104425780631a6949e31461046457600080fd5b8063095ea7b3146103e05780630d77c7561461040257600080fd5b806306fdde03116102c557806306fdde031461035457806307c5bde314610376578063081812fc146103b357600080fd5b806301ffc9a7146102ec578063026ae1021461032257600080fd5b366102e757005b600080fd5b3480156102f857600080fd5b5061030c6103073660046131ba565b610845565b60405161031991906131e5565b60405180910390f35b34801561032e57600080fd5b5060145461030c9074010000000000000000000000000000000000000000900460ff1681565b34801561036057600080fd5b506103696108a1565b6040516103199190613251565b34801561038257600080fd5b506103a6610391366004613273565b60066020526000908152604090205460ff1681565b604051610319919061329d565b3480156103bf57600080fd5b506103d36103ce366004613273565b610933565b60405161031991906132c5565b3480156103ec57600080fd5b506104006103fb3660046132e7565b610995565b005b34801561040e57600080fd5b5061040061041d366004613273565b610a1b565b34801561042e57600080fd5b5061040061043d366004613324565b610a4a565b34801561044e57600080fd5b50610457610aa0565b604051610319919061334b565b34801561047057600080fd5b5061030c610ac1565b34801561048557600080fd5b50610400610494366004613324565b610ad8565b3480156104a557600080fd5b506104006104b4366004613359565b610b24565b61030c6104c73660046133fb565b610b55565b3480156104d857600080fd5b506104576104e73660046132e7565b610c39565b3480156104f857600080fd5b50610400610d25565b34801561050d57600080fd5b50610400610d9c565b34801561052257600080fd5b50610400610531366004613359565b610e31565b34801561054257600080fd5b50610457610551366004613273565b610e50565b34801561056257600080fd5b50610400610571366004613273565b610e92565b34801561058257600080fd5b506013546103d3906001600160a01b031681565b3480156105a257600080fd5b506103d36105b1366004613273565b610ec1565b3480156105c257600080fd5b5061045760165481565b3480156105d857600080fd5b506104576105e7366004613324565b610efb565b3480156105f857600080fd5b50610400610f43565b34801561060d57600080fd5b5061040061061c366004613601565b610f79565b34801561062d57600080fd5b50600f546103d3906001600160a01b031681565b34801561064d57600080fd5b50600b546001600160a01b03166103d3565b34801561066b57600080fd5b5061030c61067a366004613701565b611249565b34801561068b57600080fd5b50610369611513565b3480156106a057600080fd5b50610457666a94d74f43000081565b3480156106bb57600080fd5b506104006106ca366004613828565b611522565b3480156106db57600080fd5b506014546103d3906001600160a01b031681565b3480156106fb57600080fd5b5061040061070a366004613324565b611531565b34801561071b57600080fd5b5061040061072a366004613324565b611587565b34801561073b57600080fd5b5061040061074a3660046138f2565b6115d3565b34801561075b57600080fd5b50600d546103d3906001600160a01b031681565b34801561077b57600080fd5b5061036961078a366004613273565b61160b565b34801561079b57600080fd5b506104006107aa366004613324565b611724565b3480156107bb57600080fd5b5061045760175481565b3480156107d157600080fd5b5061030c6107e0366004613965565b61177a565b3480156107f157600080fd5b50610400610800366004613324565b6118ed565b34801561081157600080fd5b50610400610820366004613324565b611946565b34801561083157600080fd5b50600e546103d3906001600160a01b031681565b60007fffffffff0000000000000000000000000000000000000000000000000000000082167f780e9d6300000000000000000000000000000000000000000000000000000000148061089b575061089b82611999565b92915050565b6060600080546108b0906139ae565b80601f01602080910402602001604051908101604052809291908181526020018280546108dc906139ae565b80156109295780601f106108fe57610100808354040283529160200191610929565b820191906000526020600020905b81548152906001019060200180831161090c57829003601f168201915b5050505050905090565b61ffff81166000908152600260205260408120546001600160a01b03166109755760405162461bcd60e51b815260040161096c90613a35565b60405180910390fd5b5061ffff166000908152600460205260409020546001600160a01b031690565b60006109a082610ec1565b9050806001600160a01b0316836001600160a01b031614156109d45760405162461bcd60e51b815260040161096c90613a9d565b336001600160a01b03821614806109f057506109f0813361177a565b610a0c5760405162461bcd60e51b815260040161096c90613b05565b610a168383611a7c565b505050565b600b546001600160a01b03163314610a455760405162461bcd60e51b815260040161096c90613b47565b601655565b600b546001600160a01b03163314610a745760405162461bcd60e51b815260040161096c90613b47565b600d80546001600160a01b039092166001600160a01b0319928316811790915560108054909216179055565b6000600260098054610ab1906139ae565b610abc929150613b83565b905090565b600060175442118015610abc575050601754151590565b600b546001600160a01b03163314610b025760405162461bcd60e51b815260040161096c90613b47565b601480546001600160a01b0319166001600160a01b0392909216919091179055565b610b2e3382611aed565b610b4a5760405162461bcd60e51b815260040161096c90613bf3565b610a16838383611b8c565b60006002600c541415610b7a5760405162461bcd60e51b815260040161096c90613c35565b6002600c55610b87610ac1565b610ba35760405162461bcd60e51b815260040161096c90613c77565b34666a94d74f430000610bb7600287613b83565b610bc19190613c87565b14610bde5760405162461bcd60e51b815260040161096c90613cd8565b601654610bec600286613b83565b610bf533610efb565b610bff9190613ce8565b1115610c1d5760405162461bcd60e51b815260040161096c90613d58565b610c2a3386868686611cf5565b50600180600c55949350505050565b6000610c4483610efb565b8210610c625760405162461bcd60e51b815260040161096c90613dc0565b6001600160a01b03831660009081526007602052604090208054610d1a9190610c8a906139ae565b80601f0160208091040260200160405190810160405280929190818152602001828054610cb6906139ae565b8015610d035780601f10610cd857610100808354040283529160200191610d03565b820191906000526020600020905b815481529060010190602001808311610ce657829003601f168201915b5050505050836002610d159190613c87565b611fdc565b61ffff169392505050565b600b546001600160a01b03163314610d4f5760405162461bcd60e51b815260040161096c90613b47565b601480547fffffffffffffffffffffff00ffffffffffffffffffffffffffffffffffffffff8116740100000000000000000000000000000000000000009182900460ff1615909102179055565b600b546001600160a01b03163314610dc65760405162461bcd60e51b815260040161096c90613b47565b604051600090339047908381818185875af1925050503d8060008114610e08576040519150601f19603f3d011682016040523d82523d6000602084013e610e0d565b606091505b5050905080610e2e5760405162461bcd60e51b815260040161096c90613e02565b50565b610a1683838361ffff16604051806020016040528060008152506115d3565b6000610e5a610aa0565b8210610e785760405162461bcd60e51b815260040161096c90613e6a565b610e8860098054610c8a906139ae565b61ffff1692915050565b600b546001600160a01b03163314610ebc5760405162461bcd60e51b815260040161096c90613b47565b601755565b61ffff81166000908152600260205260408120546001600160a01b03168061089b5760405162461bcd60e51b815260040161096c90613ed2565b60006001600160a01b038216610f235760405162461bcd60e51b815260040161096c90613f3a565b506001600160a01b031660009081526003602052604090205461ffff1690565b600b546001600160a01b03163314610f6d5760405162461bcd60e51b815260040161096c90613b47565b610f776000612012565b565b6002600c541415610f9c5760405162461bcd60e51b815260040161096c90613c35565b6002600c55600b546001600160a01b03163314610fcb5760405162461bcd60e51b815260040161096c90613b47565b6000828433424489604051602001610fe896959493929190614010565b60405160208183030381529060405280519060200120905060005b84518110156111715760006001600160a01b03166002600087848151811061102d5761102d614066565b60209081029190910181015161ffff168252810191909152604001600020546001600160a01b0316146110725760405162461bcd60e51b815260040161096c906140ae565b856002600087848151811061108957611089614066565b602002602001015161ffff1661ffff16815260200190815260200160002060006101000a8154816001600160a01b0302191690836001600160a01b03160217905550604051806020016040528060048684815181106110ea576110ea614066565b60200260200101516110fc91906140be565b61110e906103fc600087901a166140d9565b60ff168152506006600087848151811061112a5761112a614066565b60209081029190910181015161ffff1682528101919091526040016000209051815460ff191660ff90911617905560019190911c9080611169816140fa565b915050611003565b5083516001600160a01b038616600090815260036020526040812080549091906111a090849061ffff16614115565b825461ffff9182166101009390930a9283029190920219909116179055506011546040517f6b20c4540000000000000000000000000000000000000000000000000000000081526001600160a01b0390911690636b20c4549061120b90889087908790600401614176565b600060405180830381600087803b15801561122557600080fd5b505af1158015611239573d6000803e3d6000fd5b50506001600c5550505050505050565b60006002600c54141561126e5760405162461bcd60e51b815260040161096c90613c35565b6002600c558584146112925760405162461bcd60e51b815260040161096c9061420b565b61129d866002613c87565b8a146112bb5760405162461bcd60e51b815260040161096c9061424d565b60005b8a81101561148457336001600160a01b0316601260009054906101000a90046001600160a01b03166001600160a01b0316636352211e6113358f8f8080601f016020809104026020016040519081016040528093929190818152602001838380828437600092019190915250889250611fdc915050565b6040518263ffffffff1660e01b81526004016113519190614276565b60206040518083038186803b15801561136957600080fd5b505afa15801561137d573d6000803e3d6000fd5b505050506040513d601f19601f820116820180604052508101906113a1919061428f565b6001600160a01b0316146113c75760405162461bcd60e51b815260040161096c90614308565b87876113d4600284613b83565b8181106113e3576113e3614066565b919091013560f81c905086866113fa600285613b83565b81811061140957611409614066565b9050602002013560ff16146114305760405162461bcd60e51b815260040161096c9061434a565b838361143d600284613b83565b81811061144c5761144c614066565b905060200201356001146114725760405162461bcd60e51b815260040161096c906143da565b61147d600282613ce8565b90506112be565b50611494338c8c8c8c8c8c612064565b6011546001600160a01b0316636b20c45433878787876040518663ffffffff1660e01b81526004016114ca95949392919061443c565b600060405180830381600087803b1580156114e457600080fd5b505af11580156114f8573d6000803e3d6000fd5b50505050600190506001600c559a9950505050505050505050565b6060600180546108b0906139ae565b61152d338383612386565b5050565b600b546001600160a01b0316331461155b5760405162461bcd60e51b815260040161096c90613b47565b600e80546001600160a01b039092166001600160a01b0319928316811790915560118054909216179055565b600b546001600160a01b031633146115b15760405162461bcd60e51b815260040161096c90613b47565b601380546001600160a01b0319166001600160a01b0392909216919091179055565b6115dd3383611aed565b6115f95760405162461bcd60e51b815260040161096c90613bf3565b61160584848484612429565b50505050565b60606116328261ffff166000908152600260205260409020546001600160a01b0316151590565b61164e5760405162461bcd60e51b815260040161096c906144d5565b600d546001600160a01b031661167257505060408051602081019091526000815290565b60105461ffff83166000908152600660205260409081902090517f48a621a90000000000000000000000000000000000000000000000000000000081526001600160a01b03909216916348a621a9916116d091869190600401614507565b60006040518083038186803b1580156116e857600080fd5b505afa1580156116fc573d6000803e3d6000fd5b505050506040513d6000823e601f3d908101601f1916820160405261089b919081019061457a565b600b546001600160a01b0316331461174e5760405162461bcd60e51b815260040161096c90613b47565b600f80546001600160a01b039092166001600160a01b0319928316811790915560128054909216179055565b60145460009074010000000000000000000000000000000000000000900460ff166117ce57506001600160a01b0382811660009081526005602090815260408083209385168352929052205460ff1661089b565b6013546040517fc45527910000000000000000000000000000000000000000000000000000000081526001600160a01b039091169063c4552791906118179086906004016132c5565b60206040518083038186803b15801561182f57600080fd5b505afa158015611843573d6000803e3d6000fd5b505050506040513d601f19601f82011682018060405250810190611867919061428f565b6001600160a01b0316826001600160a01b0316148061189357506014546001600160a01b038381169116145b806118b657506001600160a01b03821660009081526015602052604090205460ff165b806118e657506001600160a01b0380841660009081526005602090815260408083209386168352929052205460ff165b9392505050565b600b546001600160a01b031633146119175760405162461bcd60e51b815260040161096c90613b47565b6001600160a01b03811661193d5760405162461bcd60e51b815260040161096c9061460d565b610e2e81612012565b600b546001600160a01b031633146119705760405162461bcd60e51b815260040161096c90613b47565b6001600160a01b03166000908152601560205260409020805460ff19811660ff90911615179055565b60007fffffffff0000000000000000000000000000000000000000000000000000000082167f80ac58cd000000000000000000000000000000000000000000000000000000001480611a2c57507fffffffff0000000000000000000000000000000000000000000000000000000082167f5b5e139f00000000000000000000000000000000000000000000000000000000145b8061089b57507f01ffc9a7000000000000000000000000000000000000000000000000000000007fffffffff0000000000000000000000000000000000000000000000000000000083161461089b565b61ffff8116600081815260046020526040902080546001600160a01b0319166001600160a01b038516908117909155611ab482610ec1565b6001600160a01b03167f8c5be1e5ebec7d5bd14f71427d1e84f3dd0314c0f7b2291e5b200ac8c7c3b92560405160405180910390a45050565b61ffff81166000908152600260205260408120546001600160a01b0316611b265760405162461bcd60e51b815260040161096c90614675565b6000611b358361ffff16610ec1565b9050806001600160a01b0316846001600160a01b03161480611b745750836001600160a01b0316611b698461ffff16610933565b6001600160a01b0316145b80611b845750611b84818561177a565b949350505050565b826001600160a01b0316611ba38261ffff16610ec1565b6001600160a01b031614611bc95760405162461bcd60e51b815260040161096c906146dd565b6001600160a01b038216611bef5760405162461bcd60e51b815260040161096c90614745565b611bfa83838361245c565b611c05600082611a7c565b6001600160a01b0383166000908152600360205260408120805460019290611c3290849061ffff16614755565b82546101009290920a61ffff8181021990931691831602179091556001600160a01b03841660009081526003602052604081208054600194509092611c7991859116614115565b82546101009290920a61ffff818102199093169183160217909155821660008181526002602052604080822080546001600160a01b0319166001600160a01b0388811691821790925591519394509092908716917fddf252ad1be2c89b69c2b068fc378daa952ba7f163c4a11628f55a4df523b3ef91a4505050565b6001600160a01b038516611d1b5760405162461bcd60e51b815260040161096c906147a8565b6101008310611d3c5760405162461bcd60e51b815260040161096c90614810565b60008484848433344244604051602001611d5d98979695949392919061482b565b604051602081830303815290604052805190602001209050611d828686868686612c0d565b60005b611d90600286613b83565b811015611ec1576000611de087878080601f016020809104026020016040519081016040528093929190818152602001838380828437600092019190915250610d15925086915060029050613c87565b9050611e078161ffff166000908152600260205260409020546001600160a01b0316151590565b15611e245760405162461bcd60e51b815260040161096c906148b7565b61ffff8116600081815260026020908152604080832080546001600160a01b0319166001600160a01b038e169081179091558151808401835288851a815285855260069093528184209251835460ff191660ff909116179092555160019690961c959091907fddf252ad1be2c89b69c2b068fc378daa952ba7f163c4a11628f55a4df523b3ef908290a45080611eb9816140fa565b915050611d85565b50611ecd6002856148c7565b6001600160a01b03871660009081526003602052604081208054909190611ef990849061ffff16614115565b92506101000a81548161ffff021916908361ffff1602179055508484604051611f239291906148d5565b604051908190038120906001600160a01b038816907f8af827b1e5b28d31f4e58c98834e77a022ec56ea126a1bc51c28f4d24b88a81990600090a3611fb8600087611fa388888080601f01602080910402602001604051908101604052809392919081815260200183838082843760009201829052509250611fdc915050565b60405180602001604052806000815250612ec8565b611fd45760405162461bcd60e51b815260040161096c90614938565b505050505050565b6000611fe9826002613ce8565b835110156120095760405162461bcd60e51b815260040161096c9061497a565b50016002015190565b600b80546001600160a01b038381166001600160a01b0319831681179093556040519116919082907f8be0079c531659141344cd1fd0a4f28419497f9722a3daafe3b4186f6b6457e090600090a35050565b6001600160a01b03871661208a5760405162461bcd60e51b815260040161096c906147a8565b61020085106120ab5760405162461bcd60e51b815260040161096c90614810565b600082828888333442446040516020016120cc98979695949392919061482b565b6040516020818303038152906040528051906020012090506120f18888888888612c0d565b60005b6120ff600288613b83565b81101561227e57600061214f89898080601f016020809104026020016040519081016040528093929190818152602001838380828437600092019190915250610d15925086915060029050613c87565b90506121768161ffff166000908152600260205260409020546001600160a01b0316151590565b156121935760405162461bcd60e51b815260040161096c906148b7565b61ffff811660009081526002602090815260409182902080546001600160a01b0319166001600160a01b038e1617905581519081019091528060048787868181106121e0576121e0614066565b6121f19392013560f81c90506140be565b612203906103fc600088901a166140d9565b60ff90811690915261ffff83166000818152600660205260408082209451855460ff1916941693909317909355905160019590951c9490916001600160a01b038d16917fddf252ad1be2c89b69c2b068fc378daa952ba7f163c4a11628f55a4df523b3ef908290a45080612276816140fa565b9150506120f4565b5061228a6002876148c7565b6001600160a01b038916600090815260036020526040812080549091906122b690849061ffff16614115565b92506101000a81548161ffff021916908361ffff16021790555086866040516122e09291906148d5565b604051908190038120906001600160a01b038a16907f8af827b1e5b28d31f4e58c98834e77a022ec56ea126a1bc51c28f4d24b88a81990600090a3612360600089611fa38a8a8080601f01602080910402602001604051908101604052809392919081815260200183838082843760009201829052509250611fdc915050565b61237c5760405162461bcd60e51b815260040161096c90614938565b5050505050505050565b816001600160a01b0316836001600160a01b031614156123b85760405162461bcd60e51b815260040161096c906149bc565b6001600160a01b0383811660008181526005602090815260408083209487168084529490915290819020805460ff1916851515179055517f17307eab39ab6107e8899845ad3d59bd9653f200f220920489ca2b5937696c319061241c9085906131e5565b60405180910390a3505050565b612434848484611b8c565b61244084848484612ec8565b6116055760405162461bcd60e51b815260040161096c90614938565b6001600160a01b0383166125ab57600060098054612479906139ae565b61ffff8481166000908152600a6020908152604091829020805461ffff191693851693909317909255519193506124ba925060099160f086901b9101614a62565b604051602081830303815290604052600990805190602001906124de9291906130e7565b506001600160a01b03831660009081526007602052604081208054612502906139ae565b905060f01b905060088160405160200161251d929190614a62565b604051602081830303815290604052600890805190602001906125419291906130e7565b506001600160a01b0384166000908152600760209081526040918290209151612571929160f087901b9101614a62565b60408051601f198184030181529181526001600160a01b0386166000908152600760209081529190208251611fd4939192909101906130e7565b6001600160a01b03821661296e5761ffff8082166000908152600a602052604090205460098054919092169161266e916125e4906139ae565b80601f0160208091040260200160405190810160405280929190818152602001828054612610906139ae565b801561265d5780601f106126325761010080835404028352916020019161265d565b820191906000526020600020905b81548152906001019060200180831161264057829003601f168201915b505050505060008361ffff1661301f565b61273b6009805461267e906139ae565b80601f01602080910402602001604051908101604052809291908181526020018280546126aa906139ae565b80156126f75780601f106126cc576101008083540402835291602001916126f7565b820191906000526020600020905b8154815290600101906020018083116126da57829003601f168201915b50505050508360026127099190614115565b61ffff1660028561ffff1660098054612721906139ae565b61272c929150614a81565b6127369190614a81565b61301f565b60405160200161274c929190614aa9565b604051602081830303815290604052600990805190602001906127709291906130e7565b50600061280b60088054612783906139ae565b80601f01602080910402602001604051908101604052809291908181526020018280546127af906139ae565b80156127fc5780601f106127d1576101008083540402835291602001916127fc565b820191906000526020600020905b8154815290600101906020018083116127df57829003601f168201915b50505050508361ffff16611fdc565b6001600160a01b03861660009081526007602052604090208054919250612835916125e4906139ae565b6001600160a01b03861660009081526007602052604090208054612923919061285d906139ae565b80601f0160208091040260200160405190810160405280929190818152602001828054612889906139ae565b80156128d65780601f106128ab576101008083540402835291602001916128d6565b820191906000526020600020905b8154815290600101906020018083116128b957829003601f168201915b50505050508360026128e89190614115565b61ffff1660028561ffff16600760008c6001600160a01b03166001600160a01b031681526020019081526020016000208054612721906139ae565b604051602001612934929190614aa9565b60408051601f198184030181529181526001600160a01b0387166000908152600760209081529190208251611fd4939192909101906130e7565b816001600160a01b0316836001600160a01b031614610a165761ffff8082166000908152600a60205260408120546008805491909316926129b291612783906139ae565b6001600160a01b038616600090815260076020526040902080549192506129dc916125e4906139ae565b6001600160a01b03861660009081526007602052604090208054612a04919061285d906139ae565b604051602001612a15929190614aa9565b60408051601f198184030181529181526001600160a01b0387166000908152600760209081529190208251612a4f939192909101906130e7565b506001600160a01b03841660009081526007602052604081208054612a73906139ae565b905060f01b905060076000866001600160a01b03166001600160a01b031681526020019081526020016000208460f01b604051602001612ab4929190614a62565b60408051601f198184030181529181526001600160a01b0387166000908152600760209081529190208251612aee939192909101906130e7565b508060001a60f81b60088461ffff168154612b08906139ae565b8110612b1657612b16614066565b815460011615612b355790600052602060002090602091828204019190065b601f036101000a81548160ff021916907f01000000000000000000000000000000000000000000000000000000000000008404021790555080600160028110612b8057612b80614066565b1a60f81b6008612b91856001614115565b61ffff168154612ba0906139ae565b8110612bae57612bae614066565b815460011615612bcd5790600052602060002090602091828204019190065b601f036101000a81548160ff021916907f010000000000000000000000000000000000000000000000000000000000000084040217905550505050505050565b6000612c4e83838080601f01602080910402602001604051908101604052809392919081815260200183838082843760009201829052509250611fdc915050565b9050838214612c6f5760405162461bcd60e51b815260040161096c90614b17565b612c7a816002614b27565b6001600160a01b0387166000908152600760205260409020805461ffff9290921691612ca5906139ae565b905014612cc45760405162461bcd60e51b815260040161096c90614bcd565b60088383604051602001612cda93929190614bdd565b60405160208183030381529060405260089080519060200190612cfe9291906130e7565b506001600160a01b0386166000908152600760209081526040918290209151612d2c92918891889101614bdd565b60408051601f198184030181529181526001600160a01b0388166000908152600760209081529190208251612d66939192909101906130e7565b50600060098054612d76906139ae565b9050905060005b61ffff8116861115612e8d57612d946002826148c7565b612d9e9084614115565b61ffff16612de686868080601f016020809104026020016040519081016040528093929190818152602001838380828437600092019190915250505061ffff85169050611fdc565b61ffff1614612e075760405162461bcd60e51b815260040161096c90614c4c565b6000612e4d88888080601f016020809104026020016040519081016040528093929190818152602001838380828437600092019190915250505061ffff85169050611fdc565b9050612e598284614115565b61ffff9182166000908152600a60205260409020805461ffff191691909216179055612e86600282614115565b9050612d7d565b5060098686604051602001612ea493929190614bdd565b6040516020818303038152906040526009908051906020019061237c9291906130e7565b60006001600160a01b0384163b15613014576040517f150b7a020000000000000000000000000000000000000000000000000000000081526001600160a01b0385169063150b7a0290612f25903390899088908890600401614c5c565b602060405180830381600087803b158015612f3f57600080fd5b505af1925050508015612f6f575060408051601f3d908101601f19168201909252612f6c91810190614cab565b60015b612fc9573d808015612f9d576040519150601f19603f3d011682016040523d82523d6000602084013e612fa2565b606091505b508051612fc15760405162461bcd60e51b815260040161096c90614938565b805181602001fd5b7fffffffff00000000000000000000000000000000000000000000000000000000167f150b7a0200000000000000000000000000000000000000000000000000000000149050611b84565b506001949350505050565b60608161302d81601f613ce8565b101561304b5760405162461bcd60e51b815260040161096c90614cfe565b6130558284613ce8565b845110156130755760405162461bcd60e51b815260040161096c90614d40565b60608215801561309457604051915060008252602082016040526130de565b6040519150601f8416801560200281840101858101878315602002848b0101015b818310156130cd5780518352602092830192016130b5565b5050858452601f01601f1916604052505b50949350505050565b8280546130f3906139ae565b90600052602060002090601f016020900481019282613115576000855561315b565b82601f1061312e57805160ff191683800117855561315b565b8280016001018555821561315b579182015b8281111561315b578251825591602001919060010190613140565b5061316792915061316b565b5090565b5b80821115613167576000815560010161316c565b7fffffffff0000000000000000000000000000000000000000000000000000000081165b8114610e2e57600080fd5b803561089b81613180565b6000602082840312156131cf576131cf600080fd5b6000611b8484846131af565b8015155b82525050565b6020810161089b82846131db565b60005b8381101561320e5781810151838201526020016131f6565b838111156116055750506000910152565b6000613229825190565b8084526020840193506132408185602086016131f3565b601f01601f19169290920192915050565b602080825281016118e6818461321f565b806131a4565b803561089b81613262565b60006020828403121561328857613288600080fd5b6000611b848484613268565b60ff81166131df565b6020810161089b8284613294565b60006001600160a01b03821661089b565b6131df816132ab565b6020810161089b82846132bc565b6131a4816132ab565b803561089b816132d3565b600080604083850312156132fd576132fd600080fd5b600061330985856132dc565b925050602061331a85828601613268565b9150509250929050565b60006020828403121561333957613339600080fd5b6000611b8484846132dc565b806131df565b6020810161089b8284613345565b60008060006060848603121561337157613371600080fd5b600061337d86866132dc565b935050602061338e868287016132dc565b925050604061339f86828701613268565b9150509250925092565b60008083601f8401126133be576133be600080fd5b50813567ffffffffffffffff8111156133d9576133d9600080fd5b6020830191508360018202830111156133f4576133f4600080fd5b9250929050565b6000806000806040858703121561341457613414600080fd5b843567ffffffffffffffff81111561342e5761342e600080fd5b61343a878288016133a9565b9450945050602085013567ffffffffffffffff81111561345c5761345c600080fd5b613468878288016133a9565b95989497509550505050565b634e487b7160e01b600052604160045260246000fd5b601f19601f830116810181811067ffffffffffffffff821117156134b0576134b0613474565b6040525050565b60006134c260405190565b90506134ce828261348a565b919050565b600067ffffffffffffffff8211156134ed576134ed613474565b5060209081020190565b61ffff81166131a4565b803561089b816134f7565b600061351f61351a846134d3565b6134b7565b8381529050602080820190840283018581111561353e5761353e600080fd5b835b81811015613560576135528782613501565b835260209283019201613540565b5050509392505050565b600082601f83011261357e5761357e600080fd5b8135611b8484826020860161350c565b600061359c61351a846134d3565b838152905060208082019084028301858111156135bb576135bb600080fd5b835b81811015613560576135cf8782613268565b8352602092830192016135bd565b600082601f8301126135f1576135f1600080fd5b8135611b8484826020860161358e565b6000806000806080858703121561361a5761361a600080fd5b600061362687876132dc565b945050602085013567ffffffffffffffff81111561364657613646600080fd5b6136528782880161356a565b935050604085013567ffffffffffffffff81111561367257613672600080fd5b61367e878288016135dd565b925050606085013567ffffffffffffffff81111561369e5761369e600080fd5b6136aa878288016135dd565b91505092959194509250565b60008083601f8401126136cb576136cb600080fd5b50813567ffffffffffffffff8111156136e6576136e6600080fd5b6020830191508360208202830111156133f4576133f4600080fd5b60008060008060008060008060008060a08b8d03121561372357613723600080fd5b8a3567ffffffffffffffff81111561373d5761373d600080fd5b6137498d828e016133a9565b9a509a505060208b013567ffffffffffffffff81111561376b5761376b600080fd5b6137778d828e016133a9565b985098505060408b013567ffffffffffffffff81111561379957613799600080fd5b6137a58d828e016133a9565b965096505060608b013567ffffffffffffffff8111156137c7576137c7600080fd5b6137d38d828e016136b6565b945094505060808b013567ffffffffffffffff8111156137f5576137f5600080fd5b6138018d828e016136b6565b92509250509295989b9194979a5092959850565b8015156131a4565b803561089b81613815565b6000806040838503121561383e5761383e600080fd5b600061384a85856132dc565b925050602061331a8582860161381d565b600067ffffffffffffffff82111561387557613875613474565b601f19601f83011660200192915050565b82818337506000910152565b60006138a061351a8461385b565b9050828152602081018484840111156138bb576138bb600080fd5b6138c6848285613886565b509392505050565b600082601f8301126138e2576138e2600080fd5b8135611b84848260208601613892565b6000806000806080858703121561390b5761390b600080fd5b600061391787876132dc565b9450506020613928878288016132dc565b935050604061393987828801613268565b925050606085013567ffffffffffffffff81111561395957613959600080fd5b6136aa878288016138ce565b6000806040838503121561397b5761397b600080fd5b600061398785856132dc565b925050602061331a858286016132dc565b634e487b7160e01b600052602260045260246000fd5b6002810460018216806139c257607f821691505b602082108114156139d5576139d5613998565b50919050565b602c8152602081017f4552433732313a20617070726f76656420717565727920666f72206e6f6e657881527f697374656e7420746f6b656e0000000000000000000000000000000000000000602082015290505b60400190565b6020808252810161089b816139db565b60218152602081017f4552433732313a20617070726f76616c20746f2063757272656e74206f776e6581527f720000000000000000000000000000000000000000000000000000000000000060208201529050613a2f565b6020808252810161089b81613a45565b60388152602081017f4552433732313a20617070726f76652063616c6c6572206973206e6f74206f7781527f6e6572206e6f7220617070726f76656420666f7220616c6c000000000000000060208201529050613a2f565b6020808252810161089b81613aad565b60208082527f4f776e61626c653a2063616c6c6572206973206e6f7420746865206f776e657291019081525b60200190565b6020808252810161089b81613b15565b634e487b7160e01b600052601260045260246000fd5b634e487b7160e01b600052601160045260246000fd5b815b9150600082613b9657613b96613b57565b500490565b60318152602081017f4552433732313a207472616e736665722063616c6c6572206973206e6f74206f81527f776e6572206e6f7220617070726f76656400000000000000000000000000000060208201529050613a2f565b6020808252810161089b81613b9b565b601f8152602081017f5265656e7472616e637947756172643a207265656e7472616e742063616c6c0081529050613b41565b6020808252810161089b81613c03565b60148152602081017f5075626c69632073616c65206e6f74206f70656e00000000000000000000000081529050613b41565b6020808252810161089b81613c45565b6000816000190483118215151615613ca157613ca1613b6d565b500290565b601d8152602081017f596f75206861766520746f2070617920746865206261696c20626f6e6400000081529050613b41565b6020808252810161089b81613ca6565b60008219821115613cfb57613cfb613b6d565b500190565b60318152602081017f596f757220686f6d6520697320746f20736d616c6c20746f2077656c636f6d6581527f20736f206d616e7920647265616d65727300000000000000000000000000000060208201529050613a2f565b6020808252810161089b81613d00565b602b8152602081017f455243373231456e756d657261626c653a206f776e657220696e646578206f7581527f74206f6620626f756e647300000000000000000000000000000000000000000060208201529050613a2f565b6020808252810161089b81613d68565b60118152602081017f5769746864726177616c206661696c656400000000000000000000000000000081529050613b41565b6020808252810161089b81613dd0565b602c8152602081017f455243373231456e756d657261626c653a20676c6f62616c20696e646578206f81527f7574206f6620626f756e6473000000000000000000000000000000000000000060208201529050613a2f565b6020808252810161089b81613e12565b60298152602081017f4552433732313a206f776e657220717565727920666f72206e6f6e657869737481527f656e7420746f6b656e000000000000000000000000000000000000000000000060208201529050613a2f565b6020808252810161089b81613e7a565b602a8152602081017f4552433732313a2062616c616e636520717565727920666f7220746865207a6581527f726f20616464726573730000000000000000000000000000000000000000000060208201529050613a2f565b6020808252810161089b81613ee2565b613f548282613345565b5060200190565b6000613f65825190565b6020830160005b82811015613f91578151613f808782613f4a565b965050602082019150600101613f6c565b5093949350505050565b61ffff81166131df565b613f548282613f9b565b6000613fb9825190565b6020830160005b82811015613f91578151613fd48782613fa5565b965050602082019150600101613fc0565b600061089b8260601b90565b600061089b82613fe5565b6131df614008826132ab565b613ff1565b90565b61401a8188613f5b565b90506140268187613faf565b90506140328186613ffc565b60140161403f8185613345565b60200161404c8184613345565b6020016140598183613ffc565b6014019695505050505050565b634e487b7160e01b600052603260045260246000fd5b60148152602081017f546f6b656e20616c72656164792065786973747300000000000000000000000081529050613b41565b6020808252810161089b8161407c565b60ff91821691166000826140d4576140d4613b57565b500690565b60ff8116905060ff8216915060008260ff03821115613cfb57613cfb613b6d565b600060001982141561410e5761410e613b6d565b5060010190565b61ffff8116905061ffff8216915060008261ffff03821115613cfb57613cfb613b6d565b6000614143825190565b808452602093840193830160005b82811015613f915781516141658782613f4a565b965050602082019150600101614151565b6060810161418482866132bc565b81810360208301526141968185614139565b905081810360408301526141aa8184614139565b95945050505050565b60258152602081017f43616e6479206964732073686f756c642068617665207468652073616d65206c81527f656e67746800000000000000000000000000000000000000000000000000000060208201529050613a2f565b6020808252810161089b816141b3565b601f8152602081017f456163682072756e6e6572206e6565647320697473206f776e2063616e64790081529050613b41565b6020808252810161089b8161421b565b600061089b61400d61ffff841681565b6131df8161425d565b6020810161089b828461426d565b805161089b816132d3565b6000602082840312156142a4576142a4600080fd5b6000611b848484614284565b60378152602081017f596f752063616e6e6f7420676976652063616e6469657320746f20612072756e81527f6e6572207468617420796f7520646f206e6f74206f776e00000000000000000060208201529050613a2f565b6020808252810161089b816142b0565b601c8152602081017f43616e6479206964732073686f756c64206265207468652073616d650000000081529050613b41565b6020808252810161089b81614318565b604f8152602081017f596f75722072756e6e6572206e65656473206f6e6520616e64206f6e6c79206f81527f6e652063616e64792c2077686f206b6e6f7773207768617420636f756c64206860208201527f617070656e206f74686572776973650000000000000000000000000000000000604082015290505b60600190565b6020808252810161089b8161435a565b81835260208301925060007f07ffffffffffffffffffffffffffffffffffffffffffffffffffffffffffffff83111561442557614425600080fd5b602083029250614436838584613886565b50500190565b6060810161444a82886132bc565b818103602083015261445d8186886143ea565b905081810360408301526144728184866143ea565b979650505050505050565b60278152602081017f4552433732313a2055524920717565727920666f72206e6f6e6578697374656e81527f7420746f6b656e0000000000000000000000000000000000000000000000000060208201529050613a2f565b6020808252810161089b8161447d565b600060ff821661089b565b80546144fb816144e5565b9050610a168382613294565b604081016145158285613345565b6118e660208301846144f0565b600061453061351a8461385b565b90508281526020810184848401111561454b5761454b600080fd5b6138c68482856131f3565b600082601f83011261456a5761456a600080fd5b8151611b84848260208601614522565b60006020828403121561458f5761458f600080fd5b815167ffffffffffffffff8111156145a9576145a9600080fd5b611b8484828501614556565b60268152602081017f4f776e61626c653a206e6577206f776e657220697320746865207a65726f206181527f646472657373000000000000000000000000000000000000000000000000000060208201529050613a2f565b6020808252810161089b816145b5565b602c8152602081017f4552433732313a206f70657261746f7220717565727920666f72206e6f6e657881527f697374656e7420746f6b656e000000000000000000000000000000000000000060208201529050613a2f565b6020808252810161089b8161461d565b60298152602081017f4552433732313a207472616e73666572206f6620746f6b656e2074686174206981527f73206e6f74206f776e000000000000000000000000000000000000000000000060208201529050613a2f565b6020808252810161089b81614685565b60248152602081017f4552433732313a207472616e7366657220746f20746865207a65726f2061646481527f726573730000000000000000000000000000000000000000000000000000000060208201529050613a2f565b6020808252810161089b816146ed565b61ffff9081169082165b915060008282101561477357614773613b6d565b500390565b60208082527f4552433732313a206d696e7420746f20746865207a65726f20616464726573739101908152613b41565b6020808252810161089b81614778565b60328152602081017f596f752063616e206d696e74206279206261746368657320757020746f20323581527f3620746f6b656e7320617420612074696d65000000000000000000000000000060208201529050613a2f565b6020808252810161089b816147b8565b613cfb828483613886565b61483681898b614820565b9050614843818789614820565b905061484f8186613ffc565b60140161485c8185613345565b6020016148698184613345565b6020016148768183613345565b60200198975050505050505050565b601c8152602081017f4552433732313a20746f6b656e20616c7265616479206d696e7465640000000081529050613b41565b6020808252810161089b81614885565b61ffff908116908216613b85565b6118e6818385614820565b60328152602081017f4552433732313a207472616e7366657220746f206e6f6e20455243373231526581527f63656976657220696d706c656d656e746572000000000000000000000000000060208201529050613a2f565b6020808252810161089b816148e0565b60148152602081017f746f55696e7431365f6f75744f66426f756e647300000000000000000000000081529050613b41565b6020808252810161089b81614948565b60198152602081017f4552433732313a20617070726f766520746f2063616c6c65720000000000000081529050613b41565b6020808252810161089b8161498a565b600081546149d9816139ae565b6001821680156149f05760018114614a0157614a31565b60ff19831686528186019350614a31565b60008581526020902060005b83811015614a2957815488820152600190910190602001614a0d565b505081860193505b50505092915050565b7fffff00000000000000000000000000000000000000000000000000000000000081166131df565b614a6c81846149cc565b9050614a788183614a3a565b60020192915050565b8161475f565b6000614a91825190565b614a9f8185602086016131f3565b9290920192915050565b614ab38184614a87565b90506118e68183614a87565b60328152602081017f6f776e6572496e6465786573206d7573742068617665207468652073616d652081527f6c656e67746820617320746f6b656e496473000000000000000000000000000060208201529050613a2f565b6020808252810161089b81614abf565b61ffff8116905061ffff8216915060008161ffff0483118215151615613ca157613ca1613b6d565b60458152602081017f54686520676976656e206f776e6572546f6b656e496e646578657320646f206e81527f6f742073746172742066726f6d207468652063757272656e74206f776e65722060208201527f636f756e74000000000000000000000000000000000000000000000000000000604082015290506143d4565b6020808252810161089b81614b4f565b614be781856149cc565b9050611b84818385614820565b60248152602081017f6f776e6572546f6b656e496e6465786573206d7573742062652061207365717581527f656e63650000000000000000000000000000000000000000000000000000000060208201529050613a2f565b6020808252810161089b81614bf4565b60808101614c6a82876132bc565b614c7760208301866132bc565b614c84604083018561426d565b8181036060830152614c96818461321f565b9695505050505050565b805161089b81613180565b600060208284031215614cc057614cc0600080fd5b6000611b848484614ca0565b600e8152602081017f736c6963655f6f766572666c6f7700000000000000000000000000000000000081529050613b41565b6020808252810161089b81614ccc565b60118152602081017f736c6963655f6f75744f66426f756e647300000000000000000000000000000081529050613b41565b6020808252810161089b81614d0e56fea2646970667358221220d119b1b441fcd8fab64e7adf11c7e1409c29a029b4022b28a754ac5b751649c064736f6c63430008080033",
  "devdoc": {
    "kind": "dev",
    "methods": {
      "approve(address,uint256)": {
        "details": "See {IERC721-approve}."
      },
      "balanceOf(address)": {
        "details": "See {IERC721-balanceOf}."
      },
      "getApproved(uint256)": {
        "details": "See {IERC721-getApproved}."
      },
      "isApprovedForAll(address,address)": {
        "details": "Modified for opensea and looksrare pre-approve so users can make truly gas less sales."
      },
      "mintBatchRunnersAccess(bytes,bytes,bytes,uint256[],uint256[])": {
        "params": {
          "candyAmounts": "should be an array of 1",
          "candyIds": "the same indexes as above but as a uint8 array",
          "candyIdsBytes": "a bytes interpreted as an array of uint8",
          "ownerTokenIndexes": "a bytes interpreted as an array of uint16. Given here to avoid indexes computation and save gas",
          "tokenIds": "a bytes interpreted as an array of uint16"
        }
      },
      "name()": {
        "details": "See {IERC721Metadata-name}."
      },
      "owner()": {
        "details": "Returns the address of the current owner."
      },
      "ownerOf(uint256)": {
        "details": "See {IERC721-ownerOf}."
      },
      "renounceOwnership()": {
        "details": "Leaves the contract without owner. It will not be possible to call `onlyOwner` functions anymore. Can only be called by the current owner. NOTE: Renouncing ownership will leave the contract without an owner, thereby removing any functionality that is only available to the owner."
      },
      "safeTransferFrom(address,address,uint256)": {
        "details": "See {IERC721-safeTransferFrom}."
      },
      "safeTransferFrom(address,address,uint256,bytes)": {
        "details": "See {IERC721-safeTransferFrom}."
      },
      "setApprovalForAll(address,bool)": {
        "details": "See {IERC721-setApprovalForAll}."
      },
      "supportsInterface(bytes4)": {
        "details": "See {IERC165-supportsInterface}."
      },
      "symbol()": {
        "details": "See {IERC721Metadata-symbol}."
      },
      "tokenByIndex(uint256)": {
        "details": "See {IERC721Enumerable-tokenByIndex}."
      },
      "tokenOfOwnerByIndex(address,uint256)": {
        "details": "See {IERC721Enumerable-tokenOfOwnerByIndex}."
      },
      "totalSupply()": {
        "details": "See {IERC721Enumerable-totalSupply}."
      },
      "transferFrom(address,address,uint256)": {
        "details": "See {IERC721-transferFrom}."
      },
      "transferOwnership(address)": {
        "details": "Transfers ownership of the contract to a new account (`newOwner`). Can only be called by the current owner."
      }
    },
    "stateVariables": {
      "opensea": {
        "details": "Copied from ApeRunner's contract"
      }
    },
    "version": 1
  },
  "userdoc": {
    "kind": "user",
    "methods": {
      "airDropBatch(address,uint16[],uint256[],uint256[])": {
        "notice": "Use this to AirDrop the tokens to the owner instead of minting them for lower gas costs."
      },
      "flipProxyState(address)": {
        "notice": "Approve the communication and interaction with cross-collection interactions."
      },
      "looksrare()": {
        "notice": "LooksRare marketplace transfer manager."
      },
      "marketplacesApproved()": {
        "notice": "Check if marketplaces pre-approve is enabled."
      },
      "opensea()": {
        "notice": "OpenSea proxy registry."
      },
      "setLooksrare(address)": {
        "notice": "Set looksrare to `looksrare_`."
      },
      "setOpensea(address)": {
        "notice": "Set opensea to `opensea_`."
      },
      "toggleMarketplacesApproved()": {
        "notice": "Toggle pre-approve feature state for sender."
      }
    },
    "version": 1
  },
  "storageLayout": {
    "storage": [
      {
        "astId": 13280,
        "contract": "contracts/dreamers/ChainDreamers.sol:ChainDreamers",
        "label": "_name",
        "offset": 0,
        "slot": "0",
        "type": "t_string_storage"
      },
      {
        "astId": 13282,
        "contract": "contracts/dreamers/ChainDreamers.sol:ChainDreamers",
        "label": "_symbol",
        "offset": 0,
        "slot": "1",
        "type": "t_string_storage"
      },
      {
        "astId": 13286,
        "contract": "contracts/dreamers/ChainDreamers.sol:ChainDreamers",
        "label": "_owners",
        "offset": 0,
        "slot": "2",
        "type": "t_mapping(t_uint16,t_address)"
      },
      {
        "astId": 13290,
        "contract": "contracts/dreamers/ChainDreamers.sol:ChainDreamers",
        "label": "_balances",
        "offset": 0,
        "slot": "3",
        "type": "t_mapping(t_address,t_uint16)"
      },
      {
        "astId": 13294,
        "contract": "contracts/dreamers/ChainDreamers.sol:ChainDreamers",
        "label": "_tokenApprovals",
        "offset": 0,
        "slot": "4",
        "type": "t_mapping(t_uint16,t_address)"
      },
      {
        "astId": 13300,
        "contract": "contracts/dreamers/ChainDreamers.sol:ChainDreamers",
        "label": "_operatorApprovals",
        "offset": 0,
        "slot": "5",
        "type": "t_mapping(t_address,t_mapping(t_address,t_bool))"
      },
      {
        "astId": 13305,
        "contract": "contracts/dreamers/ChainDreamers.sol:ChainDreamers",
        "label": "dreamers",
        "offset": 0,
        "slot": "6",
        "type": "t_mapping(t_uint256,t_struct(ChainDreamer)4803_storage)"
      },
      {
        "astId": 14420,
        "contract": "contracts/dreamers/ChainDreamers.sol:ChainDreamers",
        "label": "_ownedTokens",
        "offset": 0,
        "slot": "7",
        "type": "t_mapping(t_address,t_bytes_storage)"
      },
      {
        "astId": 14422,
        "contract": "contracts/dreamers/ChainDreamers.sol:ChainDreamers",
        "label": "_ownedTokensIndex",
        "offset": 0,
        "slot": "8",
        "type": "t_bytes_storage"
      },
      {
        "astId": 14424,
        "contract": "contracts/dreamers/ChainDreamers.sol:ChainDreamers",
        "label": "_allTokens",
        "offset": 0,
        "slot": "9",
        "type": "t_bytes_storage"
      },
      {
        "astId": 14428,
        "contract": "contracts/dreamers/ChainDreamers.sol:ChainDreamers",
        "label": "_allTokensIndex",
        "offset": 0,
        "slot": "10",
        "type": "t_mapping(t_uint16,t_uint16)"
      },
      {
        "astId": 225,
        "contract": "contracts/dreamers/ChainDreamers.sol:ChainDreamers",
        "label": "_owner",
        "offset": 0,
        "slot": "11",
        "type": "t_address"
      },
      {
        "astId": 425,
        "contract": "contracts/dreamers/ChainDreamers.sol:ChainDreamers",
        "label": "_status",
        "offset": 0,
        "slot": "12",
        "type": "t_uint256"
      },
      {
        "astId": 4179,
        "contract": "contracts/dreamers/ChainDreamers.sol:ChainDreamers",
        "label": "renderingContractAddress",
        "offset": 0,
        "slot": "13",
        "type": "t_address"
      },
      {
        "astId": 4181,
        "contract": "contracts/dreamers/ChainDreamers.sol:ChainDreamers",
        "label": "candyShopAddress",
        "offset": 0,
        "slot": "14",
        "type": "t_address"
      },
      {
        "astId": 4183,
        "contract": "contracts/dreamers/ChainDreamers.sol:ChainDreamers",
        "label": "chainRunnersAddress",
        "offset": 0,
        "slot": "15",
        "type": "t_address"
      },
      {
        "astId": 4186,
        "contract": "contracts/dreamers/ChainDreamers.sol:ChainDreamers",
        "label": "renderer",
        "offset": 0,
        "slot": "16",
        "type": "t_contract(IDreamersRenderer)8067"
      },
      {
        "astId": 4189,
        "contract": "contracts/dreamers/ChainDreamers.sol:ChainDreamers",
        "label": "candyShop",
        "offset": 0,
        "slot": "17",
        "type": "t_contract(ICandyShop)8015"
      },
      {
        "astId": 4192,
        "contract": "contracts/dreamers/ChainDreamers.sol:ChainDreamers",
        "label": "chainRunners",
        "offset": 0,
        "slot": "18",
        "type": "t_contract(IChainRunners)8032"
      },
      {
        "astId": 4195,
        "contract": "contracts/dreamers/ChainDreamers.sol:ChainDreamers",
        "label": "opensea",
        "offset": 0,
        "slot": "19",
        "type": "t_address"
      },
      {
        "astId": 4198,
        "contract": "contracts/dreamers/ChainDreamers.sol:ChainDreamers",
        "label": "looksrare",
        "offset": 0,
        "slot": "20",
        "type": "t_address"
      },
      {
        "astId": 4202,
        "contract": "contracts/dreamers/ChainDreamers.sol:ChainDreamers",
        "label": "marketplacesApproved",
        "offset": 20,
        "slot": "20",
        "type": "t_bool"
      },
      {
        "astId": 4206,
        "contract": "contracts/dreamers/ChainDreamers.sol:ChainDreamers",
        "label": "proxyToApproved",
        "offset": 0,
        "slot": "21",
        "type": "t_mapping(t_address,t_bool)"
      },
      {
        "astId": 4308,
        "contract": "contracts/dreamers/ChainDreamers.sol:ChainDreamers",
        "label": "maxDreamersMintPublicSale",
        "offset": 0,
        "slot": "22",
        "type": "t_uint256"
      },
      {
        "astId": 4313,
        "contract": "contracts/dreamers/ChainDreamers.sol:ChainDreamers",
        "label": "publicSaleStartTimestamp",
        "offset": 0,
        "slot": "23",
        "type": "t_uint256"
      }
    ],
    "types": {
      "t_address": {
        "encoding": "inplace",
        "label": "address",
        "numberOfBytes": "20"
      },
      "t_bool": {
        "encoding": "inplace",
        "label": "bool",
        "numberOfBytes": "1"
      },
      "t_bytes_storage": {
        "encoding": "bytes",
        "label": "bytes",
        "numberOfBytes": "32"
      },
      "t_contract(ICandyShop)8015": {
        "encoding": "inplace",
        "label": "contract ICandyShop",
        "numberOfBytes": "20"
      },
      "t_contract(IChainRunners)8032": {
        "encoding": "inplace",
        "label": "contract IChainRunners",
        "numberOfBytes": "20"
      },
      "t_contract(IDreamersRenderer)8067": {
        "encoding": "inplace",
        "label": "contract IDreamersRenderer",
        "numberOfBytes": "20"
      },
      "t_mapping(t_address,t_bool)": {
        "encoding": "mapping",
        "key": "t_address",
        "label": "mapping(address => bool)",
        "numberOfBytes": "32",
        "value": "t_bool"
      },
      "t_mapping(t_address,t_bytes_storage)": {
        "encoding": "mapping",
        "key": "t_address",
        "label": "mapping(address => bytes)",
        "numberOfBytes": "32",
        "value": "t_bytes_storage"
      },
      "t_mapping(t_address,t_mapping(t_address,t_bool))": {
        "encoding": "mapping",
        "key": "t_address",
        "label": "mapping(address => mapping(address => bool))",
        "numberOfBytes": "32",
        "value": "t_mapping(t_address,t_bool)"
      },
      "t_mapping(t_address,t_uint16)": {
        "encoding": "mapping",
        "key": "t_address",
        "label": "mapping(address => uint16)",
        "numberOfBytes": "32",
        "value": "t_uint16"
      },
      "t_mapping(t_uint16,t_address)": {
        "encoding": "mapping",
        "key": "t_uint16",
        "label": "mapping(uint16 => address)",
        "numberOfBytes": "32",
        "value": "t_address"
      },
      "t_mapping(t_uint16,t_uint16)": {
        "encoding": "mapping",
        "key": "t_uint16",
        "label": "mapping(uint16 => uint16)",
        "numberOfBytes": "32",
        "value": "t_uint16"
      },
      "t_mapping(t_uint256,t_struct(ChainDreamer)4803_storage)": {
        "encoding": "mapping",
        "key": "t_uint256",
        "label": "mapping(uint256 => struct ChainDreamersTypes.ChainDreamer)",
        "numberOfBytes": "32",
        "value": "t_struct(ChainDreamer)4803_storage"
      },
      "t_string_storage": {
        "encoding": "bytes",
        "label": "string",
        "numberOfBytes": "32"
      },
      "t_struct(ChainDreamer)4803_storage": {
        "encoding": "inplace",
        "label": "struct ChainDreamersTypes.ChainDreamer",
        "members": [
          {
            "astId": 4802,
            "contract": "contracts/dreamers/ChainDreamers.sol:ChainDreamers",
            "label": "candy",
            "offset": 0,
            "slot": "0",
            "type": "t_uint8"
          }
        ],
        "numberOfBytes": "32"
      },
      "t_uint16": {
        "encoding": "inplace",
        "label": "uint16",
        "numberOfBytes": "2"
      },
      "t_uint256": {
        "encoding": "inplace",
        "label": "uint256",
        "numberOfBytes": "32"
      },
      "t_uint8": {
        "encoding": "inplace",
        "label": "uint8",
        "numberOfBytes": "1"
      }
    }
  }
}