{
  "address": "0x9BEc5a69bB95a5F21db45342E5D58C51a42BdcFd",
  "abi": [
    {
      "inputs": [
        {
          "internalType": "string",
          "name": "name_",
          "type": "string"
        },
        {
          "internalType": "string",
          "name": "symbol_",
          "type": "string"
        },
        {
          "internalType": "address",
          "name": "_rendererAddress",
          "type": "address"
        },
        {
          "internalType": "address",
          "name": "_chainRunnersAddress",
          "type": "address"
        },
        {
          "internalType": "address",
          "name": "_opensea",
          "type": "address"
        },
        {
          "internalType": "address",
          "name": "_looksrare",
          "type": "address"
        },
        {
          "internalType": "uint256",
          "name": "_maxDreamersMintPublicSale",
          "type": "uint256"
        }
      ],
      "stateMutability": "nonpayable",
      "type": "constructor"
    },
    {
      "anonymous": false,
      "inputs": [
        {
          "indexed": true,
          "internalType": "address",
          "name": "owner",
          "type": "address"
        },
        {
          "indexed": true,
          "internalType": "address",
          "name": "approved",
          "type": "address"
        },
        {
          "indexed": true,
          "internalType": "uint256",
          "name": "tokenId",
          "type": "uint256"
        }
      ],
      "name": "Approval",
      "type": "event"
    },
    {
      "anonymous": false,
      "inputs": [
        {
          "indexed": true,
          "internalType": "address",
          "name": "owner",
          "type": "address"
        },
        {
          "indexed": true,
          "internalType": "address",
          "name": "operator",
          "type": "address"
        },
        {
          "indexed": false,
          "internalType": "bool",
          "name": "approved",
          "type": "bool"
        }
      ],
      "name": "ApprovalForAll",
      "type": "event"
    },
    {
      "anonymous": false,
      "inputs": [
        {
          "indexed": true,
          "internalType": "address",
          "name": "previousOwner",
          "type": "address"
        },
        {
          "indexed": true,
          "internalType": "address",
          "name": "newOwner",
          "type": "address"
        }
      ],
      "name": "OwnershipTransferred",
      "type": "event"
    },
    {
      "anonymous": false,
      "inputs": [
        {
          "indexed": true,
          "internalType": "address",
          "name": "from",
          "type": "address"
        },
        {
          "indexed": true,
          "internalType": "address",
          "name": "to",
          "type": "address"
        },
        {
          "indexed": true,
          "internalType": "uint256",
          "name": "tokenId",
          "type": "uint256"
        }
      ],
      "name": "Transfer",
      "type": "event"
    },
    {
      "inputs": [],
      "name": "MAX_MINT_FOUNDERS",
      "outputs": [
        {
          "internalType": "uint256",
          "name": "",
          "type": "uint256"
        }
      ],
      "stateMutability": "view",
      "type": "function"
    },
    {
      "inputs": [],
      "name": "MINT_PUBLIC_PRICE",
      "outputs": [
        {
          "internalType": "uint256",
          "name": "",
          "type": "uint256"
        }
      ],
      "stateMutability": "view",
      "type": "function"
    },
    {
      "inputs": [
        {
          "internalType": "address",
          "name": "to",
          "type": "address"
        },
        {
          "internalType": "uint256",
          "name": "tokenId",
          "type": "uint256"
        }
      ],
      "name": "approve",
      "outputs": [],
      "stateMutability": "nonpayable",
      "type": "function"
    },
    {
      "inputs": [
        {
          "internalType": "address",
          "name": "owner",
          "type": "address"
        }
      ],
      "name": "balanceOf",
      "outputs": [
        {
          "internalType": "uint256",
          "name": "",
          "type": "uint256"
        }
      ],
      "stateMutability": "view",
      "type": "function"
    },
    {
      "inputs": [],
      "name": "candyShopAddress",
      "outputs": [
        {
          "internalType": "address",
          "name": "",
          "type": "address"
        }
      ],
      "stateMutability": "view",
      "type": "function"
    },
    {
      "inputs": [],
      "name": "chainRunnersAddress",
      "outputs": [
        {
          "internalType": "address",
          "name": "",
          "type": "address"
        }
      ],
      "stateMutability": "view",
      "type": "function"
    },
    {
      "inputs": [
        {
          "internalType": "uint256",
          "name": "",
          "type": "uint256"
        }
      ],
      "name": "dreamersCandies",
      "outputs": [
        {
          "internalType": "uint8",
          "name": "",
          "type": "uint8"
        }
      ],
      "stateMutability": "view",
      "type": "function"
    },
    {
      "inputs": [
        {
          "internalType": "address",
          "name": "proxyAddress",
          "type": "address"
        }
      ],
      "name": "flipProxyState",
      "outputs": [],
      "stateMutability": "nonpayable",
      "type": "function"
    },
    {
      "inputs": [],
      "name": "foundersMinted",
      "outputs": [
        {
          "internalType": "bool",
          "name": "",
          "type": "bool"
        }
      ],
      "stateMutability": "view",
      "type": "function"
    },
    {
      "inputs": [
        {
          "internalType": "uint256",
          "name": "tokenId",
          "type": "uint256"
        }
      ],
      "name": "getApproved",
      "outputs": [
        {
          "internalType": "address",
          "name": "",
          "type": "address"
        }
      ],
      "stateMutability": "view",
      "type": "function"
    },
    {
      "inputs": [
        {
          "internalType": "address",
          "name": "owner",
          "type": "address"
        },
        {
          "internalType": "address",
          "name": "operator",
          "type": "address"
        }
      ],
      "name": "isApprovedForAll",
      "outputs": [
        {
          "internalType": "bool",
          "name": "",
          "type": "bool"
        }
      ],
      "stateMutability": "view",
      "type": "function"
    },
    {
      "inputs": [],
      "name": "isPublicSaleOpen",
      "outputs": [
        {
          "internalType": "bool",
          "name": "",
          "type": "bool"
        }
      ],
      "stateMutability": "view",
      "type": "function"
    },
    {
      "inputs": [],
      "name": "looksrare",
      "outputs": [
        {
          "internalType": "address",
          "name": "",
          "type": "address"
        }
      ],
      "stateMutability": "view",
      "type": "function"
    },
    {
      "inputs": [],
      "name": "marketplacesApproved",
      "outputs": [
        {
          "internalType": "bool",
          "name": "",
          "type": "bool"
        }
      ],
      "stateMutability": "view",
      "type": "function"
    },
    {
      "inputs": [],
      "name": "maxDreamersMintPublicSale",
      "outputs": [
        {
          "internalType": "uint256",
          "name": "",
          "type": "uint256"
        }
      ],
      "stateMutability": "view",
      "type": "function"
    },
    {
      "inputs": [
        {
          "internalType": "bytes",
          "name": "tokenIds",
          "type": "bytes"
        }
      ],
      "name": "mintBatchFounders",
      "outputs": [
        {
          "internalType": "bool",
          "name": "",
          "type": "bool"
        }
      ],
      "stateMutability": "nonpayable",
      "type": "function"
    },
    {
      "inputs": [
        {
          "internalType": "bytes",
          "name": "tokenIds",
          "type": "bytes"
        }
      ],
      "name": "mintBatchPublicSale",
      "outputs": [
        {
          "internalType": "bool",
          "name": "",
          "type": "bool"
        }
      ],
      "stateMutability": "payable",
      "type": "function"
    },
    {
      "inputs": [
        {
          "internalType": "bytes",
          "name": "tokenIds",
          "type": "bytes"
        },
        {
          "internalType": "uint256[]",
          "name": "candyIds",
          "type": "uint256[]"
        },
        {
          "internalType": "uint256[]",
          "name": "candyAmounts",
          "type": "uint256[]"
        }
      ],
      "name": "mintBatchRunnersAccess",
      "outputs": [
        {
          "internalType": "bool",
          "name": "",
          "type": "bool"
        }
      ],
      "stateMutability": "nonpayable",
      "type": "function"
    },
    {
      "inputs": [],
      "name": "name",
      "outputs": [
        {
          "internalType": "string",
          "name": "",
          "type": "string"
        }
      ],
      "stateMutability": "view",
      "type": "function"
    },
    {
      "inputs": [],
      "name": "opensea",
      "outputs": [
        {
          "internalType": "address",
          "name": "",
          "type": "address"
        }
      ],
      "stateMutability": "view",
      "type": "function"
    },
    {
      "inputs": [],
      "name": "owner",
      "outputs": [
        {
          "internalType": "address",
          "name": "",
          "type": "address"
        }
      ],
      "stateMutability": "view",
      "type": "function"
    },
    {
      "inputs": [
        {
          "internalType": "uint256",
          "name": "tokenId",
          "type": "uint256"
        }
      ],
      "name": "ownerOf",
      "outputs": [
        {
          "internalType": "address",
          "name": "",
          "type": "address"
        }
      ],
      "stateMutability": "view",
      "type": "function"
    },
    {
      "inputs": [],
      "name": "publicSaleStartTimestamp",
      "outputs": [
        {
          "internalType": "uint256",
          "name": "",
          "type": "uint256"
        }
      ],
      "stateMutability": "view",
      "type": "function"
    },
    {
      "inputs": [],
      "name": "renderingContractAddress",
      "outputs": [
        {
          "internalType": "address",
          "name": "",
          "type": "address"
        }
      ],
      "stateMutability": "view",
      "type": "function"
    },
    {
      "inputs": [],
      "name": "renounceOwnership",
      "outputs": [],
      "stateMutability": "nonpayable",
      "type": "function"
    },
    {
      "inputs": [
        {
          "internalType": "address",
          "name": "from",
          "type": "address"
        },
        {
          "internalType": "address",
          "name": "to",
          "type": "address"
        },
        {
          "internalType": "uint256",
          "name": "tokenId",
          "type": "uint256"
        }
      ],
      "name": "safeTransferFrom",
      "outputs": [],
      "stateMutability": "nonpayable",
      "type": "function"
    },
    {
      "inputs": [
        {
          "internalType": "address",
          "name": "from",
          "type": "address"
        },
        {
          "internalType": "address",
          "name": "to",
          "type": "address"
        },
        {
          "internalType": "uint256",
          "name": "tokenId",
          "type": "uint256"
        },
        {
          "internalType": "bytes",
          "name": "_data",
          "type": "bytes"
        }
      ],
      "name": "safeTransferFrom",
      "outputs": [],
      "stateMutability": "nonpayable",
      "type": "function"
    },
    {
      "inputs": [
        {
          "internalType": "address",
          "name": "operator",
          "type": "address"
        },
        {
          "internalType": "bool",
          "name": "approved",
          "type": "bool"
        }
      ],
      "name": "setApprovalForAll",
      "outputs": [],
      "stateMutability": "nonpayable",
      "type": "function"
    },
    {
      "inputs": [
        {
          "internalType": "address",
          "name": "_candyShopContractAddress",
          "type": "address"
        }
      ],
      "name": "setCandyShopAddress",
      "outputs": [],
      "stateMutability": "nonpayable",
      "type": "function"
    },
    {
      "inputs": [
        {
          "internalType": "address",
          "name": "_chainRunnersContractAddress",
          "type": "address"
        }
      ],
      "name": "setChainRunnersContractAddress",
      "outputs": [],
      "stateMutability": "nonpayable",
      "type": "function"
    },
    {
      "inputs": [
        {
          "internalType": "address",
          "name": "looksrare_",
          "type": "address"
        }
      ],
      "name": "setLooksrare",
      "outputs": [],
      "stateMutability": "nonpayable",
      "type": "function"
    },
    {
      "inputs": [
        {
          "internalType": "uint256",
          "name": "_maxDreamersMintPublicSale",
          "type": "uint256"
        }
      ],
      "name": "setMaxDreamersMintPublicSale",
      "outputs": [],
      "stateMutability": "nonpayable",
      "type": "function"
    },
    {
      "inputs": [
        {
          "internalType": "address[]",
          "name": "_ogs",
          "type": "address[]"
        },
        {
          "internalType": "uint256[]",
          "name": "_tokenIds",
          "type": "uint256[]"
        },
        {
          "internalType": "uint8[]",
          "name": "_candies",
          "type": "uint8[]"
        }
      ],
      "name": "setOgs",
      "outputs": [],
      "stateMutability": "nonpayable",
      "type": "function"
    },
    {
      "inputs": [
        {
          "internalType": "address",
          "name": "opensea_",
          "type": "address"
        }
      ],
      "name": "setOpensea",
      "outputs": [],
      "stateMutability": "nonpayable",
      "type": "function"
    },
    {
      "inputs": [
        {
          "internalType": "uint256",
          "name": "timestamp",
          "type": "uint256"
        }
      ],
      "name": "setPublicSaleTimestamp",
      "outputs": [],
      "stateMutability": "nonpayable",
      "type": "function"
    },
    {
      "inputs": [
        {
          "internalType": "address",
          "name": "_renderingContractAddress",
          "type": "address"
        }
      ],
      "name": "setRenderingContractAddress",
      "outputs": [],
      "stateMutability": "nonpayable",
      "type": "function"
    },
    {
      "inputs": [
        {
          "internalType": "bytes4",
          "name": "interfaceId",
          "type": "bytes4"
        }
      ],
      "name": "supportsInterface",
      "outputs": [
        {
          "internalType": "bool",
          "name": "",
          "type": "bool"
        }
      ],
      "stateMutability": "view",
      "type": "function"
    },
    {
      "inputs": [],
      "name": "symbol",
      "outputs": [
        {
          "internalType": "string",
          "name": "",
          "type": "string"
        }
      ],
      "stateMutability": "view",
      "type": "function"
    },
    {
      "inputs": [],
      "name": "toggleMarketplacesApproved",
      "outputs": [],
      "stateMutability": "nonpayable",
      "type": "function"
    },
    {
      "inputs": [
        {
          "internalType": "uint256",
          "name": "index",
          "type": "uint256"
        }
      ],
      "name": "tokenByIndex",
      "outputs": [
        {
          "internalType": "uint256",
          "name": "",
          "type": "uint256"
        }
      ],
      "stateMutability": "view",
      "type": "function"
    },
    {
      "inputs": [
        {
          "internalType": "address",
          "name": "owner",
          "type": "address"
        },
        {
          "internalType": "uint256",
          "name": "index",
          "type": "uint256"
        }
      ],
      "name": "tokenOfOwnerByIndex",
      "outputs": [
        {
          "internalType": "uint256",
          "name": "",
          "type": "uint256"
        }
      ],
      "stateMutability": "view",
      "type": "function"
    },
    {
      "inputs": [
        {
          "internalType": "uint256",
          "name": "_tokenId",
          "type": "uint256"
        }
      ],
      "name": "tokenURI",
      "outputs": [
        {
          "internalType": "string",
          "name": "",
          "type": "string"
        }
      ],
      "stateMutability": "view",
      "type": "function"
    },
    {
      "inputs": [],
      "name": "totalSupply",
      "outputs": [
        {
          "internalType": "uint256",
          "name": "",
          "type": "uint256"
        }
      ],
      "stateMutability": "view",
      "type": "function"
    },
    {
      "inputs": [
        {
          "internalType": "address",
          "name": "from",
          "type": "address"
        },
        {
          "internalType": "address",
          "name": "to",
          "type": "address"
        },
        {
          "internalType": "uint256",
          "name": "tokenId",
          "type": "uint256"
        }
      ],
      "name": "transferFrom",
      "outputs": [],
      "stateMutability": "nonpayable",
      "type": "function"
    },
    {
      "inputs": [
        {
          "internalType": "address",
          "name": "newOwner",
          "type": "address"
        }
      ],
      "name": "transferOwnership",
      "outputs": [],
      "stateMutability": "nonpayable",
      "type": "function"
    },
    {
      "inputs": [],
      "name": "withdraw",
      "outputs": [],
      "stateMutability": "nonpayable",
      "type": "function"
    },
    {
      "stateMutability": "payable",
      "type": "receive"
    }
  ],
  "transactionHash": "0x1bce646fe6e64c2d6f2561f954e299751e2e726e1af45da79aaa29504d0a514b",
  "args": [
    "Chain Dreamers",
    "DRE",
    "0x472274C57f0B1953294513458F732fb7fbE82AC0",
    "0x39Ae0DDB8596ef6b67aE731c5B564712F9706FA1",
    "0xf57b2c51ded3a29e6891aba85459d600256cf317",
    "0x3f65a762f15d01809cdc6b43d8849ff24949c86a",
    16
  ],
  "numDeployments": 18,
  "solcInputHash": "012895fc02cb2a1d37c0df625a87d775",
  "bytecode": "0x608060405261014c805460ff60a01b1916600160a01b17905561014f805460ff191660011790553480156200003357600080fd5b50604051620042153803806200421583398101604081905262000056916200047c565b8651879087906200006f9060009060208501906200024b565b508051620000859060019060208401906200024b565b505050620000a26200009c6200010760201b60201c565b6200010b565b6001600b55620000b2856200015d565b620000bd84620001bf565b61014b80546001600160a01b038086166001600160a01b03199283161790925561014c805492851692909116919091179055620000fa8162000218565b50505050505050620005e6565b3390565b600a80546001600160a01b038381166001600160a01b0319831681179093556040519116919082907f8be0079c531659141344cd1fd0a4f28419497f9722a3daafe3b4186f6b6457e090600090a35050565b600a546001600160a01b03163314620001935760405162461bcd60e51b81526004016200018a9062000564565b60405180910390fd5b600c80546001600160a01b039092166001600160a01b03199283168117909155600f8054909216179055565b600a546001600160a01b03163314620001ec5760405162461bcd60e51b81526004016200018a9062000564565b600e80546001600160a01b039092166001600160a01b0319928316811790915560118054909216179055565b600a546001600160a01b03163314620002455760405162461bcd60e51b81526004016200018a9062000564565b61014e55565b8280546200025990620005b5565b90600052602060002090601f0160209004810192826200027d5760008555620002c8565b82601f106200029857805160ff1916838001178555620002c8565b82800160010185558215620002c8579182015b82811115620002c8578251825591602001919060010190620002ab565b50620002d6929150620002da565b5090565b5b80821115620002d65760008155600101620002db565b634e487b7160e01b600052604160045260246000fd5b601f19601f83011681016001600160401b03811182821017156200032f576200032f620002f1565b6040525050565b60006200034260405190565b905062000350828262000307565b919050565b60006001600160401b03821115620003715762000371620002f1565b601f19601f83011660200192915050565b60005b838110156200039f57818101518382015260200162000385565b83811115620003af576000848401525b50505050565b6000620003cc620003c68462000355565b62000336565b905082815260208101848484011115620003e957620003e9600080fd5b620003f684828562000382565b509392505050565b600082601f830112620004145762000414600080fd5b815162000426848260208601620003b5565b949350505050565b60006001600160a01b0382165b92915050565b6200044c816200042e565b81146200045857600080fd5b50565b80516200043b8162000441565b806200044c565b80516200043b8162000468565b600080600080600080600060e0888a0312156200049c576200049c600080fd5b87516001600160401b03811115620004b757620004b7600080fd5b620004c58a828b01620003fe565b60208a015190985090506001600160401b03811115620004e857620004e8600080fd5b620004f68a828b01620003fe565b9650506040620005098a828b016200045b565b95505060606200051c8a828b016200045b565b94505060806200052f8a828b016200045b565b93505060a0620005428a828b016200045b565b92505060c0620005558a828b016200046f565b91505092959891949750929550565b60208082528181019081527f4f776e61626c653a2063616c6c6572206973206e6f7420746865206f776e65726040830152606082016200043b565b634e487b7160e01b600052602260045260246000fd5b600281046001821680620005ca57607f821691505b60208210811415620005e057620005e06200059f565b50919050565b613c1f80620005f66000396000f3fe6080604052600436106103015760003560e01c8063715018a61161018f578063b88d4fde116100e1578063e985e9c51161008a578063f4b9942411610064578063f4b9942414610854578063f73c814b14610867578063fac913231461088757600080fd5b8063e985e9c5146107f9578063f0658ac914610819578063f2fde38b1461083457600080fd5b8063cb95f069116100bb578063cb95f069146107a2578063d3d6005b146107c2578063d7822c99146107e257600080fd5b8063b88d4fde14610742578063c074f41214610762578063c87b56dd1461078257600080fd5b80639b97088811610143578063a8e90b571161011d578063a8e90b57146106e1578063b5fcb33914610702578063b776c8a61461072257600080fd5b80639b970888146106865780639c51792a146106a6578063a22cb465146106c157600080fd5b80638da5cb5b116101745780638da5cb5b146106335780639343eaa61461065157806395d89b411461067157600080fd5b8063715018a6146105fe5780638392d8041461061357600080fd5b806323b872dd11610253578063511a9605116101fc5780636352211e116101d65780636352211e146105a75780636b318e6e146105c757806370a08231146105de57600080fd5b8063511a960514610539578063511ed38214610559578063633574db1461057a57600080fd5b80633ccfd60b1161022d5780633ccfd60b146104e457806342842e0e146104f95780634f6ccce71461051957600080fd5b806323b872dd1461048f5780632f745c59146104af57806333c12e17146104cf57600080fd5b80630d77c756116102b55780631a6949e31161028f5780631a6949e3146104455780631e8858fb1461045a57806322afee071461047a57600080fd5b80630d77c756146103e757806312b40a9f1461040757806318160ddd1461042757600080fd5b806306fdde03116102e657806306fdde0314610376578063081812fc14610398578063095ea7b3146103c557600080fd5b806301ffc9a71461030d578063026ae1021461034357600080fd5b3661030857005b600080fd5b34801561031957600080fd5b5061032d610328366004612514565b6108a7565b60405161033a919061253f565b60405180910390f35b34801561034f57600080fd5b5061014c5461032d9074010000000000000000000000000000000000000000900460ff1681565b34801561038257600080fd5b5061038b610903565b60405161033a91906125ab565b3480156103a457600080fd5b506103b86103b33660046125cd565b610995565b60405161033a9190612608565b3480156103d157600080fd5b506103e56103e036600461262a565b6109ee565b005b3480156103f357600080fd5b506103e56104023660046125cd565b610a74565b34801561041357600080fd5b506103e5610422366004612667565b610aa4565b34801561043357600080fd5b506008545b60405161033a919061268e565b34801561045157600080fd5b5061032d610b07565b34801561046657600080fd5b506103e5610475366004612667565b610b22565b34801561048657600080fd5b50610438603281565b34801561049b57600080fd5b506103e56104aa36600461269c565b610b7c565b3480156104bb57600080fd5b506104386104ca36600461262a565b610bad565b3480156104db57600080fd5b506103e5610bff565b3480156104f057600080fd5b506103e5610c77565b34801561050557600080fd5b506103e561051436600461269c565b610d0c565b34801561052557600080fd5b506104386105343660046125cd565b610d27565b34801561054557600080fd5b506103e56105543660046125cd565b610d75565b34801561056557600080fd5b5061014b546103b8906001600160a01b031681565b34801561058657600080fd5b5061059a6105953660046125cd565b610da5565b60405161033a91906126f5565b3480156105b357600080fd5b506103b86105c23660046125cd565b610dd0565b3480156105d357600080fd5b5061043861014e5481565b3480156105ea57600080fd5b506104386105f9366004612667565b610e05565b34801561060a57600080fd5b506103e5610e49565b34801561061f57600080fd5b50600e546103b8906001600160a01b031681565b34801561063f57600080fd5b50600a546001600160a01b03166103b8565b34801561065d57600080fd5b5061032d61066c366004612755565b610e7f565b34801561067d57600080fd5b5061038b6110b7565b34801561069257600080fd5b506103e56106a136600461299c565b6110c6565b3480156106b257600080fd5b5061043866b1a2bc2ec5000081565b3480156106cd57600080fd5b506103e56106dc366004612a45565b6111b8565b3480156106ed57600080fd5b5061014c546103b8906001600160a01b031681565b34801561070e57600080fd5b506103e561071d366004612667565b6111c7565b34801561072e57600080fd5b506103e561073d366004612667565b61122a565b34801561074e57600080fd5b506103e561075d366004612b0f565b611284565b34801561076e57600080fd5b50600c546103b8906001600160a01b031681565b34801561078e57600080fd5b5061038b61079d3660046125cd565b6112b6565b3480156107ae57600080fd5b5061032d6107bd366004612bd9565b6113ca565b3480156107ce57600080fd5b506103e56107dd366004612667565b611706565b3480156107ee57600080fd5b506104386101505481565b34801561080557600080fd5b5061032d610814366004612c86565b611769565b34801561082557600080fd5b5061014f5461032d9060ff1681565b34801561084057600080fd5b506103e561084f366004612667565b6118e0565b61032d610862366004612755565b611939565b34801561087357600080fd5b506103e5610882366004612667565b611b0a565b34801561089357600080fd5b50600d546103b8906001600160a01b031681565b60007fffffffff0000000000000000000000000000000000000000000000000000000082167f780e9d630000000000000000000000000000000000000000000000000000000014806108fd57506108fd82611b5e565b92915050565b60606000805461091290612ccf565b80601f016020809104026020016040519081016040528092919081815260200182805461093e90612ccf565b801561098b5780601f106109605761010080835404028352916020019161098b565b820191906000526020600020905b81548152906001019060200180831161096e57829003601f168201915b5050505050905090565b6000818152600260205260408120546001600160a01b03166109d25760405162461bcd60e51b81526004016109c990612d56565b60405180910390fd5b506000908152600460205260409020546001600160a01b031690565b60006109f982610dd0565b9050806001600160a01b0316836001600160a01b03161415610a2d5760405162461bcd60e51b81526004016109c990612dbe565b336001600160a01b0382161480610a495750610a498133611769565b610a655760405162461bcd60e51b81526004016109c990612e26565b610a6f8383611c41565b505050565b600a546001600160a01b03163314610a9e5760405162461bcd60e51b81526004016109c990612e68565b61014e55565b600a546001600160a01b03163314610ace5760405162461bcd60e51b81526004016109c990612e68565b600c80546001600160a01b0390921673ffffffffffffffffffffffffffffffffffffffff199283168117909155600f8054909216179055565b60006101505442118015610b1d57506101505415155b905090565b600a546001600160a01b03163314610b4c5760405162461bcd60e51b81526004016109c990612e68565b61014c805473ffffffffffffffffffffffffffffffffffffffff19166001600160a01b0392909216919091179055565b610b863382611cbc565b610ba25760405162461bcd60e51b81526004016109c990612ed0565b610a6f838383611d4e565b6000610bb883610e05565b8210610bd65760405162461bcd60e51b81526004016109c990612f38565b506001600160a01b03919091166000908152600660209081526040808320938352929052205490565b600a546001600160a01b03163314610c295760405162461bcd60e51b81526004016109c990612e68565b61014c80547fffffffffffffffffffffff00ffffffffffffffffffffffffffffffffffffffff8116740100000000000000000000000000000000000000009182900460ff1615909102179055565b600a546001600160a01b03163314610ca15760405162461bcd60e51b81526004016109c990612e68565b604051600090339047908381818185875af1925050503d8060008114610ce3576040519150601f19603f3d011682016040523d82523d6000602084013e610ce8565b606091505b5050905080610d095760405162461bcd60e51b81526004016109c990612f7a565b50565b610a6f83838360405180602001604052806000815250611284565b6000610d3260085490565b8210610d505760405162461bcd60e51b81526004016109c990612fe2565b60088281548110610d6357610d63612ff2565b90600052602060002001549050919050565b600a546001600160a01b03163314610d9f5760405162461bcd60e51b81526004016109c990612e68565b61015055565b6012816127108110610db657600080fd5b60209182820401919006915054906101000a900460ff1681565b6000818152600260205260408120546001600160a01b0316806108fd5760405162461bcd60e51b81526004016109c990613060565b60006001600160a01b038216610e2d5760405162461bcd60e51b81526004016109c9906130c8565b506001600160a01b031660009081526003602052604090205490565b600a546001600160a01b03163314610e735760405162461bcd60e51b81526004016109c990612e68565b610e7d6000611e88565b565b60006002600b541415610ea45760405162461bcd60e51b81526004016109c99061310a565b6002600b55600a546001600160a01b03163314610ed35760405162461bcd60e51b81526004016109c990612e68565b610edb610b07565b610ef75760405162461bcd60e51b81526004016109c99061314c565b61014f5460ff1615610f1b5760405162461bcd60e51b81526004016109c99061318e565b610f27603260026131b4565b821115610f465760405162461bcd60e51b81526004016109c99061322b565b60008383334244604051602001610f61959493929190613276565b60405160208183030381529060405280519060200120905060005b610f876002856132c9565b811015611097576000610fdc86868080601f016020809104026020016040519081016040528093929190818152602001838380828437600092019190915250610fd79250869150600290506131b4565b611ee7565b905082610fea6020846132dd565b60208110610ffa57610ffa612ff2565b1a601261ffff8316612710811061101357611013612ff2565b602091828204019190066101000a81548160ff021916908360ff16021790555061104761103d3390565b8261ffff16611f1d565b6110526020836132dd565b601f1415611084578260405160200161106b91906132f5565b6040516020818303038152906040528051906020012092505b508061108f81613307565b915050610f7c565b505061014f805460ff1916600190811790915590506001600b5592915050565b60606001805461091290612ccf565b600a546001600160a01b031633146110f05760405162461bcd60e51b81526004016109c990612e68565b60005b83518110156111b25761113884828151811061111157611111612ff2565b602002602001015184838151811061112b5761112b612ff2565b6020026020010151611f1d565b81818151811061114a5761114a612ff2565b6020026020010151601284838151811061116657611166612ff2565b6020026020010151612710811061117f5761117f612ff2565b602091828204019190066101000a81548160ff021916908360ff16021790555080806111aa90613307565b9150506110f3565b50505050565b6111c3338383611f37565b5050565b600a546001600160a01b031633146111f15760405162461bcd60e51b81526004016109c990612e68565b600d80546001600160a01b0390921673ffffffffffffffffffffffffffffffffffffffff19928316811790915560108054909216179055565b600a546001600160a01b031633146112545760405162461bcd60e51b81526004016109c990612e68565b61014b805473ffffffffffffffffffffffffffffffffffffffff19166001600160a01b0392909216919091179055565b61128e3383611cbc565b6112aa5760405162461bcd60e51b81526004016109c990612ed0565b6111b284848484611fda565b60606112dd8261ffff166000908152600260205260409020546001600160a01b0316151590565b6112f95760405162461bcd60e51b81526004016109c99061337a565b600c546001600160a01b031661131d57505060408051602081019091526000815290565b600f546001600160a01b0316635cc518ba83601281612710811061134357611343612ff2565b602091828204019190069054906101000a900460ff166040518363ffffffff1660e01b815260040161137692919061338a565b60006040518083038186803b15801561138e57600080fd5b505afa1580156113a2573d6000803e3d6000fd5b505050506040513d6000823e601f3d908101601f191682016040526108fd91908101906133fd565b60006002600b5414156113ef5760405162461bcd60e51b81526004016109c99061310a565b6002600b8190556114019085906131b4565b861461141f5760405162461bcd60e51b81526004016109c990613490565b60008787338888424460405160200161143e97969594939291906134ed565b60405160208183030381529060405280519060200120905060005b858110156116895760006114aa8a8a8080601f016020809104026020016040519081016040528093929190818152602001838380828437600092019190915250610fd79250869150600290506131b4565b6011546040517f6352211e00000000000000000000000000000000000000000000000000000000815291925033916001600160a01b0390911690636352211e906114f8908590600401613552565b60206040518083038186803b15801561151057600080fd5b505afa158015611524573d6000803e3d6000fd5b505050506040513d601f19601f82011682018060405250810190611548919061356b565b6001600160a01b03161461156e5760405162461bcd60e51b81526004016109c9906135e4565b85858381811061158057611580612ff2565b905060200201356001146115a65760405162461bcd60e51b81526004016109c9906135f4565b60048888848181106115ba576115ba612ff2565b905060200201356115cb919061367b565b60fc846115d96020866132dd565b602081106115e9576115e9612ff2565b6115f7939291901a16613688565b60128261ffff16612710811061160f5761160f612ff2565b602091828204019190066101000a81548160ff021916908360ff16021790555061163961103d3390565b6116446020836132dd565b601f1415611676578260405160200161165d91906132f5565b6040516020818303038152906040528051906020012092505b508061168181613307565b915050611459565b506010546001600160a01b0316636b20c45433888888886040518663ffffffff1660e01b81526004016116c09594939291906136b5565b600060405180830381600087803b1580156116da57600080fd5b505af11580156116ee573d6000803e3d6000fd5b5050505060019150506001600b559695505050505050565b600a546001600160a01b031633146117305760405162461bcd60e51b81526004016109c990612e68565b600e80546001600160a01b0390921673ffffffffffffffffffffffffffffffffffffffff19928316811790915560118054909216179055565b61014c5460009074010000000000000000000000000000000000000000900460ff166117be57506001600160a01b0382811660009081526005602090815260408083209385168352929052205460ff166108fd565b61014b546040517fc45527910000000000000000000000000000000000000000000000000000000081526001600160a01b039091169063c455279190611808908690600401612608565b60206040518083038186803b15801561182057600080fd5b505afa158015611834573d6000803e3d6000fd5b505050506040513d601f19601f820116820180604052508101906118589190613715565b6001600160a01b0316826001600160a01b03161480611885575061014c546001600160a01b038381169116145b806118a957506001600160a01b038216600090815261014d602052604090205460ff165b806118d957506001600160a01b0380841660009081526005602090815260408083209386168352929052205460ff165b9392505050565b600a546001600160a01b0316331461190a5760405162461bcd60e51b81526004016109c990612e68565b6001600160a01b0381166119305760405162461bcd60e51b81526004016109c99061378e565b610d0981611e88565b60006002600b54141561195e5760405162461bcd60e51b81526004016109c99061310a565b6002600b5561196b610b07565b6119875760405162461bcd60e51b81526004016109c99061314c565b3466b1a2bc2ec5000061199b6002856132c9565b6119a591906131b4565b146119c25760405162461bcd60e51b81526004016109c9906137d0565b61014e546119d16002846132c9565b6119da33610e05565b6119e491906137e0565b1115611a025760405162461bcd60e51b81526004016109c99061384b565b6000838333344244604051602001611a1f9695949392919061385b565b60405160208183030381529060405280519060200120905060005b83811015611af9576000611a8586868080601f016020809104026020016040519081016040528093929190818152602001838380828437600092019190915250869250611ee7915050565b905082611a936002846132c9565b60208110611aa357611aa3612ff2565b1a601261ffff83166127108110611abc57611abc612ff2565b602091828204019190066101000a81548160ff021916908360ff160217905550611ae661103d3390565b50611af26002826137e0565b9050611a3a565b5060019150506001600b5592915050565b600a546001600160a01b03163314611b345760405162461bcd60e51b81526004016109c990612e68565b6001600160a01b0316600090815261014d60205260409020805460ff19811660ff90911615179055565b60007fffffffff0000000000000000000000000000000000000000000000000000000082167f80ac58cd000000000000000000000000000000000000000000000000000000001480611bf157507fffffffff0000000000000000000000000000000000000000000000000000000082167f5b5e139f00000000000000000000000000000000000000000000000000000000145b806108fd57507f01ffc9a7000000000000000000000000000000000000000000000000000000007fffffffff000000000000000000000000000000000000000000000000000000008316146108fd565b6000818152600460205260409020805473ffffffffffffffffffffffffffffffffffffffff19166001600160a01b0384169081179091558190611c8382610dd0565b6001600160a01b03167f8c5be1e5ebec7d5bd14f71427d1e84f3dd0314c0f7b2291e5b200ac8c7c3b92560405160405180910390a45050565b6000818152600260205260408120546001600160a01b0316611cf05760405162461bcd60e51b81526004016109c9906138fe565b6000611cfb83610dd0565b9050806001600160a01b0316846001600160a01b03161480611d365750836001600160a01b0316611d2b84610995565b6001600160a01b0316145b80611d465750611d468185611769565b949350505050565b826001600160a01b0316611d6182610dd0565b6001600160a01b031614611d875760405162461bcd60e51b81526004016109c990613966565b6001600160a01b038216611dad5760405162461bcd60e51b81526004016109c9906139ce565b611db883838361200d565b611dc3600082611c41565b6001600160a01b0383166000908152600360205260408120805460019290611dec9084906139de565b90915550506001600160a01b0382166000908152600360205260408120805460019290611e1a9084906137e0565b9091555050600081815260026020526040808220805473ffffffffffffffffffffffffffffffffffffffff19166001600160a01b0386811691821790925591518493918716917fddf252ad1be2c89b69c2b068fc378daa952ba7f163c4a11628f55a4df523b3ef91a4505050565b600a80546001600160a01b0383811673ffffffffffffffffffffffffffffffffffffffff19831681179093556040519116919082907f8be0079c531659141344cd1fd0a4f28419497f9722a3daafe3b4186f6b6457e090600090a35050565b6000611ef48260026137e0565b83511015611f145760405162461bcd60e51b81526004016109c990613a27565b50016002015190565b6111c38282604051806020016040528060008152506120c5565b816001600160a01b0316836001600160a01b03161415611f695760405162461bcd60e51b81526004016109c990613a69565b6001600160a01b0383811660008181526005602090815260408083209487168084529490915290819020805460ff1916851515179055517f17307eab39ab6107e8899845ad3d59bd9653f200f220920489ca2b5937696c3190611fcd90859061253f565b60405180910390a3505050565b611fe5848484611d4e565b611ff1848484846120f8565b6111b25760405162461bcd60e51b81526004016109c990613ad1565b6001600160a01b0383166120685761206381600880546000838152600960205260408120829055600182018355919091527ff3f7a9fe364faab93b216da50a3214154f22a0a2b415b23a84c8169e8b636ee30155565b61208b565b816001600160a01b0316836001600160a01b03161461208b5761208b838261224f565b6001600160a01b0382166120a257610a6f816122ec565b826001600160a01b0316826001600160a01b031614610a6f57610a6f828261239b565b6120cf83836123df565b6120dc60008484846120f8565b610a6f5760405162461bcd60e51b81526004016109c990613ad1565b60006001600160a01b0384163b15612244576040517f150b7a020000000000000000000000000000000000000000000000000000000081526001600160a01b0385169063150b7a0290612155903390899088908890600401613ae1565b602060405180830381600087803b15801561216f57600080fd5b505af192505050801561219f575060408051601f3d908101601f1916820190925261219c91810190613b30565b60015b6121f9573d8080156121cd576040519150601f19603f3d011682016040523d82523d6000602084013e6121d2565b606091505b5080516121f15760405162461bcd60e51b81526004016109c990613ad1565b805181602001fd5b7fffffffff00000000000000000000000000000000000000000000000000000000167f150b7a0200000000000000000000000000000000000000000000000000000000149050611d46565b506001949350505050565b6000600161225c84610e05565b61226691906139de565b6000838152600760205260409020549091508082146122b9576001600160a01b03841660009081526006602090815260408083208584528252808320548484528184208190558352600790915290208190555b5060009182526007602090815260408084208490556001600160a01b039094168352600681528383209183525290812055565b6008546000906122fe906001906139de565b6000838152600960205260408120546008805493945090928490811061232657612326612ff2565b90600052602060002001549050806008838154811061234757612347612ff2565b600091825260208083209091019290925582815260099091526040808220849055858252812055600880548061237f5761237f613b51565b6001900381819060005260206000200160009055905550505050565b60006123a683610e05565b6001600160a01b039093166000908152600660209081526040808320868452825280832085905593825260079052919091209190915550565b6001600160a01b0382166124055760405162461bcd60e51b81526004016109c990613b97565b6000818152600260205260409020546001600160a01b03161561243a5760405162461bcd60e51b81526004016109c990613bd9565b6124466000838361200d565b6001600160a01b038216600090815260036020526040812080546001929061246f9084906137e0565b9091555050600081815260026020526040808220805473ffffffffffffffffffffffffffffffffffffffff19166001600160a01b03861690811790915590518392907fddf252ad1be2c89b69c2b068fc378daa952ba7f163c4a11628f55a4df523b3ef908290a45050565b7fffffffff0000000000000000000000000000000000000000000000000000000081165b8114610d0957600080fd5b80356108fd816124da565b60006020828403121561252957612529600080fd5b6000611d468484612509565b8015155b82525050565b602081016108fd8284612535565b60005b83811015612568578181015183820152602001612550565b838111156111b25750506000910152565b6000612583825190565b80845260208401935061259a81856020860161254d565b601f01601f19169290920192915050565b602080825281016118d98184612579565b806124fe565b80356108fd816125bc565b6000602082840312156125e2576125e2600080fd5b6000611d4684846125c2565b60006001600160a01b0382166108fd565b612539816125ee565b602081016108fd82846125ff565b6124fe816125ee565b80356108fd81612616565b6000806040838503121561264057612640600080fd5b600061264c858561261f565b925050602061265d858286016125c2565b9150509250929050565b60006020828403121561267c5761267c600080fd5b6000611d46848461261f565b80612539565b602081016108fd8284612688565b6000806000606084860312156126b4576126b4600080fd5b60006126c0868661261f565b93505060206126d18682870161261f565b92505060406126e2868287016125c2565b9150509250925092565b60ff8116612539565b602081016108fd82846126ec565b60008083601f84011261271857612718600080fd5b50813567ffffffffffffffff81111561273357612733600080fd5b60208301915083600182028301111561274e5761274e600080fd5b9250929050565b6000806020838503121561276b5761276b600080fd5b823567ffffffffffffffff81111561278557612785600080fd5b61279185828601612703565b92509250509250929050565b634e487b7160e01b600052604160045260246000fd5b601f19601f830116810181811067ffffffffffffffff821117156127d9576127d961279d565b6040525050565b60006127eb60405190565b90506127f782826127b3565b919050565b600067ffffffffffffffff8211156128165761281661279d565b5060209081020190565b600061283361282e846127fc565b6127e0565b8381529050602080820190840283018581111561285257612852600080fd5b835b8181101561287457612866878261261f565b835260209283019201612854565b5050509392505050565b600082601f83011261289257612892600080fd5b8135611d46848260208601612820565b60006128b061282e846127fc565b838152905060208082019084028301858111156128cf576128cf600080fd5b835b81811015612874576128e387826125c2565b8352602092830192016128d1565b600082601f83011261290557612905600080fd5b8135611d468482602086016128a2565b60ff81166124fe565b80356108fd81612915565b600061293761282e846127fc565b8381529050602080820190840283018581111561295657612956600080fd5b835b818110156128745761296a878261291e565b835260209283019201612958565b600082601f83011261298c5761298c600080fd5b8135611d46848260208601612929565b6000806000606084860312156129b4576129b4600080fd5b833567ffffffffffffffff8111156129ce576129ce600080fd5b6129da8682870161287e565b935050602084013567ffffffffffffffff8111156129fa576129fa600080fd5b612a06868287016128f1565b925050604084013567ffffffffffffffff811115612a2657612a26600080fd5b6126e286828701612978565b8015156124fe565b80356108fd81612a32565b60008060408385031215612a5b57612a5b600080fd5b6000612a67858561261f565b925050602061265d85828601612a3a565b600067ffffffffffffffff821115612a9257612a9261279d565b601f19601f83011660200192915050565b82818337506000910152565b6000612abd61282e84612a78565b905082815260208101848484011115612ad857612ad8600080fd5b612ae3848285612aa3565b509392505050565b600082601f830112612aff57612aff600080fd5b8135611d46848260208601612aaf565b60008060008060808587031215612b2857612b28600080fd5b6000612b34878761261f565b9450506020612b458782880161261f565b9350506040612b56878288016125c2565b925050606085013567ffffffffffffffff811115612b7657612b76600080fd5b612b8287828801612aeb565b91505092959194509250565b60008083601f840112612ba357612ba3600080fd5b50813567ffffffffffffffff811115612bbe57612bbe600080fd5b60208301915083602082028301111561274e5761274e600080fd5b60008060008060008060608789031215612bf557612bf5600080fd5b863567ffffffffffffffff811115612c0f57612c0f600080fd5b612c1b89828a01612703565b9650965050602087013567ffffffffffffffff811115612c3d57612c3d600080fd5b612c4989828a01612b8e565b9450945050604087013567ffffffffffffffff811115612c6b57612c6b600080fd5b612c7789828a01612b8e565b92509250509295509295509295565b60008060408385031215612c9c57612c9c600080fd5b6000612ca8858561261f565b925050602061265d8582860161261f565b634e487b7160e01b600052602260045260246000fd5b600281046001821680612ce357607f821691505b60208210811415612cf657612cf6612cb9565b50919050565b602c8152602081017f4552433732313a20617070726f76656420717565727920666f72206e6f6e657881527f697374656e7420746f6b656e0000000000000000000000000000000000000000602082015290505b60400190565b602080825281016108fd81612cfc565b60218152602081017f4552433732313a20617070726f76616c20746f2063757272656e74206f776e6581527f720000000000000000000000000000000000000000000000000000000000000060208201529050612d50565b602080825281016108fd81612d66565b60388152602081017f4552433732313a20617070726f76652063616c6c6572206973206e6f74206f7781527f6e6572206e6f7220617070726f76656420666f7220616c6c000000000000000060208201529050612d50565b602080825281016108fd81612dce565b60208082527f4f776e61626c653a2063616c6c6572206973206e6f7420746865206f776e657291019081525b60200190565b602080825281016108fd81612e36565b60318152602081017f4552433732313a207472616e736665722063616c6c6572206973206e6f74206f81527f776e6572206e6f7220617070726f76656400000000000000000000000000000060208201529050612d50565b602080825281016108fd81612e78565b602b8152602081017f455243373231456e756d657261626c653a206f776e657220696e646578206f7581527f74206f6620626f756e647300000000000000000000000000000000000000000060208201529050612d50565b602080825281016108fd81612ee0565b60118152602081017f5769746864726177616c206661696c656400000000000000000000000000000081529050612e62565b602080825281016108fd81612f48565b602c8152602081017f455243373231456e756d657261626c653a20676c6f62616c20696e646578206f81527f7574206f6620626f756e6473000000000000000000000000000000000000000060208201529050612d50565b602080825281016108fd81612f8a565b634e487b7160e01b600052603260045260246000fd5b60298152602081017f4552433732313a206f776e657220717565727920666f72206e6f6e657869737481527f656e7420746f6b656e000000000000000000000000000000000000000000000060208201529050612d50565b602080825281016108fd81613008565b602a8152602081017f4552433732313a2062616c616e636520717565727920666f7220746865207a6581527f726f20616464726573730000000000000000000000000000000000000000000060208201529050612d50565b602080825281016108fd81613070565b601f8152602081017f5265656e7472616e637947756172643a207265656e7472616e742063616c6c0081529050612e62565b602080825281016108fd816130d8565b60148152602081017f5075626c69632073616c65206e6f74206f70656e00000000000000000000000081529050612e62565b602080825281016108fd8161311a565b60138152602081017f446f6e277420626520746f6f206772656564790000000000000000000000000081529050612e62565b602080825281016108fd8161315c565b634e487b7160e01b600052601160045260246000fd5b60008160001904831182151516156131ce576131ce61319e565b500290565b603f8152602081017f4576656e20696620796f7520617265206120666f756e6465722c20796f75206481527f6f6e277420646573657276652074686174206d616e7920447265616d6572730060208201529050612d50565b602080825281016108fd816131d3565b613246828483612aa3565b500190565b60006108fd8260601b90565b60006108fd8261324b565b61253961326e826125ee565b613257565b90565b61328181868861323b565b905061328d8185613262565b60140161329a8184612688565b6020016132a78183612688565b60200195945050505050565b634e487b7160e01b600052601260045260246000fd5b6000826132d8576132d86132b3565b500490565b815b91506000826132f0576132f06132b3565b500690565b6132ff8183612688565b602001919050565b600060001982141561331b5761331b61319e565b5060010190565b60278152602081017f4552433732313a2055524920717565727920666f72206e6f6e6578697374656e81527f7420746f6b656e0000000000000000000000000000000000000000000000000060208201529050612d50565b602080825281016108fd81613322565b604081016133988285612688565b6118d960208301846126ec565b60006133b361282e84612a78565b9050828152602081018484840111156133ce576133ce600080fd5b612ae384828561254d565b600082601f8301126133ed576133ed600080fd5b8151611d468482602086016133a5565b60006020828403121561341257613412600080fd5b815167ffffffffffffffff81111561342c5761342c600080fd5b611d46848285016133d9565b60288152602081017f456163682072756e6e6572206e65656473206f6e6520616e64206f6e6c79206f81527f6e652063616e647900000000000000000000000000000000000000000000000060208201529050612d50565b602080825281016108fd81613438565b825b925060007f07ffffffffffffffffffffffffffffffffffffffffffffffffffffffffffffff8311156134d6576134d6600080fd5b6020830292506134e7838584612aa3565b50500190565b6134f881888a61323b565b90506135048187613262565b6014016135128185876134a0565b905061351e8184612688565b60200161352b8183612688565b602001979650505050505050565b60006108fd61327361ffff841681565b61253981613539565b602081016108fd8284613549565b80516108fd81612616565b60006020828403121561358057613580600080fd5b6000611d468484613560565b60378152602081017f596f752063616e6e6f7420676976652063616e6469657320746f20612072756e81527f6e6572207468617420796f7520646f206e6f74206f776e00000000000000000060208201529050612d50565b602080825281016108fd8161358c565b602080825281016108fd81604f81527f596f75722072756e6e6572206e65656473206f6e6520616e64206f6e6c79206f60208201527f6e652063616e64792c2077686f206b6e6f7773207768617420636f756c64206860408201527f617070656e206f74686572776973650000000000000000000000000000000000606082015260800190565b60ff9081169082166132df565b60ff8116905060ff8216915060008260ff038211156132465761324661319e565b818352602083016134a2565b606081016136c382886125ff565b81810360208301526136d68186886136a9565b905081810360408301526136eb8184866136a9565b979650505050505050565b60006108fd826125ee565b6124fe816136f6565b80516108fd81613701565b60006020828403121561372a5761372a600080fd5b6000611d46848461370a565b60268152602081017f4f776e61626c653a206e6577206f776e657220697320746865207a65726f206181527f646472657373000000000000000000000000000000000000000000000000000060208201529050612d50565b602080825281016108fd81613736565b601d8152602081017f596f75206861766520746f2070617920746865206261696c20626f6e6400000081529050612e62565b602080825281016108fd8161379e565b600082198211156132465761324661319e565b60318152602081017f596f757220686f6d6520697320746f20736d616c6c20746f2077656c636f6d6581527f20736f206d616e7920647265616d65727300000000000000000000000000000060208201529050612d50565b602080825281016108fd816137f3565b61386681878961323b565b90506138728186613262565b60140161387f8185612688565b60200161388c8184612688565b6020016138998183612688565b6020019695505050505050565b602c8152602081017f4552433732313a206f70657261746f7220717565727920666f72206e6f6e657881527f697374656e7420746f6b656e000000000000000000000000000000000000000060208201529050612d50565b602080825281016108fd816138a6565b60298152602081017f4552433732313a207472616e73666572206f6620746f6b656e2074686174206981527f73206e6f74206f776e000000000000000000000000000000000000000000000060208201529050612d50565b602080825281016108fd8161390e565b60248152602081017f4552433732313a207472616e7366657220746f20746865207a65726f2061646481527f726573730000000000000000000000000000000000000000000000000000000060208201529050612d50565b602080825281016108fd81613976565b6000828210156139f0576139f061319e565b500390565b60148152602081017f746f55696e7431365f6f75744f66426f756e647300000000000000000000000081529050612e62565b602080825281016108fd816139f5565b60198152602081017f4552433732313a20617070726f766520746f2063616c6c65720000000000000081529050612e62565b602080825281016108fd81613a37565b60328152602081017f4552433732313a207472616e7366657220746f206e6f6e20455243373231526581527f63656976657220696d706c656d656e746572000000000000000000000000000060208201529050612d50565b602080825281016108fd81613a79565b60808101613aef82876125ff565b613afc60208301866125ff565b613b096040830185612688565b8181036060830152613b1b8184612579565b9695505050505050565b80516108fd816124da565b600060208284031215613b4557613b45600080fd5b6000611d468484613b25565b634e487b7160e01b600052603160045260246000fd5b60208082527f4552433732313a206d696e7420746f20746865207a65726f20616464726573739101908152612e62565b602080825281016108fd81613b67565b601c8152602081017f4552433732313a20746f6b656e20616c7265616479206d696e7465640000000081529050612e62565b602080825281016108fd81613ba756fea2646970667358221220484c98dfb7174dd644f5dcbc0c54b7896764ae5aebceab28ec382f758d85d17964736f6c63430008080033",
  "devdoc": {
    "kind": "dev",
    "methods": {
      "approve(address,uint256)": {
        "details": "See {IERC721-approve}."
      },
      "balanceOf(address)": {
        "details": "See {IERC721-balanceOf}."
      },
      "getApproved(uint256)": {
        "details": "See {IERC721-getApproved}."
      },
      "isApprovedForAll(address,address)": {
        "details": "Modified for opensea and looksrare pre-approve so users can make truly gas less sales."
      },
      "mintBatchRunnersAccess(bytes,uint256[],uint256[])": {
        "details": "This mint function wraps the safeMintBatch to:      1) check that the minter owns the runner 2) use the candies 3) burn the candies",
        "params": {
          "candyAmounts": "should be an array of 1",
          "candyIds": "the same indexes as above but as a uint8 array",
          "tokenIds": "a bytes interpreted as an array of uint16"
        }
      },
      "name()": {
        "details": "See {IERC721Metadata-name}."
      },
      "owner()": {
        "details": "Returns the address of the current owner."
      },
      "ownerOf(uint256)": {
        "details": "See {IERC721-ownerOf}."
      },
      "renounceOwnership()": {
        "details": "Leaves the contract without owner. It will not be possible to call `onlyOwner` functions anymore. Can only be called by the current owner. NOTE: Renouncing ownership will leave the contract without an owner, thereby removing any functionality that is only available to the owner."
      },
      "safeTransferFrom(address,address,uint256)": {
        "details": "See {IERC721-safeTransferFrom}."
      },
      "safeTransferFrom(address,address,uint256,bytes)": {
        "details": "See {IERC721-safeTransferFrom}."
      },
      "setApprovalForAll(address,bool)": {
        "details": "See {IERC721-setApprovalForAll}."
      },
      "supportsInterface(bytes4)": {
        "details": "See {IERC165-supportsInterface}."
      },
      "symbol()": {
        "details": "See {IERC721Metadata-symbol}."
      },
      "tokenByIndex(uint256)": {
        "details": "See {IERC721Enumerable-tokenByIndex}."
      },
      "tokenOfOwnerByIndex(address,uint256)": {
        "details": "See {IERC721Enumerable-tokenOfOwnerByIndex}."
      },
      "totalSupply()": {
        "details": "See {IERC721Enumerable-totalSupply}."
      },
      "transferFrom(address,address,uint256)": {
        "details": "See {IERC721-transferFrom}."
      },
      "transferOwnership(address)": {
        "details": "Transfers ownership of the contract to a new account (`newOwner`). Can only be called by the current owner."
      }
    },
    "stateVariables": {
      "opensea": {
        "details": "Copied from \\@naomsa's contract"
      }
    },
    "version": 1
  },
  "userdoc": {
    "kind": "user",
    "methods": {
      "flipProxyState(address)": {
        "notice": "Approve the communication and interaction with cross-collection interactions."
      },
      "looksrare()": {
        "notice": "LooksRare marketplace transfer manager."
      },
      "marketplacesApproved()": {
        "notice": "Check if marketplaces pre-approve is enabled."
      },
      "opensea()": {
        "notice": "OpenSea proxy registry."
      },
      "setLooksrare(address)": {
        "notice": "Set looksrare to `looksrare_`."
      },
      "setOpensea(address)": {
        "notice": "Set opensea to `opensea_`."
      },
      "toggleMarketplacesApproved()": {
        "notice": "Toggle pre-approve feature state for sender."
      }
    },
    "version": 1
  },
  "storageLayout": {
    "storage": [
      {
        "astId": 1802,
        "contract": "contracts/dreamers/ChainDreamers.sol:ChainDreamers",
        "label": "_name",
        "offset": 0,
        "slot": "0",
        "type": "t_string_storage"
      },
      {
        "astId": 1804,
        "contract": "contracts/dreamers/ChainDreamers.sol:ChainDreamers",
        "label": "_symbol",
        "offset": 0,
        "slot": "1",
        "type": "t_string_storage"
      },
      {
        "astId": 1808,
        "contract": "contracts/dreamers/ChainDreamers.sol:ChainDreamers",
        "label": "_owners",
        "offset": 0,
        "slot": "2",
        "type": "t_mapping(t_uint256,t_address)"
      },
      {
        "astId": 1812,
        "contract": "contracts/dreamers/ChainDreamers.sol:ChainDreamers",
        "label": "_balances",
        "offset": 0,
        "slot": "3",
        "type": "t_mapping(t_address,t_uint256)"
      },
      {
        "astId": 1816,
        "contract": "contracts/dreamers/ChainDreamers.sol:ChainDreamers",
        "label": "_tokenApprovals",
        "offset": 0,
        "slot": "4",
        "type": "t_mapping(t_uint256,t_address)"
      },
      {
        "astId": 1822,
        "contract": "contracts/dreamers/ChainDreamers.sol:ChainDreamers",
        "label": "_operatorApprovals",
        "offset": 0,
        "slot": "5",
        "type": "t_mapping(t_address,t_mapping(t_address,t_bool))"
      },
      {
        "astId": 2756,
        "contract": "contracts/dreamers/ChainDreamers.sol:ChainDreamers",
        "label": "_ownedTokens",
        "offset": 0,
        "slot": "6",
        "type": "t_mapping(t_address,t_mapping(t_uint256,t_uint256))"
      },
      {
        "astId": 2760,
        "contract": "contracts/dreamers/ChainDreamers.sol:ChainDreamers",
        "label": "_ownedTokensIndex",
        "offset": 0,
        "slot": "7",
        "type": "t_mapping(t_uint256,t_uint256)"
      },
      {
        "astId": 2763,
        "contract": "contracts/dreamers/ChainDreamers.sol:ChainDreamers",
        "label": "_allTokens",
        "offset": 0,
        "slot": "8",
        "type": "t_array(t_uint256)dyn_storage"
      },
      {
        "astId": 2767,
        "contract": "contracts/dreamers/ChainDreamers.sol:ChainDreamers",
        "label": "_allTokensIndex",
        "offset": 0,
        "slot": "9",
        "type": "t_mapping(t_uint256,t_uint256)"
      },
      {
        "astId": 225,
        "contract": "contracts/dreamers/ChainDreamers.sol:ChainDreamers",
        "label": "_owner",
        "offset": 0,
        "slot": "10",
        "type": "t_address"
      },
      {
        "astId": 425,
        "contract": "contracts/dreamers/ChainDreamers.sol:ChainDreamers",
        "label": "_status",
        "offset": 0,
        "slot": "11",
        "type": "t_uint256"
      },
      {
        "astId": 4183,
        "contract": "contracts/dreamers/ChainDreamers.sol:ChainDreamers",
        "label": "renderingContractAddress",
        "offset": 0,
        "slot": "12",
        "type": "t_address"
      },
      {
        "astId": 4185,
        "contract": "contracts/dreamers/ChainDreamers.sol:ChainDreamers",
        "label": "candyShopAddress",
        "offset": 0,
        "slot": "13",
        "type": "t_address"
      },
      {
        "astId": 4187,
        "contract": "contracts/dreamers/ChainDreamers.sol:ChainDreamers",
        "label": "chainRunnersAddress",
        "offset": 0,
        "slot": "14",
        "type": "t_address"
      },
      {
        "astId": 4190,
        "contract": "contracts/dreamers/ChainDreamers.sol:ChainDreamers",
        "label": "renderer",
        "offset": 0,
        "slot": "15",
        "type": "t_contract(IDreamersRenderer)8268"
      },
      {
        "astId": 4193,
        "contract": "contracts/dreamers/ChainDreamers.sol:ChainDreamers",
        "label": "candyShop",
        "offset": 0,
        "slot": "16",
        "type": "t_contract(ICandyShop)8218"
      },
      {
        "astId": 4196,
        "contract": "contracts/dreamers/ChainDreamers.sol:ChainDreamers",
        "label": "chainRunners",
        "offset": 0,
        "slot": "17",
        "type": "t_contract(IChainRunners)8235"
      },
      {
        "astId": 4200,
        "contract": "contracts/dreamers/ChainDreamers.sol:ChainDreamers",
        "label": "dreamersCandies",
        "offset": 0,
        "slot": "18",
        "type": "t_array(t_uint8)10000_storage"
      },
      {
        "astId": 4206,
        "contract": "contracts/dreamers/ChainDreamers.sol:ChainDreamers",
        "label": "opensea",
        "offset": 0,
        "slot": "331",
        "type": "t_address"
      },
      {
        "astId": 4209,
        "contract": "contracts/dreamers/ChainDreamers.sol:ChainDreamers",
        "label": "looksrare",
        "offset": 0,
        "slot": "332",
        "type": "t_address"
      },
      {
        "astId": 4213,
        "contract": "contracts/dreamers/ChainDreamers.sol:ChainDreamers",
        "label": "marketplacesApproved",
        "offset": 20,
        "slot": "332",
        "type": "t_bool"
      },
      {
        "astId": 4217,
        "contract": "contracts/dreamers/ChainDreamers.sol:ChainDreamers",
        "label": "proxyToApproved",
        "offset": 0,
        "slot": "333",
        "type": "t_mapping(t_address,t_bool)"
      },
      {
        "astId": 4322,
        "contract": "contracts/dreamers/ChainDreamers.sol:ChainDreamers",
        "label": "maxDreamersMintPublicSale",
        "offset": 0,
        "slot": "334",
        "type": "t_uint256"
      },
      {
        "astId": 4331,
        "contract": "contracts/dreamers/ChainDreamers.sol:ChainDreamers",
        "label": "foundersMinted",
        "offset": 0,
        "slot": "335",
        "type": "t_bool"
      },
      {
        "astId": 4333,
        "contract": "contracts/dreamers/ChainDreamers.sol:ChainDreamers",
        "label": "publicSaleStartTimestamp",
        "offset": 0,
        "slot": "336",
        "type": "t_uint256"
      }
    ],
    "types": {
      "t_address": {
        "encoding": "inplace",
        "label": "address",
        "numberOfBytes": "20"
      },
      "t_array(t_uint256)dyn_storage": {
        "base": "t_uint256",
        "encoding": "dynamic_array",
        "label": "uint256[]",
        "numberOfBytes": "32"
      },
      "t_array(t_uint8)10000_storage": {
        "base": "t_uint8",
        "encoding": "inplace",
        "label": "uint8[10000]",
        "numberOfBytes": "10016"
      },
      "t_bool": {
        "encoding": "inplace",
        "label": "bool",
        "numberOfBytes": "1"
      },
      "t_contract(ICandyShop)8218": {
        "encoding": "inplace",
        "label": "contract ICandyShop",
        "numberOfBytes": "20"
      },
      "t_contract(IChainRunners)8235": {
        "encoding": "inplace",
        "label": "contract IChainRunners",
        "numberOfBytes": "20"
      },
      "t_contract(IDreamersRenderer)8268": {
        "encoding": "inplace",
        "label": "contract IDreamersRenderer",
        "numberOfBytes": "20"
      },
      "t_mapping(t_address,t_bool)": {
        "encoding": "mapping",
        "key": "t_address",
        "label": "mapping(address => bool)",
        "numberOfBytes": "32",
        "value": "t_bool"
      },
      "t_mapping(t_address,t_mapping(t_address,t_bool))": {
        "encoding": "mapping",
        "key": "t_address",
        "label": "mapping(address => mapping(address => bool))",
        "numberOfBytes": "32",
        "value": "t_mapping(t_address,t_bool)"
      },
      "t_mapping(t_address,t_mapping(t_uint256,t_uint256))": {
        "encoding": "mapping",
        "key": "t_address",
        "label": "mapping(address => mapping(uint256 => uint256))",
        "numberOfBytes": "32",
        "value": "t_mapping(t_uint256,t_uint256)"
      },
      "t_mapping(t_address,t_uint256)": {
        "encoding": "mapping",
        "key": "t_address",
        "label": "mapping(address => uint256)",
        "numberOfBytes": "32",
        "value": "t_uint256"
      },
      "t_mapping(t_uint256,t_address)": {
        "encoding": "mapping",
        "key": "t_uint256",
        "label": "mapping(uint256 => address)",
        "numberOfBytes": "32",
        "value": "t_address"
      },
      "t_mapping(t_uint256,t_uint256)": {
        "encoding": "mapping",
        "key": "t_uint256",
        "label": "mapping(uint256 => uint256)",
        "numberOfBytes": "32",
        "value": "t_uint256"
      },
      "t_string_storage": {
        "encoding": "bytes",
        "label": "string",
        "numberOfBytes": "32"
      },
      "t_uint256": {
        "encoding": "inplace",
        "label": "uint256",
        "numberOfBytes": "32"
      },
      "t_uint8": {
        "encoding": "inplace",
        "label": "uint8",
        "numberOfBytes": "1"
      }
    }
  }
}