{
  "address": "0xd767Fb9f8a338C91fB9B5e29ecD8Cf9af7C2B630",
  "abi": [
    {
      "inputs": [
        {
          "internalType": "string",
          "name": "name_",
          "type": "string"
        },
        {
          "internalType": "string",
          "name": "symbol_",
          "type": "string"
        }
      ],
      "stateMutability": "nonpayable",
      "type": "constructor"
    },
    {
      "anonymous": false,
      "inputs": [
        {
          "indexed": true,
          "internalType": "address",
          "name": "owner",
          "type": "address"
        },
        {
          "indexed": true,
          "internalType": "address",
          "name": "approved",
          "type": "address"
        },
        {
          "indexed": true,
          "internalType": "uint256",
          "name": "tokenId",
          "type": "uint256"
        }
      ],
      "name": "Approval",
      "type": "event"
    },
    {
      "anonymous": false,
      "inputs": [
        {
          "indexed": true,
          "internalType": "address",
          "name": "owner",
          "type": "address"
        },
        {
          "indexed": true,
          "internalType": "address",
          "name": "operator",
          "type": "address"
        },
        {
          "indexed": false,
          "internalType": "bool",
          "name": "approved",
          "type": "bool"
        }
      ],
      "name": "ApprovalForAll",
      "type": "event"
    },
    {
      "anonymous": false,
      "inputs": [
        {
          "indexed": true,
          "internalType": "address",
          "name": "previousOwner",
          "type": "address"
        },
        {
          "indexed": true,
          "internalType": "address",
          "name": "newOwner",
          "type": "address"
        }
      ],
      "name": "OwnershipTransferred",
      "type": "event"
    },
    {
      "anonymous": false,
      "inputs": [
        {
          "indexed": true,
          "internalType": "address",
          "name": "from",
          "type": "address"
        },
        {
          "indexed": true,
          "internalType": "address",
          "name": "to",
          "type": "address"
        },
        {
          "indexed": true,
          "internalType": "uint256",
          "name": "tokenId",
          "type": "uint256"
        }
      ],
      "name": "Transfer",
      "type": "event"
    },
    {
      "inputs": [
        {
          "internalType": "address",
          "name": "to",
          "type": "address"
        },
        {
          "internalType": "uint256",
          "name": "tokenId",
          "type": "uint256"
        }
      ],
      "name": "approve",
      "outputs": [],
      "stateMutability": "nonpayable",
      "type": "function"
    },
    {
      "inputs": [
        {
          "internalType": "address",
          "name": "owner",
          "type": "address"
        }
      ],
      "name": "balanceOf",
      "outputs": [
        {
          "internalType": "uint256",
          "name": "",
          "type": "uint256"
        }
      ],
      "stateMutability": "view",
      "type": "function"
    },
    {
      "inputs": [],
      "name": "candyShopAddress",
      "outputs": [
        {
          "internalType": "address",
          "name": "",
          "type": "address"
        }
      ],
      "stateMutability": "view",
      "type": "function"
    },
    {
      "inputs": [],
      "name": "chainRunnersAddress",
      "outputs": [
        {
          "internalType": "address",
          "name": "",
          "type": "address"
        }
      ],
      "stateMutability": "view",
      "type": "function"
    },
    {
      "inputs": [
        {
          "internalType": "uint256",
          "name": "",
          "type": "uint256"
        }
      ],
      "name": "dreamers",
      "outputs": [
        {
          "internalType": "uint184",
          "name": "dna",
          "type": "uint184"
        }
      ],
      "stateMutability": "view",
      "type": "function"
    },
    {
      "inputs": [
        {
          "internalType": "address",
          "name": "",
          "type": "address"
        }
      ],
      "name": "dreamersMintedCounts",
      "outputs": [
        {
          "internalType": "uint256",
          "name": "",
          "type": "uint256"
        }
      ],
      "stateMutability": "view",
      "type": "function"
    },
    {
      "inputs": [
        {
          "internalType": "uint256",
          "name": "tokenId",
          "type": "uint256"
        }
      ],
      "name": "getApproved",
      "outputs": [
        {
          "internalType": "address",
          "name": "",
          "type": "address"
        }
      ],
      "stateMutability": "view",
      "type": "function"
    },
    {
      "inputs": [
        {
          "internalType": "address",
          "name": "owner",
          "type": "address"
        },
        {
          "internalType": "address",
          "name": "operator",
          "type": "address"
        }
      ],
      "name": "isApprovedForAll",
      "outputs": [
        {
          "internalType": "bool",
          "name": "",
          "type": "bool"
        }
      ],
      "stateMutability": "view",
      "type": "function"
    },
    {
      "inputs": [],
      "name": "isPublicSaleOpen",
      "outputs": [
        {
          "internalType": "bool",
          "name": "",
          "type": "bool"
        }
      ],
      "stateMutability": "view",
      "type": "function"
    },
    {
      "inputs": [],
      "name": "isRunnerAccessOpen",
      "outputs": [
        {
          "internalType": "bool",
          "name": "",
          "type": "bool"
        }
      ],
      "stateMutability": "view",
      "type": "function"
    },
    {
      "inputs": [
        {
          "internalType": "uint256",
          "name": "tokenId",
          "type": "uint256"
        }
      ],
      "name": "mint",
      "outputs": [],
      "stateMutability": "nonpayable",
      "type": "function"
    },
    {
      "inputs": [],
      "name": "name",
      "outputs": [
        {
          "internalType": "string",
          "name": "",
          "type": "string"
        }
      ],
      "stateMutability": "view",
      "type": "function"
    },
    {
      "inputs": [],
      "name": "owner",
      "outputs": [
        {
          "internalType": "address",
          "name": "",
          "type": "address"
        }
      ],
      "stateMutability": "view",
      "type": "function"
    },
    {
      "inputs": [
        {
          "internalType": "uint256",
          "name": "tokenId",
          "type": "uint256"
        }
      ],
      "name": "ownerOf",
      "outputs": [
        {
          "internalType": "address",
          "name": "",
          "type": "address"
        }
      ],
      "stateMutability": "view",
      "type": "function"
    },
    {
      "inputs": [],
      "name": "publicSaleStartTimestamp",
      "outputs": [
        {
          "internalType": "uint256",
          "name": "",
          "type": "uint256"
        }
      ],
      "stateMutability": "view",
      "type": "function"
    },
    {
      "inputs": [],
      "name": "renderingContractAddress",
      "outputs": [
        {
          "internalType": "address",
          "name": "",
          "type": "address"
        }
      ],
      "stateMutability": "view",
      "type": "function"
    },
    {
      "inputs": [],
      "name": "renounceOwnership",
      "outputs": [],
      "stateMutability": "nonpayable",
      "type": "function"
    },
    {
      "inputs": [],
      "name": "runnerAccessStartTimestamp",
      "outputs": [
        {
          "internalType": "uint256",
          "name": "",
          "type": "uint256"
        }
      ],
      "stateMutability": "view",
      "type": "function"
    },
    {
      "inputs": [
        {
          "internalType": "address",
          "name": "from",
          "type": "address"
        },
        {
          "internalType": "address",
          "name": "to",
          "type": "address"
        },
        {
          "internalType": "uint256",
          "name": "tokenId",
          "type": "uint256"
        }
      ],
      "name": "safeTransferFrom",
      "outputs": [],
      "stateMutability": "nonpayable",
      "type": "function"
    },
    {
      "inputs": [
        {
          "internalType": "address",
          "name": "from",
          "type": "address"
        },
        {
          "internalType": "address",
          "name": "to",
          "type": "address"
        },
        {
          "internalType": "uint256",
          "name": "tokenId",
          "type": "uint256"
        },
        {
          "internalType": "bytes",
          "name": "_data",
          "type": "bytes"
        }
      ],
      "name": "safeTransferFrom",
      "outputs": [],
      "stateMutability": "nonpayable",
      "type": "function"
    },
    {
      "inputs": [
        {
          "internalType": "address",
          "name": "operator",
          "type": "address"
        },
        {
          "internalType": "bool",
          "name": "approved",
          "type": "bool"
        }
      ],
      "name": "setApprovalForAll",
      "outputs": [],
      "stateMutability": "nonpayable",
      "type": "function"
    },
    {
      "inputs": [
        {
          "internalType": "address",
          "name": "_candyShopContractAddress",
          "type": "address"
        }
      ],
      "name": "setCandyShopContractAddress",
      "outputs": [],
      "stateMutability": "nonpayable",
      "type": "function"
    },
    {
      "inputs": [
        {
          "internalType": "address",
          "name": "_chainRunnersContractAddress",
          "type": "address"
        }
      ],
      "name": "setChainRunnersContractAddress",
      "outputs": [],
      "stateMutability": "nonpayable",
      "type": "function"
    },
    {
      "inputs": [
        {
          "internalType": "uint256",
          "name": "timestamp",
          "type": "uint256"
        }
      ],
      "name": "setPublicSaleTimestamp",
      "outputs": [],
      "stateMutability": "nonpayable",
      "type": "function"
    },
    {
      "inputs": [
        {
          "internalType": "address",
          "name": "_renderingContractAddress",
          "type": "address"
        }
      ],
      "name": "setRenderingContractAddress",
      "outputs": [],
      "stateMutability": "nonpayable",
      "type": "function"
    },
    {
      "inputs": [
        {
          "internalType": "uint256",
          "name": "timestamp",
          "type": "uint256"
        }
      ],
      "name": "setRunnerAccessTimestamp",
      "outputs": [],
      "stateMutability": "nonpayable",
      "type": "function"
    },
    {
      "inputs": [
        {
          "internalType": "bytes4",
          "name": "interfaceId",
          "type": "bytes4"
        }
      ],
      "name": "supportsInterface",
      "outputs": [
        {
          "internalType": "bool",
          "name": "",
          "type": "bool"
        }
      ],
      "stateMutability": "view",
      "type": "function"
    },
    {
      "inputs": [],
      "name": "symbol",
      "outputs": [
        {
          "internalType": "string",
          "name": "",
          "type": "string"
        }
      ],
      "stateMutability": "view",
      "type": "function"
    },
    {
      "inputs": [
        {
          "internalType": "uint256",
          "name": "index",
          "type": "uint256"
        }
      ],
      "name": "tokenByIndex",
      "outputs": [
        {
          "internalType": "uint256",
          "name": "",
          "type": "uint256"
        }
      ],
      "stateMutability": "view",
      "type": "function"
    },
    {
      "inputs": [
        {
          "internalType": "address",
          "name": "owner",
          "type": "address"
        },
        {
          "internalType": "uint256",
          "name": "index",
          "type": "uint256"
        }
      ],
      "name": "tokenOfOwnerByIndex",
      "outputs": [
        {
          "internalType": "uint256",
          "name": "",
          "type": "uint256"
        }
      ],
      "stateMutability": "view",
      "type": "function"
    },
    {
      "inputs": [
        {
          "internalType": "uint256",
          "name": "_tokenId",
          "type": "uint256"
        }
      ],
      "name": "tokenURI",
      "outputs": [
        {
          "internalType": "string",
          "name": "",
          "type": "string"
        }
      ],
      "stateMutability": "view",
      "type": "function"
    },
    {
      "inputs": [],
      "name": "totalSupply",
      "outputs": [
        {
          "internalType": "uint256",
          "name": "",
          "type": "uint256"
        }
      ],
      "stateMutability": "view",
      "type": "function"
    },
    {
      "inputs": [
        {
          "internalType": "address",
          "name": "from",
          "type": "address"
        },
        {
          "internalType": "address",
          "name": "to",
          "type": "address"
        },
        {
          "internalType": "uint256",
          "name": "tokenId",
          "type": "uint256"
        }
      ],
      "name": "transferFrom",
      "outputs": [],
      "stateMutability": "nonpayable",
      "type": "function"
    },
    {
      "inputs": [
        {
          "internalType": "address",
          "name": "newOwner",
          "type": "address"
        }
      ],
      "name": "transferOwnership",
      "outputs": [],
      "stateMutability": "nonpayable",
      "type": "function"
    },
    {
      "inputs": [],
      "name": "withdraw",
      "outputs": [],
      "stateMutability": "nonpayable",
      "type": "function"
    },
    {
      "stateMutability": "payable",
      "type": "receive"
    }
  ],
  "transactionHash": "0x57d47bc8c55eeb616a050d30ee21bd3d0dafd2265745476bb6a7fb193ea2ed51",
  "args": [
    "Chain Dreamers",
    "DRE"
  ],
  "numDeployments": 1,
  "solcInputHash": "a9616ff7df6c6682162af9a9881c1840",
  "bytecode": "0x60806040523480156200001157600080fd5b5060405162002923380380620029238339810160408190526200003491620001f9565b8151829082906200004d906000906020850190620000e3565b50805162000063906001906020840190620000e3565b505050620000806200007a6200008d60201b60201c565b62000091565b50506001600b5562000373565b3390565b600a80546001600160a01b038381166001600160a01b0319831681179093556040519116919082907f8be0079c531659141344cd1fd0a4f28419497f9722a3daafe3b4186f6b6457e090600090a35050565b828054620000f190620002e7565b90600052602060002090601f01602090048101928262000115576000855562000160565b82601f106200013057805160ff191683800117855562000160565b8280016001018555821562000160579182015b828111156200016057825182559160200191906001019062000143565b506200016e92915062000172565b5090565b5b808211156200016e576000815560010162000173565b6000620001a06200019a8462000287565b62000268565b905082815260208101848484011115620001b957600080fd5b620001c6848285620002b4565b509392505050565b600082601f830112620001df578081fd5b8151620001f184826020860162000189565b949350505050565b600080604083850312156200020c578182fd5b828201516001600160401b0381111562000224578283fd5b6200023285828601620001ce565b602085015190935090506001600160401b0381111562000250578182fd5b6200025e85828601620001ce565b9150509250929050565b60006200027460405190565b905062000282828262000318565b919050565b60006001600160401b03821115620002a357620002a36200035d565b601f19601f83011660200192915050565b60005b83811015620002d1578181015183820152602001620002b7565b83811115620002e1576000848401525b50505050565b600281046001821680620002fc57607f821691505b6020821081141562000312576200031262000347565b50919050565b601f19601f83011681016001600160401b03811182821017156200034057620003406200035d565b6040525050565b634e487b7160e01b600052602260045260246000fd5b634e487b7160e01b600052604160045260246000fd5b6125a080620003836000396000f3fe6080604052600436106102385760003560e01c8063715018a611610138578063b88d4fde116100b0578063d7822c991161007f578063f2fde38b11610064578063f2fde38b1461068f578063fa92261e146106af578063fac91323146106c557600080fd5b8063d7822c9914610630578063e985e9c51461064657600080fd5b8063b88d4fde146105b0578063c074f412146105d0578063c87b56dd146105f0578063d3d6005b1461061057600080fd5b806395d89b4111610107578063a16d8b8a116100ec578063a16d8b8a14610543578063a22cb46514610563578063b73db1321461058357600080fd5b806395d89b411461050e578063a0712d681461052357600080fd5b8063715018a6146104a65780638244927e146104bb5780638392d804146104d05780638da5cb5b146104f057600080fd5b806323b872dd116101cb5780634f6ccce71161019a57806354a572cd1161017f57806354a572cd146104465780636352211e1461046657806370a082311461048657600080fd5b80634f6ccce714610406578063511a96051461042657600080fd5b806323b872dd146103915780632f745c59146103b15780633ccfd60b146103d157806342842e0e146103e657600080fd5b8063095ea7b311610207578063095ea7b31461031c57806312b40a9f1461033e57806318160ddd1461035e5780631a6949e31461037c57600080fd5b806301ffc9a71461024457806306fdde031461027a57806307c5bde31461029c578063081812fc146102ef57600080fd5b3661023f57005b600080fd5b34801561025057600080fd5b5061026461025f366004611a9e565b6106e5565b604051610271919061225f565b60405180910390f35b34801561028657600080fd5b5061028f610741565b604051610271919061226d565b3480156102a857600080fd5b506102e26102b7366004611b0d565b600d6020526000908152604090205476ffffffffffffffffffffffffffffffffffffffffffffff1681565b60405161027191906123ae565b3480156102fb57600080fd5b5061030f61030a366004611b0d565b6107d3565b604051610271919061220d565b34801561032857600080fd5b5061033c610337366004611a70565b61082c565b005b34801561034a57600080fd5b5061033c610359366004611925565b6108b2565b34801561036a57600080fd5b506008545b60405161027191906123bc565b34801561038857600080fd5b50610264610915565b34801561039d57600080fd5b5061033c6103ac366004611981565b61092f565b3480156103bd57600080fd5b5061036f6103cc366004611a70565b610960565b3480156103dd57600080fd5b5061033c6109b2565b3480156103f257600080fd5b5061033c610401366004611981565b610a47565b34801561041257600080fd5b5061036f610421366004611b0d565b610a62565b34801561043257600080fd5b5061033c610441366004611b0d565b610abe565b34801561045257600080fd5b5061033c610461366004611925565b610aed565b34801561047257600080fd5b5061030f610481366004611b0d565b610b50565b34801561049257600080fd5b5061036f6104a1366004611925565b610b85565b3480156104b257600080fd5b5061033c610bc9565b3480156104c757600080fd5b50610264610bff565b3480156104dc57600080fd5b50600f5461030f906001600160a01b031681565b3480156104fc57600080fd5b50600a546001600160a01b031661030f565b34801561051a57600080fd5b5061028f610c28565b34801561052f57600080fd5b5061033c61053e366004611b0d565b610c37565b34801561054f57600080fd5b5061033c61055e366004611b0d565b610c41565b34801561056f57600080fd5b5061033c61057e366004611a42565b610c70565b34801561058f57600080fd5b5061036f61059e366004611925565b600c6020526000908152604090205481565b3480156105bc57600080fd5b5061033c6105cb3660046119cc565b610c7f565b3480156105dc57600080fd5b50600e5461030f906001600160a01b031681565b3480156105fc57600080fd5b5061028f61060b366004611b0d565b610cb7565b34801561061c57600080fd5b5061033c61062b366004611925565b610dd5565b34801561063c57600080fd5b5061036f60145481565b34801561065257600080fd5b50610264610661366004611949565b6001600160a01b03918216600090815260056020908152604080832093909416825291909152205460ff1690565b34801561069b57600080fd5b5061033c6106aa366004611925565b610e38565b3480156106bb57600080fd5b5061036f60155481565b3480156106d157600080fd5b5060105461030f906001600160a01b031681565b60007fffffffff0000000000000000000000000000000000000000000000000000000082167f780e9d6300000000000000000000000000000000000000000000000000000000148061073b575061073b82610e91565b92915050565b60606000805461075090612484565b80601f016020809104026020016040519081016040528092919081815260200182805461077c90612484565b80156107c95780601f1061079e576101008083540402835291602001916107c9565b820191906000526020600020905b8154815290600101906020018083116107ac57829003601f168201915b5050505050905090565b6000818152600260205260408120546001600160a01b03166108105760405162461bcd60e51b81526004016108079061232e565b60405180910390fd5b506000908152600460205260409020546001600160a01b031690565b600061083782610b50565b9050806001600160a01b0316836001600160a01b0316141561086b5760405162461bcd60e51b81526004016108079061236e565b336001600160a01b038216148061088757506108878133610661565b6108a35760405162461bcd60e51b8152600401610807906122ee565b6108ad8383610f74565b505050565b600a546001600160a01b031633146108dc5760405162461bcd60e51b81526004016108079061233e565b600e80546001600160a01b0390921673ffffffffffffffffffffffffffffffffffffffff19928316811790915560138054909216179055565b6000601454421015801561092a575060145415155b905090565b6109393382610fef565b6109555760405162461bcd60e51b81526004016108079061237e565b6108ad8383836110a1565b600061096b83610b85565b82106109895760405162461bcd60e51b81526004016108079061227e565b506001600160a01b03919091166000908152600660209081526040808320938352929052205490565b600a546001600160a01b031633146109dc5760405162461bcd60e51b81526004016108079061233e565b604051600090339047908381818185875af1925050503d8060008114610a1e576040519150601f19603f3d011682016040523d82523d6000602084013e610a23565b606091505b5050905080610a445760405162461bcd60e51b81526004016108079061239e565b50565b6108ad83838360405180602001604052806000815250610c7f565b6000610a6d60085490565b8210610a8b5760405162461bcd60e51b81526004016108079061238e565b60088281548110610aac57634e487b7160e01b600052603260045260246000fd5b90600052602060002001549050919050565b600a546001600160a01b03163314610ae85760405162461bcd60e51b81526004016108079061233e565b601455565b600a546001600160a01b03163314610b175760405162461bcd60e51b81526004016108079061233e565b601080546001600160a01b0390921673ffffffffffffffffffffffffffffffffffffffff19928316811790915560128054909216179055565b6000818152600260205260408120546001600160a01b03168061073b5760405162461bcd60e51b81526004016108079061230e565b60006001600160a01b038216610bad5760405162461bcd60e51b8152600401610807906122fe565b506001600160a01b031660009081526003602052604090205490565b600a546001600160a01b03163314610bf35760405162461bcd60e51b81526004016108079061233e565b610bfd60006111db565b565b6000610c09610915565b158015610c1857506015544210155b801561092a575050601554151590565b60606001805461075090612484565b610a44338261123a565b600a546001600160a01b03163314610c6b5760405162461bcd60e51b81526004016108079061233e565b601555565b610c7b338383611254565b5050565b610c893383610fef565b610ca55760405162461bcd60e51b81526004016108079061237e565b610cb184848484611315565b50505050565b6000818152600260205260409020546060906001600160a01b0316610cee5760405162461bcd60e51b81526004016108079061235e565b600e546001600160a01b0316610d1257505060408051602081019091526000815290565b6013546040517fb0dc78fa0000000000000000000000000000000000000000000000000000000081526001600160a01b039091169063b0dc78fa90610d5b9085906004016123bc565b60006040518083038186803b158015610d7357600080fd5b505afa158015610d87573d6000803e3d6000fd5b505050506040513d6000823e601f3d908101601f19168201604052610daf9190810190611ad8565b604051602001610dbf9190612184565b6040516020818303038152906040529050919050565b600a546001600160a01b03163314610dff5760405162461bcd60e51b81526004016108079061233e565b600f80546001600160a01b0390921673ffffffffffffffffffffffffffffffffffffffff19928316811790915560118054909216179055565b600a546001600160a01b03163314610e625760405162461bcd60e51b81526004016108079061233e565b6001600160a01b038116610e885760405162461bcd60e51b81526004016108079061229e565b610a44816111db565b60007fffffffff0000000000000000000000000000000000000000000000000000000082167f80ac58cd000000000000000000000000000000000000000000000000000000001480610f2457507fffffffff0000000000000000000000000000000000000000000000000000000082167f5b5e139f00000000000000000000000000000000000000000000000000000000145b8061073b57507f01ffc9a7000000000000000000000000000000000000000000000000000000007fffffffff0000000000000000000000000000000000000000000000000000000083161461073b565b6000818152600460205260409020805473ffffffffffffffffffffffffffffffffffffffff19166001600160a01b0384169081179091558190610fb682610b50565b6001600160a01b03167f8c5be1e5ebec7d5bd14f71427d1e84f3dd0314c0f7b2291e5b200ac8c7c3b92560405160405180910390a45050565b6000818152600260205260408120546001600160a01b03166110235760405162461bcd60e51b8152600401610807906122de565b600061102e83610b50565b9050806001600160a01b0316846001600160a01b031614806110695750836001600160a01b031661105e846107d3565b6001600160a01b0316145b8061109957506001600160a01b0380821660009081526005602090815260408083209388168352929052205460ff165b949350505050565b826001600160a01b03166110b482610b50565b6001600160a01b0316146110da5760405162461bcd60e51b81526004016108079061234e565b6001600160a01b0382166111005760405162461bcd60e51b8152600401610807906122be565b61110b838383611348565b611116600082610f74565b6001600160a01b038316600090815260036020526040812080546001929061113f908490612424565b90915550506001600160a01b038216600090815260036020526040812080546001929061116d90849061240c565b9091555050600081815260026020526040808220805473ffffffffffffffffffffffffffffffffffffffff19166001600160a01b0386811691821790925591518493918716917fddf252ad1be2c89b69c2b068fc378daa952ba7f163c4a11628f55a4df523b3ef91a4505050565b600a80546001600160a01b0383811673ffffffffffffffffffffffffffffffffffffffff19831681179093556040519116919082907f8be0079c531659141344cd1fd0a4f28419497f9722a3daafe3b4186f6b6457e090600090a35050565b610c7b828260405180602001604052806000815250611400565b816001600160a01b0316836001600160a01b031614156112865760405162461bcd60e51b8152600401610807906122ce565b6001600160a01b038381166000818152600560209081526040808320948716808452949091529081902080547fffffffffffffffffffffffffffffffffffffffffffffffffffffffffffffff0016851515179055517f17307eab39ab6107e8899845ad3d59bd9653f200f220920489ca2b5937696c319061130890859061225f565b60405180910390a3505050565b6113208484846110a1565b61132c84848484611433565b610cb15760405162461bcd60e51b81526004016108079061228e565b6001600160a01b0383166113a35761139e81600880546000838152600960205260408120829055600182018355919091527ff3f7a9fe364faab93b216da50a3214154f22a0a2b415b23a84c8169e8b636ee30155565b6113c6565b816001600160a01b0316836001600160a01b0316146113c6576113c6838261158a565b6001600160a01b0382166113dd576108ad81611627565b826001600160a01b0316826001600160a01b0316146108ad576108ad8282611700565b61140a8383611744565b6114176000848484611433565b6108ad5760405162461bcd60e51b81526004016108079061228e565b60006001600160a01b0384163b1561157f576040517f150b7a020000000000000000000000000000000000000000000000000000000081526001600160a01b0385169063150b7a029061149090339089908890889060040161221b565b602060405180830381600087803b1580156114aa57600080fd5b505af19250505080156114da575060408051601f3d908101601f191682019092526114d791810190611abb565b60015b611534573d808015611508576040519150601f19603f3d011682016040523d82523d6000602084013e61150d565b606091505b50805161152c5760405162461bcd60e51b81526004016108079061228e565b805181602001fd5b7fffffffff00000000000000000000000000000000000000000000000000000000167f150b7a0200000000000000000000000000000000000000000000000000000000149050611099565b506001949350505050565b6000600161159784610b85565b6115a19190612424565b6000838152600760205260409020549091508082146115f4576001600160a01b03841660009081526006602090815260408083208584528252808320548484528184208190558352600790915290208190555b5060009182526007602090815260408084208490556001600160a01b039094168352600681528383209183525290812055565b60085460009061163990600190612424565b6000838152600960205260408120546008805493945090928490811061166f57634e487b7160e01b600052603260045260246000fd5b90600052602060002001549050806008838154811061169e57634e487b7160e01b600052603260045260246000fd5b60009182526020808320909101929092558281526009909152604080822084905585825281205560088054806116e457634e487b7160e01b600052603160045260246000fd5b6001900381819060005260206000200160009055905550505050565b600061170b83610b85565b6001600160a01b039093166000908152600660209081526040808320868452825280832085905593825260079052919091209190915550565b6001600160a01b03821661176a5760405162461bcd60e51b81526004016108079061231e565b6000818152600260205260409020546001600160a01b03161561179f5760405162461bcd60e51b8152600401610807906122ae565b6117ab60008383611348565b6001600160a01b03821660009081526003602052604081208054600192906117d490849061240c565b9091555050600081815260026020526040808220805473ffffffffffffffffffffffffffffffffffffffff19166001600160a01b03861690811790915590518392907fddf252ad1be2c89b69c2b068fc378daa952ba7f163c4a11628f55a4df523b3ef908290a45050565b600061185261184d846123e1565b6123ca565b90508281526020810184848401111561186a57600080fd5b61187584828561244c565b509392505050565b600061188b61184d846123e1565b9050828152602081018484840111156118a357600080fd5b611875848285612458565b803561073b81612520565b803561073b81612534565b803561073b8161253c565b805161073b8161253c565b600082601f8301126118ea578081fd5b813561109984826020860161183f565b600082601f83011261190a578081fd5b815161109984826020860161187d565b803561073b81612564565b600060208284031215611936578081fd5b611942838284016118ae565b9392505050565b6000806040838503121561195b578081fd5b611967848285016118ae565b91506020611977858286016118ae565b9150509250929050565b600080600060608486031215611995578081fd5b6119a1858286016118ae565b925060206119b1868287016118ae565b92505060406119c28682870161191a565b9150509250925092565b600080600080608085870312156119e1578081fd5b6119ed868287016118ae565b935060206119fd878288016118ae565b9350506040611a0e8782880161191a565b925050606085013567ffffffffffffffff811115611a2a578182fd5b611a36878288016118da565b91505092959194509250565b60008060408385031215611a54578182fd5b611a60848385016118ae565b91506020611977858286016118b9565b60008060408385031215611a82578182fd5b611a8e848385016118ae565b915060206119778582860161191a565b600060208284031215611aaf578081fd5b611942838284016118c4565b600060208284031215611acc578081fd5b611942838284016118cf565b600060208284031215611ae9578081fd5b8082015167ffffffffffffffff811115611b01578182fd5b611099848285016118fa565b600060208284031215611b1e578081fd5b6119428382840161191a565b611b338161243b565b82525050565b801515611b33565b6000611b4b825190565b808452602084019350611b62818560208601612458565b601f01601f19169290920192915050565b6000611b7d825190565b611b8b818560208601612458565b9290920192915050565b602b8152602081017f455243373231456e756d657261626c653a206f776e657220696e646578206f7581527f74206f6620626f756e6473000000000000000000000000000000000000000000602082015290505b60400190565b60328152602081017f4552433732313a207472616e7366657220746f206e6f6e20455243373231526581527f63656976657220696d706c656d656e746572000000000000000000000000000060208201529050611be9565b60268152602081017f4f776e61626c653a206e6577206f776e657220697320746865207a65726f206181527f646472657373000000000000000000000000000000000000000000000000000060208201529050611be9565b601c8152602081017f4552433732313a20746f6b656e20616c7265616479206d696e74656400000000815290505b60200190565b60248152602081017f4552433732313a207472616e7366657220746f20746865207a65726f2061646481527f726573730000000000000000000000000000000000000000000000000000000060208201529050611be9565b60198152602081017f4552433732313a20617070726f766520746f2063616c6c65720000000000000081529050611ccd565b602c8152602081017f4552433732313a206f70657261746f7220717565727920666f72206e6f6e657881527f697374656e7420746f6b656e000000000000000000000000000000000000000060208201529050611be9565b60388152602081017f4552433732313a20617070726f76652063616c6c6572206973206e6f74206f7781527f6e6572206e6f7220617070726f76656420666f7220616c6c000000000000000060208201529050611be9565b602a8152602081017f4552433732313a2062616c616e636520717565727920666f7220746865207a6581527f726f20616464726573730000000000000000000000000000000000000000000060208201529050611be9565b60298152602081017f4552433732313a206f776e657220717565727920666f72206e6f6e657869737481527f656e7420746f6b656e000000000000000000000000000000000000000000000060208201529050611be9565b60208082527f4552433732313a206d696e7420746f20746865207a65726f20616464726573739101908152611ccd565b602c8152602081017f4552433732313a20617070726f76656420717565727920666f72206e6f6e657881527f697374656e7420746f6b656e000000000000000000000000000000000000000060208201529050611be9565b60208082527f4f776e61626c653a2063616c6c6572206973206e6f7420746865206f776e65729101908152611ccd565b60298152602081017f4552433732313a207472616e73666572206f6620746f6b656e2074686174206981527f73206e6f74206f776e000000000000000000000000000000000000000000000060208201529050611be9565b602f8152602081017f4552433732314d657461646174613a2055524920717565727920666f72206e6f81527f6e6578697374656e7420746f6b656e000000000000000000000000000000000060208201529050611be9565b60218152602081017f4552433732313a20617070726f76616c20746f2063757272656e74206f776e6581527f720000000000000000000000000000000000000000000000000000000000000060208201529050611be9565b60318152602081017f4552433732313a207472616e736665722063616c6c6572206973206e6f74206f81527f776e6572206e6f7220617070726f76656400000000000000000000000000000060208201529050611be9565b602c8152602081017f455243373231456e756d657261626c653a20676c6f62616c20696e646578206f81527f7574206f6620626f756e6473000000000000000000000000000000000000000060208201529050611be9565b60118152602081017f5769746864726177616c206661696c656400000000000000000000000000000081529050611ccd565b76ffffffffffffffffffffffffffffffffffffffffffffff8116611b33565b80611b33565b7f646174613a6170706c69636174696f6e2f6a736f6e2c7b22696d6167655f757281527f69223a646174613a696d6167652f7376672b786d6c3b7574662d3800000000006020820152603b016121da8183611b73565b7f7d00000000000000000000000000000000000000000000000000000000000000815290506001810161073b565b919050565b6020810161073b8284611b2a565b608081016122298287611b2a565b6122366020830186611b2a565b612243604083018561217e565b81810360608301526122558184611b41565b9695505050505050565b6020810161073b8284611b39565b602080825281016119428184611b41565b6020808252810161073b81611b95565b6020808252810161073b81611bef565b6020808252810161073b81611c47565b6020808252810161073b81611c9f565b6020808252810161073b81611cd3565b6020808252810161073b81611d2b565b6020808252810161073b81611d5d565b6020808252810161073b81611db5565b6020808252810161073b81611e0d565b6020808252810161073b81611e65565b6020808252810161073b81611ebd565b6020808252810161073b81611eed565b6020808252810161073b81611f45565b6020808252810161073b81611f75565b6020808252810161073b81611fcd565b6020808252810161073b81612025565b6020808252810161073b8161207d565b6020808252810161073b816120d5565b6020808252810161073b8161212d565b6020810161073b828461215f565b6020810161073b828461217e565b60006123d560405190565b905061220882826124b1565b600067ffffffffffffffff8211156123fb576123fb61250a565b601f19601f83011660200192915050565b6000821982111561241f5761241f6124de565b500190565b600082821015612436576124366124de565b500390565b60006001600160a01b03821661073b565b82818337506000910152565b60005b8381101561247357818101518382015260200161245b565b83811115610cb15750506000910152565b60028104600182168061249857607f821691505b602082108114156124ab576124ab6124f4565b50919050565b601f19601f830116810181811067ffffffffffffffff821117156124d7576124d761250a565b6040525050565b634e487b7160e01b600052601160045260246000fd5b634e487b7160e01b600052602260045260246000fd5b634e487b7160e01b600052604160045260246000fd5b6125298161243b565b8114610a4457600080fd5b801515612529565b7fffffffff000000000000000000000000000000000000000000000000000000008116612529565b8061252956fea2646970667358221220463dbae48bb2174e9119172364b41ac2f92578d268e1cbf2eacbd6756d32f75f64736f6c63430008040033",
  "devdoc": {
    "kind": "dev",
    "methods": {
      "approve(address,uint256)": {
        "details": "See {IERC721-approve}."
      },
      "balanceOf(address)": {
        "details": "See {IERC721-balanceOf}."
      },
      "getApproved(uint256)": {
        "details": "See {IERC721-getApproved}."
      },
      "isApprovedForAll(address,address)": {
        "details": "See {IERC721-isApprovedForAll}."
      },
      "name()": {
        "details": "See {IERC721Metadata-name}."
      },
      "owner()": {
        "details": "Returns the address of the current owner."
      },
      "ownerOf(uint256)": {
        "details": "See {IERC721-ownerOf}."
      },
      "renounceOwnership()": {
        "details": "Leaves the contract without owner. It will not be possible to call `onlyOwner` functions anymore. Can only be called by the current owner. NOTE: Renouncing ownership will leave the contract without an owner, thereby removing any functionality that is only available to the owner."
      },
      "safeTransferFrom(address,address,uint256)": {
        "details": "See {IERC721-safeTransferFrom}."
      },
      "safeTransferFrom(address,address,uint256,bytes)": {
        "details": "See {IERC721-safeTransferFrom}."
      },
      "setApprovalForAll(address,bool)": {
        "details": "See {IERC721-setApprovalForAll}."
      },
      "supportsInterface(bytes4)": {
        "details": "See {IERC165-supportsInterface}."
      },
      "symbol()": {
        "details": "See {IERC721Metadata-symbol}."
      },
      "tokenByIndex(uint256)": {
        "details": "See {IERC721Enumerable-tokenByIndex}."
      },
      "tokenOfOwnerByIndex(address,uint256)": {
        "details": "See {IERC721Enumerable-tokenOfOwnerByIndex}."
      },
      "totalSupply()": {
        "details": "See {IERC721Enumerable-totalSupply}."
      },
      "transferFrom(address,address,uint256)": {
        "details": "See {IERC721-transferFrom}."
      },
      "transferOwnership(address)": {
        "details": "Transfers ownership of the contract to a new account (`newOwner`). Can only be called by the current owner."
      }
    },
    "version": 1
  },
  "userdoc": {
    "kind": "user",
    "methods": {},
    "version": 1
  },
  "storageLayout": {
    "storage": [
      {
        "astId": 1662,
        "contract": "contracts/dreamers/ChainDreamers.sol:ChainDreamers",
        "label": "_name",
        "offset": 0,
        "slot": "0",
        "type": "t_string_storage"
      },
      {
        "astId": 1664,
        "contract": "contracts/dreamers/ChainDreamers.sol:ChainDreamers",
        "label": "_symbol",
        "offset": 0,
        "slot": "1",
        "type": "t_string_storage"
      },
      {
        "astId": 1668,
        "contract": "contracts/dreamers/ChainDreamers.sol:ChainDreamers",
        "label": "_owners",
        "offset": 0,
        "slot": "2",
        "type": "t_mapping(t_uint256,t_address)"
      },
      {
        "astId": 1672,
        "contract": "contracts/dreamers/ChainDreamers.sol:ChainDreamers",
        "label": "_balances",
        "offset": 0,
        "slot": "3",
        "type": "t_mapping(t_address,t_uint256)"
      },
      {
        "astId": 1676,
        "contract": "contracts/dreamers/ChainDreamers.sol:ChainDreamers",
        "label": "_tokenApprovals",
        "offset": 0,
        "slot": "4",
        "type": "t_mapping(t_uint256,t_address)"
      },
      {
        "astId": 1682,
        "contract": "contracts/dreamers/ChainDreamers.sol:ChainDreamers",
        "label": "_operatorApprovals",
        "offset": 0,
        "slot": "5",
        "type": "t_mapping(t_address,t_mapping(t_address,t_bool))"
      },
      {
        "astId": 2616,
        "contract": "contracts/dreamers/ChainDreamers.sol:ChainDreamers",
        "label": "_ownedTokens",
        "offset": 0,
        "slot": "6",
        "type": "t_mapping(t_address,t_mapping(t_uint256,t_uint256))"
      },
      {
        "astId": 2620,
        "contract": "contracts/dreamers/ChainDreamers.sol:ChainDreamers",
        "label": "_ownedTokensIndex",
        "offset": 0,
        "slot": "7",
        "type": "t_mapping(t_uint256,t_uint256)"
      },
      {
        "astId": 2623,
        "contract": "contracts/dreamers/ChainDreamers.sol:ChainDreamers",
        "label": "_allTokens",
        "offset": 0,
        "slot": "8",
        "type": "t_array(t_uint256)dyn_storage"
      },
      {
        "astId": 2627,
        "contract": "contracts/dreamers/ChainDreamers.sol:ChainDreamers",
        "label": "_allTokensIndex",
        "offset": 0,
        "slot": "9",
        "type": "t_mapping(t_uint256,t_uint256)"
      },
      {
        "astId": 225,
        "contract": "contracts/dreamers/ChainDreamers.sol:ChainDreamers",
        "label": "_owner",
        "offset": 0,
        "slot": "10",
        "type": "t_address"
      },
      {
        "astId": 333,
        "contract": "contracts/dreamers/ChainDreamers.sol:ChainDreamers",
        "label": "_status",
        "offset": 0,
        "slot": "11",
        "type": "t_uint256"
      },
      {
        "astId": 4369,
        "contract": "contracts/dreamers/ChainDreamers.sol:ChainDreamers",
        "label": "dreamersMintedCounts",
        "offset": 0,
        "slot": "12",
        "type": "t_mapping(t_address,t_uint256)"
      },
      {
        "astId": 4374,
        "contract": "contracts/dreamers/ChainDreamers.sol:ChainDreamers",
        "label": "dreamers",
        "offset": 0,
        "slot": "13",
        "type": "t_mapping(t_uint256,t_struct(ChainDreamer)4365_storage)"
      },
      {
        "astId": 4376,
        "contract": "contracts/dreamers/ChainDreamers.sol:ChainDreamers",
        "label": "renderingContractAddress",
        "offset": 0,
        "slot": "14",
        "type": "t_address"
      },
      {
        "astId": 4378,
        "contract": "contracts/dreamers/ChainDreamers.sol:ChainDreamers",
        "label": "chainRunnersAddress",
        "offset": 0,
        "slot": "15",
        "type": "t_address"
      },
      {
        "astId": 4380,
        "contract": "contracts/dreamers/ChainDreamers.sol:ChainDreamers",
        "label": "candyShopAddress",
        "offset": 0,
        "slot": "16",
        "type": "t_address"
      },
      {
        "astId": 4383,
        "contract": "contracts/dreamers/ChainDreamers.sol:ChainDreamers",
        "label": "chainRunners",
        "offset": 0,
        "slot": "17",
        "type": "t_contract(ERC721Enumerable)2939"
      },
      {
        "astId": 4386,
        "contract": "contracts/dreamers/ChainDreamers.sol:ChainDreamers",
        "label": "candyShop",
        "offset": 0,
        "slot": "18",
        "type": "t_contract(IERC1155)1580"
      },
      {
        "astId": 4389,
        "contract": "contracts/dreamers/ChainDreamers.sol:ChainDreamers",
        "label": "renderer",
        "offset": 0,
        "slot": "19",
        "type": "t_contract(IDreamersRenderer)7608"
      },
      {
        "astId": 4394,
        "contract": "contracts/dreamers/ChainDreamers.sol:ChainDreamers",
        "label": "publicSaleStartTimestamp",
        "offset": 0,
        "slot": "20",
        "type": "t_uint256"
      },
      {
        "astId": 4396,
        "contract": "contracts/dreamers/ChainDreamers.sol:ChainDreamers",
        "label": "runnerAccessStartTimestamp",
        "offset": 0,
        "slot": "21",
        "type": "t_uint256"
      }
    ],
    "types": {
      "t_address": {
        "encoding": "inplace",
        "label": "address",
        "numberOfBytes": "20"
      },
      "t_array(t_uint256)dyn_storage": {
        "base": "t_uint256",
        "encoding": "dynamic_array",
        "label": "uint256[]",
        "numberOfBytes": "32"
      },
      "t_bool": {
        "encoding": "inplace",
        "label": "bool",
        "numberOfBytes": "1"
      },
      "t_contract(ERC721Enumerable)2939": {
        "encoding": "inplace",
        "label": "contract ERC721Enumerable",
        "numberOfBytes": "20"
      },
      "t_contract(IDreamersRenderer)7608": {
        "encoding": "inplace",
        "label": "contract IDreamersRenderer",
        "numberOfBytes": "20"
      },
      "t_contract(IERC1155)1580": {
        "encoding": "inplace",
        "label": "contract IERC1155",
        "numberOfBytes": "20"
      },
      "t_mapping(t_address,t_bool)": {
        "encoding": "mapping",
        "key": "t_address",
        "label": "mapping(address => bool)",
        "numberOfBytes": "32",
        "value": "t_bool"
      },
      "t_mapping(t_address,t_mapping(t_address,t_bool))": {
        "encoding": "mapping",
        "key": "t_address",
        "label": "mapping(address => mapping(address => bool))",
        "numberOfBytes": "32",
        "value": "t_mapping(t_address,t_bool)"
      },
      "t_mapping(t_address,t_mapping(t_uint256,t_uint256))": {
        "encoding": "mapping",
        "key": "t_address",
        "label": "mapping(address => mapping(uint256 => uint256))",
        "numberOfBytes": "32",
        "value": "t_mapping(t_uint256,t_uint256)"
      },
      "t_mapping(t_address,t_uint256)": {
        "encoding": "mapping",
        "key": "t_address",
        "label": "mapping(address => uint256)",
        "numberOfBytes": "32",
        "value": "t_uint256"
      },
      "t_mapping(t_uint256,t_address)": {
        "encoding": "mapping",
        "key": "t_uint256",
        "label": "mapping(uint256 => address)",
        "numberOfBytes": "32",
        "value": "t_address"
      },
      "t_mapping(t_uint256,t_struct(ChainDreamer)4365_storage)": {
        "encoding": "mapping",
        "key": "t_uint256",
        "label": "mapping(uint256 => struct ChainDreamers.ChainDreamer)",
        "numberOfBytes": "32",
        "value": "t_struct(ChainDreamer)4365_storage"
      },
      "t_mapping(t_uint256,t_uint256)": {
        "encoding": "mapping",
        "key": "t_uint256",
        "label": "mapping(uint256 => uint256)",
        "numberOfBytes": "32",
        "value": "t_uint256"
      },
      "t_string_storage": {
        "encoding": "bytes",
        "label": "string",
        "numberOfBytes": "32"
      },
      "t_struct(ChainDreamer)4365_storage": {
        "encoding": "inplace",
        "label": "struct ChainDreamers.ChainDreamer",
        "members": [
          {
            "astId": 4364,
            "contract": "contracts/dreamers/ChainDreamers.sol:ChainDreamers",
            "label": "dna",
            "offset": 0,
            "slot": "0",
            "type": "t_uint184"
          }
        ],
        "numberOfBytes": "32"
      },
      "t_uint184": {
        "encoding": "inplace",
        "label": "uint184",
        "numberOfBytes": "23"
      },
      "t_uint256": {
        "encoding": "inplace",
        "label": "uint256",
        "numberOfBytes": "32"
      }
    }
  }
}