{
  "address": "0xEE0451Abc83D1971956da4b1647DC8187178Cd4F",
  "abi": [
    {
      "inputs": [
        {
          "internalType": "string",
          "name": "name_",
          "type": "string"
        },
        {
          "internalType": "string",
          "name": "symbol_",
          "type": "string"
        }
      ],
      "stateMutability": "nonpayable",
      "type": "constructor"
    },
    {
      "anonymous": false,
      "inputs": [
        {
          "indexed": true,
          "internalType": "address",
          "name": "owner",
          "type": "address"
        },
        {
          "indexed": true,
          "internalType": "address",
          "name": "approved",
          "type": "address"
        },
        {
          "indexed": true,
          "internalType": "uint256",
          "name": "tokenId",
          "type": "uint256"
        }
      ],
      "name": "Approval",
      "type": "event"
    },
    {
      "anonymous": false,
      "inputs": [
        {
          "indexed": true,
          "internalType": "address",
          "name": "owner",
          "type": "address"
        },
        {
          "indexed": true,
          "internalType": "address",
          "name": "operator",
          "type": "address"
        },
        {
          "indexed": false,
          "internalType": "bool",
          "name": "approved",
          "type": "bool"
        }
      ],
      "name": "ApprovalForAll",
      "type": "event"
    },
    {
      "anonymous": false,
      "inputs": [
        {
          "indexed": true,
          "internalType": "address",
          "name": "previousOwner",
          "type": "address"
        },
        {
          "indexed": true,
          "internalType": "address",
          "name": "newOwner",
          "type": "address"
        }
      ],
      "name": "OwnershipTransferred",
      "type": "event"
    },
    {
      "anonymous": false,
      "inputs": [
        {
          "indexed": true,
          "internalType": "address",
          "name": "from",
          "type": "address"
        },
        {
          "indexed": true,
          "internalType": "address",
          "name": "to",
          "type": "address"
        },
        {
          "indexed": true,
          "internalType": "uint256",
          "name": "tokenId",
          "type": "uint256"
        }
      ],
      "name": "Transfer",
      "type": "event"
    },
    {
      "inputs": [],
      "name": "MINT_PUBLIC_PRICE",
      "outputs": [
        {
          "internalType": "uint256",
          "name": "",
          "type": "uint256"
        }
      ],
      "stateMutability": "view",
      "type": "function"
    },
    {
      "inputs": [
        {
          "internalType": "address",
          "name": "to",
          "type": "address"
        },
        {
          "internalType": "uint256",
          "name": "tokenId",
          "type": "uint256"
        }
      ],
      "name": "approve",
      "outputs": [],
      "stateMutability": "nonpayable",
      "type": "function"
    },
    {
      "inputs": [
        {
          "internalType": "address",
          "name": "owner",
          "type": "address"
        }
      ],
      "name": "balanceOf",
      "outputs": [
        {
          "internalType": "uint256",
          "name": "",
          "type": "uint256"
        }
      ],
      "stateMutability": "view",
      "type": "function"
    },
    {
      "inputs": [],
      "name": "candyShopAddress",
      "outputs": [
        {
          "internalType": "address",
          "name": "",
          "type": "address"
        }
      ],
      "stateMutability": "view",
      "type": "function"
    },
    {
      "inputs": [],
      "name": "chainRunnersAddress",
      "outputs": [
        {
          "internalType": "address",
          "name": "",
          "type": "address"
        }
      ],
      "stateMutability": "view",
      "type": "function"
    },
    {
      "inputs": [
        {
          "internalType": "uint256",
          "name": "",
          "type": "uint256"
        }
      ],
      "name": "dreamers",
      "outputs": [
        {
          "internalType": "uint8",
          "name": "dna",
          "type": "uint8"
        }
      ],
      "stateMutability": "view",
      "type": "function"
    },
    {
      "inputs": [
        {
          "internalType": "uint256",
          "name": "tokenId",
          "type": "uint256"
        }
      ],
      "name": "getApproved",
      "outputs": [
        {
          "internalType": "address",
          "name": "",
          "type": "address"
        }
      ],
      "stateMutability": "view",
      "type": "function"
    },
    {
      "inputs": [
        {
          "internalType": "address",
          "name": "owner",
          "type": "address"
        },
        {
          "internalType": "address",
          "name": "operator",
          "type": "address"
        }
      ],
      "name": "isApprovedForAll",
      "outputs": [
        {
          "internalType": "bool",
          "name": "",
          "type": "bool"
        }
      ],
      "stateMutability": "view",
      "type": "function"
    },
    {
      "inputs": [],
      "name": "isPublicSaleOpen",
      "outputs": [
        {
          "internalType": "bool",
          "name": "",
          "type": "bool"
        }
      ],
      "stateMutability": "view",
      "type": "function"
    },
    {
      "inputs": [],
      "name": "maxDreamersMintPublicSale",
      "outputs": [
        {
          "internalType": "uint256",
          "name": "",
          "type": "uint256"
        }
      ],
      "stateMutability": "view",
      "type": "function"
    },
    {
      "inputs": [
        {
          "internalType": "bytes",
          "name": "tokenIds",
          "type": "bytes"
        },
        {
          "internalType": "bytes",
          "name": "ownerTokenIndexes",
          "type": "bytes"
        }
      ],
      "name": "mintBatchPublicSale",
      "outputs": [
        {
          "internalType": "bool",
          "name": "",
          "type": "bool"
        }
      ],
      "stateMutability": "payable",
      "type": "function"
    },
    {
      "inputs": [
        {
          "internalType": "bytes",
          "name": "tokenIds",
          "type": "bytes"
        },
        {
          "internalType": "bytes",
          "name": "ownerTokenIndexes",
          "type": "bytes"
        },
        {
          "internalType": "bytes",
          "name": "candyIdsBytes",
          "type": "bytes"
        },
        {
          "internalType": "uint256[]",
          "name": "candyIds",
          "type": "uint256[]"
        },
        {
          "internalType": "uint256[]",
          "name": "candyAmounts",
          "type": "uint256[]"
        }
      ],
      "name": "mintBatchRunnersAccess",
      "outputs": [
        {
          "internalType": "bool",
          "name": "",
          "type": "bool"
        }
      ],
      "stateMutability": "nonpayable",
      "type": "function"
    },
    {
      "inputs": [],
      "name": "name",
      "outputs": [
        {
          "internalType": "string",
          "name": "",
          "type": "string"
        }
      ],
      "stateMutability": "view",
      "type": "function"
    },
    {
      "inputs": [],
      "name": "owner",
      "outputs": [
        {
          "internalType": "address",
          "name": "",
          "type": "address"
        }
      ],
      "stateMutability": "view",
      "type": "function"
    },
    {
      "inputs": [
        {
          "internalType": "uint256",
          "name": "tokenId",
          "type": "uint256"
        }
      ],
      "name": "ownerOf",
      "outputs": [
        {
          "internalType": "address",
          "name": "",
          "type": "address"
        }
      ],
      "stateMutability": "view",
      "type": "function"
    },
    {
      "inputs": [],
      "name": "publicSaleStartTimestamp",
      "outputs": [
        {
          "internalType": "uint256",
          "name": "",
          "type": "uint256"
        }
      ],
      "stateMutability": "view",
      "type": "function"
    },
    {
      "inputs": [],
      "name": "renderingContractAddress",
      "outputs": [
        {
          "internalType": "address",
          "name": "",
          "type": "address"
        }
      ],
      "stateMutability": "view",
      "type": "function"
    },
    {
      "inputs": [],
      "name": "renounceOwnership",
      "outputs": [],
      "stateMutability": "nonpayable",
      "type": "function"
    },
    {
      "inputs": [
        {
          "internalType": "address",
          "name": "from",
          "type": "address"
        },
        {
          "internalType": "address",
          "name": "to",
          "type": "address"
        },
        {
          "internalType": "uint256",
          "name": "tokenId",
          "type": "uint256"
        }
      ],
      "name": "safeTransferFrom",
      "outputs": [],
      "stateMutability": "nonpayable",
      "type": "function"
    },
    {
      "inputs": [
        {
          "internalType": "address",
          "name": "from",
          "type": "address"
        },
        {
          "internalType": "address",
          "name": "to",
          "type": "address"
        },
        {
          "internalType": "uint256",
          "name": "tokenId",
          "type": "uint256"
        },
        {
          "internalType": "bytes",
          "name": "_data",
          "type": "bytes"
        }
      ],
      "name": "safeTransferFrom",
      "outputs": [],
      "stateMutability": "nonpayable",
      "type": "function"
    },
    {
      "inputs": [
        {
          "internalType": "address",
          "name": "operator",
          "type": "address"
        },
        {
          "internalType": "bool",
          "name": "approved",
          "type": "bool"
        }
      ],
      "name": "setApprovalForAll",
      "outputs": [],
      "stateMutability": "nonpayable",
      "type": "function"
    },
    {
      "inputs": [
        {
          "internalType": "address",
          "name": "_candyShopContractAddress",
          "type": "address"
        }
      ],
      "name": "setCandyShopAddress",
      "outputs": [],
      "stateMutability": "nonpayable",
      "type": "function"
    },
    {
      "inputs": [
        {
          "internalType": "address",
          "name": "_chainRunnersContractAddress",
          "type": "address"
        }
      ],
      "name": "setChainRunnersContractAddress",
      "outputs": [],
      "stateMutability": "nonpayable",
      "type": "function"
    },
    {
      "inputs": [
        {
          "internalType": "uint256",
          "name": "_maxDreamersMintPublicSale",
          "type": "uint256"
        }
      ],
      "name": "setMaxDreamersMintPublicSale",
      "outputs": [],
      "stateMutability": "nonpayable",
      "type": "function"
    },
    {
      "inputs": [
        {
          "internalType": "uint256",
          "name": "timestamp",
          "type": "uint256"
        }
      ],
      "name": "setPublicSaleTimestamp",
      "outputs": [],
      "stateMutability": "nonpayable",
      "type": "function"
    },
    {
      "inputs": [
        {
          "internalType": "address",
          "name": "_renderingContractAddress",
          "type": "address"
        }
      ],
      "name": "setRenderingContractAddress",
      "outputs": [],
      "stateMutability": "nonpayable",
      "type": "function"
    },
    {
      "inputs": [
        {
          "internalType": "bytes4",
          "name": "interfaceId",
          "type": "bytes4"
        }
      ],
      "name": "supportsInterface",
      "outputs": [
        {
          "internalType": "bool",
          "name": "",
          "type": "bool"
        }
      ],
      "stateMutability": "view",
      "type": "function"
    },
    {
      "inputs": [],
      "name": "symbol",
      "outputs": [
        {
          "internalType": "string",
          "name": "",
          "type": "string"
        }
      ],
      "stateMutability": "view",
      "type": "function"
    },
    {
      "inputs": [
        {
          "internalType": "uint256",
          "name": "index",
          "type": "uint256"
        }
      ],
      "name": "tokenByIndex",
      "outputs": [
        {
          "internalType": "uint256",
          "name": "",
          "type": "uint256"
        }
      ],
      "stateMutability": "view",
      "type": "function"
    },
    {
      "inputs": [
        {
          "internalType": "address",
          "name": "owner",
          "type": "address"
        },
        {
          "internalType": "uint256",
          "name": "index",
          "type": "uint256"
        }
      ],
      "name": "tokenOfOwnerByIndex",
      "outputs": [
        {
          "internalType": "uint256",
          "name": "",
          "type": "uint256"
        }
      ],
      "stateMutability": "view",
      "type": "function"
    },
    {
      "inputs": [
        {
          "internalType": "uint256",
          "name": "_tokenId",
          "type": "uint256"
        }
      ],
      "name": "tokenURI",
      "outputs": [
        {
          "internalType": "string",
          "name": "",
          "type": "string"
        }
      ],
      "stateMutability": "view",
      "type": "function"
    },
    {
      "inputs": [],
      "name": "totalSupply",
      "outputs": [
        {
          "internalType": "uint256",
          "name": "",
          "type": "uint256"
        }
      ],
      "stateMutability": "view",
      "type": "function"
    },
    {
      "inputs": [
        {
          "internalType": "address",
          "name": "from",
          "type": "address"
        },
        {
          "internalType": "address",
          "name": "to",
          "type": "address"
        },
        {
          "internalType": "uint256",
          "name": "tokenId",
          "type": "uint256"
        }
      ],
      "name": "transferFrom",
      "outputs": [],
      "stateMutability": "nonpayable",
      "type": "function"
    },
    {
      "inputs": [
        {
          "internalType": "address",
          "name": "newOwner",
          "type": "address"
        }
      ],
      "name": "transferOwnership",
      "outputs": [],
      "stateMutability": "nonpayable",
      "type": "function"
    },
    {
      "inputs": [],
      "name": "withdraw",
      "outputs": [],
      "stateMutability": "nonpayable",
      "type": "function"
    },
    {
      "stateMutability": "payable",
      "type": "receive"
    }
  ],
  "transactionHash": "0x35d9054bee66fc039edd6993f17a16cd3b66c4f1a4b1f3799106c516142a1100",
  "args": [
    "Chain Dreamers",
    "DRE"
  ],
  "numDeployments": 2,
  "solcInputHash": "6033d347b3ea49f1be825718de15381e",
  "bytecode": "0x60806040523480156200001157600080fd5b5060405162004613380380620046138339810160408190526200003491620001f9565b8151829082906200004d906000906020850190620000e3565b50805162000063906001906020840190620000e3565b505050620000806200007a6200008d60201b60201c565b62000091565b50506001600c5562000373565b3390565b600b80546001600160a01b038381166001600160a01b0319831681179093556040519116919082907f8be0079c531659141344cd1fd0a4f28419497f9722a3daafe3b4186f6b6457e090600090a35050565b828054620000f190620002e7565b90600052602060002090601f01602090048101928262000115576000855562000160565b82601f106200013057805160ff191683800117855562000160565b8280016001018555821562000160579182015b828111156200016057825182559160200191906001019062000143565b506200016e92915062000172565b5090565b5b808211156200016e576000815560010162000173565b6000620001a06200019a8462000287565b62000268565b905082815260208101848484011115620001b957600080fd5b620001c6848285620002b4565b509392505050565b600082601f830112620001df578081fd5b8151620001f184826020860162000189565b949350505050565b600080604083850312156200020c578182fd5b828201516001600160401b0381111562000224578283fd5b6200023285828601620001ce565b602085015190935090506001600160401b0381111562000250578182fd5b6200025e85828601620001ce565b9150509250929050565b60006200027460405190565b905062000282828262000318565b919050565b60006001600160401b03821115620002a357620002a36200035d565b601f19601f83011660200192915050565b60005b83811015620002d1578181015183820152602001620002b7565b83811115620002e1576000848401525b50505050565b600281046001821680620002fc57607f821691505b6020821081141562000312576200031262000347565b50919050565b601f19601f83011681016001600160401b03811182821017156200034057620003406200035d565b6040525050565b634e487b7160e01b600052602260045260246000fd5b634e487b7160e01b600052604160045260246000fd5b61429080620003836000396000f3fe6080604052600436106102385760003560e01c80636b318e6e11610138578063b5fcb339116100b0578063d3d6005b1161007f578063e985e9c511610064578063e985e9c514610636578063f2fde38b1461067f578063fac913231461069f57600080fd5b8063d3d6005b14610600578063d7822c991461062057600080fd5b8063b5fcb33914610580578063b88d4fde146105a0578063c074f412146105c0578063c87b56dd146105e057600080fd5b80638da5cb5b1161010757806395d89b41116100ec57806395d89b41146105305780639c51792a14610545578063a22cb4651461056057600080fd5b80638da5cb5b146104f257806395a97a631461051057600080fd5b80636b318e6e1461048757806370a082311461049d578063715018a6146104bd5780638392d804146104d257600080fd5b80631a6949e3116101cb5780633ccfd60b1161019a5780634f6ccce71161017f5780634f6ccce714610427578063511a9605146104475780636352211e1461046757600080fd5b80633ccfd60b146103f257806342842e0e1461040757600080fd5b80631a6949e31461038a57806323b872dd1461039f5780632a133e35146103bf5780632f745c59146103d257600080fd5b8063095ea7b311610207578063095ea7b3146103065780630d77c7561461032857806312b40a9f1461034857806318160ddd1461036857600080fd5b806301ffc9a71461024457806306fdde031461027a57806307c5bde31461029c578063081812fc146102d957600080fd5b3661023f57005b600080fd5b34801561025057600080fd5b5061026461025f366004612dd6565b6106bf565b6040516102719190613cfd565b60405180910390f35b34801561028657600080fd5b5061028f61071b565b6040516102719190613d0b565b3480156102a857600080fd5b506102cc6102b7366004612fb2565b60066020526000908152604090205460ff1681565b6040516102719190613f83565b3480156102e557600080fd5b506102f96102f4366004612fb2565b6107ad565b6040516102719190613c6a565b34801561031257600080fd5b50610326610321366004612da8565b61080f565b005b34801561033457600080fd5b50610326610343366004612fb2565b610895565b34801561035457600080fd5b50610326610363366004612c47565b6108c4565b34801561037457600080fd5b5061037d610927565b6040516102719190613f5a565b34801561039657600080fd5b50610264610948565b3480156103ab57600080fd5b506103266103ba366004612cb9565b610960565b6102646103cd366004612e10565b610991565b3480156103de57600080fd5b5061037d6103ed366004612da8565b610a75565b3480156103fe57600080fd5b50610326610b61565b34801561041357600080fd5b50610326610422366004612cb9565b610bf6565b34801561043357600080fd5b5061037d610442366004612fb2565b610c15565b34801561045357600080fd5b50610326610462366004612fb2565b610c57565b34801561047357600080fd5b506102f9610482366004612fb2565b610c86565b34801561049357600080fd5b5061037d60135481565b3480156104a957600080fd5b5061037d6104b8366004612c47565b610cc0565b3480156104c957600080fd5b50610326610d08565b3480156104de57600080fd5b50600f546102f9906001600160a01b031681565b3480156104fe57600080fd5b50600b546001600160a01b03166102f9565b34801561051c57600080fd5b5061026461052b366004612e7f565b610d3e565b34801561053c57600080fd5b5061028f611032565b34801561055157600080fd5b5061037d66b1a2bc2ec5000081565b34801561056c57600080fd5b5061032661057b366004612d7a565b611041565b34801561058c57600080fd5b5061032661059b366004612c47565b611050565b3480156105ac57600080fd5b506103266105bb366004612d04565b6110b3565b3480156105cc57600080fd5b50600d546102f9906001600160a01b031681565b3480156105ec57600080fd5b5061028f6105fb366004612fb2565b6110eb565b34801561060c57600080fd5b5061032661061b366004612c47565b611203565b34801561062c57600080fd5b5061037d60145481565b34801561064257600080fd5b50610264610651366004612c81565b6001600160a01b03918216600090815260056020908152604080832093909416825291909152205460ff1690565b34801561068b57600080fd5b5061032661069a366004612c47565b611266565b3480156106ab57600080fd5b50600e546102f9906001600160a01b031681565b60007fffffffff0000000000000000000000000000000000000000000000000000000082167f780e9d630000000000000000000000000000000000000000000000000000000014806107155750610715826112bf565b92915050565b60606000805461072a90614116565b80601f016020809104026020016040519081016040528092919081815260200182805461075690614116565b80156107a35780601f10610778576101008083540402835291602001916107a3565b820191906000526020600020905b81548152906001019060200180831161078657829003601f168201915b5050505050905090565b61ffff81166000908152600260205260408120546001600160a01b03166107ef5760405162461bcd60e51b81526004016107e690613e6c565b60405180910390fd5b5061ffff166000908152600460205260409020546001600160a01b031690565b600061081a82610c86565b9050806001600160a01b0316836001600160a01b0316141561084e5760405162461bcd60e51b81526004016107e690613eac565b336001600160a01b038216148061086a575061086a8133610651565b6108865760405162461bcd60e51b81526004016107e690613e0c565b61089083836113a2565b505050565b600b546001600160a01b031633146108bf5760405162461bcd60e51b81526004016107e690613e7c565b601355565b600b546001600160a01b031633146108ee5760405162461bcd60e51b81526004016107e690613e7c565b600d80546001600160a01b0390921673ffffffffffffffffffffffffffffffffffffffff19928316811790915560108054909216179055565b600060026009805461093890614116565b61094392915061404b565b905090565b60006014544210158015610943575050601454151590565b61096a3382611420565b6109865760405162461bcd60e51b81526004016107e690613edc565b6108908383836114df565b60006002600c5414156109b65760405162461bcd60e51b81526004016107e690613f1c565b6002600c556109c3610948565b6109df5760405162461bcd60e51b81526004016107e690613f0c565b3466b1a2bc2ec500006109f360028761404b565b6109fd919061407e565b14610a1a5760405162461bcd60e51b81526004016107e690613e2c565b601354610a2860028661404b565b610a3133610cc0565b610a3b9190613ff7565b1115610a595760405162461bcd60e51b81526004016107e690613dfc565b610a663386868686611655565b50600180600c55949350505050565b6000610a8083610cc0565b8210610a9e5760405162461bcd60e51b81526004016107e690613d3c565b6001600160a01b03831660009081526007602052604090208054610b569190610ac690614116565b80601f0160208091040260200160405190810160405280929190818152602001828054610af290614116565b8015610b3f5780601f10610b1457610100808354040283529160200191610b3f565b820191906000526020600020905b815481529060010190602001808311610b2257829003601f168201915b5050505050836002610b51919061407e565b61192d565b61ffff169392505050565b600b546001600160a01b03163314610b8b5760405162461bcd60e51b81526004016107e690613e7c565b604051600090339047908381818185875af1925050503d8060008114610bcd576040519150601f19603f3d011682016040523d82523d6000602084013e610bd2565b606091505b5050905080610bf35760405162461bcd60e51b81526004016107e690613f2c565b50565b61089083838361ffff16604051806020016040528060008152506110b3565b6000610c1f610927565b8210610c3d5760405162461bcd60e51b81526004016107e690613efc565b610c4d60098054610ac690614116565b61ffff1692915050565b600b546001600160a01b03163314610c815760405162461bcd60e51b81526004016107e690613e7c565b601455565b61ffff81166000908152600260205260408120546001600160a01b0316806107155760405162461bcd60e51b81526004016107e690613e3c565b60006001600160a01b038216610ce85760405162461bcd60e51b81526004016107e690613e1c565b506001600160a01b031660009081526003602052604090205461ffff1690565b600b546001600160a01b03163314610d325760405162461bcd60e51b81526004016107e690613e7c565b610d3c6000611963565b565b60006002600c541415610d635760405162461bcd60e51b81526004016107e690613f1c565b6002600c55858414610d875760405162461bcd60e51b81526004016107e690613d2c565b610d9286600261407e565b8a14610db05760405162461bcd60e51b81526004016107e690613d1c565b60005b8a811015610fa357336001600160a01b0316601260009054906101000a90046001600160a01b03166001600160a01b0316636352211e610e2a8f8f8080601f01602080910402602001604051908101604052809392919081815260200183838082843760009201919091525088925061192d915050565b6040518263ffffffff1660e01b8152600401610e469190613f4c565b60206040518083038186803b158015610e5e57600080fd5b505afa158015610e72573d6000803e3d6000fd5b505050506040513d601f19601f82011682018060405250810190610e969190612c64565b6001600160a01b031614610ebc5760405162461bcd60e51b81526004016107e690613f3c565b8787610ec960028461404b565b818110610ee657634e487b7160e01b600052603260045260246000fd5b919091013560f81c90508686610efd60028561404b565b818110610f1a57634e487b7160e01b600052603260045260246000fd5b9050602002013560ff1614610f415760405162461bcd60e51b81526004016107e690613d6c565b8383610f4e60028461404b565b818110610f6b57634e487b7160e01b600052603260045260246000fd5b90506020020135600114610f915760405162461bcd60e51b81526004016107e690613ecc565b610f9c600282613ff7565b9050610db3565b50610fb3338c8c8c8c8c8c6119c2565b6011546001600160a01b0316636b20c45433878787876040518663ffffffff1660e01b8152600401610fe9959493929190613cbc565b600060405180830381600087803b15801561100357600080fd5b505af1158015611017573d6000803e3d6000fd5b50505050600190506001600c559a9950505050505050505050565b60606001805461072a90614116565b61104c338383611ca9565b5050565b600b546001600160a01b0316331461107a5760405162461bcd60e51b81526004016107e690613e7c565b600e80546001600160a01b0390921673ffffffffffffffffffffffffffffffffffffffff19928316811790915560118054909216179055565b6110bd3383611420565b6110d95760405162461bcd60e51b81526004016107e690613edc565b6110e584848484611d4c565b50505050565b60606111128261ffff166000908152600260205260409020546001600160a01b0316151590565b61112e5760405162461bcd60e51b81526004016107e690613e9c565b600d546001600160a01b031661115257505060408051602081019091526000815290565b601054600083815260066020526040908190205490517f5cc518ba0000000000000000000000000000000000000000000000000000000081526001600160a01b0390921691635cc518ba916111af91869160ff1690600401613f68565b60006040518083038186803b1580156111c757600080fd5b505afa1580156111db573d6000803e3d6000fd5b505050506040513d6000823e601f3d908101601f191682016040526107159190810190612f7d565b600b546001600160a01b0316331461122d5760405162461bcd60e51b81526004016107e690613e7c565b600f80546001600160a01b0390921673ffffffffffffffffffffffffffffffffffffffff19928316811790915560128054909216179055565b600b546001600160a01b031633146112905760405162461bcd60e51b81526004016107e690613e7c565b6001600160a01b0381166112b65760405162461bcd60e51b81526004016107e690613d7c565b610bf381611963565b60007fffffffff0000000000000000000000000000000000000000000000000000000082167f80ac58cd00000000000000000000000000000000000000000000000000000000148061135257507fffffffff0000000000000000000000000000000000000000000000000000000082167f5b5e139f00000000000000000000000000000000000000000000000000000000145b8061071557507f01ffc9a7000000000000000000000000000000000000000000000000000000007fffffffff00000000000000000000000000000000000000000000000000000000831614610715565b61ffff81166000818152600460205260409020805473ffffffffffffffffffffffffffffffffffffffff19166001600160a01b0385169081179091556113e782610c86565b6001600160a01b03167f8c5be1e5ebec7d5bd14f71427d1e84f3dd0314c0f7b2291e5b200ac8c7c3b92560405160405180910390a45050565b61ffff81166000908152600260205260408120546001600160a01b03166114595760405162461bcd60e51b81526004016107e690613ddc565b60006114688361ffff16610c86565b9050806001600160a01b0316846001600160a01b031614806114a75750836001600160a01b031661149c8461ffff166107ad565b6001600160a01b0316145b806114d757506001600160a01b0380821660009081526005602090815260408083209388168352929052205460ff165b949350505050565b826001600160a01b03166114f68261ffff16610c86565b6001600160a01b03161461151c5760405162461bcd60e51b81526004016107e690613e8c565b6001600160a01b0382166115425760405162461bcd60e51b81526004016107e690613dbc565b61154d838383611d7f565b6115586000826113a2565b6001600160a01b038316600090815260036020526040812080546001929061158590849061ffff16614098565b82546101009290920a61ffff8181021990931691831602179091556001600160a01b038416600090815260036020526040812080546001945090926115cc91859116613fd3565b82546101009290920a61ffff8181021990931691831602179091558216600081815260026020526040808220805473ffffffffffffffffffffffffffffffffffffffff19166001600160a01b0388811691821790925591519394509092908716917fddf252ad1be2c89b69c2b068fc378daa952ba7f163c4a11628f55a4df523b3ef91a4505050565b6001600160a01b03851661167b5760405162461bcd60e51b81526004016107e690613e5c565b610100831061169c5760405162461bcd60e51b81526004016107e690613e4c565b600084848484333442446040516020016116bd989796959493929190613bbf565b6040516020818303038152906040528051906020012090506116e2868686868661255a565b60005b6116f060028661404b565b81101561186857600061174087878080601f016020809104026020016040519081016040528093929190818152602001838380828437600092019190915250610b5192508691506002905061407e565b90506117678161ffff166000908152600260205260409020546001600160a01b0316151590565b156117845760405162461bcd60e51b81526004016107e690613d8c565b61ffff81166000908152600260209081526040808320805473ffffffffffffffffffffffffffffffffffffffff19166001600160a01b038d161790558051918201905290819060049086906117db9291901a61419d565b6117ed906103fc600088901a1661400a565b60ff90811690915261ffff83166000818152600660205260408082209451855460ff1916941693909317909355905160019590951c9490916001600160a01b038b16917fddf252ad1be2c89b69c2b068fc378daa952ba7f163c4a11628f55a4df523b3ef908290a4508061186081614170565b9150506116e5565b506001600160a01b0386166000908152600360205260408120805486929061189590849061ffff16613fd3565b92506101000a81548161ffff021916908361ffff1602179055506119096000876118f488888080601f0160208091040260200160405190810160405280939291908181526020018383808284376000920182905250925061192d915050565b60405180602001604052806000815250612815565b6119255760405162461bcd60e51b81526004016107e690613d4c565b505050505050565b600061193a826002613ff7565b8351101561195a5760405162461bcd60e51b81526004016107e690613dac565b50016002015190565b600b80546001600160a01b0383811673ffffffffffffffffffffffffffffffffffffffff19831681179093556040519116919082907f8be0079c531659141344cd1fd0a4f28419497f9722a3daafe3b4186f6b6457e090600090a35050565b6001600160a01b0387166119e85760405162461bcd60e51b81526004016107e690613e5c565b6102008510611a095760405162461bcd60e51b81526004016107e690613e4c565b60008282888833344244604051602001611a2a989796959493929190613bbf565b604051602081830303815290604052805190602001209050611a4f888888888861255a565b60005b611a5d60028861404b565b811015611bf7576000611aad89898080601f016020809104026020016040519081016040528093929190818152602001838380828437600092019190915250610b5192508691506002905061407e565b9050611ad48161ffff166000908152600260205260409020546001600160a01b0316151590565b15611af15760405162461bcd60e51b81526004016107e690613d8c565b61ffff8116600090815260026020908152604091829020805473ffffffffffffffffffffffffffffffffffffffff19166001600160a01b038e161790558151908101909152806004878786818110611b5957634e487b7160e01b600052603260045260246000fd5b611b6a9392013560f81c905061419d565b611b7c906103fc600088901a1661400a565b60ff90811690915261ffff83166000818152600660205260408082209451855460ff1916941693909317909355905160019590951c9490916001600160a01b038d16917fddf252ad1be2c89b69c2b068fc378daa952ba7f163c4a11628f55a4df523b3ef908290a45080611bef81614170565b915050611a52565b506001600160a01b03881660009081526003602052604081208054889290611c2490849061ffff16613fd3565b92506101000a81548161ffff021916908361ffff160217905550611c836000896118f48a8a8080601f0160208091040260200160405190810160405280939291908181526020018383808284376000920182905250925061192d915050565b611c9f5760405162461bcd60e51b81526004016107e690613d4c565b5050505050505050565b816001600160a01b0316836001600160a01b03161415611cdb5760405162461bcd60e51b81526004016107e690613dcc565b6001600160a01b0383811660008181526005602090815260408083209487168084529490915290819020805460ff1916851515179055517f17307eab39ab6107e8899845ad3d59bd9653f200f220920489ca2b5937696c3190611d3f908590613cfd565b60405180910390a3505050565b611d578484846114df565b611d6384848484612815565b6110e55760405162461bcd60e51b81526004016107e690613d4c565b6001600160a01b038316611ece57600060098054611d9c90614116565b61ffff8481166000908152600a6020908152604091829020805461ffff19169385169390931790925551919350611ddd925060099160f086901b9101613c2f565b60405160208183030381529060405260099080519060200190611e01929190612a36565b506001600160a01b03831660009081526007602052604081208054611e2590614116565b905060f01b9050600881604051602001611e40929190613c2f565b60405160208183030381529060405260089080519060200190611e64929190612a36565b506001600160a01b0384166000908152600760209081526040918290209151611e94929160f087901b9101613c2f565b60408051601f198184030181529181526001600160a01b038616600090815260076020908152919020825161192593919290910190612a36565b6001600160a01b0382166122915761ffff8082166000908152600a6020526040902054600980549190921691611f9191611f0790614116565b80601f0160208091040260200160405190810160405280929190818152602001828054611f3390614116565b8015611f805780601f10611f5557610100808354040283529160200191611f80565b820191906000526020600020905b815481529060010190602001808311611f6357829003601f168201915b505050505060008361ffff1661296c565b61205e60098054611fa190614116565b80601f0160208091040260200160405190810160405280929190818152602001828054611fcd90614116565b801561201a5780601f10611fef5761010080835404028352916020019161201a565b820191906000526020600020905b815481529060010190602001808311611ffd57829003601f168201915b505050505083600261202c9190613fd3565b61ffff1660028561ffff166009805461204490614116565b61204f9291506140bb565b61205991906140bb565b61296c565b60405160200161206f929190613c19565b60405160208183030381529060405260099080519060200190612093929190612a36565b50600061212e600880546120a690614116565b80601f01602080910402602001604051908101604052809291908181526020018280546120d290614116565b801561211f5780601f106120f45761010080835404028352916020019161211f565b820191906000526020600020905b81548152906001019060200180831161210257829003601f168201915b50505050508361ffff1661192d565b6001600160a01b0386166000908152600760205260409020805491925061215891611f0790614116565b6001600160a01b03861660009081526007602052604090208054612246919061218090614116565b80601f01602080910402602001604051908101604052809291908181526020018280546121ac90614116565b80156121f95780601f106121ce576101008083540402835291602001916121f9565b820191906000526020600020905b8154815290600101906020018083116121dc57829003601f168201915b505050505083600261220b9190613fd3565b61ffff1660028561ffff16600760008c6001600160a01b03166001600160a01b03168152602001908152602001600020805461204490614116565b604051602001612257929190613c19565b60408051601f198184030181529181526001600160a01b038716600090815260076020908152919020825161192593919290910190612a36565b816001600160a01b0316836001600160a01b0316146108905761ffff8082166000908152600a60205260408120546008805491909316926122d5916120a690614116565b6001600160a01b038616600090815260076020526040902080549192506122ff91611f0790614116565b6001600160a01b03861660009081526007602052604090208054612327919061218090614116565b604051602001612338929190613c19565b60408051601f198184030181529181526001600160a01b038716600090815260076020908152919020825161237293919290910190612a36565b506001600160a01b0384166000908152600760205260408120805461239690614116565b905060f01b905060076000866001600160a01b03166001600160a01b031681526020019081526020016000208460f01b6040516020016123d7929190613c2f565b60408051601f198184030181529181526001600160a01b038716600090815260076020908152919020825161241193919290910190612a36565b508060001a60f81b60088461ffff16815461242b90614116565b811061244757634e487b7160e01b600052603260045260246000fd5b8154600116156124665790600052602060002090602091828204019190065b601f036101000a81548160ff021916907f010000000000000000000000000000000000000000000000000000000000000084040217905550806001600281106124bf57634e487b7160e01b600052603260045260246000fd5b1a60f81b60086124d0856001613fd3565b61ffff1681546124df90614116565b81106124fb57634e487b7160e01b600052603260045260246000fd5b81546001161561251a5790600052602060002090602091828204019190065b601f036101000a81548160ff021916907f010000000000000000000000000000000000000000000000000000000000000084040217905550505050505050565b600061259b83838080601f0160208091040260200160405190810160405280939291908181526020018383808284376000920182905250925061192d915050565b90508382146125bc5760405162461bcd60e51b81526004016107e690613ebc565b6125c7816002614051565b6001600160a01b0387166000908152600760205260409020805461ffff92909216916125f290614116565b9050146126115760405162461bcd60e51b81526004016107e690613d9c565b6008838360405160200161262793929190613c4e565b6040516020818303038152906040526008908051906020019061264b929190612a36565b506001600160a01b038616600090815260076020908152604091829020915161267992918891889101613c4e565b60408051601f198184030181529181526001600160a01b03881660009081526007602090815291902082516126b393919290910190612a36565b506000600980546126c390614116565b9050905060005b61ffff81168611156127da576126e160028261402b565b6126eb9084613fd3565b61ffff1661273386868080601f016020809104026020016040519081016040528093929190818152602001838380828437600092019190915250505061ffff8516905061192d565b61ffff16146127545760405162461bcd60e51b81526004016107e690613d5c565b600061279a88888080601f016020809104026020016040519081016040528093929190818152602001838380828437600092019190915250505061ffff8516905061192d565b90506127a68284613fd3565b61ffff9182166000908152600a60205260409020805461ffff1916919092161790556127d3600282613fd3565b90506126ca565b50600986866040516020016127f193929190613c4e565b60405160208183030381529060405260099080519060200190611c9f929190612a36565b60006001600160a01b0384163b15612961576040517f150b7a020000000000000000000000000000000000000000000000000000000081526001600160a01b0385169063150b7a0290612872903390899088908890600401613c78565b602060405180830381600087803b15801561288c57600080fd5b505af19250505080156128bc575060408051601f3d908101601f191682019092526128b991810190612df3565b60015b612916573d8080156128ea576040519150601f19603f3d011682016040523d82523d6000602084013e6128ef565b606091505b50805161290e5760405162461bcd60e51b81526004016107e690613d4c565b805181602001fd5b7fffffffff00000000000000000000000000000000000000000000000000000000167f150b7a02000000000000000000000000000000000000000000000000000000001490506114d7565b506001949350505050565b60608161297a81601f613ff7565b10156129985760405162461bcd60e51b81526004016107e690613dec565b6129a28284613ff7565b845110156129c25760405162461bcd60e51b81526004016107e690613eec565b6060821580156129e15760405191506000825260208201604052612a2b565b6040519150601f8416801560200281840101858101878315602002848b0101015b81831015612a1a578051835260209283019201612a02565b5050858452601f01601f1916604052505b5090505b9392505050565b828054612a4290614116565b90600052602060002090601f016020900481019282612a645760008555612aaa565b82601f10612a7d57805160ff1916838001178555612aaa565b82800160010185558215612aaa579182015b82811115612aaa578251825591602001919060010190612a8f565b50612ab6929150612aba565b5090565b5b80821115612ab65760008155600101612abb565b6000612ae2612add84613fa8565b613f91565b905082815260208101848484011115612afa57600080fd5b612b058482856140de565b509392505050565b6000612b1b612add84613fa8565b905082815260208101848484011115612b3357600080fd5b612b058482856140ea565b803561071581614210565b805161071581614210565b60008083601f840112612b65578182fd5b50813567ffffffffffffffff811115612b7c578182fd5b602083019150836020820283011115612b9457600080fd5b9250929050565b803561071581614224565b80356107158161422c565b80516107158161422c565b60008083601f840112612bcd578182fd5b50813567ffffffffffffffff811115612be4578182fd5b602083019150836001820283011115612b9457600080fd5b600082601f830112612c0c578081fd5b81356114d7848260208601612acf565b600082601f830112612c2c578081fd5b81516114d7848260208601612b0d565b803561071581614254565b600060208284031215612c58578081fd5b612a2f83828401612b3e565b600060208284031215612c75578081fd5b612a2f83828401612b49565b60008060408385031215612c93578081fd5b612c9f84828501612b3e565b91506020612caf85828601612b3e565b9150509250929050565b600080600060608486031215612ccd578081fd5b612cd985828601612b3e565b92506020612ce986828701612b3e565b9250506040612cfa86828701612c3c565b9150509250925092565b60008060008060808587031215612d19578081fd5b612d2586828701612b3e565b93506020612d3587828801612b3e565b9350506040612d4687828801612c3c565b925050606085013567ffffffffffffffff811115612d62578182fd5b612d6e87828801612bfc565b91505092959194509250565b60008060408385031215612d8c578182fd5b612d9884838501612b3e565b91506020612caf85828601612b9b565b60008060408385031215612dba578182fd5b612dc684838501612b3e565b91506020612caf85828601612c3c565b600060208284031215612de7578081fd5b612a2f83828401612ba6565b600060208284031215612e04578081fd5b612a2f83828401612bb1565b60008060008060408587031215612e25578384fd5b8385013567ffffffffffffffff811115612e3d578485fd5b612e4987828801612bbc565b9450945050602085013567ffffffffffffffff811115612e67578283fd5b612e7387828801612bbc565b95989497509550505050565b60008060008060008060008060008060a08b8d031215612e9d578586fd5b858b013567ffffffffffffffff811115612eb5578687fd5b612ec18d828e01612bbc565b9a509a505060208b013567ffffffffffffffff811115612edf578687fd5b612eeb8d828e01612bbc565b985098505060408b013567ffffffffffffffff811115612f09578687fd5b612f158d828e01612bbc565b965096505060608b013567ffffffffffffffff811115612f33578485fd5b612f3f8d828e01612b54565b945094505060808b013567ffffffffffffffff811115612f5d578283fd5b612f698d828e01612b54565b92509250509295989b9194979a5092959850565b600060208284031215612f8e578081fd5b8082015167ffffffffffffffff811115612fa6578182fd5b6114d784828501612c1c565b600060208284031215612fc3578081fd5b612a2f83828401612c3c565b612fd8816140c1565b82525050565b612fd8612fea826140c1565b61418b565b81835260208301925060007f07ffffffffffffffffffffffffffffffffffffffffffffffffffffffffffffff831115613026578081fd5b6020830292506130378385846140de565b50500190565b801515612fd8565b7fffff0000000000000000000000000000000000000000000000000000000000008116612fd8565b6130788284836140de565b500190565b6000613087825190565b80845260208401935061309e8185602086016140ea565b601f01601f19169290920192915050565b60006130b9825190565b6130c78185602086016140ea565b9290920192915050565b600081546130de81614116565b6001821680156130f5576001811461310657613136565b60ff19831686528186019350613136565b60008581526020902060005b8381101561312e57815488820152600190910190602001613112565b505081860193505b50505092915050565b601f8152602081017f456163682072756e6e6572206e6565647320697473206f776e2063616e647900815290505b60200190565b60258152602081017f43616e6479206964732073686f756c642068617665207468652073616d65206c81527f656e677468000000000000000000000000000000000000000000000000000000602082015290505b60400190565b602b8152602081017f455243373231456e756d657261626c653a206f776e657220696e646578206f7581527f74206f6620626f756e6473000000000000000000000000000000000000000000602082015290506131c7565b60328152602081017f4552433732313a207472616e7366657220746f206e6f6e20455243373231526581527f63656976657220696d706c656d656e7465720000000000000000000000000000602082015290506131c7565b60248152602081017f6f776e6572546f6b656e496e6465786573206d7573742062652061207365717581527f656e636500000000000000000000000000000000000000000000000000000000602082015290506131c7565b601c8152602081017f43616e6479206964732073686f756c64206265207468652073616d65000000008152905061316d565b60268152602081017f4f776e61626c653a206e6577206f776e657220697320746865207a65726f206181527f6464726573730000000000000000000000000000000000000000000000000000602082015290506131c7565b601c8152602081017f4552433732313a20746f6b656e20616c7265616479206d696e746564000000008152905061316d565b60458152602081017f54686520676976656e206f776e6572546f6b656e496e646578657320646f206e81527f6f742073746172742066726f6d207468652063757272656e74206f776e65722060208201527f636f756e74000000000000000000000000000000000000000000000000000000604082015290505b60600190565b60148152602081017f746f55696e7431365f6f75744f66426f756e64730000000000000000000000008152905061316d565b60248152602081017f4552433732313a207472616e7366657220746f20746865207a65726f2061646481527f7265737300000000000000000000000000000000000000000000000000000000602082015290506131c7565b60198152602081017f4552433732313a20617070726f766520746f2063616c6c6572000000000000008152905061316d565b602c8152602081017f4552433732313a206f70657261746f7220717565727920666f72206e6f6e657881527f697374656e7420746f6b656e0000000000000000000000000000000000000000602082015290506131c7565b600e8152602081017f736c6963655f6f766572666c6f770000000000000000000000000000000000008152905061316d565b60318152602081017f596f757220686f6d6520697320746f20736d616c6c20746f2077656c636f6d6581527f20736f206d616e7920647265616d657273000000000000000000000000000000602082015290506131c7565b60388152602081017f4552433732313a20617070726f76652063616c6c6572206973206e6f74206f7781527f6e6572206e6f7220617070726f76656420666f7220616c6c0000000000000000602082015290506131c7565b602a8152602081017f4552433732313a2062616c616e636520717565727920666f7220746865207a6581527f726f206164647265737300000000000000000000000000000000000000000000602082015290506131c7565b601d8152602081017f596f75206861766520746f2070617920746865206261696c20626f6e640000008152905061316d565b60298152602081017f4552433732313a206f776e657220717565727920666f72206e6f6e657869737481527f656e7420746f6b656e0000000000000000000000000000000000000000000000602082015290506131c7565b60328152602081017f596f752063616e206d696e74206279206261746368657320757020746f20323581527f3620746f6b656e7320617420612074696d650000000000000000000000000000602082015290506131c7565b60208082527f4552433732313a206d696e7420746f20746865207a65726f2061646472657373910190815261316d565b602c8152602081017f4552433732313a20617070726f76656420717565727920666f72206e6f6e657881527f697374656e7420746f6b656e0000000000000000000000000000000000000000602082015290506131c7565b60208082527f4f776e61626c653a2063616c6c6572206973206e6f7420746865206f776e6572910190815261316d565b60298152602081017f4552433732313a207472616e73666572206f6620746f6b656e2074686174206981527f73206e6f74206f776e0000000000000000000000000000000000000000000000602082015290506131c7565b602f8152602081017f4552433732314d657461646174613a2055524920717565727920666f72206e6f81527f6e6578697374656e7420746f6b656e0000000000000000000000000000000000602082015290506131c7565b60218152602081017f4552433732313a20617070726f76616c20746f2063757272656e74206f776e6581527f7200000000000000000000000000000000000000000000000000000000000000602082015290506131c7565b60328152602081017f6f776e6572496e6465786573206d7573742068617665207468652073616d652081527f6c656e67746820617320746f6b656e4964730000000000000000000000000000602082015290506131c7565b604f8152602081017f596f75722072756e6e6572206e65656473206f6e6520616e64206f6e6c79206f81527f6e652063616e64792c2077686f206b6e6f7773207768617420636f756c64206860208201527f617070656e206f746865727769736500000000000000000000000000000000006040820152905061340b565b60318152602081017f4552433732313a207472616e736665722063616c6c6572206973206e6f74206f81527f776e6572206e6f7220617070726f766564000000000000000000000000000000602082015290506131c7565b60118152602081017f736c6963655f6f75744f66426f756e64730000000000000000000000000000008152905061316d565b602c8152602081017f455243373231456e756d657261626c653a20676c6f62616c20696e646578206f81527f7574206f6620626f756e64730000000000000000000000000000000000000000602082015290506131c7565b60148152602081017f5075626c69632073616c65206e6f74206f70656e0000000000000000000000008152905061316d565b601f8152602081017f5265656e7472616e637947756172643a207265656e7472616e742063616c6c008152905061316d565b60118152602081017f5769746864726177616c206661696c65640000000000000000000000000000008152905061316d565b60378152602081017f596f752063616e6e6f7420676976652063616e6469657320746f20612072756e81527f6e6572207468617420796f7520646f206e6f74206f776e000000000000000000602082015290506131c7565b612fd8816140d2565b80612fd8565b60ff8116612fd8565b613bca81898b61306d565b9050613bd781878961306d565b9050613be38186612fde565b601401613bf08185613bb0565b602001613bfd8184613bb0565b602001613c0a8183613bb0565b60200198975050505050505050565b613c2381846130af565b9050612a2f81836130af565b613c3981846130d1565b9050613c458183613045565b60020192915050565b613c5881856130d1565b90506114d781838561306d565b919050565b602081016107158284612fcf565b60808101613c868287612fcf565b613c936020830186612fcf565b613ca06040830185613ba7565b8181036060830152613cb2818461307d565b9695505050505050565b60608101613cca8288612fcf565b8181036020830152613cdd818688612fef565b90508181036040830152613cf2818486612fef565b979650505050505050565b60208101610715828461303d565b60208082528101612a2f818461307d565b602080825281016107158161313f565b6020808252810161071581613173565b60208082528101610715816131cd565b6020808252810161071581613225565b602080825281016107158161327d565b60208082528101610715816132d5565b6020808252810161071581613307565b602080825281016107158161335f565b6020808252810161071581613391565b6020808252810161071581613411565b6020808252810161071581613443565b602080825281016107158161349b565b60208082528101610715816134cd565b6020808252810161071581613525565b6020808252810161071581613557565b60208082528101610715816135af565b6020808252810161071581613607565b602080825281016107158161365f565b6020808252810161071581613691565b60208082528101610715816136e9565b6020808252810161071581613741565b6020808252810161071581613771565b60208082528101610715816137c9565b60208082528101610715816137f9565b6020808252810161071581613851565b60208082528101610715816138a9565b6020808252810161071581613901565b6020808252810161071581613959565b60208082528101610715816139d7565b6020808252810161071581613a2f565b6020808252810161071581613a61565b6020808252810161071581613ab9565b6020808252810161071581613aeb565b6020808252810161071581613b1d565b6020808252810161071581613b4f565b602081016107158284613ba7565b602081016107158284613bb0565b60408101613f768285613bb0565b612a2f6020830184613bb6565b602081016107158284613bb6565b6000613f9c60405190565b9050613c658282614143565b600067ffffffffffffffff821115613fc257613fc26141fa565b601f19601f83011660200192915050565b61ffff8116905061ffff8216915060008261ffff03821115613078576130786141b8565b60008219821115613078576130786141b8565b60ff8116905060ff8216915060008260ff03821115613078576130786141b8565b61ffff9081169082165b9150600082614046576140466141ce565b500490565b81614035565b61ffff8116905061ffff8216915060008161ffff0483118215151615614079576140796141b8565b500290565b6000816000190483118215151615614079576140796141b8565b61ffff9081169082165b91506000828210156140b6576140b66141b8565b500390565b816140a2565b60006001600160a01b038216610715565b600061ffff8216610715565b82818337506000910152565b60005b838110156141055781810151838201526020016140ed565b838111156110e55750506000910152565b60028104600182168061412a57607f821691505b6020821081141561413d5761413d6141e4565b50919050565b601f19601f830116810181811067ffffffffffffffff82111715614169576141696141fa565b6040525050565b6000600019821415614184576141846141b8565b5060010190565b60006107158260006107158260601b90565b60ff91821691166000826141b3576141b36141ce565b500690565b634e487b7160e01b600052601160045260246000fd5b634e487b7160e01b600052601260045260246000fd5b634e487b7160e01b600052602260045260246000fd5b634e487b7160e01b600052604160045260246000fd5b614219816140c1565b8114610bf357600080fd5b801515614219565b7fffffffff000000000000000000000000000000000000000000000000000000008116614219565b8061421956fea2646970667358221220602969ddcf5d1b77be15d1a34e03456351b007b14461736c59c9e746752c240364736f6c63430008040033",
  "devdoc": {
    "kind": "dev",
    "methods": {
      "approve(address,uint256)": {
        "details": "See {IERC721-approve}."
      },
      "balanceOf(address)": {
        "details": "See {IERC721-balanceOf}."
      },
      "getApproved(uint256)": {
        "details": "See {IERC721-getApproved}."
      },
      "isApprovedForAll(address,address)": {
        "details": "See {IERC721-isApprovedForAll}."
      },
      "name()": {
        "details": "See {IERC721Metadata-name}."
      },
      "owner()": {
        "details": "Returns the address of the current owner."
      },
      "ownerOf(uint256)": {
        "details": "See {IERC721-ownerOf}."
      },
      "renounceOwnership()": {
        "details": "Leaves the contract without owner. It will not be possible to call `onlyOwner` functions anymore. Can only be called by the current owner. NOTE: Renouncing ownership will leave the contract without an owner, thereby removing any functionality that is only available to the owner."
      },
      "safeTransferFrom(address,address,uint256)": {
        "details": "See {IERC721-safeTransferFrom}."
      },
      "safeTransferFrom(address,address,uint256,bytes)": {
        "details": "See {IERC721-safeTransferFrom}."
      },
      "setApprovalForAll(address,bool)": {
        "details": "See {IERC721-setApprovalForAll}."
      },
      "supportsInterface(bytes4)": {
        "details": "See {IERC165-supportsInterface}."
      },
      "symbol()": {
        "details": "See {IERC721Metadata-symbol}."
      },
      "tokenByIndex(uint256)": {
        "details": "See {IERC721Enumerable-tokenByIndex}."
      },
      "tokenOfOwnerByIndex(address,uint256)": {
        "details": "See {IERC721Enumerable-tokenOfOwnerByIndex}."
      },
      "totalSupply()": {
        "details": "See {IERC721Enumerable-totalSupply}."
      },
      "transferFrom(address,address,uint256)": {
        "details": "See {IERC721-transferFrom}."
      },
      "transferOwnership(address)": {
        "details": "Transfers ownership of the contract to a new account (`newOwner`). Can only be called by the current owner."
      }
    },
    "version": 1
  },
  "userdoc": {
    "kind": "user",
    "methods": {},
    "version": 1
  },
  "storageLayout": {
    "storage": [
      {
        "astId": 14065,
        "contract": "contracts/dreamers/ChainDreamers.sol:ChainDreamers",
        "label": "_name",
        "offset": 0,
        "slot": "0",
        "type": "t_string_storage"
      },
      {
        "astId": 14067,
        "contract": "contracts/dreamers/ChainDreamers.sol:ChainDreamers",
        "label": "_symbol",
        "offset": 0,
        "slot": "1",
        "type": "t_string_storage"
      },
      {
        "astId": 14071,
        "contract": "contracts/dreamers/ChainDreamers.sol:ChainDreamers",
        "label": "_owners",
        "offset": 0,
        "slot": "2",
        "type": "t_mapping(t_uint16,t_address)"
      },
      {
        "astId": 14075,
        "contract": "contracts/dreamers/ChainDreamers.sol:ChainDreamers",
        "label": "_balances",
        "offset": 0,
        "slot": "3",
        "type": "t_mapping(t_address,t_uint16)"
      },
      {
        "astId": 14079,
        "contract": "contracts/dreamers/ChainDreamers.sol:ChainDreamers",
        "label": "_tokenApprovals",
        "offset": 0,
        "slot": "4",
        "type": "t_mapping(t_uint16,t_address)"
      },
      {
        "astId": 14085,
        "contract": "contracts/dreamers/ChainDreamers.sol:ChainDreamers",
        "label": "_operatorApprovals",
        "offset": 0,
        "slot": "5",
        "type": "t_mapping(t_address,t_mapping(t_address,t_bool))"
      },
      {
        "astId": 14093,
        "contract": "contracts/dreamers/ChainDreamers.sol:ChainDreamers",
        "label": "dreamers",
        "offset": 0,
        "slot": "6",
        "type": "t_mapping(t_uint256,t_struct(ChainDreamer)14088_storage)"
      },
      {
        "astId": 15202,
        "contract": "contracts/dreamers/ChainDreamers.sol:ChainDreamers",
        "label": "_ownedTokens",
        "offset": 0,
        "slot": "7",
        "type": "t_mapping(t_address,t_bytes_storage)"
      },
      {
        "astId": 15204,
        "contract": "contracts/dreamers/ChainDreamers.sol:ChainDreamers",
        "label": "_ownedTokensIndex",
        "offset": 0,
        "slot": "8",
        "type": "t_bytes_storage"
      },
      {
        "astId": 15206,
        "contract": "contracts/dreamers/ChainDreamers.sol:ChainDreamers",
        "label": "_allTokens",
        "offset": 0,
        "slot": "9",
        "type": "t_bytes_storage"
      },
      {
        "astId": 15210,
        "contract": "contracts/dreamers/ChainDreamers.sol:ChainDreamers",
        "label": "_allTokensIndex",
        "offset": 0,
        "slot": "10",
        "type": "t_mapping(t_uint16,t_uint16)"
      },
      {
        "astId": 225,
        "contract": "contracts/dreamers/ChainDreamers.sol:ChainDreamers",
        "label": "_owner",
        "offset": 0,
        "slot": "11",
        "type": "t_address"
      },
      {
        "astId": 425,
        "contract": "contracts/dreamers/ChainDreamers.sol:ChainDreamers",
        "label": "_status",
        "offset": 0,
        "slot": "12",
        "type": "t_uint256"
      },
      {
        "astId": 4196,
        "contract": "contracts/dreamers/ChainDreamers.sol:ChainDreamers",
        "label": "renderingContractAddress",
        "offset": 0,
        "slot": "13",
        "type": "t_address"
      },
      {
        "astId": 4198,
        "contract": "contracts/dreamers/ChainDreamers.sol:ChainDreamers",
        "label": "candyShopAddress",
        "offset": 0,
        "slot": "14",
        "type": "t_address"
      },
      {
        "astId": 4200,
        "contract": "contracts/dreamers/ChainDreamers.sol:ChainDreamers",
        "label": "chainRunnersAddress",
        "offset": 0,
        "slot": "15",
        "type": "t_address"
      },
      {
        "astId": 4203,
        "contract": "contracts/dreamers/ChainDreamers.sol:ChainDreamers",
        "label": "renderer",
        "offset": 0,
        "slot": "16",
        "type": "t_contract(IDreamersRenderer)7797"
      },
      {
        "astId": 4206,
        "contract": "contracts/dreamers/ChainDreamers.sol:ChainDreamers",
        "label": "candyShop",
        "offset": 0,
        "slot": "17",
        "type": "t_contract(ICandyShop)7747"
      },
      {
        "astId": 4209,
        "contract": "contracts/dreamers/ChainDreamers.sol:ChainDreamers",
        "label": "chainRunners",
        "offset": 0,
        "slot": "18",
        "type": "t_contract(IChainRunners)7764"
      },
      {
        "astId": 4211,
        "contract": "contracts/dreamers/ChainDreamers.sol:ChainDreamers",
        "label": "maxDreamersMintPublicSale",
        "offset": 0,
        "slot": "19",
        "type": "t_uint256"
      },
      {
        "astId": 4216,
        "contract": "contracts/dreamers/ChainDreamers.sol:ChainDreamers",
        "label": "publicSaleStartTimestamp",
        "offset": 0,
        "slot": "20",
        "type": "t_uint256"
      }
    ],
    "types": {
      "t_address": {
        "encoding": "inplace",
        "label": "address",
        "numberOfBytes": "20"
      },
      "t_bool": {
        "encoding": "inplace",
        "label": "bool",
        "numberOfBytes": "1"
      },
      "t_bytes_storage": {
        "encoding": "bytes",
        "label": "bytes",
        "numberOfBytes": "32"
      },
      "t_contract(ICandyShop)7747": {
        "encoding": "inplace",
        "label": "contract ICandyShop",
        "numberOfBytes": "20"
      },
      "t_contract(IChainRunners)7764": {
        "encoding": "inplace",
        "label": "contract IChainRunners",
        "numberOfBytes": "20"
      },
      "t_contract(IDreamersRenderer)7797": {
        "encoding": "inplace",
        "label": "contract IDreamersRenderer",
        "numberOfBytes": "20"
      },
      "t_mapping(t_address,t_bool)": {
        "encoding": "mapping",
        "key": "t_address",
        "label": "mapping(address => bool)",
        "numberOfBytes": "32",
        "value": "t_bool"
      },
      "t_mapping(t_address,t_bytes_storage)": {
        "encoding": "mapping",
        "key": "t_address",
        "label": "mapping(address => bytes)",
        "numberOfBytes": "32",
        "value": "t_bytes_storage"
      },
      "t_mapping(t_address,t_mapping(t_address,t_bool))": {
        "encoding": "mapping",
        "key": "t_address",
        "label": "mapping(address => mapping(address => bool))",
        "numberOfBytes": "32",
        "value": "t_mapping(t_address,t_bool)"
      },
      "t_mapping(t_address,t_uint16)": {
        "encoding": "mapping",
        "key": "t_address",
        "label": "mapping(address => uint16)",
        "numberOfBytes": "32",
        "value": "t_uint16"
      },
      "t_mapping(t_uint16,t_address)": {
        "encoding": "mapping",
        "key": "t_uint16",
        "label": "mapping(uint16 => address)",
        "numberOfBytes": "32",
        "value": "t_address"
      },
      "t_mapping(t_uint16,t_uint16)": {
        "encoding": "mapping",
        "key": "t_uint16",
        "label": "mapping(uint16 => uint16)",
        "numberOfBytes": "32",
        "value": "t_uint16"
      },
      "t_mapping(t_uint256,t_struct(ChainDreamer)14088_storage)": {
        "encoding": "mapping",
        "key": "t_uint256",
        "label": "mapping(uint256 => struct ERC721.ChainDreamer)",
        "numberOfBytes": "32",
        "value": "t_struct(ChainDreamer)14088_storage"
      },
      "t_string_storage": {
        "encoding": "bytes",
        "label": "string",
        "numberOfBytes": "32"
      },
      "t_struct(ChainDreamer)14088_storage": {
        "encoding": "inplace",
        "label": "struct ERC721.ChainDreamer",
        "members": [
          {
            "astId": 14087,
            "contract": "contracts/dreamers/ChainDreamers.sol:ChainDreamers",
            "label": "dna",
            "offset": 0,
            "slot": "0",
            "type": "t_uint8"
          }
        ],
        "numberOfBytes": "32"
      },
      "t_uint16": {
        "encoding": "inplace",
        "label": "uint16",
        "numberOfBytes": "2"
      },
      "t_uint256": {
        "encoding": "inplace",
        "label": "uint256",
        "numberOfBytes": "32"
      },
      "t_uint8": {
        "encoding": "inplace",
        "label": "uint8",
        "numberOfBytes": "1"
      }
    }
  }
}