{
  "address": "0x860d2F7C16803004916f7F59F8e84116366457d9",
  "abi": [
    {
      "inputs": [],
      "stateMutability": "nonpayable",
      "type": "constructor"
    },
    {
      "anonymous": false,
      "inputs": [
        {
          "indexed": true,
          "internalType": "address",
          "name": "previousOwner",
          "type": "address"
        },
        {
          "indexed": true,
          "internalType": "address",
          "name": "newOwner",
          "type": "address"
        }
      ],
      "name": "OwnershipTransferred",
      "type": "event"
    },
    {
      "inputs": [],
      "name": "NUM_COLORS",
      "outputs": [
        {
          "internalType": "uint256",
          "name": "",
          "type": "uint256"
        }
      ],
      "stateMutability": "view",
      "type": "function"
    },
    {
      "inputs": [],
      "name": "NUM_LAYERS",
      "outputs": [
        {
          "internalType": "uint256",
          "name": "",
          "type": "uint256"
        }
      ],
      "stateMutability": "view",
      "type": "function"
    },
    {
      "inputs": [
        {
          "internalType": "bytes1",
          "name": "b",
          "type": "bytes1"
        }
      ],
      "name": "byteToHexString",
      "outputs": [
        {
          "internalType": "string",
          "name": "",
          "type": "string"
        }
      ],
      "stateMutability": "pure",
      "type": "function"
    },
    {
      "inputs": [
        {
          "internalType": "bytes1",
          "name": "b",
          "type": "bytes1"
        }
      ],
      "name": "byteToUint",
      "outputs": [
        {
          "internalType": "uint256",
          "name": "",
          "type": "uint256"
        }
      ],
      "stateMutability": "pure",
      "type": "function"
    },
    {
      "inputs": [
        {
          "internalType": "uint8",
          "name": "layerIndex",
          "type": "uint8"
        },
        {
          "internalType": "uint8",
          "name": "itemIndex",
          "type": "uint8"
        }
      ],
      "name": "getLayer",
      "outputs": [
        {
          "components": [
            {
              "internalType": "string",
              "name": "name",
              "type": "string"
            },
            {
              "internalType": "bytes",
              "name": "hexString",
              "type": "bytes"
            }
          ],
          "internalType": "struct ChainRunnersBaseRenderer.Layer",
          "name": "",
          "type": "tuple"
        }
      ],
      "stateMutability": "view",
      "type": "function"
    },
    {
      "inputs": [
        {
          "internalType": "uint16",
          "name": "_dna",
          "type": "uint16"
        },
        {
          "internalType": "uint8",
          "name": "_index",
          "type": "uint8"
        },
        {
          "internalType": "uint16",
          "name": "_raceIndex",
          "type": "uint16"
        }
      ],
      "name": "getLayerIndex",
      "outputs": [
        {
          "internalType": "uint8",
          "name": "",
          "type": "uint8"
        }
      ],
      "stateMutability": "view",
      "type": "function"
    },
    {
      "inputs": [
        {
          "internalType": "uint16",
          "name": "_dna",
          "type": "uint16"
        }
      ],
      "name": "getRaceIndex",
      "outputs": [
        {
          "internalType": "uint8",
          "name": "",
          "type": "uint8"
        }
      ],
      "stateMutability": "view",
      "type": "function"
    },
    {
      "inputs": [
        {
          "internalType": "uint256",
          "name": "_dna",
          "type": "uint256"
        }
      ],
      "name": "getTokenData",
      "outputs": [
        {
          "components": [
            {
              "internalType": "string",
              "name": "name",
              "type": "string"
            },
            {
              "internalType": "bytes",
              "name": "hexString",
              "type": "bytes"
            }
          ],
          "internalType": "struct ChainRunnersBaseRenderer.Layer[13]",
          "name": "tokenLayers",
          "type": "tuple[13]"
        },
        {
          "components": [
            {
              "internalType": "string",
              "name": "hexString",
              "type": "string"
            },
            {
              "internalType": "uint256",
              "name": "alpha",
              "type": "uint256"
            },
            {
              "internalType": "uint256",
              "name": "red",
              "type": "uint256"
            },
            {
              "internalType": "uint256",
              "name": "green",
              "type": "uint256"
            },
            {
              "internalType": "uint256",
              "name": "blue",
              "type": "uint256"
            }
          ],
          "internalType": "struct ChainRunnersBaseRenderer.Color[8][13]",
          "name": "tokenPalettes",
          "type": "tuple[8][13]"
        },
        {
          "internalType": "uint8",
          "name": "numTokenLayers",
          "type": "uint8"
        },
        {
          "internalType": "string[13]",
          "name": "traitTypes",
          "type": "string[13]"
        }
      ],
      "stateMutability": "view",
      "type": "function"
    },
    {
      "inputs": [],
      "name": "owner",
      "outputs": [
        {
          "internalType": "address",
          "name": "",
          "type": "address"
        }
      ],
      "stateMutability": "view",
      "type": "function"
    },
    {
      "inputs": [],
      "name": "renounceOwnership",
      "outputs": [],
      "stateMutability": "nonpayable",
      "type": "function"
    },
    {
      "inputs": [
        {
          "components": [
            {
              "internalType": "string",
              "name": "name",
              "type": "string"
            },
            {
              "internalType": "bytes",
              "name": "hexString",
              "type": "bytes"
            },
            {
              "internalType": "uint8",
              "name": "layerIndex",
              "type": "uint8"
            },
            {
              "internalType": "uint8",
              "name": "itemIndex",
              "type": "uint8"
            }
          ],
          "internalType": "struct ChainRunnersBaseRenderer.LayerInput[]",
          "name": "toSet",
          "type": "tuple[]"
        }
      ],
      "name": "setLayers",
      "outputs": [],
      "stateMutability": "nonpayable",
      "type": "function"
    },
    {
      "inputs": [
        {
          "internalType": "uint256",
          "name": "_dna",
          "type": "uint256"
        }
      ],
      "name": "tokenSVG",
      "outputs": [
        {
          "internalType": "string",
          "name": "",
          "type": "string"
        }
      ],
      "stateMutability": "view",
      "type": "function"
    },
    {
      "inputs": [
        {
          "components": [
            {
              "internalType": "string",
              "name": "name",
              "type": "string"
            },
            {
              "internalType": "bytes",
              "name": "hexString",
              "type": "bytes"
            }
          ],
          "internalType": "struct ChainRunnersBaseRenderer.Layer[13]",
          "name": "tokenLayers",
          "type": "tuple[13]"
        },
        {
          "components": [
            {
              "internalType": "string",
              "name": "hexString",
              "type": "string"
            },
            {
              "internalType": "uint256",
              "name": "alpha",
              "type": "uint256"
            },
            {
              "internalType": "uint256",
              "name": "red",
              "type": "uint256"
            },
            {
              "internalType": "uint256",
              "name": "green",
              "type": "uint256"
            },
            {
              "internalType": "uint256",
              "name": "blue",
              "type": "uint256"
            }
          ],
          "internalType": "struct ChainRunnersBaseRenderer.Color[8][13]",
          "name": "tokenPalettes",
          "type": "tuple[8][13]"
        },
        {
          "internalType": "uint8",
          "name": "numTokenLayers",
          "type": "uint8"
        }
      ],
      "name": "tokenSVGBuffer",
      "outputs": [
        {
          "internalType": "string[4]",
          "name": "",
          "type": "string[4]"
        }
      ],
      "stateMutability": "pure",
      "type": "function"
    },
    {
      "inputs": [
        {
          "internalType": "uint256",
          "name": "tokenId",
          "type": "uint256"
        },
        {
          "components": [
            {
              "internalType": "uint256",
              "name": "dna",
              "type": "uint256"
            }
          ],
          "internalType": "struct ChainRunnersTypes.ChainRunner",
          "name": "runnerData",
          "type": "tuple"
        }
      ],
      "name": "tokenURI",
      "outputs": [
        {
          "internalType": "string",
          "name": "",
          "type": "string"
        }
      ],
      "stateMutability": "view",
      "type": "function"
    },
    {
      "inputs": [
        {
          "internalType": "address",
          "name": "newOwner",
          "type": "address"
        }
      ],
      "name": "transferOwnership",
      "outputs": [],
      "stateMutability": "nonpayable",
      "type": "function"
    },
    {
      "inputs": [
        {
          "internalType": "uint8",
          "name": "d",
          "type": "uint8"
        }
      ],
      "name": "uintToHexDigit",
      "outputs": [
        {
          "internalType": "bytes1",
          "name": "",
          "type": "bytes1"
        }
      ],
      "stateMutability": "pure",
      "type": "function"
    },
    {
      "inputs": [
        {
          "internalType": "uint256",
          "name": "a",
          "type": "uint256"
        }
      ],
      "name": "uintToHexString2",
      "outputs": [
        {
          "internalType": "string",
          "name": "",
          "type": "string"
        }
      ],
      "stateMutability": "pure",
      "type": "function"
    },
    {
      "inputs": [
        {
          "internalType": "uint256",
          "name": "a",
          "type": "uint256"
        }
      ],
      "name": "uintToHexString6",
      "outputs": [
        {
          "internalType": "string",
          "name": "",
          "type": "string"
        }
      ],
      "stateMutability": "pure",
      "type": "function"
    }
  ],
  "transactionHash": "0x3cf8d36d349959eb76328e5be7c85a0ea31f364ae5c8a05740f6e248d70284a4",
  "args": [],
  "numDeployments": 1,
  "solcInputHash": "a9616ff7df6c6682162af9a9881c1840",
  "bytecode": "0x60806040523480156200001157600080fd5b506200001d3362002413565b600180556040805161058081018252602480825260e1602083018190529282018390526060820183905261016860808301819052608760a0840152601b60c0840181905260e0840182905261013b610100850181905261012085018190526101408501819052610160850152610180840185905260b46101a085018190526101c085018690526101e0850181905261020085018390526102208501819052602d6102408601819052610260860184905261028086018490526102a086018490526102c08601929092526102e0850193909352610300840182905261032084018190526103408401839052610360840182905261038084018590526103a084018290526103c084018590526103e084018590526104008401829052610420840183905261044084015261046083015260126104808301526104a082018390526104c082018390526104e0820183905261050082018390526105208201526105408101919091526101696105608201526200019b90600f90602c62002463565b50604080516101e08101825261036b81526104f5602082015261030b918101829052606081018290526080810182905260a0810182905260c0810182905260e08101829052610100810182905261012081018290526101408101829052610160810191909152601161018082015260086101a082015260296101c08201526200022990601090600f62002463565b50604080516104208101825261012f8082526020820181905291810182905260608101829052609760808201819052601e60a08301819052600060c0840181905260e0840152610100830182905261012083018290526101408301829052610160830182905261018083018190526101a083018490526101c083018290526101e08301819052610200830184905261022083018490526102408301849052610260830184905261028083018490526102a083018490526102c08301526102e0820152610300810182905261032081018290526103408101829052610360810182905261038081018290526103a081018290526103c081018290526103e0810191909152610bfa6104008201526200034590601190602162002463565b50604080516101c0810182526102858082526000602083015261050a92820192909252610142606082018190526080820183905260a0820183905260c082018390526103c760e08301819052610100830191909152610120820181905261014082019290925261016081018290526101808101919091526103cd6101a0820152620003d590601290600e62002463565b506040805161016081018252600080825260208201819052918101919091526104e2606082018190526080820181905260a0820181905260c0820181905260e08201819052610100820181905261012082018190526101408201526200044090601390600b62002463565b506040805161094081018252607980825260208201819052918101829052606081018290526080810182905260a0810182905260f360c08201819052600060e08301819052610100830181905261012083018190526101408301819052610160830184905261018083018490526101a083018290526101c083018490526101e08301849052610200830182905261022083018490526102408301849052610260830184905261028083018490526102a083018490526102c083018290526102e08301849052610300830184905261032083018490526103408301849052610360830182905261038083018490526103a083018490526103c083018490526103e08301849052610400830182905261042083018490526104408301849052610460830184905261048083018290526104a083018490526104c083018490526104e08301849052610500830184905261052083018290526105408301849052610560830184905261058083018490526105a083018490526105c083018290526105e08301849052610600830184905261062083018490526106408301849052610660830182905261068083018490526106a083018490526106c083018490526106e08301849052610700830182905261072083018490526107408301849052610760830184905261078083018490526107a083018290526107c083018490526107e0830184905261080083018290526108208301819052610840830181905261086083015261088082018390526108a082018390526108c08201526108e08101829052610900810191909152610132610920820152620006a390601490604a62002463565b50604080516101608101825261039d80825261022b6020830181905260b993830184905260608301526080820181905260a082015260c081019190915261051060e0820181905261010082018190526101208201526107416101408201526200071190601590600b62002463565b50604080516101008101825260588082526020820181905291810182905260608101829052608081019190915261010960a08201526101ba60c082015261229560e08201526200076690601690600862002463565b50604080516101008101825260bd8082526020820152602f918101919091526012606082015260096080820152601c60a0820152602560c082015261250b60e0820152620007b990601790600862002463565b50604080516104a08101825261015480825260208201819052918101829052606081018290526080810182905260a08101829052602260c0820181905260e0820183905261010082018390526101208201839052610140820183905260aa610160830181905261018083018190526101a0830181905260666101c084015260ee6101e08401819052610200840181905261022084018190526101106102408501819052610260850186905261028085018690526102a085018690526102c08501526102e08401819052610300840181905261032084018190526103408401526103608301526103808201526103a081018290526103c0810182905260886103e0820152610400810182905261042081018290526104408101829052610460810191909152610158610480820152620008f690601890602562002463565b506040805161042081018252609f80825260d460208301819052606a938301849052603560608401819052601a608085015260a0840183905260c0840181905261010960e08501819052610100850182905261012085018390526101408501849052610160850181905261018085018290526101a085018190526101c085018190526101e085018390526102008501829052610220850184905260ef6102408601526102608501829052610280850186905260056102a08601526102c085018690526102e08501919091526103008401829052610320840182905261034084019490945261036083019190915261038082018190526103a082018390526103c08201526103e08101919091526113ca61040082015262000a1b90601990602162002463565b506040805161062081018252608b8082526101166020830181905292820183905260fa60608301819052608083015260c260a0830181905260de60c0840181905260e08401859052610100840185905261012084018290526101408401819052605361016085018190526101808501919091526101a084018590526101c084018390526101e08401839052601b610200850181905261022085018690526102408501869052610260850186905261028085018690526102a085018190526102c085018690526102e08501849052610300850186905261032085018690526103408501869052610360850186905261038085018690526103a085018690526103c085018690526103e08501869052610400850186905261042085018690526104408501869052610460850181905261048085018490526104a085018490526104c085018490526104e085019390935260006105008501526105208401859052610540840191909152610560830181905261058083018190526105a08301939093526105c08201929092526105e081019190915261013261060082015262000bc690601a90603162002463565b5060408051610120810182526103d5808252610b81602083015261028e92820183905260106060830152608082015261014760a082015260c081019190915260a360e0820152610ccf61010082015262000c2590601b90600962002463565b506040805161058081018252602480825260e1602083018190529282018390526060820183905261016860808301819052608760a0840152601b60c0840181905260e0840182905261013b610100850181905261012085018190526101408501819052610160850152610180840185905260b46101a085018190526101c085018690526101e0850181905261020085018390526102208501819052602d6102408601819052610260860184905261028086018490526102a086018490526102c08601929092526102e0850193909352610300840182905261032084018190526103408401839052610360840182905261038084018590526103a084018290526103c084018590526103e084018590526104008401829052610420840183905261044084015261046083015260126104808301526104a082018390526104c082018390526104e08201839052610500820183905261052082015261054081019190915261016961056082015262000da090601c90602c62002463565b50604080516101e08101825261036b81526104f5602082015261030b918101829052606081018290526080810182905260a0810182905260c0810182905260e08101829052610100810182905261012081018290526101408101829052610160810191909152601161018082015260086101a082015260296101c082015262000e2e90601d90600f62002463565b506040805161042081018252600080825260208201819052918101829052606081018290526080810182905260a0810182905260c0810182905260e08101829052610100810182905261012081018290526101408101829052610160810182905261018081018290526101a081018290526101c081018290526101e08101829052610200810182905261022081018290526102408101829052610260810182905261028081018290526102a081018290526102c081018290526102e08101829052610300810182905261032081018290526103408101829052610360810182905261038081018290526103a081018290526103c081018290526103e081019190915261271061040082015262000f4990601e90602162002463565b50604080516101c081018252600080825260208201819052918101829052606081018290526080810182905260a0810182905260c0810182905260e08101829052610100810182905261012081018290526101408101829052610160810182905261018081018290526101a081019190915262000fcb90601f90600e62002513565b50604080516101608101825260008082526020808301829052928201819052606082018190526080820181905260a0820181905260c0820181905260e0820181905261010082018190526101208201819052610140820152620010319190600b62002513565b506040805161094081018252600080825260208201819052918101829052606081018290526080810182905260a0810182905260c0810182905260e0810182905261010081018290526101208101829052610140810182905261016081018290526101808082018390526101a082018390526101c082018390526101e08201839052610200820183905261022082018390526102408201839052610260820183905261028082018390526102a082018390526102c082018390526102e08201839052610300820183905261032082018390526103408201839052610360820183905261038082018390526103a082018390526103c082018390526103e08201839052610400820183905261042082018390526104408201839052610460820183905261048082018390526104a082018390526104c082018390526104e08201839052610500820183905261052082018390526105408201839052610560820183905261058082018390526105a082018390526105c082018390526105e08201839052610600820183905261062082018390526106408201839052610660820183905261068082018390526106a082018390526106c082018390526106e08201839052610700820183905261072082018390526107408201839052610760820183905261078082018390526107a082018390526107c082018390526107e082018390526108008201839052610820820152611e0c61084082015261078361086082015261088081018290526108a081018290526108c081018290526108e0810182905261090081019190915260016109208201526200129490602190604a62002463565b506040805161016081018252600080825260208201819052918101829052606081018290526080810182905260a0810182905260c0810182905260e081018290526101008101829052610120810191909152612710610140820152620012ff90602290600b62002463565b506040805161010081018252600080825260208201819052918101829052606081018290526080810182905261038d60a082015260c081019190915261238360e08201526200135390602390600862002463565b506040805161010081018252600080825260208201819052918101829052606081018290526080810182905260a0810182905260c081019190915261271060e0820152620013a690602490600862002463565b50604080516104a08101825261020e808252602082018190529181018290526000606082018190526080820181905260a0820181905260c0820181905260e08201819052610100820183905261012082018190526101408201819052610160820181905261018082018390526101a082018190526101c082018390526101e08201819052610200820181905261022082018190526102408201839052610260820183905261028082018390526102a082018390526102c082018390526102e08201839052610300820183905261032082018390526103408201839052610360820183905261038082018390526103a082018190526103c082018190526103e0820192909252610400810182905261042081018290526104408101829052610460810191909152610214610480820152620014e4906025908162002463565b50604080516104208101825260508082526000602083018190526101909383019390935260f0606083018190526080830182905260a0830184905260c083015260e08201839052610100820183905261012082018190526101408201819052610160820181905261018082018390526101a082018390526101c082018390526101e08201839052610200820181905261022082018190526102408201839052610260820183905261028082018190526102a082018190526102c082018390526102e0820181905261030082018190526103208201819052610340820181905261036082015261038081018290526103a081018290526103c081018290526103e0810191909152611f406104008201526200160390602690602162002463565b506040805161062081018252610121808252600060208301819052928201839052606082018390526080820183905261019460a08301526101ce60c0830181905261024260e0840181905261010084018190526101208401859052610140840182905260ad6101608501526101808401919091526101a083018190526101c083018490526101e083018490526039610200840181905261022084018590526102408401819052610260840185905261028084018190526102a084018190526102c084018290526102e08401839052610300840182905261032084018190526103408401859052610360840181905261038084018190526103a084018190526103c084018290526103e08401829052610400840185905261042084018590526104408401859052610460840185905261048084018590526104a084018590526104c084018190526104e084019290925261050083015261052082018390526105408201839052610560820183905260e76105808301526105a08201526105c081018290526105e08101919091526106d1610600820152620017a890602790603162002463565b5060408051610120810182526102ca80825260208201819052918101829052600060608201819052608082019290925260a0810182905260c0810182905260e0810191909152611be86101008201526200180790602890600962002463565b506040805161058081018252602480825260e1602083018190529282018390526060820183905261016860808301819052608760a0840152601b60c0840181905260e0840182905261013b610100850181905261012085018190526101408501819052610160850152610180840185905260b46101a085018190526101c085018690526101e0850181905261020085018390526102208501819052602d6102408601819052610260860184905261028086018490526102a086018490526102c08601929092526102e0850193909352610300840182905261032084018190526103408401839052610360840182905261038084018590526103a084018290526103c084018590526103e084018590526104008401829052610420840183905261044084015261046083015260126104808301526104a082018390526104c082018390526104e0820183905261050082018390526105208201526105408101919091526101696105608201526200198290602990602c62002463565b50604080516101e08101825261036b81526104f5602082015261030b918101829052606081018290526080810182905260a0810182905260c0810182905260e08101829052610100810182905261012081018290526101408101829052610160810191909152601161018082015260086101a082015260296101c082015262001a1090602a90600f62002463565b50604080516104208101825261012f8082526020820181905291810182905260608101829052609760808201819052601e60a08301819052600060c0840181905260e0840152610100830182905261012083018290526101408301829052610160830182905261018083018190526101a083018490526101c083018290526101e08301819052610200830184905261022083018490526102408301849052610260830184905261028083018490526102a083018490526102c08301526102e0820152610300810182905261032081018290526103408101829052610360810182905261038081018290526103a081018290526103c081018290526103e0810191909152610bfa61040082015262001b2c90602b90602162002463565b50604080516101c0810182526102858082526000602083015261050a92820192909252610142606082018190526080820183905260a0820183905260c082018390526103c760e08301819052610100830191909152610120820181905261014082019290925261016081018290526101808101919091526103cd6101a082015262001bbc90602c90600e62002463565b5060408051610160810182526109c4808252602082018190529181018290526000606082018190526080820181905260a0820181905260c0820181905260e08201819052610100820181905261012082019290925261014081019190915262001c2a90602d90600b62002463565b506040805161094081018252600080825260208201819052918101829052606081018290526080810182905260a0810182905261024c60c0820181905260e08201819052610100820181905261012082018190526101408201819052610160820183905261018082018390526101a082018190526101c082018390526101e08201839052610200820181905261022082018390526102408201839052610260820183905261028082018390526102a082018390526102c082018190526102e08201839052610300820183905261032082018390526103408201839052610360820181905261038082018390526103a082018390526103c082018390526103e08201819052610400820181905261042082018390526104408201839052610460820183905261048082018190526104a082018390526104c082018390526104e08201839052610500820183905261052082018190526105408201839052610560820183905261058082018390526105a082018390526105c082018390526105e08201839052610600820183905261062082018390526106408201839052610660820181905261068082018390526106a082018390526106c082018390526106e08201839052610700820181905261072082018390526107408201839052610760820183905261078082018390526107a082018190526107c082018390526107e08201839052610800820183905261082082018390526108408201839052610860820183905261088082018390526108a082018390526108c08201526108e08101829052610900810191909152600461092082015262001e8d90602e90604a62002463565b50604080516101608101825261039d80825261022b6020830181905260b993830184905260608301526080820181905260a082015260c081019190915261051060e08201819052610100820181905261012082015261074161014082015262001efb90602f90600b62002463565b50604080516101008101825260588082526020820181905291810182905260608101829052608081019190915261010960a08201526101ba60c082015261229560e082015262001f5090603090600862002463565b50604080516101008101825260b7815261011260208201819052918101919091526012606082018190526080820152601b60a0820152602460c08201526123d260e082015262001fa590603190600862002463565b50604080516104a08101825261015480825260208201819052918101829052606081018290526080810182905260a08101829052602260c0820181905260e0820183905261010082018390526101208201839052610140820183905260aa610160830181905261018083018190526101a0830181905260666101c084015260ee6101e08401819052610200840181905261022084018190526101106102408501819052610260850186905261028085018690526102a085018690526102c08501526102e08401819052610300840181905261032084018190526103408401526103608301526103808201526103a081018290526103c0810182905260886103e0820152610400810182905261042081018290526104408101829052610460810191909152610158610480820152620020e290603290602562002463565b50604080516104208101825260d980825261016a6020830181905292820181905260906060830181905260486080840181905261012160a0850181905260c0850183905260e08501869052610100850182905261012085018190526101408501849052610160850186905261018085018290526101a085018690526101c085018690526101e08501819052600061020086018190526102208601859052610240860152610260850182905261028085019290925260076102a08501526102c084018390526102e084015261030083018290526103208301829052610340830181905261036083018290526103808301526103a082018390526103c08201526103e0810191909152610cc56104008201526200220290603390602162002463565b506040805161062081018252608b8082526101166020830181905292820183905260fa60608301819052608083015260c260a0830181905260de60c0840181905260e08401859052610100840185905261012084018290526101408401819052605361016085018190526101808501919091526101a084018590526101c084018390526101e08401839052601b610200850181905261022085018690526102408501869052610260850186905261028085018690526102a085018190526102c085018690526102e08501849052610300850186905261032085018690526103408501869052610360850186905261038085018690526103a085018690526103c085018690526103e08501869052610400850186905261042085018690526104408501869052610460850181905261048085018490526104a085018490526104c085018490526104e085019390935260006105008501526105208401859052610540840191909152610560830181905261058083018190526105a08301939093526105c08201929092526105e0810191909152610132610600820152620023ad90603490603162002463565b5060408051610120810182526103d5808252610b81602083015261028e92820183905260106060830152608082015261014760a082015260c081019190915260a360e0820152610ccf6101008201526200240c90603590600962002463565b5062002595565b600080546001600160a01b038381166001600160a01b0319831681178455604051919092169283917f8be0079c531659141344cd1fd0a4f28419497f9722a3daafe3b4186f6b6457e09190a35050565b82805482825590600052602060002090600f01601090048101928215620025015791602002820160005b83821115620024cf57835183826101000a81548161ffff021916908361ffff16021790555092602001926002016020816001010492830192600103026200248d565b8015620024ff5782816101000a81549061ffff0219169055600201602081600101049283019260010302620024cf565b505b506200250f9291506200257e565b5090565b82805482825590600052602060002090600f01601090048101928215620025015791602002820160005b83821115620024cf57835183826101000a81548161ffff021916908360ff16021790555092602001926002016020816001010492830192600103026200253d565b5b808211156200250f57600081556001016200257f565b614a0280620025a56000396000f3fe608060405234801561001057600080fd5b50600436106101365760003560e01c8063a62f8deb116100b2578063da8343c911610081578063f2fde38b11610066578063f2fde38b146102b4578063fca228ce146102c7578063ffbcaa51146102da57600080fd5b8063da8343c91461028d578063e9703701146102a057600080fd5b8063a62f8deb14610224578063b09afec114610237578063d129beee1461025a578063d68cf31f1461027a57600080fd5b80637249db4d116101095780637f436b5c116100ee5780637f436b5c146101cb5780638da5cb5b146101eb5780639bac5f7a1461021157600080fd5b80637249db4d146101ae5780637e8e0657146101c357600080fd5b80633ef21a5e1461013b5780634489fb2a146101645780637148ede114610184578063715018a6146101a4575b600080fd5b61014e61014936600461381d565b6102ed565b60405161015b91906144c7565b60405180910390f35b61017761017236600461390a565b610302565b60405161015b9190614522565b6101976101923660046137a2565b610486565b60405161015b9190614462565b6101ac611171565b005b6101b6600881565b60405161015b9190614533565b6101b6600d81565b6101de6101d936600461383a565b6111bd565b60405161015b9190614541565b60005473ffffffffffffffffffffffffffffffffffffffff1660405161015b9190614454565b61014e61021f366004613898565b6112a6565b61014e6102323660046138b5565b61130a565b61024a610245366004613898565b6114ae565b60405161015b9493929190614473565b61026d6102683660046138ed565b611c65565b60405161015b91906144b9565b61014e610288366004613898565b611cba565b6101ac61029b366004613760565b611d4c565b6101b66102ae36600461381d565b60f81c90565b6101ac6102c2366004613743565b611fa3565b6101de6102d5366004613857565b612019565b61014e6102e8366004613898565b6121b8565b60606102fc6102e88360f81c90565b92915050565b604080518082019091526060808252602082015260028360ff16600d811061033a57634e487b7160e01b600052603260045260246000fd5b0160008360ff16815260200190815260200160002060405180604001604052908160008201805461036a90614809565b80601f016020809104026020016040519081016040528092919081815260200182805461039690614809565b80156103e35780601f106103b8576101008083540402835291602001916103e3565b820191906000526020600020905b8154815290600101906020018083116103c657829003601f168201915b505050505081526020016001820180546103fc90614809565b80601f016020809104026020016040519081016040528092919081815260200182805461042890614809565b80156104755780601f1061044a57610100808354040283529160200191610475565b820191906000526020600020905b81548152906001019060200180831161045857829003601f168201915b505050505081525050905092915050565b61048e6131c2565b6040805161044081018252600461040082018181527f4d444177000000000000000000000000000000000000000000000000000000006104208401528252825180840184528181527f4d4445770000000000000000000000000000000000000000000000000000000060208281019190915280840191909152835180850185528281527f4d444977000000000000000000000000000000000000000000000000000000008183015283850152835180850185528281527f4d444d770000000000000000000000000000000000000000000000000000000081830152606080850191909152845180860186528381527f4d4451770000000000000000000000000000000000000000000000000000000081840152608080860191909152855180870187528481527f4d445577000000000000000000000000000000000000000000000000000000008185015260a080870191909152865180880188528581527f4d445977000000000000000000000000000000000000000000000000000000008186015260c080880191909152875180890189528681527f4d446377000000000000000000000000000000000000000000000000000000008187015260e0880152875180890189528681527f4d4467770000000000000000000000000000000000000000000000000000000081870152610100880152875180890189528681527f4d446b770000000000000000000000000000000000000000000000000000000081870152610120880152875180890189528681527f4d5441770000000000000000000000000000000000000000000000000000000081870152610140880152875180890189528681527f4d5445770000000000000000000000000000000000000000000000000000000081870152610160880152875180890189528681527f4d5449770000000000000000000000000000000000000000000000000000000081870152610180880152875180890189528681527f4d544d7700000000000000000000000000000000000000000000000000000000818701526101a0880152875180890189528681527f4d54517700000000000000000000000000000000000000000000000000000000818701526101c0880152875180890189528681527f4d54557700000000000000000000000000000000000000000000000000000000818701526101e0880152875180890189528681527f4d5459770000000000000000000000000000000000000000000000000000000081870152610200880152875180890189528681527f4d5463770000000000000000000000000000000000000000000000000000000081870152610220880152875180890189528681527f4d5467770000000000000000000000000000000000000000000000000000000081870152610240880152875180890189528681527f4d546b770000000000000000000000000000000000000000000000000000000081870152610260880152875180890189528681527f4d6a41770000000000000000000000000000000000000000000000000000000081870152610280880152875180890189528681527f4d6a457700000000000000000000000000000000000000000000000000000000818701526102a0880152875180890189528681527f4d6a497700000000000000000000000000000000000000000000000000000000818701526102c0880152875180890189528681527f4d6a4d7700000000000000000000000000000000000000000000000000000000818701526102e0880152875180890189528681527f4d6a51770000000000000000000000000000000000000000000000000000000081870152610300880152875180890189528681527f4d6a55770000000000000000000000000000000000000000000000000000000081870152610320880152875180890189528681527f4d6a59770000000000000000000000000000000000000000000000000000000081870152610340880152875180890189528681527f4d6a63770000000000000000000000000000000000000000000000000000000081870152610360880152875180890189528681527f4d6a67770000000000000000000000000000000000000000000000000000000081870152610380880152875180890189528681527f4d6a6b7700000000000000000000000000000000000000000000000000000000818701526103a0880152875180890189528681527f4d7a417700000000000000000000000000000000000000000000000000000000818701526103c0880152875180890189529586527f4d7a457700000000000000000000000000000000000000000000000000000000868601526103e08701959095528651948501875260008086529385019390935294830181905282810181905293820184905281019290925290610bbd60405180610100016040528060608152602001606081526020016060815260200160608152602001606081526020016060815260200160608152602001606081525090565b610bc56131e9565b610bcd6131c2565b60008060205b6101a081101561115f57610bee8c8260008e8e60ff16612347565b6040880152610c048c8260018e60ff8f16612347565b6060880152610c1a8c8260028e60ff8f16612347565b6080880152610c308c8260038e60ff8f16612347565b60a0880152610c3f8888612581565b865286516004908890610c539083906146c1565b60ff908116909152610c7091508d9083906004908f908f16612347565b6040880152610c868c8260058e60ff8f16612347565b6060880152610c9c8c8260068e60ff8f16612347565b6080880152610cb28c8260078e60ff8f16612347565b60a0880152610cc18888612581565b602087015286516004908890610cd89083906146c1565b60ff16905250610ce96003826146ae565b9050610cfc8c8260008e8e60ff16612347565b6040880152610d128c8260018e60ff8f16612347565b6060880152610d288c8260028e60ff8f16612347565b6080880152610d3e8c8260038e60ff8f16612347565b60a0880152610d4d8888612581565b604087015286516004908890610d649083906146c1565b60ff908116909152610d8191508d9083906004908f908f16612347565b6040880152610d978c8260058e60ff8f16612347565b6060880152610dad8c8260068e60ff8f16612347565b6080880152610dc38c8260078e60ff8f16612347565b60a0880152610dd28888612581565b606087015286516004908890610de99083906146c1565b60ff16905250610dfa6003826146ae565b9050610e0d8c8260008e8e60ff16612347565b6040880152610e238c8260018e60ff8f16612347565b6060880152610e398c8260028e60ff8f16612347565b6080880152610e4f8c8260038e60ff8f16612347565b60a0880152610e5e8888612581565b608087015286516004908890610e759083906146c1565b60ff908116909152610e9291508d9083906004908f908f16612347565b6040880152610ea88c8260058e60ff8f16612347565b6060880152610ebe8c8260068e60ff8f16612347565b6080880152610ed48c8260078e60ff8f16612347565b60a0880152610ee38888612581565b60a087015286516004908890610efa9083906146c1565b60ff16905250610f0b6003826146ae565b9050610f1e8c8260008e8e60ff16612347565b6040880152610f348c8260018e60ff8f16612347565b6060880152610f4a8c8260028e60ff8f16612347565b6080880152610f608c8260038e60ff8f16612347565b60a0880152610f6f8888612581565b60c087015286516004908890610f869083906146c1565b60ff908116909152610fa391508d9083906004908f908f16612347565b6040880152610fb98c8260058e60ff8f16612347565b6060880152610fcf8c8260068e60ff8f16612347565b6080880152610fe58c8260078e60ff8f16612347565b60a0880152610ff48888612581565b60e08701528651600490889061100b9083906146c1565b60ff1690525061101c6003826146ae565b9050856000015186602001518760400151886060015189608001518a60a001518b60c001518c60e0015160405160200161105d989796959493929190613dc3565b60405160208183030381529060405285848061107890614893565b955060ff166008811061109b57634e487b7160e01b600052603260045260246000fd5b602090810291909101919091526000885287018051600191906110bf9083906146c1565b60ff908116909152600890851610905061115a57845160208087015160408089015160608a015160808b015160a08c015160c08d015160e08e015195516111129998959694959394929391929101613dc3565b60405160208183030381529060405284838061112d90614893565b945060ff166004811061115057634e487b7160e01b600052603260045260246000fd5b6020020152600092505b610bd3565b509196505050505050505b9392505050565b60005473ffffffffffffffffffffffffffffffffffffffff1633146111b15760405162461bcd60e51b81526004016111a8906144e8565b60405180910390fd5b6111bb6000612744565b565b6000806000805b60105460ff821610156112a0576010805460ff83169081106111f657634e487b7160e01b600052603260045260246000fd5b90600052602060002090601091828204019190066002029054906101000a900461ffff1691508261ffff168561ffff16101580156112445750611239828461465e565b61ffff168561ffff16105b15611282578060ff166001141561126057506002949350505050565b600b8160ff16111561127757506001949350505050565b506000949350505050565b61128c828461465e565b92508061129881614893565b9150506111c4565b50600080fd5b606060008060006112b6856114ae565b5092509250925060006112ca848484610486565b8051602080830151604080850151606086015191519596506112f0959293909201614302565b604051602081830303815290604052945050505050919050565b606060008060008061131f86600001516114ae565b9350935093509350606060005b8360ff168160ff1610156114415781825160001461137f576040518060400160405280600481526020017f4c434237000000000000000000000000000000000000000000000000000000008152506113b6565b6040518060400160405280600481526020017f65794167000000000000000000000000000000000000000000000000000000008152505b848360ff16600d81106113d957634e487b7160e01b600052603260045260246000fd5b6020020151888460ff16600d811061140157634e487b7160e01b600052603260045260246000fd5b60200201516000015160405160200161141d9493929190613e2e565b6040516020818303038152906040529150808061143990614893565b91505061132c565b50600061144f868686610486565b805160208201516040830151606084015193945091929091908561147c6114778f60066127b9565b6129fd565b60405160200161149196959493929190614077565b604051602081830303815290604052965050505050505092915050565b6114b6613204565b6114be61323e565b60006114c861326c565b60006114d386612bc6565b905060006114e782600160200201516111bd565b60ff1690506000600f826003811061150f57634e487b7160e01b600052603260045260246000fd5b600d020160070160078154811061153657634e487b7160e01b600052603260045260246000fd5b90600052602060002090601091828204019190066002029054906101000a900461ffff166127106115679190614762565b61ffff16836007602002015161ffff161090506000600f8361ffff16600381106115a157634e487b7160e01b600052603260045260246000fd5b600d02016008016007815481106115c857634e487b7160e01b600052603260045260246000fd5b90600052602060002090601091828204019190066002029054906101000a900461ffff166127106115f99190614762565b61ffff16846008602002015161ffff161090506000600f8461ffff166003811061163357634e487b7160e01b600052603260045260246000fd5b600d020160090160248154811061165a57634e487b7160e01b600052603260045260246000fd5b90600052602060002090601091828204019190066002029054906101000a900461ffff1661271061168b9190614762565b61ffff16856009602002015161ffff161090506000600f8561ffff16600381106116c557634e487b7160e01b600052603260045260246000fd5b600d0201600b016030815481106116ec57634e487b7160e01b600052603260045260246000fd5b90600052602060002090601091828204019190066002029054906101000a900461ffff1661271061171d9190614762565b61ffff1686600b602002015161ffff1610905060008060028882602002015161174691906148ac565b61ffff1611905060005b600d8160ff161015611c56576000611794826101728b8560ff16600d811061178857634e487b7160e01b600052603260045260246000fd5b6020020151858c612019565b60208101515190915015611c42578160ff16600214806117b757508160ff16600c145b80156117c1575085155b80156117cb575086155b806117e257508160ff1660071480156117e2575085155b806117f957508160ff16600a1480156117f9575085155b8061184c575060028260ff161080611822575060028260ff16118015611822575060078260ff16105b8061183057508160ff166008145b8061183e57508160ff166009145b8061184c57508160ff16600b145b15611c425784801561185b5750835b801561187257508160ff1660091480156118725750825b8061188957508160ff16600b148015611889575082155b156118945750611c44565b808d8c60ff16600d81106118b857634e487b7160e01b600052603260045260246000fd5b60200201526118f18d60ff8d16600d81106118e357634e487b7160e01b600052603260045260246000fd5b602002015160200151612c33565b8c8c60ff16600d811061191457634e487b7160e01b600052603260045260246000fd5b60209081029190910191909152604080516101e08101825260106101a082018181527f516d466a61326479623356755a434167000000000000000000000000000000006101c084015282528251808401845260088082527f556d466a5a5341670000000000000000000000000000000000000000000000008287015283860191909152835180850185528181527f526d466a5a5341670000000000000000000000000000000000000000000000008187015283850152835180850185528181527f5457393164476767000000000000000000000000000000000000000000000000818701526060840152835180850185528181527f546d397a5a534167000000000000000000000000000000000000000000000000818701526080840152835180850185528181527f52586c6c637941670000000000000000000000000000000000000000000000008187015260a08401528351808501855260148082527f525746794945466a5932567a63323979655341670000000000000000000000008288015260c0850191909152845180860186528181527f526d466a5a53424259324e6c63334e76636e6b670000000000000000000000008188015260e0850152845180860186529182527f5457467a6179416700000000000000000000000000000000000000000000000082870152610100840191909152835180850185528281527f534756685a4342435a577876647941670000000000000000000000000000000081870152610120840152835180850185528181527f52586c6c4945466a5932567a633239796553416700000000000000000000000081870152610140840152835180850185529182527f534756685a434242596d39325a5341670000000000000000000000000000000082860152610160830191909152825180840190935282527f545739316447676751574e6a5a584e7a62334a350000000000000000000000009282019290925261018082015260ff8316600d8110611c0757634e487b7160e01b600052603260045260246000fd5b60200201518a8c60ff16600d8110611c2f57634e487b7160e01b600052603260045260246000fd5b60200201528a611c3e81614893565b9b50505b505b80611c4e81614893565b915050611750565b50505050505050509193509193565b600060098260ff1611611c8657611c7d8260306146c1565b60f81b92915050565b8160ff16600a11158015611c9e5750600f8260ff1611155b1561013657600a611cb08360616146c1565b611c7d919061478b565b60606000611cc7836121b8565b9050805160021415611cfb5780604051602001611ce4919061444b565b604051602081830303815290604052915050919050565b805160031415611d165780604051602001611ce4919061404b565b805160041415611d315780604051602001611ce4919061441f565b8051600514156102fc5780604051602001611ce49190613e98565b60005473ffffffffffffffffffffffffffffffffffffffff163314611d835760405162461bcd60e51b81526004016111a8906144e8565b60005b61ffff8116821115611f9e57604051806040016040528084848461ffff16818110611dc157634e487b7160e01b600052603260045260246000fd5b9050602002810190611dd391906145b8565b611ddd908061454f565b8080601f016020809104026020016040519081016040528093929190818152602001838380828437600092019190915250505090825250602001848461ffff8516818110611e3b57634e487b7160e01b600052603260045260246000fd5b9050602002810190611e4d91906145b8565b611e5b90602081019061454f565b8080601f01602080910402602001604051908101604052809392919081815260200183838082843760009201919091525050509152506002848461ffff8516818110611eb757634e487b7160e01b600052603260045260246000fd5b9050602002810190611ec991906145b8565b611eda9060608101906040016138ed565b60ff16600d8110611efb57634e487b7160e01b600052603260045260246000fd5b01600085858561ffff16818110611f2257634e487b7160e01b600052603260045260246000fd5b9050602002810190611f3491906145b8565b611f459060808101906060016138ed565b60ff168152602080820192909252604001600020825180519192611f6e92849290910190613287565b506020828101518051611f879260018501920190613287565b509050508080611f969061485d565b915050611d86565b505050565b60005473ffffffffffffffffffffffffffffffffffffffff163314611fda5760405162461bcd60e51b81526004016111a8906144e8565b73ffffffffffffffffffffffffffffffffffffffff811661200d5760405162461bcd60e51b81526004016111a8906144d8565b61201681612744565b50565b6000806000805b600f8561ffff166003811061204557634e487b7160e01b600052603260045260246000fd5b600d02018660ff16600d811061206b57634e487b7160e01b600052603260045260246000fd5b015460ff8216101561216057600f8561ffff166003811061209c57634e487b7160e01b600052603260045260246000fd5b600d02018660ff16600d81106120c257634e487b7160e01b600052603260045260246000fd5b018160ff16815481106120e557634e487b7160e01b600052603260045260246000fd5b90600052602060002090601091828204019190066002029054906101000a900461ffff1691508261ffff168761ffff16101580156121335750612128828461465e565b61ffff168761ffff16105b1561214257925061116a915050565b61214c828461465e565b92508061215881614893565b915050612020565b50600f8461ffff166003811061218657634e487b7160e01b600052603260045260246000fd5b600d02018560ff16600d81106121ac57634e487b7160e01b600052603260045260246000fd5b01549695505050505050565b60606000825b80156121e457816121ce8161487f565b92506121dd90506010826146e2565b90506121be565b60008267ffffffffffffffff81111561220d57634e487b7160e01b600052604160045260246000fd5b6040519080825280601f01601f191660200182016040528015612237576020820181803683370190505b50905060005b838110156122dc576122506010876148cc565b925061225b83611c65565b8260016122688488614785565b6122729190614785565b8151811061229057634e487b7160e01b600052603260045260246000fd5b60200101907effffffffffffffffffffffffffffffffffffffffffffffffffffffffffffff1916908160001a9053506122ca6010876146e2565b95506122d58161487f565b905061223d565b508051819061232357505060408051808201909152600281527f30300000000000000000000000000000000000000000000000000000000000006020820152949350505050565b80516001141561233e57806040516020016112f09190613e98565b95945050505050565b606060005b828110156125385760008482612363600187614785565b61236d9190614785565b600d811061238b57634e487b7160e01b600052603260045260246000fd5b60200201516123d889846123a0600189614785565b6123aa9190614785565b600d81106123c857634e487b7160e01b600052603260045260246000fd5b6020020151602001518989612e91565b60ff16600881106123f957634e487b7160e01b600052603260045260246000fd5b602002015190508060200151600014156124135750612526565b806020015160ff141561242a5751915061233e9050565b600082612438600287614785565b6124429190614785565b1061251c57600082612455600287614785565b61245f9190614785565b90505b60008682600d811061248457634e487b7160e01b600052603260045260246000fd5b60200201516124bc8b84600d81106124ac57634e487b7160e01b600052603260045260246000fd5b6020020151602001518b8b612e91565b60ff16600881106124dd57634e487b7160e01b600052603260045260246000fd5b60200201519050600081602001511115612509576124fe61147784836130d5565b94505050505061233e565b5080612514816147f2565b915050612462565b51915061233e9050565b806125308161487f565b91505061234c565b506125776040518060400160405280600681526020017f66666666666600000000000000000000000000000000000000000000000000008152506129fd565b9695505050505050565b6060816040015183836000015160ff16602081106125af57634e487b7160e01b600052603260045260246000fd5b602002015184846020015160ff16602081106125db57634e487b7160e01b600052603260045260246000fd5b60200201516060850151855187906125f49060016146c1565b60ff166020811061261557634e487b7160e01b600052603260045260246000fd5b602002015187876020015160ff166020811061264157634e487b7160e01b600052603260045260246000fd5b6020020151608088015188518a9061265a9060026146c1565b60ff166020811061267b57634e487b7160e01b600052603260045260246000fd5b60200201518a8a6020015160ff16602081106126a757634e487b7160e01b600052603260045260246000fd5b602002015160a08b01518b518d906126c09060036146c1565b60ff16602081106126e157634e487b7160e01b600052603260045260246000fd5b60200201518d8d6020015160ff166020811061270d57634e487b7160e01b600052603260045260246000fd5b602002015160405160200161272d9c9b9a99989796959493929190613ecc565b604051602081830303815290604052905092915050565b6000805473ffffffffffffffffffffffffffffffffffffffff8381167fffffffffffffffffffffffff0000000000000000000000000000000000000000831681178455604051919092169283917f8be0079c531659141344cd1fd0a4f28419497f9722a3daafe3b4186f6b6457e09190a35050565b60608260005b81156127e557806127cf8161487f565b91506127de9050600a836146e2565b91506127bf565b60008467ffffffffffffffff81111561280e57634e487b7160e01b600052604160045260246000fd5b6040519080825280601f01601f191660200182016040528015612838576020820181803683370190505b508593509050856128b9577f30000000000000000000000000000000000000000000000000000000000000008160008151811061288557634e487b7160e01b600052603260045260246000fd5b60200101907effffffffffffffffffffffffffffffffffffffffffffffffffffffffffffff1916908160001a905350600191505b81831115612943576128cc600184614785565b92507f200000000000000000000000000000000000000000000000000000000000000081848151811061290f57634e487b7160e01b600052603260045260246000fd5b60200101907effffffffffffffffffffffffffffffffffffffffffffffffffffffffffffff1916908160001a9053506128b9565b815b86156129f357612956600182614785565b90506000612965600a896146e2565b61297090600a614723565b61297a9089614785565b6129859060306146c1565b905060008160f81b9050808484815181106129b057634e487b7160e01b600052603260045260246000fd5b60200101907effffffffffffffffffffffffffffffffffffffffffffffffffffffffffffff1916908160001a9053506129ea600a8a6146e2565b98505050612945565b5095945050505050565b805160609080612a1d575050604080516020810190915260008152919050565b60006003612a2c8360026146ae565b612a3691906146e2565b612a41906004614723565b90506000612a508260206146ae565b67ffffffffffffffff811115612a7657634e487b7160e01b600052604160045260246000fd5b6040519080825280601f01601f191660200182016040528015612aa0576020820181803683370190505b509050600060405180606001604052806040815260200161498d604091399050600181016020830160005b86811015612b2c576003818a01810151603f601282901c8116860151600c83901c8216870151600684901c831688015192909316870151600891821b60ff94851601821b92841692909201901b91160160e01b835260049092019101612acb565b506003860660018114612b465760028114612b9057612bb8565b7f3d3d0000000000000000000000000000000000000000000000000000000000007ffffffffffffffffffffffffffffffffffffffffffffffffffffffffffffffffe830152612bb8565b7f3d000000000000000000000000000000000000000000000000000000000000006000198301525b505050918152949350505050565b612bce61330b565b60005b600d811015612c2d57612be6612710846148cc565b8282600d8110612c0657634e487b7160e01b600052603260045260246000fd5b61ffff9092166020929092020152600e9290921c9180612c258161487f565b915050612bd1565b50919050565b612c3b61332a565b612c4361332a565b60005b60088161ffff161015612e8a57612d0d612cb385612c658460046146f6565b61ffff1681518110612c8757634e487b7160e01b600052603260045260246000fd5b01602001517fff00000000000000000000000000000000000000000000000000000000000000166102ed565b612ccd86612cc28560046146f6565b612c6590600161465e565b612ce787612cdc8660046146f6565b612c6590600261465e565b604051602001612cf993929190613da1565b6040516020818303038152906040526129fd565b828261ffff1660088110612d3157634e487b7160e01b600052603260045260246000fd5b602002015152612d7384612d468360046146f6565b61ffff1681518110612d6857634e487b7160e01b600052603260045260246000fd5b016020015160f81c90565b828261ffff1660088110612d9757634e487b7160e01b600052603260045260246000fd5b602002015160400152612dba84612daf8360046146f6565b612d4690600161465e565b828261ffff1660088110612dde57634e487b7160e01b600052603260045260246000fd5b602002015160600152612e0184612df68360046146f6565b612d4690600261465e565b828261ffff1660088110612e2557634e487b7160e01b600052603260045260246000fd5b602002015160800152612e4884612e3d8360046146f6565b612d4690600361465e565b828261ffff1660088110612e6c57634e487b7160e01b600052603260045260246000fd5b60209081029190910151015280612e828161485d565b915050612c46565b5092915050565b600081612ecb576005848481518110612eba57634e487b7160e01b600052603260045260246000fd5b016020015160f81c901c905061116a565b8160011415612f165760086002858581518110612ef857634e487b7160e01b600052603260045260246000fd5b0160200151612f0f929160f89190911c901c6148d2565b905061116a565b8160021415612fa757600784612f2d8560016146ae565b81518110612f4b57634e487b7160e01b600052603260045260246000fd5b602001015160f81c60f81b60f81c60ff16901c6004858581518110612f8057634e487b7160e01b600052603260045260246000fd5b0160200151612f92919060f81c6148d2565b612f9d90600261473d565b612f0f91906146c1565b8160031415612fde576008600485612fc08660016146ae565b81518110612ef857634e487b7160e01b600052603260045260246000fd5b8160041415612ff6576008600185612fc086836146ae565b816005141561307e5760068461300d8560026146ae565b8151811061302b57634e487b7160e01b600052603260045260246000fd5b016020015160f81c901c6002856130438660016146ae565b8151811061306157634e487b7160e01b600052603260045260246000fd5b0160200151613073919060f81c6148d2565b612f9d90600461473d565b8160061415613097576008600385612fc08660026146ae565b6008846130a58560026146ae565b815181106130c357634e487b7160e01b600052603260045260246000fd5b0160200151612f0f919060f81c6148d2565b60606000836020015160016130ea91906146ae565b61ffff169050600084602001516101006131049190614785565b61ffff16905061233e601060088660400151846131219190614723565b60408901516131309087614723565b61313a91906146ae565b901c62ffffff16901b6008808760600151856131569190614723565b60608a01516131659088614723565b61316f91906146ae565b901c62ffffff16901b600887608001518561318a9190614723565b60808a01516131999088614723565b6131a391906146ae565b6131ae92911c614687565b6131b89190614687565b62ffffff16611cba565b60405180608001604052806004905b60608152602001906001900390816131d15790505090565b604080516101008101909152606081526007602082016131d1565b604051806101a00160405280600d905b60408051808201909152606080825260208201528152602001906001900390816132145790505090565b604051806101a00160405280600d905b61325661332a565b81526020019060019003908161324e5790505090565b604080516101a0810190915260608152600c602082016131d1565b82805461329390614809565b90600052602060002090601f0160209004810192826132b557600085556132fb565b82601f106132ce57805160ff19168380011785556132fb565b828001600101855582156132fb579182015b828111156132fb5782518255916020019190600101906132e0565b50613307929150613382565b5090565b604051806101a00160405280600d906020820280368337509192915050565b6040518061010001604052806008905b61336c6040518060a0016040528060608152602001600081526020016000815260200160008152602001600081525090565b81526020019060019003908161333a5790505090565b5b808211156133075760008155600101613383565b60006133aa6133a584614612565b6145f6565b905080828560208602850111156133c057600080fd5b60005b8581101561340457813567ffffffffffffffff8111156133e257600080fd5b85016133ee8882613547565b84525060209283019291909101906001016133c3565b5050509392505050565b600061341c6133a584614612565b9050808285602086028501111561343257600080fd5b60005b8581101561340457813567ffffffffffffffff81111561345457600080fd5b85016134608882613626565b8452506020928301929190910190600101613435565b60006134846133a584614612565b9050808285602086028501111561349a57600080fd5b60005b8581101561340457813567ffffffffffffffff8111156134bc57600080fd5b85016134c888826136ad565b845250602092830192919091019060010161349d565b60006134ec6133a584614633565b90508281526020810184848401111561350457600080fd5b61350f8482856147b6565b509392505050565b80356102fc81614937565b600082601f830112613532578081fd5b600d61353f848285613397565b949350505050565b600082601f830112613557578081fd5b600861353f84828561340e565b60008083601f840112613575578182fd5b50813567ffffffffffffffff81111561358c578182fd5b6020830191508360208202830111156135a457600080fd5b9250929050565b600082601f8301126135bb578081fd5b600d61353f848285613476565b80356102fc8161494b565b600082601f8301126135e3578081fd5b813561353f8482602086016134de565b600060208284031215613604578081fd5b61360e60206145f6565b9050600061361c848461372d565b9082015292915050565b600060a08284031215613637578081fd5b61364160a06145f6565b9050813567ffffffffffffffff81111561365a57600080fd5b613666848285016135d3565b82525060206136778484830161372d565b9082015260406136898484830161372d565b90820152606061369b8484830161372d565b90820152608061361c8484830161372d565b6000604082840312156136be578081fd5b6136c860406145f6565b9050813567ffffffffffffffff8111156136e157600080fd5b6136ed848285016135d3565b825250602082013567ffffffffffffffff81111561370a57600080fd5b613716848285016135d3565b60208301525092915050565b80356102fc81614973565b80356102fc8161497d565b80356102fc81614983565b600060208284031215613754578081fd5b61116a83828401613517565b60008060208385031215613772578081fd5b8083013567ffffffffffffffff81111561378a578182fd5b61379685828601613564565b92509250509250929050565b6000806000606084860312156137b6578081fd5b8084013567ffffffffffffffff8111156137ce578182fd5b6137da868287016135ab565b935050602084013567ffffffffffffffff8111156137f6578182fd5b61380286828701613522565b925050604061381386828701613738565b9150509250925092565b60006020828403121561382e578081fd5b61116a838284016135c8565b60006020828403121561384b578081fd5b61116a83828401613722565b60008060006060848603121561386b578081fd5b61387785828601613722565b9250602061388786828701613738565b925050604061381386828701613722565b6000602082840312156138a9578081fd5b61116a8382840161372d565b600080604083850312156138c7578182fd5b6138d38483850161372d565b915060206138e3858286016135f3565b9150509250929050565b6000602082840312156138fe578081fd5b61116a83828401613738565b6000806040838503121561391c578182fd5b61392884838501613738565b915060206138e385828601613738565b600061116a8383613a3c565b600061116a8383613ae0565b600061116a8383613cfa565b600061116a8383613d60565b61397181614798565b82525050565b6000600d836101a0810184845b848110156139b5578383038852815161399d8482613938565b93505060208201602098909801979150600101613984565b50909695505050505050565b6000600d836101a0810184845b848110156139b557838303885281516139e78482613944565b935050602082016020989098019791506001016139ce565b60006004836080810184845b848110156139b55783830388528151613a248482613944565b93505060208201602098909801979150600101613a0b565b6000600883610100810184845b848110156139b55783830388528151613a628482613950565b93505060208201602098909801979150600101613a49565b6000600d836101a0810184845b848110156139b55783830388528151613aa0848261395c565b93505060208201602098909801979150600101613a87565b7fff000000000000000000000000000000000000000000000000000000000000008116613971565b6000613aea825190565b808452602084019350613b018185602086016147c2565b601f01601f19169290920192915050565b6000613b1c825190565b613b2a8185602086016147c2565b9290920192915050565b7f496e527959576c3058335235634755694f69416900000000000000000000000081525b60140190565b7f50484a6c593351674943426d615778735053636a0000000000000000000000008152613b58565b60268152602081017f4f776e61626c653a206e6577206f776e657220697320746865207a65726f206181527f6464726573730000000000000000000000000000000000000000000000000000602082015290505b60400190565b7f4a7941676544306e00000000000000000000000000000000000000000000000081525b60080190565b7f4a7941674943382b0000000000000000000000000000000000000000000000008152613c04565b7f50484e306557786c506e4a6c5933523764326c6b644767364d5842344f32686c81527f6157646f64446f786348673766547776633352356247552b5043397a646d632b6020820152613bda565b7f496942390000000000000000000000000000000000000000000000000000000081525b60040190565b7f4a7941676554306e0000000000000000000000000000000000000000000000008152613c04565b7f30303030000000000000000000000000000000000000000000000000000000008152613ca4565b805160a080845260009190840190613d128282613ae0565b9150506020830151613d276020860182613d92565b506040830151613d3a6040860182613d92565b506060830151613d4d6060860182613d92565b50608083015161350f6080860182613d92565b8051604080845260009190840190613d788282613ae0565b9150506020830151848203602086015261233e8282613ae0565b80613971565b60ff8116613971565b613dab8185613b12565b9050613db78184613b12565b905061353f8183613b12565b613dcd818a613b12565b9050613dd98189613b12565b9050613de58188613b12565b9050613df18187613b12565b9050613dfd8186613b12565b9050613e098185613b12565b9050613e158184613b12565b9050613e218183613b12565b9998505050505050505050565b613e388186613b12565b9050613e448185613b12565b9050613e4f81613b34565b9050613e5b8184613b12565b7f49697769646d4673645755694f6941690000000000000000000000000000000081526010019050613e8d8183613b12565b905061233e81613c80565b7f30000000000000000000000000000000000000000000000000000000000000008152600181015b90506102fc8183613b12565b613ed581613b5e565b9050613ee1818e613b12565b9050613eec81613be0565b9050613ef8818d613b12565b9050613f0381613caa565b9050613f0f818c613b12565b7f4a794176506a78795a574e304943426d615778735053636a000000000000000081526018019050613f41818b613b12565b9050613f4c81613be0565b9050613f58818a613b12565b9050613f6381613caa565b9050613f6f8189613b12565b7f4a794176506a78795a574e304943426d615778735053636a000000000000000081526018019050613fa18188613b12565b9050613fac81613be0565b9050613fb88187613b12565b9050613fc381613caa565b9050613fcf8186613b12565b7f4a794176506a78795a574e304943426d615778735053636a0000000000000000815260180190506140018185613b12565b905061400c81613be0565b90506140188184613b12565b905061402381613caa565b905061402f8183613b12565b905061403a81613c0a565b9d9c50505050505050505050505050565b7f3030300000000000000000000000000000000000000000000000000000000000815260038101613ec0565b7f646174613a6170706c69636174696f6e2f6a736f6e3b6261736536342c65794181527f67496d6c745957646c58325268644745694f69416950484e325a7942325a584a60208201527f7a61573975505363784c6a456e49485a705a586443623367394a7a41674d434160408201527f7a4d6a41674d7a49774a79423462577875637a306e6148523063446f764c336460608201527f33647935334d793576636d63764d6a41774d43397a646d636e49484e6f59584260808201527f6c4c584a6c626d526c636d6c755a7a306e59334a70633342465a47646c63796360a08201527f2b0000000000000000000000000000000000000000000000000000000000000060c082015260c10161418b8188613b12565b90506141978187613b12565b90506141a38186613b12565b90506141af8185613b12565b7f50484e306557786c506e4a6c5933523764326c6b644767364d5442776544746f81527f5a576c6e614851364d544277654474395043397a64486c735a5434384c334e3260208201527f5a7a346749697767496d463064484a70596e56305a584d694f694262000000006040820152605c01905061422d8184613b12565b7f5853776749434169626d46745a534936496c4a31626d356c6369416a000000008152601c01905061425f8183613b12565b7f49697767496d526c63324e796158423061573975496a6f67496b4e6f59576c7581527f49464a31626d356c636e4d6759584a6c4945316c5a32456751326c306553427960208201527f5a57356c5a32466b5a584d674d5441774a53426e5a57356c636d46305a57516760408201527f623234675932686861573475496e3067000000000000000000000000000000006060820152607001979650505050505050565b7f50484e325a7942325a584a7a61573975505363784c6a456e49485a705a58644381527f623367394a7a41674d43417a4d69417a4d69636765473173626e4d394a32683060208201527f644841364c79393364336375647a4d7562334a6e4c7a49774d44417663335a6e60408201527f4a79427a614746775a5331795a57356b5a584a70626d63394a324e7961584e7760608201527f5257526e5a584d6e4947686c6157646f6444306e4d5441774a53636764326c6b60808201527f644767394a7a45774d43556e4943412b0000000000000000000000000000000060a082015260b0016143f08186613b12565b90506143fc8185613b12565b90506144088184613b12565b90506144148183613b12565b905061233e81613c32565b7f3030000000000000000000000000000000000000000000000000000000000000815260028101613ec0565b613ec081613cd2565b602081016102fc8284613968565b6020808252810161116a81846139ff565b608080825281016144848187613a7a565b905081810360208301526144988186613977565b90506144a76040830185613d98565b818103606083015261257781846139c1565b602081016102fc8284613ab8565b6020808252810161116a8184613ae0565b602080825281016102fc81613b86565b60208082528181019081527f4f776e61626c653a2063616c6c6572206973206e6f7420746865206f776e65726040830152606082016102fc565b6020808252810161116a8184613d60565b602081016102fc8284613d92565b602081016102fc8284613d98565b60008083357fffffffffffffffffffffffffffffffffffffffffffffffffffffffffffffffe136859003018112614584578283fd5b8301915050803567ffffffffffffffff8111156145a057600080fd5b6020820191506001810236038213156135a457600080fd5b600082357fffffffffffffffffffffffffffffffffffffffffffffffffffffffffffffff81368490030181126145ec578182fd5b9190910192915050565b600061460160405190565b905061460d8282614830565b919050565b600067ffffffffffffffff82111561462c5761462c614921565b5060200290565b600067ffffffffffffffff82111561464d5761464d614921565b601f19601f83011660200192915050565b61ffff8116905061ffff8216915060008261ffff03821115614682576146826148df565b500190565b62ffffff8116905062ffffff8216915060008262ffffff03821115614682576146826148df565b60008219821115614682576146826148df565b60ff8116905060ff8216915060008260ff03821115614682576146826148df565b6000826146f1576146f16148f5565b500490565b61ffff8116905061ffff8216915060008161ffff048311821515161561471e5761471e6148df565b500290565b600081600019048311821515161561471e5761471e6148df565b60ff8116905060ff8216915060008160ff048311821515161561471e5761471e6148df565b61ffff9081169082165b9150600082821015614780576147806148df565b500390565b8161476c565b60ff90811690821661476c565b600073ffffffffffffffffffffffffffffffffffffffff82166102fc565b82818337506000910152565b60005b838110156147dd5781810151838201526020016147c5565b838111156147ec576000848401525b50505050565b600081614801576148016148df565b506000190190565b60028104600182168061481d57607f821691505b60208210811415612c2d57612c2d61490b565b601f19601f830116810181811067ffffffffffffffff8211171561485657614856614921565b6040525050565b61ffff81169050600061ffff821415614878576148786148df565b5060010190565b6000600019821415614878576148786148df565b60ff81169050600060ff821415614878576148786148df565b61ffff9081169082165b91506000826148c7576148c76148f5565b500690565b816148b6565b60ff9081169082166148b6565b634e487b7160e01b600052601160045260246000fd5b634e487b7160e01b600052601260045260246000fd5b634e487b7160e01b600052602260045260246000fd5b634e487b7160e01b600052604160045260246000fd5b61494081614798565b811461201657600080fd5b7fff000000000000000000000000000000000000000000000000000000000000008116614940565b61ffff8116614940565b80614940565b60ff811661494056fe4142434445464748494a4b4c4d4e4f505152535455565758595a6162636465666768696a6b6c6d6e6f707172737475767778797a303132333435363738392b2fa26469706673582212201e7b22e7755edb2d32e03370092db7c06bc0f001b541aaacf4b17a58c0fb8a7b64736f6c63430008040033",
  "devdoc": {
    "kind": "dev",
    "methods": {
      "owner()": {
        "details": "Returns the address of the current owner."
      },
      "renounceOwnership()": {
        "details": "Leaves the contract without owner. It will not be possible to call `onlyOwner` functions anymore. Can only be called by the current owner. NOTE: Renouncing ownership will leave the contract without an owner, thereby removing any functionality that is only available to the owner."
      },
      "transferOwnership(address)": {
        "details": "Transfers ownership of the contract to a new account (`newOwner`). Can only be called by the current owner."
      }
    },
    "version": 1
  },
  "userdoc": {
    "kind": "user",
    "methods": {},
    "version": 1
  },
  "storageLayout": {
    "storage": [
      {
        "astId": 225,
        "contract": "contracts/runners/ChainRunnersBaseRenderer.sol:ChainRunnersBaseRenderer",
        "label": "_owner",
        "offset": 0,
        "slot": "0",
        "type": "t_address"
      },
      {
        "astId": 333,
        "contract": "contracts/runners/ChainRunnersBaseRenderer.sol:ChainRunnersBaseRenderer",
        "label": "_status",
        "offset": 0,
        "slot": "1",
        "type": "t_uint256"
      },
      {
        "astId": 9057,
        "contract": "contracts/runners/ChainRunnersBaseRenderer.sol:ChainRunnersBaseRenderer",
        "label": "layers",
        "offset": 0,
        "slot": "2",
        "type": "t_array(t_mapping(t_uint256,t_struct(Layer)9035_storage))13_storage"
      },
      {
        "astId": 9064,
        "contract": "contracts/runners/ChainRunnersBaseRenderer.sol:ChainRunnersBaseRenderer",
        "label": "WEIGHTS",
        "offset": 0,
        "slot": "15",
        "type": "t_array(t_array(t_array(t_uint16)dyn_storage)13_storage)3_storage"
      }
    ],
    "types": {
      "t_address": {
        "encoding": "inplace",
        "label": "address",
        "numberOfBytes": "20"
      },
      "t_array(t_array(t_array(t_uint16)dyn_storage)13_storage)3_storage": {
        "base": "t_array(t_array(t_uint16)dyn_storage)13_storage",
        "encoding": "inplace",
        "label": "uint16[][13][3]",
        "numberOfBytes": "1248"
      },
      "t_array(t_array(t_uint16)dyn_storage)13_storage": {
        "base": "t_array(t_uint16)dyn_storage",
        "encoding": "inplace",
        "label": "uint16[][13]",
        "numberOfBytes": "416"
      },
      "t_array(t_mapping(t_uint256,t_struct(Layer)9035_storage))13_storage": {
        "base": "t_mapping(t_uint256,t_struct(Layer)9035_storage)",
        "encoding": "inplace",
        "label": "mapping(uint256 => struct ChainRunnersBaseRenderer.Layer)[13]",
        "numberOfBytes": "416"
      },
      "t_array(t_uint16)dyn_storage": {
        "base": "t_uint16",
        "encoding": "dynamic_array",
        "label": "uint16[]",
        "numberOfBytes": "32"
      },
      "t_bytes_storage": {
        "encoding": "bytes",
        "label": "bytes",
        "numberOfBytes": "32"
      },
      "t_mapping(t_uint256,t_struct(Layer)9035_storage)": {
        "encoding": "mapping",
        "key": "t_uint256",
        "label": "mapping(uint256 => struct ChainRunnersBaseRenderer.Layer)",
        "numberOfBytes": "32",
        "value": "t_struct(Layer)9035_storage"
      },
      "t_string_storage": {
        "encoding": "bytes",
        "label": "string",
        "numberOfBytes": "32"
      },
      "t_struct(Layer)9035_storage": {
        "encoding": "inplace",
        "label": "struct ChainRunnersBaseRenderer.Layer",
        "members": [
          {
            "astId": 9032,
            "contract": "contracts/runners/ChainRunnersBaseRenderer.sol:ChainRunnersBaseRenderer",
            "label": "name",
            "offset": 0,
            "slot": "0",
            "type": "t_string_storage"
          },
          {
            "astId": 9034,
            "contract": "contracts/runners/ChainRunnersBaseRenderer.sol:ChainRunnersBaseRenderer",
            "label": "hexString",
            "offset": 0,
            "slot": "1",
            "type": "t_bytes_storage"
          }
        ],
        "numberOfBytes": "64"
      },
      "t_uint16": {
        "encoding": "inplace",
        "label": "uint16",
        "numberOfBytes": "2"
      },
      "t_uint256": {
        "encoding": "inplace",
        "label": "uint256",
        "numberOfBytes": "32"
      }
    }
  }
}