{
  "address": "0x34E8d427f9AE04c5286d0dCD34b1ef2138887018",
  "abi": [
    {
      "inputs": [
        {
          "internalType": "string",
          "name": "name_",
          "type": "string"
        },
        {
          "internalType": "string",
          "name": "symbol_",
          "type": "string"
        }
      ],
      "stateMutability": "nonpayable",
      "type": "constructor"
    },
    {
      "anonymous": false,
      "inputs": [
        {
          "indexed": true,
          "internalType": "address",
          "name": "owner",
          "type": "address"
        },
        {
          "indexed": true,
          "internalType": "address",
          "name": "approved",
          "type": "address"
        },
        {
          "indexed": true,
          "internalType": "uint256",
          "name": "tokenId",
          "type": "uint256"
        }
      ],
      "name": "Approval",
      "type": "event"
    },
    {
      "anonymous": false,
      "inputs": [
        {
          "indexed": true,
          "internalType": "address",
          "name": "owner",
          "type": "address"
        },
        {
          "indexed": true,
          "internalType": "address",
          "name": "operator",
          "type": "address"
        },
        {
          "indexed": false,
          "internalType": "bool",
          "name": "approved",
          "type": "bool"
        }
      ],
      "name": "ApprovalForAll",
      "type": "event"
    },
    {
      "anonymous": false,
      "inputs": [
        {
          "indexed": true,
          "internalType": "address",
          "name": "to",
          "type": "address"
        },
        {
          "indexed": true,
          "internalType": "bytes",
          "name": "tokenIds",
          "type": "bytes"
        }
      ],
      "name": "BatchMint",
      "type": "event"
    },
    {
      "anonymous": false,
      "inputs": [
        {
          "indexed": true,
          "internalType": "address",
          "name": "previousOwner",
          "type": "address"
        },
        {
          "indexed": true,
          "internalType": "address",
          "name": "newOwner",
          "type": "address"
        }
      ],
      "name": "OwnershipTransferred",
      "type": "event"
    },
    {
      "anonymous": false,
      "inputs": [
        {
          "indexed": true,
          "internalType": "address",
          "name": "from",
          "type": "address"
        },
        {
          "indexed": true,
          "internalType": "address",
          "name": "to",
          "type": "address"
        },
        {
          "indexed": true,
          "internalType": "uint256",
          "name": "tokenId",
          "type": "uint256"
        }
      ],
      "name": "Transfer",
      "type": "event"
    },
    {
      "inputs": [],
      "name": "MINT_PUBLIC_PRICE",
      "outputs": [
        {
          "internalType": "uint256",
          "name": "",
          "type": "uint256"
        }
      ],
      "stateMutability": "view",
      "type": "function"
    },
    {
      "inputs": [
        {
          "internalType": "address",
          "name": "to",
          "type": "address"
        },
        {
          "internalType": "uint256",
          "name": "tokenId",
          "type": "uint256"
        }
      ],
      "name": "approve",
      "outputs": [],
      "stateMutability": "nonpayable",
      "type": "function"
    },
    {
      "inputs": [
        {
          "internalType": "address",
          "name": "owner",
          "type": "address"
        }
      ],
      "name": "balanceOf",
      "outputs": [
        {
          "internalType": "uint256",
          "name": "",
          "type": "uint256"
        }
      ],
      "stateMutability": "view",
      "type": "function"
    },
    {
      "inputs": [],
      "name": "candyShopAddress",
      "outputs": [
        {
          "internalType": "address",
          "name": "",
          "type": "address"
        }
      ],
      "stateMutability": "view",
      "type": "function"
    },
    {
      "inputs": [],
      "name": "chainRunnersAddress",
      "outputs": [
        {
          "internalType": "address",
          "name": "",
          "type": "address"
        }
      ],
      "stateMutability": "view",
      "type": "function"
    },
    {
      "inputs": [
        {
          "internalType": "uint256",
          "name": "",
          "type": "uint256"
        }
      ],
      "name": "dreamers",
      "outputs": [
        {
          "internalType": "uint8",
          "name": "candy",
          "type": "uint8"
        }
      ],
      "stateMutability": "view",
      "type": "function"
    },
    {
      "inputs": [
        {
          "internalType": "uint256",
          "name": "tokenId",
          "type": "uint256"
        }
      ],
      "name": "getApproved",
      "outputs": [
        {
          "internalType": "address",
          "name": "",
          "type": "address"
        }
      ],
      "stateMutability": "view",
      "type": "function"
    },
    {
      "inputs": [
        {
          "internalType": "address",
          "name": "owner",
          "type": "address"
        },
        {
          "internalType": "address",
          "name": "operator",
          "type": "address"
        }
      ],
      "name": "isApprovedForAll",
      "outputs": [
        {
          "internalType": "bool",
          "name": "",
          "type": "bool"
        }
      ],
      "stateMutability": "view",
      "type": "function"
    },
    {
      "inputs": [],
      "name": "isPublicSaleOpen",
      "outputs": [
        {
          "internalType": "bool",
          "name": "",
          "type": "bool"
        }
      ],
      "stateMutability": "view",
      "type": "function"
    },
    {
      "inputs": [],
      "name": "looksrare",
      "outputs": [
        {
          "internalType": "address",
          "name": "",
          "type": "address"
        }
      ],
      "stateMutability": "view",
      "type": "function"
    },
    {
      "inputs": [],
      "name": "marketplacesApproved",
      "outputs": [
        {
          "internalType": "bool",
          "name": "",
          "type": "bool"
        }
      ],
      "stateMutability": "view",
      "type": "function"
    },
    {
      "inputs": [],
      "name": "maxDreamersMintPublicSale",
      "outputs": [
        {
          "internalType": "uint256",
          "name": "",
          "type": "uint256"
        }
      ],
      "stateMutability": "view",
      "type": "function"
    },
    {
      "inputs": [
        {
          "internalType": "bytes",
          "name": "tokenIds",
          "type": "bytes"
        },
        {
          "internalType": "bytes",
          "name": "ownerTokenIndexes",
          "type": "bytes"
        }
      ],
      "name": "mintBatchPublicSale",
      "outputs": [
        {
          "internalType": "bool",
          "name": "",
          "type": "bool"
        }
      ],
      "stateMutability": "payable",
      "type": "function"
    },
    {
      "inputs": [
        {
          "internalType": "bytes",
          "name": "tokenIds",
          "type": "bytes"
        },
        {
          "internalType": "bytes",
          "name": "ownerTokenIndexes",
          "type": "bytes"
        },
        {
          "internalType": "bytes",
          "name": "candyIdsBytes",
          "type": "bytes"
        },
        {
          "internalType": "uint256[]",
          "name": "candyIds",
          "type": "uint256[]"
        },
        {
          "internalType": "uint256[]",
          "name": "candyAmounts",
          "type": "uint256[]"
        }
      ],
      "name": "mintBatchRunnersAccess",
      "outputs": [
        {
          "internalType": "bool",
          "name": "",
          "type": "bool"
        }
      ],
      "stateMutability": "nonpayable",
      "type": "function"
    },
    {
      "inputs": [],
      "name": "name",
      "outputs": [
        {
          "internalType": "string",
          "name": "",
          "type": "string"
        }
      ],
      "stateMutability": "view",
      "type": "function"
    },
    {
      "inputs": [],
      "name": "opensea",
      "outputs": [
        {
          "internalType": "address",
          "name": "",
          "type": "address"
        }
      ],
      "stateMutability": "view",
      "type": "function"
    },
    {
      "inputs": [],
      "name": "owner",
      "outputs": [
        {
          "internalType": "address",
          "name": "",
          "type": "address"
        }
      ],
      "stateMutability": "view",
      "type": "function"
    },
    {
      "inputs": [
        {
          "internalType": "uint256",
          "name": "tokenId",
          "type": "uint256"
        }
      ],
      "name": "ownerOf",
      "outputs": [
        {
          "internalType": "address",
          "name": "",
          "type": "address"
        }
      ],
      "stateMutability": "view",
      "type": "function"
    },
    {
      "inputs": [],
      "name": "publicSaleStartTimestamp",
      "outputs": [
        {
          "internalType": "uint256",
          "name": "",
          "type": "uint256"
        }
      ],
      "stateMutability": "view",
      "type": "function"
    },
    {
      "inputs": [],
      "name": "renderingContractAddress",
      "outputs": [
        {
          "internalType": "address",
          "name": "",
          "type": "address"
        }
      ],
      "stateMutability": "view",
      "type": "function"
    },
    {
      "inputs": [],
      "name": "renounceOwnership",
      "outputs": [],
      "stateMutability": "nonpayable",
      "type": "function"
    },
    {
      "inputs": [
        {
          "internalType": "address",
          "name": "from",
          "type": "address"
        },
        {
          "internalType": "address",
          "name": "to",
          "type": "address"
        },
        {
          "internalType": "uint256",
          "name": "tokenId",
          "type": "uint256"
        }
      ],
      "name": "safeTransferFrom",
      "outputs": [],
      "stateMutability": "nonpayable",
      "type": "function"
    },
    {
      "inputs": [
        {
          "internalType": "address",
          "name": "from",
          "type": "address"
        },
        {
          "internalType": "address",
          "name": "to",
          "type": "address"
        },
        {
          "internalType": "uint256",
          "name": "tokenId",
          "type": "uint256"
        },
        {
          "internalType": "bytes",
          "name": "_data",
          "type": "bytes"
        }
      ],
      "name": "safeTransferFrom",
      "outputs": [],
      "stateMutability": "nonpayable",
      "type": "function"
    },
    {
      "inputs": [
        {
          "internalType": "address",
          "name": "operator",
          "type": "address"
        },
        {
          "internalType": "bool",
          "name": "approved",
          "type": "bool"
        }
      ],
      "name": "setApprovalForAll",
      "outputs": [],
      "stateMutability": "nonpayable",
      "type": "function"
    },
    {
      "inputs": [
        {
          "internalType": "address",
          "name": "_candyShopContractAddress",
          "type": "address"
        }
      ],
      "name": "setCandyShopAddress",
      "outputs": [],
      "stateMutability": "nonpayable",
      "type": "function"
    },
    {
      "inputs": [
        {
          "internalType": "address",
          "name": "_chainRunnersContractAddress",
          "type": "address"
        }
      ],
      "name": "setChainRunnersContractAddress",
      "outputs": [],
      "stateMutability": "nonpayable",
      "type": "function"
    },
    {
      "inputs": [
        {
          "internalType": "address",
          "name": "looksrare_",
          "type": "address"
        }
      ],
      "name": "setLooksrare",
      "outputs": [],
      "stateMutability": "nonpayable",
      "type": "function"
    },
    {
      "inputs": [
        {
          "internalType": "uint256",
          "name": "_maxDreamersMintPublicSale",
          "type": "uint256"
        }
      ],
      "name": "setMaxDreamersMintPublicSale",
      "outputs": [],
      "stateMutability": "nonpayable",
      "type": "function"
    },
    {
      "inputs": [
        {
          "internalType": "address",
          "name": "opensea_",
          "type": "address"
        }
      ],
      "name": "setOpensea",
      "outputs": [],
      "stateMutability": "nonpayable",
      "type": "function"
    },
    {
      "inputs": [
        {
          "internalType": "uint256",
          "name": "timestamp",
          "type": "uint256"
        }
      ],
      "name": "setPublicSaleTimestamp",
      "outputs": [],
      "stateMutability": "nonpayable",
      "type": "function"
    },
    {
      "inputs": [
        {
          "internalType": "address",
          "name": "_renderingContractAddress",
          "type": "address"
        }
      ],
      "name": "setRenderingContractAddress",
      "outputs": [],
      "stateMutability": "nonpayable",
      "type": "function"
    },
    {
      "inputs": [
        {
          "internalType": "bytes4",
          "name": "interfaceId",
          "type": "bytes4"
        }
      ],
      "name": "supportsInterface",
      "outputs": [
        {
          "internalType": "bool",
          "name": "",
          "type": "bool"
        }
      ],
      "stateMutability": "view",
      "type": "function"
    },
    {
      "inputs": [],
      "name": "symbol",
      "outputs": [
        {
          "internalType": "string",
          "name": "",
          "type": "string"
        }
      ],
      "stateMutability": "view",
      "type": "function"
    },
    {
      "inputs": [],
      "name": "toggleMarketplacesApproved",
      "outputs": [],
      "stateMutability": "nonpayable",
      "type": "function"
    },
    {
      "inputs": [
        {
          "internalType": "uint256",
          "name": "index",
          "type": "uint256"
        }
      ],
      "name": "tokenByIndex",
      "outputs": [
        {
          "internalType": "uint256",
          "name": "",
          "type": "uint256"
        }
      ],
      "stateMutability": "view",
      "type": "function"
    },
    {
      "inputs": [
        {
          "internalType": "address",
          "name": "owner",
          "type": "address"
        },
        {
          "internalType": "uint256",
          "name": "index",
          "type": "uint256"
        }
      ],
      "name": "tokenOfOwnerByIndex",
      "outputs": [
        {
          "internalType": "uint256",
          "name": "",
          "type": "uint256"
        }
      ],
      "stateMutability": "view",
      "type": "function"
    },
    {
      "inputs": [
        {
          "internalType": "uint256",
          "name": "_tokenId",
          "type": "uint256"
        }
      ],
      "name": "tokenURI",
      "outputs": [
        {
          "internalType": "string",
          "name": "",
          "type": "string"
        }
      ],
      "stateMutability": "view",
      "type": "function"
    },
    {
      "inputs": [],
      "name": "totalSupply",
      "outputs": [
        {
          "internalType": "uint256",
          "name": "",
          "type": "uint256"
        }
      ],
      "stateMutability": "view",
      "type": "function"
    },
    {
      "inputs": [
        {
          "internalType": "address",
          "name": "from",
          "type": "address"
        },
        {
          "internalType": "address",
          "name": "to",
          "type": "address"
        },
        {
          "internalType": "uint256",
          "name": "tokenId",
          "type": "uint256"
        }
      ],
      "name": "transferFrom",
      "outputs": [],
      "stateMutability": "nonpayable",
      "type": "function"
    },
    {
      "inputs": [
        {
          "internalType": "address",
          "name": "newOwner",
          "type": "address"
        }
      ],
      "name": "transferOwnership",
      "outputs": [],
      "stateMutability": "nonpayable",
      "type": "function"
    },
    {
      "inputs": [],
      "name": "withdraw",
      "outputs": [],
      "stateMutability": "nonpayable",
      "type": "function"
    },
    {
      "stateMutability": "payable",
      "type": "receive"
    }
  ],
  "transactionHash": "0xa288e9c2a43e1e4d85aa58a22e45febdb69e320778c006390b8d5dfe3d854f68",
  "args": [
    "Chain Dreamers",
    "DRE"
  ],
  "numDeployments": 2,
  "solcInputHash": "234d9c5b608daf9b060e1af9163de309",
  "bytecode": "0x60806040526014805460ff60a01b1916600160a01b1790553480156200002457600080fd5b5060405162004a1738038062004a178339810160408190526200004791620002d9565b81518290829062000060906000906020850190620000f6565b50805162000076906001906020840190620000f6565b505050620000936200008d620000a060201b60201c565b620000a4565b50506001600c556200039c565b3390565b600b80546001600160a01b038381166001600160a01b0319831681179093556040519116919082907f8be0079c531659141344cd1fd0a4f28419497f9722a3daafe3b4186f6b6457e090600090a35050565b82805462000104906200036b565b90600052602060002090601f01602090048101928262000128576000855562000173565b82601f106200014357805160ff191683800117855562000173565b8280016001018555821562000173579182015b828111156200017357825182559160200191906001019062000156565b506200018192915062000185565b5090565b5b8082111562000181576000815560010162000186565b634e487b7160e01b600052604160045260246000fd5b601f19601f83011681016001600160401b0381118282101715620001da57620001da6200019c565b6040525050565b6000620001ed60405190565b9050620001fb8282620001b2565b919050565b60006001600160401b038211156200021c576200021c6200019c565b601f19601f83011660200192915050565b60005b838110156200024a57818101518382015260200162000230565b838111156200025a576000848401525b50505050565b600062000277620002718462000200565b620001e1565b905082815260208101848484011115620002945762000294600080fd5b620002a18482856200022d565b509392505050565b600082601f830112620002bf57620002bf600080fd5b8151620002d184826020860162000260565b949350505050565b60008060408385031215620002f157620002f1600080fd5b82516001600160401b038111156200030c576200030c600080fd5b6200031a85828601620002a9565b602085015190935090506001600160401b038111156200033d576200033d600080fd5b6200034b85828601620002a9565b9150509250929050565b634e487b7160e01b600052602260045260246000fd5b6002810460018216806200038057607f821691505b6020821081141562000396576200039662000355565b50919050565b61466b80620003ac6000396000f3fe6080604052600436106102ca5760003560e01c80636352211e11610179578063a8e90b57116100d6578063c87b56dd1161008a578063e985e9c511610064578063e985e9c51461078f578063f2fde38b146107af578063fac91323146107cf57600080fd5b8063c87b56dd14610739578063d3d6005b14610759578063d7822c991461077957600080fd5b8063b776c8a6116100bb578063b776c8a6146106d9578063b88d4fde146106f9578063c074f4121461071957600080fd5b8063a8e90b5714610699578063b5fcb339146106b957600080fd5b80638da5cb5b1161012d57806395d89b411161011257806395d89b41146106495780639c51792a1461065e578063a22cb4651461067957600080fd5b80638da5cb5b1461060b57806395a97a631461062957600080fd5b806370a082311161015e57806370a08231146105b6578063715018a6146105d65780638392d804146105eb57600080fd5b80636352211e146105805780636b318e6e146105a057600080fd5b80631e8858fb116102275780633ccfd60b116101db5780634f6ccce7116101c05780634f6ccce714610520578063511a960514610540578063511ed3821461056057600080fd5b80633ccfd60b146104eb57806342842e0e1461050057600080fd5b80632a133e351161020c5780632a133e35146104a35780632f745c59146104b657806333c12e17146104d657600080fd5b80631e8858fb1461046357806323b872dd1461048357600080fd5b8063095ea7b31161027e57806312b40a9f1161026357806312b40a9f1461040c57806318160ddd1461042c5780631a6949e31461044e57600080fd5b8063095ea7b3146103ca5780630d77c756146103ec57600080fd5b806306fdde03116102af57806306fdde031461033e57806307c5bde314610360578063081812fc1461039d57600080fd5b806301ffc9a7146102d6578063026ae1021461030c57600080fd5b366102d157005b600080fd5b3480156102e257600080fd5b506102f66102f1366004612e1e565b6107ef565b6040516103039190612e49565b60405180910390f35b34801561031857600080fd5b506014546102f69074010000000000000000000000000000000000000000900460ff1681565b34801561034a57600080fd5b5061035361084b565b6040516103039190612eb5565b34801561036c57600080fd5b5061039061037b366004612ed7565b60066020526000908152604090205460ff1681565b6040516103039190612f01565b3480156103a957600080fd5b506103bd6103b8366004612ed7565b6108dd565b6040516103039190612f29565b3480156103d657600080fd5b506103ea6103e5366004612f4b565b61093f565b005b3480156103f857600080fd5b506103ea610407366004612ed7565b6109c5565b34801561041857600080fd5b506103ea610427366004612f88565b6109f4565b34801561043857600080fd5b50610441610a4a565b6040516103039190612faf565b34801561045a57600080fd5b506102f6610a6b565b34801561046f57600080fd5b506103ea61047e366004612f88565b610a82565b34801561048f57600080fd5b506103ea61049e366004612fbd565b610ace565b6102f66104b136600461305f565b610aff565b3480156104c257600080fd5b506104416104d1366004612f4b565b610be3565b3480156104e257600080fd5b506103ea610ccf565b3480156104f757600080fd5b506103ea610d46565b34801561050c57600080fd5b506103ea61051b366004612fbd565b610ddb565b34801561052c57600080fd5b5061044161053b366004612ed7565b610dfa565b34801561054c57600080fd5b506103ea61055b366004612ed7565b610e3c565b34801561056c57600080fd5b506013546103bd906001600160a01b031681565b34801561058c57600080fd5b506103bd61059b366004612ed7565b610e6b565b3480156105ac57600080fd5b5061044160155481565b3480156105c257600080fd5b506104416105d1366004612f88565b610ea5565b3480156105e257600080fd5b506103ea610eed565b3480156105f757600080fd5b50600f546103bd906001600160a01b031681565b34801561061757600080fd5b50600b546001600160a01b03166103bd565b34801561063557600080fd5b506102f6610644366004613123565b610f23565b34801561065557600080fd5b506103536111ed565b34801561066a57600080fd5b5061044166b1a2bc2ec5000081565b34801561068557600080fd5b506103ea61069436600461324a565b6111fc565b3480156106a557600080fd5b506014546103bd906001600160a01b031681565b3480156106c557600080fd5b506103ea6106d4366004612f88565b61120b565b3480156106e557600080fd5b506103ea6106f4366004612f88565b611261565b34801561070557600080fd5b506103ea610714366004613378565b6112ad565b34801561072557600080fd5b50600d546103bd906001600160a01b031681565b34801561074557600080fd5b50610353610754366004612ed7565b6112e5565b34801561076557600080fd5b506103ea610774366004612f88565b6113fe565b34801561078557600080fd5b5061044160165481565b34801561079b57600080fd5b506102f66107aa3660046133f7565b611454565b3480156107bb57600080fd5b506103ea6107ca366004612f88565b6115a4565b3480156107db57600080fd5b50600e546103bd906001600160a01b031681565b60007fffffffff0000000000000000000000000000000000000000000000000000000082167f780e9d630000000000000000000000000000000000000000000000000000000014806108455750610845826115fd565b92915050565b60606000805461085a90613440565b80601f016020809104026020016040519081016040528092919081815260200182805461088690613440565b80156108d35780601f106108a8576101008083540402835291602001916108d3565b820191906000526020600020905b8154815290600101906020018083116108b657829003601f168201915b5050505050905090565b61ffff81166000908152600260205260408120546001600160a01b031661091f5760405162461bcd60e51b8152600401610916906134c7565b60405180910390fd5b5061ffff166000908152600460205260409020546001600160a01b031690565b600061094a82610e6b565b9050806001600160a01b0316836001600160a01b0316141561097e5760405162461bcd60e51b81526004016109169061352f565b336001600160a01b038216148061099a575061099a8133611454565b6109b65760405162461bcd60e51b815260040161091690613597565b6109c083836116e0565b505050565b600b546001600160a01b031633146109ef5760405162461bcd60e51b8152600401610916906135d9565b601555565b600b546001600160a01b03163314610a1e5760405162461bcd60e51b8152600401610916906135d9565b600d80546001600160a01b039092166001600160a01b0319928316811790915560108054909216179055565b6000600260098054610a5b90613440565b610a66929150613615565b905090565b600060165442118015610a66575050601654151590565b600b546001600160a01b03163314610aac5760405162461bcd60e51b8152600401610916906135d9565b601480546001600160a01b0319166001600160a01b0392909216919091179055565b610ad83382611751565b610af45760405162461bcd60e51b815260040161091690613685565b6109c08383836117f0565b60006002600c541415610b245760405162461bcd60e51b8152600401610916906136c7565b6002600c55610b31610a6b565b610b4d5760405162461bcd60e51b815260040161091690613709565b3466b1a2bc2ec50000610b61600287613615565b610b6b9190613719565b14610b885760405162461bcd60e51b81526004016109169061376a565b601554610b96600286613615565b610b9f33610ea5565b610ba9919061377a565b1115610bc75760405162461bcd60e51b8152600401610916906137ea565b610bd43386868686611959565b50600180600c55949350505050565b6000610bee83610ea5565b8210610c0c5760405162461bcd60e51b815260040161091690613852565b6001600160a01b03831660009081526007602052604090208054610cc49190610c3490613440565b80601f0160208091040260200160405190810160405280929190818152602001828054610c6090613440565b8015610cad5780601f10610c8257610100808354040283529160200191610cad565b820191906000526020600020905b815481529060010190602001808311610c9057829003601f168201915b5050505050836002610cbf9190613719565b611c40565b61ffff169392505050565b600b546001600160a01b03163314610cf95760405162461bcd60e51b8152600401610916906135d9565b601480547fffffffffffffffffffffff00ffffffffffffffffffffffffffffffffffffffff8116740100000000000000000000000000000000000000009182900460ff1615909102179055565b600b546001600160a01b03163314610d705760405162461bcd60e51b8152600401610916906135d9565b604051600090339047908381818185875af1925050503d8060008114610db2576040519150601f19603f3d011682016040523d82523d6000602084013e610db7565b606091505b5050905080610dd85760405162461bcd60e51b815260040161091690613894565b50565b6109c083838361ffff16604051806020016040528060008152506112ad565b6000610e04610a4a565b8210610e225760405162461bcd60e51b8152600401610916906138fc565b610e3260098054610c3490613440565b61ffff1692915050565b600b546001600160a01b03163314610e665760405162461bcd60e51b8152600401610916906135d9565b601655565b61ffff81166000908152600260205260408120546001600160a01b0316806108455760405162461bcd60e51b815260040161091690613964565b60006001600160a01b038216610ecd5760405162461bcd60e51b8152600401610916906139cc565b506001600160a01b031660009081526003602052604090205461ffff1690565b600b546001600160a01b03163314610f175760405162461bcd60e51b8152600401610916906135d9565b610f216000611c76565b565b60006002600c541415610f485760405162461bcd60e51b8152600401610916906136c7565b6002600c55858414610f6c5760405162461bcd60e51b815260040161091690613a34565b610f77866002613719565b8a14610f955760405162461bcd60e51b815260040161091690613a76565b60005b8a81101561115e57336001600160a01b0316601260009054906101000a90046001600160a01b03166001600160a01b0316636352211e61100f8f8f8080601f016020809104026020016040519081016040528093929190818152602001838380828437600092019190915250889250611c40915050565b6040518263ffffffff1660e01b815260040161102b9190613aa2565b60206040518083038186803b15801561104357600080fd5b505afa158015611057573d6000803e3d6000fd5b505050506040513d601f19601f8201168201806040525081019061107b9190613abb565b6001600160a01b0316146110a15760405162461bcd60e51b815260040161091690613b34565b87876110ae600284613615565b8181106110bd576110bd613b44565b919091013560f81c905086866110d4600285613615565b8181106110e3576110e3613b44565b9050602002013560ff161461110a5760405162461bcd60e51b815260040161091690613b8c565b8383611117600284613615565b81811061112657611126613b44565b9050602002013560011461114c5760405162461bcd60e51b815260040161091690613c1c565b61115760028261377a565b9050610f98565b5061116e338c8c8c8c8c8c611cc8565b6011546001600160a01b0316636b20c45433878787876040518663ffffffff1660e01b81526004016111a4959493929190613c7e565b600060405180830381600087803b1580156111be57600080fd5b505af11580156111d2573d6000803e3d6000fd5b50505050600190506001600c559a9950505050505050505050565b60606001805461085a90613440565b611207338383611fea565b5050565b600b546001600160a01b031633146112355760405162461bcd60e51b8152600401610916906135d9565b600e80546001600160a01b039092166001600160a01b0319928316811790915560118054909216179055565b600b546001600160a01b0316331461128b5760405162461bcd60e51b8152600401610916906135d9565b601380546001600160a01b0319166001600160a01b0392909216919091179055565b6112b73383611751565b6112d35760405162461bcd60e51b815260040161091690613685565b6112df8484848461208d565b50505050565b606061130c8261ffff166000908152600260205260409020546001600160a01b0316151590565b6113285760405162461bcd60e51b815260040161091690613d17565b600d546001600160a01b031661134c57505060408051602081019091526000815290565b60105461ffff83166000908152600660205260409081902090517f48a621a90000000000000000000000000000000000000000000000000000000081526001600160a01b03909216916348a621a9916113aa91869190600401613d49565b60006040518083038186803b1580156113c257600080fd5b505afa1580156113d6573d6000803e3d6000fd5b505050506040513d6000823e601f3d908101601f191682016040526108459190810190613dbc565b600b546001600160a01b031633146114285760405162461bcd60e51b8152600401610916906135d9565b600f80546001600160a01b039092166001600160a01b0319928316811790915560128054909216179055565b60145460009074010000000000000000000000000000000000000000900460ff166114a857506001600160a01b0382811660009081526005602090815260408083209385168352929052205460ff16610845565b6013546040517fc45527910000000000000000000000000000000000000000000000000000000081526001600160a01b039091169063c4552791906114f1908690600401612f29565b60206040518083038186803b15801561150957600080fd5b505afa15801561151d573d6000803e3d6000fd5b505050506040513d601f19601f820116820180604052508101906115419190613abb565b6001600160a01b0316826001600160a01b0316148061156d57506014546001600160a01b038381169116145b8061159d57506001600160a01b0380841660009081526005602090815260408083209386168352929052205460ff165b9392505050565b600b546001600160a01b031633146115ce5760405162461bcd60e51b8152600401610916906135d9565b6001600160a01b0381166115f45760405162461bcd60e51b815260040161091690613e4f565b610dd881611c76565b60007fffffffff0000000000000000000000000000000000000000000000000000000082167f80ac58cd00000000000000000000000000000000000000000000000000000000148061169057507fffffffff0000000000000000000000000000000000000000000000000000000082167f5b5e139f00000000000000000000000000000000000000000000000000000000145b8061084557507f01ffc9a7000000000000000000000000000000000000000000000000000000007fffffffff00000000000000000000000000000000000000000000000000000000831614610845565b61ffff8116600081815260046020526040902080546001600160a01b0319166001600160a01b03851690811790915561171882610e6b565b6001600160a01b03167f8c5be1e5ebec7d5bd14f71427d1e84f3dd0314c0f7b2291e5b200ac8c7c3b92560405160405180910390a45050565b61ffff81166000908152600260205260408120546001600160a01b031661178a5760405162461bcd60e51b815260040161091690613eb7565b60006117998361ffff16610e6b565b9050806001600160a01b0316846001600160a01b031614806117d85750836001600160a01b03166117cd8461ffff166108dd565b6001600160a01b0316145b806117e857506117e88185611454565b949350505050565b826001600160a01b03166118078261ffff16610e6b565b6001600160a01b03161461182d5760405162461bcd60e51b815260040161091690613f1f565b6001600160a01b0382166118535760405162461bcd60e51b815260040161091690613f87565b61185e8383836120c0565b6118696000826116e0565b6001600160a01b038316600090815260036020526040812080546001929061189690849061ffff16613f97565b82546101009290920a61ffff8181021990931691831602179091556001600160a01b038416600090815260036020526040812080546001945090926118dd91859116613fba565b82546101009290920a61ffff818102199093169183160217909155821660008181526002602052604080822080546001600160a01b0319166001600160a01b0388811691821790925591519394509092908716917fddf252ad1be2c89b69c2b068fc378daa952ba7f163c4a11628f55a4df523b3ef91a4505050565b6001600160a01b03851661197f5760405162461bcd60e51b81526004016109169061400e565b61010083106119a05760405162461bcd60e51b815260040161091690614076565b600084848484333442446040516020016119c19897969594939291906140b9565b6040516020818303038152906040528051906020012090506119e68686868686612871565b60005b6119f4600286613615565b811015611b25576000611a4487878080601f016020809104026020016040519081016040528093929190818152602001838380828437600092019190915250610cbf925086915060029050613719565b9050611a6b8161ffff166000908152600260205260409020546001600160a01b0316151590565b15611a885760405162461bcd60e51b815260040161091690614145565b61ffff8116600081815260026020908152604080832080546001600160a01b0319166001600160a01b038e169081179091558151808401835288851a815285855260069093528184209251835460ff191660ff909116179092555160019690961c959091907fddf252ad1be2c89b69c2b068fc378daa952ba7f163c4a11628f55a4df523b3ef908290a45080611b1d81614155565b9150506119e9565b50611b31600285614170565b6001600160a01b03871660009081526003602052604081208054909190611b5d90849061ffff16613fba565b92506101000a81548161ffff021916908361ffff1602179055508484604051611b8792919061417e565b604051908190038120906001600160a01b038816907f8af827b1e5b28d31f4e58c98834e77a022ec56ea126a1bc51c28f4d24b88a81990600090a3611c1c600087611c0788888080601f01602080910402602001604051908101604052809392919081815260200183838082843760009201829052509250611c40915050565b60405180602001604052806000815250612b2c565b611c385760405162461bcd60e51b8152600401610916906141e1565b505050505050565b6000611c4d82600261377a565b83511015611c6d5760405162461bcd60e51b815260040161091690614223565b50016002015190565b600b80546001600160a01b038381166001600160a01b0319831681179093556040519116919082907f8be0079c531659141344cd1fd0a4f28419497f9722a3daafe3b4186f6b6457e090600090a35050565b6001600160a01b038716611cee5760405162461bcd60e51b81526004016109169061400e565b6102008510611d0f5760405162461bcd60e51b815260040161091690614076565b60008282888833344244604051602001611d309897969594939291906140b9565b604051602081830303815290604052805190602001209050611d558888888888612871565b60005b611d63600288613615565b811015611ee2576000611db389898080601f016020809104026020016040519081016040528093929190818152602001838380828437600092019190915250610cbf925086915060029050613719565b9050611dda8161ffff166000908152600260205260409020546001600160a01b0316151590565b15611df75760405162461bcd60e51b815260040161091690614145565b61ffff811660009081526002602090815260409182902080546001600160a01b0319166001600160a01b038e161790558151908101909152806004878786818110611e4457611e44613b44565b611e559392013560f81c9050614233565b611e67906103fc600088901a1661424e565b60ff90811690915261ffff83166000818152600660205260408082209451855460ff1916941693909317909355905160019590951c9490916001600160a01b038d16917fddf252ad1be2c89b69c2b068fc378daa952ba7f163c4a11628f55a4df523b3ef908290a45080611eda81614155565b915050611d58565b50611eee600287614170565b6001600160a01b03891660009081526003602052604081208054909190611f1a90849061ffff16613fba565b92506101000a81548161ffff021916908361ffff1602179055508686604051611f4492919061417e565b604051908190038120906001600160a01b038a16907f8af827b1e5b28d31f4e58c98834e77a022ec56ea126a1bc51c28f4d24b88a81990600090a3611fc4600089611c078a8a8080601f01602080910402602001604051908101604052809392919081815260200183838082843760009201829052509250611c40915050565b611fe05760405162461bcd60e51b8152600401610916906141e1565b5050505050505050565b816001600160a01b0316836001600160a01b0316141561201c5760405162461bcd60e51b8152600401610916906142a1565b6001600160a01b0383811660008181526005602090815260408083209487168084529490915290819020805460ff1916851515179055517f17307eab39ab6107e8899845ad3d59bd9653f200f220920489ca2b5937696c3190612080908590612e49565b60405180910390a3505050565b6120988484846117f0565b6120a484848484612b2c565b6112df5760405162461bcd60e51b8152600401610916906141e1565b6001600160a01b03831661220f576000600980546120dd90613440565b61ffff8481166000908152600a6020908152604091829020805461ffff1916938516939093179092555191935061211e925060099160f086901b9101614347565b60405160208183030381529060405260099080519060200190612142929190612d4b565b506001600160a01b0383166000908152600760205260408120805461216690613440565b905060f01b9050600881604051602001612181929190614347565b604051602081830303815290604052600890805190602001906121a5929190612d4b565b506001600160a01b03841660009081526007602090815260409182902091516121d5929160f087901b9101614347565b60408051601f198184030181529181526001600160a01b0386166000908152600760209081529190208251611c3893919290910190612d4b565b6001600160a01b0382166125d25761ffff8082166000908152600a60205260409020546009805491909216916122d29161224890613440565b80601f016020809104026020016040519081016040528092919081815260200182805461227490613440565b80156122c15780601f10612296576101008083540402835291602001916122c1565b820191906000526020600020905b8154815290600101906020018083116122a457829003601f168201915b505050505060008361ffff16612c83565b61239f600980546122e290613440565b80601f016020809104026020016040519081016040528092919081815260200182805461230e90613440565b801561235b5780601f106123305761010080835404028352916020019161235b565b820191906000526020600020905b81548152906001019060200180831161233e57829003601f168201915b505050505083600261236d9190613fba565b61ffff1660028561ffff166009805461238590613440565b612390929150614366565b61239a9190614366565b612c83565b6040516020016123b092919061438e565b604051602081830303815290604052600990805190602001906123d4929190612d4b565b50600061246f600880546123e790613440565b80601f016020809104026020016040519081016040528092919081815260200182805461241390613440565b80156124605780601f1061243557610100808354040283529160200191612460565b820191906000526020600020905b81548152906001019060200180831161244357829003601f168201915b50505050508361ffff16611c40565b6001600160a01b038616600090815260076020526040902080549192506124999161224890613440565b6001600160a01b0386166000908152600760205260409020805461258791906124c190613440565b80601f01602080910402602001604051908101604052809291908181526020018280546124ed90613440565b801561253a5780601f1061250f5761010080835404028352916020019161253a565b820191906000526020600020905b81548152906001019060200180831161251d57829003601f168201915b505050505083600261254c9190613fba565b61ffff1660028561ffff16600760008c6001600160a01b03166001600160a01b03168152602001908152602001600020805461238590613440565b60405160200161259892919061438e565b60408051601f198184030181529181526001600160a01b0387166000908152600760209081529190208251611c3893919290910190612d4b565b816001600160a01b0316836001600160a01b0316146109c05761ffff8082166000908152600a6020526040812054600880549190931692612616916123e790613440565b6001600160a01b038616600090815260076020526040902080549192506126409161224890613440565b6001600160a01b0386166000908152600760205260409020805461266891906124c190613440565b60405160200161267992919061438e565b60408051601f198184030181529181526001600160a01b03871660009081526007602090815291902082516126b393919290910190612d4b565b506001600160a01b038416600090815260076020526040812080546126d790613440565b905060f01b905060076000866001600160a01b03166001600160a01b031681526020019081526020016000208460f01b604051602001612718929190614347565b60408051601f198184030181529181526001600160a01b038716600090815260076020908152919020825161275293919290910190612d4b565b508060001a60f81b60088461ffff16815461276c90613440565b811061277a5761277a613b44565b8154600116156127995790600052602060002090602091828204019190065b601f036101000a81548160ff021916907f010000000000000000000000000000000000000000000000000000000000000084040217905550806001600281106127e4576127e4613b44565b1a60f81b60086127f5856001613fba565b61ffff16815461280490613440565b811061281257612812613b44565b8154600116156128315790600052602060002090602091828204019190065b601f036101000a81548160ff021916907f010000000000000000000000000000000000000000000000000000000000000084040217905550505050505050565b60006128b283838080601f01602080910402602001604051908101604052809392919081815260200183838082843760009201829052509250611c40915050565b90508382146128d35760405162461bcd60e51b8152600401610916906143fc565b6128de81600261440c565b6001600160a01b0387166000908152600760205260409020805461ffff929092169161290990613440565b9050146129285760405162461bcd60e51b8152600401610916906144b2565b6008838360405160200161293e939291906144c2565b60405160208183030381529060405260089080519060200190612962929190612d4b565b506001600160a01b0386166000908152600760209081526040918290209151612990929188918891016144c2565b60408051601f198184030181529181526001600160a01b03881660009081526007602090815291902082516129ca93919290910190612d4b565b506000600980546129da90613440565b9050905060005b61ffff8116861115612af1576129f8600282614170565b612a029084613fba565b61ffff16612a4a86868080601f016020809104026020016040519081016040528093929190818152602001838380828437600092019190915250505061ffff85169050611c40565b61ffff1614612a6b5760405162461bcd60e51b815260040161091690614531565b6000612ab188888080601f016020809104026020016040519081016040528093929190818152602001838380828437600092019190915250505061ffff85169050611c40565b9050612abd8284613fba565b61ffff9182166000908152600a60205260409020805461ffff191691909216179055612aea600282613fba565b90506129e1565b5060098686604051602001612b08939291906144c2565b60405160208183030381529060405260099080519060200190611fe0929190612d4b565b60006001600160a01b0384163b15612c78576040517f150b7a020000000000000000000000000000000000000000000000000000000081526001600160a01b0385169063150b7a0290612b89903390899088908890600401614541565b602060405180830381600087803b158015612ba357600080fd5b505af1925050508015612bd3575060408051601f3d908101601f19168201909252612bd091810190614590565b60015b612c2d573d808015612c01576040519150601f19603f3d011682016040523d82523d6000602084013e612c06565b606091505b508051612c255760405162461bcd60e51b8152600401610916906141e1565b805181602001fd5b7fffffffff00000000000000000000000000000000000000000000000000000000167f150b7a02000000000000000000000000000000000000000000000000000000001490506117e8565b506001949350505050565b606081612c9181601f61377a565b1015612caf5760405162461bcd60e51b8152600401610916906145e3565b612cb9828461377a565b84511015612cd95760405162461bcd60e51b815260040161091690614625565b606082158015612cf85760405191506000825260208201604052612d42565b6040519150601f8416801560200281840101858101878315602002848b0101015b81831015612d31578051835260209283019201612d19565b5050858452601f01601f1916604052505b50949350505050565b828054612d5790613440565b90600052602060002090601f016020900481019282612d795760008555612dbf565b82601f10612d9257805160ff1916838001178555612dbf565b82800160010185558215612dbf579182015b82811115612dbf578251825591602001919060010190612da4565b50612dcb929150612dcf565b5090565b5b80821115612dcb5760008155600101612dd0565b7fffffffff0000000000000000000000000000000000000000000000000000000081165b8114610dd857600080fd5b803561084581612de4565b600060208284031215612e3357612e33600080fd5b60006117e88484612e13565b8015155b82525050565b602081016108458284612e3f565b60005b83811015612e72578181015183820152602001612e5a565b838111156112df5750506000910152565b6000612e8d825190565b808452602084019350612ea4818560208601612e57565b601f01601f19169290920192915050565b6020808252810161159d8184612e83565b80612e08565b803561084581612ec6565b600060208284031215612eec57612eec600080fd5b60006117e88484612ecc565b60ff8116612e43565b602081016108458284612ef8565b60006001600160a01b038216610845565b612e4381612f0f565b602081016108458284612f20565b612e0881612f0f565b803561084581612f37565b60008060408385031215612f6157612f61600080fd5b6000612f6d8585612f40565b9250506020612f7e85828601612ecc565b9150509250929050565b600060208284031215612f9d57612f9d600080fd5b60006117e88484612f40565b80612e43565b602081016108458284612fa9565b600080600060608486031215612fd557612fd5600080fd5b6000612fe18686612f40565b9350506020612ff286828701612f40565b925050604061300386828701612ecc565b9150509250925092565b60008083601f84011261302257613022600080fd5b50813567ffffffffffffffff81111561303d5761303d600080fd5b60208301915083600182028301111561305857613058600080fd5b9250929050565b6000806000806040858703121561307857613078600080fd5b843567ffffffffffffffff81111561309257613092600080fd5b61309e8782880161300d565b9450945050602085013567ffffffffffffffff8111156130c0576130c0600080fd5b6130cc8782880161300d565b95989497509550505050565b60008083601f8401126130ed576130ed600080fd5b50813567ffffffffffffffff81111561310857613108600080fd5b60208301915083602082028301111561305857613058600080fd5b60008060008060008060008060008060a08b8d03121561314557613145600080fd5b8a3567ffffffffffffffff81111561315f5761315f600080fd5b61316b8d828e0161300d565b9a509a505060208b013567ffffffffffffffff81111561318d5761318d600080fd5b6131998d828e0161300d565b985098505060408b013567ffffffffffffffff8111156131bb576131bb600080fd5b6131c78d828e0161300d565b965096505060608b013567ffffffffffffffff8111156131e9576131e9600080fd5b6131f58d828e016130d8565b945094505060808b013567ffffffffffffffff81111561321757613217600080fd5b6132238d828e016130d8565b92509250509295989b9194979a5092959850565b801515612e08565b803561084581613237565b6000806040838503121561326057613260600080fd5b600061326c8585612f40565b9250506020612f7e8582860161323f565b634e487b7160e01b600052604160045260246000fd5b601f19601f830116810181811067ffffffffffffffff821117156132b9576132b961327d565b6040525050565b60006132cb60405190565b90506132d78282613293565b919050565b600067ffffffffffffffff8211156132f6576132f661327d565b601f19601f83011660200192915050565b82818337506000910152565b6000613326613321846132dc565b6132c0565b90508281526020810184848401111561334157613341600080fd5b61334c848285613307565b509392505050565b600082601f83011261336857613368600080fd5b81356117e8848260208601613313565b6000806000806080858703121561339157613391600080fd5b600061339d8787612f40565b94505060206133ae87828801612f40565b93505060406133bf87828801612ecc565b925050606085013567ffffffffffffffff8111156133df576133df600080fd5b6133eb87828801613354565b91505092959194509250565b6000806040838503121561340d5761340d600080fd5b60006134198585612f40565b9250506020612f7e85828601612f40565b634e487b7160e01b600052602260045260246000fd5b60028104600182168061345457607f821691505b602082108114156134675761346761342a565b50919050565b602c8152602081017f4552433732313a20617070726f76656420717565727920666f72206e6f6e657881527f697374656e7420746f6b656e0000000000000000000000000000000000000000602082015290505b60400190565b602080825281016108458161346d565b60218152602081017f4552433732313a20617070726f76616c20746f2063757272656e74206f776e6581527f7200000000000000000000000000000000000000000000000000000000000000602082015290506134c1565b60208082528101610845816134d7565b60388152602081017f4552433732313a20617070726f76652063616c6c6572206973206e6f74206f7781527f6e6572206e6f7220617070726f76656420666f7220616c6c0000000000000000602082015290506134c1565b602080825281016108458161353f565b60208082527f4f776e61626c653a2063616c6c6572206973206e6f7420746865206f776e657291019081525b60200190565b60208082528101610845816135a7565b634e487b7160e01b600052601260045260246000fd5b634e487b7160e01b600052601160045260246000fd5b815b9150600082613628576136286135e9565b500490565b60318152602081017f4552433732313a207472616e736665722063616c6c6572206973206e6f74206f81527f776e6572206e6f7220617070726f766564000000000000000000000000000000602082015290506134c1565b602080825281016108458161362d565b601f8152602081017f5265656e7472616e637947756172643a207265656e7472616e742063616c6c00815290506135d3565b6020808252810161084581613695565b60148152602081017f5075626c69632073616c65206e6f74206f70656e000000000000000000000000815290506135d3565b60208082528101610845816136d7565b6000816000190483118215151615613733576137336135ff565b500290565b601d8152602081017f596f75206861766520746f2070617920746865206261696c20626f6e64000000815290506135d3565b6020808252810161084581613738565b6000821982111561378d5761378d6135ff565b500190565b60318152602081017f596f757220686f6d6520697320746f20736d616c6c20746f2077656c636f6d6581527f20736f206d616e7920647265616d657273000000000000000000000000000000602082015290506134c1565b6020808252810161084581613792565b602b8152602081017f455243373231456e756d657261626c653a206f776e657220696e646578206f7581527f74206f6620626f756e6473000000000000000000000000000000000000000000602082015290506134c1565b60208082528101610845816137fa565b60118152602081017f5769746864726177616c206661696c6564000000000000000000000000000000815290506135d3565b6020808252810161084581613862565b602c8152602081017f455243373231456e756d657261626c653a20676c6f62616c20696e646578206f81527f7574206f6620626f756e64730000000000000000000000000000000000000000602082015290506134c1565b60208082528101610845816138a4565b60298152602081017f4552433732313a206f776e657220717565727920666f72206e6f6e657869737481527f656e7420746f6b656e0000000000000000000000000000000000000000000000602082015290506134c1565b602080825281016108458161390c565b602a8152602081017f4552433732313a2062616c616e636520717565727920666f7220746865207a6581527f726f206164647265737300000000000000000000000000000000000000000000602082015290506134c1565b6020808252810161084581613974565b60258152602081017f43616e6479206964732073686f756c642068617665207468652073616d65206c81527f656e677468000000000000000000000000000000000000000000000000000000602082015290506134c1565b60208082528101610845816139dc565b601f8152602081017f456163682072756e6e6572206e6565647320697473206f776e2063616e647900815290506135d3565b6020808252810161084581613a44565b6000610845613a9661ffff841681565b90565b612e4381613a86565b602081016108458284613a99565b805161084581612f37565b600060208284031215613ad057613ad0600080fd5b60006117e88484613ab0565b60378152602081017f596f752063616e6e6f7420676976652063616e6469657320746f20612072756e81527f6e6572207468617420796f7520646f206e6f74206f776e000000000000000000602082015290506134c1565b6020808252810161084581613adc565b634e487b7160e01b600052603260045260246000fd5b601c8152602081017f43616e6479206964732073686f756c64206265207468652073616d6500000000815290506135d3565b6020808252810161084581613b5a565b604f8152602081017f596f75722072756e6e6572206e65656473206f6e6520616e64206f6e6c79206f81527f6e652063616e64792c2077686f206b6e6f7773207768617420636f756c64206860208201527f617070656e206f74686572776973650000000000000000000000000000000000604082015290505b60600190565b6020808252810161084581613b9c565b81835260208301925060007f07ffffffffffffffffffffffffffffffffffffffffffffffffffffffffffffff831115613c6757613c67600080fd5b602083029250613c78838584613307565b50500190565b60608101613c8c8288612f20565b8181036020830152613c9f818688613c2c565b90508181036040830152613cb4818486613c2c565b979650505050505050565b60278152602081017f4552433732313a2055524920717565727920666f72206e6f6e6578697374656e81527f7420746f6b656e00000000000000000000000000000000000000000000000000602082015290506134c1565b6020808252810161084581613cbf565b600060ff8216610845565b8054613d3d81613d27565b90506109c08382612ef8565b60408101613d578285612fa9565b61159d6020830184613d32565b6000613d72613321846132dc565b905082815260208101848484011115613d8d57613d8d600080fd5b61334c848285612e57565b600082601f830112613dac57613dac600080fd5b81516117e8848260208601613d64565b600060208284031215613dd157613dd1600080fd5b815167ffffffffffffffff811115613deb57613deb600080fd5b6117e884828501613d98565b60268152602081017f4f776e61626c653a206e6577206f776e657220697320746865207a65726f206181527f6464726573730000000000000000000000000000000000000000000000000000602082015290506134c1565b6020808252810161084581613df7565b602c8152602081017f4552433732313a206f70657261746f7220717565727920666f72206e6f6e657881527f697374656e7420746f6b656e0000000000000000000000000000000000000000602082015290506134c1565b6020808252810161084581613e5f565b60298152602081017f4552433732313a207472616e73666572206f6620746f6b656e2074686174206981527f73206e6f74206f776e0000000000000000000000000000000000000000000000602082015290506134c1565b6020808252810161084581613ec7565b60248152602081017f4552433732313a207472616e7366657220746f20746865207a65726f2061646481527f7265737300000000000000000000000000000000000000000000000000000000602082015290506134c1565b6020808252810161084581613f2f565b61ffff9081169082165b9150600082821015613fb557613fb56135ff565b500390565b61ffff8116905061ffff8216915060008261ffff0382111561378d5761378d6135ff565b60208082527f4552433732313a206d696e7420746f20746865207a65726f206164647265737391019081526135d3565b6020808252810161084581613fde565b60328152602081017f596f752063616e206d696e74206279206261746368657320757020746f20323581527f3620746f6b656e7320617420612074696d650000000000000000000000000000602082015290506134c1565b602080825281016108458161401e565b61378d828483613307565b60006108458260601b90565b600061084582614091565b612e436140b482612f0f565b61409d565b6140c481898b614086565b90506140d1818789614086565b90506140dd81866140a8565b6014016140ea8185612fa9565b6020016140f78184612fa9565b6020016141048183612fa9565b60200198975050505050505050565b601c8152602081017f4552433732313a20746f6b656e20616c7265616479206d696e74656400000000815290506135d3565b6020808252810161084581614113565b6000600019821415614169576141696135ff565b5060010190565b61ffff908116908216613617565b61159d818385614086565b60328152602081017f4552433732313a207472616e7366657220746f206e6f6e20455243373231526581527f63656976657220696d706c656d656e7465720000000000000000000000000000602082015290506134c1565b6020808252810161084581614189565b60148152602081017f746f55696e7431365f6f75744f66426f756e6473000000000000000000000000815290506135d3565b60208082528101610845816141f1565b60ff9182169116600082614249576142496135e9565b500690565b60ff8116905060ff8216915060008260ff0382111561378d5761378d6135ff565b60198152602081017f4552433732313a20617070726f766520746f2063616c6c657200000000000000815290506135d3565b602080825281016108458161426f565b600081546142be81613440565b6001821680156142d557600181146142e657614316565b60ff19831686528186019350614316565b60008581526020902060005b8381101561430e578154888201526001909101906020016142f2565b505081860193505b50505092915050565b7fffff0000000000000000000000000000000000000000000000000000000000008116612e43565b61435181846142b1565b905061435d818361431f565b60020192915050565b81613fa1565b6000614376825190565b614384818560208601612e57565b9290920192915050565b614398818461436c565b905061159d818361436c565b60328152602081017f6f776e6572496e6465786573206d7573742068617665207468652073616d652081527f6c656e67746820617320746f6b656e4964730000000000000000000000000000602082015290506134c1565b60208082528101610845816143a4565b61ffff8116905061ffff8216915060008161ffff0483118215151615613733576137336135ff565b60458152602081017f54686520676976656e206f776e6572546f6b656e496e646578657320646f206e81527f6f742073746172742066726f6d207468652063757272656e74206f776e65722060208201527f636f756e7400000000000000000000000000000000000000000000000000000060408201529050613c16565b6020808252810161084581614434565b6144cc81856142b1565b90506117e8818385614086565b60248152602081017f6f776e6572546f6b656e496e6465786573206d7573742062652061207365717581527f656e636500000000000000000000000000000000000000000000000000000000602082015290506134c1565b60208082528101610845816144d9565b6080810161454f8287612f20565b61455c6020830186612f20565b6145696040830185613a99565b818103606083015261457b8184612e83565b9695505050505050565b805161084581612de4565b6000602082840312156145a5576145a5600080fd5b60006117e88484614585565b600e8152602081017f736c6963655f6f766572666c6f77000000000000000000000000000000000000815290506135d3565b60208082528101610845816145b1565b60118152602081017f736c6963655f6f75744f66426f756e6473000000000000000000000000000000815290506135d3565b60208082528101610845816145f356fea2646970667358221220ca27266042232ccd8384bbb5069f718e6fd41c22e9b5917f4649a01c1518269664736f6c63430008080033",
  "devdoc": {
    "kind": "dev",
    "methods": {
      "approve(address,uint256)": {
        "details": "See {IERC721-approve}."
      },
      "balanceOf(address)": {
        "details": "See {IERC721-balanceOf}."
      },
      "getApproved(uint256)": {
        "details": "See {IERC721-getApproved}."
      },
      "isApprovedForAll(address,address)": {
        "details": "Modified for opensea and looksrare pre-approve so users can make truly gas less sales."
      },
      "name()": {
        "details": "See {IERC721Metadata-name}."
      },
      "owner()": {
        "details": "Returns the address of the current owner."
      },
      "ownerOf(uint256)": {
        "details": "See {IERC721-ownerOf}."
      },
      "renounceOwnership()": {
        "details": "Leaves the contract without owner. It will not be possible to call `onlyOwner` functions anymore. Can only be called by the current owner. NOTE: Renouncing ownership will leave the contract without an owner, thereby removing any functionality that is only available to the owner."
      },
      "safeTransferFrom(address,address,uint256)": {
        "details": "See {IERC721-safeTransferFrom}."
      },
      "safeTransferFrom(address,address,uint256,bytes)": {
        "details": "See {IERC721-safeTransferFrom}."
      },
      "setApprovalForAll(address,bool)": {
        "details": "See {IERC721-setApprovalForAll}."
      },
      "supportsInterface(bytes4)": {
        "details": "See {IERC165-supportsInterface}."
      },
      "symbol()": {
        "details": "See {IERC721Metadata-symbol}."
      },
      "tokenByIndex(uint256)": {
        "details": "See {IERC721Enumerable-tokenByIndex}."
      },
      "tokenOfOwnerByIndex(address,uint256)": {
        "details": "See {IERC721Enumerable-tokenOfOwnerByIndex}."
      },
      "totalSupply()": {
        "details": "See {IERC721Enumerable-totalSupply}."
      },
      "transferFrom(address,address,uint256)": {
        "details": "See {IERC721-transferFrom}."
      },
      "transferOwnership(address)": {
        "details": "Transfers ownership of the contract to a new account (`newOwner`). Can only be called by the current owner."
      }
    },
    "stateVariables": {
      "opensea": {
        "details": "Copied from ApeRunner's contract"
      }
    },
    "version": 1
  },
  "userdoc": {
    "kind": "user",
    "methods": {
      "looksrare()": {
        "notice": "LooksRare marketplace transfer manager."
      },
      "marketplacesApproved()": {
        "notice": "Check if marketplaces pre-approve is enabled."
      },
      "opensea()": {
        "notice": "OpenSea proxy registry."
      },
      "setLooksrare(address)": {
        "notice": "Set looksrare to `looksrare_`."
      },
      "setOpensea(address)": {
        "notice": "Set opensea to `opensea_`."
      },
      "toggleMarketplacesApproved()": {
        "notice": "Toggle pre-approve feature state for sender."
      }
    },
    "version": 1
  },
  "storageLayout": {
    "storage": [
      {
        "astId": 13127,
        "contract": "contracts/dreamers/ChainDreamers.sol:ChainDreamers",
        "label": "_name",
        "offset": 0,
        "slot": "0",
        "type": "t_string_storage"
      },
      {
        "astId": 13129,
        "contract": "contracts/dreamers/ChainDreamers.sol:ChainDreamers",
        "label": "_symbol",
        "offset": 0,
        "slot": "1",
        "type": "t_string_storage"
      },
      {
        "astId": 13133,
        "contract": "contracts/dreamers/ChainDreamers.sol:ChainDreamers",
        "label": "_owners",
        "offset": 0,
        "slot": "2",
        "type": "t_mapping(t_uint16,t_address)"
      },
      {
        "astId": 13137,
        "contract": "contracts/dreamers/ChainDreamers.sol:ChainDreamers",
        "label": "_balances",
        "offset": 0,
        "slot": "3",
        "type": "t_mapping(t_address,t_uint16)"
      },
      {
        "astId": 13141,
        "contract": "contracts/dreamers/ChainDreamers.sol:ChainDreamers",
        "label": "_tokenApprovals",
        "offset": 0,
        "slot": "4",
        "type": "t_mapping(t_uint16,t_address)"
      },
      {
        "astId": 13147,
        "contract": "contracts/dreamers/ChainDreamers.sol:ChainDreamers",
        "label": "_operatorApprovals",
        "offset": 0,
        "slot": "5",
        "type": "t_mapping(t_address,t_mapping(t_address,t_bool))"
      },
      {
        "astId": 13152,
        "contract": "contracts/dreamers/ChainDreamers.sol:ChainDreamers",
        "label": "dreamers",
        "offset": 0,
        "slot": "6",
        "type": "t_mapping(t_uint256,t_struct(ChainDreamer)4650_storage)"
      },
      {
        "astId": 14267,
        "contract": "contracts/dreamers/ChainDreamers.sol:ChainDreamers",
        "label": "_ownedTokens",
        "offset": 0,
        "slot": "7",
        "type": "t_mapping(t_address,t_bytes_storage)"
      },
      {
        "astId": 14269,
        "contract": "contracts/dreamers/ChainDreamers.sol:ChainDreamers",
        "label": "_ownedTokensIndex",
        "offset": 0,
        "slot": "8",
        "type": "t_bytes_storage"
      },
      {
        "astId": 14271,
        "contract": "contracts/dreamers/ChainDreamers.sol:ChainDreamers",
        "label": "_allTokens",
        "offset": 0,
        "slot": "9",
        "type": "t_bytes_storage"
      },
      {
        "astId": 14275,
        "contract": "contracts/dreamers/ChainDreamers.sol:ChainDreamers",
        "label": "_allTokensIndex",
        "offset": 0,
        "slot": "10",
        "type": "t_mapping(t_uint16,t_uint16)"
      },
      {
        "astId": 225,
        "contract": "contracts/dreamers/ChainDreamers.sol:ChainDreamers",
        "label": "_owner",
        "offset": 0,
        "slot": "11",
        "type": "t_address"
      },
      {
        "astId": 425,
        "contract": "contracts/dreamers/ChainDreamers.sol:ChainDreamers",
        "label": "_status",
        "offset": 0,
        "slot": "12",
        "type": "t_uint256"
      },
      {
        "astId": 4179,
        "contract": "contracts/dreamers/ChainDreamers.sol:ChainDreamers",
        "label": "renderingContractAddress",
        "offset": 0,
        "slot": "13",
        "type": "t_address"
      },
      {
        "astId": 4181,
        "contract": "contracts/dreamers/ChainDreamers.sol:ChainDreamers",
        "label": "candyShopAddress",
        "offset": 0,
        "slot": "14",
        "type": "t_address"
      },
      {
        "astId": 4183,
        "contract": "contracts/dreamers/ChainDreamers.sol:ChainDreamers",
        "label": "chainRunnersAddress",
        "offset": 0,
        "slot": "15",
        "type": "t_address"
      },
      {
        "astId": 4186,
        "contract": "contracts/dreamers/ChainDreamers.sol:ChainDreamers",
        "label": "renderer",
        "offset": 0,
        "slot": "16",
        "type": "t_contract(IDreamersRenderer)7914"
      },
      {
        "astId": 4189,
        "contract": "contracts/dreamers/ChainDreamers.sol:ChainDreamers",
        "label": "candyShop",
        "offset": 0,
        "slot": "17",
        "type": "t_contract(ICandyShop)7862"
      },
      {
        "astId": 4192,
        "contract": "contracts/dreamers/ChainDreamers.sol:ChainDreamers",
        "label": "chainRunners",
        "offset": 0,
        "slot": "18",
        "type": "t_contract(IChainRunners)7879"
      },
      {
        "astId": 4195,
        "contract": "contracts/dreamers/ChainDreamers.sol:ChainDreamers",
        "label": "opensea",
        "offset": 0,
        "slot": "19",
        "type": "t_address"
      },
      {
        "astId": 4198,
        "contract": "contracts/dreamers/ChainDreamers.sol:ChainDreamers",
        "label": "looksrare",
        "offset": 0,
        "slot": "20",
        "type": "t_address"
      },
      {
        "astId": 4202,
        "contract": "contracts/dreamers/ChainDreamers.sol:ChainDreamers",
        "label": "marketplacesApproved",
        "offset": 20,
        "slot": "20",
        "type": "t_bool"
      },
      {
        "astId": 4282,
        "contract": "contracts/dreamers/ChainDreamers.sol:ChainDreamers",
        "label": "maxDreamersMintPublicSale",
        "offset": 0,
        "slot": "21",
        "type": "t_uint256"
      },
      {
        "astId": 4287,
        "contract": "contracts/dreamers/ChainDreamers.sol:ChainDreamers",
        "label": "publicSaleStartTimestamp",
        "offset": 0,
        "slot": "22",
        "type": "t_uint256"
      }
    ],
    "types": {
      "t_address": {
        "encoding": "inplace",
        "label": "address",
        "numberOfBytes": "20"
      },
      "t_bool": {
        "encoding": "inplace",
        "label": "bool",
        "numberOfBytes": "1"
      },
      "t_bytes_storage": {
        "encoding": "bytes",
        "label": "bytes",
        "numberOfBytes": "32"
      },
      "t_contract(ICandyShop)7862": {
        "encoding": "inplace",
        "label": "contract ICandyShop",
        "numberOfBytes": "20"
      },
      "t_contract(IChainRunners)7879": {
        "encoding": "inplace",
        "label": "contract IChainRunners",
        "numberOfBytes": "20"
      },
      "t_contract(IDreamersRenderer)7914": {
        "encoding": "inplace",
        "label": "contract IDreamersRenderer",
        "numberOfBytes": "20"
      },
      "t_mapping(t_address,t_bool)": {
        "encoding": "mapping",
        "key": "t_address",
        "label": "mapping(address => bool)",
        "numberOfBytes": "32",
        "value": "t_bool"
      },
      "t_mapping(t_address,t_bytes_storage)": {
        "encoding": "mapping",
        "key": "t_address",
        "label": "mapping(address => bytes)",
        "numberOfBytes": "32",
        "value": "t_bytes_storage"
      },
      "t_mapping(t_address,t_mapping(t_address,t_bool))": {
        "encoding": "mapping",
        "key": "t_address",
        "label": "mapping(address => mapping(address => bool))",
        "numberOfBytes": "32",
        "value": "t_mapping(t_address,t_bool)"
      },
      "t_mapping(t_address,t_uint16)": {
        "encoding": "mapping",
        "key": "t_address",
        "label": "mapping(address => uint16)",
        "numberOfBytes": "32",
        "value": "t_uint16"
      },
      "t_mapping(t_uint16,t_address)": {
        "encoding": "mapping",
        "key": "t_uint16",
        "label": "mapping(uint16 => address)",
        "numberOfBytes": "32",
        "value": "t_address"
      },
      "t_mapping(t_uint16,t_uint16)": {
        "encoding": "mapping",
        "key": "t_uint16",
        "label": "mapping(uint16 => uint16)",
        "numberOfBytes": "32",
        "value": "t_uint16"
      },
      "t_mapping(t_uint256,t_struct(ChainDreamer)4650_storage)": {
        "encoding": "mapping",
        "key": "t_uint256",
        "label": "mapping(uint256 => struct ChainDreamersTypes.ChainDreamer)",
        "numberOfBytes": "32",
        "value": "t_struct(ChainDreamer)4650_storage"
      },
      "t_string_storage": {
        "encoding": "bytes",
        "label": "string",
        "numberOfBytes": "32"
      },
      "t_struct(ChainDreamer)4650_storage": {
        "encoding": "inplace",
        "label": "struct ChainDreamersTypes.ChainDreamer",
        "members": [
          {
            "astId": 4649,
            "contract": "contracts/dreamers/ChainDreamers.sol:ChainDreamers",
            "label": "candy",
            "offset": 0,
            "slot": "0",
            "type": "t_uint8"
          }
        ],
        "numberOfBytes": "32"
      },
      "t_uint16": {
        "encoding": "inplace",
        "label": "uint16",
        "numberOfBytes": "2"
      },
      "t_uint256": {
        "encoding": "inplace",
        "label": "uint256",
        "numberOfBytes": "32"
      },
      "t_uint8": {
        "encoding": "inplace",
        "label": "uint8",
        "numberOfBytes": "1"
      }
    }
  }
}