{
  "address": "0xb7a428240054cCd7d77ee5567ECD549cca687440",
  "abi": [
    {
      "inputs": [
        {
          "internalType": "string",
          "name": "name_",
          "type": "string"
        },
        {
          "internalType": "string",
          "name": "symbol_",
          "type": "string"
        }
      ],
      "stateMutability": "nonpayable",
      "type": "constructor"
    },
    {
      "anonymous": false,
      "inputs": [
        {
          "indexed": true,
          "internalType": "address",
          "name": "owner",
          "type": "address"
        },
        {
          "indexed": true,
          "internalType": "address",
          "name": "approved",
          "type": "address"
        },
        {
          "indexed": true,
          "internalType": "uint256",
          "name": "tokenId",
          "type": "uint256"
        }
      ],
      "name": "Approval",
      "type": "event"
    },
    {
      "anonymous": false,
      "inputs": [
        {
          "indexed": true,
          "internalType": "address",
          "name": "owner",
          "type": "address"
        },
        {
          "indexed": true,
          "internalType": "address",
          "name": "operator",
          "type": "address"
        },
        {
          "indexed": false,
          "internalType": "bool",
          "name": "approved",
          "type": "bool"
        }
      ],
      "name": "ApprovalForAll",
      "type": "event"
    },
    {
      "anonymous": false,
      "inputs": [
        {
          "indexed": true,
          "internalType": "address",
          "name": "previousOwner",
          "type": "address"
        },
        {
          "indexed": true,
          "internalType": "address",
          "name": "newOwner",
          "type": "address"
        }
      ],
      "name": "OwnershipTransferred",
      "type": "event"
    },
    {
      "anonymous": false,
      "inputs": [
        {
          "indexed": true,
          "internalType": "address",
          "name": "from",
          "type": "address"
        },
        {
          "indexed": true,
          "internalType": "address",
          "name": "to",
          "type": "address"
        },
        {
          "indexed": true,
          "internalType": "uint256",
          "name": "tokenId",
          "type": "uint256"
        }
      ],
      "name": "Transfer",
      "type": "event"
    },
    {
      "inputs": [],
      "name": "MINT_PUBLIC_PRICE",
      "outputs": [
        {
          "internalType": "uint256",
          "name": "",
          "type": "uint256"
        }
      ],
      "stateMutability": "view",
      "type": "function"
    },
    {
      "inputs": [
        {
          "internalType": "address",
          "name": "to",
          "type": "address"
        },
        {
          "internalType": "uint256",
          "name": "tokenId",
          "type": "uint256"
        }
      ],
      "name": "approve",
      "outputs": [],
      "stateMutability": "nonpayable",
      "type": "function"
    },
    {
      "inputs": [
        {
          "internalType": "address",
          "name": "owner",
          "type": "address"
        }
      ],
      "name": "balanceOf",
      "outputs": [
        {
          "internalType": "uint256",
          "name": "",
          "type": "uint256"
        }
      ],
      "stateMutability": "view",
      "type": "function"
    },
    {
      "inputs": [],
      "name": "candyShopAddress",
      "outputs": [
        {
          "internalType": "address",
          "name": "",
          "type": "address"
        }
      ],
      "stateMutability": "view",
      "type": "function"
    },
    {
      "inputs": [],
      "name": "chainRunnersAddress",
      "outputs": [
        {
          "internalType": "address",
          "name": "",
          "type": "address"
        }
      ],
      "stateMutability": "view",
      "type": "function"
    },
    {
      "inputs": [
        {
          "internalType": "uint256",
          "name": "",
          "type": "uint256"
        }
      ],
      "name": "dreamers",
      "outputs": [
        {
          "internalType": "uint8",
          "name": "dna",
          "type": "uint8"
        }
      ],
      "stateMutability": "view",
      "type": "function"
    },
    {
      "inputs": [
        {
          "internalType": "uint256",
          "name": "tokenId",
          "type": "uint256"
        }
      ],
      "name": "getApproved",
      "outputs": [
        {
          "internalType": "address",
          "name": "",
          "type": "address"
        }
      ],
      "stateMutability": "view",
      "type": "function"
    },
    {
      "inputs": [
        {
          "internalType": "address",
          "name": "owner",
          "type": "address"
        },
        {
          "internalType": "address",
          "name": "operator",
          "type": "address"
        }
      ],
      "name": "isApprovedForAll",
      "outputs": [
        {
          "internalType": "bool",
          "name": "",
          "type": "bool"
        }
      ],
      "stateMutability": "view",
      "type": "function"
    },
    {
      "inputs": [],
      "name": "isPublicSaleOpen",
      "outputs": [
        {
          "internalType": "bool",
          "name": "",
          "type": "bool"
        }
      ],
      "stateMutability": "view",
      "type": "function"
    },
    {
      "inputs": [],
      "name": "maxDreamersMintPublicSale",
      "outputs": [
        {
          "internalType": "uint256",
          "name": "",
          "type": "uint256"
        }
      ],
      "stateMutability": "view",
      "type": "function"
    },
    {
      "inputs": [
        {
          "internalType": "bytes",
          "name": "tokenIds",
          "type": "bytes"
        },
        {
          "internalType": "bytes",
          "name": "ownerTokenIndexes",
          "type": "bytes"
        }
      ],
      "name": "mintBatchPublicSale",
      "outputs": [
        {
          "internalType": "bool",
          "name": "",
          "type": "bool"
        }
      ],
      "stateMutability": "payable",
      "type": "function"
    },
    {
      "inputs": [
        {
          "internalType": "bytes",
          "name": "tokenIds",
          "type": "bytes"
        },
        {
          "internalType": "bytes",
          "name": "ownerTokenIndexes",
          "type": "bytes"
        },
        {
          "internalType": "bytes",
          "name": "candyIdsBytes",
          "type": "bytes"
        },
        {
          "internalType": "uint256[]",
          "name": "candyIds",
          "type": "uint256[]"
        },
        {
          "internalType": "uint256[]",
          "name": "candyAmounts",
          "type": "uint256[]"
        }
      ],
      "name": "mintBatchRunnersAccess",
      "outputs": [
        {
          "internalType": "bool",
          "name": "",
          "type": "bool"
        }
      ],
      "stateMutability": "nonpayable",
      "type": "function"
    },
    {
      "inputs": [],
      "name": "name",
      "outputs": [
        {
          "internalType": "string",
          "name": "",
          "type": "string"
        }
      ],
      "stateMutability": "view",
      "type": "function"
    },
    {
      "inputs": [],
      "name": "owner",
      "outputs": [
        {
          "internalType": "address",
          "name": "",
          "type": "address"
        }
      ],
      "stateMutability": "view",
      "type": "function"
    },
    {
      "inputs": [
        {
          "internalType": "uint256",
          "name": "tokenId",
          "type": "uint256"
        }
      ],
      "name": "ownerOf",
      "outputs": [
        {
          "internalType": "address",
          "name": "",
          "type": "address"
        }
      ],
      "stateMutability": "view",
      "type": "function"
    },
    {
      "inputs": [],
      "name": "publicSaleStartTimestamp",
      "outputs": [
        {
          "internalType": "uint256",
          "name": "",
          "type": "uint256"
        }
      ],
      "stateMutability": "view",
      "type": "function"
    },
    {
      "inputs": [],
      "name": "renderingContractAddress",
      "outputs": [
        {
          "internalType": "address",
          "name": "",
          "type": "address"
        }
      ],
      "stateMutability": "view",
      "type": "function"
    },
    {
      "inputs": [],
      "name": "renounceOwnership",
      "outputs": [],
      "stateMutability": "nonpayable",
      "type": "function"
    },
    {
      "inputs": [
        {
          "internalType": "address",
          "name": "from",
          "type": "address"
        },
        {
          "internalType": "address",
          "name": "to",
          "type": "address"
        },
        {
          "internalType": "uint256",
          "name": "tokenId",
          "type": "uint256"
        }
      ],
      "name": "safeTransferFrom",
      "outputs": [],
      "stateMutability": "nonpayable",
      "type": "function"
    },
    {
      "inputs": [
        {
          "internalType": "address",
          "name": "from",
          "type": "address"
        },
        {
          "internalType": "address",
          "name": "to",
          "type": "address"
        },
        {
          "internalType": "uint256",
          "name": "tokenId",
          "type": "uint256"
        },
        {
          "internalType": "bytes",
          "name": "_data",
          "type": "bytes"
        }
      ],
      "name": "safeTransferFrom",
      "outputs": [],
      "stateMutability": "nonpayable",
      "type": "function"
    },
    {
      "inputs": [
        {
          "internalType": "address",
          "name": "operator",
          "type": "address"
        },
        {
          "internalType": "bool",
          "name": "approved",
          "type": "bool"
        }
      ],
      "name": "setApprovalForAll",
      "outputs": [],
      "stateMutability": "nonpayable",
      "type": "function"
    },
    {
      "inputs": [
        {
          "internalType": "address",
          "name": "_candyShopContractAddress",
          "type": "address"
        }
      ],
      "name": "setCandyShopAddress",
      "outputs": [],
      "stateMutability": "nonpayable",
      "type": "function"
    },
    {
      "inputs": [
        {
          "internalType": "address",
          "name": "_chainRunnersContractAddress",
          "type": "address"
        }
      ],
      "name": "setChainRunnersContractAddress",
      "outputs": [],
      "stateMutability": "nonpayable",
      "type": "function"
    },
    {
      "inputs": [
        {
          "internalType": "uint256",
          "name": "_maxDreamersMintPublicSale",
          "type": "uint256"
        }
      ],
      "name": "setMaxDreamersMintPublicSale",
      "outputs": [],
      "stateMutability": "nonpayable",
      "type": "function"
    },
    {
      "inputs": [
        {
          "internalType": "uint256",
          "name": "timestamp",
          "type": "uint256"
        }
      ],
      "name": "setPublicSaleTimestamp",
      "outputs": [],
      "stateMutability": "nonpayable",
      "type": "function"
    },
    {
      "inputs": [
        {
          "internalType": "address",
          "name": "_renderingContractAddress",
          "type": "address"
        }
      ],
      "name": "setRenderingContractAddress",
      "outputs": [],
      "stateMutability": "nonpayable",
      "type": "function"
    },
    {
      "inputs": [
        {
          "internalType": "bytes4",
          "name": "interfaceId",
          "type": "bytes4"
        }
      ],
      "name": "supportsInterface",
      "outputs": [
        {
          "internalType": "bool",
          "name": "",
          "type": "bool"
        }
      ],
      "stateMutability": "view",
      "type": "function"
    },
    {
      "inputs": [],
      "name": "symbol",
      "outputs": [
        {
          "internalType": "string",
          "name": "",
          "type": "string"
        }
      ],
      "stateMutability": "view",
      "type": "function"
    },
    {
      "inputs": [
        {
          "internalType": "uint256",
          "name": "index",
          "type": "uint256"
        }
      ],
      "name": "tokenByIndex",
      "outputs": [
        {
          "internalType": "uint256",
          "name": "",
          "type": "uint256"
        }
      ],
      "stateMutability": "view",
      "type": "function"
    },
    {
      "inputs": [
        {
          "internalType": "address",
          "name": "owner",
          "type": "address"
        },
        {
          "internalType": "uint256",
          "name": "index",
          "type": "uint256"
        }
      ],
      "name": "tokenOfOwnerByIndex",
      "outputs": [
        {
          "internalType": "uint256",
          "name": "",
          "type": "uint256"
        }
      ],
      "stateMutability": "view",
      "type": "function"
    },
    {
      "inputs": [
        {
          "internalType": "uint256",
          "name": "_tokenId",
          "type": "uint256"
        },
        {
          "internalType": "uint8",
          "name": "dreamerDna",
          "type": "uint8"
        }
      ],
      "name": "tokenURI",
      "outputs": [
        {
          "internalType": "string",
          "name": "",
          "type": "string"
        }
      ],
      "stateMutability": "view",
      "type": "function"
    },
    {
      "inputs": [
        {
          "internalType": "uint256",
          "name": "_tokenId",
          "type": "uint256"
        }
      ],
      "name": "tokenURI",
      "outputs": [
        {
          "internalType": "string",
          "name": "",
          "type": "string"
        }
      ],
      "stateMutability": "view",
      "type": "function"
    },
    {
      "inputs": [],
      "name": "totalSupply",
      "outputs": [
        {
          "internalType": "uint256",
          "name": "",
          "type": "uint256"
        }
      ],
      "stateMutability": "view",
      "type": "function"
    },
    {
      "inputs": [
        {
          "internalType": "address",
          "name": "from",
          "type": "address"
        },
        {
          "internalType": "address",
          "name": "to",
          "type": "address"
        },
        {
          "internalType": "uint256",
          "name": "tokenId",
          "type": "uint256"
        }
      ],
      "name": "transferFrom",
      "outputs": [],
      "stateMutability": "nonpayable",
      "type": "function"
    },
    {
      "inputs": [
        {
          "internalType": "address",
          "name": "newOwner",
          "type": "address"
        }
      ],
      "name": "transferOwnership",
      "outputs": [],
      "stateMutability": "nonpayable",
      "type": "function"
    },
    {
      "inputs": [],
      "name": "withdraw",
      "outputs": [],
      "stateMutability": "nonpayable",
      "type": "function"
    },
    {
      "stateMutability": "payable",
      "type": "receive"
    }
  ],
  "transactionHash": "0x9e0366a2fcea0c280dff42de2d54d5898bd67cee632b0b494a505d0333fa31c1",
  "args": [
    "Chain Dreamers",
    "DRE"
  ],
  "numDeployments": 3,
  "solcInputHash": "0f9d9557b8067c33c19ff3b909dbc0a5",
  "bytecode": "0x60806040523480156200001157600080fd5b5060405162004a5a38038062004a5a8339810160408190526200003491620001f9565b8151829082906200004d906000906020850190620000e3565b50805162000063906001906020840190620000e3565b505050620000806200007a6200008d60201b60201c565b62000091565b50506001600c5562000373565b3390565b600b80546001600160a01b038381166001600160a01b0319831681179093556040519116919082907f8be0079c531659141344cd1fd0a4f28419497f9722a3daafe3b4186f6b6457e090600090a35050565b828054620000f190620002e7565b90600052602060002090601f01602090048101928262000115576000855562000160565b82601f106200013057805160ff191683800117855562000160565b8280016001018555821562000160579182015b828111156200016057825182559160200191906001019062000143565b506200016e92915062000172565b5090565b5b808211156200016e576000815560010162000173565b6000620001a06200019a8462000287565b62000268565b905082815260208101848484011115620001b957600080fd5b620001c6848285620002b4565b509392505050565b600082601f830112620001df578081fd5b8151620001f184826020860162000189565b949350505050565b600080604083850312156200020c578182fd5b828201516001600160401b0381111562000224578283fd5b6200023285828601620001ce565b602085015190935090506001600160401b0381111562000250578182fd5b6200025e85828601620001ce565b9150509250929050565b60006200027460405190565b905062000282828262000318565b919050565b60006001600160401b03821115620002a357620002a36200035d565b601f19601f83011660200192915050565b60005b83811015620002d1578181015183820152602001620002b7565b83811115620002e1576000848401525b50505050565b600281046001821680620002fc57607f821691505b6020821081141562000312576200031262000347565b50919050565b601f19601f83011681016001600160401b03811182821017156200034057620003406200035d565b6040525050565b634e487b7160e01b600052602260045260246000fd5b634e487b7160e01b600052604160045260246000fd5b6146d780620003836000396000f3fe6080604052600436106102535760003560e01c80636b318e6e11610138578063b5fcb339116100b0578063d3d6005b1161007f578063e985e9c511610064578063e985e9c514610671578063f2fde38b146106ba578063fac91323146106da57600080fd5b8063d3d6005b1461063b578063d7822c991461065b57600080fd5b8063b5fcb339146105bb578063b88d4fde146105db578063c074f412146105fb578063c87b56dd1461061b57600080fd5b80638da5cb5b1161010757806395d89b41116100ec57806395d89b411461056b5780639c51792a14610580578063a22cb4651461059b57600080fd5b80638da5cb5b1461052d57806395a97a631461054b57600080fd5b80636b318e6e146104c257806370a08231146104d8578063715018a6146104f85780638392d8041461050d57600080fd5b806323b872dd116101cb57806342842e0e1161019a578063511a96051161017f578063511a9605146104625780635cc518ba146104825780636352211e146104a257600080fd5b806342842e0e146104225780634f6ccce71461044257600080fd5b806323b872dd146103ba5780632a133e35146103da5780632f745c59146103ed5780633ccfd60b1461040d57600080fd5b8063095ea7b31161022257806312b40a9f1161020757806312b40a9f1461036357806318160ddd146103835780631a6949e3146103a557600080fd5b8063095ea7b3146103215780630d77c7561461034357600080fd5b806301ffc9a71461025f57806306fdde031461029557806307c5bde3146102b7578063081812fc146102f457600080fd5b3661025a57005b600080fd5b34801561026b57600080fd5b5061027f61027a36600461313c565b6106fa565b60405161028c91906140fb565b60405180910390f35b3480156102a157600080fd5b506102aa610756565b60405161028c9190614109565b3480156102c357600080fd5b506102e76102d2366004613318565b60066020526000908152604090205460ff1681565b60405161028c9190614381565b34801561030057600080fd5b5061031461030f366004613318565b6107e8565b60405161028c9190614068565b34801561032d57600080fd5b5061034161033c36600461310e565b61084a565b005b34801561034f57600080fd5b5061034161035e366004613318565b6108d0565b34801561036f57600080fd5b5061034161037e366004612fad565b6108ff565b34801561038f57600080fd5b50610398610962565b60405161028c9190614358565b3480156103b157600080fd5b5061027f610983565b3480156103c657600080fd5b506103416103d536600461301f565b61099b565b61027f6103e8366004613176565b6109cc565b3480156103f957600080fd5b5061039861040836600461310e565b610ab0565b34801561041957600080fd5b50610341610b9c565b34801561042e57600080fd5b5061034161043d36600461301f565b610c31565b34801561044e57600080fd5b5061039861045d366004613318565b610c50565b34801561046e57600080fd5b5061034161047d366004613318565b610c92565b34801561048e57600080fd5b506102aa61049d366004613335565b610cc1565b3480156104ae57600080fd5b506103146104bd366004613318565b610dd5565b3480156104ce57600080fd5b5061039860135481565b3480156104e457600080fd5b506103986104f3366004612fad565b610e0f565b34801561050457600080fd5b50610341610e57565b34801561051957600080fd5b50600f54610314906001600160a01b031681565b34801561053957600080fd5b50600b546001600160a01b0316610314565b34801561055757600080fd5b5061027f6105663660046131e5565b610e8d565b34801561057757600080fd5b506102aa611181565b34801561058c57600080fd5b5061039866b1a2bc2ec5000081565b3480156105a757600080fd5b506103416105b63660046130e0565b611190565b3480156105c757600080fd5b506103416105d6366004612fad565b61119f565b3480156105e757600080fd5b506103416105f636600461306a565b611202565b34801561060757600080fd5b50600d54610314906001600160a01b031681565b34801561062757600080fd5b506102aa610636366004613318565b61123a565b34801561064757600080fd5b50610341610656366004612fad565b611395565b34801561066757600080fd5b5061039860145481565b34801561067d57600080fd5b5061027f61068c366004612fe7565b6001600160a01b03918216600090815260056020908152604080832093909416825291909152205460ff1690565b3480156106c657600080fd5b506103416106d5366004612fad565b6113f8565b3480156106e657600080fd5b50600e54610314906001600160a01b031681565b60007fffffffff0000000000000000000000000000000000000000000000000000000082167f780e9d63000000000000000000000000000000000000000000000000000000001480610750575061075082611451565b92915050565b60606000805461076590614514565b80601f016020809104026020016040519081016040528092919081815260200182805461079190614514565b80156107de5780601f106107b3576101008083540402835291602001916107de565b820191906000526020600020905b8154815290600101906020018083116107c157829003601f168201915b5050505050905090565b61ffff81166000908152600260205260408120546001600160a01b031661082a5760405162461bcd60e51b81526004016108219061426a565b60405180910390fd5b5061ffff166000908152600460205260409020546001600160a01b031690565b600061085582610dd5565b9050806001600160a01b0316836001600160a01b031614156108895760405162461bcd60e51b8152600401610821906142aa565b336001600160a01b03821614806108a557506108a5813361068c565b6108c15760405162461bcd60e51b81526004016108219061420a565b6108cb8383611534565b505050565b600b546001600160a01b031633146108fa5760405162461bcd60e51b81526004016108219061427a565b601355565b600b546001600160a01b031633146109295760405162461bcd60e51b81526004016108219061427a565b600d80546001600160a01b0390921673ffffffffffffffffffffffffffffffffffffffff19928316811790915560108054909216179055565b600060026009805461097390614514565b61097e929150614449565b905090565b6000601454421015801561097e575050601454151590565b6109a533826115b2565b6109c15760405162461bcd60e51b8152600401610821906142da565b6108cb838383611671565b60006002600c5414156109f15760405162461bcd60e51b81526004016108219061431a565b6002600c556109fe610983565b610a1a5760405162461bcd60e51b81526004016108219061430a565b3466b1a2bc2ec50000610a2e600287614449565b610a38919061447c565b14610a555760405162461bcd60e51b81526004016108219061422a565b601354610a63600286614449565b610a6c33610e0f565b610a7691906143f5565b1115610a945760405162461bcd60e51b8152600401610821906141fa565b610aa133868686866117e7565b50600180600c55949350505050565b6000610abb83610e0f565b8210610ad95760405162461bcd60e51b81526004016108219061413a565b6001600160a01b03831660009081526007602052604090208054610b919190610b0190614514565b80601f0160208091040260200160405190810160405280929190818152602001828054610b2d90614514565b8015610b7a5780601f10610b4f57610100808354040283529160200191610b7a565b820191906000526020600020905b815481529060010190602001808311610b5d57829003601f168201915b5050505050836002610b8c919061447c565b611abf565b61ffff169392505050565b600b546001600160a01b03163314610bc65760405162461bcd60e51b81526004016108219061427a565b604051600090339047908381818185875af1925050503d8060008114610c08576040519150601f19603f3d011682016040523d82523d6000602084013e610c0d565b606091505b5050905080610c2e5760405162461bcd60e51b81526004016108219061432a565b50565b6108cb83838361ffff1660405180602001604052806000815250611202565b6000610c5a610962565b8210610c785760405162461bcd60e51b8152600401610821906142fa565b610c8860098054610b0190614514565b61ffff1692915050565b600b546001600160a01b03163314610cbc5760405162461bcd60e51b81526004016108219061427a565b601455565b600d546060906001600160a01b0316610ce95750604080516020810190915260008152610750565b6010546040517f5cc518ba000000000000000000000000000000000000000000000000000000008152610dae916001600160a01b031690635cc518ba90610d369087908790600401614366565b60006040518083038186803b158015610d4e57600080fd5b505afa158015610d62573d6000803e3d6000fd5b505050506040513d6000823e601f3d908101601f19168201604052610d8a91908101906132e3565b604051602001610d9a9190613ff9565b604051602081830303815290604052611af5565b604051602001610dbe9190614003565b604051602081830303815290604052905092915050565b61ffff81166000908152600260205260408120546001600160a01b0316806107505760405162461bcd60e51b81526004016108219061423a565b60006001600160a01b038216610e375760405162461bcd60e51b81526004016108219061421a565b506001600160a01b031660009081526003602052604090205461ffff1690565b600b546001600160a01b03163314610e815760405162461bcd60e51b81526004016108219061427a565b610e8b6000611cbe565b565b60006002600c541415610eb25760405162461bcd60e51b81526004016108219061431a565b6002600c55858414610ed65760405162461bcd60e51b81526004016108219061412a565b610ee186600261447c565b8a14610eff5760405162461bcd60e51b81526004016108219061411a565b60005b8a8110156110f257336001600160a01b0316601260009054906101000a90046001600160a01b03166001600160a01b0316636352211e610f798f8f8080601f016020809104026020016040519081016040528093929190818152602001838380828437600092019190915250889250611abf915050565b6040518263ffffffff1660e01b8152600401610f95919061434a565b60206040518083038186803b158015610fad57600080fd5b505afa158015610fc1573d6000803e3d6000fd5b505050506040513d601f19601f82011682018060405250810190610fe59190612fca565b6001600160a01b03161461100b5760405162461bcd60e51b81526004016108219061433a565b8787611018600284614449565b81811061103557634e487b7160e01b600052603260045260246000fd5b919091013560f81c9050868661104c600285614449565b81811061106957634e487b7160e01b600052603260045260246000fd5b9050602002013560ff16146110905760405162461bcd60e51b81526004016108219061416a565b838361109d600284614449565b8181106110ba57634e487b7160e01b600052603260045260246000fd5b905060200201356001146110e05760405162461bcd60e51b8152600401610821906142ca565b6110eb6002826143f5565b9050610f02565b50611102338c8c8c8c8c8c611d1d565b6011546001600160a01b0316636b20c45433878787876040518663ffffffff1660e01b81526004016111389594939291906140ba565b600060405180830381600087803b15801561115257600080fd5b505af1158015611166573d6000803e3d6000fd5b50505050600190506001600c559a9950505050505050505050565b60606001805461076590614514565b61119b338383612004565b5050565b600b546001600160a01b031633146111c95760405162461bcd60e51b81526004016108219061427a565b600e80546001600160a01b0390921673ffffffffffffffffffffffffffffffffffffffff19928316811790915560118054909216179055565b61120c33836115b2565b6112285760405162461bcd60e51b8152600401610821906142da565b611234848484846120a7565b50505050565b60606112618261ffff166000908152600260205260409020546001600160a01b0316151590565b61127d5760405162461bcd60e51b81526004016108219061429a565b600d546001600160a01b03166112a157505060408051602081019091526000815290565b601054600083815260066020526040908190205490517f5cc518ba0000000000000000000000000000000000000000000000000000000081526001600160a01b0390921691635cc518ba916112fe91869160ff1690600401614366565b60006040518083038186803b15801561131657600080fd5b505afa15801561132a573d6000803e3d6000fd5b505050506040513d6000823e601f3d908101601f1916820160405261135291908101906132e3565b6040516020016113629190613ff9565b60408051601f198184030181529082905261137f9160200161403c565b6040516020818303038152906040529050919050565b600b546001600160a01b031633146113bf5760405162461bcd60e51b81526004016108219061427a565b600f80546001600160a01b0390921673ffffffffffffffffffffffffffffffffffffffff19928316811790915560128054909216179055565b600b546001600160a01b031633146114225760405162461bcd60e51b81526004016108219061427a565b6001600160a01b0381166114485760405162461bcd60e51b81526004016108219061417a565b610c2e81611cbe565b60007fffffffff0000000000000000000000000000000000000000000000000000000082167f80ac58cd0000000000000000000000000000000000000000000000000000000014806114e457507fffffffff0000000000000000000000000000000000000000000000000000000082167f5b5e139f00000000000000000000000000000000000000000000000000000000145b8061075057507f01ffc9a7000000000000000000000000000000000000000000000000000000007fffffffff00000000000000000000000000000000000000000000000000000000831614610750565b61ffff81166000818152600460205260409020805473ffffffffffffffffffffffffffffffffffffffff19166001600160a01b03851690811790915561157982610dd5565b6001600160a01b03167f8c5be1e5ebec7d5bd14f71427d1e84f3dd0314c0f7b2291e5b200ac8c7c3b92560405160405180910390a45050565b61ffff81166000908152600260205260408120546001600160a01b03166115eb5760405162461bcd60e51b8152600401610821906141da565b60006115fa8361ffff16610dd5565b9050806001600160a01b0316846001600160a01b031614806116395750836001600160a01b031661162e8461ffff166107e8565b6001600160a01b0316145b8061166957506001600160a01b0380821660009081526005602090815260408083209388168352929052205460ff165b949350505050565b826001600160a01b03166116888261ffff16610dd5565b6001600160a01b0316146116ae5760405162461bcd60e51b81526004016108219061428a565b6001600160a01b0382166116d45760405162461bcd60e51b8152600401610821906141ba565b6116df8383836120da565b6116ea600082611534565b6001600160a01b038316600090815260036020526040812080546001929061171790849061ffff16614496565b82546101009290920a61ffff8181021990931691831602179091556001600160a01b0384166000908152600360205260408120805460019450909261175e918591166143d1565b82546101009290920a61ffff8181021990931691831602179091558216600081815260026020526040808220805473ffffffffffffffffffffffffffffffffffffffff19166001600160a01b0388811691821790925591519394509092908716917fddf252ad1be2c89b69c2b068fc378daa952ba7f163c4a11628f55a4df523b3ef91a4505050565b6001600160a01b03851661180d5760405162461bcd60e51b81526004016108219061425a565b610100831061182e5760405162461bcd60e51b81526004016108219061424a565b6000848484843334424460405160200161184f989796959493929190613f53565b60405160208183030381529060405280519060200120905061187486868686866128b5565b60005b611882600286614449565b8110156119fa5760006118d287878080601f016020809104026020016040519081016040528093929190818152602001838380828437600092019190915250610b8c92508691506002905061447c565b90506118f98161ffff166000908152600260205260409020546001600160a01b0316151590565b156119165760405162461bcd60e51b81526004016108219061418a565b61ffff81166000908152600260209081526040808320805473ffffffffffffffffffffffffffffffffffffffff19166001600160a01b038d1617905580519182019052908190600490869061196d9291901a61459b565b61197f906103fc600088901a16614408565b60ff90811690915261ffff83166000818152600660205260408082209451855460ff1916941693909317909355905160019590951c9490916001600160a01b038b16917fddf252ad1be2c89b69c2b068fc378daa952ba7f163c4a11628f55a4df523b3ef908290a450806119f28161456e565b915050611877565b506001600160a01b03861660009081526003602052604081208054869290611a2790849061ffff166143d1565b92506101000a81548161ffff021916908361ffff160217905550611a9b600087611a8688888080601f01602080910402602001604051908101604052809392919081815260200183838082843760009201829052509250611abf915050565b60405180602001604052806000815250612b70565b611ab75760405162461bcd60e51b81526004016108219061414a565b505050505050565b6000611acc8260026143f5565b83511015611aec5760405162461bcd60e51b8152600401610821906141aa565b50016002015190565b6060815160001415611b1557505060408051602081019091526000815290565b60006040518060600160405280604081526020016146626040913990506000600384516002611b4491906143f5565b611b4e9190614449565b611b5990600461447c565b90506000611b688260206143f5565b67ffffffffffffffff811115611b8e57634e487b7160e01b600052604160045260246000fd5b6040519080825280601f01601f191660200182016040528015611bb8576020820181803683370190505b509050818152600183018586518101602084015b81831015611c24576003830192508251603f8160121c168501518253600182019150603f81600c1c168501518253600182019150603f8160061c168501518253600182019150603f8116850151825350600101611bcc565b600389510660018114611c3e5760028114611c8857611cb0565b7f3d3d0000000000000000000000000000000000000000000000000000000000007ffffffffffffffffffffffffffffffffffffffffffffffffffffffffffffffffe830152611cb0565b7f3d000000000000000000000000000000000000000000000000000000000000006000198301525b509398975050505050505050565b600b80546001600160a01b0383811673ffffffffffffffffffffffffffffffffffffffff19831681179093556040519116919082907f8be0079c531659141344cd1fd0a4f28419497f9722a3daafe3b4186f6b6457e090600090a35050565b6001600160a01b038716611d435760405162461bcd60e51b81526004016108219061425a565b6102008510611d645760405162461bcd60e51b81526004016108219061424a565b60008282888833344244604051602001611d85989796959493929190613f53565b604051602081830303815290604052805190602001209050611daa88888888886128b5565b60005b611db8600288614449565b811015611f52576000611e0889898080601f016020809104026020016040519081016040528093929190818152602001838380828437600092019190915250610b8c92508691506002905061447c565b9050611e2f8161ffff166000908152600260205260409020546001600160a01b0316151590565b15611e4c5760405162461bcd60e51b81526004016108219061418a565b61ffff8116600090815260026020908152604091829020805473ffffffffffffffffffffffffffffffffffffffff19166001600160a01b038e161790558151908101909152806004878786818110611eb457634e487b7160e01b600052603260045260246000fd5b611ec59392013560f81c905061459b565b611ed7906103fc600088901a16614408565b60ff90811690915261ffff83166000818152600660205260408082209451855460ff1916941693909317909355905160019590951c9490916001600160a01b038d16917fddf252ad1be2c89b69c2b068fc378daa952ba7f163c4a11628f55a4df523b3ef908290a45080611f4a8161456e565b915050611dad565b506001600160a01b03881660009081526003602052604081208054889290611f7f90849061ffff166143d1565b92506101000a81548161ffff021916908361ffff160217905550611fde600089611a868a8a8080601f01602080910402602001604051908101604052809392919081815260200183838082843760009201829052509250611abf915050565b611ffa5760405162461bcd60e51b81526004016108219061414a565b5050505050505050565b816001600160a01b0316836001600160a01b031614156120365760405162461bcd60e51b8152600401610821906141ca565b6001600160a01b0383811660008181526005602090815260408083209487168084529490915290819020805460ff1916851515179055517f17307eab39ab6107e8899845ad3d59bd9653f200f220920489ca2b5937696c319061209a9085906140fb565b60405180910390a3505050565b6120b2848484611671565b6120be84848484612b70565b6112345760405162461bcd60e51b81526004016108219061414a565b6001600160a01b038316612229576000600980546120f790614514565b61ffff8481166000908152600a6020908152604091829020805461ffff19169385169390931790925551919350612138925060099160f086901b9101613fc3565b6040516020818303038152906040526009908051906020019061215c929190612d91565b506001600160a01b0383166000908152600760205260408120805461218090614514565b905060f01b905060088160405160200161219b929190613fc3565b604051602081830303815290604052600890805190602001906121bf929190612d91565b506001600160a01b03841660009081526007602090815260409182902091516121ef929160f087901b9101613fc3565b60408051601f198184030181529181526001600160a01b0386166000908152600760209081529190208251611ab793919290910190612d91565b6001600160a01b0382166125ec5761ffff8082166000908152600a60205260409020546009805491909216916122ec9161226290614514565b80601f016020809104026020016040519081016040528092919081815260200182805461228e90614514565b80156122db5780601f106122b0576101008083540402835291602001916122db565b820191906000526020600020905b8154815290600101906020018083116122be57829003601f168201915b505050505060008361ffff16612cc7565b6123b9600980546122fc90614514565b80601f016020809104026020016040519081016040528092919081815260200182805461232890614514565b80156123755780601f1061234a57610100808354040283529160200191612375565b820191906000526020600020905b81548152906001019060200180831161235857829003601f168201915b505050505083600261238791906143d1565b61ffff1660028561ffff166009805461239f90614514565b6123aa9291506144b9565b6123b491906144b9565b612cc7565b6040516020016123ca929190613fad565b604051602081830303815290604052600990805190602001906123ee929190612d91565b5060006124896008805461240190614514565b80601f016020809104026020016040519081016040528092919081815260200182805461242d90614514565b801561247a5780601f1061244f5761010080835404028352916020019161247a565b820191906000526020600020905b81548152906001019060200180831161245d57829003601f168201915b50505050508361ffff16611abf565b6001600160a01b038616600090815260076020526040902080549192506124b39161226290614514565b6001600160a01b038616600090815260076020526040902080546125a191906124db90614514565b80601f016020809104026020016040519081016040528092919081815260200182805461250790614514565b80156125545780601f1061252957610100808354040283529160200191612554565b820191906000526020600020905b81548152906001019060200180831161253757829003601f168201915b505050505083600261256691906143d1565b61ffff1660028561ffff16600760008c6001600160a01b03166001600160a01b03168152602001908152602001600020805461239f90614514565b6040516020016125b2929190613fad565b60408051601f198184030181529181526001600160a01b0387166000908152600760209081529190208251611ab793919290910190612d91565b816001600160a01b0316836001600160a01b0316146108cb5761ffff8082166000908152600a60205260408120546008805491909316926126309161240190614514565b6001600160a01b0386166000908152600760205260409020805491925061265a9161226290614514565b6001600160a01b0386166000908152600760205260409020805461268291906124db90614514565b604051602001612693929190613fad565b60408051601f198184030181529181526001600160a01b03871660009081526007602090815291902082516126cd93919290910190612d91565b506001600160a01b038416600090815260076020526040812080546126f190614514565b905060f01b905060076000866001600160a01b03166001600160a01b031681526020019081526020016000208460f01b604051602001612732929190613fc3565b60408051601f198184030181529181526001600160a01b038716600090815260076020908152919020825161276c93919290910190612d91565b508060001a60f81b60088461ffff16815461278690614514565b81106127a257634e487b7160e01b600052603260045260246000fd5b8154600116156127c15790600052602060002090602091828204019190065b601f036101000a81548160ff021916907f0100000000000000000000000000000000000000000000000000000000000000840402179055508060016002811061281a57634e487b7160e01b600052603260045260246000fd5b1a60f81b600861282b8560016143d1565b61ffff16815461283a90614514565b811061285657634e487b7160e01b600052603260045260246000fd5b8154600116156128755790600052602060002090602091828204019190065b601f036101000a81548160ff021916907f010000000000000000000000000000000000000000000000000000000000000084040217905550505050505050565b60006128f683838080601f01602080910402602001604051908101604052809392919081815260200183838082843760009201829052509250611abf915050565b90508382146129175760405162461bcd60e51b8152600401610821906142ba565b61292281600261444f565b6001600160a01b0387166000908152600760205260409020805461ffff929092169161294d90614514565b90501461296c5760405162461bcd60e51b81526004016108219061419a565b6008838360405160200161298293929190613fe2565b604051602081830303815290604052600890805190602001906129a6929190612d91565b506001600160a01b03861660009081526007602090815260409182902091516129d492918891889101613fe2565b60408051601f198184030181529181526001600160a01b0388166000908152600760209081529190208251612a0e93919290910190612d91565b50600060098054612a1e90614514565b9050905060005b61ffff8116861115612b3557612a3c600282614429565b612a4690846143d1565b61ffff16612a8e86868080601f016020809104026020016040519081016040528093929190818152602001838380828437600092019190915250505061ffff85169050611abf565b61ffff1614612aaf5760405162461bcd60e51b81526004016108219061415a565b6000612af588888080601f016020809104026020016040519081016040528093929190818152602001838380828437600092019190915250505061ffff85169050611abf565b9050612b0182846143d1565b61ffff9182166000908152600a60205260409020805461ffff191691909216179055612b2e6002826143d1565b9050612a25565b5060098686604051602001612b4c93929190613fe2565b60405160208183030381529060405260099080519060200190611ffa929190612d91565b60006001600160a01b0384163b15612cbc576040517f150b7a020000000000000000000000000000000000000000000000000000000081526001600160a01b0385169063150b7a0290612bcd903390899088908890600401614076565b602060405180830381600087803b158015612be757600080fd5b505af1925050508015612c17575060408051601f3d908101601f19168201909252612c1491810190613159565b60015b612c71573d808015612c45576040519150601f19603f3d011682016040523d82523d6000602084013e612c4a565b606091505b508051612c695760405162461bcd60e51b81526004016108219061414a565b805181602001fd5b7fffffffff00000000000000000000000000000000000000000000000000000000167f150b7a0200000000000000000000000000000000000000000000000000000000149050611669565b506001949350505050565b606081612cd581601f6143f5565b1015612cf35760405162461bcd60e51b8152600401610821906141ea565b612cfd82846143f5565b84511015612d1d5760405162461bcd60e51b8152600401610821906142ea565b606082158015612d3c5760405191506000825260208201604052612d86565b6040519150601f8416801560200281840101858101878315602002848b0101015b81831015612d75578051835260209283019201612d5d565b5050858452601f01601f1916604052505b5090505b9392505050565b828054612d9d90614514565b90600052602060002090601f016020900481019282612dbf5760008555612e05565b82601f10612dd857805160ff1916838001178555612e05565b82800160010185558215612e05579182015b82811115612e05578251825591602001919060010190612dea565b50612e11929150612e15565b5090565b5b80821115612e115760008155600101612e16565b6000612e3d612e38846143a6565b61438f565b905082815260208101848484011115612e5557600080fd5b612e608482856144dc565b509392505050565b6000612e76612e38846143a6565b905082815260208101848484011115612e8e57600080fd5b612e608482856144e8565b80356107508161460e565b80516107508161460e565b60008083601f840112612ec0578182fd5b50813567ffffffffffffffff811115612ed7578182fd5b602083019150836020820283011115612eef57600080fd5b9250929050565b803561075081614622565b80356107508161462a565b80516107508161462a565b60008083601f840112612f28578182fd5b50813567ffffffffffffffff811115612f3f578182fd5b602083019150836001820283011115612eef57600080fd5b600082601f830112612f67578081fd5b8135611669848260208601612e2a565b600082601f830112612f87578081fd5b8151611669848260208601612e68565b803561075081614652565b803561075081614658565b600060208284031215612fbe578081fd5b612d8a83828401612e99565b600060208284031215612fdb578081fd5b612d8a83828401612ea4565b60008060408385031215612ff9578081fd5b61300584828501612e99565b9150602061301585828601612e99565b9150509250929050565b600080600060608486031215613033578081fd5b61303f85828601612e99565b9250602061304f86828701612e99565b925050604061306086828701612f97565b9150509250925092565b6000806000806080858703121561307f578081fd5b61308b86828701612e99565b9350602061309b87828801612e99565b93505060406130ac87828801612f97565b925050606085013567ffffffffffffffff8111156130c8578182fd5b6130d487828801612f57565b91505092959194509250565b600080604083850312156130f2578182fd5b6130fe84838501612e99565b9150602061301585828601612ef6565b60008060408385031215613120578182fd5b61312c84838501612e99565b9150602061301585828601612f97565b60006020828403121561314d578081fd5b612d8a83828401612f01565b60006020828403121561316a578081fd5b612d8a83828401612f0c565b6000806000806040858703121561318b578384fd5b8385013567ffffffffffffffff8111156131a3578485fd5b6131af87828801612f17565b9450945050602085013567ffffffffffffffff8111156131cd578283fd5b6131d987828801612f17565b95989497509550505050565b60008060008060008060008060008060a08b8d031215613203578586fd5b858b013567ffffffffffffffff81111561321b578687fd5b6132278d828e01612f17565b9a509a505060208b013567ffffffffffffffff811115613245578687fd5b6132518d828e01612f17565b985098505060408b013567ffffffffffffffff81111561326f578687fd5b61327b8d828e01612f17565b965096505060608b013567ffffffffffffffff811115613299578485fd5b6132a58d828e01612eaf565b945094505060808b013567ffffffffffffffff8111156132c3578283fd5b6132cf8d828e01612eaf565b92509250509295989b9194979a5092959850565b6000602082840312156132f4578081fd5b8082015167ffffffffffffffff81111561330c578182fd5b61166984828501612f77565b600060208284031215613329578081fd5b612d8a83828401612f97565b60008060408385031215613347578182fd5b61335384838501612f97565b9150602061301585828601612fa2565b61336c816144bf565b82525050565b61336c61337e826144bf565b614589565b81835260208301925060007f07ffffffffffffffffffffffffffffffffffffffffffffffffffffffffffffff8311156133ba578081fd5b6020830292506133cb8385846144dc565b50500190565b80151561336c565b7fffff000000000000000000000000000000000000000000000000000000000000811661336c565b61340c8284836144dc565b500190565b600061341b825190565b8084526020840193506134328185602086016144e8565b601f01601f19169290920192915050565b600061344d825190565b61345b8185602086016144e8565b9290920192915050565b6000815461347281614514565b600182168015613489576001811461349a576134ca565b60ff198316865281860193506134ca565b60008581526020902060005b838110156134c2578154888201526001909101906020016134a6565b505081860193505b50505092915050565b601f8152602081017f456163682072756e6e6572206e6565647320697473206f776e2063616e647900815290505b60200190565b60258152602081017f43616e6479206964732073686f756c642068617665207468652073616d65206c81527f656e677468000000000000000000000000000000000000000000000000000000602082015290505b60400190565b602b8152602081017f455243373231456e756d657261626c653a206f776e657220696e646578206f7581527f74206f6620626f756e64730000000000000000000000000000000000000000006020820152905061355b565b60328152602081017f4552433732313a207472616e7366657220746f206e6f6e20455243373231526581527f63656976657220696d706c656d656e74657200000000000000000000000000006020820152905061355b565b60248152602081017f6f776e6572546f6b656e496e6465786573206d7573742062652061207365717581527f656e6365000000000000000000000000000000000000000000000000000000006020820152905061355b565b601c8152602081017f43616e6479206964732073686f756c64206265207468652073616d650000000081529050613501565b60268152602081017f4f776e61626c653a206e6577206f776e657220697320746865207a65726f206181527f64647265737300000000000000000000000000000000000000000000000000006020820152905061355b565b601c8152602081017f4552433732313a20746f6b656e20616c7265616479206d696e7465640000000081529050613501565b60458152602081017f54686520676976656e206f776e6572546f6b656e496e646578657320646f206e81527f6f742073746172742066726f6d207468652063757272656e74206f776e65722060208201527f636f756e74000000000000000000000000000000000000000000000000000000604082015290505b60600190565b60148152602081017f746f55696e7431365f6f75744f66426f756e647300000000000000000000000081529050613501565b60248152602081017f4552433732313a207472616e7366657220746f20746865207a65726f2061646481527f72657373000000000000000000000000000000000000000000000000000000006020820152905061355b565b60198152602081017f4552433732313a20617070726f766520746f2063616c6c65720000000000000081529050613501565b602c8152602081017f4552433732313a206f70657261746f7220717565727920666f72206e6f6e657881527f697374656e7420746f6b656e00000000000000000000000000000000000000006020820152905061355b565b600e8152602081017f736c6963655f6f766572666c6f7700000000000000000000000000000000000081529050613501565b60318152602081017f596f757220686f6d6520697320746f20736d616c6c20746f2077656c636f6d6581527f20736f206d616e7920647265616d6572730000000000000000000000000000006020820152905061355b565b60388152602081017f4552433732313a20617070726f76652063616c6c6572206973206e6f74206f7781527f6e6572206e6f7220617070726f76656420666f7220616c6c00000000000000006020820152905061355b565b602a8152602081017f4552433732313a2062616c616e636520717565727920666f7220746865207a6581527f726f2061646472657373000000000000000000000000000000000000000000006020820152905061355b565b601d8152602081017f596f75206861766520746f2070617920746865206261696c20626f6e6400000081529050613501565b60298152602081017f4552433732313a206f776e657220717565727920666f72206e6f6e657869737481527f656e7420746f6b656e00000000000000000000000000000000000000000000006020820152905061355b565b60328152602081017f596f752063616e206d696e74206279206261746368657320757020746f20323581527f3620746f6b656e7320617420612074696d6500000000000000000000000000006020820152905061355b565b60208082527f4552433732313a206d696e7420746f20746865207a65726f20616464726573739101908152613501565b602c8152602081017f4552433732313a20617070726f76656420717565727920666f72206e6f6e657881527f697374656e7420746f6b656e00000000000000000000000000000000000000006020820152905061355b565b60208082527f4f776e61626c653a2063616c6c6572206973206e6f7420746865206f776e65729101908152613501565b60298152602081017f4552433732313a207472616e73666572206f6620746f6b656e2074686174206981527f73206e6f74206f776e00000000000000000000000000000000000000000000006020820152905061355b565b602f8152602081017f4552433732314d657461646174613a2055524920717565727920666f72206e6f81527f6e6578697374656e7420746f6b656e00000000000000000000000000000000006020820152905061355b565b60218152602081017f4552433732313a20617070726f76616c20746f2063757272656e74206f776e6581527f72000000000000000000000000000000000000000000000000000000000000006020820152905061355b565b60328152602081017f6f776e6572496e6465786573206d7573742068617665207468652073616d652081527f6c656e67746820617320746f6b656e49647300000000000000000000000000006020820152905061355b565b604f8152602081017f596f75722072756e6e6572206e65656473206f6e6520616e64206f6e6c79206f81527f6e652063616e64792c2077686f206b6e6f7773207768617420636f756c64206860208201527f617070656e206f746865727769736500000000000000000000000000000000006040820152905061379f565b60318152602081017f4552433732313a207472616e736665722063616c6c6572206973206e6f74206f81527f776e6572206e6f7220617070726f7665640000000000000000000000000000006020820152905061355b565b60118152602081017f736c6963655f6f75744f66426f756e647300000000000000000000000000000081529050613501565b602c8152602081017f455243373231456e756d657261626c653a20676c6f62616c20696e646578206f81527f7574206f6620626f756e647300000000000000000000000000000000000000006020820152905061355b565b60148152602081017f5075626c69632073616c65206e6f74206f70656e00000000000000000000000081529050613501565b601f8152602081017f5265656e7472616e637947756172643a207265656e7472616e742063616c6c0081529050613501565b60118152602081017f5769746864726177616c206661696c656400000000000000000000000000000081529050613501565b60378152602081017f596f752063616e6e6f7420676976652063616e6469657320746f20612072756e81527f6e6572207468617420796f7520646f206e6f74206f776e0000000000000000006020820152905061355b565b61336c816144d0565b8061336c565b60ff811661336c565b613f5e81898b613401565b9050613f6b818789613401565b9050613f778186613372565b601401613f848185613f44565b602001613f918184613f44565b602001613f9e8183613f44565b60200198975050505050505050565b613fb78184613443565b9050612d8a8183613443565b613fcd8184613465565b9050613fd981836133d9565b60020192915050565b613fec8185613465565b9050611669818385613401565b6107508183613443565b7f646174613a6170706c69636174696f6e2f6a736f6e3b6261736536342c0000008152601d81015b90506107508183613443565b919050565b7f646174613a6170706c69636174696f6e2f6a736f6e2c0000000000000000000081526016810161402b565b602081016107508284613363565b608081016140848287613363565b6140916020830186613363565b61409e6040830185613f3b565b81810360608301526140b08184613411565b9695505050505050565b606081016140c88288613363565b81810360208301526140db818688613383565b905081810360408301526140f0818486613383565b979650505050505050565b6020810161075082846133d1565b60208082528101612d8a8184613411565b60208082528101610750816134d3565b6020808252810161075081613507565b6020808252810161075081613561565b60208082528101610750816135b9565b6020808252810161075081613611565b6020808252810161075081613669565b602080825281016107508161369b565b60208082528101610750816136f3565b6020808252810161075081613725565b60208082528101610750816137a5565b60208082528101610750816137d7565b602080825281016107508161382f565b6020808252810161075081613861565b60208082528101610750816138b9565b60208082528101610750816138eb565b6020808252810161075081613943565b602080825281016107508161399b565b60208082528101610750816139f3565b6020808252810161075081613a25565b6020808252810161075081613a7d565b6020808252810161075081613ad5565b6020808252810161075081613b05565b6020808252810161075081613b5d565b6020808252810161075081613b8d565b6020808252810161075081613be5565b6020808252810161075081613c3d565b6020808252810161075081613c95565b6020808252810161075081613ced565b6020808252810161075081613d6b565b6020808252810161075081613dc3565b6020808252810161075081613df5565b6020808252810161075081613e4d565b6020808252810161075081613e7f565b6020808252810161075081613eb1565b6020808252810161075081613ee3565b602081016107508284613f3b565b602081016107508284613f44565b604081016143748285613f44565b612d8a6020830184613f4a565b602081016107508284613f4a565b600061439a60405190565b90506140378282614541565b600067ffffffffffffffff8211156143c0576143c06145f8565b601f19601f83011660200192915050565b61ffff8116905061ffff8216915060008261ffff0382111561340c5761340c6145b6565b6000821982111561340c5761340c6145b6565b60ff8116905060ff8216915060008260ff0382111561340c5761340c6145b6565b61ffff9081169082165b9150600082614444576144446145cc565b500490565b81614433565b61ffff8116905061ffff8216915060008161ffff0483118215151615614477576144776145b6565b500290565b6000816000190483118215151615614477576144776145b6565b61ffff9081169082165b91506000828210156144b4576144b46145b6565b500390565b816144a0565b60006001600160a01b038216610750565b600061ffff8216610750565b82818337506000910152565b60005b838110156145035781810151838201526020016144eb565b838111156112345750506000910152565b60028104600182168061452857607f821691505b6020821081141561453b5761453b6145e2565b50919050565b601f19601f830116810181811067ffffffffffffffff82111715614567576145676145f8565b6040525050565b6000600019821415614582576145826145b6565b5060010190565b60006107508260006107508260601b90565b60ff91821691166000826145b1576145b16145cc565b500690565b634e487b7160e01b600052601160045260246000fd5b634e487b7160e01b600052601260045260246000fd5b634e487b7160e01b600052602260045260246000fd5b634e487b7160e01b600052604160045260246000fd5b614617816144bf565b8114610c2e57600080fd5b801515614617565b7fffffffff000000000000000000000000000000000000000000000000000000008116614617565b80614617565b60ff811661461756fe4142434445464748494a4b4c4d4e4f505152535455565758595a6162636465666768696a6b6c6d6e6f707172737475767778797a303132333435363738392b2fa2646970667358221220235cceed0c7beef95d2d593e32d73ae8c5b5d8cac2a8d7bf2f2b7b27b78dc59064736f6c63430008040033",
  "devdoc": {
    "kind": "dev",
    "methods": {
      "approve(address,uint256)": {
        "details": "See {IERC721-approve}."
      },
      "balanceOf(address)": {
        "details": "See {IERC721-balanceOf}."
      },
      "getApproved(uint256)": {
        "details": "See {IERC721-getApproved}."
      },
      "isApprovedForAll(address,address)": {
        "details": "See {IERC721-isApprovedForAll}."
      },
      "name()": {
        "details": "See {IERC721Metadata-name}."
      },
      "owner()": {
        "details": "Returns the address of the current owner."
      },
      "ownerOf(uint256)": {
        "details": "See {IERC721-ownerOf}."
      },
      "renounceOwnership()": {
        "details": "Leaves the contract without owner. It will not be possible to call `onlyOwner` functions anymore. Can only be called by the current owner. NOTE: Renouncing ownership will leave the contract without an owner, thereby removing any functionality that is only available to the owner."
      },
      "safeTransferFrom(address,address,uint256)": {
        "details": "See {IERC721-safeTransferFrom}."
      },
      "safeTransferFrom(address,address,uint256,bytes)": {
        "details": "See {IERC721-safeTransferFrom}."
      },
      "setApprovalForAll(address,bool)": {
        "details": "See {IERC721-setApprovalForAll}."
      },
      "supportsInterface(bytes4)": {
        "details": "See {IERC165-supportsInterface}."
      },
      "symbol()": {
        "details": "See {IERC721Metadata-symbol}."
      },
      "tokenByIndex(uint256)": {
        "details": "See {IERC721Enumerable-tokenByIndex}."
      },
      "tokenOfOwnerByIndex(address,uint256)": {
        "details": "See {IERC721Enumerable-tokenOfOwnerByIndex}."
      },
      "totalSupply()": {
        "details": "See {IERC721Enumerable-totalSupply}."
      },
      "transferFrom(address,address,uint256)": {
        "details": "See {IERC721-transferFrom}."
      },
      "transferOwnership(address)": {
        "details": "Transfers ownership of the contract to a new account (`newOwner`). Can only be called by the current owner."
      }
    },
    "version": 1
  },
  "userdoc": {
    "kind": "user",
    "methods": {},
    "version": 1
  },
  "storageLayout": {
    "storage": [
      {
        "astId": 14231,
        "contract": "contracts/dreamers/ChainDreamers.sol:ChainDreamers",
        "label": "_name",
        "offset": 0,
        "slot": "0",
        "type": "t_string_storage"
      },
      {
        "astId": 14233,
        "contract": "contracts/dreamers/ChainDreamers.sol:ChainDreamers",
        "label": "_symbol",
        "offset": 0,
        "slot": "1",
        "type": "t_string_storage"
      },
      {
        "astId": 14237,
        "contract": "contracts/dreamers/ChainDreamers.sol:ChainDreamers",
        "label": "_owners",
        "offset": 0,
        "slot": "2",
        "type": "t_mapping(t_uint16,t_address)"
      },
      {
        "astId": 14241,
        "contract": "contracts/dreamers/ChainDreamers.sol:ChainDreamers",
        "label": "_balances",
        "offset": 0,
        "slot": "3",
        "type": "t_mapping(t_address,t_uint16)"
      },
      {
        "astId": 14245,
        "contract": "contracts/dreamers/ChainDreamers.sol:ChainDreamers",
        "label": "_tokenApprovals",
        "offset": 0,
        "slot": "4",
        "type": "t_mapping(t_uint16,t_address)"
      },
      {
        "astId": 14251,
        "contract": "contracts/dreamers/ChainDreamers.sol:ChainDreamers",
        "label": "_operatorApprovals",
        "offset": 0,
        "slot": "5",
        "type": "t_mapping(t_address,t_mapping(t_address,t_bool))"
      },
      {
        "astId": 14259,
        "contract": "contracts/dreamers/ChainDreamers.sol:ChainDreamers",
        "label": "dreamers",
        "offset": 0,
        "slot": "6",
        "type": "t_mapping(t_uint256,t_struct(ChainDreamer)14254_storage)"
      },
      {
        "astId": 15368,
        "contract": "contracts/dreamers/ChainDreamers.sol:ChainDreamers",
        "label": "_ownedTokens",
        "offset": 0,
        "slot": "7",
        "type": "t_mapping(t_address,t_bytes_storage)"
      },
      {
        "astId": 15370,
        "contract": "contracts/dreamers/ChainDreamers.sol:ChainDreamers",
        "label": "_ownedTokensIndex",
        "offset": 0,
        "slot": "8",
        "type": "t_bytes_storage"
      },
      {
        "astId": 15372,
        "contract": "contracts/dreamers/ChainDreamers.sol:ChainDreamers",
        "label": "_allTokens",
        "offset": 0,
        "slot": "9",
        "type": "t_bytes_storage"
      },
      {
        "astId": 15376,
        "contract": "contracts/dreamers/ChainDreamers.sol:ChainDreamers",
        "label": "_allTokensIndex",
        "offset": 0,
        "slot": "10",
        "type": "t_mapping(t_uint16,t_uint16)"
      },
      {
        "astId": 225,
        "contract": "contracts/dreamers/ChainDreamers.sol:ChainDreamers",
        "label": "_owner",
        "offset": 0,
        "slot": "11",
        "type": "t_address"
      },
      {
        "astId": 425,
        "contract": "contracts/dreamers/ChainDreamers.sol:ChainDreamers",
        "label": "_status",
        "offset": 0,
        "slot": "12",
        "type": "t_uint256"
      },
      {
        "astId": 4312,
        "contract": "contracts/dreamers/ChainDreamers.sol:ChainDreamers",
        "label": "renderingContractAddress",
        "offset": 0,
        "slot": "13",
        "type": "t_address"
      },
      {
        "astId": 4314,
        "contract": "contracts/dreamers/ChainDreamers.sol:ChainDreamers",
        "label": "candyShopAddress",
        "offset": 0,
        "slot": "14",
        "type": "t_address"
      },
      {
        "astId": 4316,
        "contract": "contracts/dreamers/ChainDreamers.sol:ChainDreamers",
        "label": "chainRunnersAddress",
        "offset": 0,
        "slot": "15",
        "type": "t_address"
      },
      {
        "astId": 4319,
        "contract": "contracts/dreamers/ChainDreamers.sol:ChainDreamers",
        "label": "renderer",
        "offset": 0,
        "slot": "16",
        "type": "t_contract(IDreamersRenderer)7963"
      },
      {
        "astId": 4322,
        "contract": "contracts/dreamers/ChainDreamers.sol:ChainDreamers",
        "label": "candyShop",
        "offset": 0,
        "slot": "17",
        "type": "t_contract(ICandyShop)7913"
      },
      {
        "astId": 4325,
        "contract": "contracts/dreamers/ChainDreamers.sol:ChainDreamers",
        "label": "chainRunners",
        "offset": 0,
        "slot": "18",
        "type": "t_contract(IChainRunners)7930"
      },
      {
        "astId": 4327,
        "contract": "contracts/dreamers/ChainDreamers.sol:ChainDreamers",
        "label": "maxDreamersMintPublicSale",
        "offset": 0,
        "slot": "19",
        "type": "t_uint256"
      },
      {
        "astId": 4332,
        "contract": "contracts/dreamers/ChainDreamers.sol:ChainDreamers",
        "label": "publicSaleStartTimestamp",
        "offset": 0,
        "slot": "20",
        "type": "t_uint256"
      }
    ],
    "types": {
      "t_address": {
        "encoding": "inplace",
        "label": "address",
        "numberOfBytes": "20"
      },
      "t_bool": {
        "encoding": "inplace",
        "label": "bool",
        "numberOfBytes": "1"
      },
      "t_bytes_storage": {
        "encoding": "bytes",
        "label": "bytes",
        "numberOfBytes": "32"
      },
      "t_contract(ICandyShop)7913": {
        "encoding": "inplace",
        "label": "contract ICandyShop",
        "numberOfBytes": "20"
      },
      "t_contract(IChainRunners)7930": {
        "encoding": "inplace",
        "label": "contract IChainRunners",
        "numberOfBytes": "20"
      },
      "t_contract(IDreamersRenderer)7963": {
        "encoding": "inplace",
        "label": "contract IDreamersRenderer",
        "numberOfBytes": "20"
      },
      "t_mapping(t_address,t_bool)": {
        "encoding": "mapping",
        "key": "t_address",
        "label": "mapping(address => bool)",
        "numberOfBytes": "32",
        "value": "t_bool"
      },
      "t_mapping(t_address,t_bytes_storage)": {
        "encoding": "mapping",
        "key": "t_address",
        "label": "mapping(address => bytes)",
        "numberOfBytes": "32",
        "value": "t_bytes_storage"
      },
      "t_mapping(t_address,t_mapping(t_address,t_bool))": {
        "encoding": "mapping",
        "key": "t_address",
        "label": "mapping(address => mapping(address => bool))",
        "numberOfBytes": "32",
        "value": "t_mapping(t_address,t_bool)"
      },
      "t_mapping(t_address,t_uint16)": {
        "encoding": "mapping",
        "key": "t_address",
        "label": "mapping(address => uint16)",
        "numberOfBytes": "32",
        "value": "t_uint16"
      },
      "t_mapping(t_uint16,t_address)": {
        "encoding": "mapping",
        "key": "t_uint16",
        "label": "mapping(uint16 => address)",
        "numberOfBytes": "32",
        "value": "t_address"
      },
      "t_mapping(t_uint16,t_uint16)": {
        "encoding": "mapping",
        "key": "t_uint16",
        "label": "mapping(uint16 => uint16)",
        "numberOfBytes": "32",
        "value": "t_uint16"
      },
      "t_mapping(t_uint256,t_struct(ChainDreamer)14254_storage)": {
        "encoding": "mapping",
        "key": "t_uint256",
        "label": "mapping(uint256 => struct ERC721.ChainDreamer)",
        "numberOfBytes": "32",
        "value": "t_struct(ChainDreamer)14254_storage"
      },
      "t_string_storage": {
        "encoding": "bytes",
        "label": "string",
        "numberOfBytes": "32"
      },
      "t_struct(ChainDreamer)14254_storage": {
        "encoding": "inplace",
        "label": "struct ERC721.ChainDreamer",
        "members": [
          {
            "astId": 14253,
            "contract": "contracts/dreamers/ChainDreamers.sol:ChainDreamers",
            "label": "dna",
            "offset": 0,
            "slot": "0",
            "type": "t_uint8"
          }
        ],
        "numberOfBytes": "32"
      },
      "t_uint16": {
        "encoding": "inplace",
        "label": "uint16",
        "numberOfBytes": "2"
      },
      "t_uint256": {
        "encoding": "inplace",
        "label": "uint256",
        "numberOfBytes": "32"
      },
      "t_uint8": {
        "encoding": "inplace",
        "label": "uint8",
        "numberOfBytes": "1"
      }
    }
  }
}