{
  "address": "0x0f377F2AD760FB57A9DE167cf4d1bC440dD6c1F5",
  "abi": [
    {
      "inputs": [
        {
          "internalType": "string",
          "name": "name_",
          "type": "string"
        },
        {
          "internalType": "string",
          "name": "symbol_",
          "type": "string"
        }
      ],
      "stateMutability": "nonpayable",
      "type": "constructor"
    },
    {
      "anonymous": false,
      "inputs": [
        {
          "indexed": true,
          "internalType": "address",
          "name": "owner",
          "type": "address"
        },
        {
          "indexed": true,
          "internalType": "address",
          "name": "approved",
          "type": "address"
        },
        {
          "indexed": true,
          "internalType": "uint256",
          "name": "tokenId",
          "type": "uint256"
        }
      ],
      "name": "Approval",
      "type": "event"
    },
    {
      "anonymous": false,
      "inputs": [
        {
          "indexed": true,
          "internalType": "address",
          "name": "owner",
          "type": "address"
        },
        {
          "indexed": true,
          "internalType": "address",
          "name": "operator",
          "type": "address"
        },
        {
          "indexed": false,
          "internalType": "bool",
          "name": "approved",
          "type": "bool"
        }
      ],
      "name": "ApprovalForAll",
      "type": "event"
    },
    {
      "anonymous": false,
      "inputs": [
        {
          "indexed": true,
          "internalType": "address",
          "name": "previousOwner",
          "type": "address"
        },
        {
          "indexed": true,
          "internalType": "address",
          "name": "newOwner",
          "type": "address"
        }
      ],
      "name": "OwnershipTransferred",
      "type": "event"
    },
    {
      "anonymous": false,
      "inputs": [
        {
          "indexed": true,
          "internalType": "address",
          "name": "from",
          "type": "address"
        },
        {
          "indexed": true,
          "internalType": "address",
          "name": "to",
          "type": "address"
        },
        {
          "indexed": true,
          "internalType": "uint256",
          "name": "tokenId",
          "type": "uint256"
        }
      ],
      "name": "Transfer",
      "type": "event"
    },
    {
      "inputs": [],
      "name": "MAX_MINT_FOUNDERS",
      "outputs": [
        {
          "internalType": "uint256",
          "name": "",
          "type": "uint256"
        }
      ],
      "stateMutability": "view",
      "type": "function"
    },
    {
      "inputs": [],
      "name": "MAX_NUMBER_OF_TOKENS",
      "outputs": [
        {
          "internalType": "uint16",
          "name": "",
          "type": "uint16"
        }
      ],
      "stateMutability": "view",
      "type": "function"
    },
    {
      "inputs": [],
      "name": "MINT_PUBLIC_PRICE",
      "outputs": [
        {
          "internalType": "uint256",
          "name": "",
          "type": "uint256"
        }
      ],
      "stateMutability": "view",
      "type": "function"
    },
    {
      "inputs": [
        {
          "internalType": "address",
          "name": "to",
          "type": "address"
        },
        {
          "internalType": "uint256",
          "name": "tokenId",
          "type": "uint256"
        }
      ],
      "name": "approve",
      "outputs": [],
      "stateMutability": "nonpayable",
      "type": "function"
    },
    {
      "inputs": [
        {
          "internalType": "address",
          "name": "to",
          "type": "address"
        },
        {
          "internalType": "uint256",
          "name": "tokenId",
          "type": "uint256"
        },
        {
          "internalType": "uint256",
          "name": "tokenIndex",
          "type": "uint256"
        }
      ],
      "name": "approve",
      "outputs": [],
      "stateMutability": "nonpayable",
      "type": "function"
    },
    {
      "inputs": [
        {
          "internalType": "address",
          "name": "owner",
          "type": "address"
        }
      ],
      "name": "balanceOf",
      "outputs": [
        {
          "internalType": "uint256",
          "name": "",
          "type": "uint256"
        }
      ],
      "stateMutability": "view",
      "type": "function"
    },
    {
      "inputs": [],
      "name": "candyShopAddress",
      "outputs": [
        {
          "internalType": "address",
          "name": "",
          "type": "address"
        }
      ],
      "stateMutability": "view",
      "type": "function"
    },
    {
      "inputs": [],
      "name": "chainRunnersAddress",
      "outputs": [
        {
          "internalType": "address",
          "name": "",
          "type": "address"
        }
      ],
      "stateMutability": "view",
      "type": "function"
    },
    {
      "inputs": [
        {
          "internalType": "uint256",
          "name": "",
          "type": "uint256"
        }
      ],
      "name": "dreamersCandies",
      "outputs": [
        {
          "internalType": "uint8",
          "name": "",
          "type": "uint8"
        }
      ],
      "stateMutability": "view",
      "type": "function"
    },
    {
      "inputs": [
        {
          "internalType": "address",
          "name": "proxyAddress",
          "type": "address"
        }
      ],
      "name": "flipProxyState",
      "outputs": [],
      "stateMutability": "nonpayable",
      "type": "function"
    },
    {
      "inputs": [],
      "name": "foundersMinted",
      "outputs": [
        {
          "internalType": "bool",
          "name": "",
          "type": "bool"
        }
      ],
      "stateMutability": "view",
      "type": "function"
    },
    {
      "inputs": [
        {
          "internalType": "uint256",
          "name": "tokenId",
          "type": "uint256"
        }
      ],
      "name": "getApproved",
      "outputs": [
        {
          "internalType": "address",
          "name": "",
          "type": "address"
        }
      ],
      "stateMutability": "view",
      "type": "function"
    },
    {
      "inputs": [
        {
          "internalType": "address",
          "name": "owner",
          "type": "address"
        }
      ],
      "name": "getOwnerIndex",
      "outputs": [
        {
          "internalType": "uint256",
          "name": "",
          "type": "uint256"
        }
      ],
      "stateMutability": "view",
      "type": "function"
    },
    {
      "inputs": [],
      "name": "getTokenExists",
      "outputs": [
        {
          "internalType": "bool[10000]",
          "name": "",
          "type": "bool[10000]"
        }
      ],
      "stateMutability": "view",
      "type": "function"
    },
    {
      "inputs": [
        {
          "internalType": "address",
          "name": "owner",
          "type": "address"
        },
        {
          "internalType": "address",
          "name": "operator",
          "type": "address"
        }
      ],
      "name": "isApprovedForAll",
      "outputs": [
        {
          "internalType": "bool",
          "name": "",
          "type": "bool"
        }
      ],
      "stateMutability": "view",
      "type": "function"
    },
    {
      "inputs": [],
      "name": "isPublicSaleOpen",
      "outputs": [
        {
          "internalType": "bool",
          "name": "",
          "type": "bool"
        }
      ],
      "stateMutability": "view",
      "type": "function"
    },
    {
      "inputs": [],
      "name": "looksrare",
      "outputs": [
        {
          "internalType": "address",
          "name": "",
          "type": "address"
        }
      ],
      "stateMutability": "view",
      "type": "function"
    },
    {
      "inputs": [],
      "name": "marketplacesApproved",
      "outputs": [
        {
          "internalType": "bool",
          "name": "",
          "type": "bool"
        }
      ],
      "stateMutability": "view",
      "type": "function"
    },
    {
      "inputs": [],
      "name": "maxDreamersMintPublicSale",
      "outputs": [
        {
          "internalType": "uint256",
          "name": "",
          "type": "uint256"
        }
      ],
      "stateMutability": "view",
      "type": "function"
    },
    {
      "inputs": [
        {
          "internalType": "bytes",
          "name": "tokenIds",
          "type": "bytes"
        }
      ],
      "name": "mintBatchFounders",
      "outputs": [
        {
          "internalType": "bool",
          "name": "",
          "type": "bool"
        }
      ],
      "stateMutability": "nonpayable",
      "type": "function"
    },
    {
      "inputs": [
        {
          "internalType": "bytes",
          "name": "tokenIds",
          "type": "bytes"
        }
      ],
      "name": "mintBatchPublicSale",
      "outputs": [
        {
          "internalType": "bool",
          "name": "",
          "type": "bool"
        }
      ],
      "stateMutability": "payable",
      "type": "function"
    },
    {
      "inputs": [
        {
          "internalType": "bytes",
          "name": "tokenIds",
          "type": "bytes"
        },
        {
          "internalType": "uint256[]",
          "name": "candyIds",
          "type": "uint256[]"
        },
        {
          "internalType": "uint256[]",
          "name": "candyAmounts",
          "type": "uint256[]"
        }
      ],
      "name": "mintBatchRunnersAccess",
      "outputs": [
        {
          "internalType": "bool",
          "name": "",
          "type": "bool"
        }
      ],
      "stateMutability": "nonpayable",
      "type": "function"
    },
    {
      "inputs": [],
      "name": "name",
      "outputs": [
        {
          "internalType": "string",
          "name": "",
          "type": "string"
        }
      ],
      "stateMutability": "view",
      "type": "function"
    },
    {
      "inputs": [],
      "name": "opensea",
      "outputs": [
        {
          "internalType": "address",
          "name": "",
          "type": "address"
        }
      ],
      "stateMutability": "view",
      "type": "function"
    },
    {
      "inputs": [],
      "name": "owner",
      "outputs": [
        {
          "internalType": "address",
          "name": "",
          "type": "address"
        }
      ],
      "stateMutability": "view",
      "type": "function"
    },
    {
      "inputs": [
        {
          "internalType": "uint256",
          "name": "tokenId",
          "type": "uint256"
        }
      ],
      "name": "ownerOf",
      "outputs": [
        {
          "internalType": "address",
          "name": "",
          "type": "address"
        }
      ],
      "stateMutability": "view",
      "type": "function"
    },
    {
      "inputs": [],
      "name": "publicSaleStartTimestamp",
      "outputs": [
        {
          "internalType": "uint256",
          "name": "",
          "type": "uint256"
        }
      ],
      "stateMutability": "view",
      "type": "function"
    },
    {
      "inputs": [],
      "name": "renderingContractAddress",
      "outputs": [
        {
          "internalType": "address",
          "name": "",
          "type": "address"
        }
      ],
      "stateMutability": "view",
      "type": "function"
    },
    {
      "inputs": [],
      "name": "renounceOwnership",
      "outputs": [],
      "stateMutability": "nonpayable",
      "type": "function"
    },
    {
      "inputs": [
        {
          "internalType": "address",
          "name": "from",
          "type": "address"
        },
        {
          "internalType": "address",
          "name": "to",
          "type": "address"
        },
        {
          "internalType": "uint256",
          "name": "tokenId",
          "type": "uint256"
        }
      ],
      "name": "safeTransferFrom",
      "outputs": [],
      "stateMutability": "nonpayable",
      "type": "function"
    },
    {
      "inputs": [
        {
          "internalType": "address",
          "name": "from",
          "type": "address"
        },
        {
          "internalType": "uint256",
          "name": "fromIndex",
          "type": "uint256"
        },
        {
          "internalType": "address",
          "name": "to",
          "type": "address"
        },
        {
          "internalType": "uint256",
          "name": "tokenIndex",
          "type": "uint256"
        }
      ],
      "name": "safeTransferFrom",
      "outputs": [],
      "stateMutability": "nonpayable",
      "type": "function"
    },
    {
      "inputs": [
        {
          "internalType": "address",
          "name": "from",
          "type": "address"
        },
        {
          "internalType": "address",
          "name": "to",
          "type": "address"
        },
        {
          "internalType": "uint256",
          "name": "tokenId",
          "type": "uint256"
        },
        {
          "internalType": "bytes",
          "name": "data",
          "type": "bytes"
        }
      ],
      "name": "safeTransferFrom",
      "outputs": [],
      "stateMutability": "nonpayable",
      "type": "function"
    },
    {
      "inputs": [
        {
          "internalType": "address",
          "name": "operator",
          "type": "address"
        },
        {
          "internalType": "bool",
          "name": "_approved",
          "type": "bool"
        }
      ],
      "name": "setApprovalForAll",
      "outputs": [],
      "stateMutability": "nonpayable",
      "type": "function"
    },
    {
      "inputs": [
        {
          "internalType": "address",
          "name": "_candyShopContractAddress",
          "type": "address"
        }
      ],
      "name": "setCandyShopAddress",
      "outputs": [],
      "stateMutability": "nonpayable",
      "type": "function"
    },
    {
      "inputs": [
        {
          "internalType": "address",
          "name": "_chainRunnersContractAddress",
          "type": "address"
        }
      ],
      "name": "setChainRunnersContractAddress",
      "outputs": [],
      "stateMutability": "nonpayable",
      "type": "function"
    },
    {
      "inputs": [
        {
          "internalType": "address",
          "name": "looksrare_",
          "type": "address"
        }
      ],
      "name": "setLooksrare",
      "outputs": [],
      "stateMutability": "nonpayable",
      "type": "function"
    },
    {
      "inputs": [
        {
          "internalType": "uint256",
          "name": "_maxDreamersMintPublicSale",
          "type": "uint256"
        }
      ],
      "name": "setMaxDreamersMintPublicSale",
      "outputs": [],
      "stateMutability": "nonpayable",
      "type": "function"
    },
    {
      "inputs": [
        {
          "internalType": "address",
          "name": "opensea_",
          "type": "address"
        }
      ],
      "name": "setOpensea",
      "outputs": [],
      "stateMutability": "nonpayable",
      "type": "function"
    },
    {
      "inputs": [
        {
          "internalType": "uint256",
          "name": "timestamp",
          "type": "uint256"
        }
      ],
      "name": "setPublicSaleTimestamp",
      "outputs": [],
      "stateMutability": "nonpayable",
      "type": "function"
    },
    {
      "inputs": [
        {
          "internalType": "address",
          "name": "_renderingContractAddress",
          "type": "address"
        }
      ],
      "name": "setRenderingContractAddress",
      "outputs": [],
      "stateMutability": "nonpayable",
      "type": "function"
    },
    {
      "inputs": [
        {
          "internalType": "bytes4",
          "name": "interfaceId",
          "type": "bytes4"
        }
      ],
      "name": "supportsInterface",
      "outputs": [
        {
          "internalType": "bool",
          "name": "",
          "type": "bool"
        }
      ],
      "stateMutability": "view",
      "type": "function"
    },
    {
      "inputs": [],
      "name": "symbol",
      "outputs": [
        {
          "internalType": "string",
          "name": "",
          "type": "string"
        }
      ],
      "stateMutability": "view",
      "type": "function"
    },
    {
      "inputs": [],
      "name": "toggleMarketplacesApproved",
      "outputs": [],
      "stateMutability": "nonpayable",
      "type": "function"
    },
    {
      "inputs": [
        {
          "internalType": "uint256",
          "name": "index",
          "type": "uint256"
        }
      ],
      "name": "tokenByIndex",
      "outputs": [
        {
          "internalType": "uint256",
          "name": "",
          "type": "uint256"
        }
      ],
      "stateMutability": "view",
      "type": "function"
    },
    {
      "inputs": [
        {
          "internalType": "address",
          "name": "owner",
          "type": "address"
        },
        {
          "internalType": "uint256",
          "name": "index",
          "type": "uint256"
        }
      ],
      "name": "tokenOfOwnerByIndex",
      "outputs": [
        {
          "internalType": "uint256",
          "name": "tokenId",
          "type": "uint256"
        }
      ],
      "stateMutability": "view",
      "type": "function"
    },
    {
      "inputs": [
        {
          "internalType": "uint256",
          "name": "_tokenId",
          "type": "uint256"
        }
      ],
      "name": "tokenURI",
      "outputs": [
        {
          "internalType": "string",
          "name": "",
          "type": "string"
        }
      ],
      "stateMutability": "view",
      "type": "function"
    },
    {
      "inputs": [],
      "name": "totalSupply",
      "outputs": [
        {
          "internalType": "uint256",
          "name": "",
          "type": "uint256"
        }
      ],
      "stateMutability": "view",
      "type": "function"
    },
    {
      "inputs": [
        {
          "internalType": "address",
          "name": "from",
          "type": "address"
        },
        {
          "internalType": "address",
          "name": "to",
          "type": "address"
        },
        {
          "internalType": "uint256",
          "name": "tokenId",
          "type": "uint256"
        }
      ],
      "name": "transferFrom",
      "outputs": [],
      "stateMutability": "nonpayable",
      "type": "function"
    },
    {
      "inputs": [
        {
          "internalType": "address",
          "name": "newOwner",
          "type": "address"
        }
      ],
      "name": "transferOwnership",
      "outputs": [],
      "stateMutability": "nonpayable",
      "type": "function"
    },
    {
      "inputs": [],
      "name": "withdraw",
      "outputs": [],
      "stateMutability": "nonpayable",
      "type": "function"
    },
    {
      "stateMutability": "payable",
      "type": "receive"
    }
  ],
  "transactionHash": "0x229ac32193587f04a01794746882a0b71d36d948925af5002f0eb678c3055e23",
  "args": [
    "Chain Dreamers",
    "DRE"
  ],
  "numDeployments": 7,
  "solcInputHash": "5fb7fb77c14695dc08359df180d1e1b0",
  "bytecode": "0x6080604052610280805460ff60a01b1916600160a01b179055610283805460ff191690553480156200003057600080fd5b5060405162005685380380620056858339810160408190526200005391620002e9565b8151829082906200006d9061013c90602085019062000106565b508051620000849061013d90602084019062000106565b505050620000a16200009b620000af60201b60201c565b620000b3565b5050600161013f55620003ac565b3390565b61013e80546001600160a01b038381166001600160a01b0319831681179093556040519116919082907f8be0079c531659141344cd1fd0a4f28419497f9722a3daafe3b4186f6b6457e090600090a35050565b82805462000114906200037b565b90600052602060002090601f01602090048101928262000138576000855562000183565b82601f106200015357805160ff191683800117855562000183565b8280016001018555821562000183579182015b828111156200018357825182559160200191906001019062000166565b506200019192915062000195565b5090565b5b8082111562000191576000815560010162000196565b634e487b7160e01b600052604160045260246000fd5b601f19601f83011681016001600160401b0381118282101715620001ea57620001ea620001ac565b6040525050565b6000620001fd60405190565b90506200020b8282620001c2565b919050565b60006001600160401b038211156200022c576200022c620001ac565b601f19601f83011660200192915050565b60005b838110156200025a57818101518382015260200162000240565b838111156200026a576000848401525b50505050565b600062000287620002818462000210565b620001f1565b905082815260208101848484011115620002a457620002a4600080fd5b620002b18482856200023d565b509392505050565b600082601f830112620002cf57620002cf600080fd5b8151620002e184826020860162000270565b949350505050565b60008060408385031215620003015762000301600080fd5b82516001600160401b038111156200031c576200031c600080fd5b6200032a85828601620002b9565b602085015190935090506001600160401b038111156200034d576200034d600080fd5b6200035b85828601620002b9565b9150509250929050565b634e487b7160e01b600052602260045260246000fd5b6002810460018216806200039057607f821691505b60208210811415620003a657620003a662000365565b50919050565b6152c980620003bc6000396000f3fe60806040526004361061032d5760003560e01c806370a08231116101a5578063b776c8a6116100ec578063d7822c9911610095578063f2fde38b1161006f578063f2fde38b146108ec578063f4b994241461090c578063f73c814b1461091f578063fac913231461093f57600080fd5b8063d7822c991461089a578063e985e9c5146108b1578063f0658ac9146108d157600080fd5b8063c87b56dd116100c6578063c87b56dd1461083a578063cb95f0691461085a578063d3d6005b1461087a57600080fd5b8063b776c8a6146107d9578063b88d4fde146107f9578063c074f4121461081957600080fd5b806395d89b411161014e578063a22cb46511610128578063a22cb46514610778578063a8e90b5714610798578063b5fcb339146107b957600080fd5b806395d89b41146107265780639913fc631461073b5780639c51792a1461075d57600080fd5b806389c8af831161017f57806389c8af83146106c75780638da5cb5b146106e75780639343eaa61461070657600080fd5b806370a0823114610671578063715018a6146106915780638392d804146106a657600080fd5b806323b872dd1161027457806342842e0e1161021d578063511ed382116101f7578063511ed382146105ec578063633574db1461060d5780636352211e1461063a5780636b318e6e1461065a57600080fd5b806342842e0e1461058c5780634f6ccce7146105ac578063511a9605146105cc57600080fd5b806333c12e171161024e57806333c12e17146105425780633ccfd60b14610557578063426a84931461056c57600080fd5b806323b872dd146104e257806325174f0e146105025780632f745c591461052257600080fd5b80630d77c756116102d65780631a6949e3116102b05780631a6949e3146104985780631e8858fb146104ad57806322afee07146104cd57600080fd5b80630d77c7561461043657806312b40a9f1461045657806318160ddd1461047657600080fd5b806306fdde031161030757806306fdde03146103c5578063081812fc146103e7578063095ea7b31461041457600080fd5b806301ffc9a7146103395780630216e3041461036f578063026ae1021461039257600080fd5b3661033457005b600080fd5b34801561034557600080fd5b5061035961035436600461398f565b610960565b60405161036691906139ba565b60405180910390f35b34801561037b57600080fd5b5061038561271081565b60405161036691906139d2565b34801561039e57600080fd5b50610280546103599074010000000000000000000000000000000000000000900460ff1681565b3480156103d157600080fd5b506103da6109bc565b6040516103669190613a3e565b3480156103f357600080fd5b50610407610402366004613a60565b610a4f565b6040516103669190613a9b565b34801561042057600080fd5b5061043461042f366004613abd565b610aa0565b005b34801561044257600080fd5b50610434610451366004613a60565b610b91565b34801561046257600080fd5b50610434610471366004613afa565b610bc2565b34801561048257600080fd5b5061048b610c28565b6040516103669190613b21565b3480156104a457600080fd5b50610359610c70565b3480156104b957600080fd5b506104346104c8366004613afa565b610c8b565b3480156104d957600080fd5b5061048b603281565b3480156104ee57600080fd5b506104346104fd366004613b2f565b610ce6565b34801561050e57600080fd5b5061048b61051d366004613afa565b611031565b34801561052e57600080fd5b5061048b61053d366004613abd565b6110b0565b34801561054e57600080fd5b506104346111c0565b34801561056357600080fd5b50610434611239565b34801561057857600080fd5b50610434610587366004613b7f565b6112cf565b34801561059857600080fd5b506104346105a7366004613b2f565b6113f2565b3480156105b857600080fd5b5061048b6105c7366004613a60565b611412565b3480156105d857600080fd5b506104346105e7366004613a60565b6115cd565b3480156105f857600080fd5b5061027f54610407906001600160a01b031681565b34801561061957600080fd5b5061062d610628366004613a60565b6115fe565b6040516103669190613bbd565b34801561064657600080fd5b50610407610655366004613a60565b61162a565b34801561066657600080fd5b5061048b6102825481565b34801561067d57600080fd5b5061048b61068c366004613afa565b61165a565b34801561069d57600080fd5b5061043461168c565b3480156106b257600080fd5b5061014254610407906001600160a01b031681565b3480156106d357600080fd5b506104346106e2366004613bcb565b6116c3565b3480156106f357600080fd5b5061013e546001600160a01b0316610407565b34801561071257600080fd5b50610359610721366004613c81565b611851565b34801561073257600080fd5b506103da611a83565b34801561074757600080fd5b50610750611a93565b6040516103669190613d13565b34801561076957600080fd5b5061048b66b1a2bc2ec5000081565b34801561078457600080fd5b50610434610793366004613d36565b611af0565b3480156107a457600080fd5b5061028054610407906001600160a01b031681565b3480156107c557600080fd5b506104346107d4366004613afa565b611c7e565b3480156107e557600080fd5b506104346107f4366004613afa565b611ce4565b34801561080557600080fd5b50610434610814366004613e64565b611d3f565b34801561082557600080fd5b5061014054610407906001600160a01b031681565b34801561084657600080fd5b506103da610855366004613a60565b611f90565b34801561086657600080fd5b50610359610875366004613f22565b61208f565b34801561088657600080fd5b50610434610895366004613afa565b6123d4565b3480156108a657600080fd5b5061048b6102845481565b3480156108bd57600080fd5b506103596108cc366004613fcf565b61243a565b3480156108dd57600080fd5b50610283546103599060ff1681565b3480156108f857600080fd5b50610434610907366004613afa565b61256c565b61035961091a366004613c81565b6125c6565b34801561092b57600080fd5b5061043461093a366004613afa565b61279c565b34801561094b57600080fd5b5061014154610407906001600160a01b031681565b60007fffffffff0000000000000000000000000000000000000000000000000000000082167f780e9d630000000000000000000000000000000000000000000000000000000014806109b657506109b6826127f1565b92915050565b606061013c80546109cc90614018565b80601f01602080910402602001604051908101604052809291908181526020018280546109f890614018565b8015610a455780601f10610a1a57610100808354040283529160200191610a45565b820191906000526020600020905b815481529060010190602001808311610a2857829003601f168201915b5050505050905090565b6000610a5a826128d4565b610a7f5760405162461bcd60e51b8152600401610a7690614071565b60405180910390fd5b5061ffff16600090815261013b60205260409020546001600160a01b031690565b6000610aab82612906565b90506001600160a01b038116610ad35760405162461bcd60e51b8152600401610a76906140db565b61ffff8216600090815261013b60205260409020546001600160a01b0316331480610b0657506001600160a01b03811633145b610b225760405162461bcd60e51b8152600401610a769061416b565b61ffff8216600090815261013b6020526040808220805473ffffffffffffffffffffffffffffffffffffffff19166001600160a01b0387811691821790925591518593918516917f8c5be1e5ebec7d5bd14f71427d1e84f3dd0314c0f7b2291e5b200ac8c7c3b92591a4505050565b61013e546001600160a01b03163314610bbc5760405162461bcd60e51b8152600401610a76906141ab565b61028255565b61013e546001600160a01b03163314610bed5760405162461bcd60e51b8152600401610a76906141ab565b61014080546001600160a01b0390921673ffffffffffffffffffffffffffffffffffffffff1992831681179091556101438054909216179055565b600080805b60018054610c3a90614018565b9050811015610c6a57610c4c816129e1565b610c5690836141d1565b9150610c636014826141d1565b9050610c2d565b50919050565b60006102845442118015610c8657506102845415155b905090565b61013e546001600160a01b03163314610cb65760405162461bcd60e51b8152600401610a76906141ab565b610280805473ffffffffffffffffffffffffffffffffffffffff19166001600160a01b0392909216919091179055565b6001600160a01b038316610d0c5760405162461bcd60e51b8152600401610a7690614241565b6001600160a01b038216610d325760405162461bcd60e51b8152600401610a76906142a9565b61ffff8116600090815261013b60205260409020546001600160a01b0316331480610d6557506001600160a01b03831633145b610d815760405162461bcd60e51b8152600401610a7690614311565b60005b6001600160a01b038416600090815260208190526040902080548391610e3191610dad90614018565b80601f0160208091040260200160405190810160405280929190818152602001828054610dd990614018565b8015610e265780601f10610dfb57610100808354040283529160200191610e26565b820191906000526020600020905b815481529060010190602001808311610e0957829003601f168201915b505050505083612aa7565b61ffff1614158015610e6657506001600160a01b03841660009081526020819052604090208054610e6190614018565b905081105b15610e7d57610e766002826141d1565b9050610d84565b6001600160a01b03841660009081526020819052604090208054610ea090614018565b90508110610ec05760405162461bcd60e51b8152600401610a7690614379565b60005b60018054610ed090614018565b9050811015610f9d57846001600160a01b0316610f7760018054610ef390614018565b80601f0160208091040260200160405190810160405280929190818152602001828054610f1f90614018565b8015610f6c5780601f10610f4157610100808354040283529160200191610f6c565b820191906000526020600020905b815481529060010190602001808311610f4f57829003601f168201915b505050505083612add565b6001600160a01b03161415610f8b57610f9d565b610f966014826141d1565b9050610ec3565b846001600160a01b0316610fb760018054610ef390614018565b6001600160a01b031614610fdd5760405162461bcd60e51b8152600401610a76906143e1565b610fe985828685612b23565b82846001600160a01b0316866001600160a01b03167fddf252ad1be2c89b69c2b068fc378daa952ba7f163c4a11628f55a4df523b3ef60405160405180910390a45050505050565b6000805b6001805461104290614018565b905081101561109857826001600160a01b031661106560018054610ef390614018565b6001600160a01b031614156110865761107f601482614407565b9392505050565b6110916014826141d1565b9050611035565b60405162461bcd60e51b8152600401610a769061444d565b6001600160a01b038216600090815260208190526040812080546110d390614018565b90506110e083600261445d565b106110fd5760405162461bcd60e51b8152600401610a76906144d4565b6001600160a01b038316600090815260208190526040902080546111b5919061112590614018565b80601f016020809104026020016040519081016040528092919081815260200182805461115190614018565b801561119e5780601f106111735761010080835404028352916020019161119e565b820191906000526020600020905b81548152906001019060200180831161118157829003601f168201915b50505050508360026111b0919061445d565b612aa7565b61ffff169392505050565b61013e546001600160a01b031633146111eb5760405162461bcd60e51b8152600401610a76906141ab565b61028080547fffffffffffffffffffffff00ffffffffffffffffffffffffffffffffffffffff8116740100000000000000000000000000000000000000009182900460ff1615909102179055565b61013e546001600160a01b031633146112645760405162461bcd60e51b8152600401610a76906141ab565b604051600090339047908381818185875af1925050503d80600081146112a6576040519150601f19603f3d011682016040523d82523d6000602084013e6112ab565b606091505b50509050806112cc5760405162461bcd60e51b8152600401610a7690614516565b50565b61ffff8216600090815261013b60205260409020546001600160a01b031633146113b157336000908152602081905260409020805461130d90614018565b905061131a82600261445d565b106113375760405162461bcd60e51b8152600401610a7690614556565b336000908152602081905260409020805483916113579161112590614018565b61ffff16146113785760405162461bcd60e51b8152600401610a76906145be565b60405182906001600160a01b0385169033907f8c5be1e5ebec7d5bd14f71427d1e84f3dd0314c0f7b2291e5b200ac8c7c3b92590600090a45b5061ffff16600090815261013b60205260409020805473ffffffffffffffffffffffffffffffffffffffff19166001600160a01b0392909216919091179055565b61140d83838360405180602001604052806000815250611d3f565b505050565b600080805b83811161144557611427826129e1565b61143190826141d1565b905061143e6014836141d1565b9150611417565b6114506014836145ce565b915061145b826129e1565b61146590826145ce565b90506115c16000806115016001805461147d90614018565b80601f01602080910402602001604051908101604052809291908181526020018280546114a990614018565b80156114f65780601f106114cb576101008083540402835291602001916114f6565b820191906000526020600020905b8154815290600101906020018083116114d957829003601f168201915b505050505086612add565b6001600160a01b03166001600160a01b03168152602001908152602001600020805461152c90614018565b80601f016020809104026020016040519081016040528092919081815260200182805461155890614018565b80156115a55780601f1061157a576101008083540402835291602001916115a5565b820191906000526020600020905b81548152906001019060200180831161158857829003601f168201915b505050505082866115b691906145ce565b6111b090600261445d565b61ffff16949350505050565b61013e546001600160a01b031633146115f85760405162461bcd60e51b8152600401610a76906141ab565b61028455565b61014681612710811061161057600080fd5b60209182820401919006915054906101000a900460ff1681565b6000611635826128d4565b6116515760405162461bcd60e51b8152600401610a769061463d565b6109b682612906565b6001600160a01b038116600090815260208190526040812080546002919061168190614018565b6109b6929150614407565b61013e546001600160a01b031633146116b75760405162461bcd60e51b8152600401610a76906141ab565b6116c160006131b3565b565b6001600160a01b0384166116e95760405162461bcd60e51b8152600401610a7690614241565b6001600160a01b03821661170f5760405162461bcd60e51b8152600401610a76906142a9565b6001600160a01b038416600090815260208190526040902080546002919061173690614018565b611741929150614407565b811061175f5760405162461bcd60e51b8152600401610a7690614556565b6001600160a01b03841660009081526020819052604081208054611787919061112590614018565b61ffff8116600090815261013b60205260409020549091506001600160a01b03163314806117bd57506001600160a01b03851633145b6117d95760405162461bcd60e51b8152600401610a76906145be565b6117e585858585612b23565b61180485848361ffff1660405180602001604052806000815250613213565b508061ffff16836001600160a01b0316866001600160a01b03167fddf252ad1be2c89b69c2b068fc378daa952ba7f163c4a11628f55a4df523b3ef60405160405180910390a45050505050565b6000600261013f5414156118775760405162461bcd60e51b8152600401610a769061467f565b600261013f5561013e546001600160a01b031633146118a85760405162461bcd60e51b8152600401610a76906141ab565b6118b0610c70565b6118cc5760405162461bcd60e51b8152600401610a76906146c1565b6102835460ff16156118f05760405162461bcd60e51b8152600401610a7690614703565b6118fc6032600261445d565b82111561191b5760405162461bcd60e51b8152600401610a769061476b565b611927335b848461336b565b600083833342446040516020016119429594939291906147b1565b60405160208183030381529060405280519060200120905060005b611968600285614407565b811015611a625760006119b886868080601f0160208091040260200160405190810160405280939291908181526020018383808284376000920191909152506111b092508691506002905061445d565b9050826119c66020846147ee565b602081106119d6576119d6614806565b1a61014661ffff831661271081106119f0576119f0614806565b602091828204019190066101000a81548160ff021916908360ff160217905550602082611a1d91906147ee565b601f1415611a4f5782604051602001611a36919061481c565b6040516020818303038152906040528051906020012092505b5080611a5a8161482e565b91505061195d565b5050610283805460ff191660019081179091559050600161013f5592915050565b606061013d80546109cc90614018565b611a9b613865565b604080516204e2008101918290529060029061271090826000855b825461010083900a900460ff161515815260206001928301818104948501949093039092029101808411611ab65790505050505050905090565b6001600160a01b038216331415611b195760405162461bcd60e51b8152600401610a76906148a1565b3360009081526020819052604081208054611b3390614018565b80601f0160208091040260200160405190810160405280929190818152602001828054611b5f90614018565b8015611bac5780601f10611b8157610100808354040283529160200191611bac565b820191906000526020600020905b815481529060010190602001808311611b8f57829003601f168201915b5050505050905060005b8151811015611c2d5782611bcb576000611bcd565b835b61013b6000611bdc8585612aa7565b61ffff1681526020810191909152604001600020805473ffffffffffffffffffffffffffffffffffffffff19166001600160a01b0392909216919091179055611c266002826141d1565b9050611bb6565b50826001600160a01b0316336001600160a01b03167f17307eab39ab6107e8899845ad3d59bd9653f200f220920489ca2b5937696c3184604051611c7191906139ba565b60405180910390a3505050565b61013e546001600160a01b03163314611ca95760405162461bcd60e51b8152600401610a76906141ab565b61014180546001600160a01b0390921673ffffffffffffffffffffffffffffffffffffffff1992831681179091556101448054909216179055565b61013e546001600160a01b03163314611d0f5760405162461bcd60e51b8152600401610a76906141ab565b61027f805473ffffffffffffffffffffffffffffffffffffffff19166001600160a01b0392909216919091179055565b6001600160a01b038416611d655760405162461bcd60e51b8152600401610a7690614241565b6001600160a01b038316611d8b5760405162461bcd60e51b8152600401610a76906142a9565b61ffff8216600090815261013b60205260409020546001600160a01b0316331480611dbe57506001600160a01b03841633145b611dda5760405162461bcd60e51b8152600401610a7690614311565b60005b6001600160a01b038516600090815260208190526040902080548491611e0691610dad90614018565b61ffff1614158015611e3b57506001600160a01b03851660009081526020819052604090208054611e3690614018565b905081105b15611e5257611e4b6002826141d1565b9050611ddd565b6001600160a01b03851660009081526020819052604090208054611e7590614018565b90508110611e955760405162461bcd60e51b8152600401610a7690614379565b60005b60018054611ea590614018565b9050811015611eee57856001600160a01b0316611ec860018054610ef390614018565b6001600160a01b03161415611edc57611eee565b611ee76014826141d1565b9050611e98565b856001600160a01b0316611f0860018054610ef390614018565b6001600160a01b031614611f2e5760405162461bcd60e51b8152600401610a76906143e1565b611f3a86828785612b23565b611f4686868686613213565b5083856001600160a01b0316876001600160a01b03167fddf252ad1be2c89b69c2b068fc378daa952ba7f163c4a11628f55a4df523b3ef60405160405180910390a4505050505050565b6060611f9f8261ffff166128d4565b611fbb5760405162461bcd60e51b8152600401610a7690614909565b610140546001600160a01b0316611fe057505060408051602081019091526000815290565b610143546001600160a01b0316635cc518ba8361014681612710811061200857612008614806565b602091828204019190069054906101000a900460ff166040518363ffffffff1660e01b815260040161203b929190614919565b60006040518083038186803b15801561205357600080fd5b505afa158015612067573d6000803e3d6000fd5b505050506040513d6000823e601f3d908101601f191682016040526109b6919081019061498c565b6000600261013f5414156120b55760405162461bcd60e51b8152600401610a769061467f565b600261013f8190556120c890859061445d565b86146120e65760405162461bcd60e51b8152600401610a7690614a1f565b6120f133888861336b565b6000878733888842446040516020016121109796959493929190614a7c565b60405160208183030381529060405280519060200120905060005b8581101561235557600061217c8a8a8080601f0160208091040260200160405190810160405280939291908181526020018383808284376000920191909152506111b092508691506002905061445d565b610145546040517f6352211e00000000000000000000000000000000000000000000000000000000815291925033916001600160a01b0390911690636352211e906121cb908590600401614ae1565b60206040518083038186803b1580156121e357600080fd5b505afa1580156121f7573d6000803e3d6000fd5b505050506040513d601f19601f8201168201806040525081019061221b9190614afa565b6001600160a01b0316146122415760405162461bcd60e51b8152600401610a7690614b73565b85858381811061225357612253614806565b905060200201356001146122795760405162461bcd60e51b8152600401610a7690614c01565b600488888481811061228d5761228d614806565b9050602002013561229e9190614c11565b60fc846122ac6020866147ee565b602081106122bc576122bc614806565b6122ca939291901a16614c1e565b6101468261ffff1661271081106122e3576122e3614806565b602091828204019190066101000a81548160ff021916908360ff16021790555060208261231091906147ee565b601f14156123425782604051602001612329919061481c565b6040516020818303038152906040528051906020012092505b508061234d8161482e565b91505061212b565b50610144546001600160a01b0316636b20c45433888888886040518663ffffffff1660e01b815260040161238d959493929190614c4b565b600060405180830381600087803b1580156123a757600080fd5b505af11580156123bb573d6000803e3d6000fd5b505050506001915050600161013f559695505050505050565b61013e546001600160a01b031633146123ff5760405162461bcd60e51b8152600401610a76906141ab565b61014280546001600160a01b0390921673ffffffffffffffffffffffffffffffffffffffff1992831681179091556101458054909216179055565b6102805460009074010000000000000000000000000000000000000000900460ff166124715761246a83836133da565b90506109b6565b61027f546040517fc45527910000000000000000000000000000000000000000000000000000000081526001600160a01b039091169063c4552791906124bb908690600401613a9b565b60206040518083038186803b1580156124d357600080fd5b505afa1580156124e7573d6000803e3d6000fd5b505050506040513d601f19601f8201168201806040525081019061250b9190614afa565b6001600160a01b0316826001600160a01b031614806125385750610280546001600160a01b038381169116145b8061255c57506001600160a01b0382166000908152610281602052604090205460ff165b8061107f575061107f83836133da565b61013e546001600160a01b031633146125975760405162461bcd60e51b8152600401610a76906141ab565b6001600160a01b0381166125bd5760405162461bcd60e51b8152600401610a7690614ce4565b6112cc816131b3565b6000600261013f5414156125ec5760405162461bcd60e51b8152600401610a769061467f565b600261013f556125fa610c70565b6126165760405162461bcd60e51b8152600401610a76906146c1565b3466b1a2bc2ec5000061262a600285614407565b612634919061445d565b146126515760405162461bcd60e51b8152600401610a7690614d26565b61028254612660600284614407565b6126693361165a565b61267391906141d1565b11156126915760405162461bcd60e51b8152600401610a7690614d8e565b61269a33611920565b60008383333442446040516020016126b796959493929190614d9e565b60405160208183030381529060405280519060200120905060005b8381101561278a57600061271d86868080601f016020809104026020016040519081016040528093929190818152602001838380828437600092019190915250869250612aa7915050565b90508261272b600284614407565b6020811061273b5761273b614806565b1a61014661ffff8316612710811061275557612755614806565b602091828204019190066101000a81548160ff021916908360ff1602179055505060028161278391906141d1565b90506126d2565b506001915050600161013f5592915050565b61013e546001600160a01b031633146127c75760405162461bcd60e51b8152600401610a76906141ab565b6001600160a01b0316600090815261028160205260409020805460ff19811660ff90911615179055565b60007fffffffff0000000000000000000000000000000000000000000000000000000082167f80ac58cd00000000000000000000000000000000000000000000000000000000148061288457507fffffffff0000000000000000000000000000000000000000000000000000000082167f5b5e139f00000000000000000000000000000000000000000000000000000000145b806109b657507f01ffc9a7000000000000000000000000000000000000000000000000000000007fffffffff000000000000000000000000000000000000000000000000000000008316146109b6565b600060028261271081106128ea576128ea614806565b602081049091015460ff601f9092166101000a90041692915050565b600080805b6001805461291890614018565b90508110156129da57600061293360018054610ef390614018565b905060005b6001600160a01b0382166000908152602081905260409020805461295b90614018565b90508110156129b1576001600160a01b03821660009081526020819052604090208054879161298d91610dad90614018565b61ffff16141561299f578193506129b1565b6129aa6002826141d1565b9050612938565b506001600160a01b038316156129c757506129da565b506129d36014826141d1565b905061290b565b5092915050565b6000600180546129f090614018565b90508210612a105760405162461bcd60e51b8152600401610a7690614e1b565b6109b661068c60018054612a2390614018565b80601f0160208091040260200160405190810160405280929190818152602001828054612a4f90614018565b8015612a9c5780601f10612a7157610100808354040283529160200191612a9c565b820191906000526020600020905b815481529060010190602001808311612a7f57829003601f168201915b505050505084612add565b6000612ab48260026141d1565b83511015612ad45760405162461bcd60e51b8152600401610a7690614e5d565b50016002015190565b6000612aea8260146141d1565b83511015612b0a5760405162461bcd60e51b8152600401610a7690614e9f565b5001602001516c01000000000000000000000000900490565b836001600160a01b0316612bcd60018054612b3d90614018565b80601f0160208091040260200160405190810160405280929190818152602001828054612b6990614018565b8015612bb65780601f10612b8b57610100808354040283529160200191612bb6565b820191906000526020600020905b815481529060010190602001808311612b9957829003601f168201915b5050505050856014612bc8919061445d565b612add565b6001600160a01b031614612bf35760405162461bcd60e51b8152600401610a7690614f07565b6001600160a01b03821660009081526020819052604090208054612c1690614018565b15159050612c5b5760018260601b604051602001612c35929190614fad565b60405160208183030381529060405260019080519060200190612c59929190613886565b505b6001600160a01b03841660009081526020819052604081208054612d149190612c8390614018565b80601f0160208091040260200160405190810160405280929190818152602001828054612caf90614018565b8015612cfc5780601f10612cd157610100808354040283529160200191612cfc565b820191906000526020600020905b815481529060010190602001808311612cdf57829003601f168201915b505050505083846002612d0f91906141d1565b6134e5565b6001600160a01b0386166000908152602081905260409020805491925090612d3b90614018565b905060021415612f1257612de260018054612d5590614018565b80601f0160208091040260200160405190810160405280929190818152602001828054612d8190614018565b8015612dce5780601f10612da357610100808354040283529160200191612dce565b820191906000526020600020905b815481529060010190602001808311612db157829003601f168201915b50505050506000866014612d0f919061445d565b612eb660018054612df290614018565b80601f0160208091040260200160405190810160405280929190818152602001828054612e1e90614018565b8015612e6b5780601f10612e4057610100808354040283529160200191612e6b565b820191906000526020600020905b815481529060010190602001808311612e4e57829003601f168201915b5050505050866001612e7d91906141d1565b612e8890601461445d565b612e938860016141d1565b612e9e90601461445d565b60018054612eab90614018565b612d0f9291506145ce565b604051602001612ec7929190614fee565b60405160208183030381529060405260019080519060200190612eeb929190613886565b506001600160a01b0385166000908152602081905260408120612f0d9161390a565b6130fb565b6001600160a01b03851660009081526020819052604090208054612fc09190612f3a90614018565b80601f0160208091040260200160405190810160405280929190818152602001828054612f6690614018565b8015612fb35780601f10612f8857610100808354040283529160200191612fb3565b820191906000526020600020905b815481529060010190602001808311612f9657829003601f168201915b50505050506000846134e5565b6001600160a01b038616600090815260208190526040902080546130b09190612fe890614018565b80601f016020809104026020016040519081016040528092919081815260200182805461301490614018565b80156130615780601f1061303657610100808354040283529160200191613061565b820191906000526020600020905b81548152906001019060200180831161304457829003601f168201915b505050505084600261307391906141d1565b6001600160a01b03891660009081526020819052604090208054600291889161309b90614018565b6130a69291506145ce565b612d0f91906145ce565b6040516020016130c1929190614fee565b60408051601f198184030181529181526001600160a01b0387166000908152602081815291902082516130f993919290910190613886565b505b6001600160a01b0383166000908152602081815260409182902091516131249291849101615004565b60408051601f198184030181529181526001600160a01b03851660009081526020818152919020825161315c93919290910190613886565b50613168816000612aa7565b61ffff16836001600160a01b0316866001600160a01b03167fddf252ad1be2c89b69c2b068fc378daa952ba7f163c4a11628f55a4df523b3ef60405160405180910390a45050505050565b61013e80546001600160a01b0383811673ffffffffffffffffffffffffffffffffffffffff19831681179093556040519116919082907f8be0079c531659141344cd1fd0a4f28419497f9722a3daafe3b4186f6b6457e090600090a35050565b60006001600160a01b0384163b1561335f576040517f150b7a020000000000000000000000000000000000000000000000000000000081526001600160a01b0385169063150b7a029061327090339089908890889060040161500e565b602060405180830381600087803b15801561328a57600080fd5b505af19250505080156132ba575060408051601f3d908101601f191682019092526132b79181019061505d565b60015b613314573d8080156132e8576040519150601f19603f3d011682016040523d82523d6000602084013e6132ed565b606091505b50805161330c5760405162461bcd60e51b8152600401610a76906150d6565b805181602001fd5b7fffffffff00000000000000000000000000000000000000000000000000000000167f150b7a0200000000000000000000000000000000000000000000000000000000149050613363565b5060015b949350505050565b6133768383836135ad565b6133d46000846133bb85858080601f01602080910402602001604051908101604052809392919081815260200183838082843760009201829052509250612aa7915050565b61ffff1660405180602001604052806000815250613213565b50505050565b6001600160a01b0382166000908152602081905260408120805482919061340090614018565b80601f016020809104026020016040519081016040528092919081815260200182805461342c90614018565b80156134795780601f1061344e57610100808354040283529160200191613479565b820191906000526020600020905b81548152906001019060200180831161345c57829003601f168201915b5050505050905060005b815181101561335f57836001600160a01b031661013b60006134a58585612aa7565b61ffff1681526020810191909152604001600020546001600160a01b0316146134d3576000925050506109b6565b6134de6002826141d1565b9050613483565b6060816134f381601f6141d1565b10156135115760405162461bcd60e51b8152600401610a7690615118565b61351b82846141d1565b8451101561353b5760405162461bcd60e51b8152600401610a769061515a565b60608215801561355a57604051915060008252602082016040526135a4565b6040519150601f8416801560200281840101858101878315602002848b0101015b8183101561359357805183526020928301920161357b565b5050858452601f01601f1916604052505b50949350505050565b806135ca5760405162461bcd60e51b8152600401610a76906151c2565b6135d56002826147ee565b156135f25760405162461bcd60e51b8152600401610a769061522a565b6001600160a01b0383166000908152602081905260409020805461361590614018565b1515905061365a5760018360601b604051602001613634929190614fad565b60405160208183030381529060405260019080519060200190613658929190613886565b505b60005b818110156138015760026136a884848080601f016020809104026020016040519081016040528093929190818152602001838380828437600092019190915250869250612aa7915050565b61ffff1661271081106136bd576136bd614806565b602081049091015460ff601f9092166101000a900416156136f05760405162461bcd60e51b8152600401610a769061526c565b6001600261373585858080601f016020809104026020016040519081016040528093929190818152602001838380828437600092019190915250879250612aa7915050565b61ffff16612710811061374a5761374a614806565b602091828204019190066101000a81548160ff0219169083151502179055506137aa83838080601f016020809104026020016040519081016040528093929190818152602001838380828437600092019190915250859250612aa7915050565b61ffff16846001600160a01b031660006001600160a01b03167fddf252ad1be2c89b69c2b068fc378daa952ba7f163c4a11628f55a4df523b3ef60405160405180910390a46137fa6002826141d1565b905061365d565b506001600160a01b03831660009081526020818152604091829020915161382d9291859185910161527c565b60408051601f198184030181529181526001600160a01b0385166000908152602081815291902082516133d493919290910190613886565b604051806204e2000160405280612710906020820280368337509192915050565b82805461389290614018565b90600052602060002090601f0160209004810192826138b457600085556138fa565b82601f106138cd57805160ff19168380011785556138fa565b828001600101855582156138fa579182015b828111156138fa5782518255916020019190600101906138df565b50613906929150613940565b5090565b50805461391690614018565b6000825580601f10613926575050565b601f0160209004906000526020600020908101906112cc91905b5b808211156139065760008155600101613941565b7fffffffff0000000000000000000000000000000000000000000000000000000081165b81146112cc57600080fd5b80356109b681613955565b6000602082840312156139a4576139a4600080fd5b60006133638484613984565b8015155b82525050565b602081016109b682846139b0565b61ffff81166139b4565b602081016109b682846139c8565b60005b838110156139fb5781810151838201526020016139e3565b838111156133d45750506000910152565b6000613a16825190565b808452602084019350613a2d8185602086016139e0565b601f01601f19169290920192915050565b6020808252810161107f8184613a0c565b80613979565b80356109b681613a4f565b600060208284031215613a7557613a75600080fd5b60006133638484613a55565b60006001600160a01b0382166109b6565b6139b481613a81565b602081016109b68284613a92565b61397981613a81565b80356109b681613aa9565b60008060408385031215613ad357613ad3600080fd5b6000613adf8585613ab2565b9250506020613af085828601613a55565b9150509250929050565b600060208284031215613b0f57613b0f600080fd5b60006133638484613ab2565b806139b4565b602081016109b68284613b1b565b600080600060608486031215613b4757613b47600080fd5b6000613b538686613ab2565b9350506020613b6486828701613ab2565b9250506040613b7586828701613a55565b9150509250925092565b600080600060608486031215613b9757613b97600080fd5b6000613ba38686613ab2565b9350506020613b6486828701613a55565b60ff81166139b4565b602081016109b68284613bb4565b60008060008060808587031215613be457613be4600080fd5b6000613bf08787613ab2565b9450506020613c0187828801613a55565b9350506040613c1287828801613ab2565b9250506060613c2387828801613a55565b91505092959194509250565b60008083601f840112613c4457613c44600080fd5b50813567ffffffffffffffff811115613c5f57613c5f600080fd5b602083019150836001820283011115613c7a57613c7a600080fd5b9250929050565b60008060208385031215613c9757613c97600080fd5b823567ffffffffffffffff811115613cb157613cb1600080fd5b613cbd85828601613c2f565b92509250509250929050565b613cd382826139b0565b5060200190565b60200190565b6127108160005b82811015613d0c578151613cfb8682613cc9565b955050602082019150600101613ce7565b5050505050565b6204e20081016109b68284613ce0565b801515613979565b80356109b681613d23565b60008060408385031215613d4c57613d4c600080fd5b6000613d588585613ab2565b9250506020613af085828601613d2b565b634e487b7160e01b600052604160045260246000fd5b601f19601f830116810181811067ffffffffffffffff82111715613da557613da5613d69565b6040525050565b6000613db760405190565b9050613dc38282613d7f565b919050565b600067ffffffffffffffff821115613de257613de2613d69565b601f19601f83011660200192915050565b82818337506000910152565b6000613e12613e0d84613dc8565b613dac565b905082815260208101848484011115613e2d57613e2d600080fd5b613e38848285613df3565b509392505050565b600082601f830112613e5457613e54600080fd5b8135613363848260208601613dff565b60008060008060808587031215613e7d57613e7d600080fd5b6000613e898787613ab2565b9450506020613e9a87828801613ab2565b9350506040613eab87828801613a55565b925050606085013567ffffffffffffffff811115613ecb57613ecb600080fd5b613c2387828801613e40565b60008083601f840112613eec57613eec600080fd5b50813567ffffffffffffffff811115613f0757613f07600080fd5b602083019150836020820283011115613c7a57613c7a600080fd5b60008060008060008060608789031215613f3e57613f3e600080fd5b863567ffffffffffffffff811115613f5857613f58600080fd5b613f6489828a01613c2f565b9650965050602087013567ffffffffffffffff811115613f8657613f86600080fd5b613f9289828a01613ed7565b9450945050604087013567ffffffffffffffff811115613fb457613fb4600080fd5b613fc089828a01613ed7565b92509250509295509295509295565b60008060408385031215613fe557613fe5600080fd5b6000613ff18585613ab2565b9250506020613af085828601613ab2565b634e487b7160e01b600052602260045260246000fd5b60028104600182168061402c57607f821691505b60208210811415610c6a57610c6a614002565b601c8152602081017f4552433732313a20746f6b656e20646f6573206e6f742065786973740000000081529050613cda565b602080825281016109b68161403f565b602b8152602081017f4552433732313a20617070726f766520717565727920666f72206e6f6e65786981527f7374656e7420746f6b656e000000000000000000000000000000000000000000602082015290505b60400190565b602080825281016109b681614081565b60468152602081017f4552433732313a2063616c6c6572206973206e6f7420746865206f776e65722081527f6e6f7220616e20617070726f766564206f70657261746f7220666f722074686560208201527f20746f6b656e0000000000000000000000000000000000000000000000000000604082015290505b60600190565b602080825281016109b6816140eb565b60208082527f4f776e61626c653a2063616c6c6572206973206e6f7420746865206f776e65729101908152613cda565b602080825281016109b68161417b565b634e487b7160e01b600052601160045260246000fd5b600082198211156141e4576141e46141bb565b500190565b60278152602081017f4552433732313a2066726f6d2063616e6e6f7420626520746865207a65726f2081527f6164647265737300000000000000000000000000000000000000000000000000602082015290506140d5565b602080825281016109b6816141e9565b60258152602081017f4552433732313a20746f2063616e6e6f7420626520746865207a65726f20616481527f6472657373000000000000000000000000000000000000000000000000000000602082015290506140d5565b602080825281016109b681614251565b602d8152602081017f4552433732313a2063616c6c6572206973206e6f7420617070726f766564206681527f6f7220616c6c20746f6b656e7300000000000000000000000000000000000000602082015290506140d5565b602080825281016109b6816142b9565b60238152602081017f4552433732313a2066726f6d20646f6573206e6f74206f776e2074686520746f81527f6b656e0000000000000000000000000000000000000000000000000000000000602082015290506140d5565b602080825281016109b681614321565b60228152602081017f4552433732313a2066726f6d206973206e6f7420696e206f776e657273206c6981527f7374000000000000000000000000000000000000000000000000000000000000602082015290506140d5565b602080825281016109b681614389565b634e487b7160e01b600052601260045260246000fd5b600082614416576144166143f1565b500490565b60178152602081017f4552433732313a204f776e6572206e6f7420666f756e6400000000000000000081529050613cda565b602080825281016109b68161441b565b6000816000190483118215151615614477576144776141bb565b500290565b60248152602081017f455243373231456e756d657261626c653a20696e646578206f7574206f66207281527f616e676500000000000000000000000000000000000000000000000000000000602082015290506140d5565b602080825281016109b68161447c565b60118152602081017f5769746864726177616c206661696c656400000000000000000000000000000081529050613cda565b602080825281016109b6816144e4565b60208082527f4552433732313a20746f6b656e20696e646578206f7574206f662072616e67659101908152613cda565b602080825281016109b681614526565b602c8152602081017f4552433732313a2063616c6c6572206973206e65697468657220617070726f7681527f6564206e6f72206f776e65720000000000000000000000000000000000000000602082015290506140d5565b602080825281016109b681614566565b6000828210156145e0576145e06141bb565b500390565b60298152602081017f4552433732313a206f776e657220717565727920666f72206e6f6e657869737481527f656e7420746f6b656e0000000000000000000000000000000000000000000000602082015290506140d5565b602080825281016109b6816145e5565b601f8152602081017f5265656e7472616e637947756172643a207265656e7472616e742063616c6c0081529050613cda565b602080825281016109b68161464d565b60148152602081017f5075626c69632073616c65206e6f74206f70656e00000000000000000000000081529050613cda565b602080825281016109b68161468f565b60138152602081017f446f6e277420626520746f6f206772656564790000000000000000000000000081529050613cda565b602080825281016109b6816146d1565b603f8152602081017f4576656e20696620796f7520617265206120666f756e6465722c20796f75206481527f6f6e277420646573657276652074686174206d616e7920447265616d65727300602082015290506140d5565b602080825281016109b681614713565b6141e4828483613df3565b60006109b68260601b90565b60006109b682614786565b6139b46147a982613a81565b614792565b90565b6147bc81868861477b565b90506147c8818561479d565b6014016147d58184613b1b565b6020016147e28183613b1b565b60200195945050505050565b815b9150600082614801576148016143f1565b500690565b634e487b7160e01b600052603260045260246000fd5b6148268183613b1b565b602001919050565b6000600019821415614842576148426141bb565b5060010190565b60298152602081017f4552433732313a2063616e6e6f7420617070726f76652063616c6c657220617381527f206f70657261746f720000000000000000000000000000000000000000000000602082015290506140d5565b602080825281016109b681614849565b60278152602081017f4552433732313a2055524920717565727920666f72206e6f6e6578697374656e81527f7420746f6b656e00000000000000000000000000000000000000000000000000602082015290506140d5565b602080825281016109b6816148b1565b604081016149278285613b1b565b61107f6020830184613bb4565b6000614942613e0d84613dc8565b90508281526020810184848401111561495d5761495d600080fd5b613e388482856139e0565b600082601f83011261497c5761497c600080fd5b8151613363848260208601614934565b6000602082840312156149a1576149a1600080fd5b815167ffffffffffffffff8111156149bb576149bb600080fd5b61336384828501614968565b60288152602081017f456163682072756e6e6572206e65656473206f6e6520616e64206f6e6c79206f81527f6e652063616e6479000000000000000000000000000000000000000000000000602082015290506140d5565b602080825281016109b6816149c7565b825b925060007f07ffffffffffffffffffffffffffffffffffffffffffffffffffffffffffffff831115614a6557614a65600080fd5b602083029250614a76838584613df3565b50500190565b614a8781888a61477b565b9050614a93818761479d565b601401614aa1818587614a2f565b9050614aad8184613b1b565b602001614aba8183613b1b565b602001979650505050505050565b60006109b66147ae61ffff841681565b6139b481614ac8565b602081016109b68284614ad8565b80516109b681613aa9565b600060208284031215614b0f57614b0f600080fd5b60006133638484614aef565b60378152602081017f596f752063616e6e6f7420676976652063616e6469657320746f20612072756e81527f6e6572207468617420796f7520646f206e6f74206f776e000000000000000000602082015290506140d5565b602080825281016109b681614b1b565b604f8152602081017f596f75722072756e6e6572206e65656473206f6e6520616e64206f6e6c79206f81527f6e652063616e64792c2077686f206b6e6f7773207768617420636f756c64206860208201527f617070656e206f7468657277697365000000000000000000000000000000000060408201529050614165565b602080825281016109b681614b83565b60ff9081169082166147f0565b60ff8116905060ff8216915060008260ff038211156141e4576141e46141bb565b81835260208301614a31565b60608101614c598288613a92565b8181036020830152614c6c818688614c3f565b90508181036040830152614c81818486614c3f565b979650505050505050565b60268152602081017f4f776e61626c653a206e6577206f776e657220697320746865207a65726f206181527f6464726573730000000000000000000000000000000000000000000000000000602082015290506140d5565b602080825281016109b681614c8c565b601d8152602081017f596f75206861766520746f2070617920746865206261696c20626f6e6400000081529050613cda565b602080825281016109b681614cf4565b60318152602081017f596f757220686f6d6520697320746f20736d616c6c20746f2077656c636f6d6581527f20736f206d616e7920647265616d657273000000000000000000000000000000602082015290506140d5565b602080825281016109b681614d36565b614da981878961477b565b9050614db5818661479d565b601401614dc28185613b1b565b602001614dcf8184613b1b565b602001614ddc8183613b1b565b6020019695505050505050565b601f8152602081017f4552433732313a206f776e6572496e646578206f7574206f6620626f756e640081529050613cda565b602080825281016109b681614de9565b60148152602081017f746f55696e7431365f6f75744f66426f756e647300000000000000000000000081529050613cda565b602080825281016109b681614e2b565b60158152602081017f746f416464726573735f6f75744f66426f756e6473000000000000000000000081529050613cda565b602080825281016109b681614e6d565b60288152602081017f4552433732313a207472616e736665722066726f6d206164647265737320697381527f20696e76616c6964000000000000000000000000000000000000000000000000602082015290506140d5565b602080825281016109b681614eaf565b60008154614f2481614018565b600182168015614f3b5760018114614f4c57614f7c565b60ff19831686528186019350614f7c565b60008581526020902060005b83811015614f7457815488820152600190910190602001614f58565b505081860193505b50505092915050565b7fffffffffffffffffffffffffffffffffffffffff00000000000000000000000081166139b4565b614fb78184614f17565b9050614fc38183614f85565b60140192915050565b6000614fd6825190565b614fe48185602086016139e0565b9290920192915050565b614ff88184614fcc565b905061107f8183614fcc565b614ff88184614f17565b6080810161501c8287613a92565b6150296020830186613a92565b6150366040830185613b1b565b81810360608301526150488184613a0c565b9695505050505050565b80516109b681613955565b60006020828403121561507257615072600080fd5b60006133638484615052565b60328152602081017f4552433732313a207472616e7366657220746f206e6f6e20455243373231526581527f63656976657220696d706c656d656e7465720000000000000000000000000000602082015290506140d5565b602080825281016109b68161507e565b600e8152602081017f736c6963655f6f766572666c6f7700000000000000000000000000000000000081529050613cda565b602080825281016109b6816150e6565b60118152602081017f736c6963655f6f75744f66426f756e647300000000000000000000000000000081529050613cda565b602080825281016109b681615128565b60258152602081017f4552433732313a2063616e6e6f74206d696e742077697468206e6f20746f6b6581527f6e20496473000000000000000000000000000000000000000000000000000000602082015290506140d5565b602080825281016109b68161516a565b602a8152602081017f4552433732313a20746f6b656e4964732073686f756c6420626520627974657381527f206f662075696e74313600000000000000000000000000000000000000000000602082015290506140d5565b602080825281016109b6816151d2565b601c8152602081017f4552433732313a20746f6b656e20616c7265616479206578697374730000000081529050613cda565b602080825281016109b68161523a565b6152868185614f17565b905061336381838561477b56fea26469706673582212207047f8f1c985c3694d9688cf4c547fe64b0e361cd8323f0f91ae1d723ce78d1764736f6c63430008080033",
  "devdoc": {
    "kind": "dev",
    "methods": {
      "approve(address,uint256)": {
        "details": "Gives permission to `to` to transfer `tokenId` token to another account. The approval is cleared when the token is transferred. Only a single account can be approved at a time, so approving the zero address clears previous approvals. Requirements: - The caller must own the token or be an approved operator. - `tokenId` must exist. Emits an {Approval} event."
      },
      "approve(address,uint256,uint256)": {
        "details": "Approve \"to\" to manage token Id",
        "params": {
          "to": "address The address which will manage the token Id",
          "tokenId": "uint256 The token Id to manage",
          "tokenIndex": "uint256 The index of the token in the owner's list"
        }
      },
      "balanceOf(address)": {
        "details": "There are two bytes per tokenId",
        "params": {
          "owner": "address The address we retrieve the balance for"
        },
        "returns": {
          "_0": "uint256 The number of tokens owned by the address"
        }
      },
      "getApproved(uint256)": {
        "details": "Returns the account approved for `tokenId` token. Requirements: - `tokenId` must exist."
      },
      "getOwnerIndex(address)": {
        "details": "Returns the index of owner in the internal array of owners. Revert if not found.",
        "params": {
          "owner": "address The address we retrieve the index for"
        }
      },
      "getTokenExists()": {
        "details": "Returns the array of bool telling if a token exists or not."
      },
      "isApprovedForAll(address,address)": {
        "details": "Modified for opensea and looksrare pre-approve so users can make truly gas less sales."
      },
      "mintBatchRunnersAccess(bytes,uint256[],uint256[])": {
        "details": "This mint function wraps the safeMintBatch to:      1) check that the minter owns the runner 2) use the candies 3) burn the candies",
        "params": {
          "candyAmounts": "should be an array of 1",
          "candyIds": "the same indexes as above but as a uint8 array",
          "tokenIds": "a bytes interpreted as an array of uint16"
        }
      },
      "name()": {
        "details": "Returns the token collection name."
      },
      "owner()": {
        "details": "Returns the address of the current owner."
      },
      "ownerOf(uint256)": {
        "details": "This is the public ownerOf, see IERC721. We fail fast with the initial check. There is no good      reason to call this function on chain.",
        "params": {
          "tokenId": "uint265 A given token id"
        },
        "returns": {
          "_0": "address The owner of the token."
        }
      },
      "renounceOwnership()": {
        "details": "Leaves the contract without owner. It will not be possible to call `onlyOwner` functions anymore. Can only be called by the current owner. NOTE: Renouncing ownership will leave the contract without an owner, thereby removing any functionality that is only available to the owner."
      },
      "safeTransferFrom(address,address,uint256)": {
        "details": "Safely transfers `tokenId` token from `from` to `to`, checking first that contract recipients are aware of the ERC721 protocol to prevent tokens from being forever locked. Requirements: - `from` cannot be the zero address. - `to` cannot be the zero address. - `tokenId` token must exist and be owned by `from`. - If the caller is not `from`, it must be have been allowed to move this token by either {approve} or {setApprovalForAll}. - If `to` refers to a smart contract, it must implement {IERC721Receiver-onERC721Received}, which is called upon a safe transfer. Emits a {Transfer} event."
      },
      "safeTransferFrom(address,address,uint256,bytes)": {
        "details": "Safely transfers `tokenId` token from `from` to `to`, checking first that contract recipients are aware of the ERC721 protocol to prevent tokens from being forever locked. Requirements: - `from` cannot be the zero address. - `to` cannot be the zero address. - `tokenId` token must exist and be owned by `from`. - If the caller is not `from`, it must be have been allowed to move this token by either {approve} or {setApprovalForAll}. - If `to` refers to a smart contract, it must implement {IERC721Receiver-onERC721Received}, which is called upon a safe transfer. Emits a {Transfer} event."
      },
      "safeTransferFrom(address,uint256,address,uint256)": {
        "details": "Transfer token with minimal computing since all the required data to check is given",
        "params": {
          "from": "address The address which you want to transfer the token from",
          "fromIndex": "uint256 The index of \"from\" in the owners bytes. This is to avoid a search in the array.",
          "to": "address The address which you want to transfer the token to",
          "tokenIndex": "uint256 The index of the token to transfer in the from's token list."
        }
      },
      "setApprovalForAll(address,bool)": {
        "details": "Approve or remove `operator` as an operator for the caller. Operators can call {transferFrom} or {safeTransferFrom} for any token owned by the caller.",
        "params": {
          "_approved": "Whether to add or remove `operator` as an operator.",
          "operator": "The address of the operator to add or remove."
        }
      },
      "supportsInterface(bytes4)": {
        "details": "See {IERC165-supportsInterface}."
      },
      "symbol()": {
        "details": "Returns the token collection symbol."
      },
      "tokenByIndex(uint256)": {
        "details": "Returns a token ID at a given `index` of all the tokens stored by the contract. Use along with {totalSupply} to enumerate all tokens."
      },
      "tokenOfOwnerByIndex(address,uint256)": {
        "details": "Returns a token ID owned by `owner` at a given `index` of its token list. Use along with {balanceOf} to enumerate all of ``owner``'s tokens."
      },
      "totalSupply()": {
        "details": "Returns the total amount of tokens stored by the contract."
      },
      "transferFrom(address,address,uint256)": {
        "details": "Transfers `tokenId` token from `from` to `to`. WARNING: Usage of this method is discouraged, use {safeTransferFrom} whenever possible. Requirements: - `from` cannot be the zero address. - `to` cannot be the zero address. - `tokenId` token must be owned by `from`. - If the caller is not `from`, it must be approved to move this token by either {approve} or {setApprovalForAll}. Emits a {Transfer} event."
      },
      "transferOwnership(address)": {
        "details": "Transfers ownership of the contract to a new account (`newOwner`). Can only be called by the current owner."
      }
    },
    "stateVariables": {
      "opensea": {
        "details": "Copied from \\@naomsa's contract"
      }
    },
    "version": 1
  },
  "userdoc": {
    "kind": "user",
    "methods": {
      "flipProxyState(address)": {
        "notice": "Approve the communication and interaction with cross-collection interactions."
      },
      "looksrare()": {
        "notice": "LooksRare marketplace transfer manager."
      },
      "marketplacesApproved()": {
        "notice": "Check if marketplaces pre-approve is enabled."
      },
      "opensea()": {
        "notice": "OpenSea proxy registry."
      },
      "setLooksrare(address)": {
        "notice": "Set looksrare to `looksrare_`."
      },
      "setOpensea(address)": {
        "notice": "Set opensea to `opensea_`."
      },
      "toggleMarketplacesApproved()": {
        "notice": "Toggle pre-approve feature state for sender."
      }
    },
    "version": 1
  },
  "storageLayout": {
    "storage": [
      {
        "astId": 13341,
        "contract": "contracts/dreamers/ChainDreamers.sol:ChainDreamers",
        "label": "_tokensByOwner",
        "offset": 0,
        "slot": "0",
        "type": "t_mapping(t_address,t_bytes_storage)"
      },
      {
        "astId": 13343,
        "contract": "contracts/dreamers/ChainDreamers.sol:ChainDreamers",
        "label": "owners",
        "offset": 0,
        "slot": "1",
        "type": "t_bytes_storage"
      },
      {
        "astId": 13350,
        "contract": "contracts/dreamers/ChainDreamers.sol:ChainDreamers",
        "label": "tokenExists",
        "offset": 0,
        "slot": "2",
        "type": "t_array(t_bool)10000_storage"
      },
      {
        "astId": 13354,
        "contract": "contracts/dreamers/ChainDreamers.sol:ChainDreamers",
        "label": "_tokenApprovals",
        "offset": 0,
        "slot": "315",
        "type": "t_mapping(t_uint16,t_address)"
      },
      {
        "astId": 13356,
        "contract": "contracts/dreamers/ChainDreamers.sol:ChainDreamers",
        "label": "_name",
        "offset": 0,
        "slot": "316",
        "type": "t_string_storage"
      },
      {
        "astId": 13358,
        "contract": "contracts/dreamers/ChainDreamers.sol:ChainDreamers",
        "label": "_symbol",
        "offset": 0,
        "slot": "317",
        "type": "t_string_storage"
      },
      {
        "astId": 225,
        "contract": "contracts/dreamers/ChainDreamers.sol:ChainDreamers",
        "label": "_owner",
        "offset": 0,
        "slot": "318",
        "type": "t_address"
      },
      {
        "astId": 425,
        "contract": "contracts/dreamers/ChainDreamers.sol:ChainDreamers",
        "label": "_status",
        "offset": 0,
        "slot": "319",
        "type": "t_uint256"
      },
      {
        "astId": 4183,
        "contract": "contracts/dreamers/ChainDreamers.sol:ChainDreamers",
        "label": "renderingContractAddress",
        "offset": 0,
        "slot": "320",
        "type": "t_address"
      },
      {
        "astId": 4185,
        "contract": "contracts/dreamers/ChainDreamers.sol:ChainDreamers",
        "label": "candyShopAddress",
        "offset": 0,
        "slot": "321",
        "type": "t_address"
      },
      {
        "astId": 4187,
        "contract": "contracts/dreamers/ChainDreamers.sol:ChainDreamers",
        "label": "chainRunnersAddress",
        "offset": 0,
        "slot": "322",
        "type": "t_address"
      },
      {
        "astId": 4190,
        "contract": "contracts/dreamers/ChainDreamers.sol:ChainDreamers",
        "label": "renderer",
        "offset": 0,
        "slot": "323",
        "type": "t_contract(IDreamersRenderer)8130"
      },
      {
        "astId": 4193,
        "contract": "contracts/dreamers/ChainDreamers.sol:ChainDreamers",
        "label": "candyShop",
        "offset": 0,
        "slot": "324",
        "type": "t_contract(ICandyShop)8080"
      },
      {
        "astId": 4196,
        "contract": "contracts/dreamers/ChainDreamers.sol:ChainDreamers",
        "label": "chainRunners",
        "offset": 0,
        "slot": "325",
        "type": "t_contract(IChainRunners)8097"
      },
      {
        "astId": 4200,
        "contract": "contracts/dreamers/ChainDreamers.sol:ChainDreamers",
        "label": "dreamersCandies",
        "offset": 0,
        "slot": "326",
        "type": "t_array(t_uint8)10000_storage"
      },
      {
        "astId": 4206,
        "contract": "contracts/dreamers/ChainDreamers.sol:ChainDreamers",
        "label": "opensea",
        "offset": 0,
        "slot": "639",
        "type": "t_address"
      },
      {
        "astId": 4209,
        "contract": "contracts/dreamers/ChainDreamers.sol:ChainDreamers",
        "label": "looksrare",
        "offset": 0,
        "slot": "640",
        "type": "t_address"
      },
      {
        "astId": 4213,
        "contract": "contracts/dreamers/ChainDreamers.sol:ChainDreamers",
        "label": "marketplacesApproved",
        "offset": 20,
        "slot": "640",
        "type": "t_bool"
      },
      {
        "astId": 4217,
        "contract": "contracts/dreamers/ChainDreamers.sol:ChainDreamers",
        "label": "proxyToApproved",
        "offset": 0,
        "slot": "641",
        "type": "t_mapping(t_address,t_bool)"
      },
      {
        "astId": 4319,
        "contract": "contracts/dreamers/ChainDreamers.sol:ChainDreamers",
        "label": "maxDreamersMintPublicSale",
        "offset": 0,
        "slot": "642",
        "type": "t_uint256"
      },
      {
        "astId": 4328,
        "contract": "contracts/dreamers/ChainDreamers.sol:ChainDreamers",
        "label": "foundersMinted",
        "offset": 0,
        "slot": "643",
        "type": "t_bool"
      },
      {
        "astId": 4330,
        "contract": "contracts/dreamers/ChainDreamers.sol:ChainDreamers",
        "label": "publicSaleStartTimestamp",
        "offset": 0,
        "slot": "644",
        "type": "t_uint256"
      }
    ],
    "types": {
      "t_address": {
        "encoding": "inplace",
        "label": "address",
        "numberOfBytes": "20"
      },
      "t_array(t_bool)10000_storage": {
        "base": "t_bool",
        "encoding": "inplace",
        "label": "bool[10000]",
        "numberOfBytes": "10016"
      },
      "t_array(t_uint8)10000_storage": {
        "base": "t_uint8",
        "encoding": "inplace",
        "label": "uint8[10000]",
        "numberOfBytes": "10016"
      },
      "t_bool": {
        "encoding": "inplace",
        "label": "bool",
        "numberOfBytes": "1"
      },
      "t_bytes_storage": {
        "encoding": "bytes",
        "label": "bytes",
        "numberOfBytes": "32"
      },
      "t_contract(ICandyShop)8080": {
        "encoding": "inplace",
        "label": "contract ICandyShop",
        "numberOfBytes": "20"
      },
      "t_contract(IChainRunners)8097": {
        "encoding": "inplace",
        "label": "contract IChainRunners",
        "numberOfBytes": "20"
      },
      "t_contract(IDreamersRenderer)8130": {
        "encoding": "inplace",
        "label": "contract IDreamersRenderer",
        "numberOfBytes": "20"
      },
      "t_mapping(t_address,t_bool)": {
        "encoding": "mapping",
        "key": "t_address",
        "label": "mapping(address => bool)",
        "numberOfBytes": "32",
        "value": "t_bool"
      },
      "t_mapping(t_address,t_bytes_storage)": {
        "encoding": "mapping",
        "key": "t_address",
        "label": "mapping(address => bytes)",
        "numberOfBytes": "32",
        "value": "t_bytes_storage"
      },
      "t_mapping(t_uint16,t_address)": {
        "encoding": "mapping",
        "key": "t_uint16",
        "label": "mapping(uint16 => address)",
        "numberOfBytes": "32",
        "value": "t_address"
      },
      "t_string_storage": {
        "encoding": "bytes",
        "label": "string",
        "numberOfBytes": "32"
      },
      "t_uint16": {
        "encoding": "inplace",
        "label": "uint16",
        "numberOfBytes": "2"
      },
      "t_uint256": {
        "encoding": "inplace",
        "label": "uint256",
        "numberOfBytes": "32"
      },
      "t_uint8": {
        "encoding": "inplace",
        "label": "uint8",
        "numberOfBytes": "1"
      }
    }
  }
}