{
  "address": "0x8Eb9211D2A3c94Ae4339fe4300AD1349dc9b8bEB",
  "abi": [
    {
      "inputs": [
        {
          "internalType": "string",
          "name": "name_",
          "type": "string"
        },
        {
          "internalType": "string",
          "name": "symbol_",
          "type": "string"
        },
        {
          "internalType": "address",
          "name": "_rendererAddress",
          "type": "address"
        },
        {
          "internalType": "address",
          "name": "_chainRunnersAddress",
          "type": "address"
        },
        {
          "internalType": "address",
          "name": "_opensea",
          "type": "address"
        },
        {
          "internalType": "address",
          "name": "_looksrare",
          "type": "address"
        },
        {
          "internalType": "uint256",
          "name": "_maxDreamersMintPublicSale",
          "type": "uint256"
        }
      ],
      "stateMutability": "nonpayable",
      "type": "constructor"
    },
    {
      "anonymous": false,
      "inputs": [
        {
          "indexed": true,
          "internalType": "address",
          "name": "owner",
          "type": "address"
        },
        {
          "indexed": true,
          "internalType": "address",
          "name": "approved",
          "type": "address"
        },
        {
          "indexed": true,
          "internalType": "uint256",
          "name": "tokenId",
          "type": "uint256"
        }
      ],
      "name": "Approval",
      "type": "event"
    },
    {
      "anonymous": false,
      "inputs": [
        {
          "indexed": true,
          "internalType": "address",
          "name": "owner",
          "type": "address"
        },
        {
          "indexed": true,
          "internalType": "address",
          "name": "operator",
          "type": "address"
        },
        {
          "indexed": false,
          "internalType": "bool",
          "name": "approved",
          "type": "bool"
        }
      ],
      "name": "ApprovalForAll",
      "type": "event"
    },
    {
      "anonymous": false,
      "inputs": [
        {
          "indexed": true,
          "internalType": "address",
          "name": "previousOwner",
          "type": "address"
        },
        {
          "indexed": true,
          "internalType": "address",
          "name": "newOwner",
          "type": "address"
        }
      ],
      "name": "OwnershipTransferred",
      "type": "event"
    },
    {
      "anonymous": false,
      "inputs": [
        {
          "indexed": true,
          "internalType": "address",
          "name": "from",
          "type": "address"
        },
        {
          "indexed": true,
          "internalType": "address",
          "name": "to",
          "type": "address"
        },
        {
          "indexed": true,
          "internalType": "uint256",
          "name": "tokenId",
          "type": "uint256"
        }
      ],
      "name": "Transfer",
      "type": "event"
    },
    {
      "inputs": [],
      "name": "MAX_MINT_FOUNDERS",
      "outputs": [
        {
          "internalType": "uint256",
          "name": "",
          "type": "uint256"
        }
      ],
      "stateMutability": "view",
      "type": "function"
    },
    {
      "inputs": [],
      "name": "MINT_PUBLIC_PRICE",
      "outputs": [
        {
          "internalType": "uint256",
          "name": "",
          "type": "uint256"
        }
      ],
      "stateMutability": "view",
      "type": "function"
    },
    {
      "inputs": [
        {
          "internalType": "address",
          "name": "to",
          "type": "address"
        },
        {
          "internalType": "uint256",
          "name": "tokenId",
          "type": "uint256"
        }
      ],
      "name": "approve",
      "outputs": [],
      "stateMutability": "nonpayable",
      "type": "function"
    },
    {
      "inputs": [
        {
          "internalType": "address",
          "name": "owner",
          "type": "address"
        }
      ],
      "name": "balanceOf",
      "outputs": [
        {
          "internalType": "uint256",
          "name": "",
          "type": "uint256"
        }
      ],
      "stateMutability": "view",
      "type": "function"
    },
    {
      "inputs": [],
      "name": "candyShopAddress",
      "outputs": [
        {
          "internalType": "address",
          "name": "",
          "type": "address"
        }
      ],
      "stateMutability": "view",
      "type": "function"
    },
    {
      "inputs": [],
      "name": "chainRunnersAddress",
      "outputs": [
        {
          "internalType": "address",
          "name": "",
          "type": "address"
        }
      ],
      "stateMutability": "view",
      "type": "function"
    },
    {
      "inputs": [
        {
          "internalType": "uint256",
          "name": "",
          "type": "uint256"
        }
      ],
      "name": "dreamersCandies",
      "outputs": [
        {
          "internalType": "uint8",
          "name": "",
          "type": "uint8"
        }
      ],
      "stateMutability": "view",
      "type": "function"
    },
    {
      "inputs": [
        {
          "internalType": "uint256",
          "name": "_tokenId",
          "type": "uint256"
        }
      ],
      "name": "exists",
      "outputs": [
        {
          "internalType": "bool",
          "name": "",
          "type": "bool"
        }
      ],
      "stateMutability": "view",
      "type": "function"
    },
    {
      "inputs": [
        {
          "internalType": "address",
          "name": "proxyAddress",
          "type": "address"
        }
      ],
      "name": "flipProxyState",
      "outputs": [],
      "stateMutability": "nonpayable",
      "type": "function"
    },
    {
      "inputs": [],
      "name": "foundersMinted",
      "outputs": [
        {
          "internalType": "bool",
          "name": "",
          "type": "bool"
        }
      ],
      "stateMutability": "view",
      "type": "function"
    },
    {
      "inputs": [
        {
          "internalType": "uint256",
          "name": "tokenId",
          "type": "uint256"
        }
      ],
      "name": "getApproved",
      "outputs": [
        {
          "internalType": "address",
          "name": "",
          "type": "address"
        }
      ],
      "stateMutability": "view",
      "type": "function"
    },
    {
      "inputs": [],
      "name": "getDreamersCandies",
      "outputs": [
        {
          "internalType": "uint8[10000]",
          "name": "",
          "type": "uint8[10000]"
        }
      ],
      "stateMutability": "view",
      "type": "function"
    },
    {
      "inputs": [
        {
          "internalType": "address",
          "name": "owner",
          "type": "address"
        },
        {
          "internalType": "address",
          "name": "operator",
          "type": "address"
        }
      ],
      "name": "isApprovedForAll",
      "outputs": [
        {
          "internalType": "bool",
          "name": "",
          "type": "bool"
        }
      ],
      "stateMutability": "view",
      "type": "function"
    },
    {
      "inputs": [],
      "name": "isPublicSaleOpen",
      "outputs": [
        {
          "internalType": "bool",
          "name": "",
          "type": "bool"
        }
      ],
      "stateMutability": "view",
      "type": "function"
    },
    {
      "inputs": [],
      "name": "looksrare",
      "outputs": [
        {
          "internalType": "address",
          "name": "",
          "type": "address"
        }
      ],
      "stateMutability": "view",
      "type": "function"
    },
    {
      "inputs": [],
      "name": "marketplacesApproved",
      "outputs": [
        {
          "internalType": "bool",
          "name": "",
          "type": "bool"
        }
      ],
      "stateMutability": "view",
      "type": "function"
    },
    {
      "inputs": [],
      "name": "maxDreamersMintPublicSale",
      "outputs": [
        {
          "internalType": "uint256",
          "name": "",
          "type": "uint256"
        }
      ],
      "stateMutability": "view",
      "type": "function"
    },
    {
      "inputs": [
        {
          "internalType": "bytes",
          "name": "tokenIds",
          "type": "bytes"
        }
      ],
      "name": "mintBatchFounders",
      "outputs": [
        {
          "internalType": "bool",
          "name": "",
          "type": "bool"
        }
      ],
      "stateMutability": "nonpayable",
      "type": "function"
    },
    {
      "inputs": [
        {
          "internalType": "bytes",
          "name": "tokenIds",
          "type": "bytes"
        }
      ],
      "name": "mintBatchPublicSale",
      "outputs": [
        {
          "internalType": "bool",
          "name": "",
          "type": "bool"
        }
      ],
      "stateMutability": "payable",
      "type": "function"
    },
    {
      "inputs": [
        {
          "internalType": "bytes",
          "name": "tokenIds",
          "type": "bytes"
        },
        {
          "internalType": "uint256[]",
          "name": "candyIds",
          "type": "uint256[]"
        },
        {
          "internalType": "uint256[]",
          "name": "candyAmounts",
          "type": "uint256[]"
        }
      ],
      "name": "mintBatchRunnersAccess",
      "outputs": [
        {
          "internalType": "bool",
          "name": "",
          "type": "bool"
        }
      ],
      "stateMutability": "nonpayable",
      "type": "function"
    },
    {
      "inputs": [],
      "name": "name",
      "outputs": [
        {
          "internalType": "string",
          "name": "",
          "type": "string"
        }
      ],
      "stateMutability": "view",
      "type": "function"
    },
    {
      "inputs": [],
      "name": "opensea",
      "outputs": [
        {
          "internalType": "address",
          "name": "",
          "type": "address"
        }
      ],
      "stateMutability": "view",
      "type": "function"
    },
    {
      "inputs": [],
      "name": "owner",
      "outputs": [
        {
          "internalType": "address",
          "name": "",
          "type": "address"
        }
      ],
      "stateMutability": "view",
      "type": "function"
    },
    {
      "inputs": [
        {
          "internalType": "uint256",
          "name": "tokenId",
          "type": "uint256"
        }
      ],
      "name": "ownerOf",
      "outputs": [
        {
          "internalType": "address",
          "name": "",
          "type": "address"
        }
      ],
      "stateMutability": "view",
      "type": "function"
    },
    {
      "inputs": [],
      "name": "publicSaleStartTimestamp",
      "outputs": [
        {
          "internalType": "uint256",
          "name": "",
          "type": "uint256"
        }
      ],
      "stateMutability": "view",
      "type": "function"
    },
    {
      "inputs": [],
      "name": "renderingContractAddress",
      "outputs": [
        {
          "internalType": "address",
          "name": "",
          "type": "address"
        }
      ],
      "stateMutability": "view",
      "type": "function"
    },
    {
      "inputs": [],
      "name": "renounceOwnership",
      "outputs": [],
      "stateMutability": "nonpayable",
      "type": "function"
    },
    {
      "inputs": [
        {
          "internalType": "address",
          "name": "from",
          "type": "address"
        },
        {
          "internalType": "address",
          "name": "to",
          "type": "address"
        },
        {
          "internalType": "uint256",
          "name": "tokenId",
          "type": "uint256"
        }
      ],
      "name": "safeTransferFrom",
      "outputs": [],
      "stateMutability": "nonpayable",
      "type": "function"
    },
    {
      "inputs": [
        {
          "internalType": "address",
          "name": "from",
          "type": "address"
        },
        {
          "internalType": "address",
          "name": "to",
          "type": "address"
        },
        {
          "internalType": "uint256",
          "name": "tokenId",
          "type": "uint256"
        },
        {
          "internalType": "bytes",
          "name": "_data",
          "type": "bytes"
        }
      ],
      "name": "safeTransferFrom",
      "outputs": [],
      "stateMutability": "nonpayable",
      "type": "function"
    },
    {
      "inputs": [
        {
          "internalType": "address",
          "name": "operator",
          "type": "address"
        },
        {
          "internalType": "bool",
          "name": "approved",
          "type": "bool"
        }
      ],
      "name": "setApprovalForAll",
      "outputs": [],
      "stateMutability": "nonpayable",
      "type": "function"
    },
    {
      "inputs": [
        {
          "internalType": "address",
          "name": "_candyShopContractAddress",
          "type": "address"
        }
      ],
      "name": "setCandyShopAddress",
      "outputs": [],
      "stateMutability": "nonpayable",
      "type": "function"
    },
    {
      "inputs": [
        {
          "internalType": "address",
          "name": "_chainRunnersContractAddress",
          "type": "address"
        }
      ],
      "name": "setChainRunnersContractAddress",
      "outputs": [],
      "stateMutability": "nonpayable",
      "type": "function"
    },
    {
      "inputs": [
        {
          "internalType": "address",
          "name": "looksrare_",
          "type": "address"
        }
      ],
      "name": "setLooksrare",
      "outputs": [],
      "stateMutability": "nonpayable",
      "type": "function"
    },
    {
      "inputs": [
        {
          "internalType": "uint256",
          "name": "_maxDreamersMintPublicSale",
          "type": "uint256"
        }
      ],
      "name": "setMaxDreamersMintPublicSale",
      "outputs": [],
      "stateMutability": "nonpayable",
      "type": "function"
    },
    {
      "inputs": [
        {
          "internalType": "address[]",
          "name": "_ogs",
          "type": "address[]"
        },
        {
          "internalType": "uint256[]",
          "name": "_tokenIds",
          "type": "uint256[]"
        },
        {
          "internalType": "uint8[]",
          "name": "_candies",
          "type": "uint8[]"
        }
      ],
      "name": "setOgs",
      "outputs": [],
      "stateMutability": "nonpayable",
      "type": "function"
    },
    {
      "inputs": [
        {
          "internalType": "address",
          "name": "opensea_",
          "type": "address"
        }
      ],
      "name": "setOpensea",
      "outputs": [],
      "stateMutability": "nonpayable",
      "type": "function"
    },
    {
      "inputs": [
        {
          "internalType": "uint256",
          "name": "timestamp",
          "type": "uint256"
        }
      ],
      "name": "setPublicSaleTimestamp",
      "outputs": [],
      "stateMutability": "nonpayable",
      "type": "function"
    },
    {
      "inputs": [
        {
          "internalType": "address",
          "name": "_renderingContractAddress",
          "type": "address"
        }
      ],
      "name": "setRenderingContractAddress",
      "outputs": [],
      "stateMutability": "nonpayable",
      "type": "function"
    },
    {
      "inputs": [
        {
          "internalType": "bytes4",
          "name": "interfaceId",
          "type": "bytes4"
        }
      ],
      "name": "supportsInterface",
      "outputs": [
        {
          "internalType": "bool",
          "name": "",
          "type": "bool"
        }
      ],
      "stateMutability": "view",
      "type": "function"
    },
    {
      "inputs": [],
      "name": "symbol",
      "outputs": [
        {
          "internalType": "string",
          "name": "",
          "type": "string"
        }
      ],
      "stateMutability": "view",
      "type": "function"
    },
    {
      "inputs": [],
      "name": "toggleMarketplacesApproved",
      "outputs": [],
      "stateMutability": "nonpayable",
      "type": "function"
    },
    {
      "inputs": [
        {
          "internalType": "uint256",
          "name": "index",
          "type": "uint256"
        }
      ],
      "name": "tokenByIndex",
      "outputs": [
        {
          "internalType": "uint256",
          "name": "",
          "type": "uint256"
        }
      ],
      "stateMutability": "view",
      "type": "function"
    },
    {
      "inputs": [
        {
          "internalType": "address",
          "name": "owner",
          "type": "address"
        },
        {
          "internalType": "uint256",
          "name": "index",
          "type": "uint256"
        }
      ],
      "name": "tokenOfOwnerByIndex",
      "outputs": [
        {
          "internalType": "uint256",
          "name": "",
          "type": "uint256"
        }
      ],
      "stateMutability": "view",
      "type": "function"
    },
    {
      "inputs": [
        {
          "internalType": "uint256",
          "name": "_tokenId",
          "type": "uint256"
        }
      ],
      "name": "tokenURI",
      "outputs": [
        {
          "internalType": "string",
          "name": "",
          "type": "string"
        }
      ],
      "stateMutability": "view",
      "type": "function"
    },
    {
      "inputs": [],
      "name": "totalSupply",
      "outputs": [
        {
          "internalType": "uint256",
          "name": "",
          "type": "uint256"
        }
      ],
      "stateMutability": "view",
      "type": "function"
    },
    {
      "inputs": [
        {
          "internalType": "address",
          "name": "from",
          "type": "address"
        },
        {
          "internalType": "address",
          "name": "to",
          "type": "address"
        },
        {
          "internalType": "uint256",
          "name": "tokenId",
          "type": "uint256"
        }
      ],
      "name": "transferFrom",
      "outputs": [],
      "stateMutability": "nonpayable",
      "type": "function"
    },
    {
      "inputs": [
        {
          "internalType": "address",
          "name": "newOwner",
          "type": "address"
        }
      ],
      "name": "transferOwnership",
      "outputs": [],
      "stateMutability": "nonpayable",
      "type": "function"
    },
    {
      "inputs": [],
      "name": "withdraw",
      "outputs": [],
      "stateMutability": "nonpayable",
      "type": "function"
    },
    {
      "stateMutability": "payable",
      "type": "receive"
    }
  ],
  "transactionHash": "0xbf2a9f09690d4d223ac30a5803484e52a73c7c0478e7c6d779cb06eb17f03688",
  "args": [
    "Chain Dreamers",
    "DRE",
    "0x472274C57f0B1953294513458F732fb7fbE82AC0",
    "0x39Ae0DDB8596ef6b67aE731c5B564712F9706FA1",
    "0xf57b2c51ded3a29e6891aba85459d600256cf317",
    "0x3f65a762f15d01809cdc6b43d8849ff24949c86a",
    16
  ],
  "numDeployments": 19,
  "solcInputHash": "a57af466167cb861c62ee9ea48187e83",
  "bytecode": "0x608060405261014c805460ff60a01b1916600160a01b17905561014f805460ff191660011790553480156200003357600080fd5b50604051620043543803806200435483398101604081905262000056916200047c565b8651879087906200006f9060009060208501906200024b565b508051620000859060019060208401906200024b565b505050620000a26200009c6200010760201b60201c565b6200010b565b6001600b55620000b2856200015d565b620000bd84620001bf565b61014b80546001600160a01b038086166001600160a01b03199283161790925561014c805492851692909116919091179055620000fa8162000218565b50505050505050620005e6565b3390565b600a80546001600160a01b038381166001600160a01b0319831681179093556040519116919082907f8be0079c531659141344cd1fd0a4f28419497f9722a3daafe3b4186f6b6457e090600090a35050565b600a546001600160a01b03163314620001935760405162461bcd60e51b81526004016200018a9062000564565b60405180910390fd5b600c80546001600160a01b039092166001600160a01b03199283168117909155600f8054909216179055565b600a546001600160a01b03163314620001ec5760405162461bcd60e51b81526004016200018a9062000564565b600e80546001600160a01b039092166001600160a01b0319928316811790915560118054909216179055565b600a546001600160a01b03163314620002455760405162461bcd60e51b81526004016200018a9062000564565b61014e55565b8280546200025990620005b5565b90600052602060002090601f0160209004810192826200027d5760008555620002c8565b82601f106200029857805160ff1916838001178555620002c8565b82800160010185558215620002c8579182015b82811115620002c8578251825591602001919060010190620002ab565b50620002d6929150620002da565b5090565b5b80821115620002d65760008155600101620002db565b634e487b7160e01b600052604160045260246000fd5b601f19601f83011681016001600160401b03811182821017156200032f576200032f620002f1565b6040525050565b60006200034260405190565b905062000350828262000307565b919050565b60006001600160401b03821115620003715762000371620002f1565b601f19601f83011660200192915050565b60005b838110156200039f57818101518382015260200162000385565b83811115620003af576000848401525b50505050565b6000620003cc620003c68462000355565b62000336565b905082815260208101848484011115620003e957620003e9600080fd5b620003f684828562000382565b509392505050565b600082601f830112620004145762000414600080fd5b815162000426848260208601620003b5565b949350505050565b60006001600160a01b0382165b92915050565b6200044c816200042e565b81146200045857600080fd5b50565b80516200043b8162000441565b806200044c565b80516200043b8162000468565b600080600080600080600060e0888a0312156200049c576200049c600080fd5b87516001600160401b03811115620004b757620004b7600080fd5b620004c58a828b01620003fe565b60208a015190985090506001600160401b03811115620004e857620004e8600080fd5b620004f68a828b01620003fe565b9650506040620005098a828b016200045b565b95505060606200051c8a828b016200045b565b94505060806200052f8a828b016200045b565b93505060a0620005428a828b016200045b565b92505060c0620005558a828b016200046f565b91505092959891949750929550565b60208082528181019081527f4f776e61626c653a2063616c6c6572206973206e6f7420746865206f776e65726040830152606082016200043b565b634e487b7160e01b600052602260045260246000fd5b600281046001821680620005ca57607f821691505b60208210811415620005e057620005e06200059f565b50919050565b613d5e80620005f66000396000f3fe6080604052600436106103175760003560e01c8063715018a61161019a578063bfb97416116100e1578063e985e9c51161008a578063f4b9942411610064578063f4b99424146108ac578063f73c814b146108bf578063fac91323146108df57600080fd5b8063e985e9c514610851578063f0658ac914610871578063f2fde38b1461088c57600080fd5b8063cb95f069116100bb578063cb95f069146107fa578063d3d6005b1461081a578063d7822c991461083a57600080fd5b8063bfb9741614610798578063c074f412146107ba578063c87b56dd146107da57600080fd5b80639c51792a11610143578063b5fcb3391161011d578063b5fcb33914610738578063b776c8a614610758578063b88d4fde1461077857600080fd5b80639c51792a146106dc578063a22cb465146106f7578063a8e90b571461071757600080fd5b80639343eaa6116101745780639343eaa61461068757806395d89b41146106a75780639b970888146106bc57600080fd5b8063715018a6146106345780638392d804146106495780638da5cb5b1461066957600080fd5b80632f745c591161025e578063511a9605116102075780636352211e116101e15780636352211e146105dd5780636b318e6e146105fd57806370a082311461061457600080fd5b8063511a96051461056f578063511ed3821461058f578063633574db146105b057600080fd5b806342842e0e1161023857806342842e0e1461050f5780634f558e791461052f5780634f6ccce71461054f57600080fd5b80632f745c59146104c557806333c12e17146104e55780633ccfd60b146104fa57600080fd5b806312b40a9f116102c05780631e8858fb1161029a5780631e8858fb1461047057806322afee071461049057806323b872dd146104a557600080fd5b806312b40a9f1461041d57806318160ddd1461043d5780631a6949e31461045b57600080fd5b8063081812fc116102f1578063081812fc146103ae578063095ea7b3146103db5780630d77c756146103fd57600080fd5b806301ffc9a714610323578063026ae1021461035957806306fdde031461038c57600080fd5b3661031e57005b600080fd5b34801561032f57600080fd5b5061034361033e3660046125fb565b6108ff565b6040516103509190612626565b60405180910390f35b34801561036557600080fd5b5061014c546103439074010000000000000000000000000000000000000000900460ff1681565b34801561039857600080fd5b506103a161095b565b6040516103509190612692565b3480156103ba57600080fd5b506103ce6103c93660046126b4565b6109ed565b60405161035091906126ef565b3480156103e757600080fd5b506103fb6103f6366004612711565b610a46565b005b34801561040957600080fd5b506103fb6104183660046126b4565b610acc565b34801561042957600080fd5b506103fb61043836600461274e565b610afc565b34801561044957600080fd5b506008545b6040516103509190612775565b34801561046757600080fd5b50610343610b5f565b34801561047c57600080fd5b506103fb61048b36600461274e565b610b7a565b34801561049c57600080fd5b5061044e603281565b3480156104b157600080fd5b506103fb6104c0366004612783565b610bd4565b3480156104d157600080fd5b5061044e6104e0366004612711565b610c05565b3480156104f157600080fd5b506103fb610c57565b34801561050657600080fd5b506103fb610ccf565b34801561051b57600080fd5b506103fb61052a366004612783565b610d64565b34801561053b57600080fd5b5061034361054a3660046126b4565b610d7f565b34801561055b57600080fd5b5061044e61056a3660046126b4565b610d9e565b34801561057b57600080fd5b506103fb61058a3660046126b4565b610dec565b34801561059b57600080fd5b5061014b546103ce906001600160a01b031681565b3480156105bc57600080fd5b506105d06105cb3660046126b4565b610e1c565b60405161035091906127dc565b3480156105e957600080fd5b506103ce6105f83660046126b4565b610e47565b34801561060957600080fd5b5061044e61014e5481565b34801561062057600080fd5b5061044e61062f36600461274e565b610e7c565b34801561064057600080fd5b506103fb610ec0565b34801561065557600080fd5b50600e546103ce906001600160a01b031681565b34801561067557600080fd5b50600a546001600160a01b03166103ce565b34801561069357600080fd5b506103436106a236600461283c565b610ef6565b3480156106b357600080fd5b506103a161112e565b3480156106c857600080fd5b506103fb6106d7366004612a83565b61113d565b3480156106e857600080fd5b5061044e66b1a2bc2ec5000081565b34801561070357600080fd5b506103fb610712366004612b2c565b61122f565b34801561072357600080fd5b5061014c546103ce906001600160a01b031681565b34801561074457600080fd5b506103fb61075336600461274e565b61123e565b34801561076457600080fd5b506103fb61077336600461274e565b6112a1565b34801561078457600080fd5b506103fb610793366004612bf6565b6112fb565b3480156107a457600080fd5b506107ad61132d565b6040516103509190612cbf565b3480156107c657600080fd5b50600c546103ce906001600160a01b031681565b3480156107e657600080fd5b506103a16107f53660046126b4565b611388565b34801561080657600080fd5b50610343610815366004612d1a565b611490565b34801561082657600080fd5b506103fb61083536600461274e565b6117cc565b34801561084657600080fd5b5061044e6101505481565b34801561085d57600080fd5b5061034361086c366004612dc7565b61182f565b34801561087d57600080fd5b5061014f546103439060ff1681565b34801561089857600080fd5b506103fb6108a736600461274e565b6119a6565b6103436108ba36600461283c565b6119ff565b3480156108cb57600080fd5b506103fb6108da36600461274e565b611bd0565b3480156108eb57600080fd5b50600d546103ce906001600160a01b031681565b60007fffffffff0000000000000000000000000000000000000000000000000000000082167f780e9d63000000000000000000000000000000000000000000000000000000001480610955575061095582611c24565b92915050565b60606000805461096a90612e10565b80601f016020809104026020016040519081016040528092919081815260200182805461099690612e10565b80156109e35780601f106109b8576101008083540402835291602001916109e3565b820191906000526020600020905b8154815290600101906020018083116109c657829003601f168201915b5050505050905090565b6000818152600260205260408120546001600160a01b0316610a2a5760405162461bcd60e51b8152600401610a2190612e97565b60405180910390fd5b506000908152600460205260409020546001600160a01b031690565b6000610a5182610e47565b9050806001600160a01b0316836001600160a01b03161415610a855760405162461bcd60e51b8152600401610a2190612eff565b336001600160a01b0382161480610aa15750610aa1813361182f565b610abd5760405162461bcd60e51b8152600401610a2190612f67565b610ac78383611d07565b505050565b600a546001600160a01b03163314610af65760405162461bcd60e51b8152600401610a2190612fa7565b61014e55565b600a546001600160a01b03163314610b265760405162461bcd60e51b8152600401610a2190612fa7565b600c80546001600160a01b0390921673ffffffffffffffffffffffffffffffffffffffff199283168117909155600f8054909216179055565b60006101505442118015610b7557506101505415155b905090565b600a546001600160a01b03163314610ba45760405162461bcd60e51b8152600401610a2190612fa7565b61014c805473ffffffffffffffffffffffffffffffffffffffff19166001600160a01b0392909216919091179055565b610bde3382611d82565b610bfa5760405162461bcd60e51b8152600401610a219061300f565b610ac7838383611e14565b6000610c1083610e7c565b8210610c2e5760405162461bcd60e51b8152600401610a2190613077565b506001600160a01b03919091166000908152600660209081526040808320938352929052205490565b600a546001600160a01b03163314610c815760405162461bcd60e51b8152600401610a2190612fa7565b61014c80547fffffffffffffffffffffff00ffffffffffffffffffffffffffffffffffffffff8116740100000000000000000000000000000000000000009182900460ff1615909102179055565b600a546001600160a01b03163314610cf95760405162461bcd60e51b8152600401610a2190612fa7565b604051600090339047908381818185875af1925050503d8060008114610d3b576040519150601f19603f3d011682016040523d82523d6000602084013e610d40565b606091505b5050905080610d615760405162461bcd60e51b8152600401610a21906130b9565b50565b610ac7838383604051806020016040528060008152506112fb565b6000818152600260205260408120546001600160a01b03161515610955565b6000610da960085490565b8210610dc75760405162461bcd60e51b8152600401610a2190613121565b60088281548110610dda57610dda613131565b90600052602060002001549050919050565b600a546001600160a01b03163314610e165760405162461bcd60e51b8152600401610a2190612fa7565b61015055565b6012816127108110610e2d57600080fd5b60209182820401919006915054906101000a900460ff1681565b6000818152600260205260408120546001600160a01b0316806109555760405162461bcd60e51b8152600401610a219061319f565b60006001600160a01b038216610ea45760405162461bcd60e51b8152600401610a2190613207565b506001600160a01b031660009081526003602052604090205490565b600a546001600160a01b03163314610eea5760405162461bcd60e51b8152600401610a2190612fa7565b610ef46000611f4e565b565b60006002600b541415610f1b5760405162461bcd60e51b8152600401610a2190613249565b6002600b55600a546001600160a01b03163314610f4a5760405162461bcd60e51b8152600401610a2190612fa7565b610f52610b5f565b610f6e5760405162461bcd60e51b8152600401610a219061328b565b61014f5460ff1615610f925760405162461bcd60e51b8152600401610a21906132cd565b610f9e603260026132f3565b821115610fbd5760405162461bcd60e51b8152600401610a219061336a565b60008383334244604051602001610fd89594939291906133b5565b60405160208183030381529060405280519060200120905060005b610ffe600285613408565b81101561110e57600061105386868080601f01602080910402602001604051908101604052809392919081815260200183838082843760009201919091525061104e9250869150600290506132f3565b611fad565b90508261106160208461341c565b6020811061107157611071613131565b1a601261ffff8316612710811061108a5761108a613131565b602091828204019190066101000a81548160ff021916908360ff1602179055506110be6110b43390565b8261ffff16611fe3565b6110c960208361341c565b601f14156110fb57826040516020016110e29190613434565b6040516020818303038152906040528051906020012092505b508061110681613446565b915050610ff3565b505061014f805460ff1916600190811790915590506001600b5592915050565b60606001805461096a90612e10565b600a546001600160a01b031633146111675760405162461bcd60e51b8152600401610a2190612fa7565b60005b8351811015611229576111af84828151811061118857611188613131565b60200260200101518483815181106111a2576111a2613131565b6020026020010151611fe3565b8181815181106111c1576111c1613131565b602002602001015160128483815181106111dd576111dd613131565b602002602001015161271081106111f6576111f6613131565b602091828204019190066101000a81548160ff021916908360ff160217905550808061122190613446565b91505061116a565b50505050565b61123a338383611ffd565b5050565b600a546001600160a01b031633146112685760405162461bcd60e51b8152600401610a2190612fa7565b600d80546001600160a01b0390921673ffffffffffffffffffffffffffffffffffffffff19928316811790915560108054909216179055565b600a546001600160a01b031633146112cb5760405162461bcd60e51b8152600401610a2190612fa7565b61014b805473ffffffffffffffffffffffffffffffffffffffff19166001600160a01b0392909216919091179055565b6113053383611d82565b6113215760405162461bcd60e51b8152600401610a219061300f565b611229848484846120a0565b6113356125a0565b604080516204e2008101918290529060129061271090826000855b825461010083900a900460ff168152602060019283018181049485019490930390920291018084116113505790505050505050905090565b6000818152600260205260409020546060906001600160a01b03166113bf5760405162461bcd60e51b8152600401610a21906134b9565b600c546001600160a01b03166113e357505060408051602081019091526000815290565b600f546001600160a01b0316635cc518ba83601281612710811061140957611409613131565b602091828204019190069054906101000a900460ff166040518363ffffffff1660e01b815260040161143c9291906134c9565b60006040518083038186803b15801561145457600080fd5b505afa158015611468573d6000803e3d6000fd5b505050506040513d6000823e601f3d908101601f19168201604052610955919081019061353c565b60006002600b5414156114b55760405162461bcd60e51b8152600401610a2190613249565b6002600b8190556114c79085906132f3565b86146114e55760405162461bcd60e51b8152600401610a21906135cf565b600087873388884244604051602001611504979695949392919061362c565b60405160208183030381529060405280519060200120905060005b8581101561174f5760006115708a8a8080601f01602080910402602001604051908101604052809392919081815260200183838082843760009201919091525061104e9250869150600290506132f3565b6011546040517f6352211e00000000000000000000000000000000000000000000000000000000815291925033916001600160a01b0390911690636352211e906115be908590600401613691565b60206040518083038186803b1580156115d657600080fd5b505afa1580156115ea573d6000803e3d6000fd5b505050506040513d601f19601f8201168201806040525081019061160e91906136aa565b6001600160a01b0316146116345760405162461bcd60e51b8152600401610a2190613723565b85858381811061164657611646613131565b9050602002013560011461166c5760405162461bcd60e51b8152600401610a2190613733565b600488888481811061168057611680613131565b9050602002013561169191906137ba565b60fc8461169f60208661341c565b602081106116af576116af613131565b6116bd939291901a166137c7565b60128261ffff1661271081106116d5576116d5613131565b602091828204019190066101000a81548160ff021916908360ff1602179055506116ff6110b43390565b61170a60208361341c565b601f141561173c57826040516020016117239190613434565b6040516020818303038152906040528051906020012092505b508061174781613446565b91505061151f565b506010546001600160a01b0316636b20c45433888888886040518663ffffffff1660e01b81526004016117869594939291906137f4565b600060405180830381600087803b1580156117a057600080fd5b505af11580156117b4573d6000803e3d6000fd5b5050505060019150506001600b559695505050505050565b600a546001600160a01b031633146117f65760405162461bcd60e51b8152600401610a2190612fa7565b600e80546001600160a01b0390921673ffffffffffffffffffffffffffffffffffffffff19928316811790915560118054909216179055565b61014c5460009074010000000000000000000000000000000000000000900460ff1661188457506001600160a01b0382811660009081526005602090815260408083209385168352929052205460ff16610955565b61014b546040517fc45527910000000000000000000000000000000000000000000000000000000081526001600160a01b039091169063c4552791906118ce9086906004016126ef565b60206040518083038186803b1580156118e657600080fd5b505afa1580156118fa573d6000803e3d6000fd5b505050506040513d601f19601f8201168201806040525081019061191e9190613854565b6001600160a01b0316826001600160a01b0316148061194b575061014c546001600160a01b038381169116145b8061196f57506001600160a01b038216600090815261014d602052604090205460ff165b8061199f57506001600160a01b0380841660009081526005602090815260408083209386168352929052205460ff165b9392505050565b600a546001600160a01b031633146119d05760405162461bcd60e51b8152600401610a2190612fa7565b6001600160a01b0381166119f65760405162461bcd60e51b8152600401610a21906138cd565b610d6181611f4e565b60006002600b541415611a245760405162461bcd60e51b8152600401610a2190613249565b6002600b55611a31610b5f565b611a4d5760405162461bcd60e51b8152600401610a219061328b565b3466b1a2bc2ec50000611a61600285613408565b611a6b91906132f3565b14611a885760405162461bcd60e51b8152600401610a219061390f565b61014e54611a97600284613408565b611aa033610e7c565b611aaa919061391f565b1115611ac85760405162461bcd60e51b8152600401610a219061398a565b6000838333344244604051602001611ae59695949392919061399a565b60405160208183030381529060405280519060200120905060005b83811015611bbf576000611b4b86868080601f016020809104026020016040519081016040528093929190818152602001838380828437600092019190915250869250611fad915050565b905082611b59600284613408565b60208110611b6957611b69613131565b1a601261ffff83166127108110611b8257611b82613131565b602091828204019190066101000a81548160ff021916908360ff160217905550611bac6110b43390565b50611bb860028261391f565b9050611b00565b5060019150506001600b5592915050565b600a546001600160a01b03163314611bfa5760405162461bcd60e51b8152600401610a2190612fa7565b6001600160a01b0316600090815261014d60205260409020805460ff19811660ff90911615179055565b60007fffffffff0000000000000000000000000000000000000000000000000000000082167f80ac58cd000000000000000000000000000000000000000000000000000000001480611cb757507fffffffff0000000000000000000000000000000000000000000000000000000082167f5b5e139f00000000000000000000000000000000000000000000000000000000145b8061095557507f01ffc9a7000000000000000000000000000000000000000000000000000000007fffffffff00000000000000000000000000000000000000000000000000000000831614610955565b6000818152600460205260409020805473ffffffffffffffffffffffffffffffffffffffff19166001600160a01b0384169081179091558190611d4982610e47565b6001600160a01b03167f8c5be1e5ebec7d5bd14f71427d1e84f3dd0314c0f7b2291e5b200ac8c7c3b92560405160405180910390a45050565b6000818152600260205260408120546001600160a01b0316611db65760405162461bcd60e51b8152600401610a2190613a3d565b6000611dc183610e47565b9050806001600160a01b0316846001600160a01b03161480611dfc5750836001600160a01b0316611df1846109ed565b6001600160a01b0316145b80611e0c5750611e0c818561182f565b949350505050565b826001600160a01b0316611e2782610e47565b6001600160a01b031614611e4d5760405162461bcd60e51b8152600401610a2190613aa5565b6001600160a01b038216611e735760405162461bcd60e51b8152600401610a2190613b0d565b611e7e8383836120d3565b611e89600082611d07565b6001600160a01b0383166000908152600360205260408120805460019290611eb2908490613b1d565b90915550506001600160a01b0382166000908152600360205260408120805460019290611ee090849061391f565b9091555050600081815260026020526040808220805473ffffffffffffffffffffffffffffffffffffffff19166001600160a01b0386811691821790925591518493918716917fddf252ad1be2c89b69c2b068fc378daa952ba7f163c4a11628f55a4df523b3ef91a4505050565b600a80546001600160a01b0383811673ffffffffffffffffffffffffffffffffffffffff19831681179093556040519116919082907f8be0079c531659141344cd1fd0a4f28419497f9722a3daafe3b4186f6b6457e090600090a35050565b6000611fba82600261391f565b83511015611fda5760405162461bcd60e51b8152600401610a2190613b66565b50016002015190565b61123a82826040518060200160405280600081525061218b565b816001600160a01b0316836001600160a01b0316141561202f5760405162461bcd60e51b8152600401610a2190613ba8565b6001600160a01b0383811660008181526005602090815260408083209487168084529490915290819020805460ff1916851515179055517f17307eab39ab6107e8899845ad3d59bd9653f200f220920489ca2b5937696c3190612093908590612626565b60405180910390a3505050565b6120ab848484611e14565b6120b7848484846121be565b6112295760405162461bcd60e51b8152600401610a2190613c10565b6001600160a01b03831661212e5761212981600880546000838152600960205260408120829055600182018355919091527ff3f7a9fe364faab93b216da50a3214154f22a0a2b415b23a84c8169e8b636ee30155565b612151565b816001600160a01b0316836001600160a01b031614612151576121518382612315565b6001600160a01b03821661216857610ac7816123b2565b826001600160a01b0316826001600160a01b031614610ac757610ac78282612461565b61219583836124a5565b6121a260008484846121be565b610ac75760405162461bcd60e51b8152600401610a2190613c10565b60006001600160a01b0384163b1561230a576040517f150b7a020000000000000000000000000000000000000000000000000000000081526001600160a01b0385169063150b7a029061221b903390899088908890600401613c20565b602060405180830381600087803b15801561223557600080fd5b505af1925050508015612265575060408051601f3d908101601f1916820190925261226291810190613c6f565b60015b6122bf573d808015612293576040519150601f19603f3d011682016040523d82523d6000602084013e612298565b606091505b5080516122b75760405162461bcd60e51b8152600401610a2190613c10565b805181602001fd5b7fffffffff00000000000000000000000000000000000000000000000000000000167f150b7a0200000000000000000000000000000000000000000000000000000000149050611e0c565b506001949350505050565b6000600161232284610e7c565b61232c9190613b1d565b60008381526007602052604090205490915080821461237f576001600160a01b03841660009081526006602090815260408083208584528252808320548484528184208190558352600790915290208190555b5060009182526007602090815260408084208490556001600160a01b039094168352600681528383209183525290812055565b6008546000906123c490600190613b1d565b600083815260096020526040812054600880549394509092849081106123ec576123ec613131565b90600052602060002001549050806008838154811061240d5761240d613131565b600091825260208083209091019290925582815260099091526040808220849055858252812055600880548061244557612445613c90565b6001900381819060005260206000200160009055905550505050565b600061246c83610e7c565b6001600160a01b039093166000908152600660209081526040808320868452825280832085905593825260079052919091209190915550565b6001600160a01b0382166124cb5760405162461bcd60e51b8152600401610a2190613cd6565b6000818152600260205260409020546001600160a01b0316156125005760405162461bcd60e51b8152600401610a2190613d18565b61250c600083836120d3565b6001600160a01b038216600090815260036020526040812080546001929061253590849061391f565b9091555050600081815260026020526040808220805473ffffffffffffffffffffffffffffffffffffffff19166001600160a01b03861690811790915590518392907fddf252ad1be2c89b69c2b068fc378daa952ba7f163c4a11628f55a4df523b3ef908290a45050565b604051806204e2000160405280612710906020820280368337509192915050565b7fffffffff0000000000000000000000000000000000000000000000000000000081165b8114610d6157600080fd5b8035610955816125c1565b60006020828403121561261057612610600080fd5b6000611e0c84846125f0565b8015155b82525050565b60208101610955828461261c565b60005b8381101561264f578181015183820152602001612637565b838111156112295750506000910152565b600061266a825190565b808452602084019350612681818560208601612634565b601f01601f19169290920192915050565b6020808252810161199f8184612660565b806125e5565b8035610955816126a3565b6000602082840312156126c9576126c9600080fd5b6000611e0c84846126a9565b60006001600160a01b038216610955565b612620816126d5565b6020810161095582846126e6565b6125e5816126d5565b8035610955816126fd565b6000806040838503121561272757612727600080fd5b60006127338585612706565b9250506020612744858286016126a9565b9150509250929050565b60006020828403121561276357612763600080fd5b6000611e0c8484612706565b80612620565b60208101610955828461276f565b60008060006060848603121561279b5761279b600080fd5b60006127a78686612706565b93505060206127b886828701612706565b92505060406127c9868287016126a9565b9150509250925092565b60ff8116612620565b6020810161095582846127d3565b60008083601f8401126127ff576127ff600080fd5b50813567ffffffffffffffff81111561281a5761281a600080fd5b60208301915083600182028301111561283557612835600080fd5b9250929050565b6000806020838503121561285257612852600080fd5b823567ffffffffffffffff81111561286c5761286c600080fd5b612878858286016127ea565b92509250509250929050565b634e487b7160e01b600052604160045260246000fd5b601f19601f830116810181811067ffffffffffffffff821117156128c0576128c0612884565b6040525050565b60006128d260405190565b90506128de828261289a565b919050565b600067ffffffffffffffff8211156128fd576128fd612884565b5060209081020190565b600061291a612915846128e3565b6128c7565b8381529050602080820190840283018581111561293957612939600080fd5b835b8181101561295b5761294d8782612706565b83526020928301920161293b565b5050509392505050565b600082601f83011261297957612979600080fd5b8135611e0c848260208601612907565b6000612997612915846128e3565b838152905060208082019084028301858111156129b6576129b6600080fd5b835b8181101561295b576129ca87826126a9565b8352602092830192016129b8565b600082601f8301126129ec576129ec600080fd5b8135611e0c848260208601612989565b60ff81166125e5565b8035610955816129fc565b6000612a1e612915846128e3565b83815290506020808201908402830185811115612a3d57612a3d600080fd5b835b8181101561295b57612a518782612a05565b835260209283019201612a3f565b600082601f830112612a7357612a73600080fd5b8135611e0c848260208601612a10565b600080600060608486031215612a9b57612a9b600080fd5b833567ffffffffffffffff811115612ab557612ab5600080fd5b612ac186828701612965565b935050602084013567ffffffffffffffff811115612ae157612ae1600080fd5b612aed868287016129d8565b925050604084013567ffffffffffffffff811115612b0d57612b0d600080fd5b6127c986828701612a5f565b8015156125e5565b803561095581612b19565b60008060408385031215612b4257612b42600080fd5b6000612b4e8585612706565b925050602061274485828601612b21565b600067ffffffffffffffff821115612b7957612b79612884565b601f19601f83011660200192915050565b82818337506000910152565b6000612ba461291584612b5f565b905082815260208101848484011115612bbf57612bbf600080fd5b612bca848285612b8a565b509392505050565b600082601f830112612be657612be6600080fd5b8135611e0c848260208601612b96565b60008060008060808587031215612c0f57612c0f600080fd5b6000612c1b8787612706565b9450506020612c2c87828801612706565b9350506040612c3d878288016126a9565b925050606085013567ffffffffffffffff811115612c5d57612c5d600080fd5b612c6987828801612bd2565b91505092959194509250565b612c7f82826127d3565b5060200190565b60200190565b6127108160005b82811015612cb8578151612ca78682612c75565b955050602082019150600101612c93565b5050505050565b6204e20081016109558284612c8c565b60008083601f840112612ce457612ce4600080fd5b50813567ffffffffffffffff811115612cff57612cff600080fd5b60208301915083602082028301111561283557612835600080fd5b60008060008060008060608789031215612d3657612d36600080fd5b863567ffffffffffffffff811115612d5057612d50600080fd5b612d5c89828a016127ea565b9650965050602087013567ffffffffffffffff811115612d7e57612d7e600080fd5b612d8a89828a01612ccf565b9450945050604087013567ffffffffffffffff811115612dac57612dac600080fd5b612db889828a01612ccf565b92509250509295509295509295565b60008060408385031215612ddd57612ddd600080fd5b6000612de98585612706565b925050602061274485828601612706565b634e487b7160e01b600052602260045260246000fd5b600281046001821680612e2457607f821691505b60208210811415612e3757612e37612dfa565b50919050565b602c8152602081017f4552433732313a20617070726f76656420717565727920666f72206e6f6e657881527f697374656e7420746f6b656e0000000000000000000000000000000000000000602082015290505b60400190565b6020808252810161095581612e3d565b60218152602081017f4552433732313a20617070726f76616c20746f2063757272656e74206f776e6581527f720000000000000000000000000000000000000000000000000000000000000060208201529050612e91565b6020808252810161095581612ea7565b60388152602081017f4552433732313a20617070726f76652063616c6c6572206973206e6f74206f7781527f6e6572206e6f7220617070726f76656420666f7220616c6c000000000000000060208201529050612e91565b6020808252810161095581612f0f565b60208082527f4f776e61626c653a2063616c6c6572206973206e6f7420746865206f776e65729101908152612c86565b6020808252810161095581612f77565b60318152602081017f4552433732313a207472616e736665722063616c6c6572206973206e6f74206f81527f776e6572206e6f7220617070726f76656400000000000000000000000000000060208201529050612e91565b6020808252810161095581612fb7565b602b8152602081017f455243373231456e756d657261626c653a206f776e657220696e646578206f7581527f74206f6620626f756e647300000000000000000000000000000000000000000060208201529050612e91565b602080825281016109558161301f565b60118152602081017f5769746864726177616c206661696c656400000000000000000000000000000081529050612c86565b6020808252810161095581613087565b602c8152602081017f455243373231456e756d657261626c653a20676c6f62616c20696e646578206f81527f7574206f6620626f756e6473000000000000000000000000000000000000000060208201529050612e91565b60208082528101610955816130c9565b634e487b7160e01b600052603260045260246000fd5b60298152602081017f4552433732313a206f776e657220717565727920666f72206e6f6e657869737481527f656e7420746f6b656e000000000000000000000000000000000000000000000060208201529050612e91565b6020808252810161095581613147565b602a8152602081017f4552433732313a2062616c616e636520717565727920666f7220746865207a6581527f726f20616464726573730000000000000000000000000000000000000000000060208201529050612e91565b60208082528101610955816131af565b601f8152602081017f5265656e7472616e637947756172643a207265656e7472616e742063616c6c0081529050612c86565b6020808252810161095581613217565b60148152602081017f5075626c69632073616c65206e6f74206f70656e00000000000000000000000081529050612c86565b6020808252810161095581613259565b60138152602081017f446f6e277420626520746f6f206772656564790000000000000000000000000081529050612c86565b602080825281016109558161329b565b634e487b7160e01b600052601160045260246000fd5b600081600019048311821515161561330d5761330d6132dd565b500290565b603f8152602081017f4576656e20696620796f7520617265206120666f756e6465722c20796f75206481527f6f6e277420646573657276652074686174206d616e7920447265616d6572730060208201529050612e91565b6020808252810161095581613312565b613385828483612b8a565b500190565b60006109558260601b90565b60006109558261338a565b6126206133ad826126d5565b613396565b90565b6133c081868861337a565b90506133cc81856133a1565b6014016133d9818461276f565b6020016133e6818361276f565b60200195945050505050565b634e487b7160e01b600052601260045260246000fd5b600082613417576134176133f2565b500490565b815b915060008261342f5761342f6133f2565b500690565b61343e818361276f565b602001919050565b600060001982141561345a5761345a6132dd565b5060010190565b60278152602081017f4552433732313a2055524920717565727920666f72206e6f6e6578697374656e81527f7420746f6b656e0000000000000000000000000000000000000000000000000060208201529050612e91565b6020808252810161095581613461565b604081016134d7828561276f565b61199f60208301846127d3565b60006134f261291584612b5f565b90508281526020810184848401111561350d5761350d600080fd5b612bca848285612634565b600082601f83011261352c5761352c600080fd5b8151611e0c8482602086016134e4565b60006020828403121561355157613551600080fd5b815167ffffffffffffffff81111561356b5761356b600080fd5b611e0c84828501613518565b60288152602081017f456163682072756e6e6572206e65656473206f6e6520616e64206f6e6c79206f81527f6e652063616e647900000000000000000000000000000000000000000000000060208201529050612e91565b6020808252810161095581613577565b825b925060007f07ffffffffffffffffffffffffffffffffffffffffffffffffffffffffffffff83111561361557613615600080fd5b602083029250613626838584612b8a565b50500190565b61363781888a61337a565b905061364381876133a1565b6014016136518185876135df565b905061365d818461276f565b60200161366a818361276f565b602001979650505050505050565b60006109556133b261ffff841681565b61262081613678565b602081016109558284613688565b8051610955816126fd565b6000602082840312156136bf576136bf600080fd5b6000611e0c848461369f565b60378152602081017f596f752063616e6e6f7420676976652063616e6469657320746f20612072756e81527f6e6572207468617420796f7520646f206e6f74206f776e00000000000000000060208201529050612e91565b60208082528101610955816136cb565b6020808252810161095581604f81527f596f75722072756e6e6572206e65656473206f6e6520616e64206f6e6c79206f60208201527f6e652063616e64792c2077686f206b6e6f7773207768617420636f756c64206860408201527f617070656e206f74686572776973650000000000000000000000000000000000606082015260800190565b60ff90811690821661341e565b60ff8116905060ff8216915060008260ff03821115613385576133856132dd565b818352602083016135e1565b6060810161380282886126e6565b81810360208301526138158186886137e8565b9050818103604083015261382a8184866137e8565b979650505050505050565b6000610955826126d5565b6125e581613835565b805161095581613840565b60006020828403121561386957613869600080fd5b6000611e0c8484613849565b60268152602081017f4f776e61626c653a206e6577206f776e657220697320746865207a65726f206181527f646472657373000000000000000000000000000000000000000000000000000060208201529050612e91565b6020808252810161095581613875565b601d8152602081017f596f75206861766520746f2070617920746865206261696c20626f6e6400000081529050612c86565b60208082528101610955816138dd565b60008219821115613385576133856132dd565b60318152602081017f596f757220686f6d6520697320746f20736d616c6c20746f2077656c636f6d6581527f20736f206d616e7920647265616d65727300000000000000000000000000000060208201529050612e91565b6020808252810161095581613932565b6139a581878961337a565b90506139b181866133a1565b6014016139be818561276f565b6020016139cb818461276f565b6020016139d8818361276f565b6020019695505050505050565b602c8152602081017f4552433732313a206f70657261746f7220717565727920666f72206e6f6e657881527f697374656e7420746f6b656e000000000000000000000000000000000000000060208201529050612e91565b60208082528101610955816139e5565b60298152602081017f4552433732313a207472616e73666572206f6620746f6b656e2074686174206981527f73206e6f74206f776e000000000000000000000000000000000000000000000060208201529050612e91565b6020808252810161095581613a4d565b60248152602081017f4552433732313a207472616e7366657220746f20746865207a65726f2061646481527f726573730000000000000000000000000000000000000000000000000000000060208201529050612e91565b6020808252810161095581613ab5565b600082821015613b2f57613b2f6132dd565b500390565b60148152602081017f746f55696e7431365f6f75744f66426f756e647300000000000000000000000081529050612c86565b6020808252810161095581613b34565b60198152602081017f4552433732313a20617070726f766520746f2063616c6c65720000000000000081529050612c86565b6020808252810161095581613b76565b60328152602081017f4552433732313a207472616e7366657220746f206e6f6e20455243373231526581527f63656976657220696d706c656d656e746572000000000000000000000000000060208201529050612e91565b6020808252810161095581613bb8565b60808101613c2e82876126e6565b613c3b60208301866126e6565b613c48604083018561276f565b8181036060830152613c5a8184612660565b9695505050505050565b8051610955816125c1565b600060208284031215613c8457613c84600080fd5b6000611e0c8484613c64565b634e487b7160e01b600052603160045260246000fd5b60208082527f4552433732313a206d696e7420746f20746865207a65726f20616464726573739101908152612c86565b6020808252810161095581613ca6565b601c8152602081017f4552433732313a20746f6b656e20616c7265616479206d696e7465640000000081529050612c86565b6020808252810161095581613ce656fea2646970667358221220c856cbcffe9e33863a98e3a3b7f85466c5eaeffcf57c92bce271e4d7922715b864736f6c63430008080033",
  "devdoc": {
    "kind": "dev",
    "methods": {
      "approve(address,uint256)": {
        "details": "See {IERC721-approve}."
      },
      "balanceOf(address)": {
        "details": "See {IERC721-balanceOf}."
      },
      "getApproved(uint256)": {
        "details": "See {IERC721-getApproved}."
      },
      "isApprovedForAll(address,address)": {
        "details": "Modified for opensea and looksrare pre-approve so users can make truly gas less sales."
      },
      "mintBatchRunnersAccess(bytes,uint256[],uint256[])": {
        "details": "This mint function wraps the safeMintBatch to:      1) check that the minter owns the runner 2) use the candies 3) burn the candies",
        "params": {
          "candyAmounts": "should be an array of 1",
          "candyIds": "the same indexes as above but as a uint8 array",
          "tokenIds": "a bytes interpreted as an array of uint16"
        }
      },
      "name()": {
        "details": "See {IERC721Metadata-name}."
      },
      "owner()": {
        "details": "Returns the address of the current owner."
      },
      "ownerOf(uint256)": {
        "details": "See {IERC721-ownerOf}."
      },
      "renounceOwnership()": {
        "details": "Leaves the contract without owner. It will not be possible to call `onlyOwner` functions anymore. Can only be called by the current owner. NOTE: Renouncing ownership will leave the contract without an owner, thereby removing any functionality that is only available to the owner."
      },
      "safeTransferFrom(address,address,uint256)": {
        "details": "See {IERC721-safeTransferFrom}."
      },
      "safeTransferFrom(address,address,uint256,bytes)": {
        "details": "See {IERC721-safeTransferFrom}."
      },
      "setApprovalForAll(address,bool)": {
        "details": "See {IERC721-setApprovalForAll}."
      },
      "supportsInterface(bytes4)": {
        "details": "See {IERC165-supportsInterface}."
      },
      "symbol()": {
        "details": "See {IERC721Metadata-symbol}."
      },
      "tokenByIndex(uint256)": {
        "details": "See {IERC721Enumerable-tokenByIndex}."
      },
      "tokenOfOwnerByIndex(address,uint256)": {
        "details": "See {IERC721Enumerable-tokenOfOwnerByIndex}."
      },
      "totalSupply()": {
        "details": "See {IERC721Enumerable-totalSupply}."
      },
      "transferFrom(address,address,uint256)": {
        "details": "See {IERC721-transferFrom}."
      },
      "transferOwnership(address)": {
        "details": "Transfers ownership of the contract to a new account (`newOwner`). Can only be called by the current owner."
      }
    },
    "stateVariables": {
      "opensea": {
        "details": "Copied from \\@naomsa's contract"
      }
    },
    "version": 1
  },
  "userdoc": {
    "kind": "user",
    "methods": {
      "flipProxyState(address)": {
        "notice": "Approve the communication and interaction with cross-collection interactions."
      },
      "looksrare()": {
        "notice": "LooksRare marketplace transfer manager."
      },
      "marketplacesApproved()": {
        "notice": "Check if marketplaces pre-approve is enabled."
      },
      "opensea()": {
        "notice": "OpenSea proxy registry."
      },
      "setLooksrare(address)": {
        "notice": "Set looksrare to `looksrare_`."
      },
      "setOpensea(address)": {
        "notice": "Set opensea to `opensea_`."
      },
      "toggleMarketplacesApproved()": {
        "notice": "Toggle pre-approve feature state for sender."
      }
    },
    "version": 1
  },
  "storageLayout": {
    "storage": [
      {
        "astId": 1802,
        "contract": "contracts/dreamers/ChainDreamers.sol:ChainDreamers",
        "label": "_name",
        "offset": 0,
        "slot": "0",
        "type": "t_string_storage"
      },
      {
        "astId": 1804,
        "contract": "contracts/dreamers/ChainDreamers.sol:ChainDreamers",
        "label": "_symbol",
        "offset": 0,
        "slot": "1",
        "type": "t_string_storage"
      },
      {
        "astId": 1808,
        "contract": "contracts/dreamers/ChainDreamers.sol:ChainDreamers",
        "label": "_owners",
        "offset": 0,
        "slot": "2",
        "type": "t_mapping(t_uint256,t_address)"
      },
      {
        "astId": 1812,
        "contract": "contracts/dreamers/ChainDreamers.sol:ChainDreamers",
        "label": "_balances",
        "offset": 0,
        "slot": "3",
        "type": "t_mapping(t_address,t_uint256)"
      },
      {
        "astId": 1816,
        "contract": "contracts/dreamers/ChainDreamers.sol:ChainDreamers",
        "label": "_tokenApprovals",
        "offset": 0,
        "slot": "4",
        "type": "t_mapping(t_uint256,t_address)"
      },
      {
        "astId": 1822,
        "contract": "contracts/dreamers/ChainDreamers.sol:ChainDreamers",
        "label": "_operatorApprovals",
        "offset": 0,
        "slot": "5",
        "type": "t_mapping(t_address,t_mapping(t_address,t_bool))"
      },
      {
        "astId": 2756,
        "contract": "contracts/dreamers/ChainDreamers.sol:ChainDreamers",
        "label": "_ownedTokens",
        "offset": 0,
        "slot": "6",
        "type": "t_mapping(t_address,t_mapping(t_uint256,t_uint256))"
      },
      {
        "astId": 2760,
        "contract": "contracts/dreamers/ChainDreamers.sol:ChainDreamers",
        "label": "_ownedTokensIndex",
        "offset": 0,
        "slot": "7",
        "type": "t_mapping(t_uint256,t_uint256)"
      },
      {
        "astId": 2763,
        "contract": "contracts/dreamers/ChainDreamers.sol:ChainDreamers",
        "label": "_allTokens",
        "offset": 0,
        "slot": "8",
        "type": "t_array(t_uint256)dyn_storage"
      },
      {
        "astId": 2767,
        "contract": "contracts/dreamers/ChainDreamers.sol:ChainDreamers",
        "label": "_allTokensIndex",
        "offset": 0,
        "slot": "9",
        "type": "t_mapping(t_uint256,t_uint256)"
      },
      {
        "astId": 225,
        "contract": "contracts/dreamers/ChainDreamers.sol:ChainDreamers",
        "label": "_owner",
        "offset": 0,
        "slot": "10",
        "type": "t_address"
      },
      {
        "astId": 425,
        "contract": "contracts/dreamers/ChainDreamers.sol:ChainDreamers",
        "label": "_status",
        "offset": 0,
        "slot": "11",
        "type": "t_uint256"
      },
      {
        "astId": 4183,
        "contract": "contracts/dreamers/ChainDreamers.sol:ChainDreamers",
        "label": "renderingContractAddress",
        "offset": 0,
        "slot": "12",
        "type": "t_address"
      },
      {
        "astId": 4185,
        "contract": "contracts/dreamers/ChainDreamers.sol:ChainDreamers",
        "label": "candyShopAddress",
        "offset": 0,
        "slot": "13",
        "type": "t_address"
      },
      {
        "astId": 4187,
        "contract": "contracts/dreamers/ChainDreamers.sol:ChainDreamers",
        "label": "chainRunnersAddress",
        "offset": 0,
        "slot": "14",
        "type": "t_address"
      },
      {
        "astId": 4190,
        "contract": "contracts/dreamers/ChainDreamers.sol:ChainDreamers",
        "label": "renderer",
        "offset": 0,
        "slot": "15",
        "type": "t_contract(IDreamersRenderer)8304"
      },
      {
        "astId": 4193,
        "contract": "contracts/dreamers/ChainDreamers.sol:ChainDreamers",
        "label": "candyShop",
        "offset": 0,
        "slot": "16",
        "type": "t_contract(ICandyShop)8254"
      },
      {
        "astId": 4196,
        "contract": "contracts/dreamers/ChainDreamers.sol:ChainDreamers",
        "label": "chainRunners",
        "offset": 0,
        "slot": "17",
        "type": "t_contract(IChainRunners)8271"
      },
      {
        "astId": 4200,
        "contract": "contracts/dreamers/ChainDreamers.sol:ChainDreamers",
        "label": "dreamersCandies",
        "offset": 0,
        "slot": "18",
        "type": "t_array(t_uint8)10000_storage"
      },
      {
        "astId": 4206,
        "contract": "contracts/dreamers/ChainDreamers.sol:ChainDreamers",
        "label": "opensea",
        "offset": 0,
        "slot": "331",
        "type": "t_address"
      },
      {
        "astId": 4209,
        "contract": "contracts/dreamers/ChainDreamers.sol:ChainDreamers",
        "label": "looksrare",
        "offset": 0,
        "slot": "332",
        "type": "t_address"
      },
      {
        "astId": 4213,
        "contract": "contracts/dreamers/ChainDreamers.sol:ChainDreamers",
        "label": "marketplacesApproved",
        "offset": 20,
        "slot": "332",
        "type": "t_bool"
      },
      {
        "astId": 4217,
        "contract": "contracts/dreamers/ChainDreamers.sol:ChainDreamers",
        "label": "proxyToApproved",
        "offset": 0,
        "slot": "333",
        "type": "t_mapping(t_address,t_bool)"
      },
      {
        "astId": 4322,
        "contract": "contracts/dreamers/ChainDreamers.sol:ChainDreamers",
        "label": "maxDreamersMintPublicSale",
        "offset": 0,
        "slot": "334",
        "type": "t_uint256"
      },
      {
        "astId": 4331,
        "contract": "contracts/dreamers/ChainDreamers.sol:ChainDreamers",
        "label": "foundersMinted",
        "offset": 0,
        "slot": "335",
        "type": "t_bool"
      },
      {
        "astId": 4333,
        "contract": "contracts/dreamers/ChainDreamers.sol:ChainDreamers",
        "label": "publicSaleStartTimestamp",
        "offset": 0,
        "slot": "336",
        "type": "t_uint256"
      }
    ],
    "types": {
      "t_address": {
        "encoding": "inplace",
        "label": "address",
        "numberOfBytes": "20"
      },
      "t_array(t_uint256)dyn_storage": {
        "base": "t_uint256",
        "encoding": "dynamic_array",
        "label": "uint256[]",
        "numberOfBytes": "32"
      },
      "t_array(t_uint8)10000_storage": {
        "base": "t_uint8",
        "encoding": "inplace",
        "label": "uint8[10000]",
        "numberOfBytes": "10016"
      },
      "t_bool": {
        "encoding": "inplace",
        "label": "bool",
        "numberOfBytes": "1"
      },
      "t_contract(ICandyShop)8254": {
        "encoding": "inplace",
        "label": "contract ICandyShop",
        "numberOfBytes": "20"
      },
      "t_contract(IChainRunners)8271": {
        "encoding": "inplace",
        "label": "contract IChainRunners",
        "numberOfBytes": "20"
      },
      "t_contract(IDreamersRenderer)8304": {
        "encoding": "inplace",
        "label": "contract IDreamersRenderer",
        "numberOfBytes": "20"
      },
      "t_mapping(t_address,t_bool)": {
        "encoding": "mapping",
        "key": "t_address",
        "label": "mapping(address => bool)",
        "numberOfBytes": "32",
        "value": "t_bool"
      },
      "t_mapping(t_address,t_mapping(t_address,t_bool))": {
        "encoding": "mapping",
        "key": "t_address",
        "label": "mapping(address => mapping(address => bool))",
        "numberOfBytes": "32",
        "value": "t_mapping(t_address,t_bool)"
      },
      "t_mapping(t_address,t_mapping(t_uint256,t_uint256))": {
        "encoding": "mapping",
        "key": "t_address",
        "label": "mapping(address => mapping(uint256 => uint256))",
        "numberOfBytes": "32",
        "value": "t_mapping(t_uint256,t_uint256)"
      },
      "t_mapping(t_address,t_uint256)": {
        "encoding": "mapping",
        "key": "t_address",
        "label": "mapping(address => uint256)",
        "numberOfBytes": "32",
        "value": "t_uint256"
      },
      "t_mapping(t_uint256,t_address)": {
        "encoding": "mapping",
        "key": "t_uint256",
        "label": "mapping(uint256 => address)",
        "numberOfBytes": "32",
        "value": "t_address"
      },
      "t_mapping(t_uint256,t_uint256)": {
        "encoding": "mapping",
        "key": "t_uint256",
        "label": "mapping(uint256 => uint256)",
        "numberOfBytes": "32",
        "value": "t_uint256"
      },
      "t_string_storage": {
        "encoding": "bytes",
        "label": "string",
        "numberOfBytes": "32"
      },
      "t_uint256": {
        "encoding": "inplace",
        "label": "uint256",
        "numberOfBytes": "32"
      },
      "t_uint8": {
        "encoding": "inplace",
        "label": "uint8",
        "numberOfBytes": "1"
      }
    }
  }
}