{
  "address": "0xC25279e7C80fb331B0434Fc860ea61f46b1fC635",
  "abi": [
    {
      "inputs": [
        {
          "internalType": "address",
          "name": "_rendererAddress",
          "type": "address"
        },
        {
          "internalType": "address",
          "name": "_runnersTokenAddress",
          "type": "address"
        }
      ],
      "stateMutability": "nonpayable",
      "type": "constructor"
    },
    {
      "inputs": [
        {
          "internalType": "uint256",
          "name": "_size",
          "type": "uint256"
        },
        {
          "internalType": "uint256",
          "name": "_start",
          "type": "uint256"
        },
        {
          "internalType": "uint256",
          "name": "_end",
          "type": "uint256"
        }
      ],
      "name": "InvalidCodeAtRange",
      "type": "error"
    },
    {
      "inputs": [],
      "name": "WriteError",
      "type": "error"
    },
    {
      "anonymous": false,
      "inputs": [
        {
          "indexed": true,
          "internalType": "address",
          "name": "previousOwner",
          "type": "address"
        },
        {
          "indexed": true,
          "internalType": "address",
          "name": "newOwner",
          "type": "address"
        }
      ],
      "name": "OwnershipTransferred",
      "type": "event"
    },
    {
      "inputs": [],
      "name": "BITS_PER_D_ATTRIBUTE",
      "outputs": [
        {
          "internalType": "uint8",
          "name": "",
          "type": "uint8"
        }
      ],
      "stateMutability": "view",
      "type": "function"
    },
    {
      "inputs": [],
      "name": "BITS_PER_D_INDEX",
      "outputs": [
        {
          "internalType": "uint8",
          "name": "",
          "type": "uint8"
        }
      ],
      "stateMutability": "view",
      "type": "function"
    },
    {
      "inputs": [],
      "name": "BITS_PER_FILL_INDEX",
      "outputs": [
        {
          "internalType": "uint8",
          "name": "",
          "type": "uint8"
        }
      ],
      "stateMutability": "view",
      "type": "function"
    },
    {
      "inputs": [],
      "name": "D_ATTRIBUTE_PALETTE",
      "outputs": [
        {
          "internalType": "bytes8",
          "name": "",
          "type": "bytes8"
        }
      ],
      "stateMutability": "view",
      "type": "function"
    },
    {
      "inputs": [],
      "name": "D_ATTRIBUTE_PARAMETERS_COUNT",
      "outputs": [
        {
          "internalType": "bytes8",
          "name": "",
          "type": "bytes8"
        }
      ],
      "stateMutability": "view",
      "type": "function"
    },
    {
      "inputs": [],
      "name": "FILL_TAG",
      "outputs": [
        {
          "internalType": "bytes",
          "name": "",
          "type": "bytes"
        }
      ],
      "stateMutability": "view",
      "type": "function"
    },
    {
      "inputs": [],
      "name": "HASHTAG",
      "outputs": [
        {
          "internalType": "bytes",
          "name": "",
          "type": "bytes"
        }
      ],
      "stateMutability": "view",
      "type": "function"
    },
    {
      "inputs": [],
      "name": "NONE_COLOR",
      "outputs": [
        {
          "internalType": "bytes3",
          "name": "",
          "type": "bytes3"
        }
      ],
      "stateMutability": "view",
      "type": "function"
    },
    {
      "inputs": [],
      "name": "NUM_LAYERS",
      "outputs": [
        {
          "internalType": "uint8",
          "name": "",
          "type": "uint8"
        }
      ],
      "stateMutability": "view",
      "type": "function"
    },
    {
      "inputs": [],
      "name": "NUM_RUNNERS",
      "outputs": [
        {
          "internalType": "uint16",
          "name": "",
          "type": "uint16"
        }
      ],
      "stateMutability": "view",
      "type": "function"
    },
    {
      "inputs": [],
      "name": "PATH_TAG_END",
      "outputs": [
        {
          "internalType": "bytes",
          "name": "",
          "type": "bytes"
        }
      ],
      "stateMutability": "view",
      "type": "function"
    },
    {
      "inputs": [],
      "name": "PATH_TAG_START",
      "outputs": [
        {
          "internalType": "bytes",
          "name": "",
          "type": "bytes"
        }
      ],
      "stateMutability": "view",
      "type": "function"
    },
    {
      "inputs": [],
      "name": "SPACE",
      "outputs": [
        {
          "internalType": "bytes",
          "name": "",
          "type": "bytes"
        }
      ],
      "stateMutability": "view",
      "type": "function"
    },
    {
      "inputs": [],
      "name": "STROKE_TAG",
      "outputs": [
        {
          "internalType": "bytes",
          "name": "",
          "type": "bytes"
        }
      ],
      "stateMutability": "view",
      "type": "function"
    },
    {
      "inputs": [],
      "name": "SVG_TAG_END",
      "outputs": [
        {
          "internalType": "bytes",
          "name": "",
          "type": "bytes"
        }
      ],
      "stateMutability": "view",
      "type": "function"
    },
    {
      "inputs": [],
      "name": "SVG_TAG_START",
      "outputs": [
        {
          "internalType": "bytes",
          "name": "",
          "type": "bytes"
        }
      ],
      "stateMutability": "view",
      "type": "function"
    },
    {
      "inputs": [
        {
          "internalType": "uint256",
          "name": "",
          "type": "uint256"
        },
        {
          "internalType": "uint256",
          "name": "",
          "type": "uint256"
        },
        {
          "internalType": "uint256",
          "name": "",
          "type": "uint256"
        }
      ],
      "name": "WEIGHTS",
      "outputs": [
        {
          "internalType": "uint16",
          "name": "",
          "type": "uint16"
        }
      ],
      "stateMutability": "view",
      "type": "function"
    },
    {
      "inputs": [
        {
          "internalType": "uint256",
          "name": "",
          "type": "uint256"
        }
      ],
      "name": "dPalette",
      "outputs": [
        {
          "internalType": "address",
          "name": "",
          "type": "address"
        }
      ],
      "stateMutability": "view",
      "type": "function"
    },
    {
      "inputs": [],
      "name": "dPaletteIndexes",
      "outputs": [
        {
          "internalType": "address",
          "name": "",
          "type": "address"
        }
      ],
      "stateMutability": "view",
      "type": "function"
    },
    {
      "inputs": [],
      "name": "fillPalette",
      "outputs": [
        {
          "internalType": "address",
          "name": "",
          "type": "address"
        }
      ],
      "stateMutability": "view",
      "type": "function"
    },
    {
      "inputs": [
        {
          "internalType": "bytes",
          "name": "dEncodedBytes",
          "type": "bytes"
        }
      ],
      "name": "getD",
      "outputs": [
        {
          "internalType": "string",
          "name": "",
          "type": "string"
        }
      ],
      "stateMutability": "pure",
      "type": "function"
    },
    {
      "inputs": [
        {
          "internalType": "uint16",
          "name": "_index",
          "type": "uint16"
        }
      ],
      "name": "getDBytes",
      "outputs": [
        {
          "internalType": "bytes",
          "name": "",
          "type": "bytes"
        }
      ],
      "stateMutability": "view",
      "type": "function"
    },
    {
      "inputs": [
        {
          "internalType": "uint16",
          "name": "_index",
          "type": "uint16"
        }
      ],
      "name": "getDIndex",
      "outputs": [
        {
          "internalType": "uint32",
          "name": "",
          "type": "uint32"
        },
        {
          "internalType": "uint32",
          "name": "",
          "type": "uint32"
        }
      ],
      "stateMutability": "view",
      "type": "function"
    },
    {
      "inputs": [
        {
          "internalType": "uint16",
          "name": "_index",
          "type": "uint16"
        }
      ],
      "name": "getFill",
      "outputs": [
        {
          "internalType": "string",
          "name": "",
          "type": "string"
        }
      ],
      "stateMutability": "view",
      "type": "function"
    },
    {
      "inputs": [
        {
          "components": [
            {
              "internalType": "uint16",
              "name": "dIndex",
              "type": "uint16"
            },
            {
              "internalType": "uint16",
              "name": "fillIndex",
              "type": "uint16"
            },
            {
              "internalType": "bool",
              "name": "stroke",
              "type": "bool"
            }
          ],
          "internalType": "struct DreamersRenderer.Trait[]",
          "name": "traits",
          "type": "tuple[]"
        }
      ],
      "name": "getSvg",
      "outputs": [
        {
          "internalType": "string",
          "name": "",
          "type": "string"
        }
      ],
      "stateMutability": "view",
      "type": "function"
    },
    {
      "inputs": [
        {
          "internalType": "uint256",
          "name": "runnerDna",
          "type": "uint256"
        },
        {
          "internalType": "uint8",
          "name": "candy",
          "type": "uint8"
        }
      ],
      "name": "getTokenData",
      "outputs": [
        {
          "internalType": "uint16[13]",
          "name": "traitIndexes",
          "type": "uint16[13]"
        }
      ],
      "stateMutability": "view",
      "type": "function"
    },
    {
      "inputs": [
        {
          "internalType": "uint16",
          "name": "_index",
          "type": "uint16"
        }
      ],
      "name": "getTrait",
      "outputs": [
        {
          "components": [
            {
              "internalType": "uint16",
              "name": "dIndex",
              "type": "uint16"
            },
            {
              "internalType": "uint16",
              "name": "fillIndex",
              "type": "uint16"
            },
            {
              "internalType": "bool",
              "name": "stroke",
              "type": "bool"
            }
          ],
          "internalType": "struct DreamersRenderer.Trait[]",
          "name": "",
          "type": "tuple[]"
        }
      ],
      "stateMutability": "view",
      "type": "function"
    },
    {
      "inputs": [
        {
          "internalType": "uint16",
          "name": "_layerIndex",
          "type": "uint16"
        },
        {
          "internalType": "uint16",
          "name": "_itemIndex",
          "type": "uint16"
        }
      ],
      "name": "getTraitIndex",
      "outputs": [
        {
          "internalType": "uint16",
          "name": "",
          "type": "uint16"
        }
      ],
      "stateMutability": "view",
      "type": "function"
    },
    {
      "inputs": [
        {
          "internalType": "uint16[13]",
          "name": "_index",
          "type": "uint16[13]"
        }
      ],
      "name": "getTraits",
      "outputs": [
        {
          "components": [
            {
              "internalType": "uint16",
              "name": "dIndex",
              "type": "uint16"
            },
            {
              "internalType": "uint16",
              "name": "fillIndex",
              "type": "uint16"
            },
            {
              "internalType": "bool",
              "name": "stroke",
              "type": "bool"
            }
          ],
          "internalType": "struct DreamersRenderer.Trait[]",
          "name": "",
          "type": "tuple[]"
        }
      ],
      "stateMutability": "view",
      "type": "function"
    },
    {
      "inputs": [
        {
          "internalType": "uint256",
          "name": "tokenId",
          "type": "uint256"
        },
        {
          "internalType": "uint8",
          "name": "candy",
          "type": "uint8"
        }
      ],
      "name": "imageURI",
      "outputs": [
        {
          "internalType": "string",
          "name": "",
          "type": "string"
        }
      ],
      "stateMutability": "view",
      "type": "function"
    },
    {
      "inputs": [],
      "name": "owner",
      "outputs": [
        {
          "internalType": "address",
          "name": "",
          "type": "address"
        }
      ],
      "stateMutability": "view",
      "type": "function"
    },
    {
      "inputs": [],
      "name": "renounceOwnership",
      "outputs": [],
      "stateMutability": "nonpayable",
      "type": "function"
    },
    {
      "inputs": [
        {
          "internalType": "bytes[]",
          "name": "_pathPalette",
          "type": "bytes[]"
        }
      ],
      "name": "setDPalette",
      "outputs": [],
      "stateMutability": "nonpayable",
      "type": "function"
    },
    {
      "inputs": [
        {
          "internalType": "bytes",
          "name": "_pathPaletteIndex",
          "type": "bytes"
        }
      ],
      "name": "setDPaletteIndex",
      "outputs": [],
      "stateMutability": "nonpayable",
      "type": "function"
    },
    {
      "inputs": [
        {
          "internalType": "bytes",
          "name": "_fillPalette",
          "type": "bytes"
        }
      ],
      "name": "setFillPalette",
      "outputs": [],
      "stateMutability": "nonpayable",
      "type": "function"
    },
    {
      "inputs": [
        {
          "internalType": "bytes",
          "name": "_layerIndexes",
          "type": "bytes"
        }
      ],
      "name": "setLayerIndexes",
      "outputs": [],
      "stateMutability": "nonpayable",
      "type": "function"
    },
    {
      "inputs": [
        {
          "internalType": "bytes",
          "name": "_traitPalette",
          "type": "bytes"
        }
      ],
      "name": "setTraitPalette",
      "outputs": [],
      "stateMutability": "nonpayable",
      "type": "function"
    },
    {
      "inputs": [
        {
          "internalType": "bytes",
          "name": "_traitPaletteIndex",
          "type": "bytes"
        }
      ],
      "name": "setTraitPaletteIndex",
      "outputs": [],
      "stateMutability": "nonpayable",
      "type": "function"
    },
    {
      "inputs": [
        {
          "internalType": "uint256",
          "name": "_number",
          "type": "uint256"
        }
      ],
      "name": "splitNumber",
      "outputs": [
        {
          "internalType": "uint16[13]",
          "name": "numbers",
          "type": "uint16[13]"
        }
      ],
      "stateMutability": "pure",
      "type": "function"
    },
    {
      "inputs": [
        {
          "internalType": "uint256",
          "name": "tokenId",
          "type": "uint256"
        },
        {
          "internalType": "uint8",
          "name": "",
          "type": "uint8"
        }
      ],
      "name": "tokenURI",
      "outputs": [
        {
          "internalType": "string",
          "name": "",
          "type": "string"
        }
      ],
      "stateMutability": "pure",
      "type": "function"
    },
    {
      "inputs": [],
      "name": "traitPalette",
      "outputs": [
        {
          "internalType": "address",
          "name": "",
          "type": "address"
        }
      ],
      "stateMutability": "view",
      "type": "function"
    },
    {
      "inputs": [],
      "name": "traitPaletteIndexes",
      "outputs": [
        {
          "internalType": "address",
          "name": "",
          "type": "address"
        }
      ],
      "stateMutability": "view",
      "type": "function"
    },
    {
      "inputs": [
        {
          "internalType": "address",
          "name": "newOwner",
          "type": "address"
        }
      ],
      "name": "transferOwnership",
      "outputs": [],
      "stateMutability": "nonpayable",
      "type": "function"
    }
  ],
  "transactionHash": "0x836cb594b8c891d8438f2507e5dee872fbc5a90a0bb00f5d56d7a2d338d19355",
  "args": [
    "0x3871c903984D1aB799662455b7f6aaeCc1bC961F",
    "0x39Ae0DDB8596ef6b67aE731c5B564712F9706FA1"
  ],
  "numDeployments": 2,
  "solcInputHash": "673475e52572b8036bfaabdd9cb04710",
  "bytecode": "0x60806040523480156200001157600080fd5b50604051620064fb380380620064fb833981016040819052620000349162002631565b81620000403362002475565b60018055602980546001600160a01b0319166001600160a01b0383161790556040805161058081018252602480825260e1602083018190529282018390526060820183905261016860808301819052608760a0840152601b60c0840181905260e0840182905261013b610100850181905261012085018190526101408501819052610160850152610180840185905260b46101a085018190526101c085018690526101e0850181905261020085018390526102208501819052602d6102408601819052610260860184905261028086018490526102a086018490526102c08601929092526102e0850193909352610300840182905261032084018190526103408401839052610360840182905261038084018590526103a084018290526103c084018590526103e084018590526104008401829052610420840183905261044084015261046083015260126104808301526104a082018390526104c082018390526104e082018390526105008201839052610520820152610540810191909152610169610560820152620001d990600290602c620024c5565b50604080516101e08101825261036b81526104f5602082015261030b918101829052606081018290526080810182905260a0810182905260c0810182905260e08101829052610100810182905261012081018290526101408101829052610160810191909152601161018082015260086101a082015260296101c08201526200026790600390600f620024c5565b50604080516104208101825261012f8082526020820181905291810182905260608101829052609760808201819052601e60a08301819052600060c0840181905260e0840152610100830182905261012083018290526101408301829052610160830182905261018083018190526101a083018490526101c083018290526101e08301819052610200830184905261022083018490526102408301849052610260830184905261028083018490526102a083018490526102c08301526102e0820152610300810182905261032081018290526103408101829052610360810182905261038081018290526103a081018290526103c081018290526103e0810191909152610bfa61040082015262000383906004906021620024c5565b50604080516101c0810182526102858082526000602083015261050a92820192909252610142606082018190526080820183905260a0820183905260c082018390526103c760e08301819052610100830191909152610120820181905261014082019290925261016081018290526101808101919091526103cd6101a08201526200041390600590600e620024c5565b506040805161016081018252600080825260208201819052918101919091526104e2606082018190526080820181905260a0820181905260c0820181905260e08201819052610100820181905261012082018190526101408201526200047e90600690600b620024c5565b506040805161094081018252607980825260208201819052918101829052606081018290526080810182905260a0810182905260f360c08201819052600060e08301819052610100830181905261012083018190526101408301819052610160830184905261018083018490526101a083018290526101c083018490526101e08301849052610200830182905261022083018490526102408301849052610260830184905261028083018490526102a083018490526102c083018290526102e08301849052610300830184905261032083018490526103408301849052610360830182905261038083018490526103a083018490526103c083018490526103e08301849052610400830182905261042083018490526104408301849052610460830184905261048083018290526104a083018490526104c083018490526104e08301849052610500830184905261052083018290526105408301849052610560830184905261058083018490526105a083018490526105c083018290526105e08301849052610600830184905261062083018490526106408301849052610660830182905261068083018490526106a083018490526106c083018490526106e08301849052610700830182905261072083018490526107408301849052610760830184905261078083018490526107a083018290526107c083018490526107e0830184905261080083018290526108208301819052610840830181905261086083015261088082018390526108a082018390526108c08201526108e08101829052610900810191909152610132610920820152620006e190600790604a620024c5565b50604080516101608101825261039d80825261022b6020830181905260b993830184905260608301526080820181905260a082015260c081019190915261051060e0820181905261010082018190526101208201526107416101408201526200074f90600890600b620024c5565b50604080516101008101825260588082526020820181905291810182905260608101829052608081019190915261010960a08201526101ba60c082015261229560e0820152620007a4906009906008620024c5565b50604080516101008101825260bd8082526020820152602f918101919091526012606082015260096080820152601c60a0820152602560c082015261250b60e0820152620007f790600a906008620024c5565b50604080516104a08101825261015480825260208201819052918101829052606081018290526080810182905260a08101829052602260c0820181905260e0820183905261010082018390526101208201839052610140820183905260aa610160830181905261018083018190526101a0830181905260666101c084015260ee6101e08401819052610200840181905261022084018190526101106102408501819052610260850186905261028085018690526102a085018690526102c08501526102e08401819052610300840181905261032084018190526103408401526103608301526103808201526103a081018290526103c0810182905260886103e08201526104008101829052610420810182905261044081018290526104608101919091526101586104808201526200093490600b906025620024c5565b506040805161042081018252609f80825260d460208301819052606a938301849052603560608401819052601a608085015260a0840183905260c0840181905261010960e08501819052610100850182905261012085018390526101408501849052610160850181905261018085018290526101a085018190526101c085018190526101e085018390526102008501829052610220850184905260ef6102408601526102608501829052610280850186905260056102a08601526102c085018690526102e08501919091526103008401829052610320840182905261034084019490945261036083019190915261038082018190526103a082018390526103c08201526103e08101919091526113ca61040082015262000a5990600c906021620024c5565b506040805161062081018252608b8082526101166020830181905292820183905260fa60608301819052608083015260c260a0830181905260de60c0840181905260e08401859052610100840185905261012084018290526101408401819052605361016085018190526101808501919091526101a084018590526101c084018390526101e08401839052601b610200850181905261022085018690526102408501869052610260850186905261028085018690526102a085018190526102c085018690526102e08501849052610300850186905261032085018690526103408501869052610360850186905261038085018690526103a085018690526103c085018690526103e08501869052610400850186905261042085018690526104408501869052610460850181905261048085018490526104a085018490526104c085018490526104e085019390935260006105008501526105208401859052610540840191909152610560830181905261058083018190526105a08301939093526105c08201929092526105e081019190915261013261060082015262000c0490600d906031620024c5565b5060408051610120810182526103d5808252610b81602083015261028e92820183905260106060830152608082015261014760a082015260c081019190915260a360e0820152610ccf61010082015262000c6390600e906009620024c5565b506040805161058081018252602480825260e1602083018190529282018390526060820183905261016860808301819052608760a0840152601b60c0840181905260e0840182905261013b610100850181905261012085018190526101408501819052610160850152610180840185905260b46101a085018190526101c085018690526101e0850181905261020085018390526102208501819052602d6102408601819052610260860184905261028086018490526102a086018490526102c08601929092526102e0850193909352610300840182905261032084018190526103408401839052610360840182905261038084018590526103a084018290526103c084018590526103e084018590526104008401829052610420840183905261044084015261046083015260126104808301526104a082018390526104c082018390526104e08201839052610500820183905261052082015261054081019190915261016961056082015262000dde90600f90602c620024c5565b50604080516101e08101825261036b81526104f5602082015261030b918101829052606081018290526080810182905260a0810182905260c0810182905260e08101829052610100810182905261012081018290526101408101829052610160810191909152601161018082015260086101a082015260296101c082015262000e6c90601090600f620024c5565b506040805161042081018252600080825260208201819052918101829052606081018290526080810182905260a0810182905260c0810182905260e08101829052610100810182905261012081018290526101408101829052610160810182905261018081018290526101a081018290526101c081018290526101e08101829052610200810182905261022081018290526102408101829052610260810182905261028081018290526102a081018290526102c081018290526102e08101829052610300810182905261032081018290526103408101829052610360810182905261038081018290526103a081018290526103c081018290526103e081019190915261271061040082015262000f87906011906021620024c5565b50604080516101c081018252600080825260208201819052918101829052606081018290526080810182905260a0810182905260c0810182905260e08101829052610100810182905261012081018290526101408101829052610160810182905261018081018290526101a08101919091526200100990601290600e62002575565b506040805161016081018252600080825260208201819052918101829052606081018290526080810182905260a0810182905260c0810182905260e08101829052610100810182905261012081018290526101408101919091526200107390601390600b62002575565b506040805161094081018252600080825260208201819052918101829052606081018290526080810182905260a0810182905260c0810182905260e0810182905261010081018290526101208101829052610140810182905261016081018290526101808082018390526101a082018390526101c082018390526101e08201839052610200820183905261022082018390526102408201839052610260820183905261028082018390526102a082018390526102c082018390526102e08201839052610300820183905261032082018390526103408201839052610360820183905261038082018390526103a082018390526103c082018390526103e08201839052610400820183905261042082018390526104408201839052610460820183905261048082018390526104a082018390526104c082018390526104e08201839052610500820183905261052082018390526105408201839052610560820183905261058082018390526105a082018390526105c082018390526105e08201839052610600820183905261062082018390526106408201839052610660820183905261068082018390526106a082018390526106c082018390526106e08201839052610700820183905261072082018390526107408201839052610760820183905261078082018390526107a082018390526107c082018390526107e082018390526108008201839052610820820152611e0c61084082015261078361086082015261088081018290526108a081018290526108c081018290526108e081018290526109008101919091526001610920820152620012d690601490604a620024c5565b506040805161016081018252600080825260208201819052918101829052606081018290526080810182905260a0810182905260c0810182905260e0810182905261010081018290526101208101919091526127106101408201526200134190601590600b620024c5565b506040805161010081018252600080825260208201819052918101829052606081018290526080810182905261038d60a082015260c081019190915261238360e082015262001395906016906008620024c5565b506040805161010081018252600080825260208201819052918101829052606081018290526080810182905260a0810182905260c081019190915261271060e0820152620013e8906017906008620024c5565b50604080516104a08101825261020e808252602082018190529181018290526000606082018190526080820181905260a0820181905260c0820181905260e08201819052610100820183905261012082018190526101408201819052610160820181905261018082018390526101a082018190526101c082018390526101e08201819052610200820181905261022082018190526102408201839052610260820183905261028082018390526102a082018390526102c082018390526102e08201839052610300820183905261032082018390526103408201839052610360820183905261038082018390526103a082018190526103c082018190526103e082019290925261040081018290526104208101829052610440810182905261046081019190915261021461048082015262001527906018906025620024c5565b50604080516104208101825260508082526000602083018190526101909383019390935260f0606083018190526080830182905260a0830184905260c083015260e08201839052610100820183905261012082018190526101408201819052610160820181905261018082018390526101a082018390526101c082018390526101e08201839052610200820181905261022082018190526102408201839052610260820183905261028082018190526102a082018190526102c082018390526102e0820181905261030082018190526103208201819052610340820181905261036082015261038081018290526103a081018290526103c081018290526103e0810191909152611f4061040082015262001646906019906021620024c5565b506040805161062081018252610121808252600060208301819052928201839052606082018390526080820183905261019460a08301526101ce60c0830181905261024260e0840181905261010084018190526101208401859052610140840182905260ad6101608501526101808401919091526101a083018190526101c083018490526101e083018490526039610200840181905261022084018590526102408401819052610260840185905261028084018190526102a084018190526102c084018290526102e08401839052610300840182905261032084018190526103408401859052610360840181905261038084018190526103a084018190526103c084018290526103e08401829052610400840185905261042084018590526104408401859052610460840185905261048084018590526104a084018590526104c084018190526104e084019290925261050083015261052082018390526105408201839052610560820183905260e76105808301526105a08201526105c081018290526105e08101919091526106d1610600820152620017eb90601a906031620024c5565b5060408051610120810182526102ca80825260208201819052918101829052600060608201819052608082019290925260a0810182905260c0810182905260e0810191909152611be86101008201526200184a90601b906009620024c5565b506040805161058081018252602480825260e1602083018190529282018390526060820183905261016860808301819052608760a0840152601b60c0840181905260e0840182905261013b610100850181905261012085018190526101408501819052610160850152610180840185905260b46101a085018190526101c085018690526101e0850181905261020085018390526102208501819052602d6102408601819052610260860184905261028086018490526102a086018490526102c08601929092526102e0850193909352610300840182905261032084018190526103408401839052610360840182905261038084018590526103a084018290526103c084018590526103e084018590526104008401829052610420840183905261044084015261046083015260126104808301526104a082018390526104c082018390526104e082018390526105008201839052610520820152610540810191909152610169610560820152620019c590601c90602c620024c5565b50604080516101e08101825261036b81526104f5602082015261030b918101829052606081018290526080810182905260a0810182905260c0810182905260e08101829052610100810182905261012081018290526101408101829052610160810191909152601161018082015260086101a082015260296101c082015262001a5390601d90600f620024c5565b50604080516104208101825261012f8082526020820181905291810182905260608101829052609760808201819052601e60a08301819052600060c0840181905260e0840152610100830182905261012083018290526101408301829052610160830182905261018083018190526101a083018490526101c083018290526101e08301819052610200830184905261022083018490526102408301849052610260830184905261028083018490526102a083018490526102c083018190526102e0830191909152610300820183905261032082018390526103408201839052610360820183905261038082018390526103a082018390526103c082018390526103e0820192909252610bfa61040082015262001b7291906021620024c5565b50604080516101c0810182526102858082526000602083015261050a92820192909252610142606082018190526080820183905260a0820183905260c082018390526103c760e08301819052610100830191909152610120820181905261014082019290925261016081018290526101808101919091526103cd6101a082015262001c0290601f90600e620024c5565b5060408051610160810182526109c480825260208083018290529282018190526000606083018190526080830181905260a0830181905260c0830181905260e08301819052610100830181905261012083019190915261014082015262001c6c9190600b620024c5565b506040805161094081018252600080825260208201819052918101829052606081018290526080810182905260a0810182905261024c60c0820181905260e08201819052610100820181905261012082018190526101408201819052610160820183905261018082018390526101a082018190526101c082018390526101e08201839052610200820181905261022082018390526102408201839052610260820183905261028082018390526102a082018390526102c082018190526102e08201839052610300820183905261032082018390526103408201839052610360820181905261038082018390526103a082018390526103c082018390526103e08201819052610400820181905261042082018390526104408201839052610460820183905261048082018190526104a082018390526104c082018390526104e08201839052610500820183905261052082018190526105408201839052610560820183905261058082018390526105a082018390526105c082018390526105e08201839052610600820183905261062082018390526106408201839052610660820181905261068082018390526106a082018390526106c082018390526106e08201839052610700820181905261072082018390526107408201839052610760820183905261078082018390526107a082018190526107c082018390526107e08201839052610800820183905261082082018390526108408201839052610860820183905261088082018390526108a082018390526108c08201526108e08101829052610900810191909152600461092082015262001ecf90602190604a620024c5565b50604080516101608101825261039d80825261022b6020830181905260b993830184905260608301526080820181905260a082015260c081019190915261051060e08201819052610100820181905261012082015261074161014082015262001f3d90602290600b620024c5565b50604080516101008101825260588082526020820181905291810182905260608101829052608081019190915261010960a08201526101ba60c082015261229560e082015262001f92906023906008620024c5565b50604080516101008101825260b7815261011260208201819052918101919091526012606082018190526080820152601b60a0820152602460c082018190526123d260e083015262001fe6916008620024c5565b50604080516104a08101825261015480825260208201819052918101829052606081018290526080810182905260a08101829052602260c0820181905260e0820183905261010082018390526101208201839052610140820183905260aa610160830181905261018083018190526101a0830181905260666101c084015260ee6101e08401819052610200840181905261022084018190526101106102408501819052610260850186905261028085018690526102a085018690526102c08501526102e08401819052610300840181905261032084018190526103408401526103608301526103808201526103a081018290526103c0810182905260886103e0820152610400810182905261042081018290526104408101829052610460810191909152610158610480820152620021229060259081620024c5565b50604080516104208101825260d980825261016a6020830181905292820181905260906060830181905260486080840181905261012160a0850181905260c0850183905260e08501869052610100850182905261012085018190526101408501849052610160850186905261018085018290526101a085018690526101c085018690526101e08501819052600061020086018190526102208601859052610240860152610260850182905261028085019290925260076102a08501526102c084018390526102e084015261030083018290526103208301829052610340830181905261036083018290526103808301526103a082018390526103c08201526103e0810191909152610cc561040082015262002242906026906021620024c5565b506040805161062081018252608b8082526101166020830181905292820183905260fa60608301819052608083015260c260a0830181905260de60c0840181905260e08401859052610100840185905261012084018290526101408401819052605361016085018190526101808501919091526101a084018590526101c084018390526101e08401839052601b610200850181905261022085018690526102408501869052610260850186905261028085018690526102a085018190526102c085018690526102e08501849052610300850186905261032085018690526103408501869052610360850186905261038085018690526103a085018690526103c085018690526103e08501869052610400850186905261042085018690526104408501869052610460850181905261048085018490526104a085018490526104c085018490526104e085019390935260006105008501526105208401859052610540840191909152610560830181905261058083018190526105a08301939093526105c08201929092526105e0810191909152610132610600820152620023ed906027906031620024c5565b5060408051610120810182526103d5808252610b81602083015261028e92820183905260106060830152608082015261014760a082015260c081019190915260a360e0820152610ccf6101008201526200244c906028906009620024c5565b5050603080546001600160a01b0319166001600160a01b03929092169190911790555062002674565b600080546001600160a01b038381166001600160a01b0319831681178455604051919092169283917f8be0079c531659141344cd1fd0a4f28419497f9722a3daafe3b4186f6b6457e09190a35050565b82805482825590600052602060002090600f01601090048101928215620025635791602002820160005b838211156200253157835183826101000a81548161ffff021916908361ffff1602179055509260200192600201602081600101049283019260010302620024ef565b8015620025615782816101000a81549061ffff021916905560020160208160010104928301926001030262002531565b505b5062002571929150620025e0565b5090565b82805482825590600052602060002090600f01601090048101928215620025635791602002820160005b838211156200253157835183826101000a81548161ffff021916908360ff16021790555092602001926002016020816001010492830192600103026200259f565b5b80821115620025715760008155600101620025e1565b60006001600160a01b0382165b92915050565b6200261581620025f7565b81146200262157600080fd5b50565b805162002604816200260a565b60008060408385031215620026495762002649600080fd5b600062002657858562002624565b92505060206200266a8582860162002624565b9150509250929050565b613e7780620026846000396000f3fe608060405234801561001057600080fd5b50600436106102e95760003560e01c80638da5cb5b11610191578063d337c2c3116100e3578063f2a90a7611610097578063fd88767711610071578063fd88767714610728578063fdd5e4e81461073b578063fe31cecf1461075c57600080fd5b8063f2a90a76146106ef578063f2fde38b14610702578063f6a5d7021461071557600080fd5b8063e0c9ae69116100c8578063e0c9ae6914610664578063e87ab5e0146106a0578063e8f255f0146106b357600080fd5b8063d337c2c3146105ec578063d6bf65011461062857600080fd5b8063b674b76111610145578063bfa933261161011f578063bfa933261461057e578063c1dfb56714610591578063cd369849146105c557600080fd5b8063b674b7611461051c578063b9f8e72a14610558578063bc4617fb1461056b57600080fd5b8063aacb2fa611610176578063aacb2fa614610501578063b3215d4914610501578063b4de62161461050957600080fd5b80638da5cb5b146104b4578063a4cd9a11146104c557600080fd5b80634b65e32f1161024a5780636f5c723b116101fe5780637c213e7b116101d85780637c213e7b146104865780637e8e0657146104995780638aaad546146104a157600080fd5b80636f5c723b14610463578063715018a61461046b578063761d9db81461047357600080fd5b80635cc518ba1161022f5780635cc518ba1461042a5780636432609f1461043d578063677bfad31461045057600080fd5b80634b65e32f146103e55780634c63ba13146103f857600080fd5b8063397bcf61116102a15780633e1ed132116102865780633e1ed1321461039d57806340eb8e22146103b0578063480bc3c8146103d057600080fd5b8063397bcf611461037557806339bfa8731461038a57600080fd5b80631a5d193d116102d25780631a5d193d1461032a578063220b028d1461034a5780632c3e0c5c1461035f57600080fd5b80630e275391146102ee5780631866112c14610317575b600080fd5b602c54610301906001600160a01b031681565b60405161030e9190612c97565b60405180910390f35b602d54610301906001600160a01b031681565b61033d610338366004612cbd565b61076f565b60405161030e9190612d31565b610352600381565b60405161030e9190612d49565b61036861271081565b60405161030e9190612d57565b610388610383366004612db7565b6107ce565b005b61033d610398366004612e13565b610871565b6103886103ab366004612db7565b610e8e565b6103c36103be366004612f5e565b610f28565b60405161030e9190613012565b6103d8611295565b60405161030e9190613085565b6103d86103f3366004613096565b6112b1565b61041d7d01000000000000000000000000000000000000000000000000000000000081565b60405161030e91906130df565b6103d8610438366004612e13565b611689565b602e54610301906001600160a01b031681565b61030161045e366004612cbd565b6116bb565b6103d86116e5565b610388611701565b6103d8610481366004613096565b611737565b6103686104943660046130ed565b6118f0565b610352600d81565b6103d86104af366004613227565b611a7c565b6000546001600160a01b0316610301565b6103d86040518060400160405280600581526020017f272f25336500000000000000000000000000000000000000000000000000000081525081565b610352600c81565b6103c3610517366004613096565b611cad565b6103d86040518060400160405280600a81526020017f2725323066696c6c3d270000000000000000000000000000000000000000000081525081565b6103d86105663660046132f9565b611d10565b61038861057936600461337f565b61225e565b61038861058c366004612db7565b612352565b6105b87f4d4c51434148565a00000000000000000000000000000000000000000000000081565b60405161030e91906133e3565b6105b87f020204060701010000000000000000000000000000000000000000000000000081565b6103d86040518060400160405280600381526020017f253233000000000000000000000000000000000000000000000000000000000081525081565b6103d86040518060400160405280600d81526020017f25336370617468253230643d270000000000000000000000000000000000000081525081565b6103d86040518060400160405280600381526020017f253230000000000000000000000000000000000000000000000000000000000081525081565b6103d86106ae366004612e13565b6123ec565b6103d86040518060400160405280601281526020017f272532307374726f6b653d27253233303030000000000000000000000000000081525081565b602a54610301906001600160a01b031681565b610388610710366004613405565b6124db565b610388610723366004612db7565b612537565b610368610736366004613426565b6125d1565b61074e610749366004613096565b61262e565b60405161030e929190613482565b61038861076a366004612db7565b61277b565b610777612ba1565b60005b600d8110156107c85761078f612710846134b3565b8282600d81106107a1576107a16134cb565b61ffff9092166020929092020152600e9290921c91806107c0816134f7565b91505061077a565b50919050565b6000546001600160a01b031633146108015760405162461bcd60e51b81526004016107f890613542565b60405180910390fd5b61084082828080601f0160208091040260200160405190810160405280939291908181526020018383808284376000920191909152506127b192505050565b602d805473ffffffffffffffffffffffffffffffffffffffff19166001600160a01b03929092169190911790555050565b610879612ba1565b60006108848461076f565b905060006108bc848360405160200161089e929190613595565b6040516020818303038152906040528051906020012060001c61076f565b60295460208401516040517f7f436b5c0000000000000000000000000000000000000000000000000000000081529293506000926001600160a01b0390921691637f436b5c9161090e91600401612d57565b60206040518083038186803b15801561092657600080fd5b505afa15801561093a573d6000803e3d6000fd5b505050506040513d601f19601f8201168201806040525081019061095e91906135c1565b60ff16905061096e6004866135e2565b60ff166109d157815161ffff908116845260c08084015182169085015260e0808401518216908501526101008084015182169085015261014080840151821690850152610160808401518216908501526101808084015190911690840152610a39565b6109dc6004866135e2565b60ff1660011415610a395760208083015161ffff9081169185019190915260408084015182169085015260608084015182169085015260808084015182169085015260a08084015182169085015261012080840151909116908401525b600060028261ffff1660038110610a5257610a526134cb565b600d0201600701600781548110610a6b57610a6b6134cb565b90600052602060002090601091828204019190066002029054906101000a900461ffff16612710610a9c91906135ef565b61ffff16846007602002015161ffff16109050600060028361ffff1660038110610ac857610ac86134cb565b600d0201600801600781548110610ae157610ae16134cb565b90600052602060002090601091828204019190066002029054906101000a900461ffff16612710610b1291906135ef565b61ffff16856008602002015161ffff16109050600060028461ffff1660038110610b3e57610b3e6134cb565b600d0201600901602481548110610b5757610b576134cb565b90600052602060002090601091828204019190066002029054906101000a900461ffff16612710610b8891906135ef565b61ffff16866009602002015161ffff16109050600060028561ffff1660038110610bb457610bb46134cb565b600d0201600b01603081548110610bcd57610bcd6134cb565b90600052602060002090601091828204019190066002029054906101000a900461ffff16612710610bfe91906135ef565b61ffff1687600b602002015161ffff16109050600080600289826020020151610c279190613612565b61ffff1611905060005b600d60ff82161015610e7e576029546000906001600160a01b031663fca228ce8b60ff8516600d8110610c6657610c666134cb565b6020020151848b6040518463ffffffff1660e01b8152600401610c8b93929190613620565b60206040518083038186803b158015610ca357600080fd5b505afa158015610cb7573d6000803e3d6000fd5b505050506040513d601f19601f82011682018060405250810190610cdb91906135c1565b905060ff8216158015610cfb5750610cf460048d6135e2565b60ff166002145b15610d1a578851610d0e90600a90613612565b61ffff16610d1a5750602c5b6000610d2c8360ff168360ff166118f0565b905060008360ff1660021480610d4557508360ff16600c145b8015610d4f575087155b8015610d59575088155b80610d7057508360ff166007148015610d70575087155b80610d8757508360ff16600a148015610d87575087155b80610dda575060028460ff161080610db0575060028460ff16118015610db0575060078460ff16105b80610dbe57508360ff166008145b80610dcc57508360ff166009145b80610dda57508360ff16600b145b90506000878015610de85750865b8015610dff57508460ff166009148015610dff5750855b80610e1657508460ff16600b148015610e16575085155b905061ffff83811610801580610e2a575082155b80610e325750815b15610e3d5761ffff93505b838f8760ff16600d8110610e5357610e536134cb565b602002019061ffff16908161ffff168152505050505050508080610e7690613648565b915050610c31565b5050505050505050505b92915050565b6000546001600160a01b03163314610eb85760405162461bcd60e51b81526004016107f890613542565b610ef782828080601f0160208091040260200160405190810160405280939291908181526020018383808284376000920191909152506127b192505050565b602e805473ffffffffffffffffffffffffffffffffffffffff19166001600160a01b03929092169190911790555050565b602e54606090600090610f43906001600160a01b0316612829565b602d54909150600090610f5e906001600160a01b0316612829565b9050606060008060005b600d61ffff8216101561105e5761ffff88828216600d8110610f8c57610f8c6134cb565b602002015161ffff161415610fa05761104c565b610fd386898361ffff16600d8110610fba57610fba6134cb565b6020020151610fca906002613661565b61ffff16612839565b925061100a86898361ffff16600d8110610fef57610fef6134cb565b6020020151610fff906002613661565b610fca90600261368e565b9150836110298661ffff861661102087876135ef565b61ffff1661286f565b60405160200161103a9291906136d9565b60405160208183030381529060405293505b80611056816136ef565b915050610f68565b5060008060038551611070919061370a565b67ffffffffffffffff81111561108857611088612e50565b6040519080825280602002602001820160405280156110d357816020015b60408051606081018252600080825260208083018290529282015282526000199092019101816110a65790505b50905060005b8551811015611288576000807303abFda4e7cec3484D518848B5e6aa10965F91DD635dfb512c898581518110611111576111116134cb565b01602001516001600160f81b0319168a61112c876001613722565b8151811061113c5761113c6134cb565b01602001516001600160f81b0319168b611157886002613722565b81518110611167576111676134cb565b01602001516040517fffffffff0000000000000000000000000000000000000000000000000000000060e086901b1681526111b19392916001600160f81b03191690600401613745565b604080518083038186803b1580156111c857600080fd5b505af41580156111dc573d6000803e3d6000fd5b505050506040513d601f19601f820116820180604052508101906112009190613778565b90925090506000611212600283613612565b61ffff1611945060018161ffff16901c905060405180606001604052808361ffff1681526020018261ffff16815260200186151581525084600385611257919061370a565b81518110611267576112676134cb565b602002602001018190525050506003816112819190613722565b90506110d9565b5098975050505050505050565b6040518060a00160405280606d8152602001613dd5606d913981565b602a546060906000906112cc906001600160a01b0316612829565b90506000816112dc856003613661565b61ffff16815181106112f0576112f06134cb565b01602001516001600160f81b0319161480156113455750600081611315856003613661565b61132090600161368e565b61ffff1681518110611334576113346134cb565b01602001516001600160f81b031916145b80156113a957507f010000000000000000000000000000000000000000000000000000000000000081611379856003613661565b61138490600261368e565b61ffff1681518110611398576113986134cb565b01602001516001600160f81b031916145b156113e957505060408051808201909152600481527f6e6f6e65000000000000000000000000000000000000000000000000000000006020820152919050565b6040518060400160405280600381526020017f25323300000000000000000000000000000000000000000000000000000000008152508184600361142d9190613661565b61ffff1681518110611441576114416134cb565b016020015160405163c1338a6960e01b81527303abFda4e7cec3484D518848B5e6aa10965F91DD9163c1338a69916114859160f81c906010906002906004016137c5565b60006040518083038186803b15801561149d57600080fd5b505af41580156114b1573d6000803e3d6000fd5b505050506040513d6000823e601f3d908101601f191682016040526114d99190810190613845565b826114e5866003613661565b6114f090600161368e565b61ffff1681518110611504576115046134cb565b016020015160405163c1338a6960e01b81527303abFda4e7cec3484D518848B5e6aa10965F91DD9163c1338a69916115489160f81c906010906002906004016137c5565b60006040518083038186803b15801561156057600080fd5b505af4158015611574573d6000803e3d6000fd5b505050506040513d6000823e601f3d908101601f1916820160405261159c9190810190613845565b836115a8876003613661565b6115b390600261368e565b61ffff16815181106115c7576115c76134cb565b016020015160405163c1338a6960e01b81527303abFda4e7cec3484D518848B5e6aa10965F91DD9163c1338a699161160b9160f81c906010906002906004016137c5565b60006040518083038186803b15801561162357600080fd5b505af4158015611637573d6000803e3d6000fd5b505050506040513d6000823e601f3d908101601f1916820160405261165f9190810190613845565b6040516020016116729493929190613880565b604051602081830303815290604052915050919050565b606061169483612937565b6040516020016116a491906138d8565b604051602081830303815290604052905092915050565b602b81815481106116cb57600080fd5b6000918252602090912001546001600160a01b0316905081565b604051806060016040528060388152602001613d9d6038913981565b6000546001600160a01b0316331461172b5760405162461bcd60e51b81526004016107f890613542565b6117356000612a59565b565b60606000806117458461262e565b9150915060008061177c602b8381548110611762576117626134cb565b6000918252602090912001546001600160a01b0316612829565b805190915063ffffffff85165b611794600183613939565b8663ffffffff1611156117e85782516117ad9082613939565b9050836117b9816134f7565b9450506117d2602b8581548110611762576117626134cb565b92508251826117e19190613722565b9150611789565b60006117f4878761393f565b63ffffffff1667ffffffffffffffff81111561181257611812612e50565b6040519080825280601f01601f19166020018201604052801561183c576020820181803683370190505b50905060005b815181101561128857600185516118599190613939565b83111561188a578561186a816134f7565b965050611883602b8781548110611762576117626134cb565b9450600092505b84838151811061189c5761189c6134cb565b602001015160f81c60f81b8282815181106118b9576118b96134cb565b60200101906001600160f81b031916908160001a905350826118da816134f7565b93505080806118e8906134f7565b915050611842565b60008061198e602f805461190390613965565b80601f016020809104026020016040519081016040528092919081815260200182805461192f90613965565b801561197c5780601f106119515761010080835404028352916020019161197c565b820191906000526020600020905b81548152906001019060200180831161195f57829003601f168201915b5050505050856002610fca9190613661565b90506000611a38602f80546119a290613965565b80601f01602080910402602001604051908101604052809291908181526020018280546119ce90613965565b8015611a1b5780601f106119f057610100808354040283529160200191611a1b565b820191906000526020600020905b8154815290600101906020018083116119fe57829003601f168201915b5050505050866001611a2d919061368e565b610fca906002613661565b9050611a456001826135ef565b61ffff16611a53858461368e565b61ffff161115611a695761ffff92505050610e88565b611a73848361368e565b95945050505050565b606060006040518060a00160405280606d8152602001613dd5606d9139905060005b83518161ffff161015611c8157816040518060400160405280600d81526020017f25336370617468253230643d2700000000000000000000000000000000000000815250611b0f610566878561ffff1681518110611afe57611afe6134cb565b602002602001015160000151611737565b6040518060400160405280600a81526020017f2725323066696c6c3d2700000000000000000000000000000000000000000000815250611b6f888661ffff1681518110611b5e57611b5e6134cb565b6020026020010151602001516112b1565b604051602001611b8395949392919061398c565b6040516020818303038152906040529150838161ffff1681518110611baa57611baa6134cb565b60200260200101516040015115611c1557816040518060400160405280601281526020017f272532307374726f6b653d272532333030300000000000000000000000000000815250604051602001611c039291906136d9565b60405160208183030381529060405291505b816040518060400160405280600581526020017f272f253365000000000000000000000000000000000000000000000000000000815250604051602001611c5d9291906136d9565b60405160208183030381529060405291508080611c79906136ef565b915050611a9e565b5080604051806060016040528060388152602001613d9d603891396040516020016116729291906136d9565b6060611cb7612ba1565b61ffff8316815260015b600d811015611cff5761ffff8282600d8110611cdf57611cdf6134cb565b61ffff909216602092909202015280611cf7816134f7565b915050611cc1565b50611d0981610f28565b9392505050565b6060806060600080600080805b611d29600360086139d0565b60ff1689516008611d3a91906139f1565b611d449190613939565b8563ffffffff161161225157611d5b600886613a0b565b9350611d68600886613a1b565b9250611d7660036008613a2b565b60ff16611d84846008613a2b565b60ff168a611d9387600161368e565b61ffff1681518110611da757611da76134cb565b602001015160f81c60f81b6001600160f81b031916901c8460ff168b8761ffff1681518110611dd857611dd86134cb565b01602001516001600160f81b031916901b1760f81c901c91507f020204060701010000000000000000000000000000000000000000000000000060ff831660088110611e2657611e266134cb565b1a9050611e34600386613a38565b9450611e41600886613a0b565b9350611e4e600886613a1b565b92508060ff1667ffffffffffffffff811115611e6c57611e6c612e50565b6040519080825280601f01601f191660200182016040528015611e96576020820181803683370190505b50955060005b8160ff168160ff161015611fd6578360ff168a8260ff1687611ebe919061368e565b61ffff1681518110611ed257611ed26134cb565b602001015160f81c60f81b6001600160f81b031916901b878260ff1681518110611efe57611efe6134cb565b60200101906001600160f81b031916908160001a9053508951611f2460ff83168761368e565b611f2f90600161368e565b61ffff161015611fc457611f44846008613a2b565b60ff168a8260ff1687611f57919061368e565b611f6290600161368e565b61ffff1681518110611f7657611f766134cb565b602001015160f81c60f81b6001600160f81b031916901c878260ff1681518110611fa257611fa26134cb565b0160200180516001600160f81b031992831692169190911790600082901a9053505b80611fce81613648565b915050611e9c565b50867f4d4c51434148565a0000000000000000000000000000000000000000000000008360ff166008811061200d5761200d6134cb565b1a60f81b87600081518110612024576120246134cb565b01602001516040517f6900a3ae0000000000000000000000000000000000000000000000000000000081527303abFda4e7cec3484D518848B5e6aa10965F91DD91636900a3ae9161207b9160f81c90600401613a62565b60006040518083038186803b15801561209357600080fd5b505af41580156120a7573d6000803e3d6000fd5b505050506040513d6000823e601f3d908101601f191682016040526120cf9190810190613845565b6040516020016120e193929190613a70565b60408051601f19818403018152919052965060015b8160ff168160ff16101561223157876040518060400160405280600381526020017f2532300000000000000000000000000000000000000000000000000000000000815250888360ff1681518110612150576121506134cb565b01602001516040517f6900a3ae0000000000000000000000000000000000000000000000000000000081527303abFda4e7cec3484D518848B5e6aa10965F91DD91636900a3ae916121a79160f81c90600401613a62565b60006040518083038186803b1580156121bf57600080fd5b505af41580156121d3573d6000803e3d6000fd5b505050506040513d6000823e601f3d908101601f191682016040526121fb9190810190613845565b60405160200161220d93929190613a93565b6040516020818303038152906040529750808061222990613648565b9150506120f6565b5061223d816008613ab5565b61224a9060ff1686613a38565b9450611d1d565b5094979650505050505050565b6000546001600160a01b031633146122885760405162461bcd60e51b81526004016107f890613542565b60005b60ff811682111561234d57602b6122fc84848460ff168181106122b0576122b06134cb565b90506020028101906122c29190613ada565b8080601f0160208091040260200160405190810160405280939291908181526020018383808284376000920191909152506127b192505050565b815460018101835560009283526020909220909101805473ffffffffffffffffffffffffffffffffffffffff19166001600160a01b039092169190911790558061234581613648565b91505061228b565b505050565b6000546001600160a01b0316331461237c5760405162461bcd60e51b81526004016107f890613542565b6123bb82828080601f0160208091040260200160405190810160405280939291908181526020018383808284376000920191909152506127b192505050565b602a805473ffffffffffffffffffffffffffffffffffffffff19166001600160a01b03929092169190911790555050565b6030546040517f422627c30000000000000000000000000000000000000000000000000000000081526060916000916001600160a01b039091169063422627c39061243b908790600401613a62565b60206040518083038186803b15801561245357600080fd5b505afa158015612467573d6000803e3d6000fd5b505050506040513d601f19601f8201168201806040525081019061248b9190613b58565b905060006124998285610871565b905060006124a682610f28565b90506124b181611a7c565b6040516020016124c19190613b79565b604051602081830303815290604052935050505092915050565b6000546001600160a01b031633146125055760405162461bcd60e51b81526004016107f890613542565b6001600160a01b03811661252b5760405162461bcd60e51b81526004016107f890613bad565b61253481612a59565b50565b6000546001600160a01b031633146125615760405162461bcd60e51b81526004016107f890613542565b6125a082828080601f0160208091040260200160405190810160405280939291908181526020018383808284376000920191909152506127b192505050565b602c805473ffffffffffffffffffffffffffffffffffffffff19166001600160a01b03929092169190911790555050565b600283600381106125e157600080fd5b600d020182600d81106125f357600080fd5b01818154811061260257600080fd5b906000526020600020906010918282040191900660020292509250509054906101000a900461ffff1681565b602c546000908190819061264a906001600160a01b0316612829565b9050600061265d82610fca876002613661565b61ffff169050600061267483610fff886002613661565b61ffff1690506103e88661ffff1663ffffffff1611801561269c5750614e208263ffffffff16105b156126bc57816126af61ffff6001613a38565b6126b99190613a38565b91505b6107d061ffff87161180156126d85750619c408263ffffffff16105b156126f857816126eb61ffff6001613a38565b6126f59190613a38565b91505b6103e861ffff87161180156127145750614e208163ffffffff16105b15612734578061272761ffff6001613a38565b6127319190613a38565b90505b6107d061ffff87161180156127505750619c408163ffffffff16105b15612770578061276361ffff6001613a38565b61276d9190613a38565b90505b909590945092505050565b6000546001600160a01b031633146127a55760405162461bcd60e51b81526004016107f890613542565b61234d602f8383612bc0565b6000806127dc836040516020016127c89190613c19565b604051602081830303815290604052612ab6565b90508051602082016000f091506001600160a01b0382166107c8576040517f08d4abb600000000000000000000000000000000000000000000000000000000815260040160405180910390fd5b6060610e88826001600019612ae2565b6000612846826002613722565b835110156128665760405162461bcd60e51b81526004016107f890613c54565b50016002015190565b60608161287d81601f613722565b101561289b5760405162461bcd60e51b81526004016107f890613c96565b6128a58284613722565b845110156128c55760405162461bcd60e51b81526004016107f890613cd8565b6060821580156128e4576040519150600082526020820160405261292e565b6040519150601f8416801560200281840101858101878315602002848b0101015b8183101561291d578051835260209283019201612905565b5050858452601f01601f1916604052505b50949350505050565b60608161297757505060408051808201909152600181527f3000000000000000000000000000000000000000000000000000000000000000602082015290565b8160005b81156129a1578061298b816134f7565b915061299a9050600a8361370a565b915061297b565b60008167ffffffffffffffff8111156129bc576129bc612e50565b6040519080825280601f01601f1916602001820160405280156129e6576020820181803683370190505b5090505b8415612a51576129fb600183613939565b9150612a08600a866134b3565b612a13906030613722565b60f81b818381518110612a2857612a286134cb565b60200101906001600160f81b031916908160001a905350612a4a600a8661370a565b94506129ea565b949350505050565b600080546001600160a01b0383811673ffffffffffffffffffffffffffffffffffffffff19831681178455604051919092169283917f8be0079c531659141344cd1fd0a4f28419497f9722a3daafe3b4186f6b6457e09190a35050565b6060815182604051602001612acc929190613d53565b6040516020818303038152906040529050919050565b6060833b80612b01575050604080516020810190915260008152611d09565b80841115612b1f575050604080516020810190915260008152611d09565b83831015612b5f578084846040517f2c4a89fa0000000000000000000000000000000000000000000000000000000081526004016107f893929190613d74565b8383038482036000828210612b745782612b76565b815b60408051603f8301601f19168101909152818152955090508087602087018a3c505050509392505050565b604051806101a00160405280600d906020820280368337509192915050565b828054612bcc90613965565b90600052602060002090601f016020900481019282612bee5760008555612c52565b82601f10612c25578280017fffffffffffffffffffffffffffffffffffffffffffffffffffffffffffffff00823516178555612c52565b82800160010185558215612c52579182015b82811115612c52578235825591602001919060010190612c37565b50612c5e929150612c62565b5090565b5b80821115612c5e5760008155600101612c63565b60006001600160a01b038216610e88565b612c9181612c77565b82525050565b60208101610e888284612c88565b805b811461253457600080fd5b8035610e8881612ca5565b600060208284031215612cd257612cd2600080fd5b6000612a518484612cb2565b61ffff8116612c91565b612cf28282612cde565b5060200190565b60200190565b600d8160005b82811015612d2a578151612d198682612ce8565b955050602082019150600101612d05565b5050505050565b6101a08101610e888284612cff565b60ff8116612c91565b60208101610e888284612d40565b60208101610e888284612cde565b60008083601f840112612d7a57612d7a600080fd5b50813567ffffffffffffffff811115612d9557612d95600080fd5b602083019150836001820283011115612db057612db0600080fd5b9250929050565b60008060208385031215612dcd57612dcd600080fd5b823567ffffffffffffffff811115612de757612de7600080fd5b612df385828601612d65565b92509250509250929050565b60ff8116612ca7565b8035610e8881612dff565b60008060408385031215612e2957612e29600080fd5b6000612e358585612cb2565b9250506020612e4685828601612e08565b9150509250929050565b634e487b7160e01b600052604160045260246000fd5b601f19601f830116810181811067ffffffffffffffff82111715612e8c57612e8c612e50565b6040525050565b6000612e9e60405190565b9050612eaa8282612e66565b919050565b600067ffffffffffffffff821115612ec957612ec9612e50565b5060200290565b61ffff8116612ca7565b8035610e8881612ed0565b6000612ef8612ef384612eaf565b612e93565b90508060208402830185811115612f1157612f11600080fd5b835b81811015612f3357612f258782612eda565b835260209283019201612f13565b5050509392505050565b600082601f830112612f5157612f51600080fd5b600d612a51848285612ee5565b60006101a08284031215612f7457612f74600080fd5b6000612a518484612f3d565b801515612c91565b8051612f948382612cde565b506020810151612fa76020840182612cde565b50604081015161234d6040840182612f80565b612fc48282612f88565b5060600190565b6000612fd5825190565b808452602093840193830160005b82811015613008578151612ff78782612fba565b965050602082019150600101612fe3565b5093949350505050565b60208082528101611d098184612fcb565b60005b8381101561303e578181015183820152602001613026565b8381111561304d576000848401525b50505050565b600061305d825190565b808452602084019350613074818560208601613023565b601f01601f19169290920192915050565b60208082528101611d098184613053565b6000602082840312156130ab576130ab600080fd5b6000612a518484612eda565b7fffffff00000000000000000000000000000000000000000000000000000000008116612c91565b60208101610e8882846130b7565b6000806040838503121561310357613103600080fd5b600061310f8585612eda565b9250506020612e4685828601612eda565b600067ffffffffffffffff82111561313a5761313a612e50565b5060209081020190565b801515612ca7565b8035610e8881613144565b60006060828403121561316c5761316c600080fd5b6131766060612e93565b905060006131848484612eda565b90820152602061319684848301612eda565b9082015260406131a88484830161314c565b9082015292915050565b60006131c0612ef384613120565b838152905060208101606084028301858111156131df576131df600080fd5b835b81811015612f33576131f38782613157565b83526020909201916060016131e1565b600082601f83011261321757613217600080fd5b8135612a518482602086016131b2565b60006020828403121561323c5761323c600080fd5b813567ffffffffffffffff81111561325657613256600080fd5b612a5184828501613203565b600067ffffffffffffffff82111561327c5761327c612e50565b601f19601f83011660200192915050565b82818337506000910152565b60006132a7612ef384613262565b9050828152602081018484840111156132c2576132c2600080fd5b6132cd84828561328d565b509392505050565b600082601f8301126132e9576132e9600080fd5b8135612a51848260208601613299565b60006020828403121561330e5761330e600080fd5b813567ffffffffffffffff81111561332857613328600080fd5b612a51848285016132d5565b60008083601f84011261334957613349600080fd5b50813567ffffffffffffffff81111561336457613364600080fd5b602083019150836020820283011115612db057612db0600080fd5b6000806020838503121561339557613395600080fd5b823567ffffffffffffffff8111156133af576133af600080fd5b612df385828601613334565b7fffffffffffffffff0000000000000000000000000000000000000000000000008116612c91565b60208101610e8882846133bb565b612ca781612c77565b8035610e88816133f1565b60006020828403121561341a5761341a600080fd5b6000612a5184846133fa565b60008060006060848603121561343e5761343e600080fd5b600061344a8686612cb2565b935050602061345b86828701612cb2565b925050604061346c86828701612cb2565b9150509250925092565b63ffffffff8116612c91565b604081016134908285613476565b611d096020830184613476565b634e487b7160e01b600052601260045260246000fd5b815b91506000826134c6576134c661349d565b500690565b634e487b7160e01b600052603260045260246000fd5b634e487b7160e01b600052601160045260246000fd5b600060001982141561350b5761350b6134e1565b5060010190565b60208082527f4f776e61626c653a2063616c6c6572206973206e6f7420746865206f776e65729101908152612cf9565b60208082528101610e8881613512565b6000610e888260f81b90565b612c9160ff8216613552565b600d8160005b82811015612d2a5781516135848682612ce8565b955050602082019150600101613570565b61359f818461355e565b6001016135ac818361356a565b6101a00192915050565b8051610e8881612dff565b6000602082840312156135d6576135d6600080fd5b6000612a5184846135b6565b60ff9081169082166134b5565b61ffff9081169082165b915060008282101561360d5761360d6134e1565b500390565b61ffff9081169082166134b5565b6060810161362e8286612cde565b61363b6020830185612d40565b612a516040830184612cde565b60ff81169050600060ff82141561350b5761350b6134e1565b61ffff8116905061ffff8216915060008161ffff0483118215151615613689576136896134e1565b500290565b61ffff8116905061ffff8216915060008261ffff038211156136b2576136b26134e1565b500190565b60006136c1825190565b6136cf818560208601613023565b9290920192915050565b6136e381846136b7565b9050611d0981836136b7565b61ffff81169050600061ffff82141561350b5761350b6134e1565b815b915060008261371d5761371d61349d565b500490565b600082198211156136b2576136b26134e1565b6001600160f81b03198116612c91565b606081016137538286613735565b6137606020830185613735565b612a516040830184613735565b8051610e8881612ed0565b6000806040838503121561378e5761378e600080fd5b600061379a858561376d565b9250506020612e468582860161376d565b80612c91565b600060ff8216610e88565b612c91816137b1565b606081016137d382866137ab565b6137e060208301856137bc565b612a5160408301846137bc565b60006137fb612ef384613262565b90508281526020810184848401111561381657613816600080fd5b6132cd848285613023565b600082601f83011261383557613835600080fd5b8151612a518482602086016137ed565b60006020828403121561385a5761385a600080fd5b815167ffffffffffffffff81111561387457613874600080fd5b612a5184828501613821565b61388a81866136b7565b905061389681856136b7565b90506138a281846136b7565b9050611a7381836136b7565b7f2f6d65746164617461000000000000000000000000000000000000000000000081525b60090190565b7f68747470733a2f2f6170692e636861696e647265616d6572732e78797a2f746581527f73742f746f6b656e732f000000000000000000000000000000000000000000006020820152602a0161392e81836136b7565b9050610e88816138ae565b816135f9565b63ffffffff9081169082166135f9565b634e487b7160e01b600052602260045260246000fd5b60028104600182168061397957607f821691505b602082108114156107c8576107c861394f565b61399681876136b7565b90506139a281866136b7565b90506139ae81856136b7565b90506139ba81846136b7565b90506139c681836136b7565b9695505050505050565b60ff8116905060ff8216915060008260ff038211156136b2576136b26134e1565b6000816000190483118215151615613689576136896134e1565b63ffffffff90811690821661370c565b63ffffffff9081169082166134b5565b60ff9081169082166135f9565b63ffffffff8116905063ffffffff8216915060008263ffffffff038211156136b2576136b26134e1565b60208101610e8882846137ab565b613a7a81856136b7565b9050613a868184613735565b600101612a5181836136b7565b613a9d81856136b7565b9050613aa981846136b7565b9050612a5181836136b7565b60ff8116905060ff8216915060008160ff0483118215151615613689576136896134e1565b60008083357fffffffffffffffffffffffffffffffffffffffffffffffffffffffffffffffe136859003018112613b1357613b13600080fd5b8301915050803567ffffffffffffffff811115613b3257613b32600080fd5b602082019150600181023603821315612db057612db0600080fd5b8051610e8881612ca5565b600060208284031215613b6d57613b6d600080fd5b6000612a518484613b4d565b7f646174613a696d6167652f7376672b786d6c2c000000000000000000000000008152601381015b9050610e8881836136b7565b60208082528101610e8881602681527f4f776e61626c653a206e6577206f776e657220697320746865207a65726f206160208201527f6464726573730000000000000000000000000000000000000000000000000000604082015260600190565b600081525b60010190565b613ba181613c0e565b60148152602081017f746f55696e7431365f6f75744f66426f756e647300000000000000000000000081529050612cf9565b60208082528101610e8881613c22565b600e8152602081017f736c6963655f6f766572666c6f7700000000000000000000000000000000000081529050612cf9565b60208082528101610e8881613c64565b60118152602081017f736c6963655f6f75744f66426f756e647300000000000000000000000000000081529050612cf9565b60208082528101610e8881613ca6565b7f63000000000000000000000000000000000000000000000000000000000000008152613c13565b6000610e888260e01b90565b612c9163ffffffff8216613d10565b7f80600e6000396000f3000000000000000000000000000000000000000000000081526138d2565b613d5c81613ce8565b9050613d688184613d1c565b6004016136e381613d2b565b60608101613d8282866137ab565b613d8f60208301856137ab565b612a5160408301846137ab56fe2533637374796c65253365706174687b7374726f6b652d77696474683a302e37317d2533632f7374796c652533652533632f737667253365253363737667253230786d6c6e733d27687474703a2f2f7777772e77332e6f72672f323030302f7376672725323076696577426f783d2730253230302532303235352532303235352725323077696474683d273530307078272532306865696768743d27353030707827253365a26469706673582212200d7ec61c02a6469d3bb706ea8f4358a220c9abc84a53aa109584af96242f131d64736f6c63430008080033",
  "deployedBytecode": "0x608060405234801561001057600080fd5b50600436106102e95760003560e01c80638da5cb5b11610191578063d337c2c3116100e3578063f2a90a7611610097578063fd88767711610071578063fd88767714610728578063fdd5e4e81461073b578063fe31cecf1461075c57600080fd5b8063f2a90a76146106ef578063f2fde38b14610702578063f6a5d7021461071557600080fd5b8063e0c9ae69116100c8578063e0c9ae6914610664578063e87ab5e0146106a0578063e8f255f0146106b357600080fd5b8063d337c2c3146105ec578063d6bf65011461062857600080fd5b8063b674b76111610145578063bfa933261161011f578063bfa933261461057e578063c1dfb56714610591578063cd369849146105c557600080fd5b8063b674b7611461051c578063b9f8e72a14610558578063bc4617fb1461056b57600080fd5b8063aacb2fa611610176578063aacb2fa614610501578063b3215d4914610501578063b4de62161461050957600080fd5b80638da5cb5b146104b4578063a4cd9a11146104c557600080fd5b80634b65e32f1161024a5780636f5c723b116101fe5780637c213e7b116101d85780637c213e7b146104865780637e8e0657146104995780638aaad546146104a157600080fd5b80636f5c723b14610463578063715018a61461046b578063761d9db81461047357600080fd5b80635cc518ba1161022f5780635cc518ba1461042a5780636432609f1461043d578063677bfad31461045057600080fd5b80634b65e32f146103e55780634c63ba13146103f857600080fd5b8063397bcf61116102a15780633e1ed132116102865780633e1ed1321461039d57806340eb8e22146103b0578063480bc3c8146103d057600080fd5b8063397bcf611461037557806339bfa8731461038a57600080fd5b80631a5d193d116102d25780631a5d193d1461032a578063220b028d1461034a5780632c3e0c5c1461035f57600080fd5b80630e275391146102ee5780631866112c14610317575b600080fd5b602c54610301906001600160a01b031681565b60405161030e9190612c97565b60405180910390f35b602d54610301906001600160a01b031681565b61033d610338366004612cbd565b61076f565b60405161030e9190612d31565b610352600381565b60405161030e9190612d49565b61036861271081565b60405161030e9190612d57565b610388610383366004612db7565b6107ce565b005b61033d610398366004612e13565b610871565b6103886103ab366004612db7565b610e8e565b6103c36103be366004612f5e565b610f28565b60405161030e9190613012565b6103d8611295565b60405161030e9190613085565b6103d86103f3366004613096565b6112b1565b61041d7d01000000000000000000000000000000000000000000000000000000000081565b60405161030e91906130df565b6103d8610438366004612e13565b611689565b602e54610301906001600160a01b031681565b61030161045e366004612cbd565b6116bb565b6103d86116e5565b610388611701565b6103d8610481366004613096565b611737565b6103686104943660046130ed565b6118f0565b610352600d81565b6103d86104af366004613227565b611a7c565b6000546001600160a01b0316610301565b6103d86040518060400160405280600581526020017f272f25336500000000000000000000000000000000000000000000000000000081525081565b610352600c81565b6103c3610517366004613096565b611cad565b6103d86040518060400160405280600a81526020017f2725323066696c6c3d270000000000000000000000000000000000000000000081525081565b6103d86105663660046132f9565b611d10565b61038861057936600461337f565b61225e565b61038861058c366004612db7565b612352565b6105b87f4d4c51434148565a00000000000000000000000000000000000000000000000081565b60405161030e91906133e3565b6105b87f020204060701010000000000000000000000000000000000000000000000000081565b6103d86040518060400160405280600381526020017f253233000000000000000000000000000000000000000000000000000000000081525081565b6103d86040518060400160405280600d81526020017f25336370617468253230643d270000000000000000000000000000000000000081525081565b6103d86040518060400160405280600381526020017f253230000000000000000000000000000000000000000000000000000000000081525081565b6103d86106ae366004612e13565b6123ec565b6103d86040518060400160405280601281526020017f272532307374726f6b653d27253233303030000000000000000000000000000081525081565b602a54610301906001600160a01b031681565b610388610710366004613405565b6124db565b610388610723366004612db7565b612537565b610368610736366004613426565b6125d1565b61074e610749366004613096565b61262e565b60405161030e929190613482565b61038861076a366004612db7565b61277b565b610777612ba1565b60005b600d8110156107c85761078f612710846134b3565b8282600d81106107a1576107a16134cb565b61ffff9092166020929092020152600e9290921c91806107c0816134f7565b91505061077a565b50919050565b6000546001600160a01b031633146108015760405162461bcd60e51b81526004016107f890613542565b60405180910390fd5b61084082828080601f0160208091040260200160405190810160405280939291908181526020018383808284376000920191909152506127b192505050565b602d805473ffffffffffffffffffffffffffffffffffffffff19166001600160a01b03929092169190911790555050565b610879612ba1565b60006108848461076f565b905060006108bc848360405160200161089e929190613595565b6040516020818303038152906040528051906020012060001c61076f565b60295460208401516040517f7f436b5c0000000000000000000000000000000000000000000000000000000081529293506000926001600160a01b0390921691637f436b5c9161090e91600401612d57565b60206040518083038186803b15801561092657600080fd5b505afa15801561093a573d6000803e3d6000fd5b505050506040513d601f19601f8201168201806040525081019061095e91906135c1565b60ff16905061096e6004866135e2565b60ff166109d157815161ffff908116845260c08084015182169085015260e0808401518216908501526101008084015182169085015261014080840151821690850152610160808401518216908501526101808084015190911690840152610a39565b6109dc6004866135e2565b60ff1660011415610a395760208083015161ffff9081169185019190915260408084015182169085015260608084015182169085015260808084015182169085015260a08084015182169085015261012080840151909116908401525b600060028261ffff1660038110610a5257610a526134cb565b600d0201600701600781548110610a6b57610a6b6134cb565b90600052602060002090601091828204019190066002029054906101000a900461ffff16612710610a9c91906135ef565b61ffff16846007602002015161ffff16109050600060028361ffff1660038110610ac857610ac86134cb565b600d0201600801600781548110610ae157610ae16134cb565b90600052602060002090601091828204019190066002029054906101000a900461ffff16612710610b1291906135ef565b61ffff16856008602002015161ffff16109050600060028461ffff1660038110610b3e57610b3e6134cb565b600d0201600901602481548110610b5757610b576134cb565b90600052602060002090601091828204019190066002029054906101000a900461ffff16612710610b8891906135ef565b61ffff16866009602002015161ffff16109050600060028561ffff1660038110610bb457610bb46134cb565b600d0201600b01603081548110610bcd57610bcd6134cb565b90600052602060002090601091828204019190066002029054906101000a900461ffff16612710610bfe91906135ef565b61ffff1687600b602002015161ffff16109050600080600289826020020151610c279190613612565b61ffff1611905060005b600d60ff82161015610e7e576029546000906001600160a01b031663fca228ce8b60ff8516600d8110610c6657610c666134cb565b6020020151848b6040518463ffffffff1660e01b8152600401610c8b93929190613620565b60206040518083038186803b158015610ca357600080fd5b505afa158015610cb7573d6000803e3d6000fd5b505050506040513d601f19601f82011682018060405250810190610cdb91906135c1565b905060ff8216158015610cfb5750610cf460048d6135e2565b60ff166002145b15610d1a578851610d0e90600a90613612565b61ffff16610d1a5750602c5b6000610d2c8360ff168360ff166118f0565b905060008360ff1660021480610d4557508360ff16600c145b8015610d4f575087155b8015610d59575088155b80610d7057508360ff166007148015610d70575087155b80610d8757508360ff16600a148015610d87575087155b80610dda575060028460ff161080610db0575060028460ff16118015610db0575060078460ff16105b80610dbe57508360ff166008145b80610dcc57508360ff166009145b80610dda57508360ff16600b145b90506000878015610de85750865b8015610dff57508460ff166009148015610dff5750855b80610e1657508460ff16600b148015610e16575085155b905061ffff83811610801580610e2a575082155b80610e325750815b15610e3d5761ffff93505b838f8760ff16600d8110610e5357610e536134cb565b602002019061ffff16908161ffff168152505050505050508080610e7690613648565b915050610c31565b5050505050505050505b92915050565b6000546001600160a01b03163314610eb85760405162461bcd60e51b81526004016107f890613542565b610ef782828080601f0160208091040260200160405190810160405280939291908181526020018383808284376000920191909152506127b192505050565b602e805473ffffffffffffffffffffffffffffffffffffffff19166001600160a01b03929092169190911790555050565b602e54606090600090610f43906001600160a01b0316612829565b602d54909150600090610f5e906001600160a01b0316612829565b9050606060008060005b600d61ffff8216101561105e5761ffff88828216600d8110610f8c57610f8c6134cb565b602002015161ffff161415610fa05761104c565b610fd386898361ffff16600d8110610fba57610fba6134cb565b6020020151610fca906002613661565b61ffff16612839565b925061100a86898361ffff16600d8110610fef57610fef6134cb565b6020020151610fff906002613661565b610fca90600261368e565b9150836110298661ffff861661102087876135ef565b61ffff1661286f565b60405160200161103a9291906136d9565b60405160208183030381529060405293505b80611056816136ef565b915050610f68565b5060008060038551611070919061370a565b67ffffffffffffffff81111561108857611088612e50565b6040519080825280602002602001820160405280156110d357816020015b60408051606081018252600080825260208083018290529282015282526000199092019101816110a65790505b50905060005b85518110156112885760008073__$6cc8f8b41053aebd660af83ec8df928129$__635dfb512c898581518110611111576111116134cb565b01602001516001600160f81b0319168a61112c876001613722565b8151811061113c5761113c6134cb565b01602001516001600160f81b0319168b611157886002613722565b81518110611167576111676134cb565b01602001516040517fffffffff0000000000000000000000000000000000000000000000000000000060e086901b1681526111b19392916001600160f81b03191690600401613745565b604080518083038186803b1580156111c857600080fd5b505af41580156111dc573d6000803e3d6000fd5b505050506040513d601f19601f820116820180604052508101906112009190613778565b90925090506000611212600283613612565b61ffff1611945060018161ffff16901c905060405180606001604052808361ffff1681526020018261ffff16815260200186151581525084600385611257919061370a565b81518110611267576112676134cb565b602002602001018190525050506003816112819190613722565b90506110d9565b5098975050505050505050565b6040518060a00160405280606d8152602001613dd5606d913981565b602a546060906000906112cc906001600160a01b0316612829565b90506000816112dc856003613661565b61ffff16815181106112f0576112f06134cb565b01602001516001600160f81b0319161480156113455750600081611315856003613661565b61132090600161368e565b61ffff1681518110611334576113346134cb565b01602001516001600160f81b031916145b80156113a957507f010000000000000000000000000000000000000000000000000000000000000081611379856003613661565b61138490600261368e565b61ffff1681518110611398576113986134cb565b01602001516001600160f81b031916145b156113e957505060408051808201909152600481527f6e6f6e65000000000000000000000000000000000000000000000000000000006020820152919050565b6040518060400160405280600381526020017f25323300000000000000000000000000000000000000000000000000000000008152508184600361142d9190613661565b61ffff1681518110611441576114416134cb565b016020015160405163c1338a6960e01b815273__$6cc8f8b41053aebd660af83ec8df928129$__9163c1338a69916114859160f81c906010906002906004016137c5565b60006040518083038186803b15801561149d57600080fd5b505af41580156114b1573d6000803e3d6000fd5b505050506040513d6000823e601f3d908101601f191682016040526114d99190810190613845565b826114e5866003613661565b6114f090600161368e565b61ffff1681518110611504576115046134cb565b016020015160405163c1338a6960e01b815273__$6cc8f8b41053aebd660af83ec8df928129$__9163c1338a69916115489160f81c906010906002906004016137c5565b60006040518083038186803b15801561156057600080fd5b505af4158015611574573d6000803e3d6000fd5b505050506040513d6000823e601f3d908101601f1916820160405261159c9190810190613845565b836115a8876003613661565b6115b390600261368e565b61ffff16815181106115c7576115c76134cb565b016020015160405163c1338a6960e01b815273__$6cc8f8b41053aebd660af83ec8df928129$__9163c1338a699161160b9160f81c906010906002906004016137c5565b60006040518083038186803b15801561162357600080fd5b505af4158015611637573d6000803e3d6000fd5b505050506040513d6000823e601f3d908101601f1916820160405261165f9190810190613845565b6040516020016116729493929190613880565b604051602081830303815290604052915050919050565b606061169483612937565b6040516020016116a491906138d8565b604051602081830303815290604052905092915050565b602b81815481106116cb57600080fd5b6000918252602090912001546001600160a01b0316905081565b604051806060016040528060388152602001613d9d6038913981565b6000546001600160a01b0316331461172b5760405162461bcd60e51b81526004016107f890613542565b6117356000612a59565b565b60606000806117458461262e565b9150915060008061177c602b8381548110611762576117626134cb565b6000918252602090912001546001600160a01b0316612829565b805190915063ffffffff85165b611794600183613939565b8663ffffffff1611156117e85782516117ad9082613939565b9050836117b9816134f7565b9450506117d2602b8581548110611762576117626134cb565b92508251826117e19190613722565b9150611789565b60006117f4878761393f565b63ffffffff1667ffffffffffffffff81111561181257611812612e50565b6040519080825280601f01601f19166020018201604052801561183c576020820181803683370190505b50905060005b815181101561128857600185516118599190613939565b83111561188a578561186a816134f7565b965050611883602b8781548110611762576117626134cb565b9450600092505b84838151811061189c5761189c6134cb565b602001015160f81c60f81b8282815181106118b9576118b96134cb565b60200101906001600160f81b031916908160001a905350826118da816134f7565b93505080806118e8906134f7565b915050611842565b60008061198e602f805461190390613965565b80601f016020809104026020016040519081016040528092919081815260200182805461192f90613965565b801561197c5780601f106119515761010080835404028352916020019161197c565b820191906000526020600020905b81548152906001019060200180831161195f57829003601f168201915b5050505050856002610fca9190613661565b90506000611a38602f80546119a290613965565b80601f01602080910402602001604051908101604052809291908181526020018280546119ce90613965565b8015611a1b5780601f106119f057610100808354040283529160200191611a1b565b820191906000526020600020905b8154815290600101906020018083116119fe57829003601f168201915b5050505050866001611a2d919061368e565b610fca906002613661565b9050611a456001826135ef565b61ffff16611a53858461368e565b61ffff161115611a695761ffff92505050610e88565b611a73848361368e565b95945050505050565b606060006040518060a00160405280606d8152602001613dd5606d9139905060005b83518161ffff161015611c8157816040518060400160405280600d81526020017f25336370617468253230643d2700000000000000000000000000000000000000815250611b0f610566878561ffff1681518110611afe57611afe6134cb565b602002602001015160000151611737565b6040518060400160405280600a81526020017f2725323066696c6c3d2700000000000000000000000000000000000000000000815250611b6f888661ffff1681518110611b5e57611b5e6134cb565b6020026020010151602001516112b1565b604051602001611b8395949392919061398c565b6040516020818303038152906040529150838161ffff1681518110611baa57611baa6134cb565b60200260200101516040015115611c1557816040518060400160405280601281526020017f272532307374726f6b653d272532333030300000000000000000000000000000815250604051602001611c039291906136d9565b60405160208183030381529060405291505b816040518060400160405280600581526020017f272f253365000000000000000000000000000000000000000000000000000000815250604051602001611c5d9291906136d9565b60405160208183030381529060405291508080611c79906136ef565b915050611a9e565b5080604051806060016040528060388152602001613d9d603891396040516020016116729291906136d9565b6060611cb7612ba1565b61ffff8316815260015b600d811015611cff5761ffff8282600d8110611cdf57611cdf6134cb565b61ffff909216602092909202015280611cf7816134f7565b915050611cc1565b50611d0981610f28565b9392505050565b6060806060600080600080805b611d29600360086139d0565b60ff1689516008611d3a91906139f1565b611d449190613939565b8563ffffffff161161225157611d5b600886613a0b565b9350611d68600886613a1b565b9250611d7660036008613a2b565b60ff16611d84846008613a2b565b60ff168a611d9387600161368e565b61ffff1681518110611da757611da76134cb565b602001015160f81c60f81b6001600160f81b031916901c8460ff168b8761ffff1681518110611dd857611dd86134cb565b01602001516001600160f81b031916901b1760f81c901c91507f020204060701010000000000000000000000000000000000000000000000000060ff831660088110611e2657611e266134cb565b1a9050611e34600386613a38565b9450611e41600886613a0b565b9350611e4e600886613a1b565b92508060ff1667ffffffffffffffff811115611e6c57611e6c612e50565b6040519080825280601f01601f191660200182016040528015611e96576020820181803683370190505b50955060005b8160ff168160ff161015611fd6578360ff168a8260ff1687611ebe919061368e565b61ffff1681518110611ed257611ed26134cb565b602001015160f81c60f81b6001600160f81b031916901b878260ff1681518110611efe57611efe6134cb565b60200101906001600160f81b031916908160001a9053508951611f2460ff83168761368e565b611f2f90600161368e565b61ffff161015611fc457611f44846008613a2b565b60ff168a8260ff1687611f57919061368e565b611f6290600161368e565b61ffff1681518110611f7657611f766134cb565b602001015160f81c60f81b6001600160f81b031916901c878260ff1681518110611fa257611fa26134cb565b0160200180516001600160f81b031992831692169190911790600082901a9053505b80611fce81613648565b915050611e9c565b50867f4d4c51434148565a0000000000000000000000000000000000000000000000008360ff166008811061200d5761200d6134cb565b1a60f81b87600081518110612024576120246134cb565b01602001516040517f6900a3ae00000000000000000000000000000000000000000000000000000000815273__$6cc8f8b41053aebd660af83ec8df928129$__91636900a3ae9161207b9160f81c90600401613a62565b60006040518083038186803b15801561209357600080fd5b505af41580156120a7573d6000803e3d6000fd5b505050506040513d6000823e601f3d908101601f191682016040526120cf9190810190613845565b6040516020016120e193929190613a70565b60408051601f19818403018152919052965060015b8160ff168160ff16101561223157876040518060400160405280600381526020017f2532300000000000000000000000000000000000000000000000000000000000815250888360ff1681518110612150576121506134cb565b01602001516040517f6900a3ae00000000000000000000000000000000000000000000000000000000815273__$6cc8f8b41053aebd660af83ec8df928129$__91636900a3ae916121a79160f81c90600401613a62565b60006040518083038186803b1580156121bf57600080fd5b505af41580156121d3573d6000803e3d6000fd5b505050506040513d6000823e601f3d908101601f191682016040526121fb9190810190613845565b60405160200161220d93929190613a93565b6040516020818303038152906040529750808061222990613648565b9150506120f6565b5061223d816008613ab5565b61224a9060ff1686613a38565b9450611d1d565b5094979650505050505050565b6000546001600160a01b031633146122885760405162461bcd60e51b81526004016107f890613542565b60005b60ff811682111561234d57602b6122fc84848460ff168181106122b0576122b06134cb565b90506020028101906122c29190613ada565b8080601f0160208091040260200160405190810160405280939291908181526020018383808284376000920191909152506127b192505050565b815460018101835560009283526020909220909101805473ffffffffffffffffffffffffffffffffffffffff19166001600160a01b039092169190911790558061234581613648565b91505061228b565b505050565b6000546001600160a01b0316331461237c5760405162461bcd60e51b81526004016107f890613542565b6123bb82828080601f0160208091040260200160405190810160405280939291908181526020018383808284376000920191909152506127b192505050565b602a805473ffffffffffffffffffffffffffffffffffffffff19166001600160a01b03929092169190911790555050565b6030546040517f422627c30000000000000000000000000000000000000000000000000000000081526060916000916001600160a01b039091169063422627c39061243b908790600401613a62565b60206040518083038186803b15801561245357600080fd5b505afa158015612467573d6000803e3d6000fd5b505050506040513d601f19601f8201168201806040525081019061248b9190613b58565b905060006124998285610871565b905060006124a682610f28565b90506124b181611a7c565b6040516020016124c19190613b79565b604051602081830303815290604052935050505092915050565b6000546001600160a01b031633146125055760405162461bcd60e51b81526004016107f890613542565b6001600160a01b03811661252b5760405162461bcd60e51b81526004016107f890613bad565b61253481612a59565b50565b6000546001600160a01b031633146125615760405162461bcd60e51b81526004016107f890613542565b6125a082828080601f0160208091040260200160405190810160405280939291908181526020018383808284376000920191909152506127b192505050565b602c805473ffffffffffffffffffffffffffffffffffffffff19166001600160a01b03929092169190911790555050565b600283600381106125e157600080fd5b600d020182600d81106125f357600080fd5b01818154811061260257600080fd5b906000526020600020906010918282040191900660020292509250509054906101000a900461ffff1681565b602c546000908190819061264a906001600160a01b0316612829565b9050600061265d82610fca876002613661565b61ffff169050600061267483610fff886002613661565b61ffff1690506103e88661ffff1663ffffffff1611801561269c5750614e208263ffffffff16105b156126bc57816126af61ffff6001613a38565b6126b99190613a38565b91505b6107d061ffff87161180156126d85750619c408263ffffffff16105b156126f857816126eb61ffff6001613a38565b6126f59190613a38565b91505b6103e861ffff87161180156127145750614e208163ffffffff16105b15612734578061272761ffff6001613a38565b6127319190613a38565b90505b6107d061ffff87161180156127505750619c408163ffffffff16105b15612770578061276361ffff6001613a38565b61276d9190613a38565b90505b909590945092505050565b6000546001600160a01b031633146127a55760405162461bcd60e51b81526004016107f890613542565b61234d602f8383612bc0565b6000806127dc836040516020016127c89190613c19565b604051602081830303815290604052612ab6565b90508051602082016000f091506001600160a01b0382166107c8576040517f08d4abb600000000000000000000000000000000000000000000000000000000815260040160405180910390fd5b6060610e88826001600019612ae2565b6000612846826002613722565b835110156128665760405162461bcd60e51b81526004016107f890613c54565b50016002015190565b60608161287d81601f613722565b101561289b5760405162461bcd60e51b81526004016107f890613c96565b6128a58284613722565b845110156128c55760405162461bcd60e51b81526004016107f890613cd8565b6060821580156128e4576040519150600082526020820160405261292e565b6040519150601f8416801560200281840101858101878315602002848b0101015b8183101561291d578051835260209283019201612905565b5050858452601f01601f1916604052505b50949350505050565b60608161297757505060408051808201909152600181527f3000000000000000000000000000000000000000000000000000000000000000602082015290565b8160005b81156129a1578061298b816134f7565b915061299a9050600a8361370a565b915061297b565b60008167ffffffffffffffff8111156129bc576129bc612e50565b6040519080825280601f01601f1916602001820160405280156129e6576020820181803683370190505b5090505b8415612a51576129fb600183613939565b9150612a08600a866134b3565b612a13906030613722565b60f81b818381518110612a2857612a286134cb565b60200101906001600160f81b031916908160001a905350612a4a600a8661370a565b94506129ea565b949350505050565b600080546001600160a01b0383811673ffffffffffffffffffffffffffffffffffffffff19831681178455604051919092169283917f8be0079c531659141344cd1fd0a4f28419497f9722a3daafe3b4186f6b6457e09190a35050565b6060815182604051602001612acc929190613d53565b6040516020818303038152906040529050919050565b6060833b80612b01575050604080516020810190915260008152611d09565b80841115612b1f575050604080516020810190915260008152611d09565b83831015612b5f578084846040517f2c4a89fa0000000000000000000000000000000000000000000000000000000081526004016107f893929190613d74565b8383038482036000828210612b745782612b76565b815b60408051603f8301601f19168101909152818152955090508087602087018a3c505050509392505050565b604051806101a00160405280600d906020820280368337509192915050565b828054612bcc90613965565b90600052602060002090601f016020900481019282612bee5760008555612c52565b82601f10612c25578280017fffffffffffffffffffffffffffffffffffffffffffffffffffffffffffffff00823516178555612c52565b82800160010185558215612c52579182015b82811115612c52578235825591602001919060010190612c37565b50612c5e929150612c62565b5090565b5b80821115612c5e5760008155600101612c63565b60006001600160a01b038216610e88565b612c9181612c77565b82525050565b60208101610e888284612c88565b805b811461253457600080fd5b8035610e8881612ca5565b600060208284031215612cd257612cd2600080fd5b6000612a518484612cb2565b61ffff8116612c91565b612cf28282612cde565b5060200190565b60200190565b600d8160005b82811015612d2a578151612d198682612ce8565b955050602082019150600101612d05565b5050505050565b6101a08101610e888284612cff565b60ff8116612c91565b60208101610e888284612d40565b60208101610e888284612cde565b60008083601f840112612d7a57612d7a600080fd5b50813567ffffffffffffffff811115612d9557612d95600080fd5b602083019150836001820283011115612db057612db0600080fd5b9250929050565b60008060208385031215612dcd57612dcd600080fd5b823567ffffffffffffffff811115612de757612de7600080fd5b612df385828601612d65565b92509250509250929050565b60ff8116612ca7565b8035610e8881612dff565b60008060408385031215612e2957612e29600080fd5b6000612e358585612cb2565b9250506020612e4685828601612e08565b9150509250929050565b634e487b7160e01b600052604160045260246000fd5b601f19601f830116810181811067ffffffffffffffff82111715612e8c57612e8c612e50565b6040525050565b6000612e9e60405190565b9050612eaa8282612e66565b919050565b600067ffffffffffffffff821115612ec957612ec9612e50565b5060200290565b61ffff8116612ca7565b8035610e8881612ed0565b6000612ef8612ef384612eaf565b612e93565b90508060208402830185811115612f1157612f11600080fd5b835b81811015612f3357612f258782612eda565b835260209283019201612f13565b5050509392505050565b600082601f830112612f5157612f51600080fd5b600d612a51848285612ee5565b60006101a08284031215612f7457612f74600080fd5b6000612a518484612f3d565b801515612c91565b8051612f948382612cde565b506020810151612fa76020840182612cde565b50604081015161234d6040840182612f80565b612fc48282612f88565b5060600190565b6000612fd5825190565b808452602093840193830160005b82811015613008578151612ff78782612fba565b965050602082019150600101612fe3565b5093949350505050565b60208082528101611d098184612fcb565b60005b8381101561303e578181015183820152602001613026565b8381111561304d576000848401525b50505050565b600061305d825190565b808452602084019350613074818560208601613023565b601f01601f19169290920192915050565b60208082528101611d098184613053565b6000602082840312156130ab576130ab600080fd5b6000612a518484612eda565b7fffffff00000000000000000000000000000000000000000000000000000000008116612c91565b60208101610e8882846130b7565b6000806040838503121561310357613103600080fd5b600061310f8585612eda565b9250506020612e4685828601612eda565b600067ffffffffffffffff82111561313a5761313a612e50565b5060209081020190565b801515612ca7565b8035610e8881613144565b60006060828403121561316c5761316c600080fd5b6131766060612e93565b905060006131848484612eda565b90820152602061319684848301612eda565b9082015260406131a88484830161314c565b9082015292915050565b60006131c0612ef384613120565b838152905060208101606084028301858111156131df576131df600080fd5b835b81811015612f33576131f38782613157565b83526020909201916060016131e1565b600082601f83011261321757613217600080fd5b8135612a518482602086016131b2565b60006020828403121561323c5761323c600080fd5b813567ffffffffffffffff81111561325657613256600080fd5b612a5184828501613203565b600067ffffffffffffffff82111561327c5761327c612e50565b601f19601f83011660200192915050565b82818337506000910152565b60006132a7612ef384613262565b9050828152602081018484840111156132c2576132c2600080fd5b6132cd84828561328d565b509392505050565b600082601f8301126132e9576132e9600080fd5b8135612a51848260208601613299565b60006020828403121561330e5761330e600080fd5b813567ffffffffffffffff81111561332857613328600080fd5b612a51848285016132d5565b60008083601f84011261334957613349600080fd5b50813567ffffffffffffffff81111561336457613364600080fd5b602083019150836020820283011115612db057612db0600080fd5b6000806020838503121561339557613395600080fd5b823567ffffffffffffffff8111156133af576133af600080fd5b612df385828601613334565b7fffffffffffffffff0000000000000000000000000000000000000000000000008116612c91565b60208101610e8882846133bb565b612ca781612c77565b8035610e88816133f1565b60006020828403121561341a5761341a600080fd5b6000612a5184846133fa565b60008060006060848603121561343e5761343e600080fd5b600061344a8686612cb2565b935050602061345b86828701612cb2565b925050604061346c86828701612cb2565b9150509250925092565b63ffffffff8116612c91565b604081016134908285613476565b611d096020830184613476565b634e487b7160e01b600052601260045260246000fd5b815b91506000826134c6576134c661349d565b500690565b634e487b7160e01b600052603260045260246000fd5b634e487b7160e01b600052601160045260246000fd5b600060001982141561350b5761350b6134e1565b5060010190565b60208082527f4f776e61626c653a2063616c6c6572206973206e6f7420746865206f776e65729101908152612cf9565b60208082528101610e8881613512565b6000610e888260f81b90565b612c9160ff8216613552565b600d8160005b82811015612d2a5781516135848682612ce8565b955050602082019150600101613570565b61359f818461355e565b6001016135ac818361356a565b6101a00192915050565b8051610e8881612dff565b6000602082840312156135d6576135d6600080fd5b6000612a5184846135b6565b60ff9081169082166134b5565b61ffff9081169082165b915060008282101561360d5761360d6134e1565b500390565b61ffff9081169082166134b5565b6060810161362e8286612cde565b61363b6020830185612d40565b612a516040830184612cde565b60ff81169050600060ff82141561350b5761350b6134e1565b61ffff8116905061ffff8216915060008161ffff0483118215151615613689576136896134e1565b500290565b61ffff8116905061ffff8216915060008261ffff038211156136b2576136b26134e1565b500190565b60006136c1825190565b6136cf818560208601613023565b9290920192915050565b6136e381846136b7565b9050611d0981836136b7565b61ffff81169050600061ffff82141561350b5761350b6134e1565b815b915060008261371d5761371d61349d565b500490565b600082198211156136b2576136b26134e1565b6001600160f81b03198116612c91565b606081016137538286613735565b6137606020830185613735565b612a516040830184613735565b8051610e8881612ed0565b6000806040838503121561378e5761378e600080fd5b600061379a858561376d565b9250506020612e468582860161376d565b80612c91565b600060ff8216610e88565b612c91816137b1565b606081016137d382866137ab565b6137e060208301856137bc565b612a5160408301846137bc565b60006137fb612ef384613262565b90508281526020810184848401111561381657613816600080fd5b6132cd848285613023565b600082601f83011261383557613835600080fd5b8151612a518482602086016137ed565b60006020828403121561385a5761385a600080fd5b815167ffffffffffffffff81111561387457613874600080fd5b612a5184828501613821565b61388a81866136b7565b905061389681856136b7565b90506138a281846136b7565b9050611a7381836136b7565b7f2f6d65746164617461000000000000000000000000000000000000000000000081525b60090190565b7f68747470733a2f2f6170692e636861696e647265616d6572732e78797a2f746581527f73742f746f6b656e732f000000000000000000000000000000000000000000006020820152602a0161392e81836136b7565b9050610e88816138ae565b816135f9565b63ffffffff9081169082166135f9565b634e487b7160e01b600052602260045260246000fd5b60028104600182168061397957607f821691505b602082108114156107c8576107c861394f565b61399681876136b7565b90506139a281866136b7565b90506139ae81856136b7565b90506139ba81846136b7565b90506139c681836136b7565b9695505050505050565b60ff8116905060ff8216915060008260ff038211156136b2576136b26134e1565b6000816000190483118215151615613689576136896134e1565b63ffffffff90811690821661370c565b63ffffffff9081169082166134b5565b60ff9081169082166135f9565b63ffffffff8116905063ffffffff8216915060008263ffffffff038211156136b2576136b26134e1565b60208101610e8882846137ab565b613a7a81856136b7565b9050613a868184613735565b600101612a5181836136b7565b613a9d81856136b7565b9050613aa981846136b7565b9050612a5181836136b7565b60ff8116905060ff8216915060008160ff0483118215151615613689576136896134e1565b60008083357fffffffffffffffffffffffffffffffffffffffffffffffffffffffffffffffe136859003018112613b1357613b13600080fd5b8301915050803567ffffffffffffffff811115613b3257613b32600080fd5b602082019150600181023603821315612db057612db0600080fd5b8051610e8881612ca5565b600060208284031215613b6d57613b6d600080fd5b6000612a518484613b4d565b7f646174613a696d6167652f7376672b786d6c2c000000000000000000000000008152601381015b9050610e8881836136b7565b60208082528101610e8881602681527f4f776e61626c653a206e6577206f776e657220697320746865207a65726f206160208201527f6464726573730000000000000000000000000000000000000000000000000000604082015260600190565b600081525b60010190565b613ba181613c0e565b60148152602081017f746f55696e7431365f6f75744f66426f756e647300000000000000000000000081529050612cf9565b60208082528101610e8881613c22565b600e8152602081017f736c6963655f6f766572666c6f7700000000000000000000000000000000000081529050612cf9565b60208082528101610e8881613c64565b60118152602081017f736c6963655f6f75744f66426f756e647300000000000000000000000000000081529050612cf9565b60208082528101610e8881613ca6565b7f63000000000000000000000000000000000000000000000000000000000000008152613c13565b6000610e888260e01b90565b612c9163ffffffff8216613d10565b7f80600e6000396000f3000000000000000000000000000000000000000000000081526138d2565b613d5c81613ce8565b9050613d688184613d1c565b6004016136e381613d2b565b60608101613d8282866137ab565b613d8f60208301856137ab565b612a5160408301846137ab56fe2533637374796c65253365706174687b7374726f6b652d77696474683a302e37317d2533632f7374796c652533652533632f737667253365253363737667253230786d6c6e733d27687474703a2f2f7777772e77332e6f72672f323030302f7376672725323076696577426f783d2730253230302532303235352532303235352725323077696474683d273530307078272532306865696768743d27353030707827253365a26469706673582212200d7ec61c02a6469d3bb706ea8f4358a220c9abc84a53aa109584af96242f131d64736f6c63430008080033",
  "libraries": {
    "Integers": "0x03abFda4e7cec3484D518848B5e6aa10965F91DD"
  },
  "devdoc": {
    "kind": "dev",
    "methods": {
      "getD(bytes)": {
        "details": "Decodes the path and returns it as a plain string to be used in the svg path attribute."
      },
      "getDBytes(uint16)": {
        "details": "Retrieve the bytes for the given d from the dPalette storage. The bytes may be split into several SSTORE2      slots."
      },
      "getDIndex(uint16)": {
        "details": "Get the start and end indexes of the bytes concerning the given d in the dPalette storage."
      },
      "getFill(uint16)": {
        "details": "3 bytes per color because svg does not handle alpha."
      },
      "getSvg((uint16,uint16,bool)[])": {
        "details": "Each trait is the bytes representation of the final svg string concatenating several <path> elements."
      },
      "getTokenData(uint256,uint8)": {
        "details": "Somehow copied from the original code but returns an array of trait indexes instead of Layer structs.      Flags for no layer is also updated from empty `Layer` to index = type(uint16).max."
      },
      "getTraitIndex(uint16,uint16)": {
        "details": "This function will be the pendant of the ChainRunnersBaseRenderer.getLayer ones."
      },
      "getTraits(uint16[13])": {
        "details": "Used to concat all the traits of a given dreamers given the array of trait indexes."
      },
      "owner()": {
        "details": "Returns the address of the current owner."
      },
      "renounceOwnership()": {
        "details": "Leaves the contract without owner. It will not be possible to call `onlyOwner` functions anymore. Can only be called by the current owner. NOTE: Renouncing ownership will leave the contract without an owner, thereby removing any functionality that is only available to the owner."
      },
      "setDPalette(bytes[])": {
        "details": "Only the d parameter is encoded for each path. All the paths are concatenated together to save gas.      The dPaletteIndexes is used to retrieve the path from the dPalette."
      },
      "setDPaletteIndex(bytes)": {
        "details": "Since each SSTORE2 slots can contain up to 24kb, indexes need to be uint16, ie. two bytes per index."
      },
      "setFillPalette(bytes)": {
        "details": "Colors are concatenated and stored in a single 'bytes' with SSTORE2 to save gas."
      },
      "setLayerIndexes(bytes)": {
        "details": "The trait indexes allow to map from the Chain Runners 2D indexation (trait index, layer index) to the      current 1D indexation (trait index)."
      },
      "setTraitPalette(bytes)": {
        "details": "The traits are stored as a list of tuples (d index, fill index). For our case, 12 bits per index is      enough as 2^12 = 4096 is greater than total number of d and total number of fill to date.      This could be changed if needed.      Hence a trait is a sequence of several 3 bytes long (d index, fill index)."
      },
      "setTraitPaletteIndex(bytes)": {
        "details": "Since each SSTORE2 slots can contain up to 24kb, indexes need to be uint16, ie. two bytes per index.      A trait can then be retrieved with traitPalette[traitPaletteIndexes[i]: traitPaletteIndexes[i+1]]"
      },
      "transferOwnership(address)": {
        "details": "Transfers ownership of the contract to a new account (`newOwner`). Can only be called by the current owner."
      }
    },
    "version": 1
  },
  "userdoc": {
    "kind": "user",
    "methods": {
      "getTokenData(uint256,uint8)": {
        "notice": "The Dreamer's full DNA is an alteration of its corresponding Runner's DNA with it's consumed candy.      The candy ids are hardcoded while it should be better to retrieve their effects from the CandyShop      contract."
      },
      "getTrait(uint16)": {
        "notice": "Useful for returning a single Traits in the Runner's meaning"
      },
      "imageURI(uint256,uint8)": {
        "notice": "On-chain rendering of any runner with a given candy         For on-chain rendering of a given token, retrieve first its candy with `dreamers(tokenId)`         and give it here. The output can be directly copied/pasted into the browser bar for displaying the image."
      },
      "tokenURI(uint256,uint8)": {
        "notice": "Off-chain rendering because of Twitter, MetaMask, etc."
      }
    },
    "version": 1
  },
  "storageLayout": {
    "storage": [
      {
        "astId": 225,
        "contract": "contracts/dreamers/DreamersRenderer.sol:DreamersRenderer",
        "label": "_owner",
        "offset": 0,
        "slot": "0",
        "type": "t_address"
      },
      {
        "astId": 425,
        "contract": "contracts/dreamers/DreamersRenderer.sol:DreamersRenderer",
        "label": "_status",
        "offset": 0,
        "slot": "1",
        "type": "t_uint256"
      },
      {
        "astId": 4762,
        "contract": "contracts/dreamers/DreamersRenderer.sol:DreamersRenderer",
        "label": "WEIGHTS",
        "offset": 0,
        "slot": "2",
        "type": "t_array(t_array(t_array(t_uint16)dyn_storage)13_storage)3_storage"
      },
      {
        "astId": 4771,
        "contract": "contracts/dreamers/DreamersRenderer.sol:DreamersRenderer",
        "label": "chainRunnersBaseRenderer",
        "offset": 0,
        "slot": "41",
        "type": "t_contract(IChainRunnersBaseRenderer)7999"
      },
      {
        "astId": 6275,
        "contract": "contracts/dreamers/DreamersRenderer.sol:DreamersRenderer",
        "label": "fillPalette",
        "offset": 0,
        "slot": "42",
        "type": "t_address"
      },
      {
        "astId": 6278,
        "contract": "contracts/dreamers/DreamersRenderer.sol:DreamersRenderer",
        "label": "dPalette",
        "offset": 0,
        "slot": "43",
        "type": "t_array(t_address)dyn_storage"
      },
      {
        "astId": 6280,
        "contract": "contracts/dreamers/DreamersRenderer.sol:DreamersRenderer",
        "label": "dPaletteIndexes",
        "offset": 0,
        "slot": "44",
        "type": "t_address"
      },
      {
        "astId": 6282,
        "contract": "contracts/dreamers/DreamersRenderer.sol:DreamersRenderer",
        "label": "traitPalette",
        "offset": 0,
        "slot": "45",
        "type": "t_address"
      },
      {
        "astId": 6284,
        "contract": "contracts/dreamers/DreamersRenderer.sol:DreamersRenderer",
        "label": "traitPaletteIndexes",
        "offset": 0,
        "slot": "46",
        "type": "t_address"
      },
      {
        "astId": 6286,
        "contract": "contracts/dreamers/DreamersRenderer.sol:DreamersRenderer",
        "label": "layerIndexes",
        "offset": 0,
        "slot": "47",
        "type": "t_bytes_storage"
      },
      {
        "astId": 6289,
        "contract": "contracts/dreamers/DreamersRenderer.sol:DreamersRenderer",
        "label": "runnersToken",
        "offset": 0,
        "slot": "48",
        "type": "t_contract(IChainRunners)7978"
      }
    ],
    "types": {
      "t_address": {
        "encoding": "inplace",
        "label": "address",
        "numberOfBytes": "20"
      },
      "t_array(t_address)dyn_storage": {
        "base": "t_address",
        "encoding": "dynamic_array",
        "label": "address[]",
        "numberOfBytes": "32"
      },
      "t_array(t_array(t_array(t_uint16)dyn_storage)13_storage)3_storage": {
        "base": "t_array(t_array(t_uint16)dyn_storage)13_storage",
        "encoding": "inplace",
        "label": "uint16[][13][3]",
        "numberOfBytes": "1248"
      },
      "t_array(t_array(t_uint16)dyn_storage)13_storage": {
        "base": "t_array(t_uint16)dyn_storage",
        "encoding": "inplace",
        "label": "uint16[][13]",
        "numberOfBytes": "416"
      },
      "t_array(t_uint16)dyn_storage": {
        "base": "t_uint16",
        "encoding": "dynamic_array",
        "label": "uint16[]",
        "numberOfBytes": "32"
      },
      "t_bytes_storage": {
        "encoding": "bytes",
        "label": "bytes",
        "numberOfBytes": "32"
      },
      "t_contract(IChainRunners)7978": {
        "encoding": "inplace",
        "label": "contract IChainRunners",
        "numberOfBytes": "20"
      },
      "t_contract(IChainRunnersBaseRenderer)7999": {
        "encoding": "inplace",
        "label": "contract IChainRunnersBaseRenderer",
        "numberOfBytes": "20"
      },
      "t_uint16": {
        "encoding": "inplace",
        "label": "uint16",
        "numberOfBytes": "2"
      },
      "t_uint256": {
        "encoding": "inplace",
        "label": "uint256",
        "numberOfBytes": "32"
      }
    }
  }
}